{
  "contracts/MockUSDT.sol": {
    "MockUSDT": {
      "abi": [
        {
          "inputs": [],
          "stateMutability": "nonpayable",
          "type": "constructor"
        },
        {
          "anonymous": false,
          "inputs": [
            {
              "indexed": true,
              "internalType": "address",
              "name": "owner",
              "type": "address"
            },
            {
              "indexed": true,
              "internalType": "address",
              "name": "spender",
              "type": "address"
            },
            {
              "indexed": false,
              "internalType": "uint256",
              "name": "value",
              "type": "uint256"
            }
          ],
          "name": "Approval",
          "type": "event"
        },
        {
          "anonymous": false,
          "inputs": [
            {
              "indexed": true,
              "internalType": "address",
              "name": "from",
              "type": "address"
            },
            {
              "indexed": true,
              "internalType": "address",
              "name": "to",
              "type": "address"
            },
            {
              "indexed": false,
              "internalType": "uint256",
              "name": "value",
              "type": "uint256"
            }
          ],
          "name": "Transfer",
          "type": "event"
        },
        {
          "inputs": [
            {
              "internalType": "address",
              "name": "",
              "type": "address"
            },
            {
              "internalType": "address",
              "name": "",
              "type": "address"
            }
          ],
          "name": "allowance",
          "outputs": [
            {
              "internalType": "uint256",
              "name": "",
              "type": "uint256"
            }
          ],
          "stateMutability": "view",
          "type": "function"
        },
        {
          "inputs": [
            {
              "internalType": "address",
              "name": "spender",
              "type": "address"
            },
            {
              "internalType": "uint256",
              "name": "value",
              "type": "uint256"
            }
          ],
          "name": "approve",
          "outputs": [
            {
              "internalType": "bool",
              "name": "",
              "type": "bool"
            }
          ],
          "stateMutability": "nonpayable",
          "type": "function"
        },
        {
          "inputs": [
            {
              "internalType": "address",
              "name": "",
              "type": "address"
            }
          ],
          "name": "balanceOf",
          "outputs": [
            {
              "internalType": "uint256",
              "name": "",
              "type": "uint256"
            }
          ],
          "stateMutability": "view",
          "type": "function"
        },
        {
          "inputs": [],
          "name": "decimals",
          "outputs": [
            {
              "internalType": "uint8",
              "name": "",
              "type": "uint8"
            }
          ],
          "stateMutability": "view",
          "type": "function"
        },
        {
          "inputs": [
            {
              "internalType": "address",
              "name": "to",
              "type": "address"
            },
            {
              "internalType": "uint256",
              "name": "amount",
              "type": "uint256"
            }
          ],
          "name": "faucet",
          "outputs": [],
          "stateMutability": "nonpayable",
          "type": "function"
        },
        {
          "inputs": [
            {
              "internalType": "address",
              "name": "to",
              "type": "address"
            },
            {
              "internalType": "uint256",
              "name": "amount",
              "type": "uint256"
            }
          ],
          "name": "mint",
          "outputs": [],
          "stateMutability": "nonpayable",
          "type": "function"
        },
        {
          "inputs": [],
          "name": "name",
          "outputs": [
            {
              "internalType": "string",
              "name": "",
              "type": "string"
            }
          ],
          "stateMutability": "view",
          "type": "function"
        },
        {
          "inputs": [],
          "name": "owner",
          "outputs": [
            {
              "internalType": "address",
              "name": "",
              "type": "address"
            }
          ],
          "stateMutability": "view",
          "type": "function"
        },
        {
          "inputs": [],
          "name": "symbol",
          "outputs": [
            {
              "internalType": "string",
              "name": "",
              "type": "string"
            }
          ],
          "stateMutability": "view",
          "type": "function"
        },
        {
          "inputs": [],
          "name": "totalSupply",
          "outputs": [
            {
              "internalType": "uint256",
              "name": "",
              "type": "uint256"
            }
          ],
          "stateMutability": "view",
          "type": "function"
        },
        {
          "inputs": [
            {
              "internalType": "address",
              "name": "to",
              "type": "address"
            },
            {
              "internalType": "uint256",
              "name": "value",
              "type": "uint256"
            }
          ],
          "name": "transfer",
          "outputs": [
            {
              "internalType": "bool",
              "name": "",
              "type": "bool"
            }
          ],
          "stateMutability": "nonpayable",
          "type": "function"
        },
        {
          "inputs": [
            {
              "internalType": "address",
              "name": "from",
              "type": "address"
            },
            {
              "internalType": "address",
              "name": "to",
              "type": "address"
            },
            {
              "internalType": "uint256",
              "name": "value",
              "type": "uint256"
            }
          ],
          "name": "transferFrom",
          "outputs": [
            {
              "internalType": "bool",
              "name": "",
              "type": "bool"
            }
          ],
          "stateMutability": "nonpayable",
          "type": "function"
        }
      ],
      "storageLayout": {
        "storage": [
          {
            "astId": 733,
            "contract": "contracts/MockUSDT.sol:MockUSDT",
            "label": "name",
            "offset": 0,
            "slot": "0",
            "type": "t_string_storage"
          },
          {
            "astId": 736,
            "contract": "contracts/MockUSDT.sol:MockUSDT",
            "label": "symbol",
            "offset": 0,
            "slot": "1",
            "type": "t_string_storage"
          },
          {
            "astId": 741,
            "contract": "contracts/MockUSDT.sol:MockUSDT",
            "label": "totalSupply",
            "offset": 0,
            "slot": "2",
            "type": "t_uint256"
          },
          {
            "astId": 747,
            "contract": "contracts/MockUSDT.sol:MockUSDT",
            "label": "balanceOf",
            "offset": 0,
            "slot": "3",
            "type": "t_mapping(t_address,t_uint256)"
          },
          {
            "astId": 753,
            "contract": "contracts/MockUSDT.sol:MockUSDT",
            "label": "allowance",
            "offset": 0,
            "slot": "4",
            "type": "t_mapping(t_address,t_mapping(t_address,t_uint256))"
          }
        ],
        "types": {
          "t_address": {
            "encoding": "inplace",
            "label": "address",
            "numberOfBytes": "20"
          },
          "t_mapping(t_address,t_mapping(t_address,t_uint256))": {
            "encoding": "mapping",
            "key": "t_address",
            "label": "mapping(address => mapping(address => uint256))",
            "numberOfBytes": "32",
            "value": "t_mapping(t_address,t_uint256)"
          },
          "t_mapping(t_address,t_uint256)": {
            "encoding": "mapping",
            "key": "t_address",
            "label": "mapping(address => uint256)",
            "numberOfBytes": "32",
            "value": "t_uint256"
          },
          "t_string_storage": {
            "encoding": "bytes",
            "label": "string",
            "numberOfBytes": "32"
          },
          "t_uint256": {
            "encoding": "inplace",
            "label": "uint256",
            "numberOfBytes": "32"
          }
        }
      },
      "evm": {
        "assembly": "// RO data = 0/0 bytes\n// RW data = 276/65888 bytes\n// Stack size = 32768 bytes\n\n// Instructions = 5002\n// Code size = 17438 bytes\n\n      : @0 (gas: 7)\n     0: sp = sp + 0xffffffffffffffe8\n     3: u64 [sp + 0x10] = ra\n     6: u64 [sp + 0x8] = s0\n     9: u64 [sp] = s1\n    11: s1 = 0x20110\n    16: s0 = i32 [0x20110]\n    21: jump @3 if s0 == 0\n      : @1 (gas: 5)\n    24: a0 = 0x30140\n    29: i32 a0 = a0 + 0\n    31: i32 a1 = s1 + 0\n    33: ecalli 5 // 'get_immutable_data'\n    35: fallthrough\n      : @2 (gas: 3)\n    36: a0 = i32 [0x20110]\n    41: u32 [0x20110] = 0\n    46: jump @4 if a0 <u s0\n      : @3 (gas: 5)\n    49: ra = u64 [sp + 0x10]\n    52: s0 = u64 [sp + 0x8]\n    55: s1 = u64 [sp]\n    57: sp = sp + 0x18\n    60: ret\n      : @4 (gas: 1)\n    62: trap\n      : @5 (gas: 2)\n    63: a1 = i32 [0x20110]\n    68: jump @110 if a1 == 0\n      : @6 (gas: 4)\n    72: a0 = 0x30140\n    77: i32 a0 = a0 + 0\n    79: ecalli 9 // 'set_immutable_data'\n    81: jump @110\n      : @7 (gas: 8)\n    84: sp = sp + 0xfffffffffffffff0\n    87: u64 [sp + 0x8] = ra\n    90: u64 [sp] = s0\n    92: a2 = a1\n    94: s0 = a0\n    96: a1 = 0x20\n    99: a0 = a2\n   101: ra = 2, jump @19\n      : @8 [@dyn 1] (gas: 100)\n   106: a1 = u8 [a0 + 0x1]\n   109: a2 = u8 [a0]\n   111: a3 = u8 [a0 + 0x2]\n   114: a4 = u8 [a0 + 0x3]\n   117: a1 = a1 << 0x8\n   120: a1 = a1 | a2\n   123: a3 = a3 << 0x10\n   126: a4 = a4 << 0x18\n   129: a3 = a3 | a4\n   132: a1 = a1 | a3\n   135: a2 = u8 [a0 + 0x5]\n   138: a3 = u8 [a0 + 0x4]\n   141: a4 = u8 [a0 + 0x6]\n   144: a5 = u8 [a0 + 0x7]\n   147: a2 = a2 << 0x8\n   150: a2 = a2 | a3\n   153: a4 = a4 << 0x10\n   156: a5 = a5 << 0x18\n   159: a4 = a4 | a5\n   162: a2 = a2 | a4\n   165: a2 = a2 << 0x20\n   168: t0 = a2 | a1\n   171: a2 = u8 [a0 + 0x9]\n   174: a3 = u8 [a0 + 0x8]\n   177: a4 = u8 [a0 + 0xa]\n   180: a5 = u8 [a0 + 0xb]\n   183: a2 = a2 << 0x8\n   186: a2 = a2 | a3\n   189: a4 = a4 << 0x10\n   192: a5 = a5 << 0x18\n   195: a4 = a4 | a5\n   198: a2 = a2 | a4\n   201: a3 = u8 [a0 + 0xd]\n   204: a4 = u8 [a0 + 0xc]\n   207: a5 = u8 [a0 + 0xe]\n   210: a1 = u8 [a0 + 0xf]\n   213: a3 = a3 << 0x8\n   216: a3 = a3 | a4\n   219: a5 = a5 << 0x10\n   222: a1 = a1 << 0x18\n   225: a1 = a1 | a5\n   228: a1 = a1 | a3\n   231: a1 = a1 << 0x20\n   234: t1 = a1 | a2\n   237: a1 = u8 [a0 + 0x11]\n   240: a3 = u8 [a0 + 0x10]\n   243: a4 = u8 [a0 + 0x12]\n   246: a5 = u8 [a0 + 0x13]\n   249: a1 = a1 << 0x8\n   252: a1 = a1 | a3\n   255: a4 = a4 << 0x10\n   258: a5 = a5 << 0x18\n   261: a4 = a4 | a5\n   264: a1 = a1 | a4\n   267: a3 = u8 [a0 + 0x15]\n   270: a4 = u8 [a0 + 0x14]\n   273: a5 = u8 [a0 + 0x16]\n   276: a2 = u8 [a0 + 0x17]\n   279: a3 = a3 << 0x8\n   282: a3 = a3 | a4\n   285: a5 = a5 << 0x10\n   288: a2 = a2 << 0x18\n   291: a2 = a2 | a5\n   294: a2 = a2 | a3\n   297: a2 = a2 << 0x20\n   300: a3 = a2 | a1\n   303: a1 = u8 [a0 + 0x19]\n   306: a2 = u8 [a0 + 0x18]\n   309: a4 = u8 [a0 + 0x1a]\n   312: a5 = u8 [a0 + 0x1b]\n   315: a1 = a1 << 0x8\n   318: a1 = a1 | a2\n   321: a4 = a4 << 0x10\n   324: a5 = a5 << 0x18\n   327: a4 = a4 | a5\n   330: a1 = a1 | a4\n   333: a2 = u8 [a0 + 0x1d]\n   336: a4 = u8 [a0 + 0x1c]\n   339: a5 = u8 [a0 + 0x1e]\n   342: a0 = u8 [a0 + 0x1f]\n   345: a2 = a2 << 0x8\n   348: a2 = a2 | a4\n   351: a5 = a5 << 0x10\n   354: a0 = a0 << 0x18\n   357: a0 = a0 | a5\n   360: a0 = a0 | a2\n   363: a0 = a0 << 0x20\n   366: a0 = a0 | a1\n   369: a0 = reverse a0\n   371: a1 = reverse a3\n   373: a2 = reverse t1\n   375: a3 = reverse t0\n   377: u64 [s0 + 0x18] = a3\n   380: u64 [s0 + 0x10] = a2\n   383: u64 [s0 + 0x8] = a1\n   386: u64 [s0] = a0\n   388: ra = u64 [sp + 0x8]\n   391: s0 = u64 [sp]\n   393: sp = sp + 0x10\n   396: ret\n      : @9 (gas: 12)\n   398: sp = sp + 0xffffffffffffffd8\n   401: u64 [sp + 0x20] = ra\n   404: u64 [sp + 0x18] = s0\n   407: u64 [sp + 0x10] = s1\n   410: a2 = u64 [a1]\n   412: u64 [sp + 0x8] = a2\n   415: a2 = u64 [a1 + 0x8]\n   418: u64 [sp] = a2\n   420: s0 = u64 [a1 + 0x10]\n   423: s1 = u64 [a1 + 0x18]\n   426: a1 = 0x20\n   429: ra = 4, jump @19\n      : @10 [@dyn 2] (gas: 71)\n   434: a1 = reverse s1\n   436: a2 = reverse s0\n   438: a3 = u64 [sp]\n   440: a3 = reverse a3\n   442: a4 = u64 [sp + 0x8]\n   445: a4 = reverse a4\n   447: u8 [a0 + 0x18] = a4\n   450: u8 [a0 + 0x10] = a3\n   453: u8 [a0 + 0x8] = a2\n   456: u8 [a0] = a1\n   458: a5 = a4 >> 0x38\n   461: u8 [a0 + 0x1f] = a5\n   464: a5 = a4 >> 0x30\n   467: u8 [a0 + 0x1e] = a5\n   470: a5 = a4 >> 0x28\n   473: u8 [a0 + 0x1d] = a5\n   476: a5 = a4 >> 0x20\n   479: u8 [a0 + 0x1c] = a5\n   482: a5 = a4 >> 0x18\n   485: u8 [a0 + 0x1b] = a5\n   488: a5 = a4 >> 0x10\n   491: u8 [a0 + 0x1a] = a5\n   494: a4 = a4 >> 0x8\n   497: u8 [a0 + 0x19] = a4\n   500: a4 = a3 >> 0x38\n   503: u8 [a0 + 0x17] = a4\n   506: a4 = a3 >> 0x30\n   509: u8 [a0 + 0x16] = a4\n   512: a4 = a3 >> 0x28\n   515: u8 [a0 + 0x15] = a4\n   518: a4 = a3 >> 0x20\n   521: u8 [a0 + 0x14] = a4\n   524: a4 = a3 >> 0x18\n   527: u8 [a0 + 0x13] = a4\n   530: a4 = a3 >> 0x10\n   533: u8 [a0 + 0x12] = a4\n   536: a3 = a3 >> 0x8\n   539: u8 [a0 + 0x11] = a3\n   542: a3 = a2 >> 0x38\n   545: u8 [a0 + 0xf] = a3\n   548: a3 = a2 >> 0x30\n   551: u8 [a0 + 0xe] = a3\n   554: a3 = a2 >> 0x28\n   557: u8 [a0 + 0xd] = a3\n   560: a3 = a2 >> 0x20\n   563: u8 [a0 + 0xc] = a3\n   566: a3 = a2 >> 0x18\n   569: u8 [a0 + 0xb] = a3\n   572: a3 = a2 >> 0x10\n   575: u8 [a0 + 0xa] = a3\n   578: a2 = a2 >> 0x8\n   581: u8 [a0 + 0x9] = a2\n   584: a2 = a1 >> 0x38\n   587: u8 [a0 + 0x7] = a2\n   590: a2 = a1 >> 0x30\n   593: u8 [a0 + 0x6] = a2\n   596: a2 = a1 >> 0x28\n   599: u8 [a0 + 0x5] = a2\n   602: a2 = a1 >> 0x20\n   605: u8 [a0 + 0x4] = a2\n   608: a2 = a1 >> 0x18\n   611: u8 [a0 + 0x3] = a2\n   614: a2 = a1 >> 0x10\n   617: u8 [a0 + 0x2] = a2\n   620: a1 = a1 >> 0x8\n   623: u8 [a0 + 0x1] = a1\n   626: ra = u64 [sp + 0x20]\n   629: s0 = u64 [sp + 0x18]\n   632: s1 = u64 [sp + 0x10]\n   635: sp = sp + 0x28\n   638: ret\n      : @11 (gas: 32)\n   640: sp = sp + 0xffffffffffffffa0\n   643: u64 [sp + 0x58] = ra\n   646: u64 [sp + 0x50] = s0\n   649: u64 [sp + 0x48] = s1\n   652: s0 = sp + 0x60\n   655: sp = sp & 0xffffffffffffffe0\n   658: s1 = a0\n   660: a0 = u64 [a1 + 0x18]\n   663: a2 = u64 [a1 + 0x10]\n   666: a3 = u64 [a1 + 0x8]\n   669: a1 = u64 [a1]\n   671: a0 = reverse a0\n   673: a2 = reverse a2\n   675: a3 = reverse a3\n   677: a1 = reverse a1\n   679: u64 [sp + 0x18] = a1\n   682: u64 [sp + 0x10] = a3\n   685: u64 [sp + 0x8] = a2\n   688: u64 [sp] = a0\n   690: u64 [sp + 56] = 0\n   693: u64 [sp + 48] = 0\n   696: u64 [sp + 40] = 0\n   699: u64 [sp + 32] = 0\n   702: u32 [sp + 64] = 0x20\n   706: i32 a1 = sp + 0\n   708: i32 a3 = sp + 0x20\n   711: i32 a4 = sp + 0x40\n   714: a2 = 0xffffffffffffffff\n   717: a0 = 0\n   719: ra = 0x6\n   722: ecalli 6 // 'get_storage'\n   724: fallthrough\n      : @12 [@dyn 3] (gas: 5)\n   725: a0 = u64 [sp + 0x38]\n   728: a1 = u64 [sp + 0x30]\n   731: a2 = u64 [sp + 0x28]\n   734: a3 = u64 [sp + 0x20]\n   737: t0 = 8, jump @588\n      : @13 [@dyn 4] (gas: 5)\n   742: u64 [s1 + 0x18] = a3\n   745: u64 [s1 + 0x10] = a2\n   748: u64 [s1 + 0x8] = a1\n   751: u64 [s1] = a0\n   753: t0 = 10, jump @593\n      : @14 [@dyn 5] (gas: 1)\n   758: ret\n      : @15 (gas: 40)\n   760: sp = sp + 0xffffffffffffffa0\n   763: u64 [sp + 0x58] = ra\n   766: u64 [sp + 0x50] = s0\n   769: s0 = sp + 0x60\n   772: sp = sp & 0xffffffffffffffe0\n   775: t0 = u64 [a0]\n   777: a3 = u64 [a0 + 0x8]\n   780: a4 = u64 [a0 + 0x10]\n   783: a0 = u64 [a0 + 0x18]\n   786: t1 = u64 [a1]\n   788: a2 = u64 [a1 + 0x8]\n   791: a5 = u64 [a1 + 0x10]\n   794: a1 = u64 [a1 + 0x18]\n   797: t2 = reverse a0\n   799: a4 = reverse a4\n   801: a3 = reverse a3\n   803: a0 = reverse t0\n   805: t0 = reverse a1\n   807: a5 = reverse a5\n   809: a2 = reverse a2\n   811: a1 = reverse t1\n   813: u64 [sp + 0x18] = a0\n   816: u64 [sp + 0x10] = a3\n   819: u64 [sp + 0x8] = a4\n   822: u64 [sp] = t2\n   824: u64 [sp + 0x38] = a1\n   827: u64 [sp + 0x30] = a2\n   830: u64 [sp + 0x28] = a5\n   833: u64 [sp + 0x20] = t0\n   836: i32 a1 = sp + 0\n   838: i32 a3 = sp + 0x20\n   841: a2 = 0xffffffffffffffff\n   844: a4 = 0x20\n   847: a0 = 0\n   849: ecalli 10 // 'set_storage'\n   851: sp = s0 + 0xffffffffffffffa0\n   854: ra = u64 [sp + 0x58]\n   857: s0 = u64 [sp + 0x50]\n   860: sp = sp + 0x60\n   863: ret\n      : @16 (gas: 33)\n   865: sp = sp + 0xffffffffffffff20\n   869: u64 [sp + 0xd8] = ra\n   873: u64 [sp + 0xd0] = s0\n   877: u64 [sp + 0xc8] = s1\n   881: s0 = sp + 0xe0\n   885: sp = sp & 0xffffffffffffffe0\n   888: a5 = u64 [a4]\n   890: u64 [sp + 0x40] = a5\n   893: a5 = u64 [a4 + 0x8]\n   896: u64 [sp + 0x48] = a5\n   899: a5 = u64 [a4 + 0x10]\n   902: u64 [sp + 0x50] = a5\n   905: a4 = u64 [a4 + 0x18]\n   908: u64 [sp + 0x58] = a4\n   911: t0 = 0xc\n   914: a4 = u64 [a3]\n   916: u64 [sp + 0x18] = a4\n   919: a4 = u64 [a3 + 0x8]\n   922: u64 [sp + 0x20] = a4\n   925: a4 = u64 [a3 + 0x10]\n   928: u64 [sp + 0x28] = a4\n   931: a3 = u64 [a3 + 0x18]\n   934: u64 [sp + 0x30] = a3\n   937: s1 = u64 [a2]\n   939: a3 = u64 [a2 + 0x8]\n   942: u64 [sp] = a3\n   944: a3 = u64 [a2 + 0x10]\n   947: u64 [sp + 0x8] = a3\n   950: a2 = u64 [a2 + 0x18]\n   953: u64 [sp + 0x10] = a2\n   956: u64 [sp + 56] = 0x20\n   960: ra = 0xe\n   963: jump @19\n      : @17 [@dyn 6] (gas: 2)\n   966: u64 [sp + 0x38] = a1\n   969: ra = 14, jump @19\n      : @18 [@dyn 7] (gas: 46)\n   974: a1 = reverse s1\n   976: u64 [sp + 0x78] = a1\n   979: a1 = u64 [sp]\n   981: a1 = reverse a1\n   983: u64 [sp + 0x70] = a1\n   986: a1 = u64 [sp + 0x8]\n   989: a1 = reverse a1\n   991: u64 [sp + 0x68] = a1\n   994: a1 = u64 [sp + 0x10]\n   997: a1 = reverse a1\n   999: u64 [sp + 0x60] = a1\n  1002: a1 = u64 [sp + 0x18]\n  1005: a1 = reverse a1\n  1007: u64 [sp + 0x98] = a1\n  1011: a1 = u64 [sp + 0x20]\n  1014: a1 = reverse a1\n  1016: u64 [sp + 0x90] = a1\n  1020: a1 = u64 [sp + 0x28]\n  1023: a1 = reverse a1\n  1025: u64 [sp + 0x88] = a1\n  1029: a1 = u64 [sp + 0x30]\n  1032: a1 = reverse a1\n  1034: u64 [sp + 0x80] = a1\n  1038: a1 = u64 [sp + 0x40]\n  1041: a1 = reverse a1\n  1043: u64 [sp + 0xb8] = a1\n  1047: a1 = u64 [sp + 0x48]\n  1050: a1 = reverse a1\n  1052: u64 [sp + 0xb0] = a1\n  1056: a1 = u64 [sp + 0x50]\n  1059: a1 = reverse a1\n  1061: u64 [sp + 0xa8] = a1\n  1065: a1 = u64 [sp + 0x58]\n  1068: a1 = reverse a1\n  1070: u64 [sp + 0xa0] = a1\n  1074: i32 a2 = a0 + 0\n  1076: a3 = i32 [sp + 0x38]\n  1079: i32 a0 = sp + 0x60\n  1082: a1 = 0x3\n  1085: ecalli 4 // 'deposit_event'\n  1087: sp = s0 + 0xffffffffffffff20\n  1091: ra = u64 [sp + 0xd8]\n  1095: s0 = u64 [sp + 0xd0]\n  1099: s1 = u64 [sp + 0xc8]\n  1103: sp = sp + 0xe0\n  1107: ret\n      : @19 (gas: 2)\n  1109: i32 a2 = a0 >> 0x10\n  1112: jump @24 if a2 != 0\n      : @20 (gas: 4)\n  1115: a1 = a1 + a0\n  1118: i32 a1 = a1 + 0x1f\n  1121: a1 = a1 & 0xffffffffffffffe0\n  1124: jump @24 if a1 >u 65536\n      : @21 (gas: 3)\n  1130: a2 = 0x20118\n  1135: a3 = i32 [0x20118]\n  1140: jump @23 if a3 >=u a1\n      : @22 (gas: 2)\n  1143: u32 [0x20118] = a1\n  1148: fallthrough\n      : @23 (gas: 4)\n  1149: a1 = 0x20120\n  1154: i32 a0 = a0 + 0\n  1156: a0 = a0 + a1\n  1159: ret\n      : @24 (gas: 1)\n  1161: trap\n      : @25 (gas: 6)\n  1162: sp = sp + 0xfffffffffffffff0\n  1165: u64 [sp + 0x8] = ra\n  1168: u64 [sp] = s0\n  1170: s0 = a0 & 0x1\n  1173: ecalli 2 // 'call_data_size'\n  1175: fallthrough\n      : @26 (gas: 2)\n  1176: u32 [0x20114] = a0\n  1181: jump @28 if s0 == 0\n      : @27 (gas: 1)\n  1184: ra = 16, jump @29\n      : @28 [@dyn 8] (gas: 21)\n  1188: ra = 0x12\n  1191: sp = sp + 0xfffffffffffffe10\n  1195: u64 [sp + 0x1e8] = ra\n  1199: u64 [sp + 0x1e0] = s0\n  1203: u64 [sp + 0x1d8] = s1\n  1207: s0 = sp + 0x1f0\n  1211: sp = sp + 0xfffffffffffff800\n  1215: sp = sp + 0xfffffffffffff830\n  1219: sp = sp & 0xffffffffffffffe0\n  1222: s1 = sp\n  1224: a2 = s1 + 0x7ff\n  1228: a2 = a2 + 0x39\n  1231: u64 [a2 + 1600] = 0\n  1235: u64 [a2 + 1592] = 0\n  1239: u64 [a2 + 1576] = 0x80\n  1245: a0 = 0x40\n  1248: a1 = s1 + 0x7ff\n  1252: a1 = a1 + 0x661\n  1256: u64 [a2 + 1584] = 0\n  1260: ra = 0x8a\n  1264: jump @9\n      : @29 [@dyn 9] (gas: 15)\n  1267: sp = sp + 0xfffffffffffffb40\n  1271: a0 = sp + 0x400\n  1275: u64 [a0 + 0xb8] = ra\n  1279: u64 [a0 + 0xb0] = s0\n  1283: u64 [a0 + 0xa8] = s1\n  1287: s0 = sp + 0x4c0\n  1291: sp = sp & 0xffffffffffffffe0\n  1294: s1 = sp\n  1296: u64 [s1 + 984] = 0\n  1300: u64 [s1 + 976] = 0\n  1304: u64 [s1 + 960] = 0xa0\n  1310: a0 = 0x40\n  1313: a1 = s1 + 0x3c0\n  1317: u64 [s1 + 968] = 0\n  1321: ra = 20, jump @9\n      : @30 [@dyn 10] (gas: 7)\n  1326: u64 [s1 + 1016] = 0\n  1330: u64 [s1 + 1008] = 0\n  1334: u64 [s1 + 1000] = 0\n  1338: u64 [s1 + 992] = 0\n  1342: i32 a0 = s1 + 0x3e0\n  1346: ecalli 11 // 'value_transferred'\n  1348: fallthrough\n      : @31 (gas: 9)\n  1349: a4 = s1 + 0x300\n  1353: a0 = u64 [a4 + 0xf0]\n  1357: a1 = u64 [a4 + 0xf8]\n  1361: a2 = u64 [a4 + 0xe8]\n  1365: a3 = u64 [a4 + 0xe0]\n  1369: a1 = a1 | a2\n  1372: a0 = a0 | a3\n  1375: a0 = a0 | a1\n  1378: jump @100 if a0 != 0\n      : @32 (gas: 10)\n  1382: a0 = sp + 0xffffffffffffffe0\n  1385: a1 = a0 & 0xffffffffffffffe0\n  1388: sp = a1\n  1390: u64 [a1 + 24] = 0\n  1393: u64 [a1 + 16] = 0\n  1396: u64 [a1 + 8] = 0\n  1399: u64 [a1 + 0] = 0\n  1401: a0 = s1 + 0x3a0\n  1405: u64 [s1 + 0x58] = a1\n  1408: ra = 22, jump @11\n      : @33 [@dyn 11] (gas: 11)\n  1413: a2 = u64 [s1 + 0x3a0]\n  1417: a0 = u64 [s1 + 0x3a8]\n  1421: a1 = u64 [s1 + 0x3b0]\n  1425: a3 = u64 [s1 + 0x3b8]\n  1429: u64 [s1 + 0x378] = a3\n  1433: u64 [s1 + 0x370] = a1\n  1437: u64 [s1 + 0x368] = a0\n  1441: a0 = s1 + 0x380\n  1445: a1 = s1 + 0x360\n  1449: u64 [s1 + 0x360] = a2\n  1453: ra = 24, jump @431\n      : @34 [@dyn 12] (gas: 10)\n  1458: a0 = s1 + 0x300\n  1462: a2 = u64 [a0 + 0x98]\n  1466: a3 = u64 [a0 + 0x90]\n  1470: a5 = u64 [a0 + 0x80]\n  1474: a4 = u64 [a0 + 0x88]\n  1478: a0 = a3 | a2\n  1481: a1 = a5 <u 0x20\n  1484: a1 = 0 if a4 != 0\n  1486: a1 = 0 if a0 != 0\n  1488: jump @44 if a1 != 0\n      : @35 (gas: 11)\n  1492: u64 [s1 + 856] = 0\n  1496: u64 [s1 + 848] = 0\n  1500: u64 [s1 + 840] = 0\n  1504: a1 = s1 + 0x340\n  1508: u64 [s1 + 832] = 0\n  1512: a0 = 0\n  1514: u64 [s1 + 0x50] = a2\n  1517: u64 [s1 + 0x48] = a3\n  1520: u64 [s1 + 0x40] = a4\n  1523: u64 [s1 + 0x38] = a5\n  1526: ra = 26, jump @9\n      : @36 [@dyn 13] (gas: 3)\n  1531: a1 = 0x20\n  1534: a0 = 0\n  1536: ra = 28, jump @19\n      : @37 [@dyn 14] (gas: 1)\n  1541: t0 = 30, jump @591\n      : @38 [@dyn 15] (gas: 2)\n  1546: ecalli 7 // 'hash_keccak_256'\n  1548: t0 = 32, jump @568\n      : @39 [@dyn 16] (gas: 29)\n  1553: t0 = u64 [t2 + 0x8]\n  1556: a2 = u64 [t2]\n  1558: a4 = a3 ^ ra\n  1561: u64 [s1 + 0x28] = a3\n  1564: a3 = a3 <u ra\n  1567: a3 = a1 if a4 == 0\n  1570: t2 = reverse a2\n  1572: t0 = reverse t0\n  1574: a1 = a0 <u a5\n  1577: a2 = u64 [s1 + 0x50]\n  1580: a1 = a1 + a2\n  1583: a0 = a0 >> 0x5\n  1586: a2 = a1 << 0x3b\n  1589: a0 = a0 | a2\n  1592: a1 = a1 >> 0x5\n  1595: a0 = a0 + t0\n  1598: a2 = a0 <u t0\n  1601: a1 = a1 + t2\n  1604: a1 = a1 + a2\n  1607: a3 = a3 + a0\n  1610: u64 [s1 + 0x20] = a3\n  1613: a0 = a3 <u a0\n  1616: a0 = a0 + a1\n  1619: u64 [s1 + 0x18] = a0\n  1622: a0 = sp + 0xffffffffffffffe0\n  1625: a4 = a0 & 0xffffffffffffffe0\n  1628: sp = a4\n  1630: u64 [s1 + 0x10] = a4\n  1633: fallthrough\n      : @40 (gas: 20)\n  1634: a0 = u64 [s1 + 0x30]\n  1637: a0 = t1 <u a0\n  1640: a2 = u64 [s1 + 0x28]\n  1643: a1 = ra ^ a2\n  1646: a2 = ra <u a2\n  1649: a2 = a0 if a1 == 0\n  1652: a5 = u64 [s1 + 0x20]\n  1655: a0 = t0 <u a5\n  1658: a3 = u64 [s1 + 0x18]\n  1661: a1 = t2 ^ a3\n  1664: a3 = t2 <u a3\n  1667: a3 = a0 if a1 == 0\n  1670: a0 = t0 ^ a5\n  1673: a0 = a0 | a1\n  1676: a3 = a2 if a0 == 0\n  1679: u64 [a4] = t1\n  1681: u64 [a4 + 0x8] = ra\n  1684: u64 [a4 + 0x10] = t0\n  1687: u64 [a4 + 0x18] = t2\n  1690: jump @44 if a3 == 0\n      : @41 (gas: 7)\n  1693: a0 = a4\n  1695: a1 = u64 [s1 + 0x58]\n  1698: u64 [s1 + 0x50] = t1\n  1701: u64 [s1 + 0x48] = ra\n  1704: u64 [s1 + 0x40] = t2\n  1707: u64 [s1 + 0x38] = t0\n  1710: ra = 34, jump @15\n      : @42 [@dyn 17] (gas: 1)\n  1715: t0 = 36, jump @572\n      : @43 [@dyn 18] (gas: 2)\n  1720: t0 = a0\n  1722: jump @40\n      : @44 (gas: 10)\n  1724: a0 = u64 [0x20000]\n  1729: a2 = s1 + 0x400\n  1733: u64 [a2 + 0] = 0x12\n  1736: u64 [s1 + 1032] = 0\n  1740: u64 [a2 + 0x18] = a0\n  1743: a0 = 0x5400000000000000\n  1753: u64 [a2 + 0x10] = a0\n  1756: a1 = s1 + 0x400\n  1760: a0 = u64 [s1 + 0x58]\n  1763: ra = 38, jump @15\n      : @45 [@dyn 19] (gas: 10)\n  1768: a0 = sp + 0xffffffffffffffe0\n  1771: a1 = a0 & 0xffffffffffffffe0\n  1774: sp = a1\n  1776: u64 [a1 + 24] = 0\n  1779: u64 [a1 + 16] = 0\n  1782: u64 [a1 + 8] = 0\n  1785: u64 [a1 + 0] = 0x1\n  1788: a0 = s1 + 0x320\n  1792: u64 [s1 + 0x8] = a1\n  1795: ra = 40, jump @11\n      : @46 [@dyn 20] (gas: 12)\n  1800: a2 = u64 [s1 + 0x320]\n  1804: a0 = u64 [s1 + 0x328]\n  1808: a1 = u64 [s1 + 0x330]\n  1812: a3 = u64 [s1 + 0x338]\n  1816: a4 = s1 + 0x200\n  1820: u64 [a4 + 0xf8] = a3\n  1824: u64 [a4 + 0xf0] = a1\n  1828: u64 [a4 + 0xe8] = a0\n  1832: a0 = s1 + 0x300\n  1836: a1 = s1 + 0x2e0\n  1840: u64 [a4 + 0xe0] = a2\n  1844: ra = 42, jump @431\n      : @47 [@dyn 21] (gas: 15)\n  1849: a0 = s1 + 0x300\n  1853: a3 = u64 [a0 + 0x18]\n  1856: a4 = u64 [a0 + 0x10]\n  1859: a5 = u64 [a0 + 0x8]\n  1862: t0 = u64 [s1 + 0x300]\n  1866: a0 = a3 >u 0\n  1868: a1 = a4 >u 0\n  1870: a1 = a0 if a3 != 0\n  1873: a0 = a5 >u 0\n  1875: a2 = t0 <u 0x20\n  1878: a2 = a2 ^ 0x1\n  1881: a2 = a0 if a5 != 0\n  1884: a0 = a4 | a3\n  1887: a2 = a1 if a0 != 0\n  1890: jump @57 if a2 == 0\n      : @48 (gas: 11)\n  1894: u64 [s1 + 728] = 0\n  1898: u64 [s1 + 720] = 0\n  1902: u64 [s1 + 712] = 0\n  1906: a1 = s1 + 0x2c0\n  1910: u64 [s1 + 704] = 0x1\n  1915: a0 = 0\n  1917: u64 [s1 + 0x50] = a3\n  1920: u64 [s1 + 0x48] = a4\n  1923: u64 [s1 + 0x40] = a5\n  1926: u64 [s1 + 0x38] = t0\n  1929: ra = 44, jump @9\n      : @49 [@dyn 22] (gas: 3)\n  1934: a1 = 0x20\n  1937: a0 = 0\n  1939: ra = 46, jump @19\n      : @50 [@dyn 23] (gas: 1)\n  1944: t0 = 48, jump @591\n      : @51 [@dyn 24] (gas: 2)\n  1949: ecalli 7 // 'hash_keccak_256'\n  1951: t0 = 50, jump @568\n      : @52 [@dyn 25] (gas: 29)\n  1956: t0 = u64 [t2 + 0x8]\n  1959: a2 = u64 [t2]\n  1961: a4 = a3 ^ ra\n  1964: u64 [s1 + 0x28] = a3\n  1967: a3 = a3 <u ra\n  1970: a3 = a1 if a4 == 0\n  1973: t2 = reverse a2\n  1975: t0 = reverse t0\n  1977: a1 = a0 <u a5\n  1980: a2 = u64 [s1 + 0x50]\n  1983: a1 = a1 + a2\n  1986: a0 = a0 >> 0x5\n  1989: a2 = a1 << 0x3b\n  1992: a0 = a0 | a2\n  1995: a1 = a1 >> 0x5\n  1998: a0 = a0 + t0\n  2001: a2 = a0 <u t0\n  2004: a1 = a1 + t2\n  2007: a1 = a1 + a2\n  2010: a3 = a3 + a0\n  2013: u64 [s1 + 0x20] = a3\n  2016: a0 = a3 <u a0\n  2019: a0 = a0 + a1\n  2022: u64 [s1 + 0x18] = a0\n  2025: a0 = sp + 0xffffffffffffffe0\n  2028: a4 = a0 & 0xffffffffffffffe0\n  2031: sp = a4\n  2033: u64 [s1 + 0x10] = a4\n  2036: fallthrough\n      : @53 (gas: 20)\n  2037: a0 = u64 [s1 + 0x30]\n  2040: a0 = t1 <u a0\n  2043: a2 = u64 [s1 + 0x28]\n  2046: a1 = ra ^ a2\n  2049: a2 = ra <u a2\n  2052: a2 = a0 if a1 == 0\n  2055: a5 = u64 [s1 + 0x20]\n  2058: a0 = t0 <u a5\n  2061: a3 = u64 [s1 + 0x18]\n  2064: a1 = t2 ^ a3\n  2067: a3 = t2 <u a3\n  2070: a3 = a0 if a1 == 0\n  2073: a0 = t0 ^ a5\n  2076: a0 = a0 | a1\n  2079: a3 = a2 if a0 == 0\n  2082: u64 [a4] = t1\n  2084: u64 [a4 + 0x8] = ra\n  2087: u64 [a4 + 0x10] = t0\n  2090: u64 [a4 + 0x18] = t2\n  2093: jump @57 if a3 == 0\n      : @54 (gas: 7)\n  2096: a0 = a4\n  2098: a1 = u64 [s1 + 0x58]\n  2101: u64 [s1 + 0x50] = t1\n  2104: u64 [s1 + 0x48] = ra\n  2107: u64 [s1 + 0x40] = t2\n  2110: u64 [s1 + 0x38] = t0\n  2113: ra = 52, jump @15\n      : @55 [@dyn 26] (gas: 1)\n  2118: t0 = 54, jump @572\n      : @56 [@dyn 27] (gas: 2)\n  2123: t0 = a0\n  2125: jump @53\n      : @57 (gas: 8)\n  2127: u64 [s1 + 1072] = 0\n  2131: u64 [s1 + 1064] = 0\n  2135: u64 [s1 + 1056] = 0xa\n  2140: a0 = 0x6d55534454000000\n  2150: u64 [s1 + 0x438] = a0\n  2154: a1 = s1 + 0x420\n  2158: a0 = u64 [s1 + 0x8]\n  2161: ra = 56, jump @15\n      : @58 [@dyn 28] (gas: 9)\n  2166: a0 = 0x30120\n  2171: u64 [s1 + 0x58] = a0\n  2174: i32 a0 = a0 + 0\n  2176: u64 [s1 + 0x50] = a0\n  2179: ra = 0x3a\n  2182: ecalli 3 // 'caller'\n  2184: a2 = u64 [s1 + 0x58]\n  2187: t0 = 0x3c\n  2190: jump @567\n      : @59 [@dyn 29] (gas: 2)\n  2193: a2 = u64 [s1 + 0x58]\n  2196: t0 = 60, jump @567\n      : @60 [@dyn 30] (gas: 8)\n  2201: u64 [s1 + 696] = 0\n  2205: a2 = s1 + 0x200\n  2209: u64 [a2 + 0xb0] = a1\n  2213: u64 [a2 + 0xa8] = a0\n  2217: a0 = 0x80\n  2221: a1 = s1 + 0x2a0\n  2225: u64 [a2 + 0xa0] = a3\n  2229: ra = 62, jump @9\n      : @61 [@dyn 31] (gas: 3)\n  2234: a0 = u64 [s1 + 0x50]\n  2237: ecalli 3 // 'caller'\n  2239: fallthrough\n      : @62 (gas: 7)\n  2240: a2 = u64 [s1 + 0x58]\n  2243: a0 = u32 [a2 + 0x10]\n  2246: a1 = u64 [a2]\n  2248: a2 = u64 [a2 + 0x8]\n  2251: a0 = a0 | a1\n  2254: a0 = a0 | a2\n  2257: jump @76 if a0 != 0\n      : @63 (gas: 3)\n  2261: a0 = s1 + 0xe0\n  2265: a1 = 0x40\n  2268: ra = 64, jump @7\n      : @64 [@dyn 32] (gas: 12)\n  2273: a4 = u64 [s1 + 0xf8]\n  2277: a5 = u64 [s1 + 0xf0]\n  2281: a3 = u64 [s1 + 0xe8]\n  2285: a0 = u64 [s1 + 0xe0]\n  2289: a2 = a3 | a4\n  2292: a1 = a0 | a5\n  2295: a1 = a1 | a2\n  2298: a1 = a1 >> 0x20\n  2301: a2 = a2 | a5\n  2304: a2 = a2 << 0x20\n  2307: a1 = a1 | a2\n  2310: jump @99 if a1 != 0\n      : @65 (gas: 11)\n  2314: u64 [s1 + 208] = 0\n  2318: u64 [s1 + 200] = 0\n  2322: u64 [s1 + 192] = 0\n  2326: a2 = 0x8c379a000000000\n  2336: a1 = s1 + 0xc0\n  2340: u64 [s1 + 0xd8] = a2\n  2344: u64 [s1 + 0x58] = a0\n  2347: u64 [s1 + 0x50] = a3\n  2350: u64 [s1 + 0x48] = a4\n  2353: u64 [s1 + 0x40] = a5\n  2356: ra = 66, jump @9\n      : @66 [@dyn 33] (gas: 11)\n  2361: a1 = u64 [s1 + 0x58]\n  2364: a0 = u64 [s1 + 0x48]\n  2367: a3 = u64 [s1 + 0x40]\n  2370: a3 = a3 | a0\n  2373: a4 = 0x100000000\n  2383: a0 = 0xfffffffc\n  2393: a0 = a1 <u a0\n  2396: a2 = u64 [s1 + 0x50]\n  2399: a0 = 0 if a2 != 0\n  2401: a0 = 0 if a3 != 0\n  2403: jump @99 if a0 == 0\n      : @67 (gas: 9)\n  2407: i32 a0 = a1 + 0x4\n  2410: u64 [s1 + 184] = 0\n  2414: u64 [s1 + 176] = 0\n  2418: u64 [s1 + 160] = 0x20\n  2423: a1 = s1 + 0xa0\n  2427: u64 [s1 + 168] = 0\n  2431: u64 [s1 + 0x48] = a3\n  2434: u64 [s1 + 0x40] = a4\n  2437: ra = 68, jump @9\n      : @68 [@dyn 34] (gas: 5)\n  2442: a3 = u64 [s1 + 0x48]\n  2445: a2 = u64 [s1 + 0x50]\n  2448: a1 = u64 [s1 + 0x58]\n  2451: a0 = u64 [s1 + 0x40]\n  2454: t0 = 70, jump @583\n      : @69 [@dyn 35] (gas: 1)\n  2459: jump @99 if a0 == 0\n      : @70 (gas: 7)\n  2463: i32 a0 = a1 + 0x24\n  2466: u64 [s1 + 152] = 0\n  2470: u64 [s1 + 144] = 0\n  2474: u64 [s1 + 128] = 0xc\n  2479: a1 = s1 + 0x80\n  2483: u64 [s1 + 136] = 0\n  2487: ra = 72, jump @9\n      : @71 [@dyn 36] (gas: 8)\n  2492: a2 = u64 [s1 + 0x58]\n  2495: a0 = 0xffffffbc\n  2505: a0 = a2 <u a0\n  2508: a1 = u64 [s1 + 0x50]\n  2511: a0 = 0 if a1 != 0\n  2513: a1 = u64 [s1 + 0x48]\n  2516: a0 = 0 if a1 != 0\n  2518: jump @99 if a0 == 0\n      : @72 (gas: 3)\n  2522: i32 a0 = a2 + 0x44\n  2525: a1 = u64 [0x20028]\n  2530: t0 = 74, jump @589\n      : @73 [@dyn 37] (gas: 1)\n  2535: ra = 76, jump @9\n      : @74 [@dyn 38] (gas: 3)\n  2540: a1 = 0x64\n  2543: a0 = u64 [s1 + 0x58]\n  2546: ra = 78, jump @19\n      : @75 [@dyn 39] (gas: 5)\n  2551: i32 a1 = a0 + 0\n  2553: a0 = 0x1\n  2556: a2 = 0x64\n  2559: ecalli 8 // 'seal_return'\n  2561: fallthrough\n      : @76 (gas: 9)\n  2562: a0 = 0xe8d4a51000\n  2572: u64 [s1 + 0x48] = a0\n  2575: u64 [s1 + 1112] = 0\n  2579: u64 [s1 + 1104] = 0\n  2583: u64 [s1 + 1096] = 0\n  2587: u64 [s1 + 1088] = 0x2\n  2592: a0 = s1 + 0x280\n  2596: a1 = s1 + 0x440\n  2600: ra = 80, jump @11\n      : @77 [@dyn 40] (gas: 28)\n  2605: t0 = u64 [s1 + 0x298]\n  2609: t1 = u64 [s1 + 0x290]\n  2613: t2 = u64 [s1 + 0x288]\n  2617: a4 = u64 [s1 + 0x280]\n  2621: a1 = sp + 0xffffffffffffffe0\n  2624: a1 = a1 & 0xffffffffffffffe0\n  2627: sp = a1\n  2629: a5 = u64 [s1 + 0x48]\n  2632: a5 = a5 + a4\n  2635: a0 = a5 <u a4\n  2638: a3 = t2 + a0\n  2641: a2 = a3 <u t2\n  2644: a2 = a0 if a0 == 0\n  2647: a2 = a2 + t1\n  2650: a0 = a2 <u t1\n  2653: a0 = a0 + t0\n  2656: u64 [a1 + 0x10] = a2\n  2659: u64 [a1 + 0x8] = a3\n  2662: u64 [a1] = a5\n  2664: a2 = 0xffffff172b5aefff\n  2674: a2 = a2 <u a4\n  2677: t2 = t2 + 0x1\n  2680: a2 = 0 if t2 != 0\n  2682: a3 = t1 & t0\n  2685: a3 = a3 + 0x1\n  2688: a2 = 0 if a3 != 0\n  2690: u64 [a1 + 0x18] = a0\n  2693: jump @101 if a2 != 0\n      : @78 (gas: 6)\n  2697: u64 [s1 + 1144] = 0\n  2701: u64 [s1 + 1136] = 0\n  2705: u64 [s1 + 1128] = 0\n  2709: u64 [s1 + 1120] = 0x2\n  2714: a0 = s1 + 0x460\n  2718: ra = 82, jump @15\n      : @79 [@dyn 41] (gas: 6)\n  2723: a0 = u64 [s1 + 0x50]\n  2726: ra = 0x54\n  2729: ecalli 3 // 'caller'\n  2731: a2 = u64 [s1 + 0x58]\n  2734: t0 = 0x56\n  2737: jump @567\n      : @80 [@dyn 42] (gas: 2)\n  2740: a2 = u64 [s1 + 0x58]\n  2743: t0 = 86, jump @567\n      : @81 [@dyn 43] (gas: 7)\n  2748: u64 [s1 + 632] = 0\n  2752: u64 [s1 + 0x270] = a1\n  2756: u64 [s1 + 0x268] = a0\n  2760: a1 = s1 + 0x260\n  2764: u64 [s1 + 0x260] = a3\n  2768: a0 = 0\n  2770: ra = 88, jump @9\n      : @82 [@dyn 44] (gas: 7)\n  2775: u64 [s1 + 600] = 0\n  2779: u64 [s1 + 592] = 0\n  2783: u64 [s1 + 576] = 0x3\n  2788: a0 = 0x20\n  2791: a1 = s1 + 0x240\n  2795: u64 [s1 + 584] = 0\n  2799: ra = 90, jump @9\n      : @83 [@dyn 45] (gas: 7)\n  2804: a0 = sp + 0xffffffffffffffe0\n  2807: a0 = a0 & 0xffffffffffffffe0\n  2810: u64 [s1 + 0x40] = a0\n  2813: sp = a0\n  2815: a1 = 0x40\n  2818: a0 = 0\n  2820: ra = 92, jump @19\n      : @84 [@dyn 46] (gas: 4)\n  2825: a1 = sp + 0xffffffffffffffe0\n  2828: a1 = a1 & 0xffffffffffffffe0\n  2831: u64 [s1 + 0x38] = a1\n  2834: t0 = 94, jump @570\n      : @85 [@dyn 47] (gas: 5)\n  2839: ra = 0x60\n  2842: ecalli 7 // 'hash_keccak_256'\n  2844: a3 = u64 [s1 + 0x38]\n  2847: t0 = 0x62\n  2850: jump @573\n      : @86 [@dyn 48] (gas: 2)\n  2853: a3 = u64 [s1 + 0x38]\n  2856: t0 = 98, jump @573\n      : @87 [@dyn 49] (gas: 7)\n  2861: a1 = u64 [s1 + 0x40]\n  2864: u64 [a1 + 0x18] = a3\n  2867: u64 [a1 + 0x10] = a2\n  2870: u64 [a1 + 0x8] = a4\n  2873: u64 [a1] = a0\n  2875: a0 = s1 + 0x220\n  2879: ra = 100, jump @11\n      : @88 [@dyn 50] (gas: 21)\n  2884: a0 = u64 [s1 + 0x220]\n  2888: a1 = u64 [s1 + 0x238]\n  2892: a2 = u64 [s1 + 0x228]\n  2896: a3 = u64 [s1 + 0x230]\n  2900: a4 = u64 [s1 + 0x48]\n  2903: a4 = a4 + a0\n  2906: a0 = a4 <u a0\n  2909: a5 = a2 + a0\n  2912: a2 = a5 <u a2\n  2915: a2 = a0 if a0 == 0\n  2918: a2 = a2 + a3\n  2921: a0 = a2 <u a3\n  2924: a0 = a0 + a1\n  2927: a1 = s1 + 0x400\n  2931: u64 [a1 + 0x80] = a4\n  2935: u64 [a1 + 0x88] = a5\n  2939: u64 [a1 + 0x90] = a2\n  2943: u64 [a1 + 0x98] = a0\n  2947: a1 = s1 + 0x480\n  2951: a0 = u64 [s1 + 0x40]\n  2954: ra = 102, jump @15\n      : @89 [@dyn 51] (gas: 3)\n  2959: a0 = s1 + 0x200\n  2963: a1 = 0x40\n  2966: ra = 104, jump @7\n      : @90 [@dyn 52] (gas: 6)\n  2971: a4 = s1 + 0x200\n  2975: a3 = u64 [a4 + 0x18]\n  2978: a1 = u64 [a4 + 0x10]\n  2981: a2 = u64 [a4 + 0x8]\n  2984: a0 = u64 [a4]\n  2986: t0 = 106, jump @571\n      : @91 [@dyn 53] (gas: 1)\n  2991: jump @99 if a1 != 0\n      : @92 (gas: 8)\n  2995: u64 [s1 + 504] = 0\n  2999: u64 [s1 + 496] = 0\n  3003: u64 [s1 + 488] = 0\n  3007: a2 = 0xe8d4a51000\n  3017: a1 = s1 + 0x1e0\n  3021: u64 [s1 + 0x1e0] = a2\n  3025: u64 [s1 + 0x48] = a0\n  3028: ra = 108, jump @9\n      : @93 [@dyn 54] (gas: 6)\n  3033: a0 = u64 [s1 + 0x50]\n  3036: ra = 0x6e\n  3039: ecalli 3 // 'caller'\n  3041: a2 = u64 [s1 + 0x58]\n  3044: t0 = 0x70\n  3047: jump @577\n      : @94 [@dyn 55] (gas: 2)\n  3050: a2 = u64 [s1 + 0x58]\n  3053: t0 = 112, jump @577\n      : @95 [@dyn 56] (gas: 28)\n  3058: t0 = a1 | a0\n  3061: a3 = a3 >> 0x20\n  3064: a2 = reverse a2\n  3066: a1 = a2 << 0x20\n  3069: a1 = a1 | a3\n  3072: a2 = a2 >> 0x20\n  3075: u64 [s1 + 408] = 0\n  3079: u64 [s1 + 440] = 0\n  3083: u64 [s1 + 432] = 0\n  3087: u64 [s1 + 424] = 0\n  3091: u64 [s1 + 416] = 0\n  3095: a3 = u64 [0x20008]\n  3100: a4 = u64 [0x20010]\n  3105: a5 = u64 [0x20018]\n  3110: a0 = u64 [0x20020]\n  3115: u64 [s1 + 0x1d8] = a3\n  3119: u64 [s1 + 0x1d0] = a4\n  3123: u64 [s1 + 0x1c8] = a5\n  3127: u64 [s1 + 0x1c0] = a0\n  3131: u64 [s1 + 0x190] = a2\n  3135: u64 [s1 + 0x188] = a1\n  3139: a1 = 0x20\n  3142: a2 = s1 + 0x1c0\n  3146: a3 = s1 + 0x1a0\n  3150: a4 = s1 + 0x180\n  3154: u64 [s1 + 0x180] = t0\n  3158: a0 = u64 [s1 + 0x48]\n  3161: ra = 114, jump @16\n      : @96 [@dyn 57] (gas: 3)\n  3166: a0 = s1 + 0x160\n  3170: a1 = 0x40\n  3173: ra = 116, jump @7\n      : @97 [@dyn 58] (gas: 6)\n  3178: a4 = s1 + 0x100\n  3182: a3 = u64 [a4 + 0x78]\n  3185: a1 = u64 [a4 + 0x70]\n  3188: a2 = u64 [a4 + 0x68]\n  3191: a0 = u64 [a4 + 0x60]\n  3194: t0 = 118, jump @571\n      : @98 [@dyn 59] (gas: 1)\n  3199: jump @107 if a1 == 0\n      : @99 (gas: 1)\n  3202: trap\n      : @100 (gas: 8)\n  3203: a1 = 0x20120\n  3208: i32 a1 = a1 + 0\n  3210: a0 = 0x1\n  3213: a2 = 0\n  3215: ra = 0x78\n  3218: ecalli 8 // 'seal_return'\n  3220: t0 = 0x7a\n  3223: jump @578\n      : @101 [@dyn 60] (gas: 1)\n  3226: t0 = 122, jump @578\n      : @102 [@dyn 61] (gas: 1)\n  3231: ra = 124, jump @9\n      : @103 [@dyn 62] (gas: 1)\n  3236: t0 = 126, jump @585\n      : @104 [@dyn 63] (gas: 1)\n  3241: ra = 128, jump @9\n      : @105 [@dyn 64] (gas: 3)\n  3247: a1 = 0x24\n  3250: a0 = 0\n  3252: ra = 130, jump @19\n      : @106 [@dyn 65] (gas: 7)\n  3258: i32 a1 = a0 + 0\n  3260: a0 = 0x1\n  3263: a2 = 0x24\n  3266: ecalli 8 // 'seal_return'\n  3268: u64 [s1 + 0x58] = a0\n  3271: ra = 0x84\n  3275: jump @19\n      : @107 (gas: 2)\n  3278: u64 [s1 + 0x58] = a0\n  3281: ra = 132, jump @19\n      : @108 [@dyn 66] (gas: 7)\n  3287: i32 a0 = a0 + 0\n  3289: a1 = 0\n  3291: a2 = 0\n  3293: ecalli 0 // 'call_data_copy'\n  3294: a0 = s1 + 0x140\n  3298: a1 = 0x80\n  3302: ra = 134, jump @7\n      : @109 [@dyn 67] (gas: 10)\n  3308: a5 = s1 + 0x100\n  3312: a0 = u64 [a5 + 0x58]\n  3315: a2 = u64 [a5 + 0x50]\n  3318: a3 = u64 [a5 + 0x48]\n  3321: a4 = u64 [a5 + 0x40]\n  3324: u64 [0x30158] = a0\n  3329: u64 [0x30150] = a2\n  3334: u64 [0x30148] = a3\n  3339: u64 [0x30140] = a4\n  3344: jump @5\n      : @110 (gas: 3)\n  3347: a0 = u64 [s1 + 0x58]\n  3350: a1 = 0\n  3352: ra = 136, jump @19\n      : @111 [@dyn 68] (gas: 7)\n  3358: i32 a1 = a0 + 0\n  3360: a0 = 0\n  3362: a2 = 0\n  3364: ra = 0x78\n  3367: ecalli 8 // 'seal_return'\n  3369: t0 = 0x7a\n  3372: jump @578\n      : @112 [@dyn 69] (gas: 4)\n  3375: a0 = 0x20114\n  3380: u64 [s1 + 0xb8] = a0\n  3384: a0 = i32 [0x20114]\n  3389: jump @114 if a0 >=u 4\n      : @113 (gas: 1)\n  3393: jump @419\n      : @114 (gas: 14)\n  3396: a0 = sp + 0xffffffffffffffe0\n  3399: a0 = a0 & 0xffffffffffffffe0\n  3402: sp = a0\n  3404: u64 [a0 + 24] = 0\n  3407: u64 [a0 + 16] = 0\n  3410: u64 [a0 + 8] = 0\n  3413: u64 [s1 + 0xb0] = a0\n  3417: u64 [a0 + 0] = 0\n  3419: a0 = s1 + 0x1000\n  3423: i32 a0 = a0 + 0xfffffffffffffe80\n  3427: a1 = 0\n  3429: ra = 0x8c\n  3433: ecalli 1 // 'call_data_load'\n  3435: fallthrough\n      : @115 [@dyn 70] (gas: 4)\n  3436: a2 = s1 + 0x7ff\n  3440: a2 = a2 + 0x39\n  3443: a0 = i32 [a2 + 0x664]\n  3447: jump @117 if a0 != 2376452955\n      : @116 (gas: 1)\n  3454: jump @327\n      : @117 (gas: 1)\n  3457: jump @166 if a0 == 2514000705\n      : @118 (gas: 1)\n  3465: jump @120 if a0 != 2835717307\n      : @119 (gas: 1)\n  3472: jump @335\n      : @120 (gas: 1)\n  3475: jump @246 if a0 == 3714247998\n      : @121 (gas: 1)\n  3483: jump @123 if a0 != 117300739\n      : @122 (gas: 1)\n  3490: jump @318\n      : @123 (gas: 1)\n  3493: jump @125 if a0 != 157198259\n      : @124 (gas: 1)\n  3500: jump @290\n      : @125 (gas: 1)\n  3503: jump @155 if a0 == 404098525\n      : @126 (gas: 1)\n  3511: jump @205 if a0 == 599290589\n      : @127 (gas: 1)\n  3519: jump @195 if a0 == 826074471\n      : @128 (gas: 1)\n  3527: jump @270 if a0 != 1086394137\n      : @129 (gas: 11)\n  3535: a0 = s1 + 0x1038\n  3539: u64 [a0 + 0] = 0\n  3541: u64 [a0 + 4294967288] = 0\n  3544: u64 [a0 + 4294967280] = 0\n  3547: u64 [a0 + 4294967272] = 0\n  3550: a0 = s1 + 0x1000\n  3554: i32 a0 = a0 + 0x20\n  3557: ecalli 11 // 'value_transferred'\n  3559: t0 = 0x8e\n  3563: a3 = s1 + 0x1038\n  3567: fallthrough\n      : @130 [@dyn 71] (gas: 9)\n  3568: a4 = a3 + 0xffffffffffffff00\n  3572: a0 = u64 [a4 + 0xf8]\n  3576: a1 = u64 [a3]\n  3578: a2 = u64 [a4 + 0xf0]\n  3582: a3 = u64 [a4 + 0xe8]\n  3586: a1 = a1 | a2\n  3589: a0 = a0 | a3\n  3592: a0 = a0 | a1\n  3595: jump @132 if a0 == 0\n      : @131 (gas: 1)\n  3598: jump @417\n      : @132 (gas: 4)\n  3601: a0 = u64 [s1 + 0xb8]\n  3605: a0 = i32 [a0]\n  3607: a1 = 0x43\n  3610: jump @134 if a1 <u a0\n      : @133 (gas: 1)\n  3613: jump @417\n      : @134 (gas: 5)\n  3616: a0 = s1 + 0x7ff\n  3620: a0 = a0 + 0x121\n  3624: ra = 0x90\n  3628: t0 = 0x1f2\n  3632: jump @592\n      : @135 [@dyn 72] (gas: 11)\n  3635: a0 = s1 + 0x7ff\n  3639: a0 = a0 + 0x39\n  3642: a1 = u64 [a0 + 0x100]\n  3646: u64 [s1 + 0x80] = a1\n  3650: a1 = u64 [a0 + 0xf8]\n  3654: u64 [s1 + 0x88] = a1\n  3658: a1 = u64 [a0 + 0xf0]\n  3662: u64 [s1 + 0x90] = a1\n  3666: a0 = u64 [a0 + 0xe8]\n  3670: u64 [s1 + 0x98] = a0\n  3674: ra = 146, jump @0\n      : @136 [@dyn 73] (gas: 11)\n  3680: a1 = u64 [0x30148]\n  3685: u64 [s1 + 0xb8] = a1\n  3689: a1 = u64 [0x30140]\n  3694: u64 [s1 + 0xb0] = a1\n  3698: a0 = u32 [0x30150]\n  3703: u64 [s1 + 0xa8] = a0\n  3707: a0 = 0x30120\n  3712: u64 [s1 + 0xa0] = a0\n  3716: i32 a0 = a0 + 0\n  3718: ecalli 3 // 'caller'\n  3720: fallthrough\n      : @137 (gas: 23)\n  3721: a2 = u64 [s1 + 0xa0]\n  3725: a0 = u64 [a2 + 0x8]\n  3728: a1 = u64 [a2]\n  3730: a2 = i32 [a2 + 0x10]\n  3733: a0 = reverse a0\n  3735: a3 = a0 >> 0x20\n  3738: a1 = reverse a1\n  3740: a4 = a1 << 0x20\n  3743: a3 = a3 | a4\n  3746: a0 = a0 << 0x20\n  3749: a2 = reverse a2\n  3751: a2 = a2 >> 0x20\n  3754: a0 = a0 | a2\n  3757: a1 = a1 >> 0x20\n  3760: a2 = u64 [s1 + 0xa8]\n  3764: a1 = a1 ^ a2\n  3767: a2 = u64 [s1 + 0xb0]\n  3771: a0 = a0 ^ a2\n  3774: a0 = a0 | a1\n  3777: a1 = u64 [s1 + 0xb8]\n  3781: a1 = a1 ^ a3\n  3784: a0 = a0 | a1\n  3787: jump @139 if a0 != 0\n      : @138 (gas: 1)\n  3790: jump @407\n      : @139 (gas: 4)\n  3793: a0 = s1 + 0x7ff\n  3797: a0 = a0 + 0x101\n  3801: a1 = 0x40\n  3804: ra = 148, jump @7\n      : @140 [@dyn 74] (gas: 14)\n  3810: a3 = s1 + 0x7ff\n  3814: a3 = a3 + 0x39\n  3817: t0 = u64 [a3 + 0xe0]\n  3821: a5 = u64 [a3 + 0xd8]\n  3825: a4 = u64 [a3 + 0xd0]\n  3829: a0 = u64 [a3 + 0xc8]\n  3833: a2 = a4 | t0\n  3836: a1 = a0 | a5\n  3839: a1 = a1 | a2\n  3842: a1 = a1 >> 0x20\n  3845: a2 = a2 | a5\n  3848: a2 = a2 << 0x20\n  3851: a1 = a1 | a2\n  3854: jump @142 if a1 == 0\n      : @141 (gas: 1)\n  3857: jump @398\n      : @142 (gas: 13)\n  3860: a2 = a3\n  3862: u64 [a3 + 184] = 0\n  3866: u64 [a3 + 176] = 0\n  3870: u64 [a3 + 168] = 0\n  3874: a3 = 0x8c379a000000000\n  3884: a1 = s1 + 0x7ff\n  3888: a1 = a1 + 0xe1\n  3892: u64 [a2 + 0xc0] = a3\n  3896: u64 [s1 + 0xb8] = a0\n  3900: u64 [s1 + 0xb0] = a4\n  3904: u64 [s1 + 0xa0] = t0\n  3908: u64 [s1 + 0xa8] = a5\n  3912: ra = 150, jump @9\n      : @143 [@dyn 75] (gas: 5)\n  3918: a1 = u64 [s1 + 0xb8]\n  3922: a0 = u64 [s1 + 0xa8]\n  3926: a3 = u64 [s1 + 0xa0]\n  3930: a3 = a3 | a0\n  3933: t0 = 152, jump @582\n      : @144 [@dyn 76] (gas: 1)\n  3939: jump @146 if a0 != 0\n      : @145 (gas: 1)\n  3942: jump @398\n      : @146 (gas: 13)\n  3945: i32 a0 = a1 + 0x4\n  3948: a2 = s1 + 0x7ff\n  3952: a2 = a2 + 0x39\n  3955: a5 = 0\n  3957: u64 [a2 + 160] = 0\n  3961: u64 [a2 + 152] = 0\n  3965: u64 [a2 + 136] = 0x20\n  3970: a1 = s1 + 0x7ff\n  3974: a1 = a1 + 0xc1\n  3978: u64 [a2 + 144] = 0\n  3982: u64 [s1 + 0xa8] = a3\n  3986: u64 [s1 + 0xa0] = a4\n  3990: ra = 154, jump @9\n      : @147 [@dyn 77] (gas: 5)\n  3996: a3 = u64 [s1 + 0xa8]\n  4000: a2 = u64 [s1 + 0xb0]\n  4004: a1 = u64 [s1 + 0xb8]\n  4008: a0 = u64 [s1 + 0xa0]\n  4012: t0 = 156, jump @583\n      : @148 [@dyn 78] (gas: 1)\n  4018: jump @150 if a0 != 0\n      : @149 (gas: 1)\n  4021: jump @398\n      : @150 (gas: 10)\n  4024: i32 a0 = a1 + 0x24\n  4027: a3 = s1 + 0x7ff\n  4031: a3 = a3 + 0x39\n  4034: u64 [a3 + 128] = 0\n  4038: u64 [a3 + 120] = 0\n  4041: u64 [a3 + 104] = 0x9\n  4045: a1 = s1 + 0x7ff\n  4049: a1 = a1 + 0xa1\n  4053: u64 [a3 + 112] = 0\n  4056: ra = 158, jump @9\n      : @151 [@dyn 79] (gas: 1)\n  4062: t0 = 160, jump @581\n      : @152 [@dyn 80] (gas: 1)\n  4068: jump @154 if a0 != 0\n      : @153 (gas: 1)\n  4071: jump @398\n      : @154 (gas: 13)\n  4074: i32 a0 = a2 + 0x44\n  4077: a1 = u64 [0x20050]\n  4082: a3 = s1 + 0x7ff\n  4086: a3 = a3 + 0x39\n  4089: u64 [a3 + 80] = 0\n  4092: u64 [a3 + 0x60] = a1\n  4095: a1 = 0x7200000000000000\n  4105: u64 [a3 + 0x58] = a1\n  4108: a1 = s1 + 0x7ff\n  4112: a1 = a1 + 0x81\n  4116: u64 [a3 + 72] = 0\n  4119: ra = 0xea\n  4123: jump @9\n      : @155 (gas: 8)\n  4126: u64 [a2 + 1792] = 0\n  4130: u64 [a2 + 1784] = 0\n  4134: u64 [a2 + 1776] = 0\n  4138: u64 [a2 + 1768] = 0\n  4142: a0 = s1 + 0x1000\n  4146: i32 a0 = a0 + 0xffffffffffffff20\n  4150: ecalli 11 // 'value_transferred'\n  4152: fallthrough\n      : @156 (gas: 11)\n  4153: a4 = s1 + 0x7ff\n  4157: a4 = a4 + 0x39\n  4160: a5 = a4 + 0x600\n  4164: a0 = u64 [a5 + 0xf8]\n  4168: a1 = u64 [a4 + 0x700]\n  4172: a2 = u64 [a5 + 0xf0]\n  4176: a3 = u64 [a5 + 0xe8]\n  4180: a1 = a1 | a2\n  4183: a0 = a0 | a3\n  4186: a0 = a0 | a1\n  4189: jump @158 if a0 == 0\n      : @157 (gas: 1)\n  4192: jump @417\n      : @158 (gas: 3)\n  4195: a0 = u64 [s1 + 0xb8]\n  4199: a0 = i32 [a0]\n  4201: jump @160 if a0 >u 3\n      : @159 (gas: 1)\n  4205: jump @417\n      : @160 (gas: 8)\n  4208: u64 [a4 + 1824] = 0\n  4212: u64 [a4 + 1816] = 0\n  4216: u64 [a4 + 1808] = 0\n  4220: u64 [a4 + 1800] = 0x2\n  4225: a0 = s1 + 0x400\n  4229: a1 = s1 + 0x7ff\n  4233: a1 = a1 + 0x741\n  4237: ra = 162, jump @11\n      : @161 [@dyn 81] (gas: 12)\n  4243: a1 = s1 + 0x400\n  4247: a0 = u64 [a1 + 0x18]\n  4250: u64 [s1 + 0xb8] = a0\n  4254: a0 = u64 [a1 + 0x10]\n  4257: u64 [s1 + 0xb0] = a0\n  4261: a0 = u64 [a1 + 0x8]\n  4264: u64 [s1 + 0xa8] = a0\n  4268: a0 = u64 [a1]\n  4270: u64 [s1 + 0xa0] = a0\n  4274: a0 = s1 + 0x3e0\n  4278: a1 = 0x40\n  4281: ra = 164, jump @7\n      : @162 [@dyn 82] (gas: 6)\n  4287: a4 = s1 + 0x300\n  4291: a0 = u64 [a4 + 0xf8]\n  4295: a1 = u64 [a4 + 0xf0]\n  4299: a2 = u64 [a4 + 0xe8]\n  4303: a3 = u64 [a4 + 0xe0]\n  4307: t0 = 166, jump @587\n      : @163 [@dyn 83] (gas: 1)\n  4313: jump @165 if a0 == 0\n      : @164 (gas: 1)\n  4316: jump @398\n      : @165 (gas: 14)\n  4319: a0 = u64 [s1 + 0xa0]\n  4323: a2 = s1 + 0x300\n  4327: u64 [a2 + 0xc0] = a0\n  4331: a0 = u64 [s1 + 0xa8]\n  4335: u64 [a2 + 0xc8] = a0\n  4339: a0 = u64 [s1 + 0xb0]\n  4343: u64 [a2 + 0xd0] = a0\n  4347: a1 = s1 + 0x3c0\n  4351: a0 = u64 [s1 + 0xb8]\n  4355: u64 [a2 + 0xd8] = a0\n  4359: a0 = a3\n  4361: u64 [s1 + 0xb8] = a3\n  4365: ra = 0x1b0\n  4369: jump @9\n      : @166 (gas: 11)\n  4372: a0 = s1 + 0x1038\n  4376: u64 [a0 + 224] = 0\n  4380: u64 [a0 + 216] = 0\n  4384: u64 [a0 + 208] = 0\n  4388: u64 [a0 + 200] = 0\n  4392: a0 = s1 + 0x1000\n  4396: i32 a0 = a0 + 0x100\n  4400: ecalli 11 // 'value_transferred'\n  4402: t0 = 0xa8\n  4406: a3 = s1 + 0x1038\n  4410: fallthrough\n      : @167 [@dyn 84] (gas: 8)\n  4411: a0 = u64 [a3 + 0xd8]\n  4415: a1 = u64 [a3 + 0xe0]\n  4419: a2 = u64 [a3 + 0xd0]\n  4423: a3 = u64 [a3 + 0xc8]\n  4427: a1 = a1 | a2\n  4430: a0 = a0 | a3\n  4433: a0 = a0 | a1\n  4436: jump @169 if a0 == 0\n      : @168 (gas: 1)\n  4439: jump @417\n      : @169 (gas: 3)\n  4442: a0 = u64 [s1 + 0xb8]\n  4446: a0 = i32 [a0]\n  4448: jump @171 if a0 >u 3\n      : @170 (gas: 1)\n  4452: jump @417\n      : @171 (gas: 4)\n  4455: a0 = s1 + 0x7ff\n  4459: a0 = a0 + 0x461\n  4463: a1 = 0x40\n  4466: ra = 170, jump @7\n      : @172 [@dyn 85] (gas: 21)\n  4472: a1 = s1 + 0x7ff\n  4476: a1 = a1 + 0x39\n  4479: a2 = a1 + 0x400\n  4483: a0 = u64 [a2 + 0x40]\n  4486: u64 [s1 + 0x18] = a0\n  4489: a0 = u64 [a2 + 0x38]\n  4492: u64 [s1 + 0x28] = a0\n  4495: a0 = u64 [a2 + 0x30]\n  4498: u64 [s1 + 0x20] = a0\n  4501: a0 = u64 [a2 + 0x28]\n  4504: u64 [s1 + 0x30] = a0\n  4507: a1 = sp + 0xffffffffffffffe0\n  4510: a1 = a1 & 0xffffffffffffffe0\n  4513: sp = a1\n  4515: u64 [a1 + 24] = 0\n  4518: u64 [a1 + 16] = 0\n  4521: u64 [a1 + 8] = 0\n  4524: u64 [a1 + 0] = 0x1\n  4527: a0 = s1 + 0x7ff\n  4531: a0 = a0 + 0x441\n  4535: ra = 172, jump @11\n      : @173 [@dyn 86] (gas: 36)\n  4541: a0 = s1 + 0x7ff\n  4545: a0 = a0 + 0x39\n  4548: t2 = u64 [a0 + 0x418]\n  4552: ra = u64 [a0 + 0x410]\n  4556: t1 = u64 [a0 + 0x420]\n  4560: a4 = u64 [a0 + 0x408]\n  4564: a0 = t2 << 0x3f\n  4567: a1 = ra >> 0x1\n  4570: a0 = a0 | a1\n  4573: a1 = t1 << 0x3f\n  4576: a2 = t2 >> 0x1\n  4579: a1 = a1 | a2\n  4582: a2 = ra << 0x3f\n  4585: a3 = a4 >> 0x1\n  4588: a5 = a3 | a2\n  4591: a2 = t1 >> 0x1\n  4594: u64 [s1 + 0xb0] = a4\n  4598: a4 = a4 & 0x1\n  4601: a3 = -a4\n  4603: a1 = a1 & a3\n  4606: t0 = a3 & a0\n  4609: a2 = a2 & a3\n  4612: a0 = a5 & 0x7f\n  4615: u64 [s1 + 0xa8] = a0\n  4619: a5 = a0 if a4 == 0\n  4622: u64 [s1 + 0x70] = a5\n  4625: a0 = a5 <u 0x20\n  4628: u64 [s1 + 0x60] = t0\n  4631: a0 = 0 if t0 != 0\n  4633: u64 [s1 + 0x68] = a1\n  4636: u64 [s1 + 0x58] = a2\n  4639: a1 = a1 | a2\n  4642: a0 = 0 if a1 != 0\n  4644: u64 [s1 + 0xb8] = a4\n  4648: a1 = a4 <u 0x1\n  4651: jump @175 if a1 == a0\n      : @174 (gas: 1)\n  4654: jump @411\n      : @175 (gas: 12)\n  4657: a2 = u64 [s1 + 0x28]\n  4660: a3 = u64 [s1 + 0x30]\n  4663: a0 = a3 | a2\n  4666: a1 = u64 [s1 + 0x20]\n  4669: a4 = u64 [s1 + 0x18]\n  4672: a1 = a1 | a4\n  4675: a0 = a0 | a1\n  4678: a0 = a0 >> 0x20\n  4681: a1 = a1 | a2\n  4684: a1 = a1 << 0x20\n  4687: a1 = a1 | a0\n  4690: jump @177 if a1 == 0\n      : @176 (gas: 1)\n  4693: jump @398\n      : @177 (gas: 18)\n  4696: a0 = a3\n  4698: u64 [s1 + 0x90] = ra\n  4702: u64 [s1 + 0x98] = t2\n  4706: u64 [s1 + 0xa0] = t1\n  4710: a1 = u64 [s1 + 0x70]\n  4713: a3 = s1 + 0x7ff\n  4717: a3 = a3 + 0x39\n  4720: a2 = a3 + 0x300\n  4724: u64 [a2 + 0xe8] = a1\n  4728: a1 = u64 [s1 + 0x60]\n  4731: u64 [a2 + 0xf0] = a1\n  4735: a1 = u64 [s1 + 0x68]\n  4738: u64 [a2 + 0xf8] = a1\n  4742: a1 = s1 + 0x7ff\n  4746: a1 = a1 + 0x421\n  4750: a2 = u64 [s1 + 0x58]\n  4753: u64 [a3 + 0x400] = a2\n  4757: ra = 174, jump @9\n      : @178 [@dyn 87] (gas: 2)\n  4763: a0 = u64 [s1 + 0xb8]\n  4767: jump @180 if a0 == 0\n      : @179 (gas: 1)\n  4770: jump @399\n      : @180 (gas: 10)\n  4773: a0 = u64 [s1 + 0x28]\n  4776: a1 = u64 [s1 + 0x18]\n  4779: a0 = a0 | a1\n  4782: a1 = 0xffffffe0\n  4792: a3 = u64 [s1 + 0x30]\n  4795: a1 = a3 <u a1\n  4798: a2 = u64 [s1 + 0x20]\n  4801: a1 = 0 if a2 != 0\n  4803: a1 = 0 if a0 != 0\n  4805: jump @182 if a1 != 0\n      : @181 (gas: 1)\n  4808: jump @398\n      : @182 (gas: 16)\n  4811: a1 = u64 [s1 + 0xb0]\n  4815: a1 = a1 & 0xffffffffffffff00\n  4819: i32 a0 = a3 + 0x20\n  4822: a2 = s1 + 0x7ff\n  4826: a2 = a2 + 0x39\n  4829: a3 = u64 [s1 + 0x90]\n  4833: a4 = a2 + 0x300\n  4837: u64 [a4 + 0x70] = a3\n  4840: u64 [a4 + 0x68] = a1\n  4843: a1 = u64 [s1 + 0x98]\n  4847: u64 [a4 + 0x78] = a1\n  4850: a1 = s1 + 0x7ff\n  4854: a1 = a1 + 0x3a1\n  4858: a3 = u64 [s1 + 0xa0]\n  4862: u64 [a4 + 0x80] = a3\n  4866: ra = 176, jump @9\n      : @183 [@dyn 88] (gas: 8)\n  4872: t2 = 0\n  4874: t1 = 0\n  4876: u64 [s1 + 176] = 0\n  4880: a0 = u64 [s1 + 0xa8]\n  4884: a0 = a0 >u 0\n  4886: a0 = a0 << 0x5\n  4889: u64 [s1 + 0xb8] = a0\n  4893: fallthrough\n      : @184 (gas: 37)\n  4894: a1 = u64 [s1 + 0xb8]\n  4898: a0 = a1 + 0x3f\n  4901: a1 = a0 <u a1\n  4904: a2 = t2 + a1\n  4907: a0 = a0 & 0xffffffffffffffe0\n  4910: ra = u64 [s1 + 0x30]\n  4913: ra = ra + a0\n  4916: u64 [s1 + 0xb8] = ra\n  4920: a0 = ra <u a0\n  4923: t0 = u64 [s1 + 0x20]\n  4926: a3 = a2 + t0\n  4929: ra = a3 + a0\n  4932: a3 = ra ^ a2\n  4935: a4 = ra <u a2\n  4938: a4 = a0 if a3 == 0\n  4941: a0 = a2 <u t2\n  4944: a0 = a1 if a1 == 0\n  4947: a0 = a0 + t1\n  4950: a1 = a0 <u t1\n  4953: a2 = u64 [s1 + 0x28]\n  4956: a2 = a2 + a0\n  4959: a4 = a4 + a2\n  4962: a0 = a2 <u a0\n  4965: a2 = a4 <u a2\n  4968: t1 = u64 [s1 + 0x18]\n  4971: a3 = u64 [s1 + 0xb0]\n  4975: a3 = a3 + t1\n  4978: a1 = a1 + a3\n  4981: a0 = a0 + a1\n  4984: a5 = a0 + a2\n  4987: a0 = a5 >u 0\n  4989: a1 = a4 >u 0\n  4991: a1 = a0 if a5 != 0\n  4994: a0 = a4 | a5\n  4997: a2 = ra >u 0\n  4999: a2 = a1 if a0 != 0\n  5002: jump @186 if a2 == 0\n      : @185 (gas: 1)\n  5005: jump @422\n      : @186 (gas: 15)\n  5008: a0 = u64 [s1 + 0x30]\n  5011: a1 = u64 [s1 + 0xb8]\n  5015: a0 = a1 <u a0\n  5018: a1 = ra ^ t0\n  5021: a2 = ra <u t0\n  5024: a2 = a0 if a1 == 0\n  5027: a0 = u64 [s1 + 0x28]\n  5030: t2 = a4 <u a0\n  5033: a1 = a5 ^ t1\n  5036: a3 = a5 <u t1\n  5039: a3 = t2 if a1 == 0\n  5042: a0 = a0 ^ a4\n  5045: a0 = a0 | a1\n  5048: a3 = a2 if a0 == 0\n  5051: jump @188 if a3 == 0\n      : @187 (gas: 1)\n  5054: jump @422\n      : @188 (gas: 15)\n  5057: a2 = s1 + 0x7ff\n  5061: a2 = a2 + 0x39\n  5064: a0 = u64 [s1 + 0xb8]\n  5068: a3 = a2 + 0x300\n  5072: u64 [a3 + 0x48] = a0\n  5075: u64 [a2 + 0x350] = ra\n  5079: u64 [a3 + 0x58] = a4\n  5082: a0 = 0x40\n  5085: a1 = s1 + 0x7ff\n  5089: a1 = a1 + 0x381\n  5093: u64 [a3 + 0x60] = a5\n  5096: u64 [s1 + 0xa8] = ra\n  5100: u64 [s1 + 0xa0] = a4\n  5104: u64 [s1 + 0xb0] = a5\n  5108: ra = 178, jump @9\n      : @189 [@dyn 89] (gas: 28)\n  5114: a1 = s1 + 0x7ff\n  5118: a1 = a1 + 0x39\n  5121: a0 = u64 [s1 + 0x18]\n  5124: a2 = a1 + 0x300\n  5128: u64 [a2] = a0\n  5130: a0 = u64 [s1 + 0x28]\n  5133: a3 = a1 + 0x200\n  5137: u64 [a3 + 0xf8] = a0\n  5141: a0 = u64 [s1 + 0x20]\n  5144: u64 [a3 + 0xf0] = a0\n  5148: a0 = u64 [s1 + 0x30]\n  5151: u64 [a3 + 0xe8] = a0\n  5155: a0 = u64 [s1 + 0xb0]\n  5159: u64 [a2 + 0x20] = a0\n  5162: a0 = u64 [s1 + 0xa0]\n  5166: u64 [a2 + 0x18] = a0\n  5169: a0 = u64 [s1 + 0xa8]\n  5173: u64 [a2 + 0x10] = a0\n  5176: a4 = a1\n  5178: a0 = s1 + 0x7ff\n  5182: a0 = a0 + 0x361\n  5186: a1 = s1 + 0x7ff\n  5190: a1 = a1 + 0x341\n  5194: a2 = s1 + 0x7ff\n  5198: a2 = a2 + 0x321\n  5202: a3 = u64 [s1 + 0xb8]\n  5206: u64 [a4 + 0x308] = a3\n  5210: ra = 180, jump @439\n      : @190 [@dyn 90] (gas: 12)\n  5216: a3 = u64 [s1 + 0xa0]\n  5220: a4 = u64 [s1 + 0xa8]\n  5224: t0 = u64 [s1 + 0xb8]\n  5228: a0 = t0 | a3\n  5231: a1 = u64 [s1 + 0xb0]\n  5235: a1 = a1 | a4\n  5238: a0 = a0 | a1\n  5241: a0 = a0 >> 0x20\n  5244: a1 = a1 | a3\n  5247: a1 = a1 << 0x20\n  5250: a0 = a0 | a1\n  5253: jump @192 if a0 == 0\n      : @191 (gas: 1)\n  5256: jump @398\n      : @192 (gas: 33)\n  5259: a1 = s1 + 0x7ff\n  5263: a1 = a1 + 0x39\n  5266: a5 = a1 + 0x300\n  5270: a0 = u64 [a5 + 0x30]\n  5273: a2 = u64 [a5 + 0x40]\n  5276: u64 [s1 + 0x98] = a2\n  5280: a2 = a3\n  5282: t1 = u64 [a1 + 0x328]\n  5286: a3 = u64 [a5 + 0x38]\n  5289: t2 = a0 ^ a4\n  5292: a5 = a0 <u a4\n  5295: ra = t1 <u t0\n  5298: a5 = ra if t2 == 0\n  5301: a1 = a3 - a2\n  5304: t2 = a1 - a5\n  5307: a1 = a1 <u a5\n  5310: a3 = a3 <u a2\n  5313: a2 = u64 [s1 + 0x98]\n  5317: a3 = a2 - a3\n  5320: a2 = u64 [s1 + 0xb0]\n  5324: a3 = a3 - a2\n  5327: a3 = a3 - a1\n  5330: a0 = a0 - a4\n  5333: a0 = a0 - ra\n  5336: a1 = t1 - t0\n  5339: a0 = a0 | a3\n  5342: a2 = a1 | t2\n  5345: a2 = a2 | a0\n  5348: a0 = a0 | t2\n  5351: a2 = a2 >> 0x20\n  5354: a0 = a0 << 0x20\n  5357: a0 = a0 | a2\n  5360: jump @194 if a0 == 0\n      : @193 (gas: 1)\n  5363: jump @398\n      : @194 (gas: 4)\n  5366: a0 = t0\n  5368: u64 [s1 + 0xb8] = a1\n  5372: ra = 0x1d8\n  5376: jump @19\n      : @195 (gas: 8)\n  5379: u64 [a2 + 2016] = 0\n  5383: u64 [a2 + 2008] = 0\n  5387: u64 [a2 + 2000] = 0\n  5391: u64 [a2 + 1992] = 0\n  5395: a0 = s1 + 0x1000\n  5399: i32 a0 = a0 + 0\n  5401: ecalli 11 // 'value_transferred'\n  5403: fallthrough\n      : @196 (gas: 11)\n  5404: a3 = s1 + 0x7ff\n  5408: a3 = a3 + 0x39\n  5411: a4 = a3 + 0x700\n  5415: a0 = u64 [a4 + 0xd8]\n  5419: a1 = u64 [a4 + 0xe0]\n  5423: a2 = u64 [a4 + 0xd0]\n  5427: a3 = u64 [a4 + 0xc8]\n  5431: a1 = a1 | a2\n  5434: a0 = a0 | a3\n  5437: a0 = a0 | a1\n  5440: jump @198 if a0 == 0\n      : @197 (gas: 1)\n  5443: jump @417\n      : @198 (gas: 3)\n  5446: a0 = u64 [s1 + 0xb8]\n  5450: a0 = i32 [a0]\n  5452: jump @200 if a0 >u 3\n      : @199 (gas: 1)\n  5456: jump @417\n      : @200 (gas: 4)\n  5459: a0 = s1 + 0x7ff\n  5463: a0 = a0 + 0x21\n  5466: a1 = 0x40\n  5469: ra = 182, jump @7\n      : @201 [@dyn 91] (gas: 9)\n  5475: a1 = s1 + 0x7ff\n  5479: a1 = a1 + 0x39\n  5482: a3 = u64 [a1]\n  5484: a1 = u64 [a1 + 0xfffffffffffffff8]\n  5487: a0 = s1 + 0x1000\n  5491: a2 = u64 [a0 + 0xfffffffffffff828]\n  5495: a0 = s1 + 0x1000\n  5499: a0 = u64 [a0 + 0xfffffffffffff820]\n  5503: t0 = 184, jump @571\n      : @202 [@dyn 92] (gas: 1)\n  5509: jump @204 if a1 == 0\n      : @203 (gas: 1)\n  5512: jump @398\n      : @204 (gas: 13)\n  5515: a1 = s1 + 0x1000\n  5519: u64 [a1 + 4294965272] = 0\n  5523: a1 = s1 + 0x1000\n  5527: u64 [a1 + 4294965264] = 0\n  5531: a1 = s1 + 0x1000\n  5535: u64 [a1 + 4294965256] = 0\n  5539: a1 = s1 + 0x7ff\n  5543: a1 = a1 + 0x1\n  5546: a3 = s1 + 0x1000\n  5550: u64 [a3 + 4294965248] = 0x6\n  5555: u64 [s1 + 0xb8] = a0\n  5559: ra = 0x1b0\n  5563: jump @9\n      : @205 (gas: 8)\n  5566: u64 [a2 + 1856] = 0\n  5570: u64 [a2 + 1848] = 0\n  5574: u64 [a2 + 1840] = 0\n  5578: u64 [a2 + 1832] = 0\n  5582: a0 = s1 + 0x1000\n  5586: i32 a0 = a0 + 0xffffffffffffff60\n  5590: ecalli 11 // 'value_transferred'\n  5592: fallthrough\n      : @206 (gas: 11)\n  5593: a3 = s1 + 0x7ff\n  5597: a3 = a3 + 0x39\n  5600: a4 = a3 + 0x700\n  5604: a0 = u64 [a4 + 0x38]\n  5607: a1 = u64 [a4 + 0x40]\n  5610: a2 = u64 [a4 + 0x30]\n  5613: a3 = u64 [a4 + 0x28]\n  5616: a1 = a1 | a2\n  5619: a0 = a0 | a3\n  5622: a0 = a0 | a1\n  5625: jump @208 if a0 == 0\n      : @207 (gas: 1)\n  5628: jump @417\n      : @208 (gas: 4)\n  5631: a0 = u64 [s1 + 0xb8]\n  5635: a0 = i32 [a0]\n  5637: a1 = 0x63\n  5640: jump @210 if a1 <u a0\n      : @209 (gas: 1)\n  5643: jump @417\n      : @210 (gas: 4)\n  5646: a0 = s1 + 0x7e0\n  5650: ra = 0xba\n  5654: t0 = 0x1f2\n  5658: jump @592\n      : @211 [@dyn 93] (gas: 12)\n  5661: a0 = u64 [s1 + 0x7f8]\n  5665: u64 [s1 + 0x48] = a0\n  5668: a0 = u64 [s1 + 0x7f0]\n  5672: u64 [s1 + 0x80] = a0\n  5676: a0 = u64 [s1 + 0x7e8]\n  5680: u64 [s1 + 0xb8] = a0\n  5684: a0 = u64 [s1 + 0x7e0]\n  5688: u64 [s1 + 0xb0] = a0\n  5692: a0 = s1 + 0x7c0\n  5696: ra = 0xbc\n  5700: t0 = 0x1fc\n  5704: jump @592\n      : @212 [@dyn 94] (gas: 36)\n  5707: a0 = u64 [s1 + 0x7d8]\n  5711: u64 [s1 + 0x40] = a0\n  5714: a0 = u64 [s1 + 0x7d0]\n  5718: u64 [s1 + 0x38] = a0\n  5721: a0 = u64 [s1 + 0x7c8]\n  5725: u64 [s1 + 0x30] = a0\n  5728: a0 = u64 [s1 + 0x7c0]\n  5732: u64 [s1 + 0x28] = a0\n  5735: a0 = s1 + 0x1000\n  5739: i32 a0 = a0 + 0xffffffffffffff80\n  5742: a1 = 0x44\n  5745: ecalli 1 // 'call_data_load'\n  5747: a1 = s1 + 0x7ff\n  5751: a1 = a1 + 0x39\n  5754: a2 = a1 + 0x700\n  5758: a0 = u64 [a2 + 0x60]\n  5761: u64 [s1 + 0xa0] = a0\n  5765: a0 = u64 [a2 + 0x58]\n  5768: u64 [s1 + 0x98] = a0\n  5772: a0 = u64 [a2 + 0x50]\n  5775: u64 [s1 + 0x90] = a0\n  5779: a0 = u64 [a2 + 0x48]\n  5782: u64 [s1 + 0x88] = a0\n  5786: a0 = u64 [s1 + 0x80]\n  5790: a0 = a0 << 0x20\n  5793: a0 = a0 >> 0x20\n  5796: u64 [s1 + 1976] = 0\n  5800: u64 [s1 + 0x58] = a0\n  5803: u64 [s1 + 0x7b0] = a0\n  5807: a0 = u64 [s1 + 0xb8]\n  5811: u64 [s1 + 0x7a8] = a0\n  5815: a1 = s1 + 0x7a0\n  5819: a0 = u64 [s1 + 0xb0]\n  5823: u64 [s1 + 0x7a0] = a0\n  5827: a0 = 0\n  5829: ra = 190, jump @9\n      : @213 [@dyn 95] (gas: 7)\n  5835: u64 [s1 + 1944] = 0\n  5839: u64 [s1 + 1936] = 0\n  5843: u64 [s1 + 1920] = 0x4\n  5848: a0 = 0x20\n  5851: a1 = s1 + 0x780\n  5855: u64 [s1 + 1928] = 0\n  5859: ra = 192, jump @9\n      : @214 [@dyn 96] (gas: 3)\n  5865: a1 = 0x40\n  5868: a0 = 0\n  5870: ra = 194, jump @19\n      : @215 [@dyn 97] (gas: 4)\n  5876: a1 = sp + 0xffffffffffffffe0\n  5879: a1 = a1 & 0xffffffffffffffe0\n  5882: u64 [s1 + 0xa8] = a1\n  5886: t0 = 196, jump @570\n      : @216 [@dyn 98] (gas: 5)\n  5892: ra = 0xc6\n  5896: ecalli 7 // 'hash_keccak_256'\n  5898: a3 = u64 [s1 + 0xa8]\n  5902: t0 = 0xc8\n  5906: jump @579\n      : @217 [@dyn 99] (gas: 2)\n  5909: a3 = u64 [s1 + 0xa8]\n  5913: t0 = 200, jump @579\n      : @218 [@dyn 100] (gas: 9)\n  5919: a0 = 0x30120\n  5924: u64 [s1 + 0xa8] = a0\n  5928: i32 a0 = a0 + 0\n  5930: u64 [s1 + 0x50] = a0\n  5933: ra = 0xca\n  5937: ecalli 3 // 'caller'\n  5939: a2 = u64 [s1 + 0xa8]\n  5943: t0 = 0xcc\n  5947: jump @567\n      : @219 [@dyn 101] (gas: 2)\n  5950: a2 = u64 [s1 + 0xa8]\n  5954: t0 = 204, jump @567\n      : @220 [@dyn 102] (gas: 7)\n  5960: u64 [s1 + 1912] = 0\n  5964: u64 [s1 + 0x770] = a1\n  5968: u64 [s1 + 0x768] = a0\n  5972: a1 = s1 + 0x760\n  5976: u64 [s1 + 0x760] = a3\n  5980: a0 = 0\n  5982: ra = 206, jump @9\n      : @221 [@dyn 103] (gas: 11)\n  5988: a0 = u64 [s1 + 0x60]\n  5991: u64 [s1 + 0x758] = a0\n  5995: a0 = u64 [s1 + 0x68]\n  5998: u64 [s1 + 0x750] = a0\n  6002: a0 = u64 [s1 + 0x70]\n  6005: u64 [s1 + 0x748] = a0\n  6009: a0 = 0x20\n  6012: a1 = s1 + 0x740\n  6016: a2 = u64 [s1 + 0x78]\n  6019: u64 [s1 + 0x740] = a2\n  6023: ra = 208, jump @9\n      : @222 [@dyn 104] (gas: 3)\n  6029: a1 = 0x40\n  6032: a0 = 0\n  6034: ra = 210, jump @19\n      : @223 [@dyn 105] (gas: 4)\n  6040: a1 = sp + 0xffffffffffffffe0\n  6043: a1 = a1 & 0xffffffffffffffe0\n  6046: u64 [s1 + 0x78] = a1\n  6049: t0 = 212, jump @570\n      : @224 [@dyn 106] (gas: 4)\n  6055: ra = 0xd6\n  6059: ecalli 7 // 'hash_keccak_256'\n  6061: t0 = 0xd8\n  6065: jump @569\n      : @225 [@dyn 107] (gas: 1)\n  6068: t0 = 216, jump @569\n      : @226 [@dyn 108] (gas: 8)\n  6074: u64 [a5 + 0x80] = a3\n  6078: u64 [a5 + 0x78] = a2\n  6081: u64 [a5 + 0x70] = a1\n  6084: u64 [a5 + 0x68] = a0\n  6087: a0 = s1 + 0x720\n  6091: a1 = s1 + 0x7ff\n  6095: a1 = a1 + 0x7a1\n  6099: ra = 218, jump @11\n      : @227 [@dyn 109] (gas: 21)\n  6105: t1 = u64 [s1 + 0x738]\n  6109: a3 = u64 [s1 + 0x730]\n  6113: ra = u64 [s1 + 0x728]\n  6117: t2 = u64 [s1 + 0x720]\n  6121: a0 = u64 [s1 + 0xa0]\n  6125: a5 = t1 ^ a0\n  6128: a0 = t1 <u a0\n  6131: a1 = u64 [s1 + 0x98]\n  6135: a2 = a3 <u a1\n  6138: u64 [s1 + 0x78] = a2\n  6141: a0 = a2 if a5 == 0\n  6144: a4 = u64 [s1 + 0x90]\n  6148: t0 = ra ^ a4\n  6151: a4 = ra <u a4\n  6154: a2 = u64 [s1 + 0x88]\n  6158: a2 = t2 <u a2\n  6161: a4 = a2 if t0 == 0\n  6164: a1 = a1 ^ a3\n  6167: a1 = a1 | a5\n  6170: a0 = a4 if a1 == 0\n  6173: jump @343 if a0 == 0\n      : @228 (gas: 3)\n  6177: a0 = s1 + 0x4a0\n  6181: a1 = 0x40\n  6184: ra = 220, jump @7\n      : @229 [@dyn 110] (gas: 13)\n  6190: a1 = s1 + 0x400\n  6194: a4 = u64 [a1 + 0xb8]\n  6198: a5 = u64 [a1 + 0xb0]\n  6202: a3 = u64 [a1 + 0xa8]\n  6206: a0 = u64 [a1 + 0xa0]\n  6210: a2 = a3 | a4\n  6213: a1 = a0 | a5\n  6216: a1 = a1 | a2\n  6219: a1 = a1 >> 0x20\n  6222: a2 = a2 | a5\n  6225: a2 = a2 << 0x20\n  6228: a1 = a1 | a2\n  6231: jump @231 if a1 == 0\n      : @230 (gas: 1)\n  6234: jump @398\n      : @231 (gas: 11)\n  6237: u64 [s1 + 1168] = 0\n  6241: u64 [s1 + 1160] = 0\n  6245: u64 [s1 + 1152] = 0\n  6249: a2 = 0x8c379a000000000\n  6259: a1 = s1 + 0x480\n  6263: u64 [s1 + 0x498] = a2\n  6267: u64 [s1 + 0xb8] = a0\n  6271: u64 [s1 + 0xb0] = a3\n  6275: u64 [s1 + 0xa8] = a4\n  6279: u64 [s1 + 0xa0] = a5\n  6283: ra = 222, jump @9\n      : @232 [@dyn 111] (gas: 5)\n  6289: a1 = u64 [s1 + 0xb8]\n  6293: a0 = u64 [s1 + 0xa8]\n  6297: a3 = u64 [s1 + 0xa0]\n  6301: a3 = a3 | a0\n  6304: t0 = 224, jump @582\n      : @233 [@dyn 112] (gas: 1)\n  6310: jump @235 if a0 != 0\n      : @234 (gas: 1)\n  6313: jump @398\n      : @235 (gas: 9)\n  6316: i32 a0 = a1 + 0x4\n  6319: u64 [s1 + 1144] = 0\n  6323: u64 [s1 + 1136] = 0\n  6327: u64 [s1 + 1120] = 0x20\n  6332: a1 = s1 + 0x460\n  6336: u64 [s1 + 1128] = 0\n  6340: u64 [s1 + 0xa8] = a3\n  6344: u64 [s1 + 0xa0] = a4\n  6348: ra = 226, jump @9\n      : @236 [@dyn 113] (gas: 5)\n  6354: a3 = u64 [s1 + 0xa8]\n  6358: a2 = u64 [s1 + 0xb0]\n  6362: a1 = u64 [s1 + 0xb8]\n  6366: a0 = u64 [s1 + 0xa0]\n  6370: t0 = 228, jump @583\n      : @237 [@dyn 114] (gas: 1)\n  6376: jump @239 if a0 != 0\n      : @238 (gas: 1)\n  6379: jump @398\n      : @239 (gas: 7)\n  6382: i32 a0 = a1 + 0x24\n  6385: u64 [s1 + 1112] = 0\n  6389: u64 [s1 + 1104] = 0\n  6393: u64 [s1 + 1088] = 0x12\n  6398: a1 = s1 + 0x440\n  6402: u64 [s1 + 1096] = 0\n  6406: ra = 230, jump @9\n      : @240 [@dyn 115] (gas: 1)\n  6412: t0 = 232, jump @581\n      : @241 [@dyn 116] (gas: 1)\n  6418: jump @243 if a0 != 0\n      : @242 (gas: 1)\n  6421: jump @398\n      : @243 (gas: 11)\n  6424: i32 a0 = a2 + 0x44\n  6427: a1 = u64 [0x20078]\n  6432: a2 = u64 [0x20080]\n  6437: a3 = s1 + 0x400\n  6441: u64 [a3 + 0x38] = a1\n  6444: u64 [a3 + 0x30] = a2\n  6447: a1 = 0x6564000000000000\n  6457: u64 [a3 + 0x28] = a1\n  6460: a1 = s1 + 0x420\n  6464: u64 [s1 + 1056] = 0\n  6468: ra = 234, jump @9\n      : @244 [@dyn 117] (gas: 3)\n  6474: a1 = 0x64\n  6477: a0 = u64 [s1 + 0xb8]\n  6481: ra = 236, jump @19\n      : @245 [@dyn 118] (gas: 5)\n  6487: i32 a1 = a0 + 0\n  6489: a0 = 0x1\n  6492: a2 = 0x64\n  6495: ecalli 8 // 'seal_return'\n  6497: fallthrough\n      : @246 (gas: 11)\n  6498: a0 = s1 + 0x1038\n  6502: u64 [a0 + 320] = 0\n  6506: u64 [a0 + 312] = 0\n  6510: u64 [a0 + 304] = 0\n  6514: u64 [a0 + 296] = 0\n  6518: a0 = s1 + 0x1000\n  6522: i32 a0 = a0 + 0x160\n  6526: ecalli 11 // 'value_transferred'\n  6528: t0 = 0xee\n  6532: a3 = s1 + 0x1038\n  6536: fallthrough\n      : @247 [@dyn 119] (gas: 9)\n  6537: a4 = a3 + 0x100\n  6541: a0 = u64 [a4 + 0x38]\n  6544: a1 = u64 [a4 + 0x40]\n  6547: a2 = u64 [a4 + 0x30]\n  6550: a3 = u64 [a4 + 0x28]\n  6553: a1 = a1 | a2\n  6556: a0 = a0 | a3\n  6559: a0 = a0 | a1\n  6562: jump @249 if a0 == 0\n      : @248 (gas: 1)\n  6565: jump @417\n      : @249 (gas: 4)\n  6568: a0 = u64 [s1 + 0xb8]\n  6572: a0 = i32 [a0]\n  6574: a1 = 0x43\n  6577: jump @251 if a1 <u a0\n      : @250 (gas: 1)\n  6580: jump @417\n      : @251 (gas: 5)\n  6583: a0 = s1 + 0x7ff\n  6587: a0 = a0 + 0x641\n  6591: ra = 0xf0\n  6595: t0 = 0x1f2\n  6599: jump @592\n      : @252 [@dyn 120] (gas: 13)\n  6602: a1 = s1 + 0x7ff\n  6606: a1 = a1 + 0x39\n  6609: a0 = u64 [a1 + 0x608]\n  6613: u64 [s1 + 0xa0] = a0\n  6617: a0 = u64 [a1 + 0x610]\n  6621: u64 [s1 + 0x98] = a0\n  6625: a0 = u32 [a1 + 0x618]\n  6629: u64 [s1 + 0x90] = a0\n  6633: a0 = s1 + 0x7ff\n  6637: a0 = a0 + 0x621\n  6641: ra = 0xf2\n  6645: t0 = 0x1fc\n  6649: jump @592\n      : @253 [@dyn 121] (gas: 20)\n  6652: a0 = s1 + 0x7ff\n  6656: a0 = a0 + 0x39\n  6659: a3 = a0 + 0x500\n  6663: a1 = u64 [a3 + 0xe8]\n  6667: u64 [s1 + 0xb8] = a1\n  6671: a1 = u64 [a3 + 0xf0]\n  6675: u64 [s1 + 0xb0] = a1\n  6679: a1 = u32 [a0 + 0x5f8]\n  6683: u64 [s1 + 0xa8] = a1\n  6687: u64 [a0 + 1504] = 0\n  6691: a1 = u64 [s1 + 0x90]\n  6695: u64 [a3 + 0xd8] = a1\n  6699: a1 = u64 [s1 + 0x98]\n  6703: u64 [a3 + 0xd0] = a1\n  6707: a1 = s1 + 0x7ff\n  6711: a1 = a1 + 0x601\n  6715: a2 = u64 [s1 + 0xa0]\n  6719: u64 [a3 + 0xc8] = a2\n  6723: a0 = 0\n  6725: ra = 244, jump @9\n      : @254 [@dyn 122] (gas: 10)\n  6731: a2 = s1 + 0x7ff\n  6735: a2 = a2 + 0x39\n  6738: u64 [a2 + 1472] = 0\n  6742: u64 [a2 + 1464] = 0\n  6746: u64 [a2 + 1448] = 0x4\n  6751: a0 = 0x20\n  6754: a1 = s1 + 0x7ff\n  6758: a1 = a1 + 0x5e1\n  6762: u64 [a2 + 1456] = 0\n  6766: ra = 246, jump @9\n      : @255 [@dyn 123] (gas: 3)\n  6772: a1 = 0x40\n  6775: a0 = 0\n  6777: ra = 248, jump @19\n      : @256 [@dyn 124] (gas: 4)\n  6783: a1 = sp + 0xffffffffffffffe0\n  6786: a1 = a1 & 0xffffffffffffffe0\n  6789: u64 [s1 + 0xa0] = a1\n  6793: t0 = 250, jump @570\n      : @257 [@dyn 125] (gas: 28)\n  6799: ecalli 7 // 'hash_keccak_256'\n  6801: a3 = u64 [s1 + 0xa0]\n  6805: a0 = u64 [a3 + 0x18]\n  6808: a1 = u64 [a3 + 0x10]\n  6811: a2 = u64 [a3 + 0x8]\n  6814: a3 = u64 [a3]\n  6816: a0 = reverse a0\n  6818: u64 [s1 + 0xa0] = a0\n  6822: a0 = reverse a1\n  6824: u64 [s1 + 0x98] = a0\n  6828: a0 = reverse a2\n  6830: u64 [s1 + 0x90] = a0\n  6834: a0 = reverse a3\n  6836: u64 [s1 + 0x88] = a0\n  6840: a2 = s1 + 0x7ff\n  6844: a2 = a2 + 0x39\n  6847: u64 [a2 + 1440] = 0\n  6851: a0 = u64 [s1 + 0xa8]\n  6855: a3 = a2 + 0x500\n  6859: u64 [a3 + 0x98] = a0\n  6863: a0 = u64 [s1 + 0xb0]\n  6867: u64 [a3 + 0x90] = a0\n  6871: a1 = s1 + 0x7ff\n  6875: a1 = a1 + 0x5c1\n  6879: a0 = u64 [s1 + 0xb8]\n  6883: u64 [a3 + 0x88] = a0\n  6887: a0 = 0\n  6889: ra = 252, jump @9\n      : @258 [@dyn 126] (gas: 15)\n  6895: a2 = s1 + 0x7ff\n  6899: a2 = a2 + 0x39\n  6902: a0 = u64 [s1 + 0x88]\n  6906: a4 = a2 + 0x500\n  6910: u64 [a4 + 0x80] = a0\n  6914: a0 = u64 [s1 + 0x90]\n  6918: u64 [a4 + 0x78] = a0\n  6921: a0 = u64 [s1 + 0x98]\n  6925: u64 [a4 + 0x70] = a0\n  6928: a0 = 0x20\n  6931: a1 = s1 + 0x7ff\n  6935: a1 = a1 + 0x5a1\n  6939: a3 = u64 [s1 + 0xa0]\n  6943: u64 [a4 + 0x68] = a3\n  6946: ra = 254, jump @9\n      : @259 [@dyn 127] (gas: 3)\n  6952: a1 = 0x40\n  6955: a0 = 0\n  6957: ra = 256, jump @19\n      : @260 [@dyn 128] (gas: 4)\n  6963: a1 = sp + 0xffffffffffffffe0\n  6966: a1 = a1 & 0xffffffffffffffe0\n  6969: u64 [s1 + 0xb8] = a1\n  6973: t0 = 258, jump @570\n      : @261 [@dyn 129] (gas: 4)\n  6979: ra = 0x104\n  6983: ecalli 7 // 'hash_keccak_256'\n  6985: t0 = 0x106\n  6989: jump @575\n      : @262 [@dyn 130] (gas: 1)\n  6992: t0 = 262, jump @575\n      : @263 [@dyn 131] (gas: 9)\n  6998: a5 = a4 + 0x100\n  7002: u64 [a5 + 0x60] = a3\n  7005: u64 [a5 + 0x58] = a2\n  7008: u64 [a5 + 0x50] = a1\n  7011: u64 [a5 + 0x48] = a0\n  7014: a0 = s1 + 0x7ff\n  7018: a0 = a0 + 0x581\n  7022: a1 = s1 + 0x1180\n  7026: ra = 264, jump @11\n      : @264 [@dyn 132] (gas: 4)\n  7032: a0 = s1 + 0x7ff\n  7036: a0 = a0 + 0x39\n  7039: a2 = a0 + 0x500\n  7043: t0 = 266, jump @594\n      : @265 [@dyn 133] (gas: 3)\n  7049: a0 = a0 + 0x561\n  7053: a1 = 0x40\n  7056: ra = 268, jump @7\n      : @266 [@dyn 134] (gas: 4)\n  7062: a3 = s1 + 0x7ff\n  7066: a3 = a3 + 0x39\n  7069: a5 = a3 + 0x500\n  7073: t0 = 270, jump @584\n      : @267 [@dyn 135] (gas: 1)\n  7079: jump @269 if a0 == 0\n      : @268 (gas: 1)\n  7082: jump @398\n      : @269 (gas: 15)\n  7085: a0 = u64 [s1 + 0xa0]\n  7089: a2 = a3 + 0x500\n  7093: u64 [a2 + 0x8] = a0\n  7096: a0 = u64 [s1 + 0xa8]\n  7100: u64 [a2 + 0x10] = a0\n  7103: a0 = u64 [s1 + 0xb0]\n  7107: u64 [a2 + 0x18] = a0\n  7110: a1 = s1 + 0x7ff\n  7114: a1 = a1 + 0x541\n  7118: a0 = u64 [s1 + 0xb8]\n  7122: u64 [a2 + 0x20] = a0\n  7125: a0 = a4\n  7127: u64 [s1 + 0xb8] = a4\n  7131: ra = 0x1b0\n  7135: jump @9\n      : @270 (gas: 1)\n  7138: jump @272 if a0 == 1889567281\n      : @271 (gas: 1)\n  7145: jump @413\n      : @272 (gas: 11)\n  7148: a0 = s1 + 0x1038\n  7152: u64 [a0 + 64] = 0\n  7155: u64 [a0 + 56] = 0\n  7158: u64 [a0 + 48] = 0\n  7161: u64 [a0 + 40] = 0\n  7164: a0 = s1 + 0x1000\n  7168: i32 a0 = a0 + 0x60\n  7171: ecalli 11 // 'value_transferred'\n  7173: t0 = 0x110\n  7177: a3 = s1 + 0x1038\n  7181: fallthrough\n      : @273 [@dyn 136] (gas: 8)\n  7182: a0 = u64 [a3 + 0x38]\n  7185: a1 = u64 [a3 + 0x40]\n  7188: a2 = u64 [a3 + 0x30]\n  7191: a3 = u64 [a3 + 0x28]\n  7194: a1 = a1 | a2\n  7197: a0 = a0 | a3\n  7200: a0 = a0 | a1\n  7203: jump @275 if a0 == 0\n      : @274 (gas: 1)\n  7206: jump @417\n      : @275 (gas: 4)\n  7209: a0 = u64 [s1 + 0xb8]\n  7213: a0 = i32 [a0]\n  7215: a1 = 0x23\n  7218: jump @277 if a1 <u a0\n      : @276 (gas: 1)\n  7221: jump @417\n      : @277 (gas: 5)\n  7224: a0 = s1 + 0x7ff\n  7228: a0 = a0 + 0x1e1\n  7232: ra = 0x112\n  7236: t0 = 0x1f2\n  7240: jump @592\n      : @278 [@dyn 137] (gas: 14)\n  7243: a3 = s1 + 0x7ff\n  7247: a3 = a3 + 0x39\n  7250: a4 = a3 + 0x100\n  7254: a0 = u64 [a4 + 0xa8]\n  7258: a1 = u64 [a4 + 0xb0]\n  7262: a2 = u32 [a3 + 0x1b8]\n  7266: u64 [a3 + 416] = 0\n  7270: u64 [a4 + 0x98] = a2\n  7274: u64 [a4 + 0x90] = a1\n  7278: a1 = s1 + 0x7ff\n  7282: a1 = a1 + 0x1c1\n  7286: u64 [a4 + 0x88] = a0\n  7290: a0 = 0\n  7292: ra = 276, jump @9\n      : @279 [@dyn 138] (gas: 10)\n  7298: a2 = s1 + 0x7ff\n  7302: a2 = a2 + 0x39\n  7305: u64 [a2 + 384] = 0\n  7309: u64 [a2 + 376] = 0\n  7313: u64 [a2 + 360] = 0x3\n  7318: a0 = 0x20\n  7321: a1 = s1 + 0x7ff\n  7325: a1 = a1 + 0x1a1\n  7329: u64 [a2 + 368] = 0\n  7333: ra = 278, jump @9\n      : @280 [@dyn 139] (gas: 3)\n  7339: a1 = 0x40\n  7342: a0 = 0\n  7344: ra = 280, jump @19\n      : @281 [@dyn 140] (gas: 4)\n  7350: a1 = sp + 0xffffffffffffffe0\n  7353: a1 = a1 & 0xffffffffffffffe0\n  7356: u64 [s1 + 0xb8] = a1\n  7360: t0 = 282, jump @570\n      : @282 [@dyn 141] (gas: 4)\n  7366: ra = 0x11c\n  7370: ecalli 7 // 'hash_keccak_256'\n  7372: t0 = 0x11e\n  7376: jump @575\n      : @283 [@dyn 142] (gas: 1)\n  7379: t0 = 286, jump @575\n      : @284 [@dyn 143] (gas: 8)\n  7385: u64 [a4 + 0x60] = a3\n  7388: u64 [a4 + 0x58] = a2\n  7391: u64 [a4 + 0x50] = a1\n  7394: u64 [a4 + 0x48] = a0\n  7397: a0 = s1 + 0x7ff\n  7401: a0 = a0 + 0x181\n  7405: a1 = s1 + 0x1080\n  7409: ra = 288, jump @11\n      : @285 [@dyn 144] (gas: 4)\n  7415: a0 = s1 + 0x7ff\n  7419: a0 = a0 + 0x39\n  7422: a2 = a0 + 0x100\n  7426: t0 = 290, jump @594\n      : @286 [@dyn 145] (gas: 3)\n  7432: a0 = a0 + 0x161\n  7436: a1 = 0x40\n  7439: ra = 292, jump @7\n      : @287 [@dyn 146] (gas: 4)\n  7445: a3 = s1 + 0x7ff\n  7449: a3 = a3 + 0x39\n  7452: a5 = a3 + 0x100\n  7456: t0 = 294, jump @584\n      : @288 [@dyn 147] (gas: 1)\n  7462: jump @398 if a0 != 0\n      : @289 (gas: 15)\n  7466: a0 = u64 [s1 + 0xa0]\n  7470: a2 = a3 + 0x100\n  7474: u64 [a2 + 0x8] = a0\n  7477: a0 = u64 [s1 + 0xa8]\n  7481: u64 [a2 + 0x10] = a0\n  7484: a0 = u64 [s1 + 0xb0]\n  7488: u64 [a2 + 0x18] = a0\n  7491: a1 = s1 + 0x7ff\n  7495: a1 = a1 + 0x141\n  7499: a0 = u64 [s1 + 0xb8]\n  7503: u64 [a2 + 0x20] = a0\n  7506: a0 = a4\n  7508: u64 [s1 + 0xb8] = a4\n  7512: ra = 0x1b0\n  7516: jump @9\n      : @290 (gas: 8)\n  7519: u64 [a2 + 1696] = 0\n  7523: u64 [a2 + 1688] = 0\n  7527: u64 [a2 + 1680] = 0\n  7531: u64 [a2 + 1672] = 0\n  7535: a0 = s1 + 0x1000\n  7539: i32 a0 = a0 + 0xfffffffffffffec0\n  7543: ecalli 11 // 'value_transferred'\n  7545: fallthrough\n      : @291 (gas: 11)\n  7546: a3 = s1 + 0x7ff\n  7550: a3 = a3 + 0x39\n  7553: a4 = a3 + 0x600\n  7557: a0 = u64 [a4 + 0x98]\n  7561: a1 = u64 [a4 + 0xa0]\n  7565: a2 = u64 [a4 + 0x90]\n  7569: a3 = u64 [a4 + 0x88]\n  7573: a1 = a1 | a2\n  7576: a0 = a0 | a3\n  7579: a0 = a0 | a1\n  7582: jump @293 if a0 == 0\n      : @292 (gas: 1)\n  7585: jump @417\n      : @293 (gas: 4)\n  7588: a0 = u64 [s1 + 0xb8]\n  7592: a0 = i32 [a0]\n  7594: a1 = 0x43\n  7597: jump @295 if a1 <u a0\n      : @294 (gas: 1)\n  7600: jump @417\n      : @295 (gas: 4)\n  7603: a0 = s1 + 0x3a0\n  7607: ra = 0x128\n  7611: t0 = 0x1f2\n  7615: jump @592\n      : @296 [@dyn 148] (gas: 39)\n  7618: a0 = u64 [s1 + 0x3a0]\n  7622: u64 [s1 + 0xb0] = a0\n  7626: a0 = u64 [s1 + 0x3a8]\n  7630: u64 [s1 + 0xa8] = a0\n  7634: a0 = u32 [s1 + 0x3b0]\n  7638: u64 [s1 + 0xa0] = a0\n  7642: a0 = sp + 0xffffffffffffffe0\n  7645: a0 = a0 & 0xffffffffffffffe0\n  7648: u64 [s1 + 0xb8] = a0\n  7652: sp = a0\n  7654: a0 = s1 + 0x1000\n  7658: i32 a0 = a0 + 0xfffffffffffffee0\n  7662: a1 = 0x24\n  7665: ecalli 1 // 'call_data_load'\n  7667: a3 = s1 + 0x7ff\n  7671: a3 = a3 + 0x39\n  7674: a4 = a3 + 0x600\n  7678: a0 = u64 [a4 + 0xc0]\n  7682: a1 = u64 [a4 + 0xb8]\n  7686: a2 = u64 [a4 + 0xb0]\n  7690: a3 = u64 [a4 + 0xa8]\n  7694: u64 [s1 + 0x70] = a0\n  7697: a4 = u64 [s1 + 0xb8]\n  7701: u64 [a4 + 0x18] = a0\n  7704: u64 [s1 + 0x68] = a1\n  7707: u64 [a4 + 0x10] = a1\n  7710: u64 [s1 + 0x58] = a2\n  7713: u64 [a4 + 0x8] = a2\n  7716: u64 [s1 + 0x50] = a3\n  7719: u64 [a4] = a3\n  7721: a0 = 0x30120\n  7726: u64 [s1 + 0x98] = a0\n  7730: i32 a0 = a0 + 0\n  7732: u64 [s1 + 0x60] = a0\n  7735: ra = 0x12a\n  7739: ecalli 3 // 'caller'\n  7741: a2 = u64 [s1 + 0x98]\n  7745: t0 = 0x12c\n  7749: jump @567\n      : @297 [@dyn 149] (gas: 2)\n  7752: a2 = u64 [s1 + 0x98]\n  7756: t0 = 300, jump @567\n      : @298 [@dyn 150] (gas: 7)\n  7762: u64 [s1 + 920] = 0\n  7766: u64 [s1 + 0x390] = a1\n  7770: u64 [s1 + 0x388] = a0\n  7774: a1 = s1 + 0x380\n  7778: u64 [s1 + 0x380] = a3\n  7782: a0 = 0\n  7784: ra = 302, jump @9\n      : @299 [@dyn 151] (gas: 7)\n  7790: u64 [s1 + 888] = 0\n  7794: u64 [s1 + 880] = 0\n  7798: u64 [s1 + 864] = 0x4\n  7803: a0 = 0x20\n  7806: a1 = s1 + 0x360\n  7810: u64 [s1 + 872] = 0\n  7814: ra = 304, jump @9\n      : @300 [@dyn 152] (gas: 3)\n  7820: a1 = 0x40\n  7823: a0 = 0\n  7825: ra = 306, jump @19\n      : @301 [@dyn 153] (gas: 4)\n  7831: a1 = sp + 0xffffffffffffffe0\n  7834: a1 = a1 & 0xffffffffffffffe0\n  7837: u64 [s1 + 0x90] = a1\n  7841: t0 = 308, jump @570\n      : @302 [@dyn 154] (gas: 24)\n  7847: ecalli 7 // 'hash_keccak_256'\n  7849: a3 = u64 [s1 + 0x90]\n  7853: a0 = u64 [a3 + 0x18]\n  7856: a1 = u64 [a3 + 0x10]\n  7859: a2 = u64 [a3 + 0x8]\n  7862: a3 = u64 [a3]\n  7864: a0 = reverse a0\n  7866: u64 [s1 + 0x90] = a0\n  7870: a0 = reverse a1\n  7872: u64 [s1 + 0x88] = a0\n  7876: a0 = reverse a2\n  7878: u64 [s1 + 0x80] = a0\n  7882: a0 = reverse a3\n  7884: u64 [s1 + 0x78] = a0\n  7887: u64 [s1 + 856] = 0\n  7891: a0 = u64 [s1 + 0xa0]\n  7895: u64 [s1 + 0x350] = a0\n  7899: a0 = u64 [s1 + 0xa8]\n  7903: u64 [s1 + 0x348] = a0\n  7907: a1 = s1 + 0x340\n  7911: a0 = u64 [s1 + 0xb0]\n  7915: u64 [s1 + 0x340] = a0\n  7919: a0 = 0\n  7921: ra = 310, jump @9\n      : @303 [@dyn 155] (gas: 11)\n  7927: a0 = u64 [s1 + 0x78]\n  7930: u64 [s1 + 0x338] = a0\n  7934: a0 = u64 [s1 + 0x80]\n  7938: u64 [s1 + 0x330] = a0\n  7942: a0 = u64 [s1 + 0x88]\n  7946: u64 [s1 + 0x328] = a0\n  7950: a0 = 0x20\n  7953: a1 = s1 + 0x320\n  7957: a2 = u64 [s1 + 0x90]\n  7961: u64 [s1 + 0x320] = a2\n  7965: ra = 312, jump @9\n      : @304 [@dyn 156] (gas: 3)\n  7971: a1 = 0x40\n  7974: a0 = 0\n  7976: ra = 314, jump @19\n      : @305 [@dyn 157] (gas: 4)\n  7982: a1 = sp + 0xffffffffffffffe0\n  7985: a1 = a1 & 0xffffffffffffffe0\n  7988: u64 [s1 + 0x90] = a1\n  7992: t0 = 316, jump @570\n      : @306 [@dyn 158] (gas: 21)\n  7998: ecalli 7 // 'hash_keccak_256'\n  8000: a3 = u64 [s1 + 0x90]\n  8004: a0 = u64 [a3 + 0x18]\n  8007: a1 = u64 [a3 + 0x10]\n  8010: a2 = u64 [a3 + 0x8]\n  8013: a3 = u64 [a3]\n  8015: a0 = reverse a0\n  8017: a1 = reverse a1\n  8019: a2 = reverse a2\n  8021: a3 = reverse a3\n  8023: a4 = s1 + 0x7ff\n  8027: a4 = a4 + 0x39\n  8030: a5 = a4 + 0x600\n  8034: u64 [a5 + 0xe0] = a3\n  8038: u64 [a5 + 0xd8] = a2\n  8042: u64 [a5 + 0xd0] = a1\n  8046: u64 [a5 + 0xc8] = a0\n  8050: a0 = s1 + 0x7ff\n  8054: a0 = a0 + 0x701\n  8058: a1 = u64 [s1 + 0xb8]\n  8062: ra = 318, jump @15\n      : @307 [@dyn 159] (gas: 3)\n  8068: a0 = s1 + 0x300\n  8072: a1 = 0x40\n  8075: ra = 320, jump @7\n      : @308 [@dyn 160] (gas: 6)\n  8081: a4 = s1 + 0x300\n  8085: a0 = u64 [a4 + 0x18]\n  8088: a1 = u64 [a4 + 0x10]\n  8091: a2 = u64 [a4 + 0x8]\n  8094: a3 = u64 [a4]\n  8096: t0 = 322, jump @587\n      : @309 [@dyn 161] (gas: 1)\n  8102: jump @398 if a0 != 0\n      : @310 (gas: 12)\n  8106: a0 = u64 [s1 + 0x50]\n  8109: u64 [s1 + 0x2e0] = a0\n  8113: a0 = u64 [s1 + 0x58]\n  8116: u64 [s1 + 0x2e8] = a0\n  8120: a0 = u64 [s1 + 0x68]\n  8123: u64 [s1 + 0x2f0] = a0\n  8127: a1 = s1 + 0x2e0\n  8131: a0 = u64 [s1 + 0x70]\n  8134: u64 [s1 + 0x2f8] = a0\n  8138: a0 = a3\n  8140: u64 [s1 + 0xb8] = a3\n  8144: ra = 324, jump @9\n      : @311 [@dyn 162] (gas: 6)\n  8150: a0 = u64 [s1 + 0x60]\n  8153: ra = 0x146\n  8157: ecalli 3 // 'caller'\n  8159: a2 = u64 [s1 + 0x98]\n  8163: t0 = 0x148\n  8167: jump @577\n      : @312 [@dyn 163] (gas: 2)\n  8170: a2 = u64 [s1 + 0x98]\n  8174: t0 = 328, jump @577\n      : @313 [@dyn 164] (gas: 31)\n  8180: t0 = a1 | a0\n  8183: a3 = a3 >> 0x20\n  8186: a2 = reverse a2\n  8188: a1 = a2 << 0x20\n  8191: a1 = a1 | a3\n  8194: a2 = a2 >> 0x20\n  8197: u64 [s1 + 664] = 0\n  8201: a0 = u64 [s1 + 0xa0]\n  8205: u64 [s1 + 0x290] = a0\n  8209: a0 = u64 [s1 + 0xa8]\n  8213: u64 [s1 + 0x288] = a0\n  8217: a0 = u64 [s1 + 0xb0]\n  8221: u64 [s1 + 0x280] = a0\n  8225: u64 [s1 + 696] = 0\n  8229: a3 = u64 [0x20058]\n  8234: a4 = u64 [0x20060]\n  8239: a5 = u64 [0x20068]\n  8244: a0 = u64 [0x20070]\n  8249: u64 [s1 + 0x2d8] = a3\n  8253: u64 [s1 + 0x2d0] = a4\n  8257: u64 [s1 + 0x2c8] = a5\n  8261: u64 [s1 + 0x2c0] = a0\n  8265: u64 [s1 + 0x2b0] = a2\n  8269: u64 [s1 + 0x2a8] = a1\n  8273: a1 = 0x20\n  8276: a2 = s1 + 0x2c0\n  8280: a3 = s1 + 0x2a0\n  8284: a4 = s1 + 0x280\n  8288: u64 [s1 + 0x2a0] = t0\n  8292: a0 = u64 [s1 + 0xb8]\n  8296: ra = 330, jump @16\n      : @314 [@dyn 165] (gas: 3)\n  8302: a0 = s1 + 0x260\n  8306: a1 = 0x40\n  8309: ra = 332, jump @7\n      : @315 [@dyn 166] (gas: 6)\n  8315: a4 = s1 + 0x200\n  8319: a3 = u64 [a4 + 0x78]\n  8322: a1 = u64 [a4 + 0x70]\n  8325: a2 = u64 [a4 + 0x68]\n  8328: a0 = u64 [a4 + 0x60]\n  8331: t0 = 334, jump @571\n      : @316 [@dyn 167] (gas: 1)\n  8337: jump @398 if a1 != 0\n      : @317 (gas: 8)\n  8341: u64 [s1 + 600] = 0\n  8345: u64 [s1 + 592] = 0\n  8349: u64 [s1 + 584] = 0\n  8353: a1 = s1 + 0x240\n  8357: u64 [s1 + 576] = 0x1\n  8362: u64 [s1 + 0xb8] = a0\n  8366: ra = 0x1b0\n  8370: jump @9\n      : @318 (gas: 8)\n  8373: u64 [a2 + 1664] = 0\n  8377: u64 [a2 + 1656] = 0\n  8381: u64 [a2 + 1648] = 0\n  8385: u64 [a2 + 1640] = 0\n  8389: a0 = s1 + 0x1000\n  8393: i32 a0 = a0 + 0xfffffffffffffea0\n  8397: ecalli 11 // 'value_transferred'\n  8399: fallthrough\n      : @319 (gas: 11)\n  8400: a3 = s1 + 0x7ff\n  8404: a3 = a3 + 0x39\n  8407: a4 = a3 + 0x600\n  8411: a0 = u64 [a4 + 0x78]\n  8414: a1 = u64 [a4 + 0x80]\n  8418: a2 = u64 [a4 + 0x70]\n  8421: a3 = u64 [a4 + 0x68]\n  8424: a1 = a1 | a2\n  8427: a0 = a0 | a3\n  8430: a0 = a0 | a1\n  8433: jump @417 if a0 != 0\n      : @320 (gas: 3)\n  8437: a0 = u64 [s1 + 0xb8]\n  8441: a0 = i32 [a0]\n  8443: jump @417 if a0 <=u 3\n      : @321 (gas: 3)\n  8448: a0 = s1 + 0x220\n  8452: a1 = u64 [s1 + 0xb0]\n  8456: ra = 336, jump @11\n      : @322 [@dyn 168] (gas: 34)\n  8462: a1 = s1 + 0x200\n  8466: a2 = u64 [a1 + 0x30]\n  8469: a3 = u64 [a1 + 0x28]\n  8472: a5 = u64 [a1 + 0x38]\n  8475: a0 = u64 [a1 + 0x20]\n  8478: a4 = a2 << 0x3f\n  8481: a1 = a3 >> 0x1\n  8484: t0 = a1 | a4\n  8487: a1 = a5 << 0x3f\n  8490: u64 [s1 + 0xb0] = a2\n  8494: a2 = a2 >> 0x1\n  8497: a1 = a1 | a2\n  8500: u64 [s1 + 0xa0] = a3\n  8504: a2 = a3 << 0x3f\n  8507: a3 = a0 >> 0x1\n  8510: a4 = a3 | a2\n  8513: u64 [s1 + 0xa8] = a5\n  8517: t1 = a5 >> 0x1\n  8520: u64 [s1 + 0x90] = a0\n  8524: a5 = a0 & 0x1\n  8527: a3 = -a5\n  8529: t2 = a3 & a1\n  8532: a2 = a3 & t0\n  8535: a3 = a3 & t1\n  8538: a0 = a4 & 0x7f\n  8541: u64 [s1 + 0x98] = a0\n  8545: a4 = a0 if a5 == 0\n  8548: a0 = a4 <u 0x20\n  8551: a0 = 0 if a2 != 0\n  8553: a1 = t2 | a3\n  8556: a0 = 0 if a1 != 0\n  8558: u64 [s1 + 0xb8] = a5\n  8562: a1 = a5 <u 0x1\n  8565: jump @420 if a1 != a0\n      : @323 (gas: 12)\n  8569: u64 [s1 + 0x78] = a4\n  8572: a5 = s1 + 0x200\n  8576: u64 [a5] = a4\n  8578: u64 [s1 + 0x68] = a2\n  8581: u64 [a5 + 0x8] = a2\n  8584: u64 [s1 + 0x70] = t2\n  8587: u64 [s1 + 0x210] = t2\n  8591: a0 = 0x80\n  8595: a1 = s1 + 0x200\n  8599: u64 [s1 + 0x60] = a3\n  8602: u64 [a5 + 0x18] = a3\n  8605: ra = 338, jump @9\n      : @324 [@dyn 169] (gas: 2)\n  8611: a0 = u64 [s1 + 0xb8]\n  8615: jump @386 if a0 != 0\n      : @325 (gas: 13)\n  8619: a0 = u64 [s1 + 0x90]\n  8623: a0 = a0 & 0xffffffffffffff00\n  8627: a1 = u64 [s1 + 0xa0]\n  8631: a2 = s1 + 0x100\n  8635: u64 [a2 + 0x88] = a1\n  8639: u64 [a2 + 0x80] = a0\n  8643: a0 = u64 [s1 + 0xb0]\n  8647: u64 [a2 + 0x90] = a0\n  8651: a0 = u64 [s1 + 0xa8]\n  8655: u64 [a2 + 0x98] = a0\n  8659: a0 = 0xa0\n  8663: a1 = s1 + 0x180\n  8667: ra = 340, jump @9\n      : @326 [@dyn 170] (gas: 7)\n  8673: a1 = 0\n  8675: a0 = 0\n  8677: t0 = 0\n  8679: a3 = 0xc0\n  8683: a2 = u64 [s1 + 0x98]\n  8687: a3 = 0xa0 if a2 == 0\n  8691: jump @394\n      : @327 (gas: 11)\n  8694: a0 = s1 + 0x1038\n  8698: u64 [a0 + 192] = 0\n  8702: u64 [a0 + 184] = 0\n  8706: u64 [a0 + 176] = 0\n  8710: u64 [a0 + 168] = 0\n  8714: a0 = s1 + 0x1000\n  8718: i32 a0 = a0 + 0xe0\n  8722: ecalli 11 // 'value_transferred'\n  8724: t0 = 0x156\n  8728: a3 = s1 + 0x1038\n  8732: fallthrough\n      : @328 [@dyn 171] (gas: 8)\n  8733: a0 = u64 [a3 + 0xb8]\n  8737: a1 = u64 [a3 + 0xc0]\n  8741: a2 = u64 [a3 + 0xb0]\n  8745: a3 = u64 [a3 + 0xa8]\n  8749: a1 = a1 | a2\n  8752: a0 = a0 | a3\n  8755: a0 = a0 | a1\n  8758: jump @417 if a0 != 0\n      : @329 (gas: 3)\n  8762: a0 = u64 [s1 + 0xb8]\n  8766: a0 = i32 [a0]\n  8768: jump @417 if a0 <=u 3\n      : @330 (gas: 4)\n  8773: a0 = s1 + 0x7ff\n  8777: a0 = a0 + 0x281\n  8781: a1 = 0x40\n  8784: ra = 344, jump @7\n      : @331 [@dyn 172] (gas: 12)\n  8790: a0 = s1 + 0x7ff\n  8794: a0 = a0 + 0x39\n  8797: a2 = a0 + 0x200\n  8801: a1 = u64 [a2 + 0x60]\n  8804: u64 [s1 + 0xb8] = a1\n  8808: a1 = u64 [a2 + 0x58]\n  8811: u64 [s1 + 0xb0] = a1\n  8815: a1 = u64 [a2 + 0x50]\n  8818: u64 [s1 + 0xa0] = a1\n  8822: a0 = u64 [a2 + 0x48]\n  8825: u64 [s1 + 0xa8] = a0\n  8829: ra = 346, jump @0\n      : @332 [@dyn 173] (gas: 13)\n  8835: a0 = u64 [s1 + 0xb8]\n  8839: a1 = u64 [s1 + 0xa0]\n  8843: a0 = a0 | a1\n  8846: a1 = u64 [s1 + 0xa8]\n  8850: a3 = a1\n  8852: a2 = u64 [s1 + 0xb0]\n  8856: a1 = a1 | a2\n  8859: a1 = a1 | a0\n  8862: a1 = a1 >> 0x20\n  8865: a0 = a0 | a2\n  8868: a0 = a0 << 0x20\n  8871: a0 = a0 | a1\n  8874: jump @398 if a0 != 0\n      : @333 (gas: 14)\n  8878: a2 = u64 [0x30140]\n  8883: a1 = u64 [0x30148]\n  8888: a0 = u32 [0x30150]\n  8893: a4 = s1 + 0x7ff\n  8897: a4 = a4 + 0x39\n  8900: u64 [a4 + 576] = 0\n  8904: a5 = a4 + 0x200\n  8908: u64 [a5 + 0x38] = a0\n  8911: u64 [a5 + 0x30] = a1\n  8914: a1 = s1 + 0x7ff\n  8918: a1 = a1 + 0x261\n  8922: u64 [a5 + 0x28] = a2\n  8925: a0 = a3\n  8927: ra = 348, jump @9\n      : @334 [@dyn 174] (gas: 4)\n  8933: a1 = 0x20\n  8936: a0 = u64 [s1 + 0xa8]\n  8940: ra = 0x1b2\n  8944: jump @19\n      : @335 (gas: 11)\n  8947: a0 = s1 + 0x1038\n  8951: u64 [a0 + 256] = 0\n  8955: u64 [a0 + 248] = 0\n  8959: u64 [a0 + 240] = 0\n  8963: u64 [a0 + 232] = 0\n  8967: a0 = s1 + 0x1000\n  8971: i32 a0 = a0 + 0x120\n  8975: ecalli 11 // 'value_transferred'\n  8977: t0 = 0x15e\n  8981: a3 = s1 + 0x1038\n  8985: fallthrough\n      : @336 [@dyn 175] (gas: 8)\n  8986: a0 = u64 [a3 + 0xf8]\n  8990: a1 = u64 [a3 + 0x100]\n  8994: a2 = u64 [a3 + 0xf0]\n  8998: a3 = u64 [a3 + 0xe8]\n  9002: a1 = a1 | a2\n  9005: a0 = a0 | a3\n  9008: a0 = a0 | a1\n  9011: jump @417 if a0 != 0\n      : @337 (gas: 4)\n  9015: a0 = u64 [s1 + 0xb8]\n  9019: a0 = i32 [a0]\n  9021: a1 = 0x43\n  9024: jump @417 if a1 >=u a0\n      : @338 (gas: 5)\n  9028: a0 = s1 + 0x7ff\n  9032: a0 = a0 + 0x521\n  9036: ra = 0x160\n  9040: t0 = 0x1f2\n  9044: jump @592\n      : @339 [@dyn 176] (gas: 73)\n  9047: a1 = s1 + 0x7ff\n  9051: a1 = a1 + 0x39\n  9054: a2 = a1 + 0x400\n  9058: a0 = u64 [a2 + 0xe8]\n  9062: u64 [s1 + 0xb8] = a0\n  9066: a0 = u64 [a2 + 0xf0]\n  9070: u64 [s1 + 0xb0] = a0\n  9074: a0 = u64 [a2 + 0xf8]\n  9078: u64 [s1 + 0xa8] = a0\n  9082: a0 = u64 [a1 + 0x500]\n  9086: u64 [s1 + 0xa0] = a0\n  9090: a0 = s1 + 0x1000\n  9094: i32 a0 = a0 + 0x140\n  9098: a1 = 0x24\n  9101: ecalli 1 // 'call_data_load'\n  9103: a0 = s1 + 0x1038\n  9107: a2 = a0 + 0x100\n  9111: a1 = u64 [a2 + 0x8]\n  9114: u64 [s1 + 0x98] = a1\n  9118: a1 = u64 [a2 + 0x10]\n  9121: u64 [s1 + 0x90] = a1\n  9125: a1 = u64 [a2 + 0x18]\n  9128: u64 [s1 + 0x88] = a1\n  9132: a0 = u64 [a2 + 0x20]\n  9135: u64 [s1 + 0x80] = a0\n  9139: a0 = 0x30120\n  9144: u64 [s1 + 0x78] = a0\n  9147: i32 a0 = a0 + 0\n  9149: ecalli 3 // 'caller'\n  9151: a2 = u64 [s1 + 0x78]\n  9154: a0 = u64 [a2 + 0x8]\n  9157: a1 = i32 [a2 + 0x10]\n  9160: a2 = u64 [a2]\n  9162: a0 = reverse a0\n  9164: a3 = a0 << 0x20\n  9167: a1 = reverse a1\n  9169: a1 = a1 >> 0x20\n  9172: a1 = a1 | a3\n  9175: a0 = a0 >> 0x20\n  9178: a2 = reverse a2\n  9180: a3 = a2 << 0x20\n  9183: a0 = a0 | a3\n  9186: a2 = a2 >> 0x20\n  9189: a3 = s1 + 0x7ff\n  9193: a3 = a3 + 0x39\n  9196: a4 = u64 [s1 + 0x80]\n  9200: a5 = a3 + 0x400\n  9204: u64 [a5 + 0xa0] = a4\n  9208: a4 = u64 [s1 + 0x88]\n  9212: u64 [a5 + 0x98] = a4\n  9216: a4 = u64 [s1 + 0x90]\n  9220: u64 [a5 + 0x90] = a4\n  9224: a4 = u64 [s1 + 0x98]\n  9228: u64 [a5 + 0x88] = a4\n  9232: a4 = u64 [s1 + 0xa0]\n  9236: u64 [a5 + 0xc0] = a4\n  9240: a4 = u64 [s1 + 0xa8]\n  9244: u64 [a5 + 0xb8] = a4\n  9248: a4 = u64 [s1 + 0xb0]\n  9252: u64 [a5 + 0xb0] = a4\n  9256: a4 = u64 [s1 + 0xb8]\n  9260: u64 [a5 + 0xa8] = a4\n  9264: u64 [a5 + 0xd8] = a2\n  9268: u64 [a5 + 0xd0] = a0\n  9272: u64 [a5 + 0xc8] = a1\n  9276: a0 = s1 + 0x7ff\n  9280: a0 = a0 + 0x501\n  9284: a1 = s1 + 0x7ff\n  9288: a1 = a1 + 0x4e1\n  9292: a2 = s1 + 0x7ff\n  9296: a2 = a2 + 0x4c1\n  9300: u64 [a3 + 1248] = 0\n  9304: ra = 354, jump @469\n      : @340 [@dyn 177] (gas: 4)\n  9310: a0 = s1 + 0x7ff\n  9314: a0 = a0 + 0x4a1\n  9318: a1 = 0x40\n  9321: ra = 356, jump @7\n      : @341 [@dyn 178] (gas: 15)\n  9327: a3 = s1 + 0x7ff\n  9331: a3 = a3 + 0x39\n  9334: a5 = a3 + 0x400\n  9338: a4 = u64 [a5 + 0x80]\n  9342: a1 = u64 [a5 + 0x78]\n  9345: a2 = u64 [a5 + 0x70]\n  9348: a0 = u64 [a5 + 0x68]\n  9351: a4 = a4 | a2\n  9354: a2 = a0 | a1\n  9357: a2 = a2 | a4\n  9360: a2 = a2 >> 0x20\n  9363: a1 = a1 | a4\n  9366: a1 = a1 << 0x20\n  9369: a1 = a1 | a2\n  9372: jump @398 if a1 != 0\n      : @342 (gas: 9)\n  9376: u64 [a3 + 1120] = 0\n  9380: u64 [a3 + 1112] = 0\n  9384: u64 [a3 + 1096] = 0x1\n  9389: a1 = s1 + 0x7ff\n  9393: a1 = a1 + 0x481\n  9397: u64 [a3 + 1104] = 0\n  9401: u64 [s1 + 0xb8] = a0\n  9405: ra = 0x1b0\n  9409: jump @9\n      : @343 (gas: 4)\n  9412: a0 = t2 & a3\n  9415: a1 = ra & t1\n  9418: a0 = a0 & a1\n  9421: jump @379 if a0 == 4294967295\n      : @344 (gas: 34)\n  9426: a0 = sp + 0xffffffffffffffe0\n  9429: a5 = a0 & 0xffffffffffffffe0\n  9432: sp = a5\n  9434: a0 = u64 [s1 + 0x98]\n  9438: a0 = a3 - a0\n  9441: a1 = u64 [s1 + 0xa0]\n  9445: a1 = t1 - a1\n  9448: a3 = a2\n  9450: a2 = u64 [s1 + 0x78]\n  9453: a1 = a1 - a2\n  9456: a2 = a0 <u a4\n  9459: a1 = a1 - a2\n  9462: a0 = a0 - a4\n  9465: a2 = u64 [s1 + 0x90]\n  9469: a2 = ra - a2\n  9472: a2 = a2 - a3\n  9475: u64 [s1 + 0x70] = a5\n  9478: u64 [a5 + 0x10] = a0\n  9481: u64 [a5 + 0x8] = a2\n  9484: a0 = u64 [s1 + 0x88]\n  9488: a0 = t2 - a0\n  9491: u64 [a5] = a0\n  9493: u64 [a5 + 0x18] = a1\n  9496: u64 [s1 + 1816] = 0\n  9500: a0 = u64 [s1 + 0x58]\n  9503: a2 = s1 + 0x700\n  9507: u64 [a2 + 0x10] = a0\n  9510: a0 = u64 [s1 + 0xb8]\n  9514: u64 [a2 + 0x8] = a0\n  9517: a1 = s1 + 0x700\n  9521: a0 = u64 [s1 + 0xb0]\n  9525: u64 [a2] = a0\n  9527: a0 = 0\n  9529: ra = 358, jump @9\n      : @345 [@dyn 179] (gas: 7)\n  9535: u64 [s1 + 1784] = 0\n  9539: u64 [s1 + 1776] = 0\n  9543: u64 [s1 + 1768] = 0\n  9547: a0 = 0x20\n  9550: a1 = s1 + 0x6e0\n  9554: u64 [s1 + 1760] = 0x4\n  9559: ra = 360, jump @9\n      : @346 [@dyn 180] (gas: 3)\n  9565: a1 = 0x40\n  9568: a0 = 0\n  9570: ra = 362, jump @19\n      : @347 [@dyn 181] (gas: 4)\n  9576: a1 = sp + 0xffffffffffffffe0\n  9579: a1 = a1 & 0xffffffffffffffe0\n  9582: u64 [s1 + 0x78] = a1\n  9585: t0 = 364, jump @570\n      : @348 [@dyn 182] (gas: 20)\n  9591: ecalli 7 // 'hash_keccak_256'\n  9593: a3 = u64 [s1 + 0x78]\n  9596: a0 = u64 [a3 + 0x18]\n  9599: a1 = u64 [a3 + 0x10]\n  9602: a2 = u64 [a3 + 0x8]\n  9605: a3 = u64 [a3]\n  9607: a0 = reverse a0\n  9609: u64 [s1 + 0x78] = a0\n  9612: a0 = reverse a1\n  9614: u64 [s1 + 0x68] = a0\n  9617: a0 = reverse a2\n  9619: u64 [s1 + 0x60] = a0\n  9622: a0 = reverse a3\n  9624: u64 [s1 + 0x20] = a0\n  9627: a0 = u64 [s1 + 0x50]\n  9630: ra = 0x16e\n  9634: ecalli 3 // 'caller'\n  9636: a2 = u64 [s1 + 0xa8]\n  9640: t0 = 0x170\n  9644: jump @567\n      : @349 [@dyn 183] (gas: 2)\n  9647: a2 = u64 [s1 + 0xa8]\n  9651: t0 = 368, jump @567\n      : @350 [@dyn 184] (gas: 7)\n  9657: u64 [s1 + 1752] = 0\n  9661: u64 [s1 + 0x6d0] = a1\n  9665: u64 [s1 + 0x6c8] = a0\n  9669: a1 = s1 + 0x6c0\n  9673: u64 [s1 + 0x6c0] = a3\n  9677: a0 = 0\n  9679: ra = 370, jump @9\n      : @351 [@dyn 185] (gas: 11)\n  9685: a0 = u64 [s1 + 0x20]\n  9688: u64 [s1 + 0x6b8] = a0\n  9692: a0 = u64 [s1 + 0x60]\n  9695: u64 [s1 + 0x6b0] = a0\n  9699: a0 = u64 [s1 + 0x68]\n  9702: u64 [s1 + 0x6a8] = a0\n  9706: a0 = 0x20\n  9709: a1 = s1 + 0x6a0\n  9713: a2 = u64 [s1 + 0x78]\n  9716: u64 [s1 + 0x6a0] = a2\n  9720: ra = 372, jump @9\n      : @352 [@dyn 186] (gas: 3)\n  9726: a1 = 0x40\n  9729: a0 = 0\n  9731: ra = 374, jump @19\n      : @353 [@dyn 187] (gas: 4)\n  9737: a1 = sp + 0xffffffffffffffe0\n  9740: a1 = a1 & 0xffffffffffffffe0\n  9743: u64 [s1 + 0x78] = a1\n  9746: t0 = 376, jump @570\n      : @354 [@dyn 188] (gas: 4)\n  9752: ra = 0x17a\n  9756: ecalli 7 // 'hash_keccak_256'\n  9758: t0 = 0x17c\n  9762: jump @569\n      : @355 [@dyn 189] (gas: 1)\n  9765: t0 = 380, jump @569\n      : @356 [@dyn 190] (gas: 8)\n  9771: u64 [a5 + 0xa0] = a3\n  9775: u64 [a5 + 0x98] = a2\n  9779: u64 [a5 + 0x90] = a1\n  9783: u64 [a5 + 0x88] = a0\n  9787: a0 = s1 + 0x7ff\n  9791: a0 = a0 + 0x7c1\n  9795: a1 = u64 [s1 + 0x70]\n  9798: ra = 382, jump @15\n      : @357 [@dyn 191] (gas: 10)\n  9804: u64 [s1 + 1688] = 0\n  9808: a0 = u64 [s1 + 0x58]\n  9811: u64 [s1 + 0x690] = a0\n  9815: a0 = u64 [s1 + 0xb8]\n  9819: u64 [s1 + 0x688] = a0\n  9823: a1 = s1 + 0x680\n  9827: a0 = u64 [s1 + 0xb0]\n  9831: u64 [s1 + 0x680] = a0\n  9835: a0 = 0\n  9837: ra = 384, jump @9\n      : @358 [@dyn 192] (gas: 7)\n  9843: u64 [s1 + 1656] = 0\n  9847: u64 [s1 + 1648] = 0\n  9851: u64 [s1 + 1632] = 0x4\n  9856: a0 = 0x20\n  9859: a1 = s1 + 0x660\n  9863: u64 [s1 + 1640] = 0\n  9867: ra = 386, jump @9\n      : @359 [@dyn 193] (gas: 3)\n  9873: a1 = 0x40\n  9876: a0 = 0\n  9878: ra = 388, jump @19\n      : @360 [@dyn 194] (gas: 4)\n  9884: a1 = sp + 0xffffffffffffffe0\n  9887: a1 = a1 & 0xffffffffffffffe0\n  9890: u64 [s1 + 0x78] = a1\n  9893: t0 = 390, jump @570\n      : @361 [@dyn 195] (gas: 5)\n  9899: ra = 0x188\n  9903: ecalli 7 // 'hash_keccak_256'\n  9905: a3 = u64 [s1 + 0x78]\n  9908: t0 = 0x18a\n  9912: jump @579\n      : @362 [@dyn 196] (gas: 2)\n  9915: a3 = u64 [s1 + 0x78]\n  9918: t0 = 394, jump @579\n      : @363 [@dyn 197] (gas: 6)\n  9924: a0 = u64 [s1 + 0x50]\n  9927: ra = 0x18c\n  9931: ecalli 3 // 'caller'\n  9933: a2 = u64 [s1 + 0xa8]\n  9937: t0 = 0x18e\n  9941: jump @567\n      : @364 [@dyn 198] (gas: 2)\n  9944: a2 = u64 [s1 + 0xa8]\n  9948: t0 = 398, jump @567\n      : @365 [@dyn 199] (gas: 7)\n  9954: u64 [s1 + 1624] = 0\n  9958: u64 [s1 + 0x650] = a1\n  9962: u64 [s1 + 0x648] = a0\n  9966: a1 = s1 + 0x640\n  9970: u64 [s1 + 0x640] = a3\n  9974: a0 = 0\n  9976: ra = 400, jump @9\n      : @366 [@dyn 200] (gas: 11)\n  9982: a0 = u64 [s1 + 0x60]\n  9985: u64 [s1 + 0x638] = a0\n  9989: a0 = u64 [s1 + 0x68]\n  9992: u64 [s1 + 0x630] = a0\n  9996: a0 = u64 [s1 + 0x70]\n  9999: u64 [s1 + 0x628] = a0\n 10003: a0 = 0x20\n 10006: a1 = s1 + 0x620\n 10010: a2 = u64 [s1 + 0x78]\n 10013: u64 [s1 + 0x620] = a2\n 10017: ra = 402, jump @9\n      : @367 [@dyn 201] (gas: 3)\n 10023: a1 = 0x40\n 10026: a0 = 0\n 10028: ra = 404, jump @19\n      : @368 [@dyn 202] (gas: 4)\n 10034: a1 = sp + 0xffffffffffffffe0\n 10037: a1 = a1 & 0xffffffffffffffe0\n 10040: u64 [s1 + 0x78] = a1\n 10043: t0 = 406, jump @570\n      : @369 [@dyn 203] (gas: 4)\n 10049: ra = 0x198\n 10053: ecalli 7 // 'hash_keccak_256'\n 10055: t0 = 0x19a\n 10059: jump @569\n      : @370 [@dyn 204] (gas: 1)\n 10062: t0 = 410, jump @569\n      : @371 [@dyn 205] (gas: 8)\n 10068: u64 [a5 + 0xc0] = a3\n 10072: u64 [a5 + 0xb8] = a2\n 10076: u64 [a5 + 0xb0] = a1\n 10080: u64 [a5 + 0xa8] = a0\n 10084: a0 = s1 + 0x600\n 10088: a1 = s1 + 0x7ff\n 10092: a1 = a1 + 0x7e1\n 10096: ra = 412, jump @11\n      : @372 [@dyn 206] (gas: 12)\n 10102: a1 = s1 + 0x600\n 10106: a0 = u64 [a1 + 0x18]\n 10109: u64 [s1 + 0x78] = a0\n 10112: a0 = u64 [a1 + 0x10]\n 10115: u64 [s1 + 0x70] = a0\n 10118: a0 = u64 [a1 + 0x8]\n 10121: u64 [s1 + 0x68] = a0\n 10124: a0 = u64 [a1]\n 10126: u64 [s1 + 0x60] = a0\n 10129: a0 = s1 + 0x5e0\n 10133: a1 = 0x40\n 10136: ra = 414, jump @7\n      : @373 [@dyn 207] (gas: 6)\n 10142: a4 = s1 + 0x500\n 10146: a3 = u64 [a4 + 0xf8]\n 10150: a1 = u64 [a4 + 0xf0]\n 10154: a2 = u64 [a4 + 0xe8]\n 10158: a0 = u64 [a4 + 0xe0]\n 10162: t0 = 416, jump @571\n      : @374 [@dyn 208] (gas: 1)\n 10168: jump @398 if a1 != 0\n      : @375 (gas: 11)\n 10172: a1 = u64 [s1 + 0x60]\n 10175: u64 [s1 + 0x5c0] = a1\n 10179: a1 = u64 [s1 + 0x68]\n 10182: u64 [s1 + 0x5c8] = a1\n 10186: a1 = u64 [s1 + 0x70]\n 10189: u64 [s1 + 0x5d0] = a1\n 10193: a1 = s1 + 0x5c0\n 10197: a2 = u64 [s1 + 0x78]\n 10200: u64 [s1 + 0x5d8] = a2\n 10204: u64 [s1 + 0x78] = a0\n 10207: ra = 418, jump @9\n      : @376 [@dyn 209] (gas: 6)\n 10213: a0 = u64 [s1 + 0x50]\n 10216: ra = 0x1a4\n 10220: ecalli 3 // 'caller'\n 10222: a2 = u64 [s1 + 0xa8]\n 10226: t0 = 0x1a6\n 10230: jump @577\n      : @377 [@dyn 210] (gas: 2)\n 10233: a2 = u64 [s1 + 0xa8]\n 10237: t0 = 422, jump @577\n      : @378 [@dyn 211] (gas: 32)\n 10243: t0 = a1 | a0\n 10246: a3 = a3 >> 0x20\n 10249: a2 = reverse a2\n 10251: a1 = a2 << 0x20\n 10254: a1 = a1 | a3\n 10257: a2 = a2 >> 0x20\n 10260: u64 [s1 + 1400] = 0\n 10264: u64 [s1 + 1432] = 0\n 10268: a0 = u64 [s1 + 0x58]\n 10271: u64 [s1 + 0x590] = a0\n 10275: a0 = u64 [s1 + 0xb8]\n 10279: u64 [s1 + 0x588] = a0\n 10283: a0 = u64 [s1 + 0xb0]\n 10287: u64 [s1 + 0x580] = a0\n 10291: a3 = u64 [0x20058]\n 10296: a4 = u64 [0x20060]\n 10301: a5 = u64 [0x20068]\n 10306: a0 = u64 [0x20070]\n 10311: u64 [s1 + 0x5b8] = a3\n 10315: a3 = s1 + 0x500\n 10319: u64 [a3 + 0xb0] = a4\n 10323: u64 [a3 + 0xa8] = a5\n 10327: u64 [a3 + 0xa0] = a0\n 10331: u64 [a3 + 0x70] = a2\n 10334: u64 [a3 + 0x68] = a1\n 10337: a1 = 0x20\n 10340: a2 = s1 + 0x5a0\n 10344: a3 = s1 + 0x580\n 10348: a4 = s1 + 0x560\n 10352: u64 [s1 + 0x560] = t0\n 10356: a0 = u64 [s1 + 0x78]\n 10359: ra = 424, jump @16\n      : @379 [@dyn 212] (gas: 29)\n 10365: a0 = u64 [s1 + 0x88]\n 10369: a4 = s1 + 0x500\n 10373: u64 [a4] = a0\n 10375: a0 = u64 [s1 + 0x28]\n 10378: u64 [a4 + 0x20] = a0\n 10381: a0 = u64 [s1 + 0xb0]\n 10385: u64 [a4 + 0x40] = a0\n 10388: a0 = u64 [s1 + 0x90]\n 10392: u64 [a4 + 0x8] = a0\n 10395: a0 = u64 [s1 + 0x30]\n 10398: u64 [a4 + 0x28] = a0\n 10401: a0 = u64 [s1 + 0xb8]\n 10405: u64 [a4 + 0x48] = a0\n 10408: a0 = u64 [s1 + 0x98]\n 10412: u64 [a4 + 0x10] = a0\n 10415: a0 = u64 [s1 + 0x38]\n 10418: u64 [a4 + 0x30] = a0\n 10421: a0 = u64 [s1 + 0x80]\n 10425: u64 [a4 + 0x50] = a0\n 10428: a0 = u64 [s1 + 0xa0]\n 10432: u64 [a4 + 0x18] = a0\n 10435: a0 = u64 [s1 + 0x40]\n 10438: u64 [a4 + 0x38] = a0\n 10441: a0 = s1 + 0x540\n 10445: a1 = s1 + 0x520\n 10449: a2 = s1 + 0x500\n 10453: a3 = u64 [s1 + 0x48]\n 10456: u64 [a4 + 0x58] = a3\n 10459: ra = 426, jump @469\n      : @380 [@dyn 213] (gas: 3)\n 10465: a0 = s1 + 0x4e0\n 10469: a1 = 0x40\n 10472: ra = 428, jump @7\n      : @381 [@dyn 214] (gas: 6)\n 10478: a4 = s1 + 0x400\n 10482: a3 = u64 [a4 + 0xf8]\n 10486: a1 = u64 [a4 + 0xf0]\n 10490: a2 = u64 [a4 + 0xe8]\n 10494: a0 = u64 [a4 + 0xe0]\n 10498: t0 = 430, jump @571\n      : @382 [@dyn 215] (gas: 1)\n 10504: jump @398 if a1 != 0\n      : @383 (gas: 7)\n 10508: u64 [s1 + 1240] = 0\n 10512: u64 [s1 + 1232] = 0\n 10516: u64 [s1 + 1224] = 0\n 10520: a1 = s1 + 0x4c0\n 10524: u64 [s1 + 1216] = 0x1\n 10529: u64 [s1 + 0xb8] = a0\n 10533: ra = 432, jump @9\n      : @384 [@dyn 216] (gas: 3)\n 10539: a1 = 0x20\n 10542: a0 = u64 [s1 + 0xb8]\n 10546: ra = 434, jump @19\n      : @385 [@dyn 217] (gas: 5)\n 10552: i32 a1 = a0 + 0\n 10554: a2 = 0x20\n 10557: a0 = 0\n 10559: ecalli 8 // 'seal_return'\n 10561: fallthrough\n      : @386 (gas: 7)\n 10562: u64 [s1 + 504] = 0\n 10566: u64 [s1 + 496] = 0\n 10570: u64 [s1 + 488] = 0\n 10574: a1 = s1 + 0x1e0\n 10578: u64 [s1 + 480] = 0\n 10582: a0 = 0\n 10584: ra = 436, jump @9\n      : @387 [@dyn 218] (gas: 21)\n 10590: a0 = sp + 0xffffffffffffffe0\n 10593: a1 = a0 & 0xffffffffffffffe0\n 10596: sp = a1\n 10598: u64 [s1 + 184] = 0\n 10602: a5 = 0\n 10604: t2 = 0\n 10606: t0 = 0\n 10608: t1 = u64 [0x20088]\n 10613: a2 = u64 [0x20090]\n 10618: ra = u64 [0x20098]\n 10623: a0 = u64 [0x200a0]\n 10628: u64 [a1 + 0x18] = t1\n 10631: u64 [s1 + 0x90] = a2\n 10635: u64 [a1 + 0x10] = a2\n 10638: u64 [a1 + 0x8] = ra\n 10641: a2 = a0\n 10643: u64 [a1] = a0\n 10645: a0 = 0xffffff60\n 10655: u64 [s1 + 0x58] = a0\n 10658: u64 [s1 + 0x50] = a1\n 10661: fallthrough\n      : @388 (gas: 19)\n 10662: u64 [s1 + 0x98] = a2\n 10666: a0 = u64 [s1 + 0x78]\n 10669: a2 = u64 [s1 + 0xb8]\n 10673: a0 = a2 <u a0\n 10676: a2 = u64 [s1 + 0x68]\n 10679: a3 = a5 ^ a2\n 10682: u64 [s1 + 0xb0] = a5\n 10686: a2 = a5 <u a2\n 10689: a2 = a0 if a3 == 0\n 10692: a4 = u64 [s1 + 0x70]\n 10695: a0 = t2 <u a4\n 10698: a3 = u64 [s1 + 0x60]\n 10701: a5 = t0 ^ a3\n 10704: a3 = t0 <u a3\n 10707: a3 = a0 if a5 == 0\n 10710: a0 = t2 ^ a4\n 10713: a0 = a0 | a5\n 10716: a3 = a2 if a0 == 0\n 10719: jump @393 if a3 == 0\n      : @389 (gas: 6)\n 10723: a0 = s1 + 0x1c0\n 10727: u64 [s1 + 0xa8] = t0\n 10731: u64 [s1 + 0x88] = t1\n 10735: u64 [s1 + 0xa0] = t2\n 10739: u64 [s1 + 0x80] = ra\n 10743: ra = 438, jump @11\n      : @390 [@dyn 219] (gas: 10)\n 10749: a5 = u64 [s1 + 0xa0]\n 10753: a0 = u64 [s1 + 0xa8]\n 10757: a0 = a0 | a5\n 10760: a1 = u64 [s1 + 0xb8]\n 10764: a2 = u64 [s1 + 0x58]\n 10767: a1 = a1 <u a2\n 10770: a2 = u64 [s1 + 0xb0]\n 10774: a1 = 0 if a2 != 0\n 10776: a1 = 0 if a0 != 0\n 10778: jump @398 if a1 == 0\n      : @391 (gas: 13)\n 10782: t0 = u64 [s1 + 0x1d8]\n 10786: a2 = s1 + 0x100\n 10790: a1 = u64 [a2 + 0xd0]\n 10794: a3 = u64 [a2 + 0xc8]\n 10798: a4 = u64 [a2 + 0xc0]\n 10802: a0 = u64 [s1 + 0xb8]\n 10806: i32 a0 = a0 + 0xa0\n 10810: u64 [a2 + 0xa0] = a4\n 10814: u64 [a2 + 0xa8] = a3\n 10818: u64 [a2 + 0xb0] = a1\n 10822: a1 = s1 + 0x1a0\n 10826: u64 [s1 + 0x1b8] = t0\n 10830: ra = 440, jump @9\n      : @392 [@dyn 220] (gas: 36)\n 10836: t0 = u64 [s1 + 0xa8]\n 10840: a5 = u64 [s1 + 0x98]\n 10844: a5 = a5 + 0x1\n 10847: a0 = a5 <u 0x1\n 10850: ra = u64 [s1 + 0x80]\n 10854: ra = ra + a0\n 10857: a0 = a5 | ra\n 10860: a0 = a0 <u 0x1\n 10863: a1 = u64 [s1 + 0x90]\n 10867: a0 = a0 + a1\n 10870: a1 = a0 <u a1\n 10873: a3 = u64 [s1 + 0x88]\n 10877: a3 = a3 + a1\n 10880: a1 = u64 [s1 + 0xb8]\n 10884: t1 = a1 + 0x20\n 10887: a2 = t1 <u a1\n 10890: a4 = u64 [s1 + 0xb0]\n 10894: t2 = a4 + a2\n 10897: a4 = t2 <u a4\n 10900: a4 = a2 if a2 == 0\n 10903: a1 = u64 [s1 + 0xa0]\n 10907: a4 = a4 + a1\n 10910: a2 = a4 <u a1\n 10913: t0 = t0 + a2\n 10916: a1 = u64 [s1 + 0x50]\n 10919: u64 [a1 + 0x8] = ra\n 10922: a2 = a5\n 10924: u64 [a1] = a5\n 10926: u64 [a1 + 0x10] = a0\n 10929: u64 [a1 + 0x18] = a3\n 10932: u64 [s1 + 0x90] = a0\n 10936: u64 [s1 + 0xb8] = t1\n 10940: a5 = t2\n 10942: t2 = a4\n 10944: t1 = a3\n 10946: jump @388\n      : @393 (gas: 11)\n 10949: a0 = u64 [s1 + 0xb8]\n 10953: a3 = a0 + 0xa0\n 10957: a0 = a3 <u a0\n 10960: a2 = u64 [s1 + 0xb0]\n 10964: a1 = a2 + a0\n 10967: a2 = a1 <u a2\n 10970: a2 = a0 if a0 == 0\n 10973: a0 = t2 + a2\n 10976: a2 = a0 <u t2\n 10979: t0 = t0 + a2\n 10982: fallthrough\n      : @394 (gas: 37)\n 10983: t1 = a3 + 0xffffffffffffff9f\n 10986: a3 = t1 <u a3\n 10989: a5 = a1 + a3\n 10992: a5 = a5 + 0xffffffffffffffff\n 10995: u64 [s1 + 0x98] = a5\n 10999: a2 = a5 ^ a1\n 11002: a1 = a5 <u a1\n 11005: a1 = a3 if a2 == 0\n 11008: a3 = a0 + 0xffffffffffffffff\n 11011: a4 = a3 + a1\n 11014: a1 = a4 <u a3\n 11017: a0 = a0 <u 0x1\n 11020: a2 = t0 - a0\n 11023: t0 = a2 + a1\n 11026: u64 [s1 + 0x80] = t0\n 11030: a0 = t1 & 0xffffffffffffffe0\n 11033: u64 [s1 + 0x90] = a0\n 11037: a3 = a0 + 0x80\n 11041: u64 [s1 + 0xb8] = a3\n 11045: a0 = a3 <u a0\n 11048: a2 = a5 + a0\n 11051: u64 [s1 + 0xb0] = a2\n 11055: a1 = a2 <u a5\n 11058: a1 = a0 if a0 == 0\n 11061: u64 [s1 + 0x88] = a4\n 11065: a1 = a1 + a4\n 11068: u64 [s1 + 0xa8] = a1\n 11072: a0 = a1 <u a4\n 11075: t0 = t0 + a0\n 11078: u64 [s1 + 0xa0] = t0\n 11082: u64 [s1 + 0x160] = a3\n 11086: u64 [s1 + 0x168] = a2\n 11090: u64 [s1 + 0x170] = a1\n 11094: a0 = 0x40\n 11097: a1 = s1 + 0x160\n 11101: u64 [s1 + 0x178] = t0\n 11105: ra = 442, jump @9\n      : @395 [@dyn 221] (gas: 17)\n 11111: u64 [s1 + 280] = 0\n 11115: u64 [s1 + 272] = 0\n 11119: u64 [s1 + 264] = 0\n 11123: a4 = s1 + 0x100\n 11127: u64 [a4 + 0] = 0x80\n 11131: a0 = u64 [s1 + 0xa0]\n 11135: u64 [a4 + 0x38] = a0\n 11138: a0 = u64 [s1 + 0xa8]\n 11142: u64 [a4 + 0x30] = a0\n 11145: a0 = u64 [s1 + 0xb0]\n 11149: u64 [a4 + 0x28] = a0\n 11152: a0 = s1 + 0x140\n 11156: a1 = s1 + 0x120\n 11160: a2 = s1 + 0x100\n 11164: a3 = u64 [s1 + 0xb8]\n 11168: u64 [a4 + 0x20] = a3\n 11171: ra = 444, jump @439\n      : @396 [@dyn 222] (gas: 10)\n 11177: a0 = u64 [s1 + 0x88]\n 11181: a1 = u64 [s1 + 0x80]\n 11185: a0 = a0 | a1\n 11188: a1 = 0xffffff80\n 11198: a2 = u64 [s1 + 0x90]\n 11202: a1 = a2 <u a1\n 11205: a2 = u64 [s1 + 0x98]\n 11209: a1 = 0 if a2 != 0\n 11211: a1 = 0 if a0 != 0\n 11213: jump @398 if a1 == 0\n      : @397 (gas: 30)\n 11216: ra = u64 [s1 + 0x150]\n 11220: a1 = u64 [s1 + 0x158]\n 11224: t1 = u64 [s1 + 0x140]\n 11228: a3 = u64 [s1 + 0x148]\n 11232: a2 = u64 [s1 + 0xa8]\n 11236: a4 = ra <u a2\n 11239: a1 = a1 - a4\n 11242: a0 = u64 [s1 + 0xa0]\n 11246: t0 = a1 - a0\n 11249: a1 = u64 [s1 + 0xb0]\n 11253: a4 = a3 ^ a1\n 11256: a5 = a3 <u a1\n 11259: a0 = u64 [s1 + 0xb8]\n 11263: t2 = t1 <u a0\n 11266: a5 = t2 if a4 == 0\n 11269: a2 = ra - a2\n 11272: a4 = a2 <u a5\n 11275: a4 = t0 - a4\n 11278: a5 = a2 - a5\n 11281: a3 = a3 - t2\n 11284: a3 = a3 - a1\n 11287: a1 = t1 - a0\n 11290: a2 = a1 | a5\n 11293: a3 = a3 | a4\n 11296: a2 = a2 | a3\n 11299: a2 = a2 >> 0x20\n 11302: a3 = a3 | a5\n 11305: a3 = a3 << 0x20\n 11308: a2 = a2 | a3\n 11311: jump @426 if a2 == 0\n      : @398 (gas: 1)\n 11315: trap\n      : @399 (gas: 10)\n 11316: a2 = s1 + 0x7ff\n 11320: a2 = a2 + 0x39\n 11323: u64 [a2 + 992] = 0\n 11327: u64 [a2 + 984] = 0\n 11331: u64 [a2 + 976] = 0\n 11335: a1 = s1 + 0x7ff\n 11339: a1 = a1 + 0x401\n 11343: u64 [a2 + 968] = 0x1\n 11348: a0 = 0\n 11350: ra = 446, jump @9\n      : @400 [@dyn 223] (gas: 37)\n 11356: a0 = sp + 0xffffffffffffffe0\n 11359: a4 = a0 & 0xffffffffffffffe0\n 11362: sp = a4\n 11364: u64 [s1 + 184] = 0\n 11368: t2 = 0\n 11370: t1 = 0\n 11372: u64 [s1 + 176] = 0\n 11376: t0 = u64 [0x20030]\n 11381: a3 = u64 [0x20038]\n 11386: a1 = u64 [s1 + 0x30]\n 11389: a0 = a1 + 0x20\n 11392: u64 [s1 + 0x50] = a0\n 11395: a0 = a0 <u a1\n 11398: a1 = u64 [s1 + 0x20]\n 11401: a2 = a1 + a0\n 11404: u64 [s1 + 0x48] = a2\n 11407: a1 = a2 <u a1\n 11410: a1 = a0 if a0 == 0\n 11413: a5 = u64 [0x20040]\n 11418: a0 = u64 [0x20048]\n 11423: ra = t0\n 11425: u64 [a4 + 0x18] = t0\n 11428: u64 [s1 + 0x78] = a3\n 11431: u64 [a4 + 0x10] = a3\n 11434: t0 = a5\n 11436: u64 [a4 + 0x8] = a5\n 11439: u64 [s1 + 0x98] = a4\n 11443: a2 = a0\n 11445: u64 [a4] = a0\n 11447: a0 = u64 [s1 + 0x28]\n 11450: a1 = a1 + a0\n 11453: u64 [s1 + 0x40] = a1\n 11456: a0 = a1 <u a0\n 11459: a1 = u64 [s1 + 0x18]\n 11462: a0 = a0 + a1\n 11465: u64 [s1 + 0x38] = a0\n 11468: fallthrough\n      : @401 (gas: 21)\n 11469: u64 [s1 + 0x80] = a2\n 11473: u64 [s1 + 0x88] = t0\n 11477: u64 [s1 + 0x90] = ra\n 11481: a0 = u64 [s1 + 0x70]\n 11484: a1 = u64 [s1 + 0xb8]\n 11488: a0 = a1 <u a0\n 11491: a2 = u64 [s1 + 0x60]\n 11494: a1 = t2 ^ a2\n 11497: a2 = t2 <u a2\n 11500: a2 = a0 if a1 == 0\n 11503: a4 = u64 [s1 + 0x68]\n 11506: a0 = t1 <u a4\n 11509: a3 = u64 [s1 + 0x58]\n 11512: a1 = u64 [s1 + 0xb0]\n 11516: a5 = a1 ^ a3\n 11519: a3 = a1 <u a3\n 11522: a3 = a0 if a5 == 0\n 11525: a0 = t1 ^ a4\n 11528: a0 = a0 | a5\n 11531: a3 = a2 if a0 == 0\n 11534: jump @403 if a3 != 0\n      : @402 (gas: 1)\n 11537: jump @184\n      : @403 (gas: 6)\n 11540: a0 = s1 + 0x7ff\n 11544: a0 = a0 + 0x3e1\n 11548: a1 = u64 [s1 + 0x98]\n 11552: u64 [s1 + 0xa8] = t1\n 11556: u64 [s1 + 0xa0] = t2\n 11560: ra = 448, jump @11\n      : @404 [@dyn 224] (gas: 30)\n 11566: t2 = u64 [s1 + 0xb8]\n 11570: t1 = u64 [s1 + 0xa0]\n 11574: ra = u64 [s1 + 0xa8]\n 11578: a1 = u64 [s1 + 0x50]\n 11581: a0 = a1 + t2\n 11584: a1 = a0 <u a1\n 11587: a4 = u64 [s1 + 0x48]\n 11590: a2 = a4 + t1\n 11593: a2 = a2 + a1\n 11596: a5 = a2 ^ a4\n 11599: a4 = a2 <u a4\n 11602: a4 = a1 if a5 == 0\n 11605: a5 = u64 [s1 + 0x40]\n 11608: a1 = a5 + ra\n 11611: t0 = a1 <u a5\n 11614: a5 = u64 [s1 + 0xb0]\n 11618: a3 = u64 [s1 + 0x38]\n 11621: a5 = a5 + a3\n 11624: a5 = a5 + t0\n 11627: a4 = a4 + a1\n 11630: a1 = a4 <u a1\n 11633: a1 = a1 + a5\n 11636: a1 = a1 | a2\n 11639: a2 = a0 | a4\n 11642: a2 = a2 | a1\n 11645: a1 = a1 | a4\n 11648: a2 = a2 >> 0x20\n 11651: a1 = a1 << 0x20\n 11654: a1 = a1 | a2\n 11657: jump @398 if a1 != 0\n      : @405 (gas: 15)\n 11661: a5 = s1 + 0x7ff\n 11665: a5 = a5 + 0x39\n 11668: t0 = u64 [a5 + 0x3c0]\n 11672: a3 = a5 + 0x300\n 11676: a1 = u64 [a3 + 0xb8]\n 11680: a2 = u64 [a3 + 0xb0]\n 11684: a4 = u64 [a3 + 0xa8]\n 11688: u64 [a3 + 0x88] = a4\n 11692: u64 [a3 + 0x90] = a2\n 11696: u64 [a3 + 0x98] = a1\n 11700: a1 = s1 + 0x7ff\n 11704: a1 = a1 + 0x3c1\n 11708: u64 [a5 + 0x3a0] = t0\n 11712: u64 [s1 + 0xb8] = t2\n 11716: ra = 450, jump @9\n      : @406 [@dyn 225] (gas: 39)\n 11722: a3 = u64 [s1 + 0x80]\n 11726: a3 = a3 + 0x1\n 11729: a0 = a3 <u 0x1\n 11732: ra = u64 [s1 + 0x88]\n 11736: ra = ra + a0\n 11739: a0 = a3 | ra\n 11742: a0 = a0 <u 0x1\n 11745: a1 = u64 [s1 + 0x78]\n 11748: t2 = a1 + a0\n 11751: a1 = t2 <u a1\n 11754: a0 = u64 [s1 + 0x90]\n 11758: a0 = a0 + a1\n 11761: a1 = u64 [s1 + 0xb8]\n 11765: t1 = a1 + 0x20\n 11768: a2 = t1 <u a1\n 11771: a4 = u64 [s1 + 0xa0]\n 11775: a1 = a4 + a2\n 11778: a4 = a1 <u a4\n 11781: a4 = a2 if a2 == 0\n 11784: a2 = u64 [s1 + 0xa8]\n 11788: a4 = a4 + a2\n 11791: a2 = a4 <u a2\n 11794: a5 = u64 [s1 + 0xb0]\n 11798: a5 = a5 + a2\n 11801: u64 [s1 + 0xb0] = a5\n 11805: t0 = ra\n 11807: a5 = u64 [s1 + 0x98]\n 11811: u64 [a5 + 0x8] = ra\n 11814: a2 = a3\n 11816: u64 [a5] = a3\n 11818: a3 = t2\n 11820: u64 [a5 + 0x10] = a3\n 11823: ra = a0\n 11825: u64 [a5 + 0x18] = a0\n 11828: u64 [s1 + 0x78] = a3\n 11831: u64 [s1 + 0xb8] = t1\n 11835: t2 = a1\n 11837: t1 = a4\n 11839: jump @401\n      : @407 (gas: 7)\n 11842: a0 = s1 + 0x1000\n 11846: i32 a0 = a0 + 0x40\n 11849: a1 = 0x24\n 11852: ecalli 1 // 'call_data_load'\n 11854: t0 = 0x1c4\n 11858: a3 = s1 + 0x1038\n 11862: fallthrough\n      : @408 [@dyn 226] (gas: 23)\n 11863: a0 = u64 [a3 + 0x8]\n 11866: a1 = u64 [a3 + 0x10]\n 11869: a2 = u64 [a3 + 0x18]\n 11872: a3 = u64 [a3 + 0x20]\n 11875: a4 = s1 + 0x7ff\n 11879: a4 = a4 + 0x39\n 11882: u64 [a4 + 0x20] = a3\n 11885: u64 [a4 + 0x18] = a2\n 11888: u64 [a4 + 0x10] = a1\n 11891: u64 [a4 + 0x8] = a0\n 11894: a0 = u64 [s1 + 0x80]\n 11898: u64 [a4 + 0x40] = a0\n 11901: a0 = u64 [s1 + 0x88]\n 11905: u64 [a4 + 0x38] = a0\n 11908: a0 = u64 [s1 + 0x90]\n 11912: u64 [a4 + 0x30] = a0\n 11915: a0 = s1 + 0x7ff\n 11919: a0 = a0 + 0x61\n 11922: a1 = s1 + 0x7ff\n 11926: a1 = a1 + 0x41\n 11929: a2 = u64 [s1 + 0x98]\n 11933: u64 [a4 + 0x28] = a2\n 11936: ra = 454, jump @527\n      : @409 [@dyn 227] (gas: 3)\n 11942: a0 = 0\n 11944: a1 = 0\n 11946: ra = 456, jump @19\n      : @410 [@dyn 228] (gas: 5)\n 11952: i32 a1 = a0 + 0\n 11954: a0 = 0\n 11956: a2 = 0\n 11958: ecalli 8 // 'seal_return'\n 11960: jump @420\n      : @411 (gas: 11)\n 11963: a2 = s1 + 0x7ff\n 11967: a2 = a2 + 0x39\n 11970: u64 [a2 + 664] = 0\n 11974: u64 [a2 + 656] = 0\n 11978: u64 [a2 + 648] = 0\n 11982: a0 = 0x4e487b7100000000\n 11992: a1 = s1 + 0x7ff\n 11996: a1 = a1 + 0x2c1\n 12000: u64 [a2 + 0x2a0] = a0\n 12004: a0 = 0\n 12006: ra = 458, jump @9\n      : @412 [@dyn 229] (gas: 12)\n 12012: a1 = s1 + 0x7ff\n 12016: a1 = a1 + 0x39\n 12019: u64 [a1 + 640] = 0\n 12023: u64 [a1 + 632] = 0\n 12027: u64 [a1 + 616] = 0x22\n 12032: a2 = a1\n 12034: a0 = 0x4\n 12037: a1 = s1 + 0x7ff\n 12041: a1 = a1 + 0x2a1\n 12045: u64 [a2 + 624] = 0\n 12049: ra = 0x1d4\n 12053: jump @9\n      : @413 (gas: 1)\n 12056: jump @419 if a0 != 2069283506\n      : @414 (gas: 11)\n 12063: a0 = s1 + 0x1038\n 12067: u64 [a0 + 128] = 0\n 12071: u64 [a0 + 120] = 0\n 12074: u64 [a0 + 112] = 0\n 12077: u64 [a0 + 104] = 0\n 12080: a0 = s1 + 0x1000\n 12084: i32 a0 = a0 + 0xa0\n 12088: ecalli 11 // 'value_transferred'\n 12090: t0 = 0x1cc\n 12094: a3 = s1 + 0x1038\n 12098: fallthrough\n      : @415 [@dyn 230] (gas: 8)\n 12099: a0 = u64 [a3 + 0x78]\n 12102: a1 = u64 [a3 + 0x80]\n 12106: a2 = u64 [a3 + 0x70]\n 12109: a3 = u64 [a3 + 0x68]\n 12112: a1 = a1 | a2\n 12115: a0 = a0 | a3\n 12118: a0 = a0 | a1\n 12121: jump @417 if a0 != 0\n      : @416 (gas: 4)\n 12124: a0 = u64 [s1 + 0xb8]\n 12128: a0 = i32 [a0]\n 12130: a1 = 0x43\n 12133: jump @428 if a1 <u a0\n      : @417 (gas: 3)\n 12137: a0 = 0\n 12139: a1 = 0\n 12141: ra = 462, jump @19\n      : @418 [@dyn 231] (gas: 5)\n 12147: i32 a1 = a0 + 0\n 12149: a0 = 0x1\n 12152: a2 = 0\n 12154: ecalli 8 // 'seal_return'\n 12156: jump @420\n      : @419 (gas: 6)\n 12158: a1 = 0x20120\n 12163: i32 a1 = a1 + 0\n 12165: a0 = 0x1\n 12168: a2 = 0\n 12170: ecalli 8 // 'seal_return'\n 12172: fallthrough\n      : @420 (gas: 8)\n 12173: u64 [s1 + 240] = 0\n 12177: u64 [s1 + 232] = 0\n 12181: u64 [s1 + 224] = 0\n 12185: a0 = 0x4e487b7100000000\n 12195: a1 = s1 + 0xe0\n 12199: u64 [s1 + 0xf8] = a0\n 12203: a0 = 0\n 12205: ra = 464, jump @9\n      : @421 [@dyn 232] (gas: 8)\n 12211: u64 [s1 + 216] = 0\n 12215: u64 [s1 + 208] = 0\n 12219: u64 [s1 + 192] = 0x22\n 12224: a0 = 0x4\n 12227: a1 = s1 + 0xc0\n 12231: u64 [s1 + 200] = 0\n 12235: ra = 0x1d4\n 12239: jump @9\n      : @422 (gas: 12)\n 12242: a0 = s1 + 0x7ff\n 12246: a0 = a0 + 0x39\n 12249: u64 [a0 + 728] = 0\n 12253: u64 [a0 + 720] = 0\n 12257: u64 [a0 + 712] = 0\n 12261: a2 = a0\n 12263: a0 = 0x4e487b7100000000\n 12273: a1 = s1 + 0x7ff\n 12277: a1 = a1 + 0x301\n 12281: u64 [a2 + 0x2e0] = a0\n 12285: a0 = 0\n 12287: ra = 466, jump @9\n      : @423 [@dyn 233] (gas: 11)\n 12293: a1 = s1 + 0x7ff\n 12297: a1 = a1 + 0x39\n 12300: u64 [a1 + 704] = 0\n 12304: u64 [a1 + 696] = 0\n 12308: u64 [a1 + 680] = 0x41\n 12313: a2 = a1\n 12315: a0 = 0x4\n 12318: a1 = s1 + 0x7ff\n 12322: a1 = a1 + 0x2e1\n 12326: u64 [a2 + 688] = 0\n 12330: ra = 468, jump @9\n      : @424 [@dyn 234] (gas: 3)\n 12336: a1 = 0x24\n 12339: a0 = 0\n 12341: ra = 470, jump @19\n      : @425 [@dyn 235] (gas: 7)\n 12347: i32 a1 = a0 + 0\n 12349: a0 = 0x1\n 12352: a2 = 0x24\n 12355: ecalli 8 // 'seal_return'\n 12357: u64 [s1 + 0xb8] = a1\n 12361: ra = 0x1d8\n 12365: jump @19\n      : @426 (gas: 2)\n 12368: u64 [s1 + 0xb8] = a1\n 12372: ra = 472, jump @19\n      : @427 [@dyn 236] (gas: 5)\n 12378: i32 a1 = a0 + 0\n 12380: a2 = i32 [s1 + 0xb8]\n 12384: a0 = 0\n 12386: ecalli 8 // 'seal_return'\n 12388: jump @386\n      : @428 (gas: 5)\n 12391: a0 = s1 + 0x7ff\n 12395: a0 = a0 + 0x241\n 12399: ra = 0x1da\n 12403: t0 = 0x1f2\n 12407: jump @592\n      : @429 [@dyn 237] (gas: 18)\n 12410: a1 = s1 + 0x7ff\n 12414: a1 = a1 + 0x39\n 12417: a2 = a1 + 0x200\n 12421: a0 = u64 [a2 + 0x8]\n 12424: u64 [s1 + 0xb8] = a0\n 12428: a0 = u64 [a2 + 0x10]\n 12431: u64 [s1 + 0xb0] = a0\n 12435: a0 = u64 [a2 + 0x18]\n 12438: u64 [s1 + 0xa8] = a0\n 12442: a0 = u64 [a2 + 0x20]\n 12445: u64 [s1 + 0xa0] = a0\n 12449: a0 = s1 + 0x1000\n 12453: i32 a0 = a0 + 0xc0\n 12457: a1 = 0x24\n 12460: ecalli 1 // 'call_data_load'\n 12462: t0 = 0x1dc\n 12466: a3 = s1 + 0x1038\n 12470: fallthrough\n      : @430 [@dyn 238] (gas: 25)\n 12471: a0 = u64 [a3 + 0x88]\n 12475: a1 = u64 [a3 + 0x90]\n 12479: a2 = u64 [a3 + 0x98]\n 12483: a3 = u64 [a3 + 0xa0]\n 12487: a4 = s1 + 0x7ff\n 12491: a4 = a4 + 0x39\n 12494: a5 = a4 + 0x100\n 12498: u64 [a5 + 0xe0] = a3\n 12502: u64 [a5 + 0xd8] = a2\n 12506: u64 [a5 + 0xd0] = a1\n 12510: u64 [a5 + 0xc8] = a0\n 12514: a0 = u64 [s1 + 0xa0]\n 12518: u64 [a4 + 0x200] = a0\n 12522: a0 = u64 [s1 + 0xa8]\n 12526: u64 [a5 + 0xf8] = a0\n 12530: a0 = u64 [s1 + 0xb0]\n 12534: u64 [a5 + 0xf0] = a0\n 12538: a0 = s1 + 0x7ff\n 12542: a0 = a0 + 0x221\n 12546: a1 = s1 + 0x7ff\n 12550: a1 = a1 + 0x201\n 12554: a2 = u64 [s1 + 0xb8]\n 12558: u64 [a5 + 0xe8] = a2\n 12562: ra = 0x1c6\n 12566: jump @527\n      : @431 (gas: 33)\n 12569: sp = sp + 0xffffffffffffffa0\n 12572: u64 [sp + 0x58] = ra\n 12575: u64 [sp + 0x50] = s0\n 12578: u64 [sp + 0x48] = s1\n 12581: s0 = sp + 0x60\n 12584: sp = sp & 0xfffffffffffffff0\n 12587: a2 = u64 [a1 + 0x10]\n 12590: a5 = u64 [a1 + 0x8]\n 12593: a4 = u64 [a1]\n 12595: a1 = u64 [a1 + 0x18]\n 12598: t0 = a2 << 0x3f\n 12601: a3 = a5 >> 0x1\n 12604: t0 = a3 | t0\n 12607: a3 = a1 << 0x3f\n 12610: a2 = a2 >> 0x1\n 12613: a3 = a3 | a2\n 12616: a5 = a5 << 0x3f\n 12619: a2 = a4 >> 0x1\n 12622: a5 = a5 | a2\n 12625: t1 = a1 >> 0x1\n 12628: a4 = a4 & 0x1\n 12631: a1 = -a4\n 12633: s1 = a4 <u 0x1\n 12636: a2 = a5 & 0x7f\n 12639: t2 = a1 & a3\n 12642: a3 = a1 & t0\n 12645: a2 = a5 if a4 != 0\n 12648: a4 = a1 & t1\n 12651: a1 = a2 <u 0x20\n 12654: a1 = 0 if a3 != 0\n 12656: a5 = t2 | a4\n 12659: a1 = 0 if a5 != 0\n 12661: jump @434 if s1 != a1\n      : @432 (gas: 5)\n 12664: u64 [a0] = a2\n 12666: u64 [a0 + 0x8] = a3\n 12669: u64 [a0 + 0x10] = t2\n 12672: u64 [a0 + 0x18] = a4\n 12675: t0 = 478, jump @593\n      : @433 [@dyn 239] (gas: 1)\n 12681: ret\n      : @434 (gas: 8)\n 12683: u64 [sp + 48] = 0\n 12686: u64 [sp + 40] = 0\n 12689: u64 [sp + 32] = 0\n 12692: a0 = 0x4e487b7100000000\n 12702: a1 = sp + 0x20\n 12705: u64 [sp + 0x38] = a0\n 12708: a0 = 0\n 12710: ra = 480, jump @9\n      : @435 [@dyn 240] (gas: 7)\n 12716: u64 [sp + 24] = 0\n 12719: u64 [sp + 16] = 0\n 12722: u64 [sp + 0] = 0x22\n 12725: a0 = 0x4\n 12728: a1 = sp\n 12730: u64 [sp + 8] = 0\n 12733: ra = 482, jump @9\n      : @436 [@dyn 241] (gas: 2)\n 12739: a1 = i32 [0x20118]\n 12744: jump @438 if a1 >u 63\n      : @437 (gas: 2)\n 12748: u32 [0x20118] = 0x40\n 12754: fallthrough\n      : @438 (gas: 7)\n 12755: a1 = 0x20120\n 12760: i32 a1 = a1 + 0\n 12762: a0 = 0x1\n 12765: a2 = 0x24\n 12768: ra = 0x1e4\n 12772: ecalli 8 // 'seal_return'\n 12774: fallthrough\n      : @439 [@dyn 242] (gas: 22)\n 12775: sp = sp + 0xfffffffffffffe80\n 12779: u64 [sp + 0x178] = ra\n 12783: u64 [sp + 0x170] = s0\n 12787: u64 [sp + 0x168] = s1\n 12791: s0 = sp + 0x180\n 12795: sp = sp & 0xfffffffffffffff0\n 12798: a4 = u64 [a1 + 0x10]\n 12801: a3 = u64 [a1 + 0x18]\n 12804: a5 = u64 [a1 + 0x8]\n 12807: t0 = u64 [a1]\n 12809: u64 [sp + 0x10] = a3\n 12812: u64 [sp + 0x40] = a5\n 12815: a1 = a5 | a3\n 12818: a3 = t0 | a4\n 12821: a3 = a3 | a1\n 12824: a3 = a3 >> 0x20\n 12827: u64 [sp + 0x18] = a4\n 12830: a1 = a1 | a4\n 12833: a1 = a1 << 0x20\n 12836: a1 = a1 | a3\n 12839: u64 [sp] = a0\n 12841: jump @455 if a1 != 0\n      : @440 (gas: 15)\n 12845: a0 = u64 [a2 + 0x18]\n 12848: u64 [sp + 0x70] = a0\n 12851: s1 = u64 [a2 + 0x10]\n 12854: a0 = u64 [a2 + 0x8]\n 12857: u64 [sp + 0x68] = a0\n 12860: a0 = u64 [a2]\n 12862: u64 [sp + 0x78] = a0\n 12865: u64 [sp + 344] = 0\n 12869: u64 [sp + 336] = 0\n 12873: u64 [sp + 328] = 0\n 12877: a1 = sp + 0x140\n 12881: u64 [sp + 320] = 0x20\n 12886: u64 [sp + 0x8] = t0\n 12889: a0 = t0\n 12891: ra = 486, jump @9\n      : @441 [@dyn 243] (gas: 12)\n 12897: a0 = u64 [sp + 0x78]\n 12900: a0 = a0 | s1\n 12903: a1 = u64 [sp + 0x70]\n 12906: a2 = u64 [sp + 0x68]\n 12909: a1 = a1 | a2\n 12912: a0 = a0 | a1\n 12915: a0 = a0 >> 0x20\n 12918: u64 [sp + 0x20] = s1\n 12921: a1 = a1 | s1\n 12924: a1 = a1 << 0x20\n 12927: a0 = a0 | a1\n 12930: jump @455 if a0 != 0\n      : @442 (gas: 3)\n 12934: a0 = sp + 0x120\n 12938: a1 = u64 [sp + 0x78]\n 12941: ra = 488, jump @7\n      : @443 [@dyn 244] (gas: 10)\n 12947: a0 = u64 [sp + 0x10]\n 12950: a1 = u64 [sp + 0x18]\n 12953: a0 = a0 | a1\n 12956: a1 = 0xffffffe0\n 12966: a4 = u64 [sp + 0x8]\n 12969: a1 = a4 <u a1\n 12972: a2 = u64 [sp + 0x40]\n 12975: a1 = 0 if a2 != 0\n 12977: a1 = 0 if a0 != 0\n 12979: jump @455 if a1 == 0\n      : @444 (gas: 14)\n 12983: a2 = u64 [sp + 0x138]\n 12987: a1 = u64 [sp + 0x130]\n 12991: a3 = u64 [sp + 0x128]\n 12995: s1 = u64 [sp + 0x120]\n 12999: i32 a0 = a4 + 0x20\n 13002: u64 [sp + 0x100] = s1\n 13006: u64 [sp + 0x50] = a3\n 13009: u64 [sp + 0x108] = a3\n 13013: u64 [sp + 0x58] = a1\n 13016: u64 [sp + 0x110] = a1\n 13020: a1 = sp + 0x100\n 13024: u64 [sp + 0x60] = a2\n 13027: u64 [sp + 0x118] = a2\n 13031: ra = 490, jump @9\n      : @445 [@dyn 245] (gas: 39)\n 13037: u64 [sp + 136] = 0\n 13041: u64 [sp + 128] = 0\n 13045: u64 [sp + 144] = 0\n 13049: u64 [sp + 152] = 0\n 13053: a1 = u64 [sp + 0x78]\n 13056: a0 = a1 + 0x20\n 13059: u64 [sp + 0x38] = a0\n 13062: a0 = a0 <u a1\n 13065: a2 = u64 [sp + 0x68]\n 13068: a1 = a2 + a0\n 13071: u64 [sp + 0x30] = a1\n 13074: a1 = a1 <u a2\n 13077: a1 = a0 if a0 == 0\n 13080: a0 = u64 [sp + 0x20]\n 13083: a1 = a1 + a0\n 13086: u64 [sp + 0x28] = a1\n 13089: a0 = a1 <u a0\n 13092: a1 = u64 [sp + 0x70]\n 13095: a0 = a0 + a1\n 13098: u64 [sp + 0x20] = a0\n 13101: a0 = u64 [sp + 0x8]\n 13104: t0 = a0 + 0x40\n 13107: a0 = t0 <u a0\n 13110: a1 = u64 [sp + 0x40]\n 13113: a2 = a1 + a0\n 13116: t1 = a2\n 13118: a1 = a2 <u a1\n 13121: a1 = a0 if a0 == 0\n 13124: a0 = u64 [sp + 0x18]\n 13127: a1 = a1 + a0\n 13130: u64 [sp + 0x40] = a1\n 13133: a0 = a1 <u a0\n 13136: t2 = u64 [sp + 0x10]\n 13139: t2 = t2 + a0\n 13142: u64 [sp + 0x48] = s1\n 13145: u64 [sp + 0x78] = t2\n 13148: u64 [sp + 0x68] = a2\n 13151: u64 [sp + 0x70] = t0\n 13154: fallthrough\n      : @446 (gas: 19)\n 13155: a0 = u64 [sp + 0x88]\n 13159: a0 = a0 <u s1\n 13162: s1 = u64 [sp + 0x50]\n 13165: a2 = u64 [sp + 0x80]\n 13169: a1 = a2 ^ s1\n 13172: a2 = a2 <u s1\n 13175: a2 = a0 if a1 == 0\n 13178: a4 = u64 [sp + 0x58]\n 13181: a0 = u64 [sp + 0x90]\n 13185: ra = a0 <u a4\n 13188: a5 = u64 [sp + 0x60]\n 13191: a3 = u64 [sp + 0x98]\n 13195: a1 = a3 ^ a5\n 13198: a3 = a3 <u a5\n 13201: a3 = ra if a1 == 0\n 13204: a0 = a0 ^ a4\n 13207: a0 = a0 | a1\n 13210: a3 = a2 if a0 == 0\n 13213: jump @452 if a3 == 0\n      : @447 (gas: 30)\n 13217: a0 = u64 [sp + 0x38]\n 13220: a1 = u64 [sp + 0x88]\n 13224: a1 = a1 + a0\n 13227: a0 = a1 <u a0\n 13230: a4 = u64 [sp + 0x30]\n 13233: a2 = u64 [sp + 0x80]\n 13237: a2 = a2 + a4\n 13240: a2 = a2 + a0\n 13243: a3 = a2 ^ a4\n 13246: a4 = a2 <u a4\n 13249: a4 = a0 if a3 == 0\n 13252: a0 = u64 [sp + 0x90]\n 13256: a3 = u64 [sp + 0x28]\n 13259: a0 = a0 + a3\n 13262: a3 = a0 <u a3\n 13265: a5 = u64 [sp + 0x98]\n 13269: s1 = u64 [sp + 0x20]\n 13272: a5 = a5 + s1\n 13275: a3 = a3 + a5\n 13278: a4 = a4 + a0\n 13281: a0 = a4 <u a0\n 13284: a0 = a0 + a3\n 13287: a0 = a0 | a2\n 13290: a2 = a1 | a4\n 13293: a2 = a2 | a0\n 13296: a0 = a0 | a4\n 13299: a2 = a2 >> 0x20\n 13302: a0 = a0 << 0x20\n 13305: a0 = a0 | a2\n 13308: jump @455 if a0 != 0\n      : @448 (gas: 2)\n 13312: a0 = sp + 0xc0\n 13316: ra = 492, jump @7\n      : @449 [@dyn 246] (gas: 31)\n 13322: a1 = u64 [sp + 0x70]\n 13325: a0 = u64 [sp + 0x88]\n 13329: a0 = a0 + a1\n 13332: a1 = a0 <u a1\n 13335: a4 = u64 [sp + 0x68]\n 13338: a2 = u64 [sp + 0x80]\n 13342: a2 = a2 + a4\n 13345: a2 = a2 + a1\n 13348: a3 = a2 ^ a4\n 13351: a4 = a2 <u a4\n 13354: a4 = a1 if a3 == 0\n 13357: a3 = u64 [sp + 0x40]\n 13360: a1 = u64 [sp + 0x90]\n 13364: a1 = a1 + a3\n 13367: a3 = a1 <u a3\n 13370: a5 = u64 [sp + 0x78]\n 13373: s1 = u64 [sp + 0x98]\n 13377: a5 = a5 + s1\n 13380: a3 = a3 + a5\n 13383: a4 = a4 + a1\n 13386: a1 = a4 <u a1\n 13389: a1 = a1 + a3\n 13392: a1 = a1 | a2\n 13395: a2 = a0 | a4\n 13398: a2 = a2 | a1\n 13401: a1 = a1 | a4\n 13404: a2 = a2 >> 0x20\n 13407: a1 = a1 << 0x20\n 13410: a1 = a1 | a2\n 13413: s1 = u64 [sp + 0x48]\n 13416: jump @455 if a1 != 0\n      : @450 (gas: 10)\n 13420: a2 = u64 [sp + 0xd8]\n 13424: a1 = u64 [sp + 0xd0]\n 13428: a3 = u64 [sp + 0xc8]\n 13432: a4 = u64 [sp + 0xc0]\n 13436: u64 [sp + 0xa0] = a4\n 13440: u64 [sp + 0xa8] = a3\n 13444: u64 [sp + 0xb0] = a1\n 13448: a1 = sp + 0xa0\n 13452: u64 [sp + 0xb8] = a2\n 13456: ra = 494, jump @9\n      : @451 [@dyn 247] (gas: 20)\n 13462: a1 = u64 [sp + 0x88]\n 13466: a0 = a1 + 0x20\n 13469: a1 = a0 <u a1\n 13472: a3 = u64 [sp + 0x80]\n 13476: a2 = a3 + a1\n 13479: a3 = a2 <u a3\n 13482: a3 = a1 if a1 == 0\n 13485: a1 = u64 [sp + 0x90]\n 13489: a3 = a3 + a1\n 13492: a1 = a3 <u a1\n 13495: a4 = u64 [sp + 0x98]\n 13499: a4 = a4 + a1\n 13502: u64 [sp + 0x98] = a4\n 13506: u64 [sp + 0x88] = a0\n 13510: u64 [sp + 0x80] = a2\n 13514: u64 [sp + 0x90] = a3\n 13518: t2 = u64 [sp + 0x78]\n 13521: t1 = u64 [sp + 0x68]\n 13524: t0 = u64 [sp + 0x70]\n 13527: jump @446\n      : @452 (gas: 24)\n 13530: a0 = u64 [sp + 0x48]\n 13533: a0 = a0 + t0\n 13536: a1 = a0 <u t0\n 13539: a2 = t1 + s1\n 13542: a2 = a2 + a1\n 13545: t0 = a2 ^ t1\n 13548: a3 = a2 <u t1\n 13551: a3 = a1 if t0 == 0\n 13554: t0 = u64 [sp + 0x40]\n 13557: a1 = t0 + a4\n 13560: t0 = a1 <u t0\n 13563: a5 = a5 + t2\n 13566: a5 = a5 + t0\n 13569: a3 = a3 + a1\n 13572: a1 = a3 <u a1\n 13575: a1 = a1 + a5\n 13578: a1 = a1 | a2\n 13581: a2 = a0 | a3\n 13584: a2 = a2 | a1\n 13587: a1 = a1 | a3\n 13590: a2 = a2 >> 0x20\n 13593: a1 = a1 << 0x20\n 13596: a1 = a1 | a2\n 13599: jump @455 if a1 != 0\n      : @453 (gas: 7)\n 13603: s1 = t1\n 13605: u64 [sp + 248] = 0\n 13609: u64 [sp + 240] = 0\n 13613: u64 [sp + 232] = 0\n 13617: a1 = sp + 0xe0\n 13621: u64 [sp + 224] = 0\n 13625: ra = 496, jump @9\n      : @454 [@dyn 248] (gas: 41)\n 13631: a1 = u64 [sp + 0x48]\n 13634: a0 = a1 + 0x1f\n 13637: a1 = a0 <u a1\n 13640: a3 = u64 [sp + 0x50]\n 13643: a2 = a3 + a1\n 13646: a3 = a2 <u a3\n 13649: a3 = a1 if a1 == 0\n 13652: a1 = u64 [sp + 0x58]\n 13655: a3 = a3 + a1\n 13658: a1 = a3 <u a1\n 13661: a4 = u64 [sp + 0x60]\n 13664: a1 = a1 + a4\n 13667: a0 = a0 & 0xffffffffffffffe0\n 13670: a4 = u64 [sp + 0x70]\n 13673: a0 = a0 + a4\n 13676: a4 = a0 <u a4\n 13679: a2 = a2 + s1\n 13682: a2 = a2 + a4\n 13685: a5 = a2 ^ s1\n 13688: s1 = a2 <u s1\n 13691: s1 = a4 if a5 == 0\n 13694: a5 = u64 [sp + 0x40]\n 13697: a3 = a3 + a5\n 13700: s1 = s1 + a3\n 13703: a4 = s1 <u a3\n 13706: a3 = a3 <u a5\n 13709: a5 = u64 [sp + 0x78]\n 13712: a1 = a1 + a5\n 13715: a1 = a1 + a3\n 13718: a1 = a1 + a4\n 13721: a3 = u64 [sp]\n 13723: u64 [a3] = a0\n 13725: u64 [a3 + 0x8] = a2\n 13728: u64 [a3 + 0x10] = s1\n 13731: u64 [a3 + 0x18] = a1\n 13734: sp = s0 + 0xfffffffffffffe80\n 13738: ra = u64 [sp + 0x178]\n 13742: s0 = u64 [sp + 0x170]\n 13746: s1 = u64 [sp + 0x168]\n 13750: sp = sp + 0x180\n 13754: ret\n      : @455 (gas: 1)\n 13756: trap\n      : @456 [@dyn 249] (gas: 5)\n 13757: a1 = 0x4\n 13760: ra = 0x1f4\n 13764: ecalli 1 // 'call_data_load'\n 13766: t0 = 0x1f6\n 13770: jump @580\n      : @457 [@dyn 250] (gas: 1)\n 13773: t0 = 502, jump @580\n      : @458 [@dyn 251] (gas: 1)\n 13779: jump @461 if a3 == 0\n      : @459 (gas: 1)\n 13782: t0 = 504, jump @586\n      : @460 [@dyn 252] (gas: 1)\n 13788: ret\n      : @461 (gas: 8)\n 13790: a1 = 0x20120\n 13795: i32 a1 = a1 + 0\n 13797: a0 = 0x1\n 13800: a2 = 0\n 13802: ra = 0x1fa\n 13806: ecalli 8 // 'seal_return'\n 13808: t0 = 0x1fc\n 13812: jump @592\n      : @462 [@dyn 253] (gas: 1)\n 13815: t0 = 508, jump @592\n      : @463 [@dyn 254] (gas: 5)\n 13821: a1 = 0x24\n 13824: ra = 0x1fe\n 13828: ecalli 1 // 'call_data_load'\n 13830: t0 = 0x200\n 13834: jump @580\n      : @464 [@dyn 255] (gas: 1)\n 13837: t0 = 512, jump @580\n      : @465 [@dyn 256] (gas: 1)\n 13843: jump @468 if a3 == 0\n      : @466 (gas: 1)\n 13846: t0 = 514, jump @586\n      : @467 [@dyn 257] (gas: 1)\n 13852: ret\n      : @468 (gas: 7)\n 13854: a1 = 0x20120\n 13859: i32 a1 = a1 + 0\n 13861: a0 = 0x1\n 13864: a2 = 0\n 13866: ra = 0x204\n 13870: ecalli 8 // 'seal_return'\n 13872: fallthrough\n      : @469 [@dyn 258] (gas: 17)\n 13873: sp = sp + 0xfffffffffffffc00\n 13877: a3 = sp + 0x300\n 13881: u64 [a3 + 0xf8] = ra\n 13885: u64 [a3 + 0xf0] = s0\n 13889: u64 [a3 + 0xe8] = s1\n 13893: s0 = sp + 0x400\n 13897: sp = sp & 0xffffffffffffffe0\n 13900: s1 = sp\n 13902: a4 = u32 [a1 + 0x10]\n 13905: a3 = u64 [a1]\n 13907: a5 = u64 [a1 + 0x8]\n 13910: u64 [s1 + 0x78] = a3\n 13913: u64 [s1 + 0x70] = a4\n 13916: a1 = a3 | a4\n 13919: u64 [s1 + 0x68] = a5\n 13922: a1 = a1 | a5\n 13925: jump @498 if a1 == 0\n      : @470 (gas: 25)\n 13929: a1 = u64 [a2 + 0x18]\n 13932: u64 [s1 + 0x98] = a1\n 13936: a1 = u64 [a2 + 0x10]\n 13939: u64 [s1 + 0x90] = a1\n 13943: a1 = u64 [a2 + 0x8]\n 13946: u64 [s1 + 0x88] = a1\n 13950: a1 = u64 [a2]\n 13952: u64 [s1 + 0x80] = a1\n 13956: a1 = u64 [a0 + 0x10]\n 13959: a2 = u64 [a0 + 0x8]\n 13962: a0 = u64 [a0]\n 13964: a4 = 0xffffffff\n 13974: a4 = a4 & a1\n 13977: a2 = a2 & 0xffffffffffffffff\n 13980: a0 = a0 & 0xffffffffffffffff\n 13983: u64 [s1 + 856] = 0\n 13987: u64 [s1 + 0x60] = a0\n 13990: u64 [s1 + 0x340] = a0\n 13994: u64 [s1 + 0x58] = a2\n 13997: u64 [s1 + 0x348] = a2\n 14001: a1 = s1 + 0x340\n 14005: u64 [s1 + 0x50] = a4\n 14008: u64 [s1 + 0x350] = a4\n 14012: a0 = 0\n 14014: ra = 518, jump @9\n      : @471 [@dyn 259] (gas: 7)\n 14020: u64 [s1 + 824] = 0\n 14024: u64 [s1 + 816] = 0\n 14028: u64 [s1 + 800] = 0x3\n 14033: a0 = 0x20\n 14036: a1 = s1 + 0x320\n 14040: u64 [s1 + 808] = 0\n 14044: ra = 520, jump @9\n      : @472 [@dyn 260] (gas: 2)\n 14050: a1 = i32 [0x20118]\n 14055: jump @474 if a1 >u 63\n      : @473 (gas: 2)\n 14059: u32 [0x20118] = 0x40\n 14065: fallthrough\n      : @474 (gas: 11)\n 14066: a0 = sp + 0xffffffffffffffe0\n 14069: a2 = a0 & 0xffffffffffffffe0\n 14072: u64 [s1 + 0x48] = a2\n 14075: sp = a2\n 14077: a0 = 0x20120\n 14082: i32 a0 = a0 + 0\n 14084: i32 a2 = a2 + 0\n 14086: a1 = 0x40\n 14089: ra = 0x20a\n 14093: ecalli 7 // 'hash_keccak_256'\n 14095: fallthrough\n      : @475 [@dyn 261] (gas: 6)\n 14096: a3 = u64 [s1 + 0x48]\n 14099: a0 = u64 [a3 + 0x18]\n 14102: a1 = u64 [a3 + 0x10]\n 14105: a2 = u64 [a3 + 0x8]\n 14108: a3 = u64 [a3]\n 14110: t0 = 524, jump @588\n      : @476 [@dyn 262] (gas: 7)\n 14116: u64 [s1 + 0x378] = a3\n 14120: u64 [s1 + 0x370] = a2\n 14124: u64 [s1 + 0x368] = a1\n 14128: u64 [s1 + 0x360] = a0\n 14132: a0 = s1 + 0x300\n 14136: a1 = s1 + 0x360\n 14140: ra = 526, jump @11\n      : @477 [@dyn 263] (gas: 28)\n 14146: a1 = s1 + 0x300\n 14150: a3 = u64 [a1 + 0x18]\n 14153: a0 = u64 [a1 + 0x10]\n 14156: a2 = u64 [a1 + 0x8]\n 14159: t2 = u64 [s1 + 0x300]\n 14163: a1 = u64 [s1 + 0x98]\n 14167: t1 = a3 ^ a1\n 14170: u64 [s1 + 0x38] = a3\n 14173: a1 = a3 <u a1\n 14176: a3 = u64 [s1 + 0x90]\n 14180: a4 = a0 <u a3\n 14183: u64 [s1 + 0x28] = a4\n 14186: a1 = a4 if t1 == 0\n 14189: a4 = u64 [s1 + 0x88]\n 14193: t0 = a2 ^ a4\n 14196: u64 [s1 + 0x40] = a2\n 14199: a5 = a2 <u a4\n 14202: a4 = u64 [s1 + 0x80]\n 14206: u64 [s1 + 0x48] = t2\n 14209: a2 = t2 <u a4\n 14212: u64 [s1 + 0x20] = a2\n 14215: a5 = a2 if t0 == 0\n 14218: u64 [s1 + 0x30] = a0\n 14221: a2 = a0 ^ a3\n 14224: a0 = a2 | t1\n 14227: u64 [s1 + 0x18] = a5\n 14230: a1 = a5 if a0 == 0\n 14233: jump @511 if a1 != 0\n      : @478 (gas: 10)\n 14237: u64 [s1 + 760] = 0\n 14241: a0 = u64 [s1 + 0x60]\n 14244: u64 [s1 + 0x2e0] = a0\n 14248: a0 = u64 [s1 + 0x58]\n 14251: u64 [s1 + 0x2e8] = a0\n 14255: a1 = s1 + 0x2e0\n 14259: a0 = u64 [s1 + 0x50]\n 14262: u64 [s1 + 0x2f0] = a0\n 14266: a0 = 0\n 14268: ra = 528, jump @9\n      : @479 [@dyn 264] (gas: 7)\n 14274: u64 [s1 + 728] = 0\n 14278: u64 [s1 + 720] = 0\n 14282: u64 [s1 + 704] = 0x3\n 14287: a0 = 0x20\n 14290: a1 = s1 + 0x2c0\n 14294: u64 [s1 + 712] = 0\n 14298: ra = 530, jump @9\n      : @480 [@dyn 265] (gas: 27)\n 14304: a0 = u64 [s1 + 0x90]\n 14308: a1 = u64 [s1 + 0x30]\n 14311: a0 = a1 - a0\n 14314: a2 = u64 [s1 + 0x18]\n 14317: a1 = a0 - a2\n 14320: u64 [s1 + 0x30] = a1\n 14323: a0 = a0 <u a2\n 14326: a1 = u64 [s1 + 0x98]\n 14330: a2 = u64 [s1 + 0x38]\n 14333: a1 = a2 - a1\n 14336: a2 = u64 [s1 + 0x28]\n 14339: a1 = a1 - a2\n 14342: a1 = a1 - a0\n 14345: u64 [s1 + 0x38] = a1\n 14348: a0 = u64 [s1 + 0x88]\n 14352: a1 = u64 [s1 + 0x40]\n 14355: a0 = a1 - a0\n 14358: a1 = u64 [s1 + 0x20]\n 14361: a0 = a0 - a1\n 14364: u64 [s1 + 0x40] = a0\n 14367: a0 = u64 [s1 + 0x80]\n 14371: a1 = u64 [s1 + 0x48]\n 14374: a1 = a1 - a0\n 14377: u64 [s1 + 0x48] = a1\n 14380: a1 = 0x40\n 14383: a0 = 0\n 14385: ra = 532, jump @19\n      : @481 [@dyn 266] (gas: 4)\n 14391: a1 = sp + 0xffffffffffffffe0\n 14394: a1 = a1 & 0xffffffffffffffe0\n 14397: u64 [s1 + 0x28] = a1\n 14400: t0 = 534, jump @570\n      : @482 [@dyn 267] (gas: 3)\n 14406: ra = 0x218\n 14410: ecalli 7 // 'hash_keccak_256'\n 14412: fallthrough\n      : @483 [@dyn 268] (gas: 6)\n 14413: a3 = u64 [s1 + 0x28]\n 14416: a0 = u64 [a3 + 0x18]\n 14419: a1 = u64 [a3 + 0x10]\n 14422: a2 = u64 [a3 + 0x8]\n 14425: a3 = u64 [a3]\n 14427: t0 = 538, jump @588\n      : @484 [@dyn 269] (gas: 15)\n 14433: u64 [s1 + 0x398] = a3\n 14437: u64 [s1 + 0x390] = a2\n 14441: u64 [s1 + 0x388] = a1\n 14445: u64 [s1 + 0x380] = a0\n 14449: a0 = u64 [s1 + 0x38]\n 14452: u64 [s1 + 0x3b8] = a0\n 14456: a0 = u64 [s1 + 0x30]\n 14459: u64 [s1 + 0x3b0] = a0\n 14463: a0 = u64 [s1 + 0x40]\n 14466: u64 [s1 + 0x3a8] = a0\n 14470: a0 = u64 [s1 + 0x48]\n 14473: u64 [s1 + 0x3a0] = a0\n 14477: a0 = s1 + 0x380\n 14481: a1 = s1 + 0x3a0\n 14485: ra = 540, jump @15\n      : @485 [@dyn 270] (gas: 10)\n 14491: u64 [s1 + 696] = 0\n 14495: a0 = u64 [s1 + 0x70]\n 14498: u64 [s1 + 0x2b0] = a0\n 14502: a0 = u64 [s1 + 0x68]\n 14505: u64 [s1 + 0x2a8] = a0\n 14509: a1 = s1 + 0x2a0\n 14513: a0 = u64 [s1 + 0x78]\n 14516: u64 [s1 + 0x2a0] = a0\n 14520: a0 = 0\n 14522: ra = 542, jump @9\n      : @486 [@dyn 271] (gas: 7)\n 14528: a0 = sp + 0xffffffffffffffe0\n 14531: a0 = a0 & 0xffffffffffffffe0\n 14534: u64 [s1 + 0x48] = a0\n 14537: sp = a0\n 14539: a1 = 0x40\n 14542: a0 = 0\n 14544: ra = 544, jump @19\n      : @487 [@dyn 272] (gas: 4)\n 14550: a1 = sp + 0xffffffffffffffe0\n 14553: a1 = a1 & 0xffffffffffffffe0\n 14556: u64 [s1 + 0x40] = a1\n 14559: t0 = 546, jump @570\n      : @488 [@dyn 273] (gas: 5)\n 14565: ra = 0x224\n 14569: ecalli 7 // 'hash_keccak_256'\n 14571: a3 = u64 [s1 + 0x40]\n 14574: t0 = 0x226\n 14578: jump @573\n      : @489 [@dyn 274] (gas: 2)\n 14581: a3 = u64 [s1 + 0x40]\n 14584: t0 = 550, jump @573\n      : @490 [@dyn 275] (gas: 7)\n 14590: a1 = u64 [s1 + 0x48]\n 14593: u64 [a1 + 0x18] = a3\n 14596: u64 [a1 + 0x10] = a2\n 14599: u64 [a1 + 0x8] = a4\n 14602: u64 [a1] = a0\n 14604: a0 = s1 + 0x280\n 14608: ra = 552, jump @11\n      : @491 [@dyn 276] (gas: 30)\n 14614: a0 = u64 [s1 + 0x288]\n 14618: a1 = u64 [s1 + 0x280]\n 14622: t0 = u64 [s1 + 0x298]\n 14626: a3 = u64 [s1 + 0x290]\n 14630: a4 = u64 [s1 + 0x88]\n 14634: a4 = a4 + a0\n 14637: a5 = u64 [s1 + 0x80]\n 14641: a5 = a5 + a1\n 14644: a1 = a5 <u a1\n 14647: a4 = a4 + a1\n 14650: a2 = a4 ^ a0\n 14653: a0 = a4 <u a0\n 14656: a0 = a1 if a2 == 0\n 14659: a1 = u64 [s1 + 0x90]\n 14663: a1 = a1 + a3\n 14666: a2 = u64 [s1 + 0x98]\n 14670: t0 = t0 + a2\n 14673: a2 = a1 <u a3\n 14676: a2 = a2 + t0\n 14679: a0 = a0 + a1\n 14682: a1 = a0 <u a1\n 14685: a1 = a1 + a2\n 14688: a2 = s1 + 0x300\n 14692: u64 [a2 + 0xc0] = a5\n 14696: u64 [a2 + 0xc8] = a4\n 14700: u64 [a2 + 0xd0] = a0\n 14704: u64 [a2 + 0xd8] = a1\n 14708: a1 = s1 + 0x3c0\n 14712: a0 = u64 [s1 + 0x48]\n 14715: ra = 554, jump @15\n      : @492 [@dyn 277] (gas: 3)\n 14721: a0 = s1 + 0x260\n 14725: a1 = 0x40\n 14728: ra = 556, jump @7\n      : @493 [@dyn 278] (gas: 6)\n 14734: a4 = s1 + 0x200\n 14738: a0 = u64 [a4 + 0x78]\n 14741: a1 = u64 [a4 + 0x70]\n 14744: a2 = u64 [a4 + 0x68]\n 14747: a3 = u64 [a4 + 0x60]\n 14750: t0 = 558, jump @587\n      : @494 [@dyn 279] (gas: 1)\n 14756: jump @523 if a0 != 0\n      : @495 (gas: 12)\n 14760: a0 = u64 [s1 + 0x80]\n 14764: u64 [s1 + 0x240] = a0\n 14768: a0 = u64 [s1 + 0x88]\n 14772: u64 [s1 + 0x248] = a0\n 14776: a0 = u64 [s1 + 0x90]\n 14780: u64 [s1 + 0x250] = a0\n 14784: a1 = s1 + 0x240\n 14788: a0 = u64 [s1 + 0x98]\n 14792: u64 [s1 + 0x258] = a0\n 14796: a0 = a3\n 14798: u64 [s1 + 0x98] = a3\n 14802: ra = 560, jump @9\n      : @496 [@dyn 280] (gas: 30)\n 14808: u64 [s1 + 504] = 0\n 14812: a0 = u64 [s1 + 0x70]\n 14815: a1 = s1 + 0x100\n 14819: u64 [a1 + 0xf0] = a0\n 14823: a0 = u64 [s1 + 0x68]\n 14826: u64 [a1 + 0xe8] = a0\n 14830: a0 = u64 [s1 + 0x78]\n 14833: u64 [a1 + 0xe0] = a0\n 14837: u64 [s1 + 536] = 0\n 14841: a0 = u64 [s1 + 0x50]\n 14844: a5 = s1 + 0x200\n 14848: u64 [a5 + 0x10] = a0\n 14851: a0 = u64 [s1 + 0x58]\n 14854: u64 [a5 + 0x8] = a0\n 14857: a0 = u64 [0x200a8]\n 14862: a1 = u64 [0x200b0]\n 14867: a2 = u64 [0x200b8]\n 14872: a3 = u64 [s1 + 0x60]\n 14875: u64 [a5] = a3\n 14877: u64 [a5 + 0x38] = a0\n 14880: u64 [a5 + 0x30] = a1\n 14883: u64 [a5 + 0x28] = a2\n 14886: a0 = u64 [0x200c0]\n 14891: a1 = 0x20\n 14894: a2 = s1 + 0x220\n 14898: a3 = s1 + 0x200\n 14902: a4 = s1 + 0x1e0\n 14906: u64 [a5 + 0x20] = a0\n 14909: a0 = u64 [s1 + 0x98]\n 14913: ra = 562, jump @16\n      : @497 [@dyn 281] (gas: 7)\n 14919: sp = s0 + 0xfffffffffffffc00\n 14923: a0 = sp + 0x300\n 14927: ra = u64 [a0 + 0xf8]\n 14931: s0 = u64 [a0 + 0xf0]\n 14935: s1 = u64 [a0 + 0xe8]\n 14939: sp = sp + 0x400\n 14943: ret\n      : @498 (gas: 3)\n 14945: a0 = s1 + 0x120\n 14949: a1 = 0x40\n 14952: ra = 564, jump @7\n      : @499 [@dyn 282] (gas: 6)\n 14958: a4 = s1 + 0x100\n 14962: a2 = u64 [a4 + 0x38]\n 14965: a3 = u64 [a4 + 0x30]\n 14968: a0 = u64 [a4 + 0x28]\n 14971: a1 = u64 [a4 + 0x20]\n 14974: t0 = 566, jump @590\n      : @500 [@dyn 283] (gas: 1)\n 14980: jump @523 if a0 != 0\n      : @501 (gas: 8)\n 14984: u64 [s1 + 272] = 0\n 14988: u64 [s1 + 264] = 0\n 14992: u64 [s1 + 256] = 0\n 14996: a0 = 0x8c379a000000000\n 15006: a1 = s1 + 0x100\n 15010: u64 [s1 + 0x118] = a0\n 15014: a0 = u64 [s1 + 0x98]\n 15018: ra = 568, jump @9\n      : @502 [@dyn 284] (gas: 1)\n 15024: t0 = 570, jump @576\n      : @503 [@dyn 285] (gas: 1)\n 15030: jump @523 if a0 == 0\n      : @504 (gas: 8)\n 15034: a0 = u64 [s1 + 0x98]\n 15038: i32 a0 = a0 + 0x4\n 15041: u64 [s1 + 248] = 0\n 15045: u64 [s1 + 240] = 0\n 15049: u64 [s1 + 224] = 0x20\n 15054: a1 = s1 + 0xe0\n 15058: u64 [s1 + 232] = 0\n 15062: ra = 572, jump @9\n      : @505 [@dyn 286] (gas: 3)\n 15068: a0 = u64 [s1 + 0x80]\n 15072: a0 = a0 + 0xffffffffffffffdc\n 15075: t0 = 574, jump @574\n      : @506 [@dyn 287] (gas: 1)\n 15081: jump @523 if a0 == 0\n      : @507 (gas: 8)\n 15085: a0 = u64 [s1 + 0x98]\n 15089: i32 a0 = a0 + 0x24\n 15092: u64 [s1 + 216] = 0\n 15096: u64 [s1 + 208] = 0\n 15100: u64 [s1 + 192] = 0x10\n 15105: a1 = s1 + 0xc0\n 15109: u64 [s1 + 200] = 0\n 15113: ra = 576, jump @9\n      : @508 [@dyn 288] (gas: 2)\n 15119: a0 = 0xffffffbc\n 15129: t0 = 578, jump @574\n      : @509 [@dyn 289] (gas: 1)\n 15135: jump @523 if a0 == 0\n      : @510 (gas: 11)\n 15139: a0 = u64 [s1 + 0x98]\n 15143: i32 a0 = a0 + 0x44\n 15146: a1 = u64 [0x200d8]\n 15151: a2 = u64 [0x200e0]\n 15156: u64 [s1 + 0xb8] = a1\n 15160: u64 [s1 + 168] = 0\n 15164: u64 [s1 + 0xb0] = a2\n 15168: a1 = s1 + 0xa0\n 15172: u64 [s1 + 160] = 0\n 15176: ra = 0x254\n 15180: jump @9\n      : @511 (gas: 3)\n 15183: a0 = s1 + 0x1c0\n 15187: a1 = 0x40\n 15190: ra = 580, jump @7\n      : @512 [@dyn 290] (gas: 6)\n 15196: a4 = s1 + 0x100\n 15200: a2 = u64 [a4 + 0xd8]\n 15204: a3 = u64 [a4 + 0xd0]\n 15208: a0 = u64 [a4 + 0xc8]\n 15212: a1 = u64 [a4 + 0xc0]\n 15216: t0 = 582, jump @590\n      : @513 [@dyn 291] (gas: 1)\n 15222: jump @523 if a0 != 0\n      : @514 (gas: 8)\n 15226: u64 [s1 + 432] = 0\n 15230: u64 [s1 + 424] = 0\n 15234: u64 [s1 + 416] = 0\n 15238: a0 = 0x8c379a000000000\n 15248: a1 = s1 + 0x1a0\n 15252: u64 [s1 + 0x1b8] = a0\n 15256: a0 = u64 [s1 + 0x98]\n 15260: ra = 584, jump @9\n      : @515 [@dyn 292] (gas: 1)\n 15266: t0 = 586, jump @576\n      : @516 [@dyn 293] (gas: 1)\n 15272: jump @523 if a0 == 0\n      : @517 (gas: 8)\n 15275: a0 = u64 [s1 + 0x98]\n 15279: i32 a0 = a0 + 0x4\n 15282: u64 [s1 + 408] = 0\n 15286: u64 [s1 + 400] = 0\n 15290: u64 [s1 + 384] = 0x20\n 15295: a1 = s1 + 0x180\n 15299: u64 [s1 + 392] = 0\n 15303: ra = 588, jump @9\n      : @518 [@dyn 294] (gas: 3)\n 15309: a0 = u64 [s1 + 0x80]\n 15313: a0 = a0 + 0xffffffffffffffdc\n 15316: t0 = 590, jump @574\n      : @519 [@dyn 295] (gas: 1)\n 15322: jump @523 if a0 == 0\n      : @520 (gas: 8)\n 15325: a0 = u64 [s1 + 0x98]\n 15329: i32 a0 = a0 + 0x24\n 15332: u64 [s1 + 376] = 0\n 15336: u64 [s1 + 368] = 0\n 15340: u64 [s1 + 352] = 0x14\n 15345: a1 = s1 + 0x160\n 15349: u64 [s1 + 360] = 0\n 15353: ra = 592, jump @9\n      : @521 [@dyn 296] (gas: 2)\n 15359: a0 = 0xffffffbc\n 15369: t0 = 594, jump @574\n      : @522 [@dyn 297] (gas: 1)\n 15375: jump @524 if a0 != 0\n      : @523 (gas: 1)\n 15378: trap\n      : @524 (gas: 12)\n 15379: a0 = u64 [s1 + 0x98]\n 15383: i32 a0 = a0 + 0x44\n 15386: a1 = u64 [0x200c8]\n 15391: a2 = u64 [0x200d0]\n 15396: a3 = s1 + 0x100\n 15400: u64 [a3 + 0x58] = a1\n 15403: u64 [a3 + 0x50] = a2\n 15406: a1 = 0x616e636500000000\n 15416: u64 [a3 + 0x48] = a1\n 15419: a1 = s1 + 0x140\n 15423: u64 [s1 + 320] = 0\n 15427: ra = 596, jump @9\n      : @525 [@dyn 298] (gas: 3)\n 15433: a1 = 0x64\n 15436: a0 = u64 [s1 + 0x98]\n 15440: ra = 598, jump @19\n      : @526 [@dyn 299] (gas: 6)\n 15446: i32 a1 = a0 + 0\n 15448: a0 = 0x1\n 15451: a2 = 0x64\n 15454: ra = 0x258\n 15458: ecalli 8 // 'seal_return'\n 15460: fallthrough\n      : @527 [@dyn 300] (gas: 17)\n 15461: sp = sp + 0xfffffffffffffd20\n 15465: a2 = sp + 0x200\n 15469: u64 [a2 + 0xd8] = ra\n 15473: u64 [a2 + 0xd0] = s0\n 15477: u64 [a2 + 0xc8] = s1\n 15481: s0 = sp + 0x2e0\n 15485: sp = sp & 0xffffffffffffffe0\n 15488: s1 = sp\n 15490: a3 = u32 [a0 + 0x10]\n 15493: a2 = u64 [a0]\n 15495: a4 = u64 [a0 + 0x8]\n 15498: u64 [s1 + 0x38] = a2\n 15501: u64 [s1 + 0x30] = a3\n 15504: a0 = a2 | a3\n 15507: u64 [s1 + 0x28] = a4\n 15510: a0 = a0 | a4\n 15513: jump @545 if a0 == 0\n      : @528 (gas: 15)\n 15517: a0 = u64 [a1 + 0x18]\n 15520: u64 [s1 + 0x58] = a0\n 15523: a0 = u64 [a1 + 0x10]\n 15526: u64 [s1 + 0x50] = a0\n 15529: a0 = u64 [a1 + 0x8]\n 15532: u64 [s1 + 0x48] = a0\n 15535: a0 = u64 [a1]\n 15537: u64 [s1 + 0x40] = a0\n 15540: u64 [s1 + 632] = 0\n 15544: u64 [s1 + 624] = 0\n 15548: u64 [s1 + 616] = 0\n 15552: u64 [s1 + 608] = 0x2\n 15557: a0 = s1 + 0x240\n 15561: a1 = s1 + 0x260\n 15565: ra = 602, jump @11\n      : @529 [@dyn 301] (gas: 38)\n 15571: t2 = u64 [s1 + 0x258]\n 15575: a1 = s1 + 0x200\n 15579: a0 = u64 [a1 + 0x50]\n 15582: a4 = u64 [a1 + 0x40]\n 15585: a5 = u64 [a1 + 0x48]\n 15588: a1 = sp + 0xffffffffffffffe0\n 15591: a1 = a1 & 0xffffffffffffffe0\n 15594: sp = a1\n 15596: a3 = u64 [s1 + 0x48]\n 15599: a3 = a3 + a5\n 15602: t0 = u64 [s1 + 0x40]\n 15605: t0 = t0 + a4\n 15608: a4 = t0 <u a4\n 15611: a3 = a3 + a4\n 15614: t1 = a3 ^ a5\n 15617: a2 = a3 <u a5\n 15620: a2 = a4 if t1 == 0\n 15623: a4 = u64 [s1 + 0x50]\n 15626: a4 = a4 + a0\n 15629: a5 = a4 + a2\n 15632: t1 = a5 <u a4\n 15635: ra = u64 [s1 + 0x58]\n 15638: ra = ra + t2\n 15641: a4 = a4 <u a0\n 15644: a4 = a4 + ra\n 15647: ra = a4 + t1\n 15650: t1 = a5 <u a0\n 15653: a4 = t2 ^ ra\n 15656: t2 = ra <u t2\n 15659: t2 = t1 if a4 == 0\n 15662: a0 = a0 ^ a5\n 15665: a0 = a0 | a4\n 15668: t2 = a2 if a0 == 0\n 15671: u64 [a1 + 0x10] = a5\n 15674: u64 [a1 + 0x8] = a3\n 15677: u64 [a1] = t0\n 15679: u64 [a1 + 0x18] = ra\n 15682: jump @554 if t2 != 0\n      : @530 (gas: 6)\n 15686: u64 [s1 + 664] = 0\n 15690: u64 [s1 + 656] = 0\n 15694: u64 [s1 + 648] = 0\n 15698: u64 [s1 + 640] = 0x2\n 15703: a0 = s1 + 0x280\n 15707: ra = 604, jump @15\n      : @531 [@dyn 302] (gas: 10)\n 15713: u64 [s1 + 568] = 0\n 15717: a0 = u64 [s1 + 0x30]\n 15720: u64 [s1 + 0x230] = a0\n 15724: a0 = u64 [s1 + 0x28]\n 15727: u64 [s1 + 0x228] = a0\n 15731: a1 = s1 + 0x220\n 15735: a0 = u64 [s1 + 0x38]\n 15738: u64 [s1 + 0x220] = a0\n 15742: a0 = 0\n 15744: ra = 606, jump @9\n      : @532 [@dyn 303] (gas: 7)\n 15750: u64 [s1 + 536] = 0\n 15754: u64 [s1 + 528] = 0\n 15758: u64 [s1 + 512] = 0x3\n 15763: a0 = 0x20\n 15766: a1 = s1 + 0x200\n 15770: u64 [s1 + 520] = 0\n 15774: ra = 608, jump @9\n      : @533 [@dyn 304] (gas: 6)\n 15780: a0 = sp + 0xffffffffffffffe0\n 15783: a0 = a0 & 0xffffffffffffffe0\n 15786: u64 [s1 + 0x20] = a0\n 15789: sp = a0\n 15791: a1 = i32 [0x20118]\n 15796: jump @535 if a1 >u 63\n      : @534 (gas: 2)\n 15800: u32 [0x20118] = 0x40\n 15806: fallthrough\n      : @535 (gas: 13)\n 15807: a0 = sp + 0xffffffffffffffe0\n 15810: a2 = a0 & 0xffffffffffffffe0\n 15813: u64 [s1 + 0x18] = a2\n 15816: sp = a2\n 15818: a0 = 0x20120\n 15823: i32 a0 = a0 + 0\n 15825: i32 a2 = a2 + 0\n 15827: a1 = 0x40\n 15830: ra = 0x262\n 15834: ecalli 7 // 'hash_keccak_256'\n 15836: a3 = u64 [s1 + 0x18]\n 15839: t0 = 0x264\n 15843: jump @573\n      : @536 [@dyn 305] (gas: 2)\n 15846: a3 = u64 [s1 + 0x18]\n 15849: t0 = 612, jump @573\n      : @537 [@dyn 306] (gas: 7)\n 15855: a1 = u64 [s1 + 0x20]\n 15858: u64 [a1 + 0x18] = a3\n 15861: u64 [a1 + 0x10] = a2\n 15864: u64 [a1 + 0x8] = a4\n 15867: u64 [a1] = a0\n 15869: a0 = s1 + 0x1e0\n 15873: ra = 614, jump @11\n      : @538 [@dyn 307] (gas: 30)\n 15879: a0 = u64 [s1 + 0x1e8]\n 15883: a1 = u64 [s1 + 0x1e0]\n 15887: t0 = u64 [s1 + 0x1f8]\n 15891: a3 = u64 [s1 + 0x1f0]\n 15895: a4 = u64 [s1 + 0x48]\n 15898: a4 = a4 + a0\n 15901: a5 = u64 [s1 + 0x40]\n 15904: a5 = a5 + a1\n 15907: a1 = a5 <u a1\n 15910: a4 = a4 + a1\n 15913: a2 = a4 ^ a0\n 15916: a0 = a4 <u a0\n 15919: a0 = a1 if a2 == 0\n 15922: a1 = u64 [s1 + 0x50]\n 15925: a1 = a1 + a3\n 15928: a2 = u64 [s1 + 0x58]\n 15931: t0 = t0 + a2\n 15934: a2 = a1 <u a3\n 15937: a2 = a2 + t0\n 15940: a0 = a0 + a1\n 15943: a1 = a0 <u a1\n 15946: a1 = a1 + a2\n 15949: a2 = s1 + 0x200\n 15953: u64 [a2 + 0xa0] = a5\n 15957: u64 [a2 + 0xa8] = a4\n 15961: u64 [a2 + 0xb0] = a0\n 15965: u64 [a2 + 0xb8] = a1\n 15969: a1 = s1 + 0x2a0\n 15973: a0 = u64 [s1 + 0x20]\n 15976: ra = 616, jump @15\n      : @539 [@dyn 308] (gas: 3)\n 15982: a0 = s1 + 0x1c0\n 15986: a1 = 0x40\n 15989: ra = 618, jump @7\n      : @540 [@dyn 309] (gas: 6)\n 15995: a4 = s1 + 0x100\n 15999: a3 = u64 [a4 + 0xd8]\n 16003: a1 = u64 [a4 + 0xd0]\n 16007: a2 = u64 [a4 + 0xc8]\n 16011: a0 = u64 [a4 + 0xc0]\n 16015: t0 = 620, jump @571\n      : @541 [@dyn 310] (gas: 1)\n 16021: jump @553 if a1 != 0\n      : @542 (gas: 11)\n 16025: a1 = u64 [s1 + 0x40]\n 16028: u64 [s1 + 0x1a0] = a1\n 16032: a1 = u64 [s1 + 0x48]\n 16035: u64 [s1 + 0x1a8] = a1\n 16039: a1 = u64 [s1 + 0x50]\n 16042: u64 [s1 + 0x1b0] = a1\n 16046: a1 = s1 + 0x1a0\n 16050: a2 = u64 [s1 + 0x58]\n 16053: u64 [s1 + 0x1b8] = a2\n 16057: u64 [s1 + 0x58] = a0\n 16060: ra = 622, jump @9\n      : @543 [@dyn 311] (gas: 26)\n 16066: u64 [s1 + 344] = 0\n 16070: a0 = u64 [s1 + 0x30]\n 16073: a5 = s1 + 0x100\n 16077: u64 [a5 + 0x50] = a0\n 16080: a0 = u64 [s1 + 0x28]\n 16083: u64 [a5 + 0x48] = a0\n 16086: a0 = u64 [s1 + 0x38]\n 16089: u64 [a5 + 0x40] = a0\n 16092: u64 [s1 + 376] = 0\n 16096: u64 [s1 + 368] = 0\n 16100: u64 [s1 + 360] = 0\n 16104: a0 = u64 [0x200e8]\n 16109: a1 = u64 [0x200f0]\n 16114: a2 = u64 [0x200f8]\n 16119: u64 [s1 + 352] = 0\n 16123: u64 [a5 + 0x98] = a0\n 16127: u64 [a5 + 0x90] = a1\n 16131: u64 [a5 + 0x88] = a2\n 16135: a0 = u64 [0x20100]\n 16140: a1 = 0x20\n 16143: a2 = s1 + 0x180\n 16147: a3 = s1 + 0x160\n 16151: a4 = s1 + 0x140\n 16155: u64 [a5 + 0x80] = a0\n 16159: a0 = u64 [s1 + 0x58]\n 16162: ra = 624, jump @16\n      : @544 [@dyn 312] (gas: 7)\n 16168: sp = s0 + 0xfffffffffffffd20\n 16172: a0 = sp + 0x200\n 16176: ra = u64 [a0 + 0xd8]\n 16180: s0 = u64 [a0 + 0xd0]\n 16184: s1 = u64 [a0 + 0xc8]\n 16188: sp = sp + 0x2e0\n 16192: ret\n      : @545 (gas: 3)\n 16194: a0 = s1 + 0xe0\n 16198: a1 = 0x40\n 16201: ra = 626, jump @7\n      : @546 [@dyn 313] (gas: 16)\n 16207: a2 = u64 [s1 + 0xf8]\n 16211: a3 = u64 [s1 + 0xf0]\n 16215: a0 = u64 [s1 + 0xe8]\n 16219: a1 = u64 [s1 + 0xe0]\n 16223: u64 [s1 + 0x50] = a0\n 16226: u64 [s1 + 0x48] = a2\n 16229: a0 = a0 | a2\n 16232: u64 [s1 + 0x58] = a1\n 16235: a1 = a1 | a3\n 16238: a1 = a1 | a0\n 16241: a1 = a1 >> 0x20\n 16244: u64 [s1 + 0x40] = a3\n 16247: a0 = a0 | a3\n 16250: a0 = a0 << 0x20\n 16253: a0 = a0 | a1\n 16256: jump @553 if a0 != 0\n      : @547 (gas: 8)\n 16260: u64 [s1 + 208] = 0\n 16264: u64 [s1 + 200] = 0\n 16268: u64 [s1 + 192] = 0\n 16272: a0 = 0x8c379a000000000\n 16282: a1 = s1 + 0xc0\n 16286: u64 [s1 + 0xd8] = a0\n 16290: a0 = u64 [s1 + 0x58]\n 16293: ra = 628, jump @9\n      : @548 [@dyn 314] (gas: 13)\n 16299: a0 = u64 [s1 + 0x48]\n 16302: a2 = u64 [s1 + 0x40]\n 16305: a2 = a2 | a0\n 16308: a0 = 0x100000000\n 16318: u64 [s1 + 0x40] = a0\n 16321: a0 = 0xfffffffc\n 16331: a1 = u64 [s1 + 0x58]\n 16334: a0 = a1 <u a0\n 16337: a1 = u64 [s1 + 0x50]\n 16340: a0 = 0 if a1 != 0\n 16342: u64 [s1 + 0x48] = a2\n 16345: a0 = 0 if a2 != 0\n 16347: jump @553 if a0 == 0\n      : @549 (gas: 8)\n 16350: a0 = u64 [s1 + 0x58]\n 16353: i32 a0 = a0 + 0x4\n 16356: u64 [s1 + 184] = 0\n 16360: u64 [s1 + 176] = 0\n 16364: u64 [s1 + 160] = 0x20\n 16369: a1 = s1 + 0xa0\n 16373: u64 [s1 + 168] = 0\n 16377: ra = 630, jump @9\n      : @550 [@dyn 315] (gas: 9)\n 16383: a0 = u64 [s1 + 0x40]\n 16386: a0 = a0 + 0xffffffffffffffdc\n 16389: a1 = u64 [s1 + 0x58]\n 16392: a0 = a1 <u a0\n 16395: a1 = u64 [s1 + 0x50]\n 16398: a0 = 0 if a1 != 0\n 16400: a1 = u64 [s1 + 0x48]\n 16403: a0 = 0 if a1 != 0\n 16405: jump @553 if a0 == 0\n      : @551 (gas: 8)\n 16408: a0 = u64 [s1 + 0x58]\n 16411: i32 a0 = a0 + 0x24\n 16414: u64 [s1 + 152] = 0\n 16418: u64 [s1 + 144] = 0\n 16422: u64 [s1 + 128] = 0xc\n 16427: a1 = s1 + 0x80\n 16431: u64 [s1 + 136] = 0\n 16435: ra = 632, jump @9\n      : @552 [@dyn 316] (gas: 8)\n 16441: a0 = 0xffffffbc\n 16451: a1 = u64 [s1 + 0x58]\n 16454: a0 = a1 <u a0\n 16457: a1 = u64 [s1 + 0x50]\n 16460: a0 = 0 if a1 != 0\n 16462: a1 = u64 [s1 + 0x48]\n 16465: a0 = 0 if a1 != 0\n 16467: jump @561 if a0 != 0\n      : @553 (gas: 1)\n 16470: trap\n      : @554 (gas: 1)\n 16471: t0 = 634, jump @578\n      : @555 [@dyn 317] (gas: 1)\n 16477: ra = 636, jump @9\n      : @556 [@dyn 318] (gas: 1)\n 16483: t0 = 638, jump @585\n      : @557 [@dyn 319] (gas: 1)\n 16489: ra = 640, jump @9\n      : @558 [@dyn 320] (gas: 2)\n 16495: a1 = i32 [0x20118]\n 16500: jump @560 if a1 >u 63\n      : @559 (gas: 2)\n 16504: u32 [0x20118] = 0x40\n 16510: fallthrough\n      : @560 (gas: 7)\n 16511: a1 = 0x20120\n 16516: i32 a1 = a1 + 0\n 16518: a0 = 0x1\n 16521: a2 = 0x24\n 16524: ra = 0x282\n 16528: ecalli 8 // 'seal_return'\n 16530: fallthrough\n      : @561 [@dyn 321] (gas: 4)\n 16531: a0 = u64 [s1 + 0x58]\n 16534: i32 a0 = a0 + 0x44\n 16537: a1 = u64 [0x20108]\n 16542: t0 = 644, jump @589\n      : @562 [@dyn 322] (gas: 1)\n 16548: ra = 646, jump @9\n      : @563 [@dyn 323] (gas: 3)\n 16554: a1 = 0x64\n 16557: a0 = u64 [s1 + 0x58]\n 16560: ra = 648, jump @19\n      : @564 [@dyn 324] (gas: 7)\n 16566: i32 a1 = a0 + 0\n 16568: a0 = 0x1\n 16571: a2 = 0x64\n 16574: ecalli 8 // 'seal_return'\n 16576: a0 = 0\n 16578: ra = 0x28a\n 16582: jump @25\n      : @565 [export #0: 'call'] (gas: 2)\n 16585: a0 = 0\n 16587: ra = 650, jump @25\n      : @566 [@dyn 325] [export #1: 'deploy'] (gas: 2)\n 16593: a0 = 0x1\n 16596: ra = 652, jump @25\n      : @567 [@dyn 326] (gas: 14)\n 16602: a0 = u64 [a2 + 0x8]\n 16605: a1 = i32 [a2 + 0x10]\n 16608: a2 = u64 [a2]\n 16610: a0 = reverse a0\n 16612: a3 = a0 << 0x20\n 16615: a1 = reverse a1\n 16617: a1 = a1 >> 0x20\n 16620: a3 = a3 | a1\n 16623: a0 = a0 >> 0x20\n 16626: a1 = reverse a2\n 16628: a2 = a1 << 0x20\n 16631: a0 = a0 | a2\n 16634: a1 = a1 >> 0x20\n 16637: jump [t0]\n      : @568 (gas: 26)\n 16639: t2 = u64 [s1 + 0x28]\n 16642: a0 = u64 [t2 + 0x18]\n 16645: a1 = u64 [t2 + 0x10]\n 16648: t1 = reverse a0\n 16650: ra = reverse a1\n 16652: a0 = u64 [s1 + 0x38]\n 16655: a1 = a0 + 0x1f\n 16658: a0 = a1 <u a0\n 16661: a3 = u64 [s1 + 0x40]\n 16664: a2 = a3 + a0\n 16667: a3 = a2 <u a3\n 16670: a3 = a0 if a0 == 0\n 16673: a5 = u64 [s1 + 0x48]\n 16676: a0 = a5 + a3\n 16679: a3 = a0 << 0x3b\n 16682: a4 = a2 >> 0x5\n 16685: a3 = a3 | a4\n 16688: a2 = a2 << 0x3b\n 16691: a1 = a1 >> 0x5\n 16694: a1 = a1 | a2\n 16697: a1 = a1 + t1\n 16700: u64 [s1 + 0x30] = a1\n 16703: a1 = a1 <u t1\n 16706: a2 = ra + a1\n 16709: a3 = a3 + a2\n 16712: jump [t0]\n      : @569 (gas: 13)\n 16714: a3 = u64 [s1 + 0x78]\n 16717: a0 = u64 [a3 + 0x18]\n 16720: a1 = u64 [a3 + 0x10]\n 16723: a2 = u64 [a3 + 0x8]\n 16726: a3 = u64 [a3]\n 16728: a0 = reverse a0\n 16730: a1 = reverse a1\n 16732: a2 = reverse a2\n 16734: a3 = reverse a3\n 16736: a4 = s1 + 0x7ff\n 16740: a4 = a4 + 0x39\n 16743: a5 = a4 + 0x700\n 16747: jump [t0]\n      : @570 (gas: 5)\n 16749: sp = a1\n 16751: i32 a0 = a0 + 0\n 16753: i32 a2 = a1 + 0\n 16755: a1 = 0x40\n 16758: jump [t0]\n      : @571 (gas: 8)\n 16760: a3 = a3 | a2\n 16763: a2 = a0 | a1\n 16766: a2 = a2 | a3\n 16769: a2 = a2 >> 0x20\n 16772: a1 = a1 | a3\n 16775: a1 = a1 << 0x20\n 16778: a1 = a1 | a2\n 16781: jump [t0]\n      : @572 (gas: 14)\n 16783: a4 = u64 [s1 + 0x10]\n 16786: t2 = u64 [s1 + 0x40]\n 16789: ra = u64 [s1 + 0x48]\n 16792: t1 = u64 [s1 + 0x50]\n 16795: t1 = t1 + 0x1\n 16798: a0 = t1 <u 0x1\n 16801: ra = ra + a0\n 16804: a0 = t1 | ra\n 16807: a0 = a0 <u 0x1\n 16810: a1 = u64 [s1 + 0x38]\n 16813: a0 = a0 + a1\n 16816: a1 = a0 <u a1\n 16819: t2 = t2 + a1\n 16822: jump [t0]\n      : @573 (gas: 9)\n 16824: a0 = u64 [a3 + 0x18]\n 16827: a1 = u64 [a3 + 0x10]\n 16830: a2 = u64 [a3 + 0x8]\n 16833: a3 = u64 [a3]\n 16835: a0 = reverse a0\n 16837: a4 = reverse a1\n 16839: a2 = reverse a2\n 16841: a3 = reverse a3\n 16843: jump [t0]\n      : @574 (gas: 7)\n 16845: a1 = u64 [s1 + 0x98]\n 16849: a0 = a1 <u a0\n 16852: a1 = u64 [s1 + 0x90]\n 16856: a0 = 0 if a1 != 0\n 16858: a1 = u64 [s1 + 0x88]\n 16862: a0 = 0 if a1 != 0\n 16864: jump [t0]\n      : @575 (gas: 11)\n 16866: a3 = u64 [s1 + 0xb8]\n 16870: a0 = u64 [a3 + 0x18]\n 16873: a1 = u64 [a3 + 0x10]\n 16876: a2 = u64 [a3 + 0x8]\n 16879: a3 = u64 [a3]\n 16881: a0 = reverse a0\n 16883: a1 = reverse a1\n 16885: a2 = reverse a2\n 16887: a3 = reverse a3\n 16889: a4 = s1 + 0x1038\n 16893: jump [t0]\n      : @576 (gas: 13)\n 16895: a0 = u64 [s1 + 0x88]\n 16899: a2 = u64 [s1 + 0x80]\n 16903: a2 = a2 | a0\n 16906: a0 = 0x100000000\n 16916: u64 [s1 + 0x80] = a0\n 16920: a0 = 0xfffffffc\n 16930: a1 = u64 [s1 + 0x98]\n 16934: a0 = a1 <u a0\n 16937: a1 = u64 [s1 + 0x90]\n 16941: a0 = 0 if a1 != 0\n 16943: u64 [s1 + 0x88] = a2\n 16947: a0 = 0 if a2 != 0\n 16949: jump [t0]\n      : @577 (gas: 8)\n 16951: a0 = u64 [a2 + 0x8]\n 16954: a1 = i32 [a2 + 0x10]\n 16957: a2 = u64 [a2]\n 16959: a3 = reverse a0\n 16961: a0 = a3 << 0x20\n 16964: a1 = reverse a1\n 16966: a1 = a1 >> 0x20\n 16969: jump [t0]\n      : @578 (gas: 8)\n 16971: u64 [s1 + 304] = 0\n 16975: u64 [s1 + 296] = 0\n 16979: u64 [s1 + 288] = 0\n 16983: a0 = 0x4e487b7100000000\n 16993: a1 = s1 + 0x120\n 16997: u64 [s1 + 0x138] = a0\n 17001: a0 = 0\n 17003: jump [t0]\n      : @579 (gas: 13)\n 17005: a0 = u64 [a3 + 0x18]\n 17008: a1 = u64 [a3 + 0x10]\n 17011: a2 = u64 [a3 + 0x8]\n 17014: a3 = u64 [a3]\n 17016: a0 = reverse a0\n 17018: u64 [s1 + 0x78] = a0\n 17021: a0 = reverse a1\n 17023: u64 [s1 + 0x70] = a0\n 17026: a0 = reverse a2\n 17028: u64 [s1 + 0x68] = a0\n 17031: a0 = reverse a3\n 17033: u64 [s1 + 0x60] = a0\n 17036: jump [t0]\n      : @580 (gas: 10)\n 17038: a0 = u64 [sp + 0x10]\n 17041: a1 = u64 [sp + 0x18]\n 17044: a2 = 0x100000000\n 17054: a2 = a2 ^ a0\n 17057: a2 = a2 | a1\n 17060: a3 = a0 >> 0x20\n 17063: a3 = a3 <u 0x1\n 17066: a3 = 0 if a1 != 0\n 17068: a3 = 0 if a2 == 0\n 17070: jump [t0]\n      : @581 (gas: 8)\n 17072: a2 = u64 [s1 + 0xb8]\n 17076: a0 = 0xffffffbc\n 17086: a0 = a2 <u a0\n 17089: a1 = u64 [s1 + 0xb0]\n 17093: a0 = 0 if a1 != 0\n 17095: a1 = u64 [s1 + 0xa8]\n 17099: a0 = 0 if a1 != 0\n 17101: jump [t0]\n      : @582 (gas: 7)\n 17103: a4 = 0x100000000\n 17113: a0 = 0xfffffffc\n 17123: a0 = a1 <u a0\n 17126: a2 = u64 [s1 + 0xb0]\n 17130: a0 = 0 if a2 != 0\n 17132: a0 = 0 if a3 != 0\n 17134: jump [t0]\n      : @583 (gas: 5)\n 17136: a0 = a0 + 0xffffffffffffffdc\n 17139: a0 = a1 <u a0\n 17142: a0 = 0 if a2 != 0\n 17144: a0 = 0 if a3 != 0\n 17146: jump [t0]\n      : @584 (gas: 12)\n 17148: a0 = u64 [a5 + 0x40]\n 17151: a1 = u64 [a5 + 0x38]\n 17154: a2 = u64 [a5 + 0x30]\n 17157: a4 = u64 [a5 + 0x28]\n 17160: a0 = a0 | a2\n 17163: a2 = a4 | a1\n 17166: a2 = a2 | a0\n 17169: a2 = a2 >> 0x20\n 17172: a0 = a0 | a1\n 17175: a0 = a0 << 0x20\n 17178: a0 = a0 | a2\n 17181: jump [t0]\n      : @585 (gas: 7)\n 17183: u64 [s1 + 280] = 0\n 17187: u64 [s1 + 272] = 0\n 17191: u64 [s1 + 256] = 0x11\n 17196: a0 = 0x4\n 17199: a1 = s1 + 0x100\n 17203: u64 [s1 + 264] = 0\n 17207: jump [t0]\n      : @586 (gas: 12)\n 17209: a2 = u64 [sp]\n 17211: a3 = u64 [sp + 0x8]\n 17214: u64 [s1] = a2\n 17216: u64 [s1 + 0x8] = a3\n 17219: u64 [s1 + 0x10] = a0\n 17222: u64 [s1 + 0x18] = a1\n 17225: sp = s0 + 0xffffffffffffffc0\n 17228: ra = u64 [sp + 0x38]\n 17231: s0 = u64 [sp + 0x30]\n 17234: s1 = u64 [sp + 0x28]\n 17237: sp = sp + 0x40\n 17240: jump [t0]\n      : @587 (gas: 8)\n 17242: a0 = a0 | a2\n 17245: a2 = a3 | a1\n 17248: a2 = a2 | a0\n 17251: a2 = a2 >> 0x20\n 17254: a0 = a0 | a1\n 17257: a0 = a0 << 0x20\n 17260: a0 = a0 | a2\n 17263: jump [t0]\n      : @588 (gas: 5)\n 17265: a0 = reverse a0\n 17267: a1 = reverse a1\n 17269: a2 = reverse a2\n 17271: a3 = reverse a3\n 17273: jump [t0]\n      : @589 (gas: 8)\n 17275: a2 = 0\n 17277: u64 [s1 + 104] = 0\n 17280: u64 [s1 + 0x78] = a1\n 17283: a1 = 0x7a65726f00000000\n 17293: u64 [s1 + 0x70] = a1\n 17296: a1 = s1 + 0x60\n 17299: u64 [s1 + 96] = 0\n 17302: jump [t0]\n      : @590 (gas: 12)\n 17304: u64 [s1 + 0x90] = a0\n 17308: u64 [s1 + 0x88] = a2\n 17312: a0 = a0 | a2\n 17315: u64 [s1 + 0x98] = a1\n 17319: a1 = a1 | a3\n 17322: a1 = a1 | a0\n 17325: a1 = a1 >> 0x20\n 17328: u64 [s1 + 0x80] = a3\n 17332: a0 = a0 | a3\n 17335: a0 = a0 << 0x20\n 17338: a0 = a0 | a1\n 17341: jump [t0]\n      : @591 (gas: 8)\n 17343: a1 = sp + 0xffffffffffffffe0\n 17346: a1 = a1 & 0xffffffffffffffe0\n 17349: u64 [s1 + 0x28] = a1\n 17352: sp = a1\n 17354: i32 a0 = a0 + 0\n 17356: i32 a2 = a1 + 0\n 17358: a1 = 0x20\n 17361: jump [t0]\n      : @592 (gas: 9)\n 17363: sp = sp + 0xffffffffffffffc0\n 17366: u64 [sp + 0x38] = ra\n 17369: u64 [sp + 0x30] = s0\n 17372: u64 [sp + 0x28] = s1\n 17375: s0 = sp + 0x40\n 17378: sp = sp & 0xffffffffffffffe0\n 17381: s1 = a0\n 17383: i32 a0 = sp + 0\n 17385: jump [t0]\n      : @593 (gas: 6)\n 17387: sp = s0 + 0xffffffffffffffa0\n 17390: ra = u64 [sp + 0x58]\n 17393: s0 = u64 [sp + 0x50]\n 17396: s1 = u64 [sp + 0x48]\n 17399: sp = sp + 0x60\n 17402: jump [t0]\n      : @594 (gas: 10)\n 17404: a1 = u64 [a2 + 0x60]\n 17407: u64 [s1 + 0xb8] = a1\n 17411: a1 = u64 [a2 + 0x58]\n 17414: u64 [s1 + 0xb0] = a1\n 17418: a1 = u64 [a2 + 0x50]\n 17421: u64 [s1 + 0xa8] = a1\n 17425: a1 = u64 [a2 + 0x48]\n 17428: u64 [s1 + 0xa0] = a1\n 17432: a0 = s1 + 0x7ff\n 17436: jump [t0]\n",
        "bytecode": {
          "linkReferences": {},
          "object": "50564d00005151000000000000010700c16001c00080038114445355206b636f4d9bc8e21bad52f2ddaa8d37fc68b0c26916a1c463f1a72b95efb323f54d5af528206f7420746e694d3b071276522d0eb1326a7e71fdcdee2673b0c2fa4a4bf40cf60cfab7e2cb9f2d656e776f20746f4e5b7decebe5e15b8cf3841e7d42714fd11e29b2f7c01403dd25b9c3c7c80a205b636e61776f6c6c416465656378652065a8628b54d9ec0d29c86f3888a94503d6f608404895bca64b63e5f30e16932f369bc8e21bad52f2ddaa8d37fc68b0c26916a1c463f1a72b95efb323f54d5af5286369666675736e496c616220746e6569726566736e6172546f72657a206f74209bc8e21bad52f2ddaa8d37fc68b0c26916a1c463f1a72b95efb323f54d5af528206f7420746e694d200000000480d30c000000000e0000001c0000002a000000300000003d0000004f0000005a0000006900000074000000860000009100000063616c6c5f646174615f636f707963616c6c5f646174615f6c6f616463616c6c5f646174615f73697a6563616c6c65726465706f7369745f6576656e746765745f696d6d757461626c655f646174616765745f73746f72616765686173685f6b656363616b5f3235367365616c5f72657475726e7365745f696d6d757461626c655f646174617365745f73746f7261676576616c75655f7472616e73666572726564051302c0c9400463616c6cc0d140066465706c6f7906c0344f814602c01e446a00b201d502e602f602c603ce03a404f3042e058505b205fb0505060a061106b306b806e806080739078e0798079d07a40746084b08760891089908ba08e10839098a099b09bc09e709ec09f7092d0aa30ab40abc0ad70af40a090b170b250b2d0b440b8f0b9b0baf0bd90bea0bf20b5e0c6a0c7f0c9a0c9f0ca40ca90caf0cba0cd70cec0c1e0d2f0d6c0df00d330e600ee20e4e0f630f9c0fb20fde0fe40f9310bf10d9103b117811bd119b120813fa136014631585151d164b16cb16e916f416041715171f173e17481764178d179817a717b417ba17d9172e189118a618d218e8180c1912194a1957198919ca19fc194b1a741a7f1a8f1aef1a281b331b431b501b561b781b891b961ba71b0e1c4b1c821cab1cb61cc61cd31cd91cf71c081d151d261dc21d481e521e6e1e8c1e971ea71ef71e231f2e1f3e1f841f911fa61fd61fea1ff41f6e207b2091200e21a321e1211d2256228322e5221a2357235e246f243f255d2568257725af25b925d525fe250926182625262b264c26732691269c26ab26bb26c426d826e226fe262727322741274e27542776279e27b827e527f92703287d28e128ee2808292b2938295e29fd29542a672ba92b5c2c2e2dca2d572ea62eb02eec2e432f732fb32f053030303b305a307a30b7308931ac31c331e73161329332ed320a3496343f35bd35cd35d335dc35f735fd350d3613361c363136c436e236103724374237c237e037373846384d3861389b38c038d638e538f538fe38163981398e39a439d839473a6e3a843ab03ab63adc3ae93a0f3b1f3b5c3b763ba23ba83bcd3bda3bff3b0f3c493c563c653cd33c613d863da43de63def3d073e6e3e7b3e953ec23e283f4f3fab3fff3f39405d40634069406f409340a440aa40b640d140da409511e87b10107b15087b163306100102390510010251051c3307400103837783680a050139071001022003100102ac5710821010821508821695111832000039081001025108cf0c330740010383770a0928c20c9511f07b10087b15648964753308206497501002f0037c78017c797c7a027c7b03978808d4980897aa1097bb18d4ba0ad4a8087c79057c7a047c7b067c7c07979908d4a90997bb1097cc18d4cb0bd4b909979920d489027c79097c7a087c7b0a7c7c0b979908d4a90997bb1097cc18d4cb0bd4b9097c7a0d7c7b0c7c7c0e7c780f97aa08d4ba0a97cc10978818d4c808d4a808978820d498037c78117c7a107c7b127c7c13978808d4a80897bb1097cc18d4cb0bd4b8087c7a157c7b147c7c167c791797aa08d4ba0a97cc10979918d4c909d4a909979920d4890a7c78197c79187c7b1a7c7c1b978808d4980897bb1097cc18d4cb0bd4b8087c791d7c7b1c7c7c1e7c771f979908d4b90997cc10977718d4c707d49707977720d487076f776fa86f396f2a7b5a187b59107b58087b57821008821595111032009511d87b10207b15187b161082897b19088289087b19828510828618330820501004a8026f686f59821a6faa821b086fbb787b18787a10787908787898bc38787c1f98bc30787c1e98bc28787c1d98bc20787c1c98bc18787c1b98bc10787c1a98bb08787b1998ab38787b1798ab30787b1698ab28787b1598ab20787b1498ab18787b1398ab10787b1298aa08787a11989a38787a0f989a30787a0e989a28787a0d989a20787a0c989a18787a0b989a10787a0a98990878790998893878790798893078790698892878790598892078790498891878790398891078790298880878780182102082151882161095112832009511a07b10587b15507b16489515608411e06476828718828910828a0882886f776f996faa6f887b18187b1a107b19087b17491138491130491128491120481140208318831a20831b403309ff33073300060a0601821738821830821928821a2050120890407b6a187b69107b68087b6750120afa4032009511a07b10587b15509515608411e08272827a08827b108277188283828908828c108288186f746fbb6faa6f276f826fcc6f996f387b17187b1a107b1b087b147b18387b19307b1c287b12208318831a203309ff330b2033070a0a9551a08210588215509511603200951120ff7b10d8007b15d0007b16c8009515e0008411e082bc7b1c4082bc087b1c4882bc107b1c5082bb187b1b5833020c82ab7b1b1882ab087b1b2082ab107b1b2882aa187b1a308296829a087b1a829a107b1a088299187b19104911382033000e2892007b183850100e8c006f687b187882186f887b18708218086f887b18688218106f887b18608218186f887b1898008218206f887b1890008218286f887b1888008218306f887b1880008218406f887b18b8008218486f887b18b0008218506f887b18a8008218586f887b18a0008379811a388317603308030a04955120ff8210d8008215d0008216c8009511e00032008b7910520931c8780883881f8488e05638000001253309180102390a180102ae8a093d081801020133082001028377c887073200009511f07b10087b158475010a02013d0714010251050750101053330012951110fe7b10e8017b15e0017b16d8019515f001951100f8951130f88411e064169569ff0795993949294006492938064929280680003307409568ff07958861064929300633008a00289efc951140fb951700047b70b8007b75b0007b76a8009515c0048411e064164926d8034926d0034926c003a0003307409568c0034926c80350101465fc4926f8034926f0034926e8034926e0038367e0030a0b01956b000382b7f00082b8f80082b9e80082bae000d49808d4a707d48707520721079517e08478e0648149181849181049180849089567a0037b685850101600fd8269a0038267a8038268b003826ab8037b6a78037b6870037b67680395678003956860037b6960035010186c2b9567000382799800827a9000827c8000827b8800d49a0788c82094b894785208ec00492658034926500349264803956840034926400333077b69507b6a487b6b407b6c3850101a98fb330820330750101c55fe50121eba3d0a07501220f33a8242088249d30a0b7b6a28d80a0adab80a6f946f22d8c708826950c8980898770597893bd49707988805c82707d82709c84808c89808c87a0a7b6a20d87a07c887077b67189517e0847be064b17b6b1001826730d87307826928d39008d89009da8709826c20d8c207826a18d3a408d8a40ada870ad3c207d48707da790a7bb37bb0087bb2107bb418510a2264b78268587b63507b60487b64407b62385010224afc501224dc3a647228a83a0700000295690004490912492608047b9718140700000000000000547b97109568000482675850102615fc9517e08478e06481491818491810491808490801956720037b68085010287dfb826920038267280382683003826a3803956b00027bbaf8007bb8f0007bb7e800956700039568e0027bb9e00050102ae52995670003827a18827b10827c08826200038ea78eb8dba7088ec7882920859901dbc709d4ab07db78095109ed004926d8024926d0024926c8029568c0024926c0020133077b6a507b6b487b6c407b623850102c05fa330820330750102ec2fc501230273c0a0750123260398242088249d30a0b7b6a28d80a0adab80a6f946f22d8c708826950c8980898770597893bd49707988805c82707d82709c84808c89808c87a0a7b6a20d87a07c887077b67189517e0847be064b17b6b1001826730d87307826928d39008d89009da8709826c20d8c207826a18d3a408d8a40ada870ad3c207d48707da790a7bb37bb0087bb2107bb418510a2264b78268587b63507b60487b64407b6238501034b7fa5012364939647228a84926300449262804492620040a1407000000544453556d7b6738049568200482670850103887fa33072001037b675883777b675033003a0a0382695833023c284c3882695850123c46384926b802956900027b98b0007b97a800330780009568a0027b9aa00050103ed9f88267500a03018269588097108298829908d48707d49707520731019567e00033084050104078f7826bf800826cf000826ae8008267e000d4ba09d4c708d49808988820d4c909979920d4980852087c034926d0004926c8004926c000140900000000a079c3089568c0007b69d8007b67587b6a507b6b487b6c405010425af8826858826748826a40d47a0a140b00000000010000001407fcffffff00000000d87807826950949794a751071f038387044926b8004926b0004926a000209568a0004926a8007b6a487b6b4050104409f8826a488269508268588267405012465a395107e7028387244926980049269000492680000c9568800049268800501048d7f78269581407bcffffff00000000d87907826850948782684894875107ac028397443a0828000250124a993950104ca7f733086482675850104e63fa83783307013309640a080114070010a5d4e80000007b67484926580449265004492648044926400402956780029568400450105058f8826298028263900282648802826b80029518e08488e06481826c48c8bc0cd8bc07c8740ad84a09da7709c83909d83907c827077b89107b8a087b8c1409ffef5a2b17ffffffd8b9099544019449d2230a95aa0194a97b8718520915024926780449267004492668044926600402956760045010525af88267503300540a038269583302562829368269585012562336492678027b6870027b676802956860027b6a60023307501058bcf649265802492650024926400203330720956840024926480250105a9ff69517e08477e07b67406471330840330750105c51f99518e08488e07b683850125e5b363300600a07826a38330262289636826a3850126290368268407b8a187b89107b8b087b879567200250106441f7826720028268380282692802826a3002826b48c87b0bd87b07c8790cd89c09da7709c8a909d8a907c88707956800047b8b80007b8c88007b8990007b879800956880048267405010666ef795670002330840501068bef4956b000282ba1882b81082b90882b750126ace355208d3004926f8014926f0014926e80114090010a5d4e80000009568e0017b69e0017b674850106cbaf582675033006e0a038269583302702850368269585012704a36d4780298aa206f99979820d4a808989920492698014926b8014926b0014926a8014926a0013a0a0800023a0b1000023a0c1800023a072000027b6ad8017b6bd0017b6cc8017b67c0017b6990017b6888013308209569c001956aa001956b80017b62800182674850107208f795676001330840501074eff3956b000182ba7882b87082b96882b760501276fe3451084f003308200102838833070133093300780a0833027a28b43550127ab13550107ceff450127e7b3650208000e5f4330824330750208200a1f783783307013309240a087b675833008400288af77b67585020840084f78377330833090a9567400133088000502086006ef3956c000182c75882c95082ca4882cb403e075801033e095001033e0a4801033e0b400103282ff38267583308502088003df78378330733093300780a0833027a281f3533071401027b67b800390714010255170407283d229517e08477e064714917184917104917087b67b000490795670010837780fe330833008c000a01019569ff079599398197640652475bcba58d0a2878145147419bd89593035247bb9c05a90a28631551473eed62ddcf0b524703defd060a2813135247b3a75e090a28b30f5147dd0d16186f025147dd72b8230708514767e53c3144075247190fc1401b0e9567381049074917f84917f04917e8956700108377200a0b33028e00956a38100195ab00ff82b7f80082a882b9f00082bae800d49808d4a707d48707510706285b218267b8008177330843ac7806284c219567ff0795772101330090003302f20128a3359567ff07957739827800017b6880008278f8007b6888008278f0007b6890008277e8007b67980050209200a6f13a084801037b68b8003a084001037b68b00038075001037b67a80033072001037b67a00083770a03018269a00082970882988199106f77987a206f88978b20d4ba0a9777206f99989920d497079888208269a800d398088269b000d39707d487078268b800d3a808d4870752070628741f9567ff07957701013308405020940078f1956aff0795aa3982a2e00082acd80082abd00082a7c800d42b09d4c708d49808988820d4c909979920d4980851080628221d64a9492ab800492ab000492aa800140a00000000a079c3089568ff079588e1007b9ac0007b67b8007b6bb0007b62a0007b6ca8005020960046f28268b8008267a800826aa000d47a0a50229800723352070628cd1c8387049569ff07959939330c4929a0004929980049298800209568ff079588c100492990007b6aa8007b6ba00050209a00f8f1826aa8008269b0008268b8008267a00050229c004433520706287e1c838724956aff0795aa39492a8000491a78491a68099568ff079588a100491a7050209e00b6f15022a000d232520706284c1c8397443a08500002956aff0795aa39491a507ba860140800000000000000727ba8589568ff0795888100491a483300ea002873f1492900074929f8064929f0064929e80695670010837720ff0a0b01956bff0795bb3995bc000682c7f80082b8000782c9f00082cae800d49808d4a707d4870751070628091f8267b80081775617030728fc1e492b2007492b1807492b1007492b080702956700049568ff07958841075020a200f3f1956800048287187b67b8008287107b67b0008287087b67a80082877b67a0009567e0033308405020a4009bef956b000382b7f80082b8f00082b9e80082bae0005022a600873251070628571b8267a000956900037b97c0008267a8007b97c8008267b0007b97d0009568c0038267b8007b97d80064a77b6ab8003300b001287df0956738104927e0004927d8004927d0004927c80095670010837700010a0b3302a800956a38100182a7d80082a8e00082a9d00082aac800d49808d4a707d4870751070628121e8267b80081775617030728051e9567ff07957761043308405020aa00e2ee9568ff07958839958900048297407b67188297387b67288297307b67208297287b67309518e08488e064814918184918104918084908019567ff07957741045020ac00c9f09567ff07957739827418048270100482732004827b080497473f980801d4870797383f984901d4980897093f98ba01d49a0c9839017b6bb00084bb019abad2a808d27a02d2a90984c77f7b67a800dab70c7b6c7088c7207b626094277b68687b6958d4980894877b6bb80088b801aa7806288d1c826928826a30d49a07826820826b18d4b808d48707987720d49808978820d4780851080628de1964a77b6090007b6498007b63a000826870956aff0795aa3995a900037b98e8008268607b98f0008268687b98f8009568ff07958821048269587ba900045020ae00f9ee8267b800510706289219826728826818d487071408e0ffffff00000000826a30d88a0882692094989478520806286b198268b000848800ff83a7209569ff07959939826a9000959b00037bba707bb868826898007bb8789568ff079588a103826aa0007bba80005020b0008cee330433034926b0008267a8008e779777057b67b800018268b80095873fd88708c884098477e0826030c870007b60b800d87007826220c8290ac87a00d3900ad8900bdaa70bd84907da8807c83707d83708826928c87909c89b0bd87907d89b09826318826ab000c83a0ac8a808c88707c8970c8ec78eb8dbc708d4cb078e09db780951090628451c8267308268b800d87807d32008d82009da8709826728d87b04d33c08d83c0ada840ad3b707d48707da790a510a0628141c9569ff079599398267b800959a00037ba7487b9050037bab583307409568ff07958881037bac607b60a8007b6ba0007b6cb0005020b2009aed9568ff07958839826718958900037b97826728958a00027ba7f8008267207ba7f0008267307ba7e8008267b0007b97208267a0007b97188267a8007b9710648b9567ff07957761039568ff07958841039569ff0795992103826ab8007bba08035020b4008d1d826aa000826ba8008262b800d4a2078268b000d4b808d48707987720d4a808978820d4870751070628ab179568ff07958839958c000382c73082c9407b69980064a98283280382ca38d3b704d8b70cd82300da400cc99a08c9c804d8c808d89a0a82699800c9a90a8269b000c99a0ac98a0ac9b707c90707c92308d4a707d44809d47909d44707989920977720d4970751070628401764277b68b8003300d8012855ef4929e0074929d8074929d0074929c8079567001083770a0b01956aff0795aa3995ab000782b7d80082b8e00082b9d00082bac800d49808d4a707d4870751070628261a8267b80081775617030728191a9567ff079577213308405020b600f7ea9568ff07958839828a8288f895670010827928f895670010827720f85022b800f92b51080628ab1695680010492818f895680010492810f895680010492808f89568ff07958801956a0010492a00f8067b67b8003300b00128d3eb4929400749293807492930074929280795670010837760ff0a0b01956aff0795aa3995ab000782b73882b84082b93082ba28d49808d4a707d48707510706286d198267b8008177330863ac7806285e199567e0073300ba003302f20128b92d8267f8077b67488267f0077b6780008267e8077b67b8008267e0077b67b0009567c0073300bc003302fc01288b2d8267d8077b67408267d0077b67388267c8077b67308267c0077b6728956700108377803308440a019568ff07958839958900078297607b67a0008297587b6798008297507b6790008297487b678800826780009777209877204926b8077b67587b67b0078267b8007b67a8079568a0078267b0007b67a00733075020be00c9ea4926980749269007492680070433072095688007492688075020c000abea33084033075020c20067ed9518e08488e07b68a8005022c4006f2a3300c6000a07826aa8003302c800285b2b826aa8005022c800542b33072001037b67a80083777b67503300ca000a038269a8003302cc00289f298269a8005022cc009829492678077b6870077b676807956860077b6a600733075020ce0030ea8267607b6758078267687b6750078267707b674807330720956840078269787b6940075020d00007ea33084033075020d200c3ec9518e08488e07b68785022d400cc293300d6000a073302d8002899295022d80096297bca80007bc9787bc8707bc768956720079568ff079588a1075020da00adea82633807826a300782602807826420078267a000d3730cd8730782689800d88a097b6978dac907826b9000d3b002d8b00b82698800d89409da290bd3a808d4c808da8b075107a70c9567a0043308405020dc002ce895680004828bb800828cb000828aa8008287a000d4ba09d4c708d49808988820d4c909979920d4980851080628d913492690044926880449268004140900000000a079c308956880047b6998047b67b8007b6ab0007b6ba8007b6ca0005020de0003e98268b8008267a800826aa000d47a0a5022e0002f2a520706288a138387044926780449267004492660042095686004492668047b6aa8007b6ba0005020e200c2e8826aa8008269b0008268b8008267a0005022e4000e2a5207062848138387244926580449265004492640041295684004492648045020e60088e85022e800a429520706281e138397443a087800023a09800002956a00047ba8387ba930140800000000000064657ba82895682004492620045020ea004ae83308648267b8005020ec0004eb83783307013309640a0801956738104927400149273801492730014927280195670010837760010a0b3302ee00956a38100195ab000182b73882b84082b93082ba28d49808d4a707d4870751070628c4158267b8008177330843ac780628b5159567ff07957741063300f0003302f201280c2a9568ff07958839828708067b67a000828710067b679800808718067b6790009567ff07957721063300f2003302fc0128da299567ff07957739957a000582a8e8007b68b80082a8f0007b68b0008078f8057b68a8004927e005826890007ba8d800826898007ba8d0009568ff07958801068269a0007ba9c80033075020f40049e79569ff079599394929c0054929b8054929a805043307209568ff079588e1054929b0055020f60020e733084033075020f800dce99518e08488e07b68a0005022fa00e4260a07826aa00082a71882a81082a90882aa6f777b67a0006f877b6798006f977b6790006fa77b6788009569ff079599394929a0058267a800959a00057ba798008267b0007ba790009568ff079588c1058267b8007ba7880033075020fc00a5e69569ff0795993982678800959b00057bb78000826790007bb778826798007bb7703307209568ff079588a105826aa0007bba685020fe006ce633084033075020000128e99518e08488e07b68b800502202013026330004010a073302060128952650220601922695bc00017bca607bc9587bc8507bc7489567ff079577810595688011502008010ee79567ff079577399579000550220a0179289577610533084050200c01c4e4956aff0795aa3995ac000550220e015b275107062889108267a00095a900057b97088267a8007b97108267b0007b97189568ff07958841058267b8007b972064b77b6bb8003300b00128afe551473182a0700a282f1395673810491740491738491730491728956700108377600a0b33021001956a38100182a73882a84082a93082aa28d49808d4a707d487075107062843138267b8008177330823ac78062834139567ff079577e101330012013302f201288b27956aff0795aa3995ab000182b7a80082b8b00080a9b801492aa0017bb998007bb890009568ff079588c1017bb7880033075020140112e59569ff07959939492980014929780149296801033307209568ff079588a1014929700150201601e9e4330840330750201801a5e79518e08488e07b68b80050221a01ad2433001c010a0733021e0128122550221e010f257bba607bb9587bb8507bb7489567ff079577810195688010502020018fe59567ff079577399579000150222201fa26957761013308405020240145e3956aff0795aa3995ac000150222601dc2552070d0f8267a00095a900017b97088267a8007b97108267b0007b97189568ff07958841018267b8007b972064b77b6bb8003300b0012832e44929a006492998064929900649298806956700108377c0fe0a0b01956aff0795aa3995ab000682b7980082b8a00082b9900082ba8800d49808d4a707d4870751070628c8118267b8008177330843ac780628b9119567a003330028013302f2012814268267a0037b67b0008267a8037b67a8008067b0037b67a0009517e08477e07b67b8006471956700108377e0fe3308240a01956aff0795aa3995ab000682b7c00082b8b80082b9b00082baa8007b6770826bb8007bb7187b68687bb8107b69587bb9087b6a507bba33072001037b67980083777b676033002a010a038269980033022c012895228269980050222c018e22492698037b6890037b678803956880037b6a8003330750202e0126e34926780349267003492660030433072095686003492668035020300108e3330840330750203201c4e59518e08488e07b68900050223401cc220a07826a900082a71882a81082a90882aa6f777b6790006f877b6788006f977b6780006fa77b6778492658038267a0007b6750038267a8007b674803956840038267b0007b6740033307502036019de28267787b673803826780007b673003826788007b67280333072095682003826990007b6920035020380171e2330840330750203a012de59518e08488e07b68900050223c0135220a07826a900082a71882a81082a90882aa6f776f886f996faa956bff0795bb3995bc00067bcae0007bc9d8007bc8d0007bc7c8009567ff07957701078268b80050203e017ae39567000333084050204001c9e0956b000382b71882b81082b90882ba50224201ba2352078d0c8267507b67e0028267587b67e8028267687b67f0029568e0028267707b67f80264a77b6ab80050204401bee1826760330046010a03826998003302480128502282699800502248014922d4780298aa206f99979820d4a808989920492698028267a0007b6790028267a8007b6788028267b0007b6780024926b8023a0a5800023a0b6000023a0c6800023a077000027b6ad8027b6bd0027b6cc8027b67c0027b69b0027b68a8023308209569c002956aa002956b80027b62a0028267b80050204a01f9e29567600233084050204c01dfdf956b000282ba7882b87082b96882b76050224e01ed205208a20b4926580249265002492648029568400249264002017b67b8003300b00128dce049298006492978064929700649296806956700108377a0fe0a0b01956aff0795aa3995ab000682b77882b8800082b97082ba68d49808d4a707d487075207780e8267b80081775417036e0e956720028268b0005020500178e195680002828930828a28828c38828720979b3f98a801d4b80297c83f7b69b000989901d498087b6aa00097a93f987a01d49a0b7b6ca80098c3017b679000847c019acad28a04d22a09d23a0a84b77f7b679800dac70b88b7209497d4a40894877b6cb80088c801ab78180e7b6b78956c00027bcb7b69687bc9087b64707b64100233078000956800027b6a607bca1850205201f1df8267b80052079b0782679000847700ff8268a000956900017b9888007b9780008267b0007b9790008267a8007b9798003307a0009568800150205401b3df330833073302330ac00082699800939aa00028f408956738104927c0004927b8004927b0004927a800956700108377e0000a0b33025601956a38100182a7b80082a8c00082a9b00082aaa800d49808d4a707d487075207330d8267b8008177541703290d9567ff07957781023308405020580104de9567ff07957739957900028298607b68b8008298587b68b0008298507b68a0008297487b67a80050205a0183dd8267b8008268a000d487078268a800648a8269b000d49808d47808988820d49707977720d48707520789093a094001033a084801033807500103956bff0795bb39492b400295bc00027bc7387bc8309568ff07958861027bc92864a750205c01afde3308208267a8003300b2012865e195673810492700014927f8004927f0004927e80095670010837720010a0b33025e01956a38100182a7f80082a8000182a9f00082aae800d49808d4a707d487075207360c8267b8008177330843ae78290c9567ff0795772105330060013302f201287f209568ff07958839958900048297e8007b67b8008297f0007b67b0008297f8007b67a800828700057b67a00095670010837740013308240a0195673810957900018298087b6898008298107b6890008298187b6888008297207b67800033072001037b677883770a0382697882970881981082996f77977a206f88988820d4a8089877206f99979a20d4a707989920956aff0795aa39826b800095ac00047bcba000826b88007bcb9800826b90007bcb9000826b98007bcb8800826ba0007bcbc000826ba8007bcbb800826bb0007bcbb000826bb8007bcba8007bc9d8007bc7d0007bc8c8009567ff07957701059568ff079588e1049569ff079599c104492ae00450206201d9119567ff079577a10433084050206401ebdb956aff0795aa3995ac000482cb800082c87882c97082c768d49b0bd48709d4b909989920d4b808978820d4980852089707492a6004492a5804492a4804019568ff0795888104492a50047b67b8003300b00128cddcd2a407d23008d287075117ffb0039517e0847ce064c182679800c97a078268a000c98308649a826978c99808d8b709c99808c9b70782699000c99009c9a9097b6c707bc7107bc90882678800c974077bc77bc81849261807826758956900077b97108267b8007b9708956800078267b0007b9733075020660155dc4926f8064926f0064926e8063307209568e0064926e006045020680137dc330840330750206a01f3de9518e08488e07b687850226c01fc1b0a07826a7882a71882a81082a90882aa6f777b67786f877b67686f977b67606fa77b672082675033006e010a038269a80033027001282e1b8269a80050227001271b4926d8067b68d0067b67c8069568c0067b6ac006330750207201bfdb8267207b67b8068267607b67b0068267687b67a8063307209568a0068269787b69a0065020740196db33084033075020760152de9518e08488e07b6878502278015b1b33007a010a0733027c0128281b50227c01251b7bcaa0007bc998007bc890007bc788009567ff079577c10782687050207e01b2dc492698068267587b6790068267b8007b678806956880068267b0007b67800633075020800121db4926780649267006492660060433072095686006492668065020820103db330840330750208401bfdd9518e08488e07b687850228601c81a330088010a07826a7833028a0128b51b826a7850228a01af1b82675033008c010a038269a80033028e0128051a8269a80050228e01fe19492658067b6850067b674806956840067b6a400633075020900196da8267607b6738068267687b6730068267707b672806330720956820068269787b692006502092016dda33084033075020940129dd9518e08488e07b687850229601321a330098010a0733029a0128ff1950229a01fc197bcac0007bc9b8007bc8b0007bc7a800956700069568ff079588e10750209c0110db956800068287187b67788287107b67708287087b676882877b67609567e00533084050209e01bcd8956b000582baf80082b8f00082b9e80082b7e0005022a001c61952087b048268607b68c0058268687b68c8058268707b68d0059568c0058269787b69d8057b67785020a201afd98267503300a4010a038269a8003302a60128411a8269a8005022a6013a1ad4780298aa206f99979820d4a80898992049267805492698058267587b6790058267b8007b6788058267b0007b6780053a0a5800023a0b6000023a0c6800023a077000027b6ab805956a00057babb0007baca8007ba7a0007ba9707ba8683308209569a005956a8005956b60057b6260058267785020a801eada82678800956b00057bb78267287bb7208267b0007bb740826790007bb7088267307bb7288267b8007bb748826798007bb7108267387bb730826780007bb7508267a0007bb7188267407bb738956740059568200595690005826a487bba585020aa01560d9567e0043308405020ac016cd7956b000482baf80082b8f00082b9e80082b7e0005022ae01761852082b034926d8044926d0044926c8049568c0044926c004017b67b8005020b00169d83308208267b8005020b20123db837833092033070a08014926f8014926f0014926e8019568e0014926e00133075020b40136d89517e08478e064814926b800330c330433023a038800023a099000023a009800023a07a000027b83187b6990007b89107b800864797b87140760ffffff000000007b67587b6850017b6998008267788269b800d87907826968d39c0a7b6cb000d89c09daa709826b70d8b407826a60d3a20cd8a20adac70ad3b407d4c707da790a510ae6009567c0017b62a8007b6388007b64a0007b6080005020b60189d8826ca0008267a800d4c7078268b800826958d898088269b00094989478510819028262d801956900018298d000829ac800829bc0008267b8008377a0007b9ba0007b9aa8007b98b0009568a0017b62b8015020b80140d78262a800826c980095cc0188c70182608000c87000d40c0788770182689000c88707d88708826a8800c88a0a8268b800958320d88309826bb000c89b04d8b40bda990b8268a000c88b0bd88b09c892028268507b800864c97b8c7b87107b8a187b6790007b63b800644c64b464a328e4fe8267b800957aa000d87a078269b000c87908d89809da7709c89407d84709c892020195a39fd8a30ac8a80c95ccff7b6c9800d38c09d88c08da9a08957affc88a0bd8ab08887701c97209c889027b6280008437e07b679000957a80007b6ab800d87a07c87c097b69b000d8c908da77087b6b8800c8b8087b68a800d8b807c872027b62a0007b6a60017b6968017b687001330740956860017b6278015020ba012dd6492618014926100149260801956b0001490b80008267a0007bb7388267a8007bb7308267b0007bb728956740019568200195690001826ab8007bba205020bc0144068267880082688000d48707140880ffffff0000000082699000d889088269980094989478510866826050018268580182634001826a48018269a800d8900bc9b8088267a000c978028268b000d38a0bd88a0c8267b800d87304dab40cc99009d8c90bc9b20bc9c90cc94a0ac98a0ac97308d4c809d4ba0ad4a909989920d4ca0a97aa20d4a90951092104009569ff079599394929e0034929d8034929d0039568ff07958801044929c8030133075020be0138d59517e0847be064b14926b800330433034926b0003a023000023a0a3800028268309587207b6750d88707826820c878097b6948d88908da77083a0c4000023a0748000264207bb2187b6a787bba1064c27bbc087b6b980064797bb7826728c878087b6840d87807826818c887077b6738017b6980007b6288007b6090008267708268b800d87807826960d39408d89409da8709826b68d8b307826a588268b000d3a80cd8a80adac70ad3b307d4c707da790a520a06280de69567ff079577e103826898007b63a8007b64a0005020c00158d58264b8008263a0008260a800826850c84807d88708826b48c83b09c88909d3b90cd8b90bdac80b826c40c80c08d8c802826cb000826a38c8ac0cc82c0cc88b0bd88b08c8c808d49808d4b709d48909d4b808989920978820d498085208aafe956cff0795cc3982c2c00395ca000382a8b80082a9b00082aba8007bab88007ba990007ba898009568ff079588c1037bc2a0037b64b8005020c201cad3826a800095aa0188a70182608800c87000d40a07887701826878c87804d8840882679000c887078268b800958320d88309826ba000c89b08d8b80bda990b8269a800c89b0bd89b09826cb000c89c0c7b6cb0006402826c98007bc00864a97bca644a7bca1064707bc7187b6a787b63b800648464b3288efe956700108377403308240a013302c401956a38100182a70882a81082a91882aa20956bff0795bb397bba207bb9187bb8107bb708826780007bb740826788007bb738826790007bb7309567ff079577619568ff07958841826998007bb9285020c601c50d330733085020c801abd58378330733090a0828d5009569ff07959939492998024929900249298802140700000000717b484e9568ff079588c1027b97a00233075020ca01a8d29568ff079588394928800249287802492868022264893307049568ff079588a102492970023300d4012879d25247b2c2567b669567381049278000491778491770491768956700108377a0000a0b3302cc01956a38100182a77882a8800082a97082aa68d49808d4a707d487075207108267b8008177330843ac780201330733085020ce01e8d4837833070133090a0828113308200102838833070133090a08014926f0004926e8004926e000140700000000717b484e9568e0007b67f80033075020d001e1d14926d8004926d0004926c000223307049568c0004926c8003300d40128bfd19567ff079577394927d8024927d0024927c8026479140700000000717b484e9568ff07958801037b97e00233075020d2018fd19568ff079588394928c0024928b8024928a8024164893307049568ff079588e1024929b0025020d40164d133082433075020d60120d483783307013309240a087b68b8003300d8012808d47b68b8005020d80101d483788169b80033070a0828def89567ff07957741023300da013302f201285c139568ff07958839958900028297087b67b8008297107b67b0008297187b67a8008297207b67a000956700108377c0003308240a013302dc01956a38100182a7880082a8900082a9980082aaa000956bff0795bb3995bc00017bcae0007bc9d8007bc8d0007bc7c8008267a0007bb700028267a8007bc7f8008267b0007bc7f0009567ff07957721029568ff07958801028269b8007bc9e8003300c601284f0b9511a07b10587b15507b16489515608411f0828910828c08828b82881897923f98ca01d42a02978a3f989901d49a0a97cc3f98b901d49c0c98830184bb019ab888b60184c97fd2a804d2280adbbc09d2380b88982094a8d4b40c94c8ab86167b797b7a087b74107b7b185022de0168123200491130491128491120140700000000717b484e9518207b173833075020e001e8cf49111849111049012233070464184911085020e201d1cf390818010256183f0b20031801024001330820010283883307013309243300e4010a0801951180fe7b1078017b1570017b166801951580018411f0828b10828a18828c0882827b1a107b1c40d4ac08d4b20ad48a0a98aa207b1b18d4b808978820d4a8087b17520893038297187b17708296108297087b176882977b17784921580149215001492148019518400149214001207b120864275020e60133cf821778d46707821870821968d49808d487079877207b1620d46808978820d4870752073a03951720018218785020e801c7cd821710821818d487071408e0ffffff00000000821b08d88b0882194094989478510809038219380182183001821a28018216200183b7207b1600017b1a507b1a08017b18587b181001951800017b19607b1918015020ea01a7ce492188004921800049219000492198008218789587207b1738d88707821968c879087b1830d89808da7708821720c878087b1828d87807821870c887077b1720821708957240d87207821840c878096493d88908da7708821718c878087b1840d87807821410c874047b16487b14787b19687b12700182178800d8670782165082198000d36908d86909da8709821b5882179000d8b700821c60821a9800d3ca08d8ca0ada800ad3b707d48707da790a510a3d0182173882188800c87808d87807821b3082198000c8b909c87909d3b90ad8b90bdaa70b82179000821a28c8a707d8a70a821c9800821620c86c0cc8ca0ac87b0bd87b07c8a707d49707d4b809d47909d4b707989920977720d497075207c0019517c0005020ec0150cc82187082178800c88707d88708821b6882198000c8b909c88909d3b90ad8b90bdaa80b821a4082189000c8a808d8a80a821c7882169800c86c0cc8ca0ac88b0bd88b08c8a808d49808d4b709d48909d4b808989920978820d49808821648520854018219d8008218d000821ac800821bc0007b1ba0007b1aa8007b18b0009518a0007b19b8005020ee01fecc82188800958720d88708821a8000c88a09d8a90ada880a82189000c88a0ad88a08821b9800c88b0b7b1b98007b1788007b1980007b1a9000821478821368821270288cfe821748c82707d82708c86309c88909d33902d8390ada280a821240c8b208d82802c84c0cc82c0cc88a0ad88a08c8c808d49808d4a709d48909d4a808989920978820d4980852089d0064364921f8004921f0004921e8009518e0004921e0005020f00155cc82184895871fd88708821a50c88a09d8a90ada880a821858c88a0ad88a08821b60c8b8088477e0821b70c8b707d8b70bc86909c8b909d3690cd86906dacb06821c40c8ca0ac8a606d8a60bd8ca0a821c78c8c808c8a808c8b808821a7ba77ba9087ba6107ba818955180fe821078018215700182166801951180013200003308043300f4010a013302f60128c40c5022f601c10c510a0b5022f801630d32003308200102838833070133093300fa010a083302fc0128df0d5022fc01dc0d3308243300fe010a013302000228840c50220002810c510a0b50220202230d3200330820010283883307013309330004020a0801951100fc951a00037ba0f8007ba5f0007ba6e800951500048411e06416808b10828a828c087b6a787b6b70d4ba087b6c68d4c8085108fc038298187b6898008298107b6890008298087b68880082987b6880008278108279088277140bffffffff00000000d28b0b8499ff8477ff492658037b67607b6740037b69587b694803956840037b6b507b6b5003330750200602d0ca49263803492630034926200303330720956820034926280350200802b2ca390818010256183f0b200318010240019517e08479e07b6948649133072001028377839933084033000a020a0701826a4882a71882a81082a90882aa50220c02530c7b6a78037b6970037b6868037b676003956700039568600350200e0244cb95680003828a188287108289088264000382689800d38a037b6a38d88a08826a9000d8a70b7b6b28da3b08826b8800d3b9027b6940d8b90c826b80007b6448d8b4097b6920da290c7b6730d3a709d439077b6c18da7c085208b6034926f8028267607b67e0028267587b67e8029568e0028267507b67f002330750201002d2c94926d8024926d0024926c002033307209568c0024926c80250201202b4c982679000826830c97807826918c997087b6830d8970782689800826938c98908826928c99808c978087b683882678800826840c97807826820c987077b674082678000826848c978087b684833084033075020140224cc9518e08488e07b6828502216022d09330018020a0701826a2882a71882a81082a90882aa50221a02160b7b6a98037b6990037b6888037b6780038267387b67b8038267307b67b0038267407b67a8038267487b67a003956780039568a00350201c0263ca4926b8028267707b67b0028267687b67a8029568a0028267787b67a002330750201e02d4c89517e08477e07b6748647133084033075020200285cb9518e08488e07b6840502222028e08330024020a07826a403302260228c608826a4050222602c0088268487b8a187b89107b8b087b87956780025020280270c9826788028268800282629802826a9002826b8800c87b0b826c8000c88c0cd88c08c88b0bd37b09d87b07da980782689000c8a80882699800c89202d8a809c82909c88707d88708c89808956900037b9cc0007b9bc8007b97d0007b98d8009568c00382674850202a027dc99567600233084050202c02ccc6956b000282b77882b87082b96882ba6050222e02bc0952076e02826780007b674002826788007b674802826790007b67500295684002826798007b67580264a77b6a980050203002bcc74926f801826770956800017b87f0008267687b87e8008267787b87e00049261802826750956c00027bc7108267587bc7083a07a800023a08b000023a09b80002826a607bca7bc7387bc8307bc9283a07c0000233082095692002956a0002956be0017bc720826798005020320220c9955100fc951700038270f8008275f0008276e8009511000432009567200133084050203402ecc5956b000182b93882ba3082b72882b820502236021a0952078e01492610014926080149260001140700000000a079c308956800017b6718018267980050203802e4c650223a024f0751075c01826798008377044926f8004926f0004926e000209568e0004926e80050203c02b8c6826780009577dc50223e02ea0651072901826798008377244926d8004926d0004926c000109568c0004926c8005020400285c61407bcffffff0000000050224202b4065107f300826798008377443a08d800023a09e000027b68b8004926a8007b69b0009568a0004926a000330054022842c69567c00133084050204402fec4956b000182b9d80082bad00082b7c80082b8c00050224602280852079c004926b0014926a8014926a001140700000000a079c3089568a0017b67b8018267980050204802f2c550224a025d0651076a8267980083770449269801492690014926800120956880014926880150204c02c7c5826780009577dc50224e02f905510738826798008377244926780149267001492660011495686001492668015020500295c51407bcffffff0000000050225202c40552070400826798008377443a08c800023a09d00002956a00017ba8587ba95014080000000065636e617ba8489568400149264001502054024bc5330864826798005020560205c88378330701330964330058020a0801951120fd951900027b90d8007b95d0007b96c8009515e0028411e06416807a108279827b087b69387b6a30d4a9077b6b28d4b7075107a9028287187b67588287107b67508287087b674882877b67404926780249267002492668024926600202956740029568600250205a02b3c58264580295680002828750828b40828c489518e08488e06481826a48c8ca0a826240c8b202d8b20bc8ba0ad3ca03d8ca09da3b09826b50c87b0bc89b0cd8bc03826058c84000d87b0bc80b0bc83b00d87c03d3040bd84004dab304d3c707d4b707da79047b8c107b8a087b827b80185204150349269802492690024926880249268002029567800250205c029dc5492638028267307b6730028267287b672802956820028267387b672002330750205e020ec449261802492610024926000203330720956800024926080250206002f0c39517e08477e07b67206471390818010256183f0b200318010240019517e08479e07b69186491330720010283778399330840330062020a07826a183302640228d503826a1850226402cf038268207b8a187b89107b8b087b879567e001502066027fc48267e8018268e0018262f801826af001826b48c87b0b826c40c88c0cd88c08c88b0bd37b09d87b07da9807826850c8a808826958c89202d8a809c82909c88707d88708c89808956900027b9ca0007b9ba8007b97b0007b98b8009568a0028267205020680290c49567c00133084050206a02dfc1956b000182bad80082b8d00082b9c80082b7c00050226c02e9025208c1018268407b68a0018268487b68a8018268507b68b0019568a0018269587b69b8017b675850206e02d2c249265801826730956c00017bc7508267287bc7488267387bc7404926780149267001492668013a07e800023a08f000023a09f80002492660017bc798007bc890007bc988003a0700010233082095698001956a6001956b40017bc78000826758502070023fc4955120fd951700028270d8008275d0008276c8009511e00232009567e000330840502072020bc18269f800826af0008267e8008268e0007b67507b6948d497077b6858d4a808d478089888207b6a40d4a707977720d487075207d6004926d0004926c8004926c000140700000000a079c3089568c0007b67d80082675850207402e9c1826748826940d47909140700000000010000007b67401407fcffffff00000000826858d8780782685094877b6948949751077b8267588377044926b8004926b0004926a000209568a0004926a8005020760295c18267409577dc826858d87807826850948782684894875107418267588377244926980049269000492680000c9568800049268800502078025bc11407bcffffff00000000826858d87807826850948782684894875207400050227a02f40150207c0231c150227e02bc025020800225c1390818010256183f0b2003180102400133082001028388330701330924330082020a08018267588377443a0808010250228402dd0250208602eac033086482675850208802a5c383783307013309640a08330733008a0228c4c3330750208a02bfc333070150208c02b6c382970881981082996f77977a206f88988820d48a0a9877206f98978920d4970798882032028264288247188248106f736f8082673895781fd87807826a40c87a09d8a90ada770a826c48c8ac07977a3b989b05d4ba0a97993b988805d49808c838087b6830d83808c88009c89a0a3202826a7882a71882a81082a90882aa6f776f886f996faa956bff0795bb3995bc000732026481837783893308403202d49a0ad48709d4a909989920d4a808978820d498083202826b10826440826048826350953301883701c87000d40307887701826838c88707d88708c88404320282a71882a81082a90882aa6f776f8b6f996faa320282689800d878078268900094878268880094873202826ab80082a71882a81082a90882aa6f776f886f996faa956b381032028267880082698000d47909140700000000010000007b6780001407fcffffff0000000082689800d878078268900094877b6988009497320282970881981082996f7a97a7206f889888203202492630014926280149262001140700000000717b484e956820017b6738013307320282a71882a81082a90882aa6f777b67786f877b67706f977b67686fa77b6760320282171082181814090000000001000000d37909d48909987a2088aa01948a939a32028269b8001407bcffffff00000000d879078268b00094878268a80094873202140b00000000010000001407fcffffff00000000d878078269b000949794a732029577dcd87807949794a7320282c74082c83882c93082cb28d49707d48b09d47909989920d48707977720d49707320249261801492610014926000111330704956800014926080132028219821a087b697b6a087b67107b68189551c08210388215308216289511403202d49707d48a09d47909989920d48707977720d4970732026f776f886f996faa320233094916687b68781408000000006f72657a7b687095686049166032027b6790007b698800d497077b689800d4a808d478089888207b6a8000d4a707977720d4870732029518e08488e07b682864818377838933082032029511c07b10387b15307b16289515408411e06476831732029551a082105882155082164895116032028298607b68b8008298587b68b0008298507b68a8008298487b68a0009567ff073202490a21a11a4292d210a1925429a42449922449922449922449922449922449922449922449922449922449922449aa9294529294942454a5242549922449922449922449922449922449922449922449499294a4aa24254994a4344942924249929294a4aa2a494952924a922222222549929424494a49124942a9a4a4a4489122458a14295294a488882849128490309426a521918888884891882011118988884811412242444434222292445292222122222222224444445211111125494821145292549224499224495226499224499292a4244908152291001209494912091111111111112249544a924444442849420aa19092a4922449922449923249922449929424254942a888104044424849491222222222a449492212222292244944440011491292248000928a448488242449884484889000925224849084920690880811212222294992244901242525222244484a921011118588908890a4149284942421498a101191244992888888844888248588880022129292242425898888104288888848444442244492840ca59484108214949448826a4410491242084941959210219294248a281a8940020209082490808080802849a48811452449a2241111894444444404214284085123a594a4249148224922124422229224495244041011111141442448122922444444101111248944222241902444920012914844444423111191248922111122228844225144828888089288888888882212111111458c8848924491880491489224494a928820121191244992444a9248929214499224499224454422118944442288244900492a89482422894444041551622449124992244992248924a9a424892449922449221189242211114412252291884422454444440411914892248944124592244922912449922449118988881a8988882449148924889488882089888888448848444444239124499228494424121111111189442291488a44229148441289888828880889085290441045248210258a480411115190482412892005498228124492880822222289249144922422414444244992242202888888082222419288101111444404492242441024092192001211248292464444441123499224519288884422222222221289888888888888882888448444449082248222494551149188888888888248444422898804294822882241244944049108224124822422914844a488041249122962922449a224111189444444444414442242222248411241140992242282480491201241442412898814918888884622222249122589884444442451448a444444224992429428221144444441444844908224822249455194888888888244444422224841124191a4aa48444444441009224941241289481441a28844909424222222228410222222121111412488240922222244242222a291482449220a11412449924412492291922492522412258988248888888888888808aa884844444414312222494421224124128944228848144992440821129144a4201189888888224644248928111191484444444444a48844229108a924959294241211111111111111111111111111414482484492244912112122229224244522254922491229914824a2828848842005498292a4524a491491082222a22091482412410a920451248888884810898888288808890852902488124990282211444444412291482482142409a24810111111412449522241444404914824229120514422484a1291888808218488884812119120a224124922912412492222092241444404111111224804a5464444415254218490482a8064249244922449928888882022914445444444444444109144924822914492489254125125229124c9248924499244222289241249444422828888884422111109221240242a11119144228924499224499218898888509014152124499224849294a82449322212499224912449121111414424499224492449922449221211111111111144124992442289249144a2489592a84452c424892449241289442241055589444400115110890825222281882411454c244912252a2855283522028828880889884422a20022a22012114a440429282922111495888844229148242252c48888484444444444444444449224494a922449929224492925094a12405290242508110c25d188884892922449922249522222420a922449924424481240928a8888442211892022224992244992244952922449928c249224924892241249224912492249922449121124924492249124922449922411111111114124912492484444922449922449922449922822228224499224499224499224492a494444345124485028459120512448502845232222524a92241289449114409248242251101112118408262954a249521011111144928824912492449224492212894814448444049124492449124992489282244134490a222212894422228844221205494a4192204a244192144144442492248944922411111109224124491011111111510491884422124942082949484424828888882241244910111140440441442242441009221211228200828884101111914810111141444400111104894484882012241211228200828c84104900890812414934222222a524492249921211212288489294244992244992244992a444448408229188444144484490a410c124854a944882242982888824499224499224222222412488888820128944241244224912112184888890888804111111458288882449922411110144244812400248524a1211228224492949448808024852ca20088210c150124d4210244149450a1224959294a424952449922449922425495591a84a4992a4244992244949aa2a12454592aaa28804100144a2a8a4528a8800222a49a59452124092541140a2a8000248544995244992a48890884a499224254992aa2a09204911892491a424554a92a44a92944824121100",
          "opcodes": ""
        },
        "methodIdentifiers": {
          "allowance(address,address)": "dd62ed3e",
          "approve(address,uint256)": "095ea7b3",
          "balanceOf(address)": "70a08231",
          "decimals()": "313ce567",
          "faucet(address,uint256)": "7b56c2b2",
          "mint(address,uint256)": "40c10f19",
          "name()": "06fdde03",
          "owner()": "8da5cb5b",
          "symbol()": "95d89b41",
          "totalSupply()": "18160ddd",
          "transfer(address,uint256)": "a9059cbb",
          "transferFrom(address,address,uint256)": "23b872dd"
        }
      },
      "hash": "1628e632f3931be0811083f5fabc88bf570e1656b244e48fc0e2948b6e444f16",
      "factoryDependencies": {}
    }
  }
}