{
  "contracts/Kodapay.sol": {
    "Kodapay": {
      "abi": [
        {
          "inputs": [
            {
              "internalType": "address",
              "name": "_usdtToken",
              "type": "address"
            }
          ],
          "stateMutability": "nonpayable",
          "type": "constructor"
        },
        {
          "anonymous": false,
          "inputs": [
            {
              "indexed": true,
              "internalType": "address",
              "name": "user",
              "type": "address"
            },
            {
              "indexed": false,
              "internalType": "uint256",
              "name": "amount",
              "type": "uint256"
            }
          ],
          "name": "Deposited",
          "type": "event"
        },
        {
          "anonymous": false,
          "inputs": [
            {
              "indexed": true,
              "internalType": "uint256",
              "name": "subId",
              "type": "uint256"
            },
            {
              "indexed": true,
              "internalType": "address",
              "name": "executor",
              "type": "address"
            },
            {
              "indexed": false,
              "internalType": "uint256",
              "name": "amount",
              "type": "uint256"
            },
            {
              "indexed": false,
              "internalType": "uint256",
              "name": "fee",
              "type": "uint256"
            }
          ],
          "name": "PaymentExecuted",
          "type": "event"
        },
        {
          "anonymous": false,
          "inputs": [
            {
              "indexed": true,
              "internalType": "uint256",
              "name": "subId",
              "type": "uint256"
            }
          ],
          "name": "SubscriptionCancelled",
          "type": "event"
        },
        {
          "anonymous": false,
          "inputs": [
            {
              "indexed": true,
              "internalType": "uint256",
              "name": "subId",
              "type": "uint256"
            },
            {
              "indexed": true,
              "internalType": "address",
              "name": "owner",
              "type": "address"
            },
            {
              "indexed": true,
              "internalType": "address",
              "name": "receiver",
              "type": "address"
            },
            {
              "indexed": false,
              "internalType": "uint256",
              "name": "amount",
              "type": "uint256"
            },
            {
              "indexed": false,
              "internalType": "uint256",
              "name": "frequency",
              "type": "uint256"
            }
          ],
          "name": "SubscriptionCreated",
          "type": "event"
        },
        {
          "anonymous": false,
          "inputs": [
            {
              "indexed": true,
              "internalType": "address",
              "name": "user",
              "type": "address"
            },
            {
              "indexed": false,
              "internalType": "uint256",
              "name": "amount",
              "type": "uint256"
            }
          ],
          "name": "Withdrawn",
          "type": "event"
        },
        {
          "inputs": [],
          "name": "BASIS_POINTS",
          "outputs": [
            {
              "internalType": "uint256",
              "name": "",
              "type": "uint256"
            }
          ],
          "stateMutability": "view",
          "type": "function"
        },
        {
          "inputs": [],
          "name": "EXECUTION_FEE_BPS",
          "outputs": [
            {
              "internalType": "uint256",
              "name": "",
              "type": "uint256"
            }
          ],
          "stateMutability": "view",
          "type": "function"
        },
        {
          "inputs": [
            {
              "internalType": "uint256",
              "name": "subId",
              "type": "uint256"
            }
          ],
          "name": "cancelSubscription",
          "outputs": [],
          "stateMutability": "nonpayable",
          "type": "function"
        },
        {
          "inputs": [
            {
              "internalType": "address",
              "name": "receiver",
              "type": "address"
            },
            {
              "internalType": "uint256",
              "name": "amount",
              "type": "uint256"
            },
            {
              "internalType": "uint256",
              "name": "frequency",
              "type": "uint256"
            }
          ],
          "name": "createSubscription",
          "outputs": [
            {
              "internalType": "uint256",
              "name": "",
              "type": "uint256"
            }
          ],
          "stateMutability": "nonpayable",
          "type": "function"
        },
        {
          "inputs": [
            {
              "internalType": "uint256",
              "name": "amount",
              "type": "uint256"
            }
          ],
          "name": "deposit",
          "outputs": [],
          "stateMutability": "nonpayable",
          "type": "function"
        },
        {
          "inputs": [
            {
              "internalType": "uint256",
              "name": "subId",
              "type": "uint256"
            }
          ],
          "name": "executePayment",
          "outputs": [
            {
              "internalType": "bool",
              "name": "",
              "type": "bool"
            }
          ],
          "stateMutability": "nonpayable",
          "type": "function"
        },
        {
          "inputs": [
            {
              "internalType": "uint256",
              "name": "subId",
              "type": "uint256"
            }
          ],
          "name": "getSubscription",
          "outputs": [
            {
              "internalType": "address",
              "name": "owner",
              "type": "address"
            },
            {
              "internalType": "address",
              "name": "receiver",
              "type": "address"
            },
            {
              "internalType": "uint256",
              "name": "amount",
              "type": "uint256"
            },
            {
              "internalType": "uint256",
              "name": "frequency",
              "type": "uint256"
            },
            {
              "internalType": "uint256",
              "name": "lastPayment",
              "type": "uint256"
            },
            {
              "internalType": "bool",
              "name": "active",
              "type": "bool"
            }
          ],
          "stateMutability": "view",
          "type": "function"
        },
        {
          "inputs": [
            {
              "internalType": "address",
              "name": "user",
              "type": "address"
            }
          ],
          "name": "getUserSubscriptions",
          "outputs": [
            {
              "internalType": "uint256[]",
              "name": "",
              "type": "uint256[]"
            }
          ],
          "stateMutability": "view",
          "type": "function"
        },
        {
          "inputs": [
            {
              "internalType": "uint256",
              "name": "subId",
              "type": "uint256"
            }
          ],
          "name": "isPaymentDue",
          "outputs": [
            {
              "internalType": "bool",
              "name": "",
              "type": "bool"
            }
          ],
          "stateMutability": "view",
          "type": "function"
        },
        {
          "inputs": [],
          "name": "nextSubscriptionId",
          "outputs": [
            {
              "internalType": "uint256",
              "name": "",
              "type": "uint256"
            }
          ],
          "stateMutability": "view",
          "type": "function"
        },
        {
          "inputs": [
            {
              "internalType": "uint256",
              "name": "",
              "type": "uint256"
            }
          ],
          "name": "subscriptions",
          "outputs": [
            {
              "internalType": "address",
              "name": "owner",
              "type": "address"
            },
            {
              "internalType": "address",
              "name": "receiver",
              "type": "address"
            },
            {
              "internalType": "uint256",
              "name": "amount",
              "type": "uint256"
            },
            {
              "internalType": "uint256",
              "name": "frequency",
              "type": "uint256"
            },
            {
              "internalType": "uint256",
              "name": "lastPayment",
              "type": "uint256"
            },
            {
              "internalType": "bool",
              "name": "active",
              "type": "bool"
            }
          ],
          "stateMutability": "view",
          "type": "function"
        },
        {
          "inputs": [],
          "name": "usdtToken",
          "outputs": [
            {
              "internalType": "contract IERC20",
              "name": "",
              "type": "address"
            }
          ],
          "stateMutability": "view",
          "type": "function"
        },
        {
          "inputs": [
            {
              "internalType": "address",
              "name": "",
              "type": "address"
            }
          ],
          "name": "userBalances",
          "outputs": [
            {
              "internalType": "uint256",
              "name": "",
              "type": "uint256"
            }
          ],
          "stateMutability": "view",
          "type": "function"
        },
        {
          "inputs": [
            {
              "internalType": "address",
              "name": "",
              "type": "address"
            },
            {
              "internalType": "uint256",
              "name": "",
              "type": "uint256"
            }
          ],
          "name": "userSubscriptions",
          "outputs": [
            {
              "internalType": "uint256",
              "name": "",
              "type": "uint256"
            }
          ],
          "stateMutability": "view",
          "type": "function"
        },
        {
          "inputs": [
            {
              "internalType": "uint256",
              "name": "amount",
              "type": "uint256"
            }
          ],
          "name": "withdraw",
          "outputs": [],
          "stateMutability": "nonpayable",
          "type": "function"
        }
      ],
      "storageLayout": {
        "storage": [
          {
            "astId": 10,
            "contract": "contracts/Kodapay.sol:Kodapay",
            "label": "_status",
            "offset": 0,
            "slot": "0",
            "type": "t_uint256"
          },
          {
            "astId": 174,
            "contract": "contracts/Kodapay.sol:Kodapay",
            "label": "userBalances",
            "offset": 0,
            "slot": "1",
            "type": "t_mapping(t_address,t_uint256)"
          },
          {
            "astId": 179,
            "contract": "contracts/Kodapay.sol:Kodapay",
            "label": "subscriptions",
            "offset": 0,
            "slot": "2",
            "type": "t_mapping(t_uint256,t_struct(Subscription)170_storage)"
          },
          {
            "astId": 182,
            "contract": "contracts/Kodapay.sol:Kodapay",
            "label": "nextSubscriptionId",
            "offset": 0,
            "slot": "3",
            "type": "t_uint256"
          },
          {
            "astId": 187,
            "contract": "contracts/Kodapay.sol:Kodapay",
            "label": "userSubscriptions",
            "offset": 0,
            "slot": "4",
            "type": "t_mapping(t_address,t_array(t_uint256)dyn_storage)"
          }
        ],
        "types": {
          "t_address": {
            "encoding": "inplace",
            "label": "address",
            "numberOfBytes": "20"
          },
          "t_array(t_uint256)dyn_storage": {
            "base": "t_uint256",
            "encoding": "dynamic_array",
            "label": "uint256[]",
            "numberOfBytes": "32"
          },
          "t_bool": {
            "encoding": "inplace",
            "label": "bool",
            "numberOfBytes": "1"
          },
          "t_mapping(t_address,t_array(t_uint256)dyn_storage)": {
            "encoding": "mapping",
            "key": "t_address",
            "label": "mapping(address => uint256[])",
            "numberOfBytes": "32",
            "value": "t_array(t_uint256)dyn_storage"
          },
          "t_mapping(t_address,t_uint256)": {
            "encoding": "mapping",
            "key": "t_address",
            "label": "mapping(address => uint256)",
            "numberOfBytes": "32",
            "value": "t_uint256"
          },
          "t_mapping(t_uint256,t_struct(Subscription)170_storage)": {
            "encoding": "mapping",
            "key": "t_uint256",
            "label": "mapping(uint256 => struct Kodapay.Subscription)",
            "numberOfBytes": "32",
            "value": "t_struct(Subscription)170_storage"
          },
          "t_struct(Subscription)170_storage": {
            "encoding": "inplace",
            "label": "struct Kodapay.Subscription",
            "members": [
              {
                "astId": 159,
                "contract": "contracts/Kodapay.sol:Kodapay",
                "label": "owner",
                "offset": 0,
                "slot": "0",
                "type": "t_address"
              },
              {
                "astId": 161,
                "contract": "contracts/Kodapay.sol:Kodapay",
                "label": "receiver",
                "offset": 0,
                "slot": "1",
                "type": "t_address"
              },
              {
                "astId": 163,
                "contract": "contracts/Kodapay.sol:Kodapay",
                "label": "amount",
                "offset": 0,
                "slot": "2",
                "type": "t_uint256"
              },
              {
                "astId": 165,
                "contract": "contracts/Kodapay.sol:Kodapay",
                "label": "frequency",
                "offset": 0,
                "slot": "3",
                "type": "t_uint256"
              },
              {
                "astId": 167,
                "contract": "contracts/Kodapay.sol:Kodapay",
                "label": "lastPayment",
                "offset": 0,
                "slot": "4",
                "type": "t_uint256"
              },
              {
                "astId": 169,
                "contract": "contracts/Kodapay.sol:Kodapay",
                "label": "active",
                "offset": 0,
                "slot": "5",
                "type": "t_bool"
              }
            ],
            "numberOfBytes": "192"
          },
          "t_uint256": {
            "encoding": "inplace",
            "label": "uint256",
            "numberOfBytes": "32"
          }
        }
      },
      "evm": {
        "assembly": "// RO data = 0/0 bytes\n// RW data = 492/66112 bytes\n// Stack size = 32768 bytes\n\n// Instructions = 9568\n// Code size = 34209 bytes\n\n      : @0 (gas: 7)\n     0: sp = sp + 0xffffffffffffffe8\n     3: u64 [sp + 0x10] = ra\n     6: u64 [sp + 0x8] = s0\n     9: u64 [sp] = s1\n    11: s1 = 0x201e8\n    16: s0 = i32 [0x201e8]\n    21: jump @3 if s0 == 0\n      : @1 (gas: 5)\n    24: a0 = 0x30220\n    29: i32 a0 = a0 + 0\n    31: i32 a1 = s1 + 0\n    33: ecalli 7 // 'get_immutable_data'\n    35: fallthrough\n      : @2 (gas: 3)\n    36: a0 = i32 [0x201e8]\n    41: u32 [0x201e8] = 0\n    46: jump @4 if a0 <u s0\n      : @3 (gas: 5)\n    49: ra = u64 [sp + 0x10]\n    52: s0 = u64 [sp + 0x8]\n    55: s1 = u64 [sp]\n    57: sp = sp + 0x18\n    60: ret\n      : @4 (gas: 1)\n    62: trap\n      : @5 (gas: 2)\n    63: a1 = i32 [0x201e8]\n    68: jump @64 if a1 == 0\n      : @6 (gas: 4)\n    72: a0 = 0x30220\n    77: i32 a0 = a0 + 0\n    79: ecalli 15 // 'set_immutable_data'\n    81: jump @64\n      : @7 (gas: 8)\n    84: sp = sp + 0xfffffffffffffff0\n    87: u64 [sp + 0x8] = ra\n    90: u64 [sp] = s0\n    92: a2 = a1\n    94: s0 = a0\n    96: a1 = 0x20\n    99: a0 = a2\n   101: ra = 2, jump @20\n      : @8 [@dyn 1] (gas: 100)\n   106: a1 = u8 [a0 + 0x1]\n   109: a2 = u8 [a0]\n   111: a3 = u8 [a0 + 0x2]\n   114: a4 = u8 [a0 + 0x3]\n   117: a1 = a1 << 0x8\n   120: a1 = a1 | a2\n   123: a3 = a3 << 0x10\n   126: a4 = a4 << 0x18\n   129: a3 = a3 | a4\n   132: a1 = a1 | a3\n   135: a2 = u8 [a0 + 0x5]\n   138: a3 = u8 [a0 + 0x4]\n   141: a4 = u8 [a0 + 0x6]\n   144: a5 = u8 [a0 + 0x7]\n   147: a2 = a2 << 0x8\n   150: a2 = a2 | a3\n   153: a4 = a4 << 0x10\n   156: a5 = a5 << 0x18\n   159: a4 = a4 | a5\n   162: a2 = a2 | a4\n   165: a2 = a2 << 0x20\n   168: t0 = a2 | a1\n   171: a2 = u8 [a0 + 0x9]\n   174: a3 = u8 [a0 + 0x8]\n   177: a4 = u8 [a0 + 0xa]\n   180: a5 = u8 [a0 + 0xb]\n   183: a2 = a2 << 0x8\n   186: a2 = a2 | a3\n   189: a4 = a4 << 0x10\n   192: a5 = a5 << 0x18\n   195: a4 = a4 | a5\n   198: a2 = a2 | a4\n   201: a3 = u8 [a0 + 0xd]\n   204: a4 = u8 [a0 + 0xc]\n   207: a5 = u8 [a0 + 0xe]\n   210: a1 = u8 [a0 + 0xf]\n   213: a3 = a3 << 0x8\n   216: a3 = a3 | a4\n   219: a5 = a5 << 0x10\n   222: a1 = a1 << 0x18\n   225: a1 = a1 | a5\n   228: a1 = a1 | a3\n   231: a1 = a1 << 0x20\n   234: t1 = a1 | a2\n   237: a1 = u8 [a0 + 0x11]\n   240: a3 = u8 [a0 + 0x10]\n   243: a4 = u8 [a0 + 0x12]\n   246: a5 = u8 [a0 + 0x13]\n   249: a1 = a1 << 0x8\n   252: a1 = a1 | a3\n   255: a4 = a4 << 0x10\n   258: a5 = a5 << 0x18\n   261: a4 = a4 | a5\n   264: a1 = a1 | a4\n   267: a3 = u8 [a0 + 0x15]\n   270: a4 = u8 [a0 + 0x14]\n   273: a5 = u8 [a0 + 0x16]\n   276: a2 = u8 [a0 + 0x17]\n   279: a3 = a3 << 0x8\n   282: a3 = a3 | a4\n   285: a5 = a5 << 0x10\n   288: a2 = a2 << 0x18\n   291: a2 = a2 | a5\n   294: a2 = a2 | a3\n   297: a2 = a2 << 0x20\n   300: a3 = a2 | a1\n   303: a1 = u8 [a0 + 0x19]\n   306: a2 = u8 [a0 + 0x18]\n   309: a4 = u8 [a0 + 0x1a]\n   312: a5 = u8 [a0 + 0x1b]\n   315: a1 = a1 << 0x8\n   318: a1 = a1 | a2\n   321: a4 = a4 << 0x10\n   324: a5 = a5 << 0x18\n   327: a4 = a4 | a5\n   330: a1 = a1 | a4\n   333: a2 = u8 [a0 + 0x1d]\n   336: a4 = u8 [a0 + 0x1c]\n   339: a5 = u8 [a0 + 0x1e]\n   342: a0 = u8 [a0 + 0x1f]\n   345: a2 = a2 << 0x8\n   348: a2 = a2 | a4\n   351: a5 = a5 << 0x10\n   354: a0 = a0 << 0x18\n   357: a0 = a0 | a5\n   360: a0 = a0 | a2\n   363: a0 = a0 << 0x20\n   366: a0 = a0 | a1\n   369: a0 = reverse a0\n   371: a1 = reverse a3\n   373: a2 = reverse t1\n   375: a3 = reverse t0\n   377: u64 [s0 + 0x18] = a3\n   380: u64 [s0 + 0x10] = a2\n   383: u64 [s0 + 0x8] = a1\n   386: u64 [s0] = a0\n   388: ra = u64 [sp + 0x8]\n   391: s0 = u64 [sp]\n   393: sp = sp + 0x10\n   396: ret\n      : @9 (gas: 12)\n   398: sp = sp + 0xffffffffffffffd8\n   401: u64 [sp + 0x20] = ra\n   404: u64 [sp + 0x18] = s0\n   407: u64 [sp + 0x10] = s1\n   410: a2 = u64 [a1]\n   412: u64 [sp + 0x8] = a2\n   415: a2 = u64 [a1 + 0x8]\n   418: u64 [sp] = a2\n   420: s0 = u64 [a1 + 0x10]\n   423: s1 = u64 [a1 + 0x18]\n   426: a1 = 0x20\n   429: ra = 4, jump @20\n      : @10 [@dyn 2] (gas: 71)\n   434: a1 = reverse s1\n   436: a2 = reverse s0\n   438: a3 = u64 [sp]\n   440: a3 = reverse a3\n   442: a4 = u64 [sp + 0x8]\n   445: a4 = reverse a4\n   447: u8 [a0 + 0x18] = a4\n   450: u8 [a0 + 0x10] = a3\n   453: u8 [a0 + 0x8] = a2\n   456: u8 [a0] = a1\n   458: a5 = a4 >> 0x38\n   461: u8 [a0 + 0x1f] = a5\n   464: a5 = a4 >> 0x30\n   467: u8 [a0 + 0x1e] = a5\n   470: a5 = a4 >> 0x28\n   473: u8 [a0 + 0x1d] = a5\n   476: a5 = a4 >> 0x20\n   479: u8 [a0 + 0x1c] = a5\n   482: a5 = a4 >> 0x18\n   485: u8 [a0 + 0x1b] = a5\n   488: a5 = a4 >> 0x10\n   491: u8 [a0 + 0x1a] = a5\n   494: a4 = a4 >> 0x8\n   497: u8 [a0 + 0x19] = a4\n   500: a4 = a3 >> 0x38\n   503: u8 [a0 + 0x17] = a4\n   506: a4 = a3 >> 0x30\n   509: u8 [a0 + 0x16] = a4\n   512: a4 = a3 >> 0x28\n   515: u8 [a0 + 0x15] = a4\n   518: a4 = a3 >> 0x20\n   521: u8 [a0 + 0x14] = a4\n   524: a4 = a3 >> 0x18\n   527: u8 [a0 + 0x13] = a4\n   530: a4 = a3 >> 0x10\n   533: u8 [a0 + 0x12] = a4\n   536: a3 = a3 >> 0x8\n   539: u8 [a0 + 0x11] = a3\n   542: a3 = a2 >> 0x38\n   545: u8 [a0 + 0xf] = a3\n   548: a3 = a2 >> 0x30\n   551: u8 [a0 + 0xe] = a3\n   554: a3 = a2 >> 0x28\n   557: u8 [a0 + 0xd] = a3\n   560: a3 = a2 >> 0x20\n   563: u8 [a0 + 0xc] = a3\n   566: a3 = a2 >> 0x18\n   569: u8 [a0 + 0xb] = a3\n   572: a3 = a2 >> 0x10\n   575: u8 [a0 + 0xa] = a3\n   578: a2 = a2 >> 0x8\n   581: u8 [a0 + 0x9] = a2\n   584: a2 = a1 >> 0x38\n   587: u8 [a0 + 0x7] = a2\n   590: a2 = a1 >> 0x30\n   593: u8 [a0 + 0x6] = a2\n   596: a2 = a1 >> 0x28\n   599: u8 [a0 + 0x5] = a2\n   602: a2 = a1 >> 0x20\n   605: u8 [a0 + 0x4] = a2\n   608: a2 = a1 >> 0x18\n   611: u8 [a0 + 0x3] = a2\n   614: a2 = a1 >> 0x10\n   617: u8 [a0 + 0x2] = a2\n   620: a1 = a1 >> 0x8\n   623: u8 [a0 + 0x1] = a1\n   626: ra = u64 [sp + 0x20]\n   629: s0 = u64 [sp + 0x18]\n   632: s1 = u64 [sp + 0x10]\n   635: sp = sp + 0x28\n   638: ret\n      : @11 (gas: 48)\n   640: sp = sp + 0xffffffffffffffa0\n   643: u64 [sp + 0x58] = ra\n   646: u64 [sp + 0x50] = s0\n   649: u64 [sp + 0x48] = s1\n   652: s0 = sp + 0x60\n   655: sp = sp & 0xffffffffffffffe0\n   658: s1 = a0\n   660: a0 = u64 [a1 + 0x18]\n   663: a2 = u64 [a1 + 0x10]\n   666: a3 = u64 [a1 + 0x8]\n   669: a1 = u64 [a1]\n   671: a0 = reverse a0\n   673: a2 = reverse a2\n   675: a3 = reverse a3\n   677: a1 = reverse a1\n   679: u64 [sp + 0x18] = a1\n   682: u64 [sp + 0x10] = a3\n   685: u64 [sp + 0x8] = a2\n   688: u64 [sp] = a0\n   690: u64 [sp + 56] = 0\n   693: u64 [sp + 48] = 0\n   696: u64 [sp + 40] = 0\n   699: u64 [sp + 32] = 0\n   702: u32 [sp + 64] = 0x20\n   706: i32 a1 = sp + 0\n   708: i32 a3 = sp + 0x20\n   711: i32 a4 = sp + 0x40\n   714: a2 = 0xffffffffffffffff\n   717: a0 = 0\n   719: ecalli 8 // 'get_storage'\n   721: a0 = u64 [sp + 0x38]\n   724: a1 = u64 [sp + 0x30]\n   727: a2 = u64 [sp + 0x28]\n   730: a3 = u64 [sp + 0x20]\n   733: a0 = reverse a0\n   735: a1 = reverse a1\n   737: a2 = reverse a2\n   739: a3 = reverse a3\n   741: u64 [s1 + 0x18] = a3\n   744: u64 [s1 + 0x10] = a2\n   747: u64 [s1 + 0x8] = a1\n   750: u64 [s1] = a0\n   752: sp = s0 + 0xffffffffffffffa0\n   755: ra = u64 [sp + 0x58]\n   758: s0 = u64 [sp + 0x50]\n   761: s1 = u64 [sp + 0x48]\n   764: sp = sp + 0x60\n   767: ret\n      : @12 (gas: 40)\n   769: sp = sp + 0xffffffffffffffa0\n   772: u64 [sp + 0x58] = ra\n   775: u64 [sp + 0x50] = s0\n   778: s0 = sp + 0x60\n   781: sp = sp & 0xffffffffffffffe0\n   784: t0 = u64 [a0]\n   786: a3 = u64 [a0 + 0x8]\n   789: a4 = u64 [a0 + 0x10]\n   792: a0 = u64 [a0 + 0x18]\n   795: t1 = u64 [a1]\n   797: a2 = u64 [a1 + 0x8]\n   800: a5 = u64 [a1 + 0x10]\n   803: a1 = u64 [a1 + 0x18]\n   806: t2 = reverse a0\n   808: a4 = reverse a4\n   810: a3 = reverse a3\n   812: a0 = reverse t0\n   814: t0 = reverse a1\n   816: a5 = reverse a5\n   818: a2 = reverse a2\n   820: a1 = reverse t1\n   822: u64 [sp + 0x18] = a0\n   825: u64 [sp + 0x10] = a3\n   828: u64 [sp + 0x8] = a4\n   831: u64 [sp] = t2\n   833: u64 [sp + 0x38] = a1\n   836: u64 [sp + 0x30] = a2\n   839: u64 [sp + 0x28] = a5\n   842: u64 [sp + 0x20] = t0\n   845: i32 a1 = sp + 0\n   847: i32 a3 = sp + 0x20\n   850: a2 = 0xffffffffffffffff\n   853: a4 = 0x20\n   856: a0 = 0\n   858: ecalli 16 // 'set_storage'\n   860: sp = s0 + 0xffffffffffffffa0\n   863: ra = u64 [sp + 0x58]\n   866: s0 = u64 [sp + 0x50]\n   869: sp = sp + 0x60\n   872: ret\n      : @13 (gas: 24)\n   874: sp = sp + 0xffffffffffffff60\n   878: u64 [sp + 0x98] = ra\n   882: u64 [sp + 0x90] = s0\n   886: u64 [sp + 0x88] = s1\n   890: s0 = sp + 0xa0\n   894: sp = sp & 0xffffffffffffffe0\n   897: a4 = u64 [a3]\n   899: u64 [sp + 0x38] = a4\n   902: a4 = u64 [a3 + 0x8]\n   905: u64 [sp + 0x30] = a4\n   908: a4 = u64 [a3 + 0x10]\n   911: u64 [sp + 0x28] = a4\n   914: a3 = u64 [a3 + 0x18]\n   917: u64 [sp + 0x20] = a3\n   920: a3 = u64 [a2]\n   922: u64 [sp + 0x18] = a3\n   925: a3 = u64 [a2 + 0x8]\n   928: u64 [sp + 0x10] = a3\n   931: a3 = u64 [a2 + 0x10]\n   934: u64 [sp + 0x8] = a3\n   937: a2 = u64 [a2 + 0x18]\n   940: u64 [sp] = a2\n   942: s1 = a1\n   944: ra = 6, jump @20\n      : @14 [@dyn 3] (gas: 35)\n   949: a1 = u64 [sp]\n   951: a1 = reverse a1\n   953: a2 = u64 [sp + 0x8]\n   956: a2 = reverse a2\n   958: a3 = u64 [sp + 0x10]\n   961: a3 = reverse a3\n   963: a4 = u64 [sp + 0x18]\n   966: a4 = reverse a4\n   968: u64 [sp + 0x58] = a4\n   971: u64 [sp + 0x50] = a3\n   974: u64 [sp + 0x48] = a2\n   977: u64 [sp + 0x40] = a1\n   980: a1 = u64 [sp + 0x20]\n   983: a1 = reverse a1\n   985: a2 = u64 [sp + 0x28]\n   988: a2 = reverse a2\n   990: a3 = u64 [sp + 0x30]\n   993: a3 = reverse a3\n   995: a4 = u64 [sp + 0x38]\n   998: a4 = reverse a4\n  1000: u64 [sp + 0x78] = a4\n  1003: u64 [sp + 0x70] = a3\n  1006: u64 [sp + 0x68] = a2\n  1009: u64 [sp + 0x60] = a1\n  1012: i32 a2 = a0 + 0\n  1014: i32 a3 = s1 + 0\n  1016: i32 a0 = sp + 0x40\n  1019: a1 = 0x2\n  1022: ecalli 6 // 'deposit_event'\n  1024: sp = s0 + 0xffffffffffffff60\n  1028: ra = u64 [sp + 0x98]\n  1032: s0 = u64 [sp + 0x90]\n  1036: s1 = u64 [sp + 0x88]\n  1040: sp = sp + 0xa0\n  1044: ret\n      : @15 [@dyn 4] (gas: 2)\n  1046: u64 [sp + 0x38] = a1\n  1049: ra = 10, jump @20\n      : @16 [@dyn 5] (gas: 41)\n  1054: a1 = reverse s1\n  1056: u64 [sp + 0x78] = a1\n  1059: a1 = u64 [sp]\n  1061: a1 = reverse a1\n  1063: u64 [sp + 0x70] = a1\n  1066: a1 = u64 [sp + 0x8]\n  1069: a1 = reverse a1\n  1071: u64 [sp + 0x68] = a1\n  1074: a1 = u64 [sp + 0x10]\n  1077: a1 = reverse a1\n  1079: u64 [sp + 0x60] = a1\n  1082: a1 = u64 [sp + 0x18]\n  1085: a1 = reverse a1\n  1087: u64 [sp + 0x98] = a1\n  1091: a1 = u64 [sp + 0x20]\n  1094: a1 = reverse a1\n  1096: u64 [sp + 0x90] = a1\n  1100: a1 = u64 [sp + 0x28]\n  1103: a1 = reverse a1\n  1105: u64 [sp + 0x88] = a1\n  1109: a1 = u64 [sp + 0x30]\n  1112: a1 = reverse a1\n  1114: u64 [sp + 0x80] = a1\n  1118: a1 = u64 [sp + 0x40]\n  1121: a1 = reverse a1\n  1123: u64 [sp + 0xb8] = a1\n  1127: a1 = u64 [sp + 0x48]\n  1130: a1 = reverse a1\n  1132: u64 [sp + 0xb0] = a1\n  1136: a1 = u64 [sp + 0x50]\n  1139: a1 = reverse a1\n  1141: u64 [sp + 0xa8] = a1\n  1145: a1 = u64 [sp + 0x58]\n  1148: a1 = reverse a1\n  1150: u64 [sp + 0xa0] = a1\n  1154: i32 a2 = a0 + 0\n  1156: a3 = i32 [sp + 0x38]\n  1159: i32 a0 = sp + 0x60\n  1162: a1 = 0x3\n  1165: ecalli 6 // 'deposit_event'\n  1167: t0 = 12, jump @1156\n      : @17 [@dyn 6] (gas: 1)\n  1173: ret\n      : @18 [@dyn 7] (gas: 2)\n  1175: u64 [sp + 0x58] = a1\n  1178: ra = 16, jump @20\n      : @19 [@dyn 8] (gas: 58)\n  1183: a1 = reverse s1\n  1185: u64 [sp + 0x98] = a1\n  1189: a1 = u64 [sp]\n  1191: a1 = reverse a1\n  1193: u64 [sp + 0x90] = a1\n  1197: a1 = u64 [sp + 0x8]\n  1200: a1 = reverse a1\n  1202: u64 [sp + 0x88] = a1\n  1206: a1 = u64 [sp + 0x10]\n  1209: a1 = reverse a1\n  1211: u64 [sp + 0x80] = a1\n  1215: a1 = u64 [sp + 0x18]\n  1218: a1 = reverse a1\n  1220: u64 [sp + 0xb8] = a1\n  1224: a1 = u64 [sp + 0x20]\n  1227: a1 = reverse a1\n  1229: u64 [sp + 0xb0] = a1\n  1233: a1 = u64 [sp + 0x28]\n  1236: a1 = reverse a1\n  1238: u64 [sp + 0xa8] = a1\n  1242: a1 = u64 [sp + 0x30]\n  1245: a1 = reverse a1\n  1247: u64 [sp + 0xa0] = a1\n  1251: a1 = u64 [sp + 0x38]\n  1254: a1 = reverse a1\n  1256: u64 [sp + 0xd8] = a1\n  1260: a1 = u64 [sp + 0x40]\n  1263: a1 = reverse a1\n  1265: u64 [sp + 0xd0] = a1\n  1269: a1 = u64 [sp + 0x48]\n  1272: a1 = reverse a1\n  1274: u64 [sp + 0xc8] = a1\n  1278: a1 = u64 [sp + 0x50]\n  1281: a1 = reverse a1\n  1283: u64 [sp + 0xc0] = a1\n  1287: a1 = u64 [sp + 0x60]\n  1290: a1 = reverse a1\n  1292: u64 [sp + 0xf8] = a1\n  1296: a1 = u64 [sp + 0x68]\n  1299: a1 = reverse a1\n  1301: u64 [sp + 0xf0] = a1\n  1305: a1 = u64 [sp + 0x70]\n  1308: a1 = reverse a1\n  1310: u64 [sp + 0xe8] = a1\n  1314: a1 = u64 [sp + 0x78]\n  1317: a1 = reverse a1\n  1319: u64 [sp + 0xe0] = a1\n  1323: i32 a2 = a0 + 0\n  1325: a3 = i32 [sp + 0x58]\n  1328: i32 a0 = sp + 0x80\n  1332: a1 = 0x4\n  1335: ecalli 6 // 'deposit_event'\n  1337: sp = s0 + 0xfffffffffffffee0\n  1341: ra = u64 [sp + 0x118]\n  1345: s0 = u64 [sp + 0x110]\n  1349: s1 = u64 [sp + 0x108]\n  1353: sp = sp + 0x120\n  1357: ret\n      : @20 (gas: 2)\n  1359: i32 a2 = a0 >> 0x10\n  1362: jump @25 if a2 != 0\n      : @21 (gas: 4)\n  1365: a1 = a1 + a0\n  1368: i32 a1 = a1 + 0x1f\n  1371: a1 = a1 & 0xffffffffffffffe0\n  1374: jump @25 if a1 >u 65536\n      : @22 (gas: 3)\n  1380: a2 = 0x201f0\n  1385: a3 = i32 [0x201f0]\n  1390: jump @24 if a3 >=u a1\n      : @23 (gas: 2)\n  1393: u32 [0x201f0] = a1\n  1398: fallthrough\n      : @24 (gas: 4)\n  1399: a1 = 0x20200\n  1404: i32 a0 = a0 + 0\n  1406: a0 = a0 + a1\n  1409: ret\n      : @25 (gas: 1)\n  1411: trap\n      : @26 (gas: 6)\n  1412: sp = sp + 0xfffffffffffffff0\n  1415: u64 [sp + 0x8] = ra\n  1418: u64 [sp] = s0\n  1420: s0 = a0 & 0x1\n  1423: ecalli 4 // 'call_data_size'\n  1425: fallthrough\n      : @27 (gas: 2)\n  1426: u32 [0x201ec] = a0\n  1431: jump @29 if s0 == 0\n      : @28 (gas: 1)\n  1434: ra = 18, jump @30\n      : @29 [@dyn 9] (gas: 18)\n  1438: ra = 0x14\n  1441: sp = sp + 0xfffffffffffffe10\n  1445: u64 [sp + 0x1e8] = ra\n  1449: u64 [sp + 0x1e0] = s0\n  1453: u64 [sp + 0x1d8] = s1\n  1457: s0 = sp + 0x1f0\n  1461: sp = sp + 0xffffffffffffcf10\n  1465: sp = sp & 0xffffffffffffffe0\n  1468: s1 = sp\n  1470: a2 = s1 + 0x20d8\n  1474: u64 [a2 + 1792] = 0\n  1478: u64 [a2 + 1784] = 0\n  1482: u64 [a2 + 1768] = 0x80\n  1488: a0 = 0x40\n  1491: a1 = s1 + 0x27c0\n  1495: u64 [a2 + 1776] = 0\n  1499: ra = 0x3a\n  1502: jump @9\n      : @30 [@dyn 10] (gas: 14)\n  1505: sp = sp + 0xfffffffffffffde0\n  1509: a0 = sp + 0x200\n  1513: u64 [a0 + 0x18] = ra\n  1516: u64 [a0 + 0x10] = s0\n  1519: u64 [a0 + 0x8] = s1\n  1522: s0 = sp + 0x220\n  1526: sp = sp & 0xffffffffffffffe0\n  1529: u64 [sp + 376] = 0\n  1533: u64 [sp + 368] = 0\n  1537: u64 [sp + 360] = 0\n  1541: u64 [sp + 352] = 0\n  1545: i32 a0 = sp + 0x160\n  1549: ecalli 17 // 'value_transferred'\n  1551: fallthrough\n      : @31 (gas: 8)\n  1552: a0 = u64 [sp + 0x170]\n  1556: a1 = u64 [sp + 0x178]\n  1560: a2 = u64 [sp + 0x168]\n  1564: a3 = u64 [sp + 0x160]\n  1568: a1 = a1 | a2\n  1571: a0 = a0 | a3\n  1574: a0 = a0 | a1\n  1577: jump @58 if a0 != 0\n      : @32 (gas: 15)\n  1581: s1 = i32 [0x201ec]\n  1586: a0 = s1 << 0x20\n  1589: a0 = a0 >> 0x20\n  1592: a0 = a0 + 0x1f\n  1595: a0 = a0 & 0xffffffffffffffe0\n  1598: a1 = a0 + 0xa0\n  1602: a0 = a1 <u a0\n  1605: u64 [sp + 0x140] = a1\n  1609: u64 [sp + 0x148] = a0\n  1613: a0 = 0 if a0 != 0\n  1615: u64 [sp + 0x150] = a0\n  1619: a0 = 0x40\n  1622: a1 = sp + 0x140\n  1626: u64 [sp + 344] = 0\n  1630: ra = 22, jump @9\n      : @33 [@dyn 11] (gas: 3)\n  1635: a0 = 0xa0\n  1639: a1 = s1\n  1641: ra = 24, jump @20\n      : @34 [@dyn 12] (gas: 5)\n  1646: i32 a0 = a0 + 0\n  1648: a1 = s1\n  1650: a2 = 0\n  1652: ecalli 2 // 'call_data_copy'\n  1654: fallthrough\n      : @35 (gas: 1)\n  1655: jump @59 if s1 <=u 31\n      : @36 (gas: 3)\n  1660: a0 = sp + 0x120\n  1664: a1 = 0xa0\n  1668: ra = 26, jump @7\n      : @37 [@dyn 13] (gas: 5)\n  1673: a0 = u64 [sp + 0x130]\n  1677: a1 = u64 [sp + 0x138]\n  1681: a4 = 0x1\n  1684: a2 = 0x100000000\n  1694: t0 = 28, jump @1155\n      : @38 [@dyn 14] (gas: 1)\n  1699: jump @60 if a3 == 0\n      : @39 (gas: 17)\n  1703: a1 = u64 [sp + 0x128]\n  1707: u64 [sp + 0x18] = a1\n  1710: s1 = u64 [sp + 0x120]\n  1714: a0 = a0 << 0x20\n  1717: a0 = a0 >> 0x20\n  1720: u64 [sp + 0x10] = a0\n  1723: u64 [sp + 408] = 0\n  1727: u64 [sp + 400] = 0\n  1731: u64 [sp + 392] = 0\n  1735: u64 [sp + 384] = 0\n  1739: u64 [sp + 440] = 0\n  1743: u64 [sp + 432] = 0\n  1747: u64 [sp + 424] = 0\n  1751: u64 [sp + 0x1a0] = a4\n  1755: a0 = sp + 0x180\n  1759: a1 = sp + 0x1a0\n  1763: ra = 30, jump @12\n      : @40 [@dyn 15] (gas: 11)\n  1768: u64 [sp + 472] = 0\n  1772: u64 [sp + 464] = 0\n  1776: u64 [sp + 456] = 0\n  1780: u64 [sp + 448] = 0x3\n  1785: u64 [sp + 504] = 0\n  1789: u64 [sp + 496] = 0\n  1793: u64 [sp + 488] = 0\n  1797: u64 [sp + 480] = 0x1\n  1802: a0 = sp + 0x1c0\n  1806: a1 = sp + 0x1e0\n  1810: ra = 32, jump @12\n      : @41 [@dyn 16] (gas: 5)\n  1815: a1 = u64 [sp + 0x18]\n  1818: a2 = u64 [sp + 0x10]\n  1821: a0 = s1 | a1\n  1824: a0 = a0 | a2\n  1827: jump @54 if a0 != 0\n      : @42 (gas: 3)\n  1831: a0 = sp + 0xa0\n  1835: a1 = 0x40\n  1838: ra = 34, jump @7\n      : @43 [@dyn 17] (gas: 12)\n  1843: a4 = u64 [sp + 0xb8]\n  1847: s1 = u64 [sp + 0xb0]\n  1851: a3 = u64 [sp + 0xa8]\n  1855: a0 = u64 [sp + 0xa0]\n  1859: a2 = a3 | a4\n  1862: a1 = a0 | s1\n  1865: a1 = a1 | a2\n  1868: a1 = a1 >> 0x20\n  1871: a2 = a2 | s1\n  1874: a2 = a2 << 0x20\n  1877: a1 = a1 | a2\n  1880: jump @57 if a1 != 0\n      : @44 (gas: 6)\n  1884: u64 [sp + 144] = 0\n  1888: u64 [sp + 136] = 0\n  1892: u64 [sp + 128] = 0\n  1896: t0 = 0x24\n  1899: a2 = 0x8c379a000000000\n  1909: fallthrough\n      : @45 [@dyn 18] (gas: 6)\n  1910: a1 = sp + 0x80\n  1914: u64 [sp + 0x98] = a2\n  1918: u64 [sp + 0x18] = a0\n  1921: u64 [sp + 0x10] = a3\n  1924: u64 [sp + 0x8] = a4\n  1927: ra = 38, jump @9\n      : @46 [@dyn 19] (gas: 10)\n  1932: a1 = u64 [sp + 0x18]\n  1935: a3 = u64 [sp + 0x8]\n  1938: a3 = a3 | s1\n  1941: s1 = 0x100000000\n  1951: a0 = 0xfffffffc\n  1961: a0 = a1 <u a0\n  1964: a2 = u64 [sp + 0x10]\n  1967: a0 = 0 if a2 != 0\n  1969: a0 = 0 if a3 != 0\n  1971: jump @57 if a0 == 0\n      : @47 (gas: 8)\n  1975: i32 a0 = a1 + 0x4\n  1978: u64 [sp + 120] = 0\n  1981: u64 [sp + 112] = 0\n  1984: u64 [sp + 96] = 0x20\n  1988: a1 = sp + 0x60\n  1991: u64 [sp + 104] = 0\n  1994: u64 [sp + 0x8] = a3\n  1997: ra = 40, jump @9\n      : @48 [@dyn 20] (gas: 8)\n  2002: a3 = u64 [sp + 0x8]\n  2005: a2 = u64 [sp + 0x10]\n  2008: a1 = u64 [sp + 0x18]\n  2011: a0 = s1 + 0xffffffffffffffdc\n  2014: a0 = a1 <u a0\n  2017: a0 = 0 if a2 != 0\n  2019: a0 = 0 if a3 != 0\n  2021: jump @57 if a0 == 0\n      : @49 (gas: 8)\n  2025: i32 a0 = a1 + 0x24\n  2028: u64 [sp + 88] = 0\n  2031: u64 [sp + 80] = 0\n  2034: u64 [sp + 64] = 0x14\n  2038: a1 = sp + 0x40\n  2041: u64 [sp + 72] = 0\n  2044: s1 = a2\n  2046: ra = 42, jump @9\n      : @50 [@dyn 21] (gas: 7)\n  2051: a2 = u64 [sp + 0x18]\n  2054: a0 = 0xffffffbc\n  2064: a0 = a2 <u a0\n  2067: a0 = 0 if s1 != 0\n  2069: a1 = u64 [sp + 0x8]\n  2072: a0 = 0 if a1 != 0\n  2074: jump @57 if a0 == 0\n      : @51 (gas: 11)\n  2078: i32 a0 = a2 + 0x44\n  2081: a1 = u64 [0x20000]\n  2086: s1 = a2\n  2088: a2 = u64 [0x20008]\n  2093: u64 [sp + 0x38] = a1\n  2096: u64 [sp + 0x30] = a2\n  2099: a1 = 0x7265737300000000\n  2109: u64 [sp + 0x28] = a1\n  2112: a1 = sp + 0x20\n  2115: u64 [sp + 32] = 0\n  2118: ra = 44, jump @9\n      : @52 [@dyn 22] (gas: 3)\n  2123: a1 = 0x64\n  2126: a0 = s1\n  2128: ra = 46, jump @20\n      : @53 [@dyn 23] (gas: 5)\n  2133: i32 a1 = a0 + 0\n  2135: a0 = 0x1\n  2138: a2 = 0x64\n  2141: ecalli 14 // 'seal_return'\n  2143: fallthrough\n      : @54 (gas: 7)\n  2144: u64 [sp + 280] = 0\n  2148: u64 [sp + 0x100] = s1\n  2152: u64 [sp + 0x108] = a1\n  2156: a0 = 0x80\n  2160: a1 = sp + 0x100\n  2164: u64 [sp + 0x110] = a2\n  2168: ra = 48, jump @9\n      : @55 [@dyn 24] (gas: 3)\n  2173: a0 = sp + 0xe0\n  2177: a1 = 0x40\n  2180: ra = 50, jump @7\n      : @56 [@dyn 25] (gas: 12)\n  2185: a0 = u64 [sp + 0xf8]\n  2189: a1 = u64 [sp + 0xf0]\n  2193: a2 = u64 [sp + 0xe8]\n  2197: s1 = u64 [sp + 0xe0]\n  2201: a0 = a0 | a2\n  2204: a2 = s1 | a1\n  2207: a2 = a2 | a0\n  2210: a2 = a2 >> 0x20\n  2213: a0 = a0 | a1\n  2216: a0 = a0 << 0x20\n  2219: a0 = a0 | a2\n  2222: jump @61 if a0 == 0\n      : @57 (gas: 1)\n  2225: trap\n      : @58 (gas: 6)\n  2226: a1 = 0x20200\n  2231: i32 a1 = a1 + 0\n  2233: a0 = 0x1\n  2236: a2 = 0\n  2238: ecalli 14 // 'seal_return'\n  2240: jump @61\n      : @59 (gas: 6)\n  2242: a1 = 0x20200\n  2247: i32 a1 = a1 + 0\n  2249: a0 = 0x1\n  2252: a2 = 0\n  2254: ecalli 14 // 'seal_return'\n  2256: jump @61\n      : @60 (gas: 6)\n  2258: a1 = 0x20200\n  2263: i32 a1 = a1 + 0\n  2265: a0 = 0x1\n  2268: a2 = 0\n  2270: ecalli 14 // 'seal_return'\n  2272: fallthrough\n      : @61 (gas: 3)\n  2273: a0 = s1\n  2275: a1 = 0\n  2277: ra = 52, jump @20\n      : @62 [@dyn 26] (gas: 7)\n  2282: i32 a0 = a0 + 0\n  2284: a1 = 0\n  2286: a2 = 0\n  2288: ecalli 2 // 'call_data_copy'\n  2290: a0 = sp + 0xc0\n  2294: a1 = 0x80\n  2298: ra = 54, jump @7\n      : @63 [@dyn 27] (gas: 9)\n  2303: a0 = u64 [sp + 0xd8]\n  2307: a2 = u64 [sp + 0xd0]\n  2311: a3 = u64 [sp + 0xc8]\n  2315: a4 = u64 [sp + 0xc0]\n  2319: u64 [0x30238] = a0\n  2324: u64 [0x30230] = a2\n  2329: u64 [0x30228] = a3\n  2334: u64 [0x30220] = a4\n  2339: jump @5\n      : @64 (gas: 3)\n  2342: a0 = s1\n  2344: a1 = 0\n  2346: ra = 56, jump @20\n      : @65 [@dyn 28] (gas: 5)\n  2351: i32 a1 = a0 + 0\n  2353: a0 = 0\n  2355: a2 = 0\n  2357: ecalli 14 // 'seal_return'\n  2359: jump @61\n      : @66 [@dyn 29] (gas: 4)\n  2361: a0 = 0x201ec\n  2366: u64 [s1 + 0x158] = a0\n  2370: a0 = i32 [0x201ec]\n  2375: jump @68 if a0 >=u 4\n      : @67 (gas: 1)\n  2379: jump @914\n      : @68 (gas: 14)\n  2382: a0 = sp + 0xffffffffffffffe0\n  2385: a0 = a0 & 0xffffffffffffffe0\n  2388: sp = a0\n  2390: u64 [a0 + 24] = 0\n  2393: u64 [a0 + 16] = 0\n  2396: u64 [a0 + 8] = 0\n  2399: u64 [s1 + 0xd8] = a0\n  2403: u64 [a0 + 0] = 0\n  2405: a0 = s1 + 0x2000\n  2409: i32 a0 = a0 + 0x7e0\n  2413: a1 = 0\n  2415: ra = 0x3c\n  2418: ecalli 3 // 'call_data_load'\n  2420: fallthrough\n      : @69 [@dyn 30] (gas: 3)\n  2421: a2 = s1 + 0x20d8\n  2425: a0 = i32 [a2 + 0x724]\n  2429: jump @71 if a0 != 2317616552\n      : @70 (gas: 1)\n  2436: jump @271\n      : @71 (gas: 1)\n  2439: jump @170 if a0 == 2844447852\n      : @72 (gas: 2)\n  2447: a3 = s1 + 0x30d8\n  2451: jump @74 if a0 != 3065339685\n      : @73 (gas: 1)\n  2458: jump @430\n      : @74 (gas: 1)\n  2461: jump @76 if a0 != 3378343644\n      : @75 (gas: 1)\n  2468: jump @402\n      : @76 (gas: 1)\n  2471: jump @78 if a0 != 3663237983\n      : @77 (gas: 1)\n  2478: jump @257\n      : @78 (gas: 1)\n  2481: jump @195 if a0 == 3694206419\n      : @79 (gas: 1)\n  2489: jump @161 if a0 == 3790718119\n      : @80 (gas: 1)\n  2497: jump @181 if a0 == 3893815423\n      : @81 (gas: 1)\n  2505: jump @83 if a0 != 371854584\n      : @82 (gas: 1)\n  2512: jump @370\n      : @83 (gas: 1)\n  2515: jump @85 if a0 != 555962499\n      : @84 (gas: 1)\n  2522: jump @296\n      : @85 (gas: 1)\n  2525: jump @87 if a0 != 597023093\n      : @86 (gas: 1)\n  2532: jump @247\n      : @87 (gas: 1)\n  2535: jump @89 if a0 != 639781988\n      : @88 (gas: 1)\n  2542: jump @226\n      : @89 (gas: 1)\n  2545: jump @91 if a0 != 760987488\n      : @90 (gas: 1)\n  2552: jump @331\n      : @91 (gas: 1)\n  2555: jump @93 if a0 == 773487949\n      : @92 (gas: 1)\n  2562: jump @494\n      : @93 (gas: 10)\n  2565: a0 = s1 + 0x28d8\n  2569: u64 [a0 + 864] = 0\n  2573: u64 [a0 + 856] = 0\n  2577: u64 [a0 + 848] = 0\n  2581: u64 [a0 + 840] = 0\n  2585: a0 = s1 + 0x3000\n  2589: i32 a0 = a0 + 0xfffffffffffffc20\n  2593: ra = 0x3e\n  2596: ecalli 17 // 'value_transferred'\n  2598: fallthrough\n      : @94 [@dyn 31] (gas: 10)\n  2599: a3 = s1 + 0x28d8\n  2603: a4 = a3 + 0x300\n  2607: a0 = u64 [a4 + 0x58]\n  2610: a1 = u64 [a4 + 0x60]\n  2613: a2 = u64 [a4 + 0x50]\n  2616: a3 = u64 [a4 + 0x48]\n  2619: a1 = a1 | a2\n  2622: a0 = a0 | a3\n  2625: a0 = a0 | a1\n  2628: jump @96 if a0 == 0\n      : @95 (gas: 1)\n  2631: jump @912\n      : @96 (gas: 1)\n  2634: t0 = 64, jump @1148\n      : @97 [@dyn 32] (gas: 1)\n  2639: jump @99 if a1 <u a0\n      : @98 (gas: 1)\n  2642: jump @912\n      : @99 (gas: 15)\n  2645: a0 = s1 + 0x3000\n  2649: i32 a0 = a0 + 0xfffffffffffffc40\n  2653: a1 = 0x4\n  2656: ecalli 3 // 'call_data_load'\n  2658: a1 = s1 + 0x28d8\n  2662: a2 = a1 + 0x300\n  2666: a0 = u64 [a2 + 0x80]\n  2670: u64 [s1 + 0x150] = a0\n  2674: a0 = u64 [a2 + 0x78]\n  2677: u64 [s1 + 0x148] = a0\n  2681: a0 = u64 [a2 + 0x70]\n  2684: u64 [s1 + 0x140] = a0\n  2688: a0 = u64 [a2 + 0x68]\n  2691: u64 [s1 + 0x138] = a0\n  2695: ra = 66, jump @1036\n      : @100 [@dyn 33] (gas: 17)\n  2700: a0 = u64 [s1 + 0x150]\n  2704: a1 = u64 [s1 + 0x140]\n  2708: a0 = a0 | a1\n  2711: a1 = u64 [s1 + 0x138]\n  2715: a2 = u64 [s1 + 0x148]\n  2719: a1 = a1 | a2\n  2722: a0 = a0 | a1\n  2725: a0 = a0 >u 0\n  2727: a1 = s1 + 0x10d8\n  2731: u64 [a1 + 1216] = 0\n  2735: u64 [a1 + 1208] = 0\n  2739: u64 [a1 + 0x4a8] = a0\n  2743: a0 = s1 + 0x1580\n  2747: u64 [a1 + 1200] = 0\n  2751: ra = 0x44\n  2754: t0 = 0x44e\n  2758: jump @1129\n      : @101 [@dyn 34] (gas: 8)\n  2761: a0 = 0x30200\n  2766: u64 [s1 + 0x158] = a0\n  2770: i32 a0 = a0 + 0\n  2772: u64 [s1 + 0x130] = a0\n  2776: ra = 0x46\n  2779: ecalli 5 // 'caller'\n  2781: t0 = 0x48\n  2784: jump @1114\n      : @102 [@dyn 35] (gas: 1)\n  2787: t0 = 72, jump @1114\n      : @103 [@dyn 36] (gas: 8)\n  2792: u64 [a2 + 1184] = 0\n  2796: a4 = a2 + 0x400\n  2800: u64 [a4 + 0x98] = a1\n  2804: u64 [a4 + 0x90] = a0\n  2808: a1 = s1 + 0x1560\n  2812: u64 [a4 + 0x88] = a3\n  2816: a0 = 0\n  2818: ra = 74, jump @9\n      : @104 [@dyn 37] (gas: 9)\n  2823: a0 = s1 + 0x10d8\n  2827: u64 [a0 + 1152] = 0\n  2831: u64 [a0 + 1144] = 0\n  2835: u64 [a0 + 1136] = 0\n  2839: a3 = a0\n  2841: a0 = 0x20\n  2844: a1 = s1 + 0x1540\n  2848: u64 [a3 + 1128] = 0x1\n  2853: ra = 76, jump @9\n      : @105 [@dyn 38] (gas: 3)\n  2858: a1 = 0x40\n  2861: a0 = 0\n  2863: ra = 78, jump @20\n      : @106 [@dyn 39] (gas: 4)\n  2868: a1 = sp + 0xffffffffffffffe0\n  2871: a1 = a1 & 0xffffffffffffffe0\n  2874: u64 [s1 + 0x128] = a1\n  2878: t0 = 80, jump @1117\n      : @107 [@dyn 40] (gas: 5)\n  2883: ra = 0x52\n  2886: ecalli 9 // 'hash_keccak_256'\n  2888: a3 = u64 [s1 + 0x128]\n  2892: t0 = 0x54\n  2895: jump @1121\n      : @108 [@dyn 41] (gas: 2)\n  2898: a3 = u64 [s1 + 0x128]\n  2902: t0 = 84, jump @1121\n      : @109 [@dyn 42] (gas: 7)\n  2907: u64 [a5 + 0xa0] = a3\n  2911: u64 [a5 + 0x98] = a2\n  2915: u64 [a5 + 0x90] = a1\n  2919: u64 [a5 + 0x88] = a0\n  2923: a0 = s1 + 0x1520\n  2927: a1 = s1 + 0x2c60\n  2931: ra = 86, jump @11\n      : @110 [@dyn 43] (gas: 31)\n  2936: a4 = s1 + 0x10d8\n  2940: a5 = a4 + 0x400\n  2944: a0 = u64 [a5 + 0x50]\n  2947: a1 = u64 [a5 + 0x48]\n  2950: a2 = u64 [a5 + 0x58]\n  2953: a3 = u64 [a5 + 0x60]\n  2956: t0 = a4\n  2958: a5 = u64 [s1 + 0x140]\n  2962: a4 = a0 ^ a5\n  2965: a0 = a0 <u a5\n  2968: a5 = u64 [s1 + 0x138]\n  2972: a1 = a1 <u a5\n  2975: a1 = a0 if a4 != 0\n  2978: a4 = u64 [s1 + 0x150]\n  2982: a0 = a3 ^ a4\n  2985: a3 = a3 <u a4\n  2988: a5 = u64 [s1 + 0x148]\n  2992: a4 = a2 <u a5\n  2995: a4 = a3 if a0 != 0\n  2998: a2 = a2 ^ a5\n  3001: a0 = a0 | a2\n  3004: a1 = a4 if a0 != 0\n  3007: a0 = a1 ^ 0x1\n  3010: u64 [t0 + 1088] = 0\n  3014: u64 [t0 + 1080] = 0\n  3018: u64 [t0 + 0x428] = a0\n  3022: a0 = s1 + 0x1500\n  3026: u64 [t0 + 1072] = 0\n  3030: ra = 0x58\n  3033: t0 = 0x4be\n  3037: jump @1129\n      : @111 [@dyn 44] (gas: 5)\n  3040: a0 = u64 [s1 + 0x130]\n  3044: ra = 0x5a\n  3047: ecalli 5 // 'caller'\n  3049: t0 = 0x5c\n  3052: jump @1114\n      : @112 [@dyn 45] (gas: 1)\n  3055: t0 = 92, jump @1114\n      : @113 [@dyn 46] (gas: 8)\n  3060: u64 [a2 + 1056] = 0\n  3064: a4 = a2 + 0x400\n  3068: u64 [a4 + 0x18] = a1\n  3071: u64 [a4 + 0x10] = a0\n  3074: a1 = s1 + 0x14e0\n  3078: u64 [a4 + 0x8] = a3\n  3081: a0 = 0\n  3083: ra = 94, jump @9\n      : @114 [@dyn 47] (gas: 8)\n  3088: a3 = s1 + 0x10d8\n  3092: u64 [a3 + 1024] = 0\n  3096: u64 [a3 + 1016] = 0\n  3100: u64 [a3 + 1008] = 0\n  3104: a0 = 0x20\n  3107: a1 = s1 + 0x14c0\n  3111: u64 [a3 + 1000] = 0x1\n  3116: ra = 96, jump @9\n      : @115 [@dyn 48] (gas: 7)\n  3121: a0 = sp + 0xffffffffffffffe0\n  3124: a0 = a0 & 0xffffffffffffffe0\n  3127: u64 [s1 + 0x128] = a0\n  3131: sp = a0\n  3133: a1 = 0x40\n  3136: a0 = 0\n  3138: ra = 98, jump @20\n      : @116 [@dyn 49] (gas: 4)\n  3143: a1 = sp + 0xffffffffffffffe0\n  3146: a1 = a1 & 0xffffffffffffffe0\n  3149: u64 [s1 + 0x120] = a1\n  3153: t0 = 100, jump @1117\n      : @117 [@dyn 50] (gas: 5)\n  3158: ra = 0x66\n  3161: ecalli 9 // 'hash_keccak_256'\n  3163: a3 = u64 [s1 + 0x120]\n  3167: t0 = 0x68\n  3170: jump @1121\n      : @118 [@dyn 51] (gas: 2)\n  3173: a3 = u64 [s1 + 0x120]\n  3177: t0 = 104, jump @1121\n      : @119 [@dyn 52] (gas: 7)\n  3182: u64 [a5 + 0xc0] = a3\n  3186: u64 [a5 + 0xb8] = a2\n  3190: u64 [a5 + 0xb0] = a1\n  3194: u64 [a5 + 0xa8] = a0\n  3198: a0 = s1 + 0x14a0\n  3202: a1 = s1 + 0x2c80\n  3206: ra = 106, jump @11\n      : @120 [@dyn 53] (gas: 22)\n  3211: a4 = s1 + 0x10d8\n  3215: a3 = u64 [a4 + 0x3c8]\n  3219: a0 = u64 [a4 + 0x3d0]\n  3223: a1 = u64 [a4 + 0x3d8]\n  3227: a2 = u64 [a4 + 0x3e0]\n  3231: a5 = u64 [s1 + 0x150]\n  3235: u64 [a4 + 0x380] = a5\n  3239: a5 = u64 [s1 + 0x148]\n  3243: u64 [a4 + 0x378] = a5\n  3247: a5 = u64 [s1 + 0x140]\n  3251: u64 [a4 + 0x370] = a5\n  3255: a5 = u64 [s1 + 0x138]\n  3259: u64 [a4 + 0x368] = a5\n  3263: a5 = a4 + 0x300\n  3267: u64 [a5 + 0xa0] = a2\n  3271: u64 [a5 + 0x98] = a1\n  3275: u64 [a5 + 0x90] = a0\n  3279: a0 = s1 + 0x1480\n  3283: a1 = s1 + 0x1460\n  3287: a2 = s1 + 0x1440\n  3291: u64 [a5 + 0x88] = a3\n  3295: ra = 108, jump @1080\n      : @121 [@dyn 54] (gas: 16)\n  3300: a3 = s1 + 0x10d8\n  3304: a4 = a3 + 0x300\n  3308: a0 = u64 [a4 + 0xb8]\n  3312: a1 = u64 [a4 + 0xc0]\n  3316: a2 = u64 [a4 + 0xa8]\n  3320: a3 = u64 [a4 + 0xb0]\n  3324: a4 = u64 [s1 + 0x128]\n  3328: u64 [a4 + 0x10] = a0\n  3331: u64 [a4 + 0x18] = a1\n  3334: u64 [a4] = a2\n  3336: u64 [a4 + 0x8] = a3\n  3339: a0 = u64 [s1 + 0x130]\n  3343: ra = 0x6e\n  3346: ecalli 5 // 'caller'\n  3348: t0 = 0x70\n  3351: jump @1114\n      : @122 [@dyn 55] (gas: 1)\n  3354: t0 = 112, jump @1114\n      : @123 [@dyn 56] (gas: 8)\n  3359: u64 [a2 + 864] = 0\n  3363: a4 = a2 + 0x300\n  3367: u64 [a4 + 0x58] = a1\n  3370: u64 [a4 + 0x50] = a0\n  3373: a1 = s1 + 0x1420\n  3377: u64 [a4 + 0x48] = a3\n  3380: a0 = 0\n  3382: ra = 114, jump @9\n      : @124 [@dyn 57] (gas: 8)\n  3387: a2 = s1 + 0x10d8\n  3391: u64 [a2 + 832] = 0\n  3395: u64 [a2 + 824] = 0\n  3399: u64 [a2 + 808] = 0x1\n  3404: a0 = 0x20\n  3407: a1 = s1 + 0x1400\n  3411: u64 [a2 + 816] = 0\n  3415: ra = 116, jump @9\n      : @125 [@dyn 58] (gas: 3)\n  3420: a1 = 0x40\n  3423: a0 = 0\n  3425: ra = 118, jump @20\n      : @126 [@dyn 59] (gas: 4)\n  3430: a1 = sp + 0xffffffffffffffe0\n  3433: a1 = a1 & 0xffffffffffffffe0\n  3436: u64 [s1 + 0x120] = a1\n  3440: t0 = 120, jump @1117\n      : @127 [@dyn 60] (gas: 5)\n  3445: ra = 0x7a\n  3448: ecalli 9 // 'hash_keccak_256'\n  3450: a3 = u64 [s1 + 0x120]\n  3454: t0 = 0x7c\n  3457: jump @1121\n      : @128 [@dyn 61] (gas: 2)\n  3460: a3 = u64 [s1 + 0x120]\n  3464: t0 = 124, jump @1121\n      : @129 [@dyn 62] (gas: 7)\n  3469: u64 [a5 + 0xe0] = a3\n  3473: u64 [a5 + 0xd8] = a2\n  3477: u64 [a5 + 0xd0] = a1\n  3481: u64 [a5 + 0xc8] = a0\n  3485: a0 = s1 + 0x2ca0\n  3489: a1 = u64 [s1 + 0x128]\n  3493: ra = 126, jump @12\n      : @130 [@dyn 63] (gas: 3)\n  3498: a0 = s1 + 0x13e0\n  3502: a1 = 0x40\n  3505: ra = 128, jump @7\n      : @131 [@dyn 64] (gas: 14)\n  3511: a2 = s1 + 0x10d8\n  3515: t0 = u64 [a2 + 0x320]\n  3519: a1 = a2 + 0x300\n  3523: a5 = u64 [a1 + 0x18]\n  3526: a4 = u64 [a1 + 0x10]\n  3529: a0 = u64 [a1 + 0x8]\n  3532: a3 = a4 | t0\n  3535: a1 = a0 | a5\n  3538: a1 = a1 | a3\n  3541: a1 = a1 >> 0x20\n  3544: a3 = a3 | a5\n  3547: a3 = a3 << 0x20\n  3550: a1 = a1 | a3\n  3553: jump @133 if a1 == 0\n      : @132 (gas: 1)\n  3556: jump @848\n      : @133 (gas: 11)\n  3559: u64 [a2 + 760] = 0\n  3563: u64 [a2 + 752] = 0\n  3567: u64 [a2 + 744] = 0\n  3571: a3 = 0xa9059cbb00000000\n  3581: a1 = s1 + 0x13c0\n  3585: u64 [a2 + 0x300] = a3\n  3589: u64 [s1 + 0x128] = a0\n  3593: u64 [s1 + 0x120] = a4\n  3597: u64 [s1 + 0x118] = a5\n  3601: u64 [s1 + 0x110] = t0\n  3605: ra = 130, jump @9\n      : @134 [@dyn 65] (gas: 6)\n  3611: a0 = u64 [s1 + 0x130]\n  3615: ra = 0x84\n  3619: ecalli 5 // 'caller'\n  3621: a2 = u64 [s1 + 0x158]\n  3625: t0 = 0x86\n  3629: jump @1125\n      : @135 [@dyn 66] (gas: 2)\n  3632: a2 = u64 [s1 + 0x158]\n  3636: t0 = 134, jump @1125\n      : @136 [@dyn 67] (gas: 42)\n  3642: t0 = a1 | a0\n  3645: a3 = a3 >> 0x20\n  3648: a2 = reverse a2\n  3650: a1 = a2 << 0x20\n  3653: t1 = a1 | a3\n  3656: a2 = a2 >> 0x20\n  3659: a0 = u64 [s1 + 0x128]\n  3663: a3 = a0 + 0x4\n  3666: a4 = a3 <u a0\n  3669: a0 = u64 [s1 + 0x120]\n  3673: a5 = a0 + a4\n  3676: a0 = a5 <u a0\n  3679: a0 = a4 if a4 == 0\n  3682: a1 = u64 [s1 + 0x118]\n  3686: a0 = a0 + a1\n  3689: a4 = a0 <u a1\n  3692: a1 = u64 [s1 + 0x110]\n  3696: a4 = a4 + a1\n  3699: a1 = s1 + 0x10d8\n  3703: u64 [a1 + 0x2c0] = a4\n  3707: a4 = a1 + 0x200\n  3711: u64 [a4 + 0xb8] = a0\n  3715: u64 [a4 + 0xb0] = a5\n  3719: a0 = u64 [s1 + 0x150]\n  3723: u64 [a4 + 0x80] = a0\n  3727: a0 = u64 [s1 + 0x148]\n  3731: u64 [a4 + 0x78] = a0\n  3734: a0 = u64 [s1 + 0x140]\n  3738: u64 [a4 + 0x70] = a0\n  3741: a0 = u64 [s1 + 0x138]\n  3745: u64 [a4 + 0x68] = a0\n  3748: u64 [a4 + 0xa8] = a3\n  3752: u64 [a4 + 0x98] = a2\n  3756: u64 [a1 + 0x290] = t1\n  3760: u64 [a1 + 0x288] = t0\n  3764: a4 = a1\n  3766: a0 = s1 + 0x13a0\n  3770: a1 = s1 + 0x1380\n  3774: a2 = s1 + 0x1360\n  3778: a3 = s1 + 0x1340\n  3782: u64 [a4 + 672] = 0\n  3786: ra = 136, jump @1087\n      : @137 [@dyn 68] (gas: 28)\n  3792: a1 = s1 + 0x10d8\n  3796: a0 = u64 [a1 + 0x2d0]\n  3800: t0 = u64 [a1 + 0x2e0]\n  3804: t1 = u64 [a1 + 0x2c8]\n  3808: a3 = u64 [a1 + 0x2d8]\n  3812: a1 = u64 [s1 + 0x120]\n  3816: a4 = a0 ^ a1\n  3819: a5 = a0 <u a1\n  3822: ra = u64 [s1 + 0x128]\n  3826: t2 = t1 <u ra\n  3829: a5 = t2 if a4 == 0\n  3832: a2 = u64 [s1 + 0x118]\n  3836: a4 = a3 - a2\n  3839: a3 = a3 <u a2\n  3842: a2 = u64 [s1 + 0x110]\n  3846: a2 = t0 - a2\n  3849: a2 = a2 - a3\n  3852: a3 = a4 <u a5\n  3855: a2 = a2 - a3\n  3858: u64 [s1 + 0x100] = a2\n  3862: a4 = a4 - a5\n  3865: u64 [s1 + 0xf8] = a4\n  3869: a0 = a0 - a1\n  3872: a0 = a0 - t2\n  3875: u64 [s1 + 0xf0] = a0\n  3879: a0 = t1 - ra\n  3882: u64 [s1 + 0x108] = a0\n  3886: ra = 138, jump @0\n      : @138 [@dyn 69] (gas: 8)\n  3892: a1 = u64 [0x30220]\n  3897: u64 [s1 + 0xe8] = a1\n  3901: a1 = u64 [0x30230]\n  3906: u64 [s1 + 0xe0] = a1\n  3910: a0 = u64 [0x30228]\n  3915: u64 [s1 + 0xd0] = a0\n  3919: ecalli 11 // 'ref_time_left'\n  3921: fallthrough\n      : @139 (gas: 36)\n  3922: a0 = u64 [s1 + 0xd0]\n  3926: a0 = reverse a0\n  3928: a1 = a0 << 0x20\n  3931: a2 = u64 [s1 + 0xe0]\n  3935: a2 = reverse a2\n  3937: a2 = a2 >> 0x20\n  3940: a1 = a1 | a2\n  3943: a0 = a0 >> 0x20\n  3946: a2 = u64 [s1 + 0xe8]\n  3950: a2 = reverse a2\n  3952: a3 = a2 << 0x20\n  3955: a0 = a0 | a3\n  3958: a2 = a2 >> 0x20\n  3961: a4 = s1 + 0x100\n  3965: a3 = u64 [a4 + 0x58]\n  3968: u32 [a3 + 0x10] = a2\n  3971: u64 [a3 + 0x8] = a0\n  3974: u64 [a3] = a1\n  3976: a2 = s1 + 0x28d8\n  3980: u64 [a2 + 1024] = 0\n  3984: u64 [a2 + 1016] = 0\n  3988: u64 [a2 + 1008] = 0\n  3992: a0 = u64 [a4 + 0x8]\n  3995: t0 = a0\n  3997: a5 = u64 [s1 + 0xf8]\n  4001: a0 = a0 | a5\n  4004: a1 = u64 [a4]\n  4006: a4 = u64 [s1 + 0xf0]\n  4010: a1 = a1 | a4\n  4013: a0 = a0 | a1\n  4016: a0 = a0 >> 0x20\n  4019: a1 = a1 | a5\n  4022: a1 = a1 << 0x20\n  4025: a0 = a0 | a1\n  4028: u64 [a2 + 1000] = 0\n  4032: jump @141 if a0 == 0\n      : @140 (gas: 1)\n  4035: jump @848\n      : @141 (gas: 3)\n  4038: a0 = u64 [s1 + 0x128]\n  4042: a1 = t0\n  4044: ra = 140, jump @20\n      : @142 [@dyn 70] (gas: 4)\n  4050: u64 [s1 + 0x100] = a0\n  4054: a1 = 0x20\n  4057: a0 = u64 [s1 + 0x128]\n  4061: ra = 142, jump @20\n      : @143 [@dyn 71] (gas: 35)\n  4067: a2 = s1 + 0x28d8\n  4071: a3 = a2 + 0x400\n  4075: u32 [a3 + 8] = 0x20\n  4079: u64 [a3 + 64] = 0xffffffffffffffff\n  4083: u64 [a3 + 56] = 0xffffffffffffffff\n  4087: u64 [a3 + 48] = 0xffffffffffffffff\n  4091: u64 [a3 + 40] = 0xffffffffffffffff\n  4095: a5 = s1 + 0x100\n  4099: a1 = u64 [a5 + 0x58]\n  4102: a1 = a1 << 0x20\n  4105: a1 = a1 >> 0x20\n  4108: a2 = 0x800000000\n  4118: t0 = a1 | a2\n  4121: a1 = s1 + 0x2cc0\n  4125: a1 = a1 << 0x20\n  4128: a1 = a1 >> 0x20\n  4131: a2 = s1 + 0x2d00\n  4135: a2 = a2 << 0x20\n  4138: a3 = a2 | a1\n  4141: a1 = u64 [a5]\n  4143: a1 = a1 << 0x20\n  4146: a1 = a1 >> 0x20\n  4149: a4 = u64 [a5 + 0x8]\n  4152: a4 = a4 << 0x20\n  4155: a4 = a4 | a1\n  4158: a0 = a0 << 0x20\n  4161: a0 = a0 >> 0x20\n  4164: a1 = s1 + 0x2ce0\n  4168: a1 = a1 << 0x20\n  4171: a5 = a1 | a0\n  4174: a1 = 0xffffffffffffffff\n  4177: a2 = 0xffffffffffffffff\n  4180: a0 = t0\n  4182: ecalli 1 // 'call'\n  4184: fallthrough\n      : @144 (gas: 1)\n  4185: jump @146 if a0 == 0\n      : @145 (gas: 1)\n  4188: jump @759\n      : @146 (gas: 2)\n  4191: ecalli 13 // 'return_data_size'\n  4193: fallthrough\n      : @147 (gas: 2)\n  4194: a1 = 0x20\n  4197: jump @149 if a0 >=u a1\n      : @148 (gas: 3)\n  4200: ecalli 13 // 'return_data_size'\n  4202: a1 = a0\n  4204: fallthrough\n      : @149 (gas: 18)\n  4205: a2 = s1 + 0x10d8\n  4209: t0 = u64 [s1 + 0x128]\n  4213: a4 = u64 [s1 + 0x120]\n  4217: a5 = u64 [s1 + 0x118]\n  4221: a3 = u64 [s1 + 0x110]\n  4225: u64 [s1 + 0x100] = a1\n  4229: u64 [s1 + 264] = 0\n  4233: u64 [a2 + 0x208] = a1\n  4237: u64 [a2 + 0x228] = t0\n  4241: u64 [a2 + 528] = 0\n  4245: u64 [a2 + 0x230] = a4\n  4249: u64 [a2 + 536] = 0\n  4253: u64 [a2 + 0x238] = a5\n  4257: u64 [a2 + 544] = 0\n  4261: a0 = s1 + 0x1300\n  4265: a1 = s1 + 0x12e0\n  4269: u64 [a2 + 0x240] = a3\n  4273: ra = 144, jump @987\n      : @150 [@dyn 72] (gas: 40)\n  4279: t0 = u64 [s1 + 0x128]\n  4283: a1 = u64 [s1 + 0x100]\n  4287: a0 = a1 + t0\n  4290: a1 = a0 <u a1\n  4293: t1 = u64 [s1 + 0x120]\n  4297: a5 = u64 [s1 + 0x108]\n  4301: a2 = a5 + t1\n  4304: a2 = a2 + a1\n  4307: a3 = a2 ^ a5\n  4310: a4 = a2 <u a5\n  4313: a4 = a1 if a3 == 0\n  4316: ra = u64 [s1 + 0x118]\n  4320: a1 = a5 + ra\n  4323: a4 = a4 + a1\n  4326: t2 = a4 <u a1\n  4329: a1 = a1 <u a5\n  4332: a3 = u64 [s1 + 0x110]\n  4336: a5 = a5 + a3\n  4339: a1 = a1 + a5\n  4342: t2 = t2 + a1\n  4345: a1 = s1 + 0x10d8\n  4349: u64 [a1 + 0x1b8] = a4\n  4353: a1 = s1 + 0x10d8\n  4357: u64 [a1 + 0x1b0] = a2\n  4361: a1 = s1 + 0x10d8\n  4365: u64 [a1 + 0x1a8] = a0\n  4369: a0 = s1 + 0x10d8\n  4373: u64 [a0 + 0x1e0] = a3\n  4377: a0 = s1 + 0x10d8\n  4381: u64 [a0 + 0x1d8] = ra\n  4385: a0 = s1 + 0x10d8\n  4389: u64 [a0 + 0x1d0] = t1\n  4393: a0 = s1 + 0x10d8\n  4397: u64 [a0 + 0x1c8] = t0\n  4401: a0 = s1 + 0x12c0\n  4405: a1 = s1 + 0x12a0\n  4409: a2 = s1 + 0x1280\n  4413: a4 = s1 + 0x10d8\n  4417: u64 [a4 + 0x1c0] = t2\n  4421: ra = 146, jump @997\n      : @151 [@dyn 73] (gas: 20)\n  4427: a0 = s1 + 0x10d8\n  4431: a1 = u64 [a0 + 0x1e8]\n  4435: a0 = s1 + 0x10d8\n  4439: a0 = u64 [a0 + 0x1f0]\n  4443: a2 = s1 + 0x10d8\n  4447: a2 = u64 [a2 + 0x1f8]\n  4451: a3 = s1 + 0x10d8\n  4455: a3 = u64 [a3 + 0x200]\n  4459: a4 = s1 + 0x10d8\n  4463: u64 [a4 + 0x1a0] = a3\n  4467: a3 = s1 + 0x10d8\n  4471: u64 [a3 + 0x198] = a2\n  4475: a2 = s1 + 0x10d8\n  4479: u64 [a2 + 0x190] = a0\n  4483: a0 = s1 + 0x1260\n  4487: a2 = s1 + 0x10d8\n  4491: u64 [a2 + 0x188] = a1\n  4495: ra = 0x94\n  4499: t0 = 0x47a\n  4503: jump @1129\n      : @152 [@dyn 74] (gas: 3)\n  4506: a0 = s1 + 0x1240\n  4510: a1 = 0x40\n  4513: ra = 150, jump @7\n      : @153 [@dyn 75] (gas: 7)\n  4519: a3 = s1 + 0x10d8\n  4523: a5 = a3 + 0x100\n  4527: a0 = u64 [a5 + 0x80]\n  4531: a1 = u64 [a5 + 0x78]\n  4534: a2 = u64 [a5 + 0x70]\n  4537: a4 = u64 [a5 + 0x68]\n  4540: t0 = 152, jump @1122\n      : @154 [@dyn 76] (gas: 1)\n  4546: jump @156 if a0 == 0\n      : @155 (gas: 1)\n  4549: jump @848\n      : @156 (gas: 13)\n  4552: a0 = u64 [s1 + 0x138]\n  4556: a2 = a3 + 0x100\n  4560: u64 [a2 + 0x48] = a0\n  4563: a0 = u64 [s1 + 0x140]\n  4567: u64 [a2 + 0x50] = a0\n  4570: a0 = u64 [s1 + 0x148]\n  4574: u64 [a2 + 0x58] = a0\n  4577: a1 = s1 + 0x1220\n  4581: a0 = u64 [s1 + 0x150]\n  4585: u64 [a2 + 0x60] = a0\n  4588: a0 = a4\n  4590: u64 [s1 + 0x150] = a4\n  4594: ra = 154, jump @9\n      : @157 [@dyn 77] (gas: 6)\n  4600: a0 = u64 [s1 + 0x130]\n  4604: ra = 0x9c\n  4608: ecalli 5 // 'caller'\n  4610: a2 = u64 [s1 + 0x158]\n  4614: t0 = 0x9e\n  4618: jump @1125\n      : @158 [@dyn 78] (gas: 2)\n  4621: a2 = u64 [s1 + 0x158]\n  4625: t0 = 158, jump @1125\n      : @159 [@dyn 79] (gas: 25)\n  4631: t0 = a1 | a0\n  4634: a3 = a3 >> 0x20\n  4637: a2 = reverse a2\n  4639: a1 = a2 << 0x20\n  4642: a1 = a1 | a3\n  4645: a2 = a2 >> 0x20\n  4648: a3 = u64 [0x200b0]\n  4653: a0 = s1 + 0x10d8\n  4657: u64 [a0 + 0x140] = a3\n  4661: a3 = u64 [0x200b8]\n  4666: a4 = u64 [0x200c0]\n  4671: a5 = u64 [0x200c8]\n  4676: u64 [a0 + 0x138] = a3\n  4680: a3 = a0 + 0x100\n  4684: u64 [a3 + 0x30] = a4\n  4687: u64 [a0 + 288] = 0\n  4691: u64 [a3 + 0x28] = a5\n  4694: u64 [a3 + 0x18] = a2\n  4697: u64 [a3 + 0x10] = a1\n  4700: a1 = 0x20\n  4703: a2 = s1 + 0x1200\n  4707: a3 = s1 + 0x11e0\n  4711: u64 [a0 + 0x108] = t0\n  4715: a0 = u64 [s1 + 0x150]\n  4719: ra = 160, jump @13\n      : @160 [@dyn 80] (gas: 7)\n  4725: a1 = s1 + 0x28d8\n  4729: u64 [a1 + 1152] = 0\n  4733: u64 [a1 + 1144] = 0\n  4737: u64 [a1 + 1136] = 0\n  4741: u64 [a1 + 1128] = 0x1\n  4746: a0 = 0x2d40\n  4750: jump @492\n      : @161 (gas: 8)\n  4753: u64 [a3 + 416] = 0\n  4757: u64 [a3 + 408] = 0\n  4761: u64 [a3 + 400] = 0\n  4765: u64 [a3 + 392] = 0\n  4769: a0 = s1 + 0x3000\n  4773: i32 a0 = a0 + 0x260\n  4777: ecalli 17 // 'value_transferred'\n  4779: fallthrough\n      : @162 (gas: 10)\n  4780: a3 = s1 + 0x30d8\n  4784: a4 = a3 + 0x100\n  4788: a0 = u64 [a4 + 0x98]\n  4792: a1 = u64 [a4 + 0xa0]\n  4796: a2 = u64 [a4 + 0x90]\n  4800: a3 = u64 [a4 + 0x88]\n  4804: a1 = a1 | a2\n  4807: a0 = a0 | a3\n  4810: a0 = a0 | a1\n  4813: jump @164 if a0 == 0\n      : @163 (gas: 1)\n  4816: jump @912\n      : @164 (gas: 3)\n  4819: a0 = u64 [s1 + 0x158]\n  4823: a0 = i32 [a0]\n  4825: jump @166 if a0 >u 3\n      : @165 (gas: 1)\n  4829: jump @912\n      : @166 (gas: 3)\n  4832: a0 = s1 + 0x2720\n  4836: a1 = 0x40\n  4839: ra = 162, jump @7\n      : @167 [@dyn 81] (gas: 14)\n  4845: a3 = s1 + 0x20d8\n  4849: a5 = a3 + 0x600\n  4853: a4 = u64 [a5 + 0x60]\n  4856: a1 = u64 [a5 + 0x58]\n  4859: a2 = u64 [a5 + 0x50]\n  4862: a0 = u64 [a5 + 0x48]\n  4865: a4 = a4 | a2\n  4868: a2 = a0 | a1\n  4871: a2 = a2 | a4\n  4874: a2 = a2 >> 0x20\n  4877: a1 = a1 | a4\n  4880: a1 = a1 << 0x20\n  4883: a1 = a1 | a2\n  4886: jump @169 if a1 == 0\n      : @168 (gas: 1)\n  4889: jump @848\n      : @169 (gas: 8)\n  4892: u64 [a3 + 1600] = 0\n  4896: u64 [a3 + 1592] = 0\n  4900: u64 [a3 + 1576] = 0x2710\n  4906: a1 = s1 + 0x2700\n  4910: u64 [a3 + 1584] = 0\n  4914: u64 [s1 + 0x158] = a0\n  4918: ra = 0x112\n  4922: jump @9\n      : @170 (gas: 9)\n  4925: a0 = s1 + 0x28d8\n  4929: u64 [a0 + 1792] = 0\n  4933: u64 [a0 + 1784] = 0\n  4937: u64 [a0 + 1776] = 0\n  4941: u64 [a0 + 1768] = 0\n  4945: a0 = s1 + 0x3000\n  4949: i32 a0 = a0 + 0xffffffffffffffc0\n  4952: ecalli 17 // 'value_transferred'\n  4954: fallthrough\n      : @171 (gas: 10)\n  4955: a3 = s1 + 0x28d8\n  4959: a4 = a3 + 0x600\n  4963: a0 = u64 [a4 + 0xf8]\n  4967: a1 = u64 [a3 + 0x700]\n  4971: a2 = u64 [a4 + 0xf0]\n  4975: a3 = u64 [a4 + 0xe8]\n  4979: a1 = a1 | a2\n  4982: a0 = a0 | a3\n  4985: a0 = a0 | a1\n  4988: jump @173 if a0 == 0\n      : @172 (gas: 1)\n  4991: jump @912\n      : @173 (gas: 3)\n  4994: a0 = u64 [s1 + 0x158]\n  4998: a0 = i32 [a0]\n  5000: jump @175 if a0 >u 3\n      : @174 (gas: 1)\n  5004: jump @912\n      : @175 (gas: 3)\n  5007: a0 = s1 + 0x1fe0\n  5011: a1 = 0x40\n  5014: ra = 164, jump @7\n      : @176 [@dyn 82] (gas: 11)\n  5020: a0 = s1 + 0x18d8\n  5024: a2 = a0 + 0x700\n  5028: a1 = u64 [a2 + 0x20]\n  5031: u64 [s1 + 0x158] = a1\n  5035: a1 = u64 [a2 + 0x18]\n  5038: u64 [s1 + 0x150] = a1\n  5042: a1 = u64 [a2 + 0x10]\n  5045: u64 [s1 + 0x140] = a1\n  5049: a0 = u64 [a2 + 0x8]\n  5052: u64 [s1 + 0x148] = a0\n  5056: ra = 166, jump @0\n      : @177 [@dyn 83] (gas: 14)\n  5062: a4 = s1 + 0x100\n  5066: a0 = u64 [a4 + 0x58]\n  5069: a1 = u64 [a4 + 0x40]\n  5072: a0 = a0 | a1\n  5075: a1 = u64 [a4 + 0x48]\n  5078: a3 = a1\n  5080: a2 = u64 [a4 + 0x50]\n  5083: a1 = a1 | a2\n  5086: a1 = a1 | a0\n  5089: a1 = a1 >> 0x20\n  5092: a0 = a0 | a2\n  5095: a0 = a0 << 0x20\n  5098: a0 = a0 | a1\n  5101: jump @179 if a0 == 0\n      : @178 (gas: 1)\n  5104: jump @848\n      : @179 (gas: 12)\n  5107: a2 = u64 [0x30220]\n  5112: a1 = u64 [0x30228]\n  5117: a0 = u32 [0x30230]\n  5122: a4 = s1 + 0x18d8\n  5126: u64 [a4 + 1792] = 0\n  5130: a5 = a4 + 0x600\n  5134: u64 [a5 + 0xf8] = a0\n  5138: u64 [a5 + 0xf0] = a1\n  5142: a1 = s1 + 0x1fc0\n  5146: u64 [a5 + 0xe8] = a2\n  5150: a0 = a3\n  5152: ra = 168, jump @9\n      : @180 [@dyn 84] (gas: 4)\n  5158: a1 = 0x20\n  5161: a0 = u64 [s1 + 0x148]\n  5165: ra = 0x114\n  5169: jump @20\n      : @181 (gas: 11)\n  5172: u64 [a3 + 448] = 0\n  5176: u64 [a3 + 440] = 0\n  5180: u64 [a3 + 432] = 0\n  5184: u64 [a3 + 424] = 0\n  5188: a0 = s1 + 0x3000\n  5192: i32 a0 = a0 + 0x280\n  5196: ra = 0xaa\n  5200: ecalli 17 // 'value_transferred'\n  5202: a0 = 0x30d8\n  5206: t0 = 0xac\n  5210: jump @1149\n      : @182 [@dyn 85] (gas: 2)\n  5213: a0 = 0x30d8\n  5217: t0 = 172, jump @1149\n      : @183 [@dyn 86] (gas: 1)\n  5223: jump @185 if a0 == 0\n      : @184 (gas: 1)\n  5226: jump @912\n      : @185 (gas: 1)\n  5229: t0 = 174, jump @1148\n      : @186 [@dyn 87] (gas: 1)\n  5235: jump @188 if a1 <u a0\n      : @187 (gas: 1)\n  5238: jump @912\n      : @188 (gas: 40)\n  5241: a0 = s1 + 0x3000\n  5245: i32 a0 = a0 + 0x2a0\n  5249: a1 = 0x4\n  5252: ecalli 3 // 'call_data_load'\n  5254: a3 = s1 + 0x30d8\n  5258: a4 = a3 + 0x100\n  5262: a2 = u64 [a4 + 0xc8]\n  5266: a0 = u64 [a4 + 0xd0]\n  5270: a1 = u64 [a4 + 0xd8]\n  5274: a3 = u64 [a4 + 0xe0]\n  5278: a4 = s1 + 0x20d8\n  5282: a5 = a4 + 0x600\n  5286: u64 [a5 + 0xc0] = a3\n  5290: u64 [a5 + 0xb8] = a1\n  5294: u64 [a5 + 0xb0] = a0\n  5298: a0 = s1 + 0x27a0\n  5302: a1 = s1 + 0x2780\n  5306: u64 [a5 + 0xa8] = a2\n  5310: ra = 0xb0\n  5314: sp = sp + 0xfffffffffffffde0\n  5318: a2 = sp + 0x200\n  5322: u64 [a2 + 0x18] = ra\n  5325: u64 [a2 + 0x10] = s0\n  5328: u64 [a2 + 0x8] = s1\n  5331: s0 = sp + 0x220\n  5335: sp = sp & 0xffffffffffffffe0\n  5338: s1 = sp\n  5340: a2 = u64 [a1]\n  5342: a3 = u64 [a1 + 0x8]\n  5345: a4 = u64 [a1 + 0x10]\n  5348: a1 = u64 [a1 + 0x18]\n  5351: u64 [s1 + 0x38] = a0\n  5354: u64 [s1 + 0x158] = a1\n  5358: u64 [s1 + 0x150] = a4\n  5362: u64 [s1 + 0x148] = a3\n  5366: a1 = s1 + 0x140\n  5370: u64 [s1 + 0x140] = a2\n  5374: a0 = 0\n  5376: ra = 0x4e6\n  5380: jump @9\n      : @189 [@dyn 88] (gas: 3)\n  5383: t0 = 0xb2\n  5387: a1 = s1 + 0x20d8\n  5391: fallthrough\n      : @190 [@dyn 89] (gas: 13)\n  5392: a2 = a1 + 0x600\n  5396: a0 = u64 [a2 + 0xe0]\n  5400: a1 = s1 + 0x100\n  5404: u64 [a1 + 0x58] = a0\n  5407: a0 = u64 [a2 + 0xd8]\n  5411: u64 [a1 + 0x50] = a0\n  5414: a0 = u64 [a2 + 0xd0]\n  5418: u64 [a1 + 0x48] = a0\n  5421: a0 = u64 [a2 + 0xc8]\n  5425: u64 [a1 + 0x40] = a0\n  5428: a0 = s1 + 0x2760\n  5432: a1 = 0x40\n  5435: ra = 180, jump @7\n      : @191 [@dyn 90] (gas: 7)\n  5441: a3 = s1 + 0x20d8\n  5445: a5 = a3 + 0x600\n  5449: a0 = u64 [a5 + 0xa0]\n  5453: a1 = u64 [a5 + 0x98]\n  5457: a2 = u64 [a5 + 0x90]\n  5461: a4 = u64 [a5 + 0x88]\n  5465: t0 = 182, jump @1122\n      : @192 [@dyn 91] (gas: 1)\n  5471: jump @194 if a0 == 0\n      : @193 (gas: 1)\n  5474: jump @848\n      : @194 (gas: 15)\n  5477: a2 = s1 + 0x100\n  5481: a0 = u64 [a2 + 0x40]\n  5484: a5 = a3 + 0x600\n  5488: u64 [a5 + 0x68] = a0\n  5491: a0 = u64 [a2 + 0x48]\n  5494: u64 [a5 + 0x70] = a0\n  5497: a0 = u64 [a2 + 0x50]\n  5500: u64 [a5 + 0x78] = a0\n  5503: a1 = s1 + 0x2740\n  5507: a0 = u64 [a2 + 0x58]\n  5510: u64 [a5 + 0x80] = a0\n  5514: a0 = a4\n  5516: u64 [s1 + 0x158] = a4\n  5520: ra = 0x112\n  5524: jump @9\n      : @195 (gas: 9)\n  5527: u64 [a3 + 192] = 0\n  5531: u64 [a3 + 184] = 0\n  5535: u64 [a3 + 176] = 0\n  5539: u64 [a3 + 168] = 0\n  5543: a0 = s1 + 0x3000\n  5547: i32 a0 = a0 + 0x180\n  5551: ra = 0xb8\n  5555: ecalli 17 // 'value_transferred'\n  5557: fallthrough\n      : @196 [@dyn 92] (gas: 9)\n  5558: a3 = s1 + 0x30d8\n  5562: a0 = u64 [a3 + 0xb8]\n  5566: a1 = u64 [a3 + 0xc0]\n  5570: a2 = u64 [a3 + 0xb0]\n  5574: a3 = u64 [a3 + 0xa8]\n  5578: a1 = a1 | a2\n  5581: a0 = a0 | a3\n  5584: a0 = a0 | a1\n  5587: jump @198 if a0 == 0\n      : @197 (gas: 1)\n  5590: jump @912\n      : @198 (gas: 1)\n  5593: t0 = 186, jump @1148\n      : @199 [@dyn 93] (gas: 1)\n  5599: jump @201 if a1 <u a0\n      : @200 (gas: 1)\n  5602: jump @912\n      : @201 (gas: 18)\n  5605: a0 = s1 + 0x3000\n  5609: i32 a0 = a0 + 0x1a0\n  5613: a1 = 0x4\n  5616: ecalli 3 // 'call_data_load'\n  5618: a3 = s1 + 0x30d8\n  5622: a0 = u64 [a3 + 0xc8]\n  5626: a1 = u64 [a3 + 0xd0]\n  5630: a2 = u64 [a3 + 0xd8]\n  5634: a3 = u64 [a3 + 0xe0]\n  5638: a4 = s1 + 0x20d8\n  5642: a5 = a4 + 0x600\n  5646: u64 [a5 + 0x20] = a3\n  5649: u64 [a5 + 0x18] = a2\n  5652: u64 [a5 + 0x10] = a1\n  5655: a1 = s1 + 0x26e0\n  5659: u64 [a5 + 0x8] = a0\n  5662: a0 = 0\n  5664: ra = 188, jump @9\n      : @202 [@dyn 94] (gas: 8)\n  5670: a2 = s1 + 0x20d8\n  5674: u64 [a2 + 1536] = 0\n  5678: u64 [a2 + 1528] = 0\n  5682: u64 [a2 + 1512] = 0x2\n  5687: a0 = 0x20\n  5690: a1 = s1 + 0x26c0\n  5694: u64 [a2 + 1520] = 0\n  5698: ra = 190, jump @9\n      : @203 [@dyn 95] (gas: 1)\n  5704: t0 = 192, jump @1143\n      : @204 [@dyn 96] (gas: 1)\n  5710: ra = 194, jump @20\n      : @205 [@dyn 97] (gas: 4)\n  5716: a1 = sp + 0xffffffffffffffe0\n  5719: a1 = a1 & 0xffffffffffffffe0\n  5722: u64 [s1 + 0x158] = a1\n  5726: t0 = 196, jump @1117\n      : @206 [@dyn 98] (gas: 4)\n  5732: ra = 0xc6\n  5736: ecalli 9 // 'hash_keccak_256'\n  5738: t0 = 0xc8\n  5742: jump @1124\n      : @207 [@dyn 99] (gas: 1)\n  5745: t0 = 200, jump @1124\n      : @208 [@dyn 100] (gas: 2)\n  5751: a0 = s1 + 0x26a0\n  5755: ra = 202, jump @11\n      : @209 [@dyn 101] (gas: 7)\n  5761: a1 = s1 + 0x20d8\n  5765: a0 = u64 [a1 + 0x5c8]\n  5769: u64 [s1 + 0x138] = a0\n  5773: a0 = u64 [a1 + 0x5d0]\n  5777: u64 [s1 + 0x130] = a0\n  5781: a0 = u32 [a1 + 0x5d8]\n  5785: t0 = 204, jump @1151\n      : @210 [@dyn 102] (gas: 16)\n  5791: i32 a2 = a2 + 0xd8\n  5795: a2 = a2 + s1\n  5798: u64 [a2 + 0xf0] = a1\n  5802: a1 = a1 | a0\n  5805: u64 [a2 + 0xe8] = a0\n  5809: a0 = a1 <u 0x1\n  5812: a1 = u64 [s1 + 0x140]\n  5816: a0 = a0 + a1\n  5819: u64 [a2 + 0xf8] = a0\n  5823: a0 = a0 <u a1\n  5826: a1 = u64 [s1 + 0x158]\n  5830: a0 = a0 + a1\n  5833: u64 [a2 + 0x100] = a0\n  5837: a0 = s1 + 0x2680\n  5841: a1 = s1 + 0x31c0\n  5845: ra = 206, jump @11\n      : @211 [@dyn 103] (gas: 10)\n  5851: a1 = s1 + 0x20d8\n  5855: a0 = u64 [a1 + 0x5a8]\n  5859: u64 [s1 + 0x120] = a0\n  5863: a0 = u64 [a1 + 0x5b0]\n  5867: u64 [s1 + 0x118] = a0\n  5871: a0 = u32 [a1 + 0x5b8]\n  5875: u64 [s1 + 0x110] = a0\n  5879: a1 = u64 [s1 + 0x148]\n  5883: a0 = a1 + 0x2\n  5886: t0 = 208, jump @1115\n      : @212 [@dyn 104] (gas: 7)\n  5892: u64 [a5 + 0x20] = a1\n  5895: u64 [a5 + 0x18] = a3\n  5898: u64 [a5 + 0x10] = a2\n  5901: u64 [a5 + 0x8] = a0\n  5904: a0 = s1 + 0x2660\n  5908: a1 = s1 + 0x31e0\n  5912: ra = 210, jump @11\n      : @213 [@dyn 105] (gas: 13)\n  5918: a0 = s1 + 0x20d8\n  5922: a2 = a0 + 0x500\n  5926: a1 = u64 [a2 + 0x88]\n  5930: u64 [s1 + 0x108] = a1\n  5934: a1 = u64 [a2 + 0x90]\n  5938: u64 [s1 + 0x100] = a1\n  5942: a1 = u64 [a2 + 0x98]\n  5946: u64 [s1 + 0xf8] = a1\n  5950: a1 = u64 [a2 + 0xa0]\n  5954: u64 [s1 + 0xf0] = a1\n  5958: a1 = u64 [s1 + 0x148]\n  5962: a0 = a1 + 0x3\n  5965: t0 = 212, jump @1115\n      : @214 [@dyn 106] (gas: 7)\n  5971: u64 [a5 + 0x40] = a1\n  5974: u64 [a5 + 0x38] = a3\n  5977: u64 [a5 + 0x30] = a2\n  5980: u64 [a5 + 0x28] = a0\n  5983: a0 = s1 + 0x2640\n  5987: a1 = s1 + 0x3200\n  5991: ra = 214, jump @11\n      : @215 [@dyn 107] (gas: 13)\n  5997: a0 = s1 + 0x20d8\n  6001: a2 = a0 + 0x500\n  6005: a1 = u64 [a2 + 0x68]\n  6008: u64 [s1 + 0xe8] = a1\n  6012: a1 = u64 [a2 + 0x70]\n  6015: u64 [s1 + 0xe0] = a1\n  6019: a1 = u64 [a2 + 0x78]\n  6022: u64 [s1 + 0xd8] = a1\n  6026: a1 = u64 [a2 + 0x80]\n  6030: u64 [s1 + 0xd0] = a1\n  6034: a1 = u64 [s1 + 0x148]\n  6038: a0 = a1 + 0x4\n  6041: t0 = 216, jump @1115\n      : @216 [@dyn 108] (gas: 7)\n  6047: u64 [a5 + 0x60] = a1\n  6050: u64 [a5 + 0x58] = a3\n  6053: u64 [a5 + 0x50] = a2\n  6056: u64 [a5 + 0x48] = a0\n  6059: a0 = s1 + 0x2620\n  6063: a1 = s1 + 0x3220\n  6067: ra = 218, jump @11\n      : @217 [@dyn 109] (gas: 8)\n  6073: a5 = s1 + 0x20d8\n  6077: a0 = u64 [a5 + 0x548]\n  6081: u64 [s1 + 0xc8] = a0\n  6085: a0 = u64 [a5 + 0x550]\n  6089: u64 [s1 + 0xc0] = a0\n  6093: a1 = u64 [s1 + 0x148]\n  6097: a0 = a1 + 0x5\n  6100: t0 = 220, jump @1133\n      : @218 [@dyn 110] (gas: 2)\n  6106: a1 = u64 [a5 + 0x558]\n  6110: t0 = 222, jump @1153\n      : @219 [@dyn 111] (gas: 11)\n  6116: a4 = u64 [a5 + 0x560]\n  6120: u64 [s1 + 0x148] = a4\n  6124: a4 = s1 + 0x30d8\n  6128: a5 = a4 + 0x100\n  6132: u64 [a5 + 0x80] = a1\n  6136: u64 [a5 + 0x78] = a3\n  6139: u64 [a5 + 0x70] = a2\n  6142: u64 [a5 + 0x68] = a0\n  6145: a0 = s1 + 0x2600\n  6149: a1 = s1 + 0x3240\n  6153: ra = 224, jump @11\n      : @220 [@dyn 112] (gas: 6)\n  6159: a0 = s1 + 0x20d8\n  6163: a0 = u8 [a0 + 0x528]\n  6167: u64 [s1 + 0x140] = a0\n  6171: a0 = s1 + 0x25e0\n  6175: a1 = 0x40\n  6178: ra = 226, jump @7\n      : @221 [@dyn 113] (gas: 72)\n  6184: a1 = s1 + 0x20d8\n  6188: a0 = a1 + 0x500\n  6192: a3 = u64 [a0 + 0x20]\n  6195: u64 [s1 + 0x158] = a3\n  6199: a2 = u64 [a0 + 0x18]\n  6202: u64 [s1 + 0xb8] = a2\n  6206: a4 = u64 [a0 + 0x10]\n  6209: u64 [s1 + 0xb0] = a4\n  6213: t1 = u64 [a1 + 0x508]\n  6217: u64 [s1 + 0xa8] = t1\n  6221: sp = sp + 0xfffffffffffffff0\n  6224: a0 = s1 + 0x24e0\n  6228: u64 [sp + 0x8] = a0\n  6231: a0 = s1 + 0x2500\n  6235: u64 [sp] = a0\n  6237: a0 = a1\n  6239: a1 = u64 [s1 + 0x140]\n  6243: a5 = a0 + 0x400\n  6247: u64 [a5 + 0x8] = a1\n  6250: a1 = u64 [s1 + 0x148]\n  6254: u64 [a5 + 0x40] = a1\n  6257: a1 = u64 [s1 + 0x150]\n  6261: u64 [a5 + 0x38] = a1\n  6264: a1 = u64 [s1 + 0xc0]\n  6268: u64 [a5 + 0x30] = a1\n  6271: a1 = u64 [s1 + 0xc8]\n  6275: u64 [a5 + 0x28] = a1\n  6278: a1 = u64 [s1 + 0xd0]\n  6282: u64 [a5 + 0x60] = a1\n  6285: a1 = u64 [s1 + 0xd8]\n  6289: u64 [a5 + 0x58] = a1\n  6292: a1 = u64 [s1 + 0xe0]\n  6296: u64 [a5 + 0x50] = a1\n  6299: a1 = u64 [s1 + 0xe8]\n  6303: u64 [a5 + 0x48] = a1\n  6306: a1 = u64 [s1 + 0xf0]\n  6310: u64 [a5 + 0x80] = a1\n  6314: a1 = u64 [s1 + 0xf8]\n  6318: u64 [a5 + 0x78] = a1\n  6321: a1 = u64 [s1 + 0x100]\n  6325: u64 [a5 + 0x70] = a1\n  6328: a1 = u64 [s1 + 0x108]\n  6332: u64 [a5 + 0x68] = a1\n  6335: u64 [a0 + 1056] = 0\n  6339: u64 [a0 + 1048] = 0\n  6343: u64 [a0 + 1040] = 0\n  6347: u64 [a0 + 1184] = 0\n  6351: a1 = u64 [s1 + 0x110]\n  6355: u64 [a5 + 0x98] = a1\n  6359: a1 = u64 [s1 + 0x118]\n  6363: u64 [a5 + 0x90] = a1\n  6367: a1 = u64 [s1 + 0x120]\n  6371: u64 [a5 + 0x88] = a1\n  6375: u64 [a0 + 1216] = 0\n  6379: a1 = u64 [s1 + 0x128]\n  6383: u64 [a5 + 0xb8] = a1\n  6387: a1 = u64 [s1 + 0x130]\n  6391: u64 [a5 + 0xb0] = a1\n  6395: a1 = u64 [s1 + 0x138]\n  6399: u64 [a5 + 0xa8] = a1\n  6403: u64 [a5 + 0xe0] = a3\n  6407: u64 [a5 + 0xd8] = a2\n  6411: u64 [a5 + 0xd0] = a4\n  6415: t0 = a0\n  6417: a0 = s1 + 0x25c0\n  6421: a1 = s1 + 0x25a0\n  6425: a2 = s1 + 0x2580\n  6429: a3 = s1 + 0x2560\n  6433: a4 = s1 + 0x2540\n  6437: a5 = s1 + 0x2520\n  6441: u64 [t0 + 0x4c8] = t1\n  6445: ra = 228, jump @936\n      : @222 [@dyn 114] (gas: 1)\n  6451: t0 = 230, jump @1145\n      : @223 [@dyn 115] (gas: 1)\n  6457: jump @225 if a0 == 0\n      : @224 (gas: 1)\n  6460: jump @848\n      : @225 (gas: 8)\n  6463: t0 = a3\n  6465: a1 = s1 + 0x20d8\n  6469: a0 = u64 [a1 + 0x4f0]\n  6473: a3 = u64 [a1 + 0x500]\n  6477: u64 [s1 + 0x150] = a3\n  6481: t1 = u64 [a1 + 0x4e8]\n  6485: a3 = u64 [a1 + 0x4f8]\n  6489: jump @365\n      : @226 (gas: 11)\n  6492: a0 = s1 + 0x28d8\n  6496: u64 [a0 + 576] = 0\n  6500: u64 [a0 + 568] = 0\n  6504: u64 [a0 + 560] = 0\n  6508: u64 [a0 + 552] = 0\n  6512: a0 = s1 + 0x3000\n  6516: i32 a0 = a0 + 0xfffffffffffffb00\n  6520: ra = 0xe8\n  6524: ecalli 17 // 'value_transferred'\n  6526: t0 = 0xea\n  6530: jump @1147\n      : @227 [@dyn 116] (gas: 1)\n  6533: t0 = 234, jump @1147\n      : @228 [@dyn 117] (gas: 8)\n  6539: a0 = u64 [a4 + 0x38]\n  6542: a1 = u64 [a4 + 0x40]\n  6545: a2 = u64 [a4 + 0x30]\n  6548: a3 = u64 [a4 + 0x28]\n  6551: a1 = a1 | a2\n  6554: a0 = a0 | a3\n  6557: a0 = a0 | a1\n  6560: jump @230 if a0 == 0\n      : @229 (gas: 1)\n  6563: jump @912\n      : @230 (gas: 1)\n  6566: t0 = 236, jump @1148\n      : @231 [@dyn 118] (gas: 1)\n  6572: jump @233 if a1 <u a0\n      : @232 (gas: 1)\n  6575: jump @912\n      : @233 (gas: 3)\n  6578: a0 = s1 + 0x7ff\n  6582: a0 = a0 + 0x7a1\n  6586: ra = 238, jump @931\n      : @234 [@dyn 119] (gas: 3)\n  6592: a3 = s1 + 0x7ff\n  6596: a3 = a3 + 0xd9\n  6600: t0 = 240, jump @1154\n      : @235 [@dyn 120] (gas: 5)\n  6606: a1 = s1 + 0x7ff\n  6610: a1 = a1 + 0x781\n  6614: u64 [a4 + 0xa8] = a0\n  6618: a0 = 0\n  6620: ra = 242, jump @9\n      : @236 [@dyn 121] (gas: 10)\n  6626: a2 = s1 + 0x7ff\n  6630: a2 = a2 + 0xd9\n  6634: u64 [a2 + 1696] = 0\n  6638: u64 [a2 + 1688] = 0\n  6642: u64 [a2 + 1672] = 0x1\n  6647: a0 = 0x20\n  6650: a1 = s1 + 0x7ff\n  6654: a1 = a1 + 0x761\n  6658: u64 [a2 + 1680] = 0\n  6662: ra = 244, jump @9\n      : @237 [@dyn 122] (gas: 3)\n  6668: a1 = 0x40\n  6671: a0 = 0\n  6673: ra = 246, jump @20\n      : @238 [@dyn 123] (gas: 4)\n  6679: a1 = sp + 0xffffffffffffffe0\n  6682: a1 = a1 & 0xffffffffffffffe0\n  6685: u64 [s1 + 0x158] = a1\n  6689: t0 = 248, jump @1117\n      : @239 [@dyn 124] (gas: 5)\n  6695: ra = 0xfa\n  6699: ecalli 9 // 'hash_keccak_256'\n  6701: a3 = u64 [s1 + 0x158]\n  6705: t0 = 0xfc\n  6709: jump @1110\n      : @240 [@dyn 125] (gas: 2)\n  6712: a3 = u64 [s1 + 0x158]\n  6716: t0 = 252, jump @1110\n      : @241 [@dyn 126] (gas: 9)\n  6722: a5 = a4 + 0x200\n  6726: u64 [a5 + 0x60] = a3\n  6729: u64 [a5 + 0x58] = a2\n  6732: u64 [a5 + 0x50] = a1\n  6735: u64 [a5 + 0x48] = a0\n  6738: a0 = s1 + 0x7ff\n  6742: a0 = a0 + 0x741\n  6746: a1 = s1 + 0x2b20\n  6750: ra = 254, jump @11\n      : @242 [@dyn 127] (gas: 16)\n  6756: a0 = s1 + 0x7ff\n  6760: a0 = a0 + 0xd9\n  6764: a2 = a0 + 0x600\n  6768: a1 = u64 [a2 + 0x80]\n  6772: a0 = s1 + 0x100\n  6776: u64 [a0 + 0x58] = a1\n  6779: a1 = u64 [a2 + 0x78]\n  6782: u64 [a0 + 0x50] = a1\n  6785: a1 = u64 [a2 + 0x70]\n  6788: u64 [a0 + 0x48] = a1\n  6791: a1 = u64 [a2 + 0x68]\n  6794: u64 [a0 + 0x40] = a1\n  6797: a0 = s1 + 0x7ff\n  6801: a0 = a0 + 0x721\n  6805: a1 = 0x40\n  6808: ra = 256, jump @7\n      : @243 [@dyn 128] (gas: 8)\n  6814: a3 = s1 + 0x7ff\n  6818: a3 = a3 + 0xd9\n  6822: a5 = a3 + 0x600\n  6826: a0 = u64 [a5 + 0x60]\n  6829: a1 = u64 [a5 + 0x58]\n  6832: a2 = u64 [a5 + 0x50]\n  6835: a4 = u64 [a5 + 0x48]\n  6838: t0 = 258, jump @1122\n      : @244 [@dyn 129] (gas: 1)\n  6844: jump @246 if a0 == 0\n      : @245 (gas: 1)\n  6847: jump @848\n      : @246 (gas: 16)\n  6850: a2 = s1 + 0x100\n  6854: a0 = u64 [a2 + 0x40]\n  6857: a5 = a3 + 0x600\n  6861: u64 [a5 + 0x28] = a0\n  6864: a0 = u64 [a2 + 0x48]\n  6867: u64 [a5 + 0x30] = a0\n  6870: a0 = u64 [a2 + 0x50]\n  6873: u64 [a5 + 0x38] = a0\n  6876: a1 = s1 + 0x7ff\n  6880: a1 = a1 + 0x701\n  6884: a0 = u64 [a2 + 0x58]\n  6887: u64 [a5 + 0x40] = a0\n  6890: a0 = a4\n  6892: u64 [s1 + 0x158] = a4\n  6896: ra = 0x112\n  6900: jump @9\n      : @247 (gas: 11)\n  6903: a0 = s1 + 0x28d8\n  6907: u64 [a0 + 544] = 0\n  6911: u64 [a0 + 536] = 0\n  6915: u64 [a0 + 528] = 0\n  6919: u64 [a0 + 520] = 0\n  6923: a0 = s1 + 0x3000\n  6927: i32 a0 = a0 + 0xfffffffffffffae0\n  6931: ra = 0x104\n  6935: ecalli 17 // 'value_transferred'\n  6937: t0 = 0x106\n  6941: jump @1147\n      : @248 [@dyn 130] (gas: 1)\n  6944: t0 = 262, jump @1147\n      : @249 [@dyn 131] (gas: 8)\n  6950: a0 = u64 [a4 + 0x18]\n  6953: a1 = u64 [a4 + 0x20]\n  6956: a2 = u64 [a4 + 0x10]\n  6959: a3 = u64 [a4 + 0x8]\n  6962: a1 = a1 | a2\n  6965: a0 = a0 | a3\n  6968: a0 = a0 | a1\n  6971: jump @251 if a0 == 0\n      : @250 (gas: 1)\n  6974: jump @912\n      : @251 (gas: 3)\n  6977: a0 = u64 [s1 + 0x158]\n  6981: a0 = i32 [a0]\n  6983: jump @253 if a0 >u 3\n      : @252 (gas: 1)\n  6987: jump @912\n      : @253 (gas: 4)\n  6990: a0 = s1 + 0x7ff\n  6994: a0 = a0 + 0x6e1\n  6998: a1 = 0x40\n  7001: ra = 264, jump @7\n      : @254 [@dyn 132] (gas: 15)\n  7007: a3 = s1 + 0x7ff\n  7011: a3 = a3 + 0xd9\n  7015: a5 = a3 + 0x600\n  7019: a4 = u64 [a5 + 0x20]\n  7022: a1 = u64 [a5 + 0x18]\n  7025: a2 = u64 [a5 + 0x10]\n  7028: a0 = u64 [a5 + 0x8]\n  7031: a4 = a4 | a2\n  7034: a2 = a0 | a1\n  7037: a2 = a2 | a4\n  7040: a2 = a2 >> 0x20\n  7043: a1 = a1 | a4\n  7046: a1 = a1 << 0x20\n  7049: a1 = a1 | a2\n  7052: jump @256 if a1 == 0\n      : @255 (gas: 1)\n  7055: jump @848\n      : @256 (gas: 9)\n  7058: u64 [a3 + 1536] = 0\n  7062: u64 [a3 + 1528] = 0\n  7066: u64 [a3 + 1512] = 0x64\n  7071: a1 = s1 + 0x7ff\n  7075: a1 = a1 + 0x6c1\n  7079: u64 [a3 + 1520] = 0\n  7083: u64 [s1 + 0x158] = a0\n  7087: ra = 0x112\n  7091: jump @9\n      : @257 (gas: 8)\n  7094: u64 [a3 + 128] = 0\n  7098: u64 [a3 + 120] = 0\n  7101: u64 [a3 + 112] = 0\n  7104: u64 [a3 + 104] = 0\n  7107: a0 = s1 + 0x3000\n  7111: i32 a0 = a0 + 0x140\n  7115: ecalli 17 // 'value_transferred'\n  7117: fallthrough\n      : @258 (gas: 10)\n  7118: a3 = s1 + 0x30d8\n  7122: a0 = u64 [a3 + 0x78]\n  7125: a1 = u64 [a3 + 0x80]\n  7129: a2 = u64 [a3 + 0x70]\n  7132: a4 = a3\n  7134: a3 = u64 [a3 + 0x68]\n  7137: a1 = a1 | a2\n  7140: a0 = a0 | a3\n  7143: a0 = a0 | a1\n  7146: jump @260 if a0 == 0\n      : @259 (gas: 1)\n  7149: jump @912\n      : @260 (gas: 3)\n  7152: a0 = u64 [s1 + 0x158]\n  7156: a1 = i32 [a0]\n  7158: jump @262 if a1 >u 3\n      : @261 (gas: 1)\n  7162: jump @912\n      : @262 (gas: 7)\n  7165: u64 [a4 + 160] = 0\n  7169: u64 [a4 + 152] = 0\n  7173: u64 [a4 + 144] = 0\n  7177: u64 [a4 + 136] = 0x3\n  7182: a0 = s1 + 0x24c0\n  7186: a1 = s1 + 0x3160\n  7190: ra = 266, jump @11\n      : @263 [@dyn 133] (gas: 3)\n  7196: t0 = 0x10c\n  7200: a1 = s1 + 0x20d8\n  7204: fallthrough\n      : @264 [@dyn 134] (gas: 13)\n  7205: a0 = u64 [a1 + 0x400]\n  7209: a2 = s1 + 0x100\n  7213: u64 [a2 + 0x58] = a0\n  7216: a3 = a1 + 0x300\n  7220: a0 = u64 [a3 + 0xf8]\n  7224: u64 [a2 + 0x50] = a0\n  7227: a0 = u64 [a3 + 0xf0]\n  7231: u64 [a2 + 0x48] = a0\n  7234: a0 = u64 [a3 + 0xe8]\n  7238: u64 [a2 + 0x40] = a0\n  7241: a0 = s1 + 0x24a0\n  7245: a1 = 0x40\n  7248: ra = 270, jump @7\n      : @265 [@dyn 135] (gas: 7)\n  7254: a3 = s1 + 0x20d8\n  7258: a5 = a3 + 0x300\n  7262: a0 = u64 [a5 + 0xe0]\n  7266: a1 = u64 [a5 + 0xd8]\n  7270: a2 = u64 [a5 + 0xd0]\n  7274: a4 = u64 [a5 + 0xc8]\n  7278: t0 = 272, jump @1122\n      : @266 [@dyn 136] (gas: 1)\n  7284: jump @268 if a0 == 0\n      : @267 (gas: 1)\n  7287: jump @848\n      : @268 (gas: 14)\n  7290: a2 = s1 + 0x100\n  7294: a0 = u64 [a2 + 0x40]\n  7297: a5 = a3 + 0x300\n  7301: u64 [a5 + 0xa8] = a0\n  7305: a0 = u64 [a2 + 0x48]\n  7308: u64 [a5 + 0xb0] = a0\n  7312: a0 = u64 [a2 + 0x50]\n  7315: u64 [a5 + 0xb8] = a0\n  7319: a1 = s1 + 0x2480\n  7323: a0 = u64 [a2 + 0x58]\n  7326: u64 [a5 + 0xc0] = a0\n  7330: a0 = a4\n  7332: u64 [s1 + 0x158] = a4\n  7336: ra = 274, jump @9\n      : @269 [@dyn 137] (gas: 3)\n  7342: a1 = 0x20\n  7345: a0 = u64 [s1 + 0x158]\n  7349: ra = 276, jump @20\n      : @270 [@dyn 138] (gas: 5)\n  7355: i32 a1 = a0 + 0\n  7357: a2 = 0x20\n  7360: a0 = 0\n  7362: ecalli 14 // 'seal_return'\n  7364: fallthrough\n      : @271 (gas: 9)\n  7365: a0 = s1 + 0x28d8\n  7369: u64 [a0 + 1216] = 0\n  7373: u64 [a0 + 1208] = 0\n  7377: u64 [a0 + 1200] = 0\n  7381: u64 [a0 + 1192] = 0\n  7385: a0 = s1 + 0x3000\n  7389: i32 a0 = a0 + 0xfffffffffffffd80\n  7393: ecalli 17 // 'value_transferred'\n  7395: fallthrough\n      : @272 (gas: 10)\n  7396: a3 = s1 + 0x28d8\n  7400: a4 = a3 + 0x400\n  7404: a0 = u64 [a4 + 0xb8]\n  7408: a1 = u64 [a4 + 0xc0]\n  7412: a2 = u64 [a4 + 0xb0]\n  7416: a3 = u64 [a4 + 0xa8]\n  7420: a1 = a1 | a2\n  7423: a0 = a0 | a3\n  7426: a0 = a0 | a1\n  7429: jump @274 if a0 == 0\n      : @273 (gas: 1)\n  7432: jump @912\n      : @274 (gas: 3)\n  7435: a0 = u64 [s1 + 0x158]\n  7439: a0 = i32 [a0]\n  7441: jump @276 if a0 >u 99\n      : @275 (gas: 1)\n  7445: jump @912\n      : @276 (gas: 2)\n  7448: a0 = s1 + 0x1fa0\n  7452: ra = 278, jump @931\n      : @277 [@dyn 139] (gas: 26)\n  7458: a0 = s1 + 0x18d8\n  7462: a1 = u64 [a0 + 0x6d0]\n  7466: u64 [s1 + 0x150] = a1\n  7470: a1 = u64 [a0 + 0x6c8]\n  7474: u64 [s1 + 0x158] = a1\n  7478: a0 = u32 [a0 + 0x6d8]\n  7482: u64 [s1 + 0x148] = a0\n  7486: a0 = s1 + 0x3000\n  7490: i32 a0 = a0 + 0xfffffffffffffda0\n  7494: a1 = 0x24\n  7497: ecalli 3 // 'call_data_load'\n  7499: a0 = s1 + 0x28d8\n  7503: a2 = a0 + 0x400\n  7507: a1 = u64 [a2 + 0xe0]\n  7511: u64 [s1 + 0x140] = a1\n  7515: a1 = u64 [a2 + 0xd8]\n  7519: u64 [s1 + 0x138] = a1\n  7523: a1 = u64 [a2 + 0xd0]\n  7527: u64 [s1 + 0x130] = a1\n  7531: a0 = u64 [a2 + 0xc8]\n  7535: u64 [s1 + 0x128] = a0\n  7539: a0 = s1 + 0x3000\n  7543: i32 a0 = a0 + 0xfffffffffffffdc0\n  7547: a1 = 0x44\n  7550: ecalli 3 // 'call_data_load'\n  7552: fallthrough\n      : @278 (gas: 7)\n  7553: a2 = s1 + 0x100\n  7557: a0 = u64 [a2 + 0x58]\n  7560: a1 = u64 [a2 + 0x48]\n  7563: a0 = a0 | a1\n  7566: a1 = u64 [a2 + 0x50]\n  7569: a0 = a0 | a1\n  7572: jump @280 if a0 == 0\n      : @279 (gas: 1)\n  7575: jump @526\n      : @280 (gas: 3)\n  7578: a0 = s1 + 0x1840\n  7582: a1 = 0x40\n  7585: ra = 280, jump @7\n      : @281 [@dyn 140] (gas: 14)\n  7591: a2 = s1 + 0x10d8\n  7595: t0 = u64 [a2 + 0x780]\n  7599: a1 = a2 + 0x700\n  7603: a5 = u64 [a1 + 0x78]\n  7606: a4 = u64 [a1 + 0x70]\n  7609: a0 = u64 [a1 + 0x68]\n  7612: a3 = a4 | t0\n  7615: a1 = a0 | a5\n  7618: a1 = a1 | a3\n  7621: a1 = a1 >> 0x20\n  7624: a3 = a3 | a5\n  7627: a3 = a3 << 0x20\n  7630: a1 = a1 | a3\n  7633: jump @283 if a1 == 0\n      : @282 (gas: 1)\n  7636: jump @848\n      : @283 (gas: 11)\n  7639: u64 [a2 + 1880] = 0\n  7643: u64 [a2 + 1872] = 0\n  7647: u64 [a2 + 1864] = 0\n  7651: a3 = 0x8c379a000000000\n  7661: a1 = s1 + 0x1820\n  7665: u64 [a2 + 0x760] = a3\n  7669: u64 [s1 + 0x158] = a0\n  7673: u64 [s1 + 0x150] = a4\n  7677: u64 [s1 + 0x140] = t0\n  7681: u64 [s1 + 0x148] = a5\n  7685: ra = 282, jump @9\n      : @284 [@dyn 141] (gas: 6)\n  7691: a5 = s1 + 0x100\n  7695: a1 = u64 [a5 + 0x58]\n  7698: a0 = u64 [a5 + 0x48]\n  7701: a3 = u64 [a5 + 0x40]\n  7704: a3 = a3 | a0\n  7707: t0 = 284, jump @1111\n      : @285 [@dyn 142] (gas: 1)\n  7713: jump @287 if a0 != 0\n      : @286 (gas: 1)\n  7716: jump @848\n      : @287 (gas: 10)\n  7719: i32 a0 = a1 + 0x4\n  7722: a2 = s1 + 0x10d8\n  7726: u64 [a2 + 1856] = 0\n  7730: u64 [a2 + 1848] = 0\n  7734: u64 [a2 + 1832] = 0x20\n  7739: a1 = s1 + 0x1800\n  7743: u64 [a2 + 1840] = 0\n  7747: u64 [s1 + 0x148] = a3\n  7751: u64 [s1 + 0x140] = a4\n  7755: ra = 286, jump @9\n      : @288 [@dyn 143] (gas: 1)\n  7761: t0 = 288, jump @1116\n      : @289 [@dyn 144] (gas: 1)\n  7767: jump @291 if a0 != 0\n      : @290 (gas: 1)\n  7770: jump @848\n      : @291 (gas: 8)\n  7773: i32 a0 = a1 + 0x24\n  7776: a3 = s1 + 0x10d8\n  7780: u64 [a3 + 1824] = 0\n  7784: u64 [a3 + 1816] = 0\n  7788: u64 [a3 + 1800] = 0x18\n  7793: a1 = s1 + 0x17e0\n  7797: u64 [a3 + 1808] = 0\n  7801: ra = 290, jump @9\n      : @292 [@dyn 145] (gas: 1)\n  7807: t0 = 292, jump @1113\n      : @293 [@dyn 146] (gas: 1)\n  7813: jump @295 if a0 != 0\n      : @294 (gas: 1)\n  7816: jump @848\n      : @295 (gas: 12)\n  7819: i32 a0 = a3 + 0x44\n  7822: a1 = u64 [0x20098]\n  7827: a2 = u64 [0x200a0]\n  7832: a3 = u64 [0x200a8]\n  7837: a4 = s1 + 0x10d8\n  7841: u64 [a4 + 0x700] = a1\n  7845: u64 [a4 + 0x6f8] = a2\n  7849: u64 [a4 + 0x6f0] = a3\n  7853: a1 = s1 + 0x17c0\n  7857: u64 [a4 + 1768] = 0\n  7861: ra = 0x408\n  7865: jump @9\n      : @296 (gas: 12)\n  7868: a0 = s1 + 0x28d8\n  7872: u64 [a0 + 448] = 0\n  7876: u64 [a0 + 440] = 0\n  7880: u64 [a0 + 432] = 0\n  7884: u64 [a0 + 424] = 0\n  7888: a0 = s1 + 0x3000\n  7892: i32 a0 = a0 + 0xfffffffffffffa80\n  7896: ra = 0x126\n  7900: ecalli 17 // 'value_transferred'\n  7902: a0 = 0x28d8\n  7906: t0 = 0x128\n  7910: jump @1149\n      : @297 [@dyn 147] (gas: 2)\n  7913: a0 = 0x28d8\n  7917: t0 = 296, jump @1149\n      : @298 [@dyn 148] (gas: 1)\n  7923: jump @300 if a0 == 0\n      : @299 (gas: 1)\n  7926: jump @912\n      : @300 (gas: 1)\n  7929: t0 = 298, jump @1148\n      : @301 [@dyn 149] (gas: 1)\n  7935: jump @303 if a1 <u a0\n      : @302 (gas: 1)\n  7938: jump @912\n      : @303 (gas: 25)\n  7941: a0 = s1 + 0x3000\n  7945: i32 a0 = a0 + 0xfffffffffffffaa0\n  7949: a1 = 0x4\n  7952: ecalli 3 // 'call_data_load'\n  7954: a0 = s1 + 0x28d8\n  7958: a5 = a0 + 0x100\n  7962: a4 = u64 [a5 + 0xe0]\n  7966: a3 = u64 [a5 + 0xd8]\n  7970: a1 = u64 [a5 + 0xd0]\n  7974: a2 = u64 [a5 + 0xc8]\n  7978: a0 = s1 + 0x7ff\n  7982: a0 = a0 + 0xd9\n  7986: u64 [s1 + 0x100] = a4\n  7990: a5 = a0 + 0x500\n  7994: u64 [a5 + 0xe0] = a4\n  7998: u64 [s1 + 0x108] = a3\n  8002: u64 [a5 + 0xd8] = a3\n  8006: u64 [s1 + 0x110] = a1\n  8010: u64 [a5 + 0xd0] = a1\n  8014: a1 = s1 + 0x7ff\n  8018: a1 = a1 + 0x6a1\n  8022: u64 [s1 + 0x118] = a2\n  8026: u64 [a5 + 0xc8] = a2\n  8030: a0 = 0\n  8032: ra = 300, jump @9\n      : @304 [@dyn 150] (gas: 10)\n  8038: a2 = s1 + 0x7ff\n  8042: a2 = a2 + 0xd9\n  8046: u64 [a2 + 1472] = 0\n  8050: u64 [a2 + 1464] = 0\n  8054: u64 [a2 + 1448] = 0x2\n  8059: a0 = 0x20\n  8062: a1 = s1 + 0x7ff\n  8066: a1 = a1 + 0x681\n  8070: u64 [a2 + 1456] = 0\n  8074: ra = 302, jump @9\n      : @305 [@dyn 151] (gas: 1)\n  8080: t0 = 304, jump @1142\n      : @306 [@dyn 152] (gas: 1)\n  8086: ra = 306, jump @20\n      : @307 [@dyn 153] (gas: 4)\n  8092: a1 = sp + 0xffffffffffffffe0\n  8095: a1 = a1 & 0xffffffffffffffe0\n  8098: u64 [s1 + 0x150] = a1\n  8102: t0 = 308, jump @1117\n      : @308 [@dyn 154] (gas: 23)\n  8108: ecalli 9 // 'hash_keccak_256'\n  8110: a3 = u64 [s1 + 0x150]\n  8114: a0 = u64 [a3 + 0x18]\n  8117: a1 = u64 [a3 + 0x10]\n  8120: a2 = u64 [a3 + 0x8]\n  8123: a3 = u64 [a3]\n  8125: a5 = reverse a0\n  8127: a4 = reverse a1\n  8129: a0 = reverse a2\n  8131: a1 = reverse a3\n  8133: u64 [s1 + 0x130] = a1\n  8137: a2 = u64 [s1 + 0x158]\n  8141: u64 [a2 + 0x18] = a1\n  8144: u64 [s1 + 0x138] = a0\n  8148: u64 [a2 + 0x10] = a0\n  8151: u64 [s1 + 0x128] = a4\n  8155: u64 [a2 + 0x8] = a4\n  8158: u64 [s1 + 0x120] = a5\n  8162: u64 [a2] = a5\n  8164: a1 = a2\n  8166: a0 = s1 + 0x7ff\n  8170: a0 = a0 + 0x661\n  8174: ra = 310, jump @11\n      : @309 [@dyn 155] (gas: 13)\n  8180: a0 = s1 + 0x7ff\n  8184: a0 = a0 + 0xd9\n  8188: a1 = u64 [a0 + 0x590]\n  8192: u64 [s1 + 0x158] = a1\n  8196: a1 = u64 [a0 + 0x588]\n  8200: u64 [s1 + 0x150] = a1\n  8204: a0 = u32 [a0 + 0x598]\n  8208: u64 [s1 + 0x148] = a0\n  8212: a0 = 0x30200\n  8217: u64 [s1 + 0x140] = a0\n  8221: i32 a0 = a0 + 0\n  8223: ecalli 5 // 'caller'\n  8225: fallthrough\n      : @310 (gas: 24)\n  8226: a5 = s1 + 0x100\n  8230: a2 = u64 [a5 + 0x40]\n  8233: a0 = u64 [a2 + 0x8]\n  8236: a1 = u64 [a2]\n  8238: a2 = i32 [a2 + 0x10]\n  8241: a0 = reverse a0\n  8243: a3 = a0 >> 0x20\n  8246: a1 = reverse a1\n  8248: a4 = a1 << 0x20\n  8251: a3 = a3 | a4\n  8254: a0 = a0 << 0x20\n  8257: a2 = reverse a2\n  8259: a2 = a2 >> 0x20\n  8262: a0 = a0 | a2\n  8265: a1 = a1 >> 0x20\n  8268: a2 = u64 [a5 + 0x48]\n  8271: a1 = a1 ^ a2\n  8274: a2 = u64 [a5 + 0x50]\n  8277: a0 = a0 ^ a2\n  8280: a0 = a0 | a1\n  8283: a1 = u64 [a5 + 0x58]\n  8286: a1 = a1 ^ a3\n  8289: a0 = a0 | a1\n  8292: jump @312 if a0 == 0\n      : @311 (gas: 1)\n  8295: jump @544\n      : @312 (gas: 23)\n  8298: a0 = sp + 0xffffffffffffffe0\n  8301: a1 = a0 & 0xffffffffffffffe0\n  8304: sp = a1\n  8306: a2 = u64 [s1 + 0x120]\n  8310: a0 = a2 + 0x5\n  8313: a4 = a0 <u a2\n  8316: a3 = u64 [s1 + 0x128]\n  8320: a2 = a3 + a4\n  8323: a3 = a2 <u a3\n  8326: a3 = a4 if a4 == 0\n  8329: a4 = u64 [s1 + 0x138]\n  8333: a3 = a3 + a4\n  8336: a5 = a3 <u a4\n  8339: a4 = u64 [s1 + 0x130]\n  8343: a4 = a4 + a5\n  8346: u64 [a1 + 0x8] = a2\n  8349: u64 [a1] = a0\n  8351: u64 [a1 + 0x10] = a3\n  8354: u64 [a1 + 0x18] = a4\n  8357: a0 = s1 + 0x7ff\n  8361: a0 = a0 + 0x5a1\n  8365: u64 [s1 + 0x158] = a1\n  8369: ra = 312, jump @11\n      : @313 [@dyn 156] (gas: 5)\n  8375: a0 = s1 + 0x7ff\n  8379: a0 = a0 + 0xd9\n  8383: a0 = u64 [a0 + 0x4c8]\n  8387: a1 = a0 & 0xff\n  8391: jump @315 if a1 == 0\n      : @314 (gas: 1)\n  8394: jump @917\n      : @315 (gas: 4)\n  8397: a0 = s1 + 0x7ff\n  8401: a0 = a0 + 0x541\n  8405: a1 = 0x40\n  8408: ra = 314, jump @7\n      : @316 [@dyn 157] (gas: 15)\n  8414: a2 = s1 + 0x7ff\n  8418: a2 = a2 + 0xd9\n  8422: t0 = u64 [a2 + 0x480]\n  8426: a1 = a2 + 0x400\n  8430: a5 = u64 [a1 + 0x78]\n  8433: a4 = u64 [a1 + 0x70]\n  8436: a0 = u64 [a1 + 0x68]\n  8439: a3 = a4 | t0\n  8442: a1 = a0 | a5\n  8445: a1 = a1 | a3\n  8448: a1 = a1 >> 0x20\n  8451: a3 = a3 | a5\n  8454: a3 = a3 << 0x20\n  8457: a1 = a1 | a3\n  8460: jump @318 if a1 == 0\n      : @317 (gas: 1)\n  8463: jump @848\n      : @318 (gas: 12)\n  8466: u64 [a2 + 1112] = 0\n  8470: u64 [a2 + 1104] = 0\n  8474: u64 [a2 + 1096] = 0\n  8478: a3 = 0x8c379a000000000\n  8488: a1 = s1 + 0x7ff\n  8492: a1 = a1 + 0x521\n  8496: u64 [a2 + 0x460] = a3\n  8500: u64 [s1 + 0x158] = a0\n  8504: u64 [s1 + 0x150] = a4\n  8508: u64 [s1 + 0x140] = t0\n  8512: u64 [s1 + 0x148] = a5\n  8516: ra = 316, jump @9\n      : @319 [@dyn 158] (gas: 6)\n  8522: a5 = s1 + 0x100\n  8526: a1 = u64 [a5 + 0x58]\n  8529: a0 = u64 [a5 + 0x48]\n  8532: a3 = u64 [a5 + 0x40]\n  8535: a3 = a3 | a0\n  8538: t0 = 318, jump @1111\n      : @320 [@dyn 159] (gas: 1)\n  8544: jump @322 if a0 != 0\n      : @321 (gas: 1)\n  8547: jump @848\n      : @322 (gas: 12)\n  8550: i32 a0 = a1 + 0x4\n  8553: a2 = s1 + 0x7ff\n  8557: a2 = a2 + 0xd9\n  8561: u64 [a2 + 1088] = 0\n  8565: u64 [a2 + 1080] = 0\n  8569: u64 [a2 + 1064] = 0x20\n  8574: a1 = s1 + 0x7ff\n  8578: a1 = a1 + 0x501\n  8582: u64 [a2 + 1072] = 0\n  8586: u64 [s1 + 0x148] = a3\n  8590: u64 [s1 + 0x140] = a4\n  8594: ra = 320, jump @9\n      : @323 [@dyn 160] (gas: 1)\n  8600: t0 = 322, jump @1140\n      : @324 [@dyn 161] (gas: 1)\n  8606: jump @326 if a0 != 0\n      : @325 (gas: 1)\n  8609: jump @848\n      : @326 (gas: 10)\n  8612: i32 a0 = a1 + 0x24\n  8615: a2 = s1 + 0x7ff\n  8619: a2 = a2 + 0xd9\n  8623: u64 [a2 + 1056] = 0\n  8627: u64 [a2 + 1048] = 0\n  8631: u64 [a2 + 1032] = 0x1d\n  8636: a1 = s1 + 0x7ff\n  8640: a1 = a1 + 0x4e1\n  8644: u64 [a2 + 1040] = 0\n  8648: ra = 324, jump @9\n      : @327 [@dyn 162] (gas: 1)\n  8654: t0 = 326, jump @1113\n      : @328 [@dyn 163] (gas: 1)\n  8660: jump @330 if a0 != 0\n      : @329 (gas: 1)\n  8663: jump @848\n      : @330 (gas: 16)\n  8666: i32 a0 = a3 + 0x44\n  8669: a1 = u64 [0x20108]\n  8674: a2 = u64 [0x20110]\n  8679: a3 = u64 [0x20118]\n  8684: a4 = s1 + 0x7ff\n  8688: a4 = a4 + 0xd9\n  8692: u64 [a4 + 0x400] = a1\n  8696: a5 = a4 + 0x300\n  8700: u64 [a5 + 0xf8] = a2\n  8704: u64 [a5 + 0xf0] = a3\n  8708: a2 = 0x6374697665000000\n  8718: a1 = s1 + 0x7ff\n  8722: a1 = a1 + 0x4c1\n  8726: u64 [a5 + 0xe8] = a2\n  8730: ra = 0x408\n  8734: jump @9\n      : @331 (gas: 11)\n  8737: a0 = s1 + 0x28d8\n  8741: u64 [a0 + 640] = 0\n  8745: u64 [a0 + 632] = 0\n  8749: u64 [a0 + 624] = 0\n  8753: u64 [a0 + 616] = 0\n  8757: a0 = s1 + 0x3000\n  8761: i32 a0 = a0 + 0xfffffffffffffb40\n  8765: ra = 0x148\n  8769: ecalli 17 // 'value_transferred'\n  8771: t0 = 0x14a\n  8775: jump @1147\n      : @332 [@dyn 164] (gas: 1)\n  8778: t0 = 330, jump @1147\n      : @333 [@dyn 165] (gas: 8)\n  8784: a0 = u64 [a4 + 0x78]\n  8787: a1 = u64 [a4 + 0x80]\n  8791: a2 = u64 [a4 + 0x70]\n  8794: a3 = u64 [a4 + 0x68]\n  8797: a1 = a1 | a2\n  8800: a0 = a0 | a3\n  8803: a0 = a0 | a1\n  8806: jump @335 if a0 == 0\n      : @334 (gas: 1)\n  8809: jump @912\n      : @335 (gas: 1)\n  8812: t0 = 332, jump @1148\n      : @336 [@dyn 166] (gas: 1)\n  8818: jump @338 if a1 <u a0\n      : @337 (gas: 1)\n  8821: jump @912\n      : @338 (gas: 7)\n  8824: a0 = s1 + 0x3000\n  8828: i32 a0 = a0 + 0xfffffffffffffb60\n  8832: a1 = 0x4\n  8835: ra = 0x14e\n  8839: ecalli 3 // 'call_data_load'\n  8841: t0 = 0x150\n  8845: jump @1147\n      : @339 [@dyn 167] (gas: 1)\n  8848: t0 = 336, jump @1147\n      : @340 [@dyn 168] (gas: 12)\n  8854: a0 = u64 [a4 + 0x88]\n  8858: a1 = u64 [a4 + 0x90]\n  8862: a2 = u64 [a4 + 0x98]\n  8866: a3 = u64 [a4 + 0xa0]\n  8870: a4 = s1 + 0x10d8\n  8874: u64 [a4 + 0x100] = a3\n  8878: u64 [a4 + 0xf8] = a2\n  8882: u64 [a4 + 0xf0] = a1\n  8886: a1 = s1 + 0x11c0\n  8890: u64 [a4 + 0xe8] = a0\n  8894: a0 = 0\n  8896: ra = 338, jump @9\n      : @341 [@dyn 169] (gas: 8)\n  8902: a2 = s1 + 0x10d8\n  8906: u64 [a2 + 224] = 0\n  8910: u64 [a2 + 216] = 0\n  8914: u64 [a2 + 200] = 0x2\n  8919: a0 = 0x20\n  8922: a1 = s1 + 0x11a0\n  8926: u64 [a2 + 208] = 0\n  8930: ra = 340, jump @9\n      : @342 [@dyn 170] (gas: 1)\n  8936: t0 = 342, jump @1143\n      : @343 [@dyn 171] (gas: 1)\n  8942: ra = 344, jump @20\n      : @344 [@dyn 172] (gas: 4)\n  8948: a1 = sp + 0xffffffffffffffe0\n  8951: a1 = a1 & 0xffffffffffffffe0\n  8954: u64 [s1 + 0x158] = a1\n  8958: t0 = 346, jump @1117\n      : @345 [@dyn 173] (gas: 4)\n  8964: ra = 0x15c\n  8968: ecalli 9 // 'hash_keccak_256'\n  8970: t0 = 0x15e\n  8974: jump @1124\n      : @346 [@dyn 174] (gas: 1)\n  8977: t0 = 350, jump @1124\n      : @347 [@dyn 175] (gas: 2)\n  8983: a0 = s1 + 0x1180\n  8987: ra = 352, jump @11\n      : @348 [@dyn 176] (gas: 7)\n  8993: a1 = s1 + 0x10d8\n  8997: a0 = u64 [a1 + 0xa8]\n  9001: u64 [s1 + 0x138] = a0\n  9005: a0 = u64 [a1 + 0xb0]\n  9009: u64 [s1 + 0x130] = a0\n  9013: a0 = u32 [a1 + 0xb8]\n  9017: t0 = 354, jump @1151\n      : @349 [@dyn 177] (gas: 17)\n  9023: i32 a2 = a2 + 0xfffffffffffff8d8\n  9027: a2 = a2 + s1\n  9030: a3 = a2 + 0x200\n  9034: u64 [a3 + 0xb0] = a1\n  9038: a1 = a1 | a0\n  9041: u64 [a3 + 0xa8] = a0\n  9045: a0 = a1 <u 0x1\n  9048: a1 = u64 [s1 + 0x140]\n  9052: a0 = a0 + a1\n  9055: u64 [a3 + 0xb8] = a0\n  9059: a0 = a0 <u a1\n  9062: a1 = u64 [s1 + 0x158]\n  9066: a0 = a0 + a1\n  9069: u64 [a3 + 0xc0] = a0\n  9073: a0 = s1 + 0x1160\n  9077: a1 = s1 + 0x2b80\n  9081: ra = 356, jump @11\n      : @350 [@dyn 178] (gas: 10)\n  9087: a1 = s1 + 0x10d8\n  9091: a0 = u64 [a1 + 0x88]\n  9095: u64 [s1 + 0x120] = a0\n  9099: a0 = u64 [a1 + 0x90]\n  9103: u64 [s1 + 0x118] = a0\n  9107: a0 = u32 [a1 + 0x98]\n  9111: u64 [s1 + 0x110] = a0\n  9115: a1 = u64 [s1 + 0x148]\n  9119: a0 = a1 + 0x2\n  9122: t0 = 358, jump @1118\n      : @351 [@dyn 179] (gas: 8)\n  9128: a5 = a4 + 0x200\n  9132: u64 [a5 + 0xe0] = a1\n  9136: u64 [a5 + 0xd8] = a3\n  9140: u64 [a5 + 0xd0] = a2\n  9144: u64 [a5 + 0xc8] = a0\n  9148: a0 = s1 + 0x1140\n  9152: a1 = s1 + 0x2ba0\n  9156: ra = 360, jump @11\n      : @352 [@dyn 180] (gas: 12)\n  9162: a0 = s1 + 0x10d8\n  9166: a1 = u64 [a0 + 0x68]\n  9169: u64 [s1 + 0x108] = a1\n  9173: a1 = u64 [a0 + 0x70]\n  9176: u64 [s1 + 0x100] = a1\n  9180: a1 = u64 [a0 + 0x78]\n  9183: u64 [s1 + 0xf8] = a1\n  9187: a1 = u64 [a0 + 0x80]\n  9191: u64 [s1 + 0xf0] = a1\n  9195: a1 = u64 [s1 + 0x148]\n  9199: a0 = a1 + 0x3\n  9202: t0 = 362, jump @1118\n      : @353 [@dyn 181] (gas: 8)\n  9208: u64 [a4 + 0x300] = a1\n  9212: a1 = a4 + 0x200\n  9216: u64 [a1 + 0xf8] = a3\n  9220: u64 [a1 + 0xf0] = a2\n  9224: u64 [a1 + 0xe8] = a0\n  9228: a0 = s1 + 0x1120\n  9232: a1 = s1 + 0x2bc0\n  9236: ra = 364, jump @11\n      : @354 [@dyn 182] (gas: 12)\n  9242: a0 = s1 + 0x10d8\n  9246: a1 = u64 [a0 + 0x48]\n  9249: u64 [s1 + 0xe8] = a1\n  9253: a1 = u64 [a0 + 0x50]\n  9256: u64 [s1 + 0xe0] = a1\n  9260: a1 = u64 [a0 + 0x58]\n  9263: u64 [s1 + 0xd8] = a1\n  9267: a1 = u64 [a0 + 0x60]\n  9270: u64 [s1 + 0xd0] = a1\n  9274: a1 = u64 [s1 + 0x148]\n  9278: a0 = a1 + 0x4\n  9281: t0 = 366, jump @1118\n      : @355 [@dyn 183] (gas: 8)\n  9287: a5 = a4 + 0x300\n  9291: u64 [a5 + 0x20] = a1\n  9294: u64 [a5 + 0x18] = a3\n  9297: u64 [a5 + 0x10] = a2\n  9300: u64 [a5 + 0x8] = a0\n  9303: a0 = s1 + 0x1100\n  9307: a1 = s1 + 0x2be0\n  9311: ra = 368, jump @11\n      : @356 [@dyn 184] (gas: 8)\n  9317: a5 = s1 + 0x10d8\n  9321: a0 = u64 [a5 + 0x28]\n  9324: u64 [s1 + 0xc8] = a0\n  9328: a0 = u64 [a5 + 0x30]\n  9331: u64 [s1 + 0xc0] = a0\n  9335: a1 = u64 [s1 + 0x148]\n  9339: a0 = a1 + 0x5\n  9342: t0 = 370, jump @1133\n      : @357 [@dyn 185] (gas: 2)\n  9348: a1 = u64 [a5 + 0x38]\n  9351: t0 = 372, jump @1153\n      : @358 [@dyn 186] (gas: 11)\n  9357: a4 = u64 [a5 + 0x40]\n  9360: u64 [s1 + 0x148] = a4\n  9364: a4 = s1 + 0x28d8\n  9368: a5 = a4 + 0x300\n  9372: u64 [a5 + 0x40] = a1\n  9375: u64 [a5 + 0x38] = a3\n  9378: u64 [a5 + 0x30] = a2\n  9381: u64 [a5 + 0x28] = a0\n  9384: a0 = s1 + 0x10e0\n  9388: a1 = s1 + 0x2c00\n  9392: ra = 374, jump @11\n      : @359 [@dyn 187] (gas: 6)\n  9398: a0 = s1 + 0x10d8\n  9402: a0 = u8 [a0 + 0x8]\n  9405: u64 [s1 + 0x140] = a0\n  9409: a0 = s1 + 0x10c0\n  9413: a1 = 0x40\n  9416: ra = 376, jump @7\n      : @360 [@dyn 188] (gas: 73)\n  9422: a0 = s1 + 0x10d8\n  9426: a2 = u64 [a0]\n  9428: u64 [s1 + 0x158] = a2\n  9432: a1 = u64 [a0 + 0xfffffffffffffff8]\n  9435: u64 [s1 + 0xb8] = a1\n  9439: a3 = u64 [a0 + 0xfffffffffffffff0]\n  9442: u64 [s1 + 0xb0] = a3\n  9446: t1 = u64 [a0 + 0xffffffffffffffe8]\n  9449: u64 [s1 + 0xa8] = t1\n  9453: sp = sp + 0xfffffffffffffff0\n  9456: a0 = s1 + 0x7ff\n  9460: a0 = a0 + 0x7c1\n  9464: u64 [sp + 0x8] = a0\n  9467: a0 = s1 + 0x7ff\n  9471: a0 = a0 + 0x7e1\n  9475: u64 [sp] = a0\n  9477: t0 = s1 + 0x7ff\n  9481: t0 = t0 + 0xd9\n  9485: a0 = u64 [s1 + 0x140]\n  9489: u64 [t0 + 0x6e8] = a0\n  9493: a0 = u64 [s1 + 0x148]\n  9497: a4 = t0 + 0x700\n  9501: u64 [a4 + 0x20] = a0\n  9504: a0 = u64 [s1 + 0x150]\n  9508: u64 [a4 + 0x18] = a0\n  9511: a0 = u64 [s1 + 0xc0]\n  9515: u64 [a4 + 0x10] = a0\n  9518: a0 = u64 [s1 + 0xc8]\n  9522: u64 [a4 + 0x8] = a0\n  9525: a0 = u64 [s1 + 0xd0]\n  9529: u64 [a4 + 0x40] = a0\n  9532: a0 = u64 [s1 + 0xd8]\n  9536: u64 [a4 + 0x38] = a0\n  9539: a0 = u64 [s1 + 0xe0]\n  9543: u64 [a4 + 0x30] = a0\n  9546: a0 = u64 [s1 + 0xe8]\n  9550: u64 [a4 + 0x28] = a0\n  9553: a0 = u64 [s1 + 0xf0]\n  9557: u64 [a4 + 0x60] = a0\n  9560: a0 = u64 [s1 + 0xf8]\n  9564: u64 [a4 + 0x58] = a0\n  9567: a0 = u64 [s1 + 0x100]\n  9571: u64 [a4 + 0x50] = a0\n  9574: a0 = u64 [s1 + 0x108]\n  9578: u64 [a4 + 0x48] = a0\n  9581: u64 [t0 + 1792] = 0\n  9585: u64 [t0 + 1784] = 0\n  9589: u64 [t0 + 1776] = 0\n  9593: u64 [t0 + 1920] = 0\n  9597: a0 = u64 [s1 + 0x110]\n  9601: u64 [a4 + 0x78] = a0\n  9604: a0 = u64 [s1 + 0x118]\n  9608: u64 [a4 + 0x70] = a0\n  9611: a0 = u64 [s1 + 0x120]\n  9615: u64 [a4 + 0x68] = a0\n  9618: u64 [t0 + 1952] = 0\n  9622: a0 = u64 [s1 + 0x128]\n  9626: u64 [a4 + 0x98] = a0\n  9630: a0 = u64 [s1 + 0x130]\n  9634: u64 [a4 + 0x90] = a0\n  9638: a0 = u64 [s1 + 0x138]\n  9642: u64 [a4 + 0x88] = a0\n  9646: u64 [a4 + 0xc0] = a2\n  9650: u64 [a4 + 0xb8] = a1\n  9654: u64 [a4 + 0xb0] = a3\n  9658: a0 = s1 + 0x10a0\n  9662: a1 = s1 + 0x1080\n  9666: a2 = s1 + 0x1060\n  9670: a3 = s1 + 0x1040\n  9674: a4 = s1 + 0x1020\n  9678: a5 = s1 + 0x1000\n  9682: u64 [t0 + 0x7a8] = t1\n  9686: ra = 378, jump @936\n      : @361 [@dyn 189] (gas: 1)\n  9692: t0 = 380, jump @1145\n      : @362 [@dyn 190] (gas: 1)\n  9698: jump @364 if a0 == 0\n      : @363 (gas: 1)\n  9701: jump @848\n      : @364 (gas: 10)\n  9704: t0 = a3\n  9706: a1 = s1 + 0x7ff\n  9710: a1 = a1 + 0xd9\n  9714: a5 = a1 + 0x700\n  9718: a0 = u64 [a5 + 0xd0]\n  9722: a3 = u64 [a5 + 0xe0]\n  9726: u64 [s1 + 0x150] = a3\n  9730: t1 = u64 [a1 + 0x7c8]\n  9734: a3 = u64 [a5 + 0xd8]\n  9738: fallthrough\n      : @365 (gas: 26)\n  9739: t2 = a0 ^ a4\n  9742: a5 = a0 <u a4\n  9745: ra = t1 <u a2\n  9748: a5 = ra if t2 == 0\n  9751: a1 = a3 - t0\n  9754: t2 = a1 - a5\n  9757: a1 = a1 <u a5\n  9760: u64 [s1 + 0x148] = a1\n  9764: a3 = a3 <u t0\n  9767: a5 = u64 [s1 + 0x158]\n  9771: a1 = u64 [s1 + 0x150]\n  9775: a5 = a1 - a5\n  9778: a5 = a5 - a3\n  9781: a1 = u64 [s1 + 0x148]\n  9785: a5 = a5 - a1\n  9788: a0 = a0 - a4\n  9791: a0 = a0 - ra\n  9794: a1 = t1 - a2\n  9797: a0 = a0 | a5\n  9800: a3 = a1 | t2\n  9803: a3 = a3 | a0\n  9806: a0 = a0 | t2\n  9809: a3 = a3 >> 0x20\n  9812: a0 = a0 << 0x20\n  9815: a0 = a0 | a3\n  9818: jump @367 if a0 == 0\n      : @366 (gas: 1)\n  9821: jump @848\n      : @367 (gas: 4)\n  9824: a0 = a2\n  9826: u64 [s1 + 0x158] = a1\n  9830: ra = 0x17e\n  9834: jump @20\n      : @368 (gas: 2)\n  9837: u64 [s1 + 0x158] = a1\n  9841: ra = 382, jump @20\n      : @369 [@dyn 191] (gas: 5)\n  9847: i32 a1 = a0 + 0\n  9849: a2 = i32 [s1 + 0x158]\n  9853: a0 = 0\n  9855: ecalli 14 // 'seal_return'\n  9857: jump @271\n      : @370 (gas: 9)\n  9860: u64 [a2 + 1856] = 0\n  9864: u64 [a2 + 1848] = 0\n  9868: u64 [a2 + 1840] = 0\n  9872: u64 [a2 + 1832] = 0\n  9876: a0 = s1 + 0x3000\n  9880: i32 a0 = a0 + 0xfffffffffffff800\n  9884: ra = 0x180\n  9888: ecalli 17 // 'value_transferred'\n  9890: fallthrough\n      : @371 [@dyn 192] (gas: 10)\n  9891: a3 = s1 + 0x20d8\n  9895: a4 = a3 + 0x700\n  9899: a0 = u64 [a4 + 0x38]\n  9902: a1 = u64 [a4 + 0x40]\n  9905: a2 = u64 [a4 + 0x30]\n  9908: a3 = u64 [a4 + 0x28]\n  9911: a1 = a1 | a2\n  9914: a0 = a0 | a3\n  9917: a0 = a0 | a1\n  9920: jump @373 if a0 == 0\n      : @372 (gas: 1)\n  9923: jump @912\n      : @373 (gas: 1)\n  9926: t0 = 386, jump @1148\n      : @374 [@dyn 193] (gas: 1)\n  9932: jump @376 if a1 <u a0\n      : @375 (gas: 1)\n  9935: jump @912\n      : @376 (gas: 15)\n  9938: a0 = s1 + 0x3000\n  9942: i32 a0 = a0 + 0xfffffffffffff820\n  9946: a1 = 0x4\n  9949: ecalli 3 // 'call_data_load'\n  9951: a0 = s1 + 0x20d8\n  9955: a2 = a0 + 0x700\n  9959: a1 = u64 [a2 + 0x60]\n  9962: u64 [s1 + 0xb0] = a1\n  9966: a1 = u64 [a2 + 0x58]\n  9969: u64 [s1 + 0xb8] = a1\n  9973: a1 = u64 [a2 + 0x50]\n  9976: u64 [s1 + 0xc0] = a1\n  9980: a0 = u64 [a2 + 0x48]\n  9983: u64 [s1 + 0xc8] = a0\n  9987: ra = 388, jump @1036\n      : @377 [@dyn 194] (gas: 15)\n  9993: a0 = s1 + 0x7ff\n  9997: a0 = a0 + 0xd9\n 10001: a1 = u64 [s1 + 0xb0]\n 10005: a3 = a0 + 0x300\n 10009: u64 [a3 + 0xe0] = a1\n 10013: a1 = u64 [s1 + 0xb8]\n 10017: u64 [a3 + 0xd8] = a1\n 10021: a1 = u64 [s1 + 0xc0]\n 10025: u64 [a3 + 0xd0] = a1\n 10029: a1 = s1 + 0x7ff\n 10033: a1 = a1 + 0x4a1\n 10037: a2 = u64 [s1 + 0xc8]\n 10041: u64 [a3 + 0xc8] = a2\n 10045: a0 = 0\n 10047: ra = 390, jump @9\n      : @378 [@dyn 195] (gas: 10)\n 10053: a2 = s1 + 0x7ff\n 10057: a2 = a2 + 0xd9\n 10061: u64 [a2 + 960] = 0\n 10065: u64 [a2 + 952] = 0\n 10069: u64 [a2 + 936] = 0x2\n 10074: a0 = 0x20\n 10077: a1 = s1 + 0x7ff\n 10081: a1 = a1 + 0x481\n 10085: u64 [a2 + 944] = 0\n 10089: ra = 392, jump @9\n      : @379 [@dyn 196] (gas: 7)\n 10095: a0 = sp + 0xffffffffffffffe0\n 10098: a0 = a0 & 0xffffffffffffffe0\n 10101: u64 [s1 + 0xd0] = a0\n 10105: sp = a0\n 10107: a1 = 0x40\n 10110: a0 = 0\n 10112: ra = 394, jump @20\n      : @380 [@dyn 197] (gas: 4)\n 10118: a1 = sp + 0xffffffffffffffe0\n 10121: a1 = a1 & 0xffffffffffffffe0\n 10124: u64 [s1 + 0x158] = a1\n 10128: t0 = 396, jump @1117\n      : @381 [@dyn 198] (gas: 38)\n 10134: ecalli 9 // 'hash_keccak_256'\n 10136: a3 = u64 [s1 + 0x158]\n 10140: a0 = u64 [a3 + 0x18]\n 10143: a1 = u64 [a3 + 0x10]\n 10146: a2 = u64 [a3 + 0x8]\n 10149: t0 = u64 [a3]\n 10151: a4 = reverse a0\n 10153: a3 = reverse a1\n 10155: a5 = reverse a2\n 10157: a2 = reverse t0\n 10159: a0 = u64 [s1 + 0xd0]\n 10163: u64 [a0 + 0x18] = a2\n 10166: u64 [a0 + 0x10] = a5\n 10169: u64 [a0 + 0x8] = a3\n 10172: u64 [a0] = a4\n 10174: a0 = sp + 0xffffffffffffffe0\n 10177: a1 = a0 & 0xffffffffffffffe0\n 10180: sp = a1\n 10182: t0 = a4 + 0x5\n 10185: u64 [s1 + 0x90] = a4\n 10189: a4 = t0 <u a4\n 10192: a0 = a3 + a4\n 10195: u64 [s1 + 0x98] = a3\n 10199: a3 = a0 <u a3\n 10202: a3 = a4 if a4 == 0\n 10205: a3 = a3 + a5\n 10208: u64 [s1 + 0xa8] = a5\n 10212: a4 = a3 <u a5\n 10215: u64 [s1 + 0xa0] = a2\n 10219: a4 = a4 + a2\n 10222: u64 [a1 + 0x10] = a3\n 10225: u64 [a1 + 0x8] = a0\n 10228: u64 [a1] = t0\n 10230: u64 [a1 + 0x18] = a4\n 10233: a0 = s1 + 0x7ff\n 10237: a0 = a0 + 0x461\n 10241: u64 [s1 + 0x88] = a1\n 10245: ra = 398, jump @11\n      : @382 [@dyn 199] (gas: 4)\n 10251: a0 = s1 + 0x7ff\n 10255: a0 = a0 + 0xd9\n 10259: a0 = u8 [a0 + 0x388]\n 10263: jump @384 if a0 == 0\n      : @383 (gas: 1)\n 10266: jump @560\n      : @384 (gas: 3)\n 10269: a0 = s1 + 0x1e0\n 10273: a1 = 0x40\n 10276: ra = 400, jump @7\n      : @385 [@dyn 200] (gas: 6)\n 10282: a1 = s1 + 0x100\n 10286: a4 = u64 [a1 + 0xf8]\n 10290: a5 = u64 [a1 + 0xf0]\n 10294: a3 = u64 [a1 + 0xe8]\n 10298: a0 = u64 [a1 + 0xe0]\n 10302: t0 = 402, jump @1144\n      : @386 [@dyn 201] (gas: 1)\n 10308: jump @388 if a1 == 0\n      : @387 (gas: 1)\n 10311: jump @848\n      : @388 (gas: 7)\n 10314: u64 [s1 + 464] = 0\n 10318: u64 [s1 + 456] = 0\n 10322: u64 [s1 + 448] = 0\n 10326: a2 = 0x8c379a000000000\n 10336: a1 = s1 + 0x1c0\n 10340: u64 [s1 + 0x1d8] = a2\n 10344: t0 = 404, jump @1131\n      : @389 [@dyn 202] (gas: 1)\n 10350: ra = 406, jump @9\n      : @390 [@dyn 203] (gas: 6)\n 10356: a5 = s1 + 0x100\n 10360: a1 = u64 [a5 + 0x58]\n 10363: a0 = u64 [a5 + 0x48]\n 10366: a3 = u64 [a5 + 0x40]\n 10369: a3 = a3 | a0\n 10372: t0 = 408, jump @1111\n      : @391 [@dyn 204] (gas: 1)\n 10378: jump @393 if a0 != 0\n      : @392 (gas: 1)\n 10381: jump @848\n      : @393 (gas: 9)\n 10384: i32 a0 = a1 + 0x4\n 10387: u64 [s1 + 440] = 0\n 10391: u64 [s1 + 432] = 0\n 10395: u64 [s1 + 416] = 0x20\n 10400: a1 = s1 + 0x1a0\n 10404: u64 [s1 + 424] = 0\n 10408: u64 [s1 + 0x148] = a3\n 10412: u64 [s1 + 0x140] = a4\n 10416: ra = 410, jump @9\n      : @394 [@dyn 205] (gas: 1)\n 10422: t0 = 412, jump @1116\n      : @395 [@dyn 206] (gas: 1)\n 10428: jump @397 if a0 != 0\n      : @396 (gas: 1)\n 10431: jump @848\n      : @397 (gas: 7)\n 10434: i32 a0 = a1 + 0x24\n 10437: u64 [s1 + 408] = 0\n 10441: u64 [s1 + 400] = 0\n 10445: u64 [s1 + 384] = 0x17\n 10450: a1 = s1 + 0x180\n 10454: u64 [s1 + 392] = 0\n 10458: ra = 414, jump @9\n      : @398 [@dyn 207] (gas: 4)\n 10464: a3 = s1 + 0x100\n 10468: a2 = u64 [a3 + 0x58]\n 10471: a0 = 0xffffffbc\n 10481: t0 = 416, jump @1135\n      : @399 [@dyn 208] (gas: 1)\n 10487: jump @401 if a0 != 0\n      : @400 (gas: 1)\n 10490: jump @848\n      : @401 (gas: 12)\n 10493: i32 a0 = a2 + 0x44\n 10496: a1 = u64 [0x20108]\n 10501: a2 = u64 [0x20180]\n 10506: a3 = u64 [0x20188]\n 10511: a4 = s1 + 0x100\n 10515: u64 [a4 + 0x78] = a1\n 10518: u64 [a4 + 0x70] = a2\n 10521: u64 [a4 + 0x68] = a3\n 10524: a1 = s1 + 0x160\n 10528: u64 [s1 + 352] = 0\n 10532: ra = 0x408\n 10536: jump @9\n      : @402 (gas: 8)\n 10539: u64 [a3 + 64] = 0\n 10542: u64 [a3 + 56] = 0\n 10545: u64 [a3 + 48] = 0\n 10548: u64 [a3 + 40] = 0\n 10551: a0 = s1 + 0x3000\n 10555: i32 a0 = a0 + 0x100\n 10559: ecalli 17 // 'value_transferred'\n 10561: fallthrough\n      : @403 (gas: 9)\n 10562: a3 = s1 + 0x30d8\n 10566: a0 = u64 [a3 + 0x38]\n 10569: a1 = u64 [a3 + 0x40]\n 10572: a2 = u64 [a3 + 0x30]\n 10575: a3 = u64 [a3 + 0x28]\n 10578: a1 = a1 | a2\n 10581: a0 = a0 | a3\n 10584: a0 = a0 | a1\n 10587: jump @405 if a0 == 0\n      : @404 (gas: 1)\n 10590: jump @912\n      : @405 (gas: 3)\n 10593: a0 = u64 [s1 + 0x158]\n 10597: a0 = i32 [a0]\n 10599: jump @407 if a0 >u 67\n      : @406 (gas: 1)\n 10603: jump @912\n      : @407 (gas: 2)\n 10606: a0 = s1 + 0x2460\n 10610: ra = 418, jump @931\n      : @408 [@dyn 209] (gas: 32)\n 10616: a1 = s1 + 0x20d8\n 10620: a0 = u64 [a1 + 0x388]\n 10624: u64 [s1 + 0x138] = a0\n 10628: a0 = u64 [a1 + 0x390]\n 10632: u64 [s1 + 0x130] = a0\n 10636: a0 = u32 [a1 + 0x398]\n 10640: u64 [s1 + 0x128] = a0\n 10644: a0 = s1 + 0x3000\n 10648: i32 a0 = a0 + 0x120\n 10652: a1 = 0x24\n 10655: ecalli 3 // 'call_data_load'\n 10657: a0 = s1 + 0x30d8\n 10661: a1 = u64 [a0 + 0x60]\n 10664: u64 [s1 + 0x150] = a1\n 10668: a1 = u64 [a0 + 0x58]\n 10671: u64 [s1 + 0x158] = a1\n 10675: a1 = u64 [a0 + 0x50]\n 10678: u64 [s1 + 0x148] = a1\n 10682: a0 = u64 [a0 + 0x48]\n 10685: u64 [s1 + 0x140] = a0\n 10689: a0 = s1 + 0x20d8\n 10693: u64 [a0 + 896] = 0\n 10697: a1 = u64 [s1 + 0x128]\n 10701: a3 = a0 + 0x300\n 10705: u64 [a3 + 0x78] = a1\n 10708: a1 = u64 [s1 + 0x130]\n 10712: u64 [a3 + 0x70] = a1\n 10715: a1 = s1 + 0x2440\n 10719: a2 = u64 [s1 + 0x138]\n 10723: u64 [a3 + 0x68] = a2\n 10726: a0 = 0\n 10728: ra = 420, jump @9\n      : @409 [@dyn 210] (gas: 8)\n 10734: a2 = s1 + 0x20d8\n 10738: u64 [a2 + 864] = 0\n 10742: u64 [a2 + 856] = 0\n 10746: u64 [a2 + 840] = 0x4\n 10751: a0 = 0x20\n 10754: a1 = s1 + 0x2420\n 10758: u64 [a2 + 848] = 0\n 10762: ra = 422, jump @9\n      : @410 [@dyn 211] (gas: 7)\n 10768: a0 = sp + 0xffffffffffffffe0\n 10771: a0 = a0 & 0xffffffffffffffe0\n 10774: u64 [s1 + 0x118] = a0\n 10778: sp = a0\n 10780: a1 = 0x40\n 10783: a0 = 0\n 10785: ra = 424, jump @20\n      : @411 [@dyn 212] (gas: 4)\n 10791: a1 = sp + 0xffffffffffffffe0\n 10794: a1 = a1 & 0xffffffffffffffe0\n 10797: u64 [s1 + 0x138] = a1\n 10801: t0 = 426, jump @1117\n      : @412 [@dyn 213] (gas: 5)\n 10807: ra = 0x1ac\n 10811: ecalli 9 // 'hash_keccak_256'\n 10813: a3 = u64 [s1 + 0x138]\n 10817: t0 = 0x1ae\n 10821: jump @1130\n      : @413 [@dyn 214] (gas: 2)\n 10824: a3 = u64 [s1 + 0x138]\n 10828: t0 = 430, jump @1130\n      : @414 [@dyn 215] (gas: 12)\n 10834: u64 [s1 + 0x120] = a3\n 10838: a4 = u64 [s1 + 0x118]\n 10842: u64 [a4 + 0x18] = a3\n 10845: u64 [s1 + 0x128] = a2\n 10849: u64 [a4 + 0x10] = a2\n 10852: u64 [s1 + 0x130] = a1\n 10856: u64 [a4 + 0x8] = a1\n 10859: u64 [s1 + 0x138] = a0\n 10863: u64 [a4] = a0\n 10865: a1 = a4\n 10867: a0 = s1 + 0x2400\n 10871: ra = 432, jump @11\n      : @415 [@dyn 216] (gas: 23)\n 10877: ra = u64 [s1 + 0x150]\n 10881: t2 = u64 [s1 + 0x148]\n 10885: t1 = u64 [s1 + 0x140]\n 10889: a3 = s1 + 0x20d8\n 10893: a4 = a3 + 0x300\n 10897: a0 = u64 [a4 + 0x30]\n 10900: a1 = u64 [a4 + 0x28]\n 10903: a2 = u64 [a4 + 0x38]\n 10906: t0 = a3\n 10908: a3 = u64 [a4 + 0x40]\n 10911: a4 = t2 ^ a0\n 10914: a0 = t2 <u a0\n 10917: a1 = t1 <u a1\n 10920: a1 = a0 if a4 != 0\n 10923: a0 = ra ^ a3\n 10926: a5 = ra <u a3\n 10929: a3 = u64 [s1 + 0x158]\n 10933: a4 = a3 <u a2\n 10936: a4 = a5 if a0 != 0\n 10939: a2 = a2 ^ a3\n 10942: a0 = a0 | a2\n 10945: a1 = a4 if a0 != 0\n 10948: jump @417 if a1 != 0\n      : @416 (gas: 1)\n 10951: jump @916\n      : @417 (gas: 21)\n 10954: a0 = sp + 0xffffffffffffffe0\n 10957: a0 = a0 & 0xffffffffffffffe0\n 10960: u64 [s1 + 0x118] = a0\n 10964: sp = a0\n 10966: u64 [t0 + 0x2c0] = ra\n 10970: a4 = t0 + 0x200\n 10974: u64 [a4 + 0xb8] = a3\n 10978: u64 [t0 + 0x2b0] = t2\n 10982: u64 [t0 + 0x2a8] = t1\n 10986: a0 = u64 [s1 + 0x120]\n 10990: u64 [a4 + 0xe0] = a0\n 10994: a0 = u64 [s1 + 0x128]\n 10998: u64 [a4 + 0xd8] = a0\n 11002: a0 = u64 [s1 + 0x130]\n 11006: u64 [a4 + 0xd0] = a0\n 11010: a0 = s1 + 0x23c0\n 11014: a1 = s1 + 0x23a0\n 11018: a2 = s1 + 0x2380\n 11022: a3 = u64 [s1 + 0x138]\n 11026: u64 [a4 + 0xc8] = a3\n 11030: ra = 434, jump @954\n      : @418 [@dyn 217] (gas: 23)\n 11036: a3 = s1 + 0x20d8\n 11040: a2 = a3 + 0x300\n 11044: a0 = u64 [a2 + 0x20]\n 11047: u64 [s1 + 0x120] = a0\n 11051: a0 = u64 [a2 + 0x18]\n 11054: u64 [s1 + 0x130] = a0\n 11058: a0 = u64 [a2 + 0x10]\n 11061: u64 [s1 + 0x128] = a0\n 11065: a0 = u64 [a2 + 0x8]\n 11068: u64 [s1 + 0x138] = a0\n 11072: a4 = a3 + 0x200\n 11076: a0 = u64 [a4 + 0xf8]\n 11080: a1 = u64 [a2]\n 11082: a2 = u64 [a4 + 0xe8]\n 11086: a3 = u64 [a4 + 0xf0]\n 11090: a4 = u64 [s1 + 0x118]\n 11094: u64 [a4 + 0x10] = a0\n 11097: u64 [a4 + 0x18] = a1\n 11100: u64 [a4] = a2\n 11102: u64 [a4 + 0x8] = a3\n 11105: a1 = a4\n 11107: a0 = s1 + 0x2360\n 11111: ra = 436, jump @11\n      : @419 [@dyn 218] (gas: 3)\n 11117: t0 = 0x1b6\n 11121: a1 = s1 + 0x20d8\n 11125: fallthrough\n      : @420 [@dyn 219] (gas: 13)\n 11126: a2 = a1 + 0x200\n 11130: a0 = u64 [a2 + 0xa0]\n 11134: a1 = s1 + 0x100\n 11138: u64 [a1 + 0x58] = a0\n 11141: a0 = u64 [a2 + 0x98]\n 11145: u64 [a1 + 0x50] = a0\n 11148: a0 = u64 [a2 + 0x90]\n 11152: u64 [a1 + 0x40] = a0\n 11155: a0 = u64 [a2 + 0x88]\n 11159: u64 [a1 + 0x48] = a0\n 11162: a0 = s1 + 0x2340\n 11166: a1 = 0x40\n 11169: ra = 440, jump @7\n      : @421 [@dyn 220] (gas: 7)\n 11175: a3 = s1 + 0x20d8\n 11179: a5 = a3 + 0x200\n 11183: a0 = u64 [a5 + 0x80]\n 11187: a1 = u64 [a5 + 0x78]\n 11190: a2 = u64 [a5 + 0x70]\n 11193: a4 = u64 [a5 + 0x68]\n 11196: t0 = 442, jump @1122\n      : @422 [@dyn 221] (gas: 1)\n 11202: jump @424 if a0 == 0\n      : @423 (gas: 1)\n 11205: jump @848\n      : @424 (gas: 30)\n 11208: a0 = u64 [s1 + 0x138]\n 11212: a2 = a0 >> 0x3d\n 11215: a5 = u64 [s1 + 0x128]\n 11219: a1 = a5 << 0x3\n 11222: t1 = a1 | a2\n 11225: a3 = u64 [s1 + 0x130]\n 11229: a1 = a3 >> 0x3d\n 11232: a2 = u64 [s1 + 0x120]\n 11236: a2 = a2 << 0x3\n 11239: a1 = a1 | a2\n 11242: a2 = a5 >> 0x3d\n 11245: a3 = a3 << 0x3\n 11248: a2 = a2 | a3\n 11251: a3 = a0 << 0x3\n 11254: u64 [s1 + 0x128] = a3\n 11258: a5 = a2 >u 0\n 11260: u64 [s1 + 0x130] = a4\n 11264: a4 = a1 >u 0\n 11266: a4 = a5 if a1 == 0\n 11269: t0 = t1 >u 0\n 11271: a5 = a3 <u 0x100\n 11275: a5 = a5 ^ 0x1\n 11278: a5 = t0 if t1 != 0\n 11281: a1 = a1 | a2\n 11284: a5 = a4 if a1 != 0\n 11287: u64 [s1 + 0x120] = a5\n 11291: i32 a2 = a3 + 0xffffffffffffff80\n 11294: a0 = u64 [s1 + 0x150]\n 11298: a1 = u64 [s1 + 0x158]\n 11302: ra = 444, jump @1157\n      : @425 [@dyn 222] (gas: 8)\n 11308: u64 [s1 + 0x118] = a0\n 11312: u64 [s1 + 0x110] = a1\n 11316: a0 = u64 [s1 + 0x138]\n 11320: i32 a2 = a0 << 0x3\n 11323: u64 [s1 + 0x138] = a2\n 11327: a0 = u64 [s1 + 0x148]\n 11331: a1 = u64 [s1 + 0x140]\n 11335: ra = 446, jump @1157\n      : @426 [@dyn 223] (gas: 7)\n 11341: u64 [s1 + 0x108] = a0\n 11345: u64 [s1 + 0x100] = a1\n 11349: a1 = u64 [s1 + 0x128]\n 11353: i32 a2 = 0x80 - a1\n 11357: a0 = u64 [s1 + 0x150]\n 11361: a1 = u64 [s1 + 0x158]\n 11365: ra = 448, jump @1162\n      : @427 [@dyn 224] (gas: 21)\n 11371: a2 = u64 [s1 + 0x100]\n 11375: a2 = a2 | a1\n 11378: a1 = u64 [s1 + 0x128]\n 11382: a4 = a1 <u 0x80\n 11386: u64 [s1 + 0x100] = a4\n 11390: a3 = u64 [s1 + 0x110]\n 11394: a2 = a3 if a4 == 0\n 11397: a3 = u64 [s1 + 0x140]\n 11401: a2 = a3 if a1 == 0\n 11404: u64 [s1 + 0x140] = a2\n 11408: a2 = u64 [s1 + 0x108]\n 11412: a0 = a0 | a2\n 11415: a2 = u64 [s1 + 0x118]\n 11419: a0 = a2 if a4 == 0\n 11422: a2 = u64 [s1 + 0x148]\n 11426: a0 = a2 if a1 == 0\n 11429: u64 [s1 + 0x148] = a0\n 11433: a0 = u64 [s1 + 0x150]\n 11437: a1 = u64 [s1 + 0x158]\n 11441: a2 = u64 [s1 + 0x138]\n 11445: ra = 450, jump @1157\n      : @428 [@dyn 225] (gas: 19)\n 11451: a2 = u64 [s1 + 0x100]\n 11455: a1 = 0 if a2 == 0\n 11457: a0 = 0 if a2 == 0\n 11459: a2 = u64 [s1 + 0x120]\n 11463: a4 = u64 [s1 + 0x148]\n 11467: a4 = 0 if a2 != 0\n 11469: a3 = u64 [s1 + 0x140]\n 11473: a3 = 0 if a2 != 0\n 11475: a0 = 0 if a2 != 0\n 11477: a1 = 0 if a2 != 0\n 11479: a2 = s1 + 0x20d8\n 11483: a5 = a2 + 0x200\n 11487: u64 [a5 + 0x60] = a1\n 11490: u64 [a5 + 0x58] = a0\n 11493: u64 [a5 + 0x50] = a3\n 11496: a1 = s1 + 0x2320\n 11500: u64 [a5 + 0x48] = a4\n 11503: a0 = u64 [s1 + 0x130]\n 11507: ra = 452, jump @9\n      : @429 [@dyn 226] (gas: 4)\n 11513: a1 = 0x20\n 11516: a0 = u64 [s1 + 0x130]\n 11520: ra = 0x114\n 11524: jump @20\n      : @430 (gas: 10)\n 11527: a0 = s1 + 0x28d8\n 11531: u64 [a0 + 1824] = 0\n 11535: u64 [a0 + 1816] = 0\n 11539: u64 [a0 + 1808] = 0\n 11543: u64 [a0 + 1800] = 0\n 11547: a0 = s1 + 0x3000\n 11551: i32 a0 = a0 + 0xffffffffffffffe0\n 11554: ra = 0x1c6\n 11558: ecalli 17 // 'value_transferred'\n 11560: fallthrough\n      : @431 [@dyn 227] (gas: 10)\n 11561: a3 = s1 + 0x28d8\n 11565: a4 = a3 + 0x700\n 11569: a0 = u64 [a4 + 0x18]\n 11572: a1 = u64 [a4 + 0x20]\n 11575: a2 = u64 [a4 + 0x10]\n 11578: a3 = u64 [a4 + 0x8]\n 11581: a1 = a1 | a2\n 11584: a0 = a0 | a3\n 11587: a0 = a0 | a1\n 11590: jump @433 if a0 == 0\n      : @432 (gas: 1)\n 11593: jump @912\n      : @433 (gas: 1)\n 11596: t0 = 456, jump @1148\n      : @434 [@dyn 228] (gas: 1)\n 11602: jump @436 if a1 <u a0\n      : @435 (gas: 1)\n 11605: jump @912\n      : @436 (gas: 15)\n 11608: a0 = s1 + 0x3000\n 11612: i32 a0 = a0 + 0\n 11614: a1 = 0x4\n 11617: ecalli 3 // 'call_data_load'\n 11619: a0 = s1 + 0x28d8\n 11623: a2 = a0 + 0x700\n 11627: a1 = u64 [a2 + 0x40]\n 11630: u64 [s1 + 0x158] = a1\n 11634: a1 = u64 [a2 + 0x38]\n 11637: u64 [s1 + 0x150] = a1\n 11641: a1 = u64 [a2 + 0x30]\n 11644: u64 [s1 + 0x148] = a1\n 11648: a0 = u64 [a2 + 0x28]\n 11651: u64 [s1 + 0x140] = a0\n 11655: ra = 458, jump @1036\n      : @437 [@dyn 229] (gas: 18)\n 11661: a3 = s1 + 0x100\n 11665: a0 = u64 [a3 + 0x58]\n 11668: a1 = u64 [a3 + 0x48]\n 11671: a0 = a0 | a1\n 11674: a1 = u64 [a3 + 0x50]\n 11677: a2 = u64 [a3 + 0x40]\n 11680: a1 = a1 | a2\n 11683: a0 = a0 | a1\n 11686: a0 = a0 >u 0\n 11688: a1 = s1 + 0x20d8\n 11692: u64 [a1 + 576] = 0\n 11696: u64 [a1 + 568] = 0\n 11700: u64 [a1 + 0x228] = a0\n 11704: a0 = s1 + 0x2300\n 11708: u64 [a1 + 560] = 0\n 11712: ra = 0x1cc\n 11716: t0 = 0x44e\n 11720: jump @1129\n      : @438 [@dyn 230] (gas: 3)\n 11723: a0 = s1 + 0x22e0\n 11727: a1 = 0x40\n 11730: ra = 462, jump @7\n      : @439 [@dyn 231] (gas: 14)\n 11736: a2 = s1 + 0x20d8\n 11740: t0 = u64 [a2 + 0x220]\n 11744: a1 = a2 + 0x200\n 11748: a5 = u64 [a1 + 0x18]\n 11751: a4 = u64 [a1 + 0x10]\n 11754: a0 = u64 [a1 + 0x8]\n 11757: a3 = a4 | t0\n 11760: a1 = a0 | a5\n 11763: a1 = a1 | a3\n 11766: a1 = a1 >> 0x20\n 11769: a3 = a3 | a5\n 11772: a3 = a3 << 0x20\n 11775: a1 = a1 | a3\n 11778: jump @441 if a1 == 0\n      : @440 (gas: 1)\n 11781: jump @848\n      : @441 (gas: 11)\n 11784: u64 [a2 + 504] = 0\n 11788: u64 [a2 + 496] = 0\n 11792: u64 [a2 + 488] = 0\n 11796: a3 = 0x23b872dd00000000\n 11806: a1 = s1 + 0x22c0\n 11810: u64 [a2 + 0x200] = a3\n 11814: u64 [s1 + 0x138] = a0\n 11818: u64 [s1 + 0x130] = a4\n 11822: u64 [s1 + 0x120] = a5\n 11826: u64 [s1 + 0x118] = t0\n 11830: ra = 464, jump @9\n      : @442 [@dyn 232] (gas: 7)\n 11836: a0 = 0x30200\n 11841: u64 [s1 + 0x128] = a0\n 11845: i32 a0 = a0 + 0\n 11847: u64 [s1 + 0x110] = a0\n 11851: ra = 0x1d2\n 11855: ecalli 5 // 'caller'\n 11857: fallthrough\n      : @443 [@dyn 233] (gas: 12)\n 11858: a5 = s1 + 0x100\n 11862: a4 = u64 [a5 + 0x38]\n 11865: a0 = u64 [a5 + 0x20]\n 11868: a1 = u64 [a5 + 0x18]\n 11871: a2 = a0 | a1\n 11874: a3 = 0x100000000\n 11884: a0 = 0xfffffffc\n 11894: a0 = a4 <u a0\n 11897: a1 = u64 [a5 + 0x30]\n 11900: a0 = 0 if a1 != 0\n 11902: a0 = 0 if a2 != 0\n 11904: jump @445 if a0 != 0\n      : @444 (gas: 1)\n 11907: jump @848\n      : @445 (gas: 8)\n 11910: u64 [s1 + 0x108] = a2\n 11914: a2 = u64 [s1 + 0x128]\n 11918: a0 = u64 [a2 + 0x8]\n 11921: a1 = i32 [a2 + 0x10]\n 11924: a2 = u64 [a2]\n 11926: a0 = reverse a0\n 11928: u64 [s1 + 0x100] = a3\n 11932: t0 = 468, jump @1146\n      : @446 [@dyn 234] (gas: 9)\n 11938: i32 a0 = a4 + 0x4\n 11941: a4 = s1 + 0x20d8\n 11945: u64 [a4 + 480] = 0\n 11949: a5 = a4 + 0x100\n 11953: u64 [a5 + 0xd8] = a1\n 11957: u64 [a5 + 0xd0] = a2\n 11961: a1 = s1 + 0x22a0\n 11965: u64 [a5 + 0xc8] = a3\n 11969: ra = 470, jump @9\n      : @447 [@dyn 235] (gas: 4)\n 11975: a0 = u64 [s1 + 0x110]\n 11979: ra = 0x1d8\n 11983: ecalli 0 // 'address'\n 11984: fallthrough\n      : @448 [@dyn 236] (gas: 10)\n 11985: a3 = s1 + 0x100\n 11989: a2 = u64 [a3 + 0x8]\n 11992: a4 = u64 [a3 + 0x38]\n 11995: a0 = u64 [a3]\n 11997: a0 = a0 + 0xffffffffffffffdc\n 12000: a0 = a4 <u a0\n 12003: a1 = u64 [a3 + 0x30]\n 12006: a0 = 0 if a1 != 0\n 12008: a0 = 0 if a2 != 0\n 12010: jump @450 if a0 != 0\n      : @449 (gas: 1)\n 12013: jump @848\n      : @450 (gas: 6)\n 12016: a2 = u64 [s1 + 0x128]\n 12020: a0 = u64 [a2 + 0x8]\n 12023: a1 = i32 [a2 + 0x10]\n 12026: a2 = u64 [a2]\n 12028: a0 = reverse a0\n 12030: t0 = 474, jump @1146\n      : @451 [@dyn 237] (gas: 9)\n 12036: i32 a0 = a4 + 0x24\n 12039: a4 = s1 + 0x20d8\n 12043: u64 [a4 + 448] = 0\n 12047: a5 = a4 + 0x100\n 12051: u64 [a5 + 0xb8] = a1\n 12055: u64 [a5 + 0xb0] = a2\n 12059: a1 = s1 + 0x2280\n 12063: u64 [a5 + 0xa8] = a3\n 12067: ra = 476, jump @9\n      : @452 [@dyn 238] (gas: 9)\n 12073: a2 = s1 + 0x100\n 12077: a3 = u64 [a2 + 0x38]\n 12080: a0 = 0xffffffbc\n 12090: a0 = a3 <u a0\n 12093: a1 = u64 [a2 + 0x30]\n 12096: a0 = 0 if a1 != 0\n 12098: a1 = u64 [a2 + 0x8]\n 12101: a0 = 0 if a1 != 0\n 12103: jump @454 if a0 != 0\n      : @453 (gas: 1)\n 12106: jump @848\n      : @454 (gas: 13)\n 12109: i32 a0 = a3 + 0x44\n 12112: a1 = u64 [s1 + 0x140]\n 12116: a4 = s1 + 0x20d8\n 12120: a3 = a4 + 0x100\n 12124: u64 [a3 + 0x88] = a1\n 12128: a1 = u64 [s1 + 0x148]\n 12132: u64 [a3 + 0x90] = a1\n 12136: a1 = u64 [s1 + 0x150]\n 12140: u64 [a3 + 0x98] = a1\n 12144: a1 = s1 + 0x2260\n 12148: a2 = u64 [s1 + 0x158]\n 12152: u64 [a3 + 0xa0] = a2\n 12156: ra = 478, jump @9\n      : @455 [@dyn 239] (gas: 1)\n 12162: ra = 480, jump @0\n      : @456 [@dyn 240] (gas: 32)\n 12168: a1 = u64 [0x30220]\n 12173: u64 [s1 + 0x108] = a1\n 12177: a1 = u64 [0x30230]\n 12182: u64 [s1 + 0x100] = a1\n 12186: a0 = u64 [0x30228]\n 12191: u64 [s1 + 0xf8] = a0\n 12195: ecalli 11 // 'ref_time_left'\n 12197: a0 = u64 [s1 + 0xf8]\n 12201: a0 = reverse a0\n 12203: a1 = a0 << 0x20\n 12206: a2 = u64 [s1 + 0x100]\n 12210: a2 = reverse a2\n 12212: a2 = a2 >> 0x20\n 12215: a1 = a1 | a2\n 12218: a0 = a0 >> 0x20\n 12221: a2 = u64 [s1 + 0x108]\n 12225: a2 = reverse a2\n 12227: a3 = a2 << 0x20\n 12230: a0 = a0 | a3\n 12233: a2 = a2 >> 0x20\n 12236: a3 = u64 [s1 + 0x128]\n 12240: u32 [a3 + 0x10] = a2\n 12243: u64 [a3 + 0x8] = a0\n 12246: u64 [a3] = a1\n 12248: a0 = s1 + 0x28d8\n 12252: u64 [a0 + 1888] = 0\n 12256: u64 [a0 + 1880] = 0\n 12260: u64 [a0 + 1872] = 0\n 12264: u64 [a0 + 1864] = 0\n 12268: a1 = 0x64\n 12271: a0 = u64 [s1 + 0x138]\n 12275: ra = 482, jump @20\n      : @457 [@dyn 241] (gas: 4)\n 12281: u64 [s1 + 0x108] = a0\n 12285: a1 = 0x20\n 12288: a0 = u64 [s1 + 0x138]\n 12292: ra = 484, jump @20\n      : @458 [@dyn 242] (gas: 33)\n 12298: a2 = s1 + 0x28d8\n 12302: a3 = a2 + 0x700\n 12306: u32 [a3 + 104] = 0x20\n 12310: u64 [a3 + 160] = 0xffffffffffffffff\n 12315: u64 [a3 + 152] = 0xffffffffffffffff\n 12320: u64 [a3 + 144] = 0xffffffffffffffff\n 12325: u64 [a3 + 136] = 0xffffffffffffffff\n 12330: a1 = u64 [s1 + 0x128]\n 12334: a1 = a1 << 0x20\n 12337: a1 = a1 >> 0x20\n 12340: a2 = 0x800000000\n 12350: t0 = a1 | a2\n 12353: a1 = s1 + 0x3020\n 12357: a1 = a1 << 0x20\n 12360: a1 = a1 >> 0x20\n 12363: a2 = s1 + 0x3060\n 12367: a2 = a2 << 0x20\n 12370: a3 = a2 | a1\n 12373: a1 = u64 [s1 + 0x108]\n 12377: a1 = a1 << 0x20\n 12380: a1 = a1 >> 0x20\n 12383: a2 = 0x6400000000\n 12393: a4 = a1 | a2\n 12396: a0 = a0 << 0x20\n 12399: a0 = a0 >> 0x20\n 12402: a1 = s1 + 0x3040\n 12406: a1 = a1 << 0x20\n 12409: a5 = a1 | a0\n 12412: a1 = 0xffffffffffffffff\n 12415: a2 = 0xffffffffffffffff\n 12418: a0 = t0\n 12420: ecalli 1 // 'call'\n 12422: fallthrough\n      : @459 (gas: 1)\n 12423: jump @461 if a0 == 0\n      : @460 (gas: 1)\n 12426: jump @830\n      : @461 (gas: 2)\n 12429: ecalli 13 // 'return_data_size'\n 12431: fallthrough\n      : @462 (gas: 2)\n 12432: a1 = 0x20\n 12435: jump @464 if a0 >=u a1\n      : @463 (gas: 3)\n 12438: ecalli 13 // 'return_data_size'\n 12440: a1 = a0\n 12442: fallthrough\n      : @464 (gas: 18)\n 12443: a2 = s1 + 0x20d8\n 12447: t0 = u64 [s1 + 0x138]\n 12451: a4 = u64 [s1 + 0x130]\n 12455: a5 = u64 [s1 + 0x120]\n 12459: a3 = u64 [s1 + 0x118]\n 12463: u64 [s1 + 0x100] = a1\n 12467: u64 [s1 + 264] = 0\n 12471: u64 [a2 + 0x128] = a1\n 12475: u64 [a2 + 0x148] = t0\n 12479: u64 [a2 + 304] = 0\n 12483: u64 [a2 + 0x150] = a4\n 12487: u64 [a2 + 312] = 0\n 12491: u64 [a2 + 0x158] = a5\n 12495: u64 [a2 + 320] = 0\n 12499: a0 = s1 + 0x2220\n 12503: a1 = s1 + 0x2200\n 12507: u64 [a2 + 0x160] = a3\n 12511: ra = 486, jump @987\n      : @465 [@dyn 243] (gas: 34)\n 12517: t0 = u64 [s1 + 0x138]\n 12521: a0 = u64 [s1 + 0x100]\n 12525: ra = a0 + t0\n 12528: a1 = ra <u a0\n 12531: t1 = u64 [s1 + 0x130]\n 12535: a5 = u64 [s1 + 0x108]\n 12539: a2 = a5 + t1\n 12542: a2 = a2 + a1\n 12545: a3 = a2 ^ a5\n 12548: a4 = a2 <u a5\n 12551: a4 = a1 if a3 == 0\n 12554: a3 = u64 [s1 + 0x120]\n 12558: a1 = a5 + a3\n 12561: a4 = a4 + a1\n 12564: t2 = a4 <u a1\n 12567: a1 = a1 <u a5\n 12570: a0 = u64 [s1 + 0x118]\n 12574: a5 = a5 + a0\n 12577: a1 = a1 + a5\n 12580: t2 = t2 + a1\n 12583: a1 = s1 + 0x20d8\n 12587: u64 [a1 + 0xd8] = a4\n 12591: u64 [a1 + 0xd0] = a2\n 12595: u64 [a1 + 0xc8] = ra\n 12599: u64 [a1 + 0x100] = a0\n 12603: u64 [a1 + 0xf8] = a3\n 12607: u64 [a1 + 0xf0] = t1\n 12611: u64 [a1 + 0xe8] = t0\n 12615: a3 = a1\n 12617: a0 = s1 + 0x21e0\n 12621: a1 = s1 + 0x21c0\n 12625: a2 = s1 + 0x21a0\n 12629: u64 [a3 + 0xe0] = t2\n 12633: ra = 488, jump @997\n      : @466 [@dyn 244] (gas: 14)\n 12639: a4 = s1 + 0x20d8\n 12643: a5 = a4 + 0x100\n 12647: a1 = u64 [a5 + 0x8]\n 12650: a0 = u64 [a5 + 0x10]\n 12653: a2 = u64 [a5 + 0x18]\n 12656: a3 = u64 [a5 + 0x20]\n 12659: u64 [a4 + 0xc0] = a3\n 12663: u64 [a4 + 0xb8] = a2\n 12667: u64 [a4 + 0xb0] = a0\n 12671: a0 = s1 + 0x2180\n 12675: u64 [a4 + 0xa8] = a1\n 12679: ra = 0x1ea\n 12683: t0 = 0x47a\n 12687: jump @1129\n      : @467 [@dyn 245] (gas: 24)\n 12690: a0 = u64 [s1 + 0x110]\n 12694: ecalli 5 // 'caller'\n 12696: a2 = u64 [s1 + 0x128]\n 12700: a0 = u64 [a2 + 0x8]\n 12703: a1 = i32 [a2 + 0x10]\n 12706: a2 = u64 [a2]\n 12708: a0 = reverse a0\n 12710: a3 = a0 << 0x20\n 12713: a1 = reverse a1\n 12715: a1 = a1 >> 0x20\n 12718: a3 = a3 | a1\n 12721: a0 = a0 >> 0x20\n 12724: a1 = reverse a2\n 12726: a2 = a1 << 0x20\n 12729: a0 = a0 | a2\n 12732: a1 = a1 >> 0x20\n 12735: a2 = s1 + 0x20d8\n 12739: u64 [a2 + 160] = 0\n 12743: u64 [a2 + 0x98] = a1\n 12747: u64 [a2 + 0x90] = a0\n 12751: a1 = s1 + 0x2160\n 12755: u64 [a2 + 0x88] = a3\n 12759: a0 = 0\n 12761: ra = 492, jump @9\n      : @468 [@dyn 246] (gas: 9)\n 12767: a0 = s1 + 0x20d8\n 12771: u64 [a0 + 128] = 0\n 12775: u64 [a0 + 120] = 0\n 12778: u64 [a0 + 112] = 0\n 12781: a3 = a0\n 12783: a0 = 0x20\n 12786: a1 = s1 + 0x2140\n 12790: u64 [a3 + 104] = 0x1\n 12794: ra = 494, jump @9\n      : @469 [@dyn 247] (gas: 1)\n 12800: t0 = 496, jump @1143\n      : @470 [@dyn 248] (gas: 1)\n 12806: ra = 498, jump @20\n      : @471 [@dyn 249] (gas: 4)\n 12812: a1 = sp + 0xffffffffffffffe0\n 12815: a1 = a1 & 0xffffffffffffffe0\n 12818: u64 [s1 + 0x130] = a1\n 12822: t0 = 500, jump @1117\n      : @472 [@dyn 250] (gas: 5)\n 12828: ra = 0x1f6\n 12832: ecalli 9 // 'hash_keccak_256'\n 12834: a3 = u64 [s1 + 0x130]\n 12838: t0 = 0x1f8\n 12842: jump @1110\n      : @473 [@dyn 251] (gas: 2)\n 12845: a3 = u64 [s1 + 0x130]\n 12849: t0 = 504, jump @1110\n      : @474 [@dyn 252] (gas: 8)\n 12855: a5 = a4 + 0x700\n 12859: u64 [a5 + 0xe0] = a3\n 12863: u64 [a5 + 0xd8] = a2\n 12867: u64 [a5 + 0xd0] = a1\n 12871: u64 [a5 + 0xc8] = a0\n 12875: a0 = s1 + 0x2120\n 12879: a1 = s1 + 0x30a0\n 12883: ra = 506, jump @11\n      : @475 [@dyn 253] (gas: 21)\n 12889: a4 = s1 + 0x20d8\n 12893: a3 = u64 [a4 + 0x48]\n 12896: a0 = u64 [a4 + 0x50]\n 12899: a1 = u64 [a4 + 0x58]\n 12902: a2 = u64 [a4 + 0x60]\n 12905: a5 = u64 [s1 + 0x158]\n 12909: u64 [a4] = a5\n 12911: a5 = u64 [s1 + 0x150]\n 12915: u64 [a4 + 0xfffffffffffffff8] = a5\n 12918: a5 = u64 [s1 + 0x148]\n 12922: u64 [a4 + 0xfffffffffffffff0] = a5\n 12925: a5 = u64 [s1 + 0x140]\n 12929: u64 [a4 + 0xffffffffffffffe8] = a5\n 12932: u64 [a4 + 0x20] = a2\n 12935: u64 [a4 + 0x18] = a1\n 12938: u64 [a4 + 0x10] = a0\n 12941: a0 = s1 + 0x2100\n 12945: a1 = s1 + 0x20e0\n 12949: a2 = s1 + 0x20c0\n 12953: u64 [a4 + 0x8] = a3\n 12956: ra = 508, jump @1028\n      : @476 [@dyn 254] (gas: 16)\n 12962: a3 = s1 + 0x20d8\n 12966: a0 = u64 [a3 + 0x38]\n 12969: a1 = u64 [a3 + 0x40]\n 12972: a2 = u64 [a3 + 0x28]\n 12975: a3 = u64 [a3 + 0x30]\n 12978: a4 = u64 [s1 + 0x138]\n 12982: u64 [a4 + 0x10] = a0\n 12985: u64 [a4 + 0x18] = a1\n 12988: u64 [a4] = a2\n 12990: u64 [a4 + 0x8] = a3\n 12993: a0 = u64 [s1 + 0x110]\n 12997: ra = 0x1fe\n 13001: ecalli 5 // 'caller'\n 13003: a2 = u64 [s1 + 0x128]\n 13007: t0 = 0x200\n 13011: jump @1112\n      : @477 [@dyn 255] (gas: 2)\n 13014: a2 = u64 [s1 + 0x128]\n 13018: t0 = 512, jump @1112\n      : @478 [@dyn 256] (gas: 8)\n 13024: u64 [a2 + 2016] = 0\n 13028: a4 = a2 + 0x700\n 13032: u64 [a4 + 0xd8] = a1\n 13036: u64 [a4 + 0xd0] = a0\n 13040: a1 = s1 + 0x20a0\n 13044: u64 [a4 + 0xc8] = a3\n 13048: a0 = 0\n 13050: ra = 514, jump @9\n      : @479 [@dyn 257] (gas: 8)\n 13056: a3 = s1 + 0x18d8\n 13060: u64 [a3 + 1984] = 0\n 13064: u64 [a3 + 1976] = 0\n 13068: u64 [a3 + 1968] = 0\n 13072: a0 = 0x20\n 13075: a1 = s1 + 0x2080\n 13079: u64 [a3 + 1960] = 0x1\n 13084: ra = 516, jump @9\n      : @480 [@dyn 258] (gas: 3)\n 13090: a1 = 0x40\n 13093: a0 = 0\n 13095: ra = 518, jump @20\n      : @481 [@dyn 259] (gas: 4)\n 13101: a1 = sp + 0xffffffffffffffe0\n 13104: a1 = a1 & 0xffffffffffffffe0\n 13107: u64 [s1 + 0x130] = a1\n 13111: t0 = 520, jump @1117\n      : @482 [@dyn 260] (gas: 19)\n 13117: ecalli 9 // 'hash_keccak_256'\n 13119: a3 = u64 [s1 + 0x130]\n 13123: a0 = u64 [a3 + 0x18]\n 13126: a1 = u64 [a3 + 0x10]\n 13129: a2 = u64 [a3 + 0x8]\n 13132: a3 = u64 [a3]\n 13134: a0 = reverse a0\n 13136: a1 = reverse a1\n 13138: a2 = reverse a2\n 13140: a3 = reverse a3\n 13142: a4 = s1 + 0x30d8\n 13146: u64 [a4] = a3\n 13148: a3 = a4 + 0xffffffffffffff00\n 13152: u64 [a3 + 0xf8] = a2\n 13156: u64 [a3 + 0xf0] = a1\n 13160: u64 [a3 + 0xe8] = a0\n 13164: a0 = s1 + 0x30c0\n 13168: a1 = u64 [s1 + 0x138]\n 13172: ra = 522, jump @12\n      : @483 [@dyn 261] (gas: 3)\n 13178: a0 = s1 + 0x2060\n 13182: a1 = 0x40\n 13185: ra = 524, jump @7\n      : @484 [@dyn 262] (gas: 7)\n 13191: a3 = s1 + 0x18d8\n 13195: a5 = a3 + 0x700\n 13199: a0 = u64 [a5 + 0xa0]\n 13203: a1 = u64 [a5 + 0x98]\n 13207: a2 = u64 [a5 + 0x90]\n 13211: a4 = u64 [a5 + 0x88]\n 13215: t0 = 526, jump @1122\n      : @485 [@dyn 263] (gas: 1)\n 13221: jump @487 if a0 == 0\n      : @486 (gas: 1)\n 13224: jump @848\n      : @487 (gas: 13)\n 13227: a0 = u64 [s1 + 0x140]\n 13231: a2 = a3 + 0x700\n 13235: u64 [a2 + 0x68] = a0\n 13238: a0 = u64 [s1 + 0x148]\n 13242: u64 [a2 + 0x70] = a0\n 13245: a0 = u64 [s1 + 0x150]\n 13249: u64 [a2 + 0x78] = a0\n 13252: a1 = s1 + 0x2040\n 13256: a0 = u64 [s1 + 0x158]\n 13260: u64 [a2 + 0x80] = a0\n 13264: a0 = a4\n 13266: u64 [s1 + 0x158] = a4\n 13270: ra = 528, jump @9\n      : @488 [@dyn 264] (gas: 6)\n 13276: a0 = u64 [s1 + 0x110]\n 13280: ra = 0x212\n 13284: ecalli 5 // 'caller'\n 13286: a2 = u64 [s1 + 0x128]\n 13290: t0 = 0x214\n 13294: jump @1125\n      : @489 [@dyn 265] (gas: 2)\n 13297: a2 = u64 [s1 + 0x128]\n 13301: t0 = 532, jump @1125\n      : @490 [@dyn 266] (gas: 25)\n 13307: t0 = a1 | a0\n 13310: a3 = a3 >> 0x20\n 13313: a2 = reverse a2\n 13315: a1 = a2 << 0x20\n 13318: a1 = a1 | a3\n 13321: a2 = a2 >> 0x20\n 13324: a3 = u64 [0x20010]\n 13329: a0 = s1 + 0x18d8\n 13333: u64 [a0 + 0x760] = a3\n 13337: a3 = u64 [0x20018]\n 13342: a4 = u64 [0x20020]\n 13347: a5 = u64 [0x20028]\n 13352: u64 [a0 + 0x758] = a3\n 13356: a3 = a0 + 0x700\n 13360: u64 [a3 + 0x50] = a4\n 13363: u64 [a0 + 1856] = 0\n 13367: u64 [a3 + 0x48] = a5\n 13370: u64 [a3 + 0x38] = a2\n 13373: u64 [a3 + 0x30] = a1\n 13376: a1 = 0x20\n 13379: a2 = s1 + 0x2020\n 13383: a3 = s1 + 0x2000\n 13387: u64 [a0 + 0x728] = t0\n 13391: a0 = u64 [s1 + 0x158]\n 13395: ra = 534, jump @13\n      : @491 [@dyn 267] (gas: 7)\n 13401: a1 = s1 + 0x30d8\n 13405: u64 [a1 + 32] = 0\n 13408: u64 [a1 + 24] = 0\n 13411: u64 [a1 + 16] = 0\n 13414: u64 [a1 + 8] = 0x1\n 13418: a0 = 0x30e0\n 13422: fallthrough\n      : @492 (gas: 3)\n 13423: a1 = s1 + a0\n 13426: a0 = u64 [s1 + 0xd8]\n 13430: ra = 536, jump @12\n      : @493 [@dyn 268] (gas: 1)\n 13436: jump @919\n      : @494 (gas: 1)\n 13439: jump @496 if a0 == 778872200\n      : @495 (gas: 1)\n 13446: jump @914\n      : @496 (gas: 10)\n 13449: a0 = s1 + 0x28d8\n 13453: u64 [a0 + 1184] = 0\n 13457: u64 [a0 + 1176] = 0\n 13461: u64 [a0 + 1168] = 0\n 13465: u64 [a0 + 1160] = 0\n 13469: a0 = s1 + 0x3000\n 13473: i32 a0 = a0 + 0xfffffffffffffd60\n 13477: ra = 0x21a\n 13481: ecalli 17 // 'value_transferred'\n 13483: fallthrough\n      : @497 [@dyn 269] (gas: 10)\n 13484: a3 = s1 + 0x28d8\n 13488: a4 = a3 + 0x400\n 13492: a0 = u64 [a4 + 0x98]\n 13496: a1 = u64 [a4 + 0xa0]\n 13500: a2 = u64 [a4 + 0x90]\n 13504: a3 = u64 [a4 + 0x88]\n 13508: a1 = a1 | a2\n 13511: a0 = a0 | a3\n 13514: a0 = a0 | a1\n 13517: jump @499 if a0 == 0\n      : @498 (gas: 1)\n 13520: jump @912\n      : @499 (gas: 1)\n 13523: t0 = 540, jump @1148\n      : @500 [@dyn 270] (gas: 1)\n 13529: jump @502 if a1 <u a0\n      : @501 (gas: 1)\n 13532: jump @912\n      : @502 (gas: 2)\n 13535: a0 = s1 + 0x17a0\n 13539: ra = 542, jump @931\n      : @503 [@dyn 271] (gas: 2)\n 13545: a3 = s1 + 0x10d8\n 13549: t0 = 544, jump @1154\n      : @504 [@dyn 272] (gas: 4)\n 13555: a1 = s1 + 0x1780\n 13559: u64 [a4 + 0xa8] = a0\n 13563: a0 = 0\n 13565: ra = 546, jump @9\n      : @505 [@dyn 273] (gas: 8)\n 13571: a2 = s1 + 0x10d8\n 13575: u64 [a2 + 1696] = 0\n 13579: u64 [a2 + 1688] = 0\n 13583: u64 [a2 + 1672] = 0x4\n 13588: a0 = 0x20\n 13591: a1 = s1 + 0x1760\n 13595: u64 [a2 + 1680] = 0\n 13599: ra = 548, jump @9\n      : @506 [@dyn 274] (gas: 1)\n 13605: t0 = 550, jump @1142\n      : @507 [@dyn 275] (gas: 1)\n 13611: ra = 552, jump @20\n      : @508 [@dyn 276] (gas: 4)\n 13617: a1 = sp + 0xffffffffffffffe0\n 13620: a1 = a1 & 0xffffffffffffffe0\n 13623: u64 [s1 + 0x150] = a1\n 13627: t0 = 554, jump @1117\n      : @509 [@dyn 277] (gas: 5)\n 13633: ra = 0x22c\n 13637: ecalli 9 // 'hash_keccak_256'\n 13639: a3 = u64 [s1 + 0x150]\n 13643: t0 = 0x22e\n 13647: jump @1130\n      : @510 [@dyn 278] (gas: 2)\n 13650: a3 = u64 [s1 + 0x150]\n 13654: t0 = 558, jump @1130\n      : @511 [@dyn 279] (gas: 12)\n 13660: u64 [s1 + 0x138] = a3\n 13664: a4 = u64 [s1 + 0x158]\n 13668: u64 [a4 + 0x18] = a3\n 13671: u64 [s1 + 0x140] = a2\n 13675: u64 [a4 + 0x10] = a2\n 13678: u64 [s1 + 0x148] = a1\n 13682: u64 [a4 + 0x8] = a1\n 13685: u64 [s1 + 0x150] = a0\n 13689: u64 [a4] = a0\n 13691: a0 = s1 + 0x1740\n 13695: a1 = 0x40\n 13698: ra = 560, jump @7\n      : @512 [@dyn 280] (gas: 13)\n 13704: a0 = s1 + 0x10d8\n 13708: a2 = a0 + 0x600\n 13712: a1 = u64 [a2 + 0x80]\n 13716: u64 [s1 + 0x98] = a1\n 13720: a1 = u64 [a2 + 0x78]\n 13723: u64 [s1 + 0x90] = a1\n 13727: a1 = u64 [a2 + 0x70]\n 13730: u64 [s1 + 0x88] = a1\n 13734: a0 = u64 [a2 + 0x68]\n 13737: u64 [s1 + 0xa0] = a0\n 13741: a0 = s1 + 0x1720\n 13745: a1 = u64 [s1 + 0x158]\n 13749: ra = 562, jump @11\n      : @513 [@dyn 281] (gas: 6)\n 13755: t2 = u64 [s1 + 0x88]\n 13759: a4 = u64 [s1 + 0x90]\n 13763: a1 = u64 [s1 + 0x98]\n 13767: a0 = u64 [s1 + 0xa0]\n 13771: a2 = t2 | a1\n 13774: t0 = 564, jump @1152\n      : @514 [@dyn 282] (gas: 1)\n 13780: jump @516 if a1 == 0\n      : @515 (gas: 1)\n 13783: jump @848\n      : @516 (gas: 17)\n 13786: a1 = s1 + 0x10d8\n 13790: t0 = u64 [a1 + 0x660]\n 13794: t1 = u64 [a1 + 0x658]\n 13798: a3 = a1 + 0x600\n 13802: a2 = u64 [a3 + 0x50]\n 13805: a5 = u64 [a3 + 0x48]\n 13808: u64 [s1 + 0xd0] = a5\n 13812: u64 [a3 + 0x28] = a5\n 13815: u64 [s1 + 0xd8] = a2\n 13819: u64 [a3 + 0x30] = a2\n 13822: u64 [s1 + 0xe0] = t1\n 13826: u64 [a1 + 0x638] = t1\n 13830: a2 = a1\n 13832: a1 = s1 + 0x1700\n 13836: u64 [s1 + 0xe8] = t0\n 13840: u64 [a2 + 0x640] = t0\n 13844: ra = 566, jump @9\n      : @517 [@dyn 283] (gas: 30)\n 13850: a1 = u64 [s1 + 0xa0]\n 13854: a0 = a1 + 0x20\n 13857: u64 [s1 + 0xb0] = a0\n 13861: a0 = a0 <u a1\n 13864: a2 = u64 [s1 + 0x88]\n 13868: a1 = a2 + a0\n 13871: u64 [s1 + 0xb8] = a1\n 13875: a1 = a1 <u a2\n 13878: a1 = a0 if a0 == 0\n 13881: a0 = u64 [s1 + 0x90]\n 13885: a1 = a1 + a0\n 13888: u64 [s1 + 0xa8] = a1\n 13892: a0 = a1 <u a0\n 13895: a1 = u64 [s1 + 0x98]\n 13899: a0 = a0 + a1\n 13902: u64 [s1 + 0xc0] = a0\n 13906: a0 = u64 [s1 + 0x138]\n 13910: a1 = s1 + 0x10d8\n 13914: a2 = a1 + 0x600\n 13918: u64 [a2 + 0x20] = a0\n 13921: a0 = u64 [s1 + 0x140]\n 13925: u64 [a2 + 0x18] = a0\n 13928: a0 = u64 [s1 + 0x148]\n 13932: u64 [a2 + 0x10] = a0\n 13935: a2 = a1\n 13937: a1 = s1 + 0x16e0\n 13941: a0 = u64 [s1 + 0x150]\n 13945: u64 [a2 + 0x608] = a0\n 13949: a0 = 0\n 13951: ra = 568, jump @9\n      : @518 [@dyn 284] (gas: 7)\n 13957: a0 = sp + 0xffffffffffffffe0\n 13960: a0 = a0 & 0xffffffffffffffe0\n 13963: u64 [s1 + 0xc8] = a0\n 13967: sp = a0\n 13969: a1 = 0x20\n 13972: a0 = 0\n 13974: ra = 570, jump @20\n      : @519 [@dyn 285] (gas: 40)\n 13980: a1 = sp + 0xffffffffffffffe0\n 13983: a1 = a1 & 0xffffffffffffffe0\n 13986: u64 [s1 + 0x158] = a1\n 13990: sp = a1\n 13992: i32 a0 = a0 + 0\n 13994: i32 a2 = a1 + 0\n 13996: a1 = 0x20\n 13999: ecalli 9 // 'hash_keccak_256'\n 14001: a1 = u64 [s1 + 0xc8]\n 14005: t0 = 0\n 14007: t1 = 0\n 14009: ra = 0\n 14011: u64 [s1 + 312] = 0\n 14015: a3 = u64 [s1 + 0x158]\n 14019: a0 = u64 [a3 + 0x18]\n 14022: a4 = u64 [a3 + 0x10]\n 14025: a2 = u64 [a3 + 0x8]\n 14028: a5 = u64 [a3]\n 14030: t2 = reverse a0\n 14032: a4 = reverse a4\n 14034: a3 = reverse a2\n 14036: a2 = reverse a5\n 14038: a0 = a2\n 14040: u64 [a1 + 0x18] = a2\n 14043: u64 [s1 + 0x118] = a3\n 14047: u64 [a1 + 0x10] = a3\n 14050: a5 = a4\n 14052: u64 [a1 + 0x8] = a4\n 14055: u64 [s1 + 0x120] = t2\n 14059: u64 [a1] = t2\n 14061: a2 = u64 [s1 + 0xb0]\n 14065: a3 = s1 + 0x100\n 14069: u64 [a3 + 0x58] = a2\n 14072: a2 = u64 [s1 + 0xb8]\n 14076: u64 [a3 + 0x48] = a2\n 14079: a2 = u64 [s1 + 0xa8]\n 14083: u64 [a3 + 0x40] = a2\n 14086: a2 = u64 [s1 + 0xc0]\n 14090: u64 [a3 + 0x50] = a2\n 14093: fallthrough\n      : @520 (gas: 20)\n 14094: a4 = s1 + 0x100\n 14098: u64 [a4 + 0x28] = a0\n 14101: u64 [a4 + 0x30] = a5\n 14104: a0 = u64 [s1 + 0xd0]\n 14108: a0 = t0 <u a0\n 14111: a2 = u64 [s1 + 0xd8]\n 14115: a3 = t1 ^ a2\n 14118: a2 = t1 <u a2\n 14121: a2 = a0 if a3 == 0\n 14124: a0 = u64 [s1 + 0xe0]\n 14128: t2 = ra <u a0\n 14131: a3 = u64 [s1 + 0xe8]\n 14135: a5 = u64 [a4 + 0x38]\n 14138: a4 = a5 ^ a3\n 14141: a3 = a5 <u a3\n 14144: a3 = t2 if a4 == 0\n 14147: a0 = ra ^ a0\n 14150: a0 = a0 | a4\n 14153: a3 = a2 if a0 == 0\n 14156: jump @580 if a3 == 0\n      : @521 (gas: 5)\n 14160: u64 [s1 + 0x100] = ra\n 14164: u64 [s1 + 0x108] = t1\n 14168: u64 [s1 + 0x110] = t0\n 14172: a0 = s1 + 0x15c0\n 14176: ra = 572, jump @11\n      : @522 [@dyn 286] (gas: 13)\n 14182: a1 = s1 + 0x100\n 14186: a5 = u64 [a1 + 0x58]\n 14189: a4 = u64 [a1 + 0x40]\n 14192: a0 = a5 | a4\n 14195: a3 = u64 [a1 + 0x50]\n 14198: a2 = u64 [a1 + 0x48]\n 14201: a1 = a2 | a3\n 14204: a0 = a0 | a1\n 14207: a0 = a0 >> 0x20\n 14210: a1 = a1 | a4\n 14213: a1 = a1 << 0x20\n 14216: a0 = a0 | a1\n 14219: jump @524 if a0 == 0\n      : @523 (gas: 1)\n 14222: jump @848\n      : @524 (gas: 17)\n 14225: a0 = s1 + 0x10d8\n 14229: u64 [s1 + 0x140] = a4\n 14233: a4 = a0\n 14235: t0 = u64 [a0 + 0x500]\n 14239: a1 = u64 [a0 + 0x4f8]\n 14243: a0 = u64 [a0 + 0x4f0]\n 14247: u64 [s1 + 0x150] = a3\n 14251: a3 = u64 [a4 + 0x4e8]\n 14255: u64 [a4 + 0x4c8] = a3\n 14259: u64 [a4 + 0x4d0] = a0\n 14263: u64 [a4 + 0x4d8] = a1\n 14267: a1 = s1 + 0x15a0\n 14271: u64 [a4 + 0x4e0] = t0\n 14275: a0 = a5\n 14277: u64 [s1 + 0x158] = a5\n 14281: u64 [s1 + 0x148] = a2\n 14285: ra = 574, jump @9\n      : @525 [@dyn 287] (gas: 56)\n 14291: a1 = u64 [s1 + 0x158]\n 14295: a0 = a1 + 0x20\n 14298: u64 [s1 + 0xf8] = a0\n 14302: a2 = a0 <u a1\n 14305: a1 = u64 [s1 + 0x148]\n 14309: a0 = a1 + a2\n 14312: u64 [s1 + 0xf0] = a0\n 14316: a3 = a0 <u a1\n 14319: a3 = a2 if a2 == 0\n 14322: a0 = u64 [s1 + 0x140]\n 14326: ra = a0 + a3\n 14329: a3 = ra <u a0\n 14332: a0 = u64 [s1 + 0x150]\n 14336: a0 = a0 + a3\n 14339: u64 [s1 + 0x150] = a0\n 14343: t2 = u64 [s1 + 0x120]\n 14347: t2 = t2 + 0x1\n 14350: u64 [s1 + 0x120] = t2\n 14354: a3 = t2 <u 0x1\n 14357: a0 = u64 [s1 + 0x130]\n 14361: a0 = a0 + a3\n 14364: a3 = t2 | a0\n 14367: a3 = a3 <u 0x1\n 14370: a1 = u64 [s1 + 0x118]\n 14374: a3 = a3 + a1\n 14377: a4 = a3 <u a1\n 14380: a2 = u64 [s1 + 0x128]\n 14384: a2 = a2 + a4\n 14387: t0 = u64 [s1 + 0x110]\n 14391: t0 = t0 + 0x1\n 14394: a4 = t0 <u 0x1\n 14397: t1 = u64 [s1 + 0x108]\n 14401: t1 = t1 + a4\n 14404: a4 = t0 | t1\n 14407: a4 = a4 <u 0x1\n 14410: a5 = u64 [s1 + 0x100]\n 14414: a4 = a4 + a5\n 14417: a5 = a4 <u a5\n 14420: a1 = u64 [s1 + 0x138]\n 14424: a1 = a1 + a5\n 14427: u64 [s1 + 0x138] = a1\n 14431: a5 = a0\n 14433: a1 = u64 [s1 + 0xc8]\n 14437: u64 [a1 + 0x8] = a0\n 14440: u64 [a1] = t2\n 14442: u64 [a1 + 0x10] = a3\n 14445: a0 = a2\n 14447: u64 [a1 + 0x18] = a2\n 14450: u64 [s1 + 0x118] = a3\n 14454: a2 = u64 [s1 + 0xf8]\n 14458: u64 [s1 + 0x158] = a2\n 14462: a2 = u64 [s1 + 0xf0]\n 14466: u64 [s1 + 0x148] = a2\n 14470: u64 [s1 + 0x140] = ra\n 14474: ra = a4\n 14476: jump @520\n      : @526 (gas: 27)\n 14479: a0 = s1 + 0x28d8\n 14483: a1 = u64 [a0 + 0x500]\n 14487: u64 [s1 + 0x120] = a1\n 14491: a2 = a0 + 0x400\n 14495: a1 = u64 [a2 + 0xf8]\n 14499: u64 [s1 + 0x118] = a1\n 14503: a1 = u64 [a2 + 0xf0]\n 14507: u64 [s1 + 0x110] = a1\n 14511: a0 = u64 [a2 + 0xe8]\n 14515: u64 [s1 + 0x108] = a0\n 14519: a0 = u64 [s1 + 0x138]\n 14523: a1 = u64 [s1 + 0x128]\n 14527: a0 = a0 | a1\n 14530: a1 = u64 [s1 + 0x140]\n 14534: a2 = u64 [s1 + 0x130]\n 14538: a1 = a1 | a2\n 14541: a0 = a0 | a1\n 14544: a0 = a0 >u 0\n 14546: a1 = s1 + 0x18d8\n 14550: u64 [a1 + 1728] = 0\n 14554: u64 [a1 + 1720] = 0\n 14558: u64 [a1 + 0x6a8] = a0\n 14562: a0 = s1 + 0x1f80\n 14566: u64 [a1 + 1712] = 0\n 14570: ra = 0x240\n 14574: t0 = 0x44e\n 14578: jump @1129\n      : @527 [@dyn 288] (gas: 9)\n 14581: a3 = s1 + 0x100\n 14585: a0 = u64 [a3 + 0x18]\n 14588: a1 = u64 [a3 + 0x8]\n 14591: a0 = a0 | a1\n 14594: a1 = u64 [a3 + 0x20]\n 14597: a2 = u64 [a3 + 0x10]\n 14600: a1 = a1 | a2\n 14603: a0 = a0 | a1\n 14606: jump @599 if a0 != 0\n      : @528 (gas: 3)\n 14610: a0 = s1 + 0x18e0\n 14614: a1 = 0x40\n 14617: ra = 578, jump @7\n      : @529 [@dyn 289] (gas: 13)\n 14623: a2 = s1 + 0x18d8\n 14627: t0 = u64 [a2 + 0x20]\n 14630: a5 = u64 [a2 + 0x18]\n 14633: a4 = u64 [a2 + 0x10]\n 14636: a3 = u64 [a2 + 0x8]\n 14639: a0 = a4 | t0\n 14642: a1 = a3 | a5\n 14645: a1 = a1 | a0\n 14648: a1 = a1 >> 0x20\n 14651: a0 = a0 | a5\n 14654: a0 = a0 << 0x20\n 14657: a0 = a0 | a1\n 14660: jump @531 if a0 == 0\n      : @530 (gas: 1)\n 14663: jump @848\n      : @531 (gas: 13)\n 14666: a0 = s1 + 0x10d8\n 14670: u64 [a0 + 2040] = 0\n 14674: u64 [a0 + 2032] = 0\n 14678: u64 [a0 + 2024] = 0\n 14682: a0 = 0x8c379a000000000\n 14692: a1 = s1 + 0x18c0\n 14696: u64 [a2] = a0\n 14698: a0 = a3\n 14700: u64 [s1 + 0x158] = a3\n 14704: u64 [s1 + 0x150] = a4\n 14708: u64 [s1 + 0x148] = t0\n 14712: u64 [s1 + 0x140] = a5\n 14716: ra = 580, jump @9\n      : @532 [@dyn 290] (gas: 6)\n 14722: a5 = s1 + 0x100\n 14726: a1 = u64 [a5 + 0x58]\n 14729: a0 = u64 [a5 + 0x48]\n 14732: a3 = u64 [a5 + 0x40]\n 14735: a3 = a3 | a0\n 14738: t0 = 582, jump @1111\n      : @533 [@dyn 291] (gas: 1)\n 14744: jump @535 if a0 != 0\n      : @534 (gas: 1)\n 14747: jump @848\n      : @535 (gas: 11)\n 14750: i32 a0 = a1 + 0x4\n 14753: a2 = s1 + 0x10d8\n 14757: u64 [a2 + 2016] = 0\n 14761: u64 [a2 + 2008] = 0\n 14765: u64 [a2 + 2000] = 0\n 14769: a5 = 0x20\n 14772: a1 = s1 + 0x18a0\n 14776: u64 [a2 + 0x7c8] = a5\n 14780: u64 [s1 + 0x148] = a3\n 14784: u64 [s1 + 0x140] = a4\n 14788: ra = 584, jump @9\n      : @536 [@dyn 292] (gas: 1)\n 14794: t0 = 586, jump @1140\n      : @537 [@dyn 293] (gas: 1)\n 14800: jump @539 if a0 != 0\n      : @538 (gas: 1)\n 14803: jump @848\n      : @539 (gas: 8)\n 14806: i32 a0 = a1 + 0x24\n 14809: a2 = s1 + 0x10d8\n 14813: u64 [a2 + 1984] = 0\n 14817: u64 [a2 + 1976] = 0\n 14821: u64 [a2 + 1960] = 0x20\n 14826: a1 = s1 + 0x1880\n 14830: u64 [a2 + 1968] = 0\n 14834: ra = 588, jump @9\n      : @540 [@dyn 294] (gas: 1)\n 14840: t0 = 590, jump @1113\n      : @541 [@dyn 295] (gas: 1)\n 14846: jump @543 if a0 != 0\n      : @542 (gas: 1)\n 14849: jump @848\n      : @543 (gas: 14)\n 14852: i32 a0 = a3 + 0x44\n 14855: a1 = u64 [0x20078]\n 14860: a4 = s1 + 0x10d8\n 14864: a5 = a4 + 0x700\n 14868: u64 [a5 + 0xa0] = a1\n 14872: a1 = u64 [0x20080]\n 14877: a2 = u64 [0x20088]\n 14882: a3 = u64 [0x20090]\n 14887: u64 [a5 + 0x98] = a1\n 14891: u64 [a5 + 0x90] = a2\n 14895: a1 = s1 + 0x1860\n 14899: u64 [a5 + 0x88] = a3\n 14903: ra = 0x408\n 14907: jump @9\n      : @544 (gas: 4)\n 14910: a0 = s1 + 0x7ff\n 14914: a0 = a0 + 0x641\n 14918: a1 = 0x40\n 14921: ra = 592, jump @7\n      : @545 [@dyn 296] (gas: 15)\n 14927: a2 = s1 + 0x7ff\n 14931: a2 = a2 + 0xd9\n 14935: t0 = u64 [a2 + 0x580]\n 14939: a1 = a2 + 0x500\n 14943: a5 = u64 [a1 + 0x78]\n 14946: a4 = u64 [a1 + 0x70]\n 14949: a0 = u64 [a1 + 0x68]\n 14952: a3 = a4 | t0\n 14955: a1 = a0 | a5\n 14958: a1 = a1 | a3\n 14961: a1 = a1 >> 0x20\n 14964: a3 = a3 | a5\n 14967: a3 = a3 << 0x20\n 14970: a1 = a1 | a3\n 14973: jump @547 if a1 == 0\n      : @546 (gas: 1)\n 14976: jump @848\n      : @547 (gas: 12)\n 14979: u64 [a2 + 1368] = 0\n 14983: u64 [a2 + 1360] = 0\n 14987: u64 [a2 + 1352] = 0\n 14991: a3 = 0x8c379a000000000\n 15001: a1 = s1 + 0x7ff\n 15005: a1 = a1 + 0x621\n 15009: u64 [a2 + 0x560] = a3\n 15013: u64 [s1 + 0x158] = a0\n 15017: u64 [s1 + 0x150] = a4\n 15021: u64 [s1 + 0x140] = t0\n 15025: u64 [s1 + 0x148] = a5\n 15029: ra = 594, jump @9\n      : @548 [@dyn 297] (gas: 6)\n 15035: a5 = s1 + 0x100\n 15039: a1 = u64 [a5 + 0x58]\n 15042: a0 = u64 [a5 + 0x48]\n 15045: a3 = u64 [a5 + 0x40]\n 15048: a3 = a3 | a0\n 15051: t0 = 596, jump @1111\n      : @549 [@dyn 298] (gas: 1)\n 15057: jump @551 if a0 != 0\n      : @550 (gas: 1)\n 15060: jump @848\n      : @551 (gas: 12)\n 15063: i32 a0 = a1 + 0x4\n 15066: a2 = s1 + 0x7ff\n 15070: a2 = a2 + 0xd9\n 15074: u64 [a2 + 1344] = 0\n 15078: u64 [a2 + 1336] = 0\n 15082: u64 [a2 + 1320] = 0x20\n 15087: a1 = s1 + 0x7ff\n 15091: a1 = a1 + 0x601\n 15095: u64 [a2 + 1328] = 0\n 15099: u64 [s1 + 0x148] = a3\n 15103: u64 [s1 + 0x140] = a4\n 15107: ra = 598, jump @9\n      : @552 [@dyn 299] (gas: 1)\n 15113: t0 = 600, jump @1116\n      : @553 [@dyn 300] (gas: 1)\n 15119: jump @555 if a0 != 0\n      : @554 (gas: 1)\n 15122: jump @848\n      : @555 (gas: 10)\n 15125: i32 a0 = a1 + 0x24\n 15128: a3 = s1 + 0x7ff\n 15132: a3 = a3 + 0xd9\n 15136: u64 [a3 + 1312] = 0\n 15140: u64 [a3 + 1304] = 0\n 15144: u64 [a3 + 1288] = 0x16\n 15149: a1 = s1 + 0x7ff\n 15153: a1 = a1 + 0x5e1\n 15157: u64 [a3 + 1296] = 0\n 15161: ra = 602, jump @9\n      : @556 [@dyn 301] (gas: 1)\n 15167: t0 = 604, jump @1113\n      : @557 [@dyn 302] (gas: 1)\n 15173: jump @559 if a0 != 0\n      : @558 (gas: 1)\n 15176: jump @848\n      : @559 (gas: 14)\n 15179: i32 a0 = a3 + 0x44\n 15182: a1 = u64 [0x200d0]\n 15187: a2 = u64 [0x200d8]\n 15192: a3 = u64 [0x200e0]\n 15197: a4 = s1 + 0x7ff\n 15201: a4 = a4 + 0xd9\n 15205: u64 [a4 + 0x500] = a1\n 15209: u64 [a4 + 0x4f8] = a2\n 15213: u64 [a4 + 0x4f0] = a3\n 15217: a1 = s1 + 0x7ff\n 15221: a1 = a1 + 0x5c1\n 15225: u64 [a4 + 1256] = 0\n 15229: ra = 0x408\n 15233: jump @9\n      : @560 (gas: 4)\n 15236: a0 = s1 + 0x7ff\n 15240: a0 = a0 + 0x441\n 15244: a1 = u64 [s1 + 0xd0]\n 15248: ra = 606, jump @11\n      : @561 [@dyn 303] (gas: 8)\n 15254: a0 = s1 + 0x7ff\n 15258: a0 = a0 + 0xd9\n 15262: a2 = u32 [a0 + 0x378]\n 15266: a1 = u64 [a0 + 0x368]\n 15270: a3 = u64 [a0 + 0x370]\n 15274: a0 = a1 | a2\n 15277: a0 = a0 | a3\n 15280: jump @629 if a0 != 0\n      : @562 (gas: 3)\n 15284: a0 = s1 + 0x280\n 15288: a1 = 0x40\n 15291: ra = 608, jump @7\n      : @563 [@dyn 304] (gas: 6)\n 15297: a1 = s1 + 0x200\n 15301: a4 = u64 [a1 + 0x98]\n 15305: a5 = u64 [a1 + 0x90]\n 15309: a3 = u64 [a1 + 0x88]\n 15313: a0 = u64 [a1 + 0x80]\n 15317: t0 = 610, jump @1144\n      : @564 [@dyn 305] (gas: 1)\n 15323: jump @566 if a1 == 0\n      : @565 (gas: 1)\n 15326: jump @848\n      : @566 (gas: 7)\n 15329: u64 [s1 + 624] = 0\n 15333: u64 [s1 + 616] = 0\n 15337: u64 [s1 + 608] = 0\n 15341: a2 = 0x8c379a000000000\n 15351: a1 = s1 + 0x260\n 15355: u64 [s1 + 0x278] = a2\n 15359: t0 = 612, jump @1131\n      : @567 [@dyn 306] (gas: 1)\n 15365: ra = 614, jump @9\n      : @568 [@dyn 307] (gas: 6)\n 15371: a5 = s1 + 0x100\n 15375: a1 = u64 [a5 + 0x58]\n 15378: a0 = u64 [a5 + 0x48]\n 15381: a3 = u64 [a5 + 0x40]\n 15384: a3 = a3 | a0\n 15387: t0 = 616, jump @1111\n      : @569 [@dyn 308] (gas: 1)\n 15393: jump @571 if a0 != 0\n      : @570 (gas: 1)\n 15396: jump @848\n      : @571 (gas: 9)\n 15399: i32 a0 = a1 + 0x4\n 15402: u64 [s1 + 600] = 0\n 15406: u64 [s1 + 592] = 0\n 15410: u64 [s1 + 576] = 0x20\n 15415: a1 = s1 + 0x240\n 15419: u64 [s1 + 584] = 0\n 15423: u64 [s1 + 0x148] = a3\n 15427: u64 [s1 + 0x140] = a4\n 15431: ra = 618, jump @9\n      : @572 [@dyn 309] (gas: 1)\n 15437: t0 = 620, jump @1116\n      : @573 [@dyn 310] (gas: 1)\n 15443: jump @575 if a0 != 0\n      : @574 (gas: 1)\n 15446: jump @848\n      : @575 (gas: 7)\n 15449: i32 a0 = a1 + 0x24\n 15452: u64 [s1 + 568] = 0\n 15456: u64 [s1 + 560] = 0\n 15460: u64 [s1 + 544] = 0x1b\n 15465: a1 = s1 + 0x220\n 15469: u64 [s1 + 552] = 0\n 15473: ra = 622, jump @9\n      : @576 [@dyn 311] (gas: 4)\n 15479: a3 = s1 + 0x100\n 15483: a2 = u64 [a3 + 0x58]\n 15486: a0 = 0xffffffbc\n 15496: t0 = 624, jump @1135\n      : @577 [@dyn 312] (gas: 1)\n 15502: jump @579 if a0 != 0\n      : @578 (gas: 1)\n 15505: jump @848\n      : @579 (gas: 13)\n 15508: i32 a0 = a2 + 0x44\n 15511: a1 = u64 [0x20108]\n 15516: a2 = u64 [0x20170]\n 15521: a3 = u64 [0x20178]\n 15526: a4 = s1 + 0x200\n 15530: u64 [a4 + 0x18] = a1\n 15533: u64 [a4 + 0x10] = a2\n 15536: u64 [a4 + 0x8] = a3\n 15539: a2 = 0x6973740000000000\n 15549: a1 = s1 + 0x200\n 15553: u64 [a4] = a2\n 15555: ra = 0x408\n 15559: jump @9\n      : @580 (gas: 38)\n 15562: a0 = u64 [s1 + 0xa0]\n 15566: a1 = u64 [s1 + 0x158]\n 15570: t2 = a1 <u a0\n 15573: a1 = u64 [s1 + 0x88]\n 15577: a5 = u64 [s1 + 0x148]\n 15581: a3 = a5 ^ a1\n 15584: a2 = a5 <u a1\n 15587: a2 = t2 if a3 == 0\n 15590: t0 = u64 [s1 + 0x90]\n 15594: a3 = u64 [s1 + 0x140]\n 15598: t1 = a3 - t0\n 15601: a3 = a3 <u t0\n 15604: ra = u64 [s1 + 0x98]\n 15608: a4 = u64 [s1 + 0x150]\n 15612: a4 = a4 - ra\n 15615: a4 = a4 - a3\n 15618: a3 = t1 <u a2\n 15621: a4 = a4 - a3\n 15624: u64 [s1 + 0x150] = a4\n 15628: t1 = t1 - a2\n 15631: a2 = a5 - a1\n 15634: a2 = a2 - t2\n 15637: a4 = u64 [s1 + 0x158]\n 15641: a4 = a4 - a0\n 15644: a3 = s1 + 0x10d8\n 15648: a5 = a3 + 0x500\n 15652: u64 [a5 + 0xe8] = a0\n 15656: u64 [a5 + 0xc8] = a4\n 15660: u64 [a5 + 0xf0] = a1\n 15664: u64 [a3 + 0x5f8] = t0\n 15668: u64 [a5 + 0xd0] = a2\n 15672: u64 [a3 + 0x600] = ra\n 15676: u64 [a3 + 0x5d8] = t1\n 15680: a0 = s1 + 0x16c0\n 15684: a1 = s1 + 0x16a0\n 15688: a2 = u64 [s1 + 0x150]\n 15692: u64 [a5 + 0xe0] = a2\n 15696: ra = 626, jump @987\n      : @581 [@dyn 313] (gas: 3)\n 15702: a0 = s1 + 0x1680\n 15706: a1 = 0x40\n 15709: ra = 628, jump @7\n      : @582 [@dyn 314] (gas: 14)\n 15715: a2 = s1 + 0x10d8\n 15719: t0 = u64 [a2 + 0x5c0]\n 15723: a1 = a2 + 0x500\n 15727: a5 = u64 [a1 + 0xb8]\n 15731: a4 = u64 [a1 + 0xb0]\n 15735: a0 = u64 [a1 + 0xa8]\n 15739: a3 = a4 | t0\n 15742: a1 = a0 | a5\n 15745: a1 = a1 | a3\n 15748: a1 = a1 >> 0x20\n 15751: a3 = a3 | a5\n 15754: a3 = a3 << 0x20\n 15757: a1 = a1 | a3\n 15760: jump @584 if a1 == 0\n      : @583 (gas: 1)\n 15763: jump @848\n      : @584 (gas: 22)\n 15766: a1 = a0 + 0x20\n 15769: u64 [s1 + 0x150] = a1\n 15773: t1 = a1 <u a0\n 15776: a1 = a4 + t1\n 15779: u64 [s1 + 0x158] = a1\n 15783: a1 = a1 <u a4\n 15786: a1 = t1 if t1 == 0\n 15789: a1 = a1 + a5\n 15792: u64 [s1 + 0x140] = a1\n 15796: a1 = a1 <u a5\n 15799: a1 = a1 + t0\n 15802: u64 [s1 + 0x148] = a1\n 15806: u64 [a2 + 1440] = 0\n 15810: u64 [a2 + 1432] = 0\n 15814: u64 [a2 + 1424] = 0\n 15818: a1 = s1 + 0x1660\n 15822: u64 [a2 + 1416] = 0x20\n 15827: u64 [s1 + 0xf0] = a0\n 15831: u64 [s1 + 0xe8] = a4\n 15835: u64 [s1 + 0xe0] = t0\n 15839: u64 [s1 + 0xd8] = a5\n 15843: ra = 630, jump @9\n      : @585 [@dyn 315] (gas: 3)\n 15849: a0 = s1 + 0x1640\n 15853: a1 = u64 [s1 + 0xa0]\n 15857: ra = 632, jump @7\n      : @586 [@dyn 316] (gas: 13)\n 15863: a5 = s1 + 0x100\n 15867: a0 = u64 [a5 + 0x50]\n 15870: a3 = u64 [a5 + 0x40]\n 15873: a2 = a0 | a3\n 15876: a1 = u64 [a5 + 0x58]\n 15879: a4 = u64 [a5 + 0x48]\n 15882: a1 = a1 | a4\n 15885: a2 = a2 | a1\n 15888: a2 = a2 >> 0x20\n 15891: a1 = a1 | a3\n 15894: a1 = a1 << 0x20\n 15897: a1 = a1 | a2\n 15900: jump @588 if a1 == 0\n      : @587 (gas: 1)\n 15903: jump @848\n      : @588 (gas: 16)\n 15906: a5 = s1 + 0x10d8\n 15910: a4 = u64 [a5 + 0x580]\n 15914: a1 = u64 [a5 + 0x578]\n 15918: a2 = u64 [a5 + 0x570]\n 15922: a3 = u64 [a5 + 0x568]\n 15926: u64 [s1 + 0xf8] = a3\n 15930: u64 [a5 + 0x548] = a3\n 15934: u64 [s1 + 0x100] = a2\n 15938: a3 = a5 + 0x500\n 15942: u64 [a3 + 0x50] = a2\n 15945: u64 [s1 + 0x108] = a1\n 15949: u64 [a3 + 0x58] = a1\n 15952: a1 = s1 + 0x1620\n 15956: u64 [s1 + 0x110] = a4\n 15960: u64 [a3 + 0x60] = a4\n 15963: ra = 634, jump @9\n      : @589 [@dyn 317] (gas: 24)\n 15969: ra = 0\n 15971: a4 = 0\n 15973: t0 = 0\n 15975: t2 = 0\n 15977: a1 = u64 [s1 + 0xf0]\n 15981: a0 = a1 + 0x40\n 15984: a3 = s1 + 0x100\n 15988: u64 [a3 + 0x50] = a0\n 15991: a0 = a0 <u a1\n 15994: a2 = u64 [s1 + 0xe8]\n 15998: a1 = a2 + a0\n 16001: u64 [a3 + 0x48] = a1\n 16004: a1 = a1 <u a2\n 16007: a1 = a0 if a0 == 0\n 16010: a0 = u64 [s1 + 0xd8]\n 16014: a1 = a1 + a0\n 16017: u64 [a3 + 0x40] = a1\n 16020: a0 = a1 <u a0\n 16023: a1 = u64 [s1 + 0xe0]\n 16027: a0 = a0 + a1\n 16030: u64 [a3 + 0x58] = a0\n 16033: a1 = u64 [s1 + 0xb0]\n 16037: t1 = u64 [s1 + 0xa8]\n 16041: fallthrough\n      : @590 (gas: 17)\n 16042: a0 = u64 [s1 + 0xf8]\n 16046: a0 = ra <u a0\n 16049: a2 = u64 [s1 + 0x100]\n 16053: a3 = a4 ^ a2\n 16056: u64 [s1 + 0x138] = a4\n 16060: a2 = a4 <u a2\n 16063: a2 = a0 if a3 == 0\n 16066: a5 = u64 [s1 + 0x108]\n 16070: a0 = t0 <u a5\n 16073: a3 = u64 [s1 + 0x110]\n 16077: a4 = t2 ^ a3\n 16080: a3 = t2 <u a3\n 16083: a3 = a0 if a4 == 0\n 16086: a0 = t0 ^ a5\n 16089: a0 = a0 | a4\n 16092: a3 = a2 if a0 == 0\n 16095: jump @592 if a3 != 0\n      : @591 (gas: 1)\n 16098: jump @846\n      : @592 (gas: 10)\n 16101: a0 = a1 | t1\n 16104: a2 = u64 [s1 + 0xc0]\n 16108: a3 = u64 [s1 + 0xb8]\n 16112: a2 = a2 | a3\n 16115: a0 = a0 | a2\n 16118: a0 = a0 >> 0x20\n 16121: a2 = a2 | t1\n 16124: a2 = a2 << 0x20\n 16127: a0 = a0 | a2\n 16130: jump @594 if a0 == 0\n      : @593 (gas: 1)\n 16133: jump @848\n      : @594 (gas: 7)\n 16136: u64 [s1 + 0x120] = t0\n 16140: u64 [s1 + 0x128] = t2\n 16144: u64 [s1 + 0x130] = ra\n 16148: u64 [s1 + 0xa8] = t1\n 16152: a0 = s1 + 0x1600\n 16156: u64 [s1 + 0xb0] = a1\n 16160: ra = 636, jump @7\n      : @595 [@dyn 318] (gas: 13)\n 16166: a1 = s1 + 0x100\n 16170: a5 = u64 [a1 + 0x50]\n 16173: a2 = u64 [a1 + 0x40]\n 16176: a0 = a5 | a2\n 16179: a3 = u64 [a1 + 0x58]\n 16182: t1 = u64 [s1 + 0x148]\n 16186: a1 = t1 | a3\n 16189: a0 = a0 | a1\n 16192: a0 = a0 >> 0x20\n 16195: a1 = a1 | a2\n 16198: a1 = a1 << 0x20\n 16201: a0 = a0 | a1\n 16204: jump @597 if a0 == 0\n      : @596 (gas: 1)\n 16207: jump @848\n      : @597 (gas: 17)\n 16210: a4 = s1 + 0x10d8\n 16214: u64 [s1 + 0x140] = a2\n 16218: t0 = u64 [a4 + 0x540]\n 16222: a2 = a4 + 0x500\n 16226: a1 = u64 [a2 + 0x38]\n 16229: a0 = u64 [a2 + 0x30]\n 16232: u64 [s1 + 0x158] = a3\n 16236: a3 = u64 [a2 + 0x28]\n 16239: u64 [a2 + 0x8] = a3\n 16242: u64 [a2 + 0x10] = a0\n 16245: u64 [a2 + 0x18] = a1\n 16248: a1 = s1 + 0x15e0\n 16252: u64 [a4 + 0x520] = t0\n 16256: a0 = a5\n 16258: u64 [s1 + 0x150] = a5\n 16262: u64 [s1 + 0x148] = t1\n 16266: ra = 638, jump @9\n      : @598 [@dyn 319] (gas: 50)\n 16272: a1 = u64 [s1 + 0x150]\n 16276: a0 = a1 + 0x20\n 16279: u64 [s1 + 0x118] = a0\n 16283: a2 = a0 <u a1\n 16286: a0 = u64 [s1 + 0x148]\n 16290: t1 = a0 + a2\n 16293: a3 = t1 <u a0\n 16296: a3 = a2 if a2 == 0\n 16299: a0 = u64 [s1 + 0x140]\n 16303: t0 = a0 + a3\n 16306: a3 = t0 <u a0\n 16309: a0 = u64 [s1 + 0x158]\n 16313: a0 = a0 + a3\n 16316: u64 [s1 + 0x158] = a0\n 16320: a0 = u64 [s1 + 0xb0]\n 16324: a3 = a0 + 0x20\n 16327: a4 = a3 <u a0\n 16330: a0 = u64 [s1 + 0xb8]\n 16334: a5 = a0 + a4\n 16337: a0 = a5 <u a0\n 16340: a0 = a4 if a4 == 0\n 16343: a1 = u64 [s1 + 0xa8]\n 16347: a2 = a1 + a0\n 16350: a4 = a2 <u a1\n 16353: a0 = u64 [s1 + 0xc0]\n 16357: a0 = a0 + a4\n 16360: u64 [s1 + 0xc0] = a0\n 16364: ra = u64 [s1 + 0x130]\n 16368: ra = ra + 0x1\n 16371: a4 = ra <u 0x1\n 16374: t2 = u64 [s1 + 0x138]\n 16378: t2 = t2 + a4\n 16381: a4 = ra | t2\n 16384: a4 = a4 <u 0x1\n 16387: a0 = u64 [s1 + 0x120]\n 16391: a4 = a4 + a0\n 16394: a1 = a4 <u a0\n 16397: a0 = u64 [s1 + 0x128]\n 16401: a0 = a0 + a1\n 16404: a1 = u64 [s1 + 0x118]\n 16408: u64 [s1 + 0x150] = a1\n 16412: u64 [s1 + 0x148] = t1\n 16416: u64 [s1 + 0x140] = t0\n 16420: a1 = a3\n 16422: u64 [s1 + 0xb8] = a5\n 16426: t1 = a2\n 16428: t0 = a4\n 16430: a4 = t2\n 16432: t2 = a0\n 16434: jump @590\n      : @599 (gas: 9)\n 16437: a0 = 0x30200\n 16442: u64 [s1 + 0xf8] = a0\n 16446: i32 a0 = a0 + 0\n 16448: u64 [s1 + 0xe8] = a0\n 16452: ra = 0x280\n 16456: ecalli 5 // 'caller'\n 16458: a2 = u64 [s1 + 0xf8]\n 16462: t0 = 0x282\n 16466: jump @1112\n      : @600 [@dyn 320] (gas: 2)\n 16469: a2 = u64 [s1 + 0xf8]\n 16473: t0 = 642, jump @1112\n      : @601 [@dyn 321] (gas: 8)\n 16479: u64 [a2 + 1696] = 0\n 16483: a4 = a2 + 0x600\n 16487: u64 [a4 + 0x98] = a1\n 16491: u64 [a4 + 0x90] = a0\n 16495: a1 = s1 + 0x1f60\n 16499: u64 [a4 + 0x88] = a3\n 16503: a0 = 0\n 16505: ra = 644, jump @9\n      : @602 [@dyn 322] (gas: 8)\n 16511: a2 = s1 + 0x18d8\n 16515: u64 [a2 + 1664] = 0\n 16519: u64 [a2 + 1656] = 0\n 16523: u64 [a2 + 1640] = 0x1\n 16528: a0 = 0x20\n 16531: a1 = s1 + 0x1f40\n 16535: u64 [a2 + 1648] = 0\n 16539: ra = 646, jump @9\n      : @603 [@dyn 323] (gas: 3)\n 16545: a1 = 0x40\n 16548: a0 = 0\n 16550: ra = 648, jump @20\n      : @604 [@dyn 324] (gas: 4)\n 16556: a1 = sp + 0xffffffffffffffe0\n 16559: a1 = a1 & 0xffffffffffffffe0\n 16562: u64 [s1 + 0x100] = a1\n 16566: t0 = 650, jump @1117\n      : @605 [@dyn 325] (gas: 5)\n 16572: ra = 0x28c\n 16576: ecalli 9 // 'hash_keccak_256'\n 16578: a3 = u64 [s1 + 0x100]\n 16582: t0 = 0x28e\n 16586: jump @1110\n      : @606 [@dyn 326] (gas: 2)\n 16589: a3 = u64 [s1 + 0x100]\n 16593: t0 = 654, jump @1110\n      : @607 [@dyn 327] (gas: 8)\n 16599: a5 = a4 + 0x500\n 16603: u64 [a5 + 0x20] = a3\n 16606: u64 [a5 + 0x18] = a2\n 16609: u64 [a5 + 0x10] = a1\n 16612: u64 [a5 + 0x8] = a0\n 16615: a0 = s1 + 0x1f20\n 16619: a1 = s1 + 0x2de0\n 16623: ra = 656, jump @11\n      : @608 [@dyn 328] (gas: 22)\n 16629: a3 = s1 + 0x18d8\n 16633: a4 = a3 + 0x600\n 16637: a0 = u64 [a4 + 0x50]\n 16640: a1 = u64 [a4 + 0x48]\n 16643: a2 = u64 [a4 + 0x58]\n 16646: a3 = u64 [a4 + 0x60]\n 16649: a5 = u64 [s1 + 0x130]\n 16653: a4 = a0 ^ a5\n 16656: a0 = a0 <u a5\n 16659: a5 = u64 [s1 + 0x128]\n 16663: a1 = a1 <u a5\n 16666: a1 = a0 if a4 != 0\n 16669: a4 = u64 [s1 + 0x140]\n 16673: a0 = a3 ^ a4\n 16676: a3 = a3 <u a4\n 16679: a5 = u64 [s1 + 0x138]\n 16683: a4 = a2 <u a5\n 16686: a4 = a3 if a0 != 0\n 16689: a2 = a2 ^ a5\n 16692: a0 = a0 | a2\n 16695: a1 = a4 if a0 != 0\n 16698: jump @677 if a1 == 0\n      : @609 (gas: 3)\n 16702: a0 = s1 + 0x19a0\n 16706: a1 = 0x40\n 16709: ra = 658, jump @7\n      : @610 [@dyn 329] (gas: 13)\n 16715: a2 = s1 + 0x18d8\n 16719: t0 = u64 [a2 + 0xe0]\n 16723: a5 = u64 [a2 + 0xd8]\n 16727: a4 = u64 [a2 + 0xd0]\n 16731: a0 = u64 [a2 + 0xc8]\n 16735: a3 = a4 | t0\n 16738: a1 = a0 | a5\n 16741: a1 = a1 | a3\n 16744: a1 = a1 >> 0x20\n 16747: a3 = a3 | a5\n 16750: a3 = a3 << 0x20\n 16753: a1 = a1 | a3\n 16756: jump @612 if a1 == 0\n      : @611 (gas: 1)\n 16759: jump @848\n      : @612 (gas: 11)\n 16762: u64 [a2 + 184] = 0\n 16766: u64 [a2 + 176] = 0\n 16770: u64 [a2 + 168] = 0\n 16774: a3 = 0x8c379a000000000\n 16784: a1 = s1 + 0x1980\n 16788: u64 [a2 + 0xc0] = a3\n 16792: u64 [s1 + 0x158] = a0\n 16796: u64 [s1 + 0x150] = a4\n 16800: u64 [s1 + 0x140] = t0\n 16804: u64 [s1 + 0x148] = a5\n 16808: ra = 660, jump @9\n      : @613 [@dyn 330] (gas: 6)\n 16814: a5 = s1 + 0x100\n 16818: a1 = u64 [a5 + 0x58]\n 16821: a0 = u64 [a5 + 0x48]\n 16824: a3 = u64 [a5 + 0x40]\n 16827: a3 = a3 | a0\n 16830: t0 = 662, jump @1111\n      : @614 [@dyn 331] (gas: 1)\n 16836: jump @616 if a0 != 0\n      : @615 (gas: 1)\n 16839: jump @848\n      : @616 (gas: 11)\n 16842: i32 a0 = a1 + 0x4\n 16845: a2 = s1 + 0x18d8\n 16849: a5 = 0\n 16851: u64 [a2 + 160] = 0\n 16855: u64 [a2 + 152] = 0\n 16859: u64 [a2 + 136] = 0x20\n 16864: a1 = s1 + 0x1960\n 16868: u64 [a2 + 144] = 0\n 16872: u64 [s1 + 0x148] = a3\n 16876: u64 [s1 + 0x140] = a4\n 16880: ra = 664, jump @9\n      : @617 [@dyn 332] (gas: 10)\n 16886: a3 = s1 + 0x100\n 16890: a1 = u64 [a3 + 0x58]\n 16893: a0 = u64 [a3 + 0x40]\n 16896: a0 = a0 + 0xffffffffffffffdc\n 16899: a0 = a1 <u a0\n 16902: a2 = u64 [a3 + 0x50]\n 16905: a0 = 0 if a2 != 0\n 16907: a2 = u64 [a3 + 0x48]\n 16910: a0 = 0 if a2 != 0\n 16912: jump @619 if a0 != 0\n      : @618 (gas: 1)\n 16915: jump @848\n      : @619 (gas: 8)\n 16918: i32 a0 = a1 + 0x24\n 16921: a2 = s1 + 0x18d8\n 16925: u64 [a2 + 128] = 0\n 16929: u64 [a2 + 120] = 0\n 16932: u64 [a2 + 104] = 0x26\n 16936: a1 = s1 + 0x1940\n 16940: u64 [a2 + 112] = 0\n 16943: ra = 666, jump @9\n      : @620 [@dyn 333] (gas: 10)\n 16949: a0 = s1 + 0x100\n 16953: a3 = u64 [a0 + 0x48]\n 16956: a4 = u64 [a0 + 0x50]\n 16959: a1 = u64 [a0 + 0x58]\n 16962: a2 = 0x100000000\n 16972: a0 = 0xffffffbc\n 16982: a0 = a1 <u a0\n 16985: a0 = 0 if a4 != 0\n 16987: a0 = 0 if a3 != 0\n 16989: jump @622 if a0 != 0\n      : @621 (gas: 1)\n 16992: jump @848\n      : @622 (gas: 13)\n 16995: i32 a0 = a1 + 0x44\n 16998: a1 = u64 [0x20050]\n 17003: u64 [s1 + 0x140] = a2\n 17007: a5 = s1 + 0x18d8\n 17011: u64 [a5 + 0x60] = a1\n 17014: a1 = u64 [0x20058]\n 17019: a2 = u64 [0x20060]\n 17024: a3 = u64 [0x20068]\n 17029: u64 [a5 + 0x58] = a1\n 17032: u64 [a5 + 0x50] = a2\n 17035: a1 = s1 + 0x1920\n 17039: u64 [a5 + 0x48] = a3\n 17042: ra = 668, jump @9\n      : @623 [@dyn 334] (gas: 5)\n 17048: a3 = s1 + 0x100\n 17052: a2 = u64 [a3 + 0x58]\n 17055: a0 = u64 [a3 + 0x40]\n 17058: a0 = a0 + 0xffffffffffffff9c\n 17061: t0 = 670, jump @1135\n      : @624 [@dyn 335] (gas: 1)\n 17067: jump @626 if a0 != 0\n      : @625 (gas: 1)\n 17070: jump @848\n      : @626 (gas: 9)\n 17073: i32 a0 = a2 + 0x64\n 17076: a1 = u64 [0x20070]\n 17081: a3 = s1 + 0x18d8\n 17085: u64 [a3 + 56] = 0\n 17088: u64 [a3 + 48] = 0\n 17091: u64 [a3 + 0x40] = a1\n 17094: a1 = s1 + 0x1900\n 17098: u64 [a3 + 40] = 0\n 17101: ra = 672, jump @9\n      : @627 [@dyn 336] (gas: 3)\n 17107: a1 = 0x84\n 17111: a0 = u64 [s1 + 0x158]\n 17115: ra = 674, jump @20\n      : @628 [@dyn 337] (gas: 6)\n 17121: i32 a1 = a0 + 0\n 17123: a0 = 0x1\n 17126: a2 = 0x84\n 17130: ra = 0x2a4\n 17134: ecalli 14 // 'seal_return'\n 17136: fallthrough\n      : @629 [@dyn 338] (gas: 9)\n 17137: u64 [s1 + 0x60] = a3\n 17140: u64 [s1 + 0x68] = a2\n 17143: u64 [s1 + 0x70] = a1\n 17146: a0 = sp + 0xffffffffffffffe0\n 17149: a1 = a0 & 0xffffffffffffffe0\n 17152: sp = a1\n 17154: a2 = u64 [s1 + 0x90]\n 17158: a0 = a2 + 0x4\n 17161: t0 = 678, jump @1137\n      : @630 [@dyn 339] (gas: 8)\n 17167: u64 [a1 + 0x8] = a2\n 17170: u64 [a1] = a0\n 17172: u64 [a1 + 0x10] = a3\n 17175: u64 [a1 + 0x18] = a4\n 17178: a0 = s1 + 0x7ff\n 17182: a0 = a0 + 0x421\n 17186: u64 [s1 + 0x158] = a1\n 17190: ra = 680, jump @11\n      : @631 [@dyn 340] (gas: 11)\n 17196: a3 = s1 + 0x7ff\n 17200: a3 = a3 + 0xd9\n 17204: t0 = u64 [a3 + 0x360]\n 17208: a0 = a3 + 0x300\n 17212: a5 = u64 [a0 + 0x58]\n 17215: a4 = u64 [a0 + 0x50]\n 17218: a2 = u64 [a0 + 0x48]\n 17221: a0 = a4 | t0\n 17224: a1 = a2 | a5\n 17227: a0 = a0 | a1\n 17230: jump @652 if a0 == 0\n      : @632 (gas: 26)\n 17234: a1 = u64 [s1 + 0x90]\n 17238: a0 = a1 + 0x3\n 17241: a1 = a0 <u a1\n 17244: a3 = u64 [s1 + 0x98]\n 17248: u64 [s1 + 0x150] = a2\n 17252: a2 = a3 + a1\n 17255: a3 = a2 <u a3\n 17258: a3 = a1 if a1 == 0\n 17261: a1 = u64 [s1 + 0xa8]\n 17265: a3 = a3 + a1\n 17268: a1 = a3 <u a1\n 17271: u64 [s1 + 0x148] = a4\n 17275: a4 = u64 [s1 + 0xa0]\n 17279: a1 = a1 + a4\n 17282: a4 = s1 + 0x20d8\n 17286: u64 [a4 + 0x768] = a0\n 17290: a0 = a4 + 0x700\n 17294: u64 [a0 + 0x70] = a2\n 17297: u64 [a0 + 0x78] = a3\n 17300: u64 [a0 + 0x80] = a1\n 17304: a0 = s1 + 0x7ff\n 17308: a0 = a0 + 0x401\n 17312: a1 = s1 + 0x2840\n 17316: u64 [s1 + 0x140] = a5\n 17320: u64 [s1 + 0x138] = t0\n 17324: ra = 682, jump @11\n      : @633 [@dyn 341] (gas: 47)\n 17330: a0 = s1 + 0x7ff\n 17334: a0 = a0 + 0xd9\n 17338: a0 = u64 [a0 + 0x328]\n 17342: a1 = s1 + 0x7ff\n 17346: a1 = a1 + 0xd9\n 17350: a1 = u64 [a1 + 0x330]\n 17354: a2 = s1 + 0x7ff\n 17358: a2 = a2 + 0xd9\n 17362: a2 = u64 [a2 + 0x338]\n 17366: a3 = s1 + 0x7ff\n 17370: a3 = a3 + 0xd9\n 17374: a3 = u64 [a3 + 0x340]\n 17378: a4 = s1 + 0x7ff\n 17382: a4 = a4 + 0xd9\n 17386: u64 [a4 + 0x2e0] = a3\n 17390: a3 = s1 + 0x7ff\n 17394: a3 = a3 + 0xd9\n 17398: u64 [a3 + 0x2d8] = a2\n 17402: a2 = s1 + 0x7ff\n 17406: a2 = a2 + 0xd9\n 17410: u64 [a2 + 0x2d0] = a1\n 17414: a1 = s1 + 0x7ff\n 17418: a1 = a1 + 0xd9\n 17422: u64 [a1 + 0x2c8] = a0\n 17426: a0 = s1 + 0x7ff\n 17430: a0 = a0 + 0xd9\n 17434: a1 = u64 [s1 + 0x138]\n 17438: u64 [a0 + 0x300] = a1\n 17442: a0 = s1 + 0x7ff\n 17446: a0 = a0 + 0xd9\n 17450: a1 = u64 [s1 + 0x140]\n 17454: u64 [a0 + 0x2f8] = a1\n 17458: a0 = s1 + 0x7ff\n 17462: a0 = a0 + 0xd9\n 17466: a1 = u64 [s1 + 0x148]\n 17470: u64 [a0 + 0x2f0] = a1\n 17474: a0 = s1 + 0x7ff\n 17478: a0 = a0 + 0x3e1\n 17482: a1 = s1 + 0x7ff\n 17486: a1 = a1 + 0x3c1\n 17490: a2 = s1 + 0x7ff\n 17494: a2 = a2 + 0x3a1\n 17498: a3 = s1 + 0x7ff\n 17502: a3 = a3 + 0xd9\n 17506: a4 = u64 [s1 + 0x150]\n 17510: u64 [a3 + 0x2e8] = a4\n 17514: ra = 684, jump @1028\n      : @634 [@dyn 342] (gas: 20)\n 17520: a0 = s1 + 0x7ff\n 17524: a0 = a0 + 0xd9\n 17528: a0 = u64 [a0 + 0x308]\n 17532: u64 [s1 + 0x150] = a0\n 17536: a0 = s1 + 0x7ff\n 17540: a0 = a0 + 0xd9\n 17544: a0 = u64 [a0 + 0x310]\n 17548: u64 [s1 + 0x148] = a0\n 17552: a0 = s1 + 0x7ff\n 17556: a0 = a0 + 0xd9\n 17560: a0 = u64 [a0 + 0x318]\n 17564: u64 [s1 + 0x140] = a0\n 17568: a0 = s1 + 0x7ff\n 17572: a0 = a0 + 0xd9\n 17576: a0 = u64 [a0 + 0x320]\n 17580: u64 [s1 + 0x138] = a0\n 17584: a0 = s1 + 0x3000\n 17588: i32 a0 = a0 + 0xfffffffffffff860\n 17592: ecalli 10 // 'now'\n 17594: fallthrough\n      : @635 (gas: 24)\n 17595: a3 = s1 + 0x20d8\n 17599: a1 = a3 + 0x700\n 17603: a0 = u64 [a1 + 0xa0]\n 17607: t0 = u64 [a3 + 0x788]\n 17611: a2 = u64 [a1 + 0x98]\n 17615: a3 = u64 [a1 + 0x90]\n 17619: a1 = u64 [s1 + 0x138]\n 17623: a4 = a0 ^ a1\n 17626: a1 = a0 <u a1\n 17629: a0 = u64 [s1 + 0x140]\n 17633: a5 = a2 <u a0\n 17636: a5 = a1 if a4 != 0\n 17639: a1 = u64 [s1 + 0x148]\n 17643: t1 = a3 ^ a1\n 17646: a3 = a3 <u a1\n 17649: a1 = u64 [s1 + 0x150]\n 17653: a1 = t0 <u a1\n 17656: a1 = a3 if t1 != 0\n 17659: a3 = s1 + 0x7ff\n 17663: a3 = a3 + 0xd9\n 17667: a0 = a0 ^ a2\n 17670: a0 = a0 | a4\n 17673: a1 = a5 if a0 != 0\n 17676: jump @652 if a1 == 0\n      : @636 (gas: 4)\n 17680: a0 = s1 + 0x7ff\n 17684: a0 = a0 + 0x381\n 17688: a1 = 0x40\n 17691: ra = 686, jump @7\n      : @637 [@dyn 343] (gas: 15)\n 17697: a2 = s1 + 0x7ff\n 17701: a2 = a2 + 0xd9\n 17705: t0 = u64 [a2 + 0x2c0]\n 17709: a1 = a2 + 0x200\n 17713: a5 = u64 [a1 + 0xb8]\n 17717: a4 = u64 [a1 + 0xb0]\n 17721: a0 = u64 [a1 + 0xa8]\n 17725: a3 = a4 | t0\n 17728: a1 = a0 | a5\n 17731: a1 = a1 | a3\n 17734: a1 = a1 >> 0x20\n 17737: a3 = a3 | a5\n 17740: a3 = a3 << 0x20\n 17743: a1 = a1 | a3\n 17746: jump @639 if a1 == 0\n      : @638 (gas: 1)\n 17749: jump @848\n      : @639 (gas: 12)\n 17752: u64 [a2 + 664] = 0\n 17756: u64 [a2 + 656] = 0\n 17760: u64 [a2 + 648] = 0\n 17764: a3 = 0x8c379a000000000\n 17774: a1 = s1 + 0x7ff\n 17778: a1 = a1 + 0x361\n 17782: u64 [a2 + 0x2a0] = a3\n 17786: u64 [s1 + 0x158] = a0\n 17790: u64 [s1 + 0x150] = a4\n 17794: u64 [s1 + 0x140] = t0\n 17798: u64 [s1 + 0x148] = a5\n 17802: ra = 688, jump @9\n      : @640 [@dyn 344] (gas: 6)\n 17808: a5 = s1 + 0x100\n 17812: a1 = u64 [a5 + 0x58]\n 17815: a0 = u64 [a5 + 0x48]\n 17818: a3 = u64 [a5 + 0x40]\n 17821: a3 = a3 | a0\n 17824: t0 = 690, jump @1111\n      : @641 [@dyn 345] (gas: 1)\n 17830: jump @643 if a0 != 0\n      : @642 (gas: 1)\n 17833: jump @848\n      : @643 (gas: 12)\n 17836: i32 a0 = a1 + 0x4\n 17839: a2 = s1 + 0x7ff\n 17843: a2 = a2 + 0xd9\n 17847: u64 [a2 + 640] = 0\n 17851: u64 [a2 + 632] = 0\n 17855: u64 [a2 + 616] = 0x20\n 17860: a1 = s1 + 0x7ff\n 17864: a1 = a1 + 0x341\n 17868: u64 [a2 + 624] = 0\n 17872: u64 [s1 + 0x148] = a3\n 17876: u64 [s1 + 0x140] = a4\n 17880: ra = 692, jump @9\n      : @644 [@dyn 346] (gas: 1)\n 17886: t0 = 694, jump @1116\n      : @645 [@dyn 347] (gas: 1)\n 17892: jump @647 if a0 != 0\n      : @646 (gas: 1)\n 17895: jump @848\n      : @647 (gas: 10)\n 17898: i32 a0 = a1 + 0x24\n 17901: a3 = s1 + 0x7ff\n 17905: a3 = a3 + 0xd9\n 17909: u64 [a3 + 608] = 0\n 17913: u64 [a3 + 600] = 0\n 17917: u64 [a3 + 584] = 0x13\n 17922: a1 = s1 + 0x7ff\n 17926: a1 = a1 + 0x321\n 17930: u64 [a3 + 592] = 0\n 17934: ra = 696, jump @9\n      : @648 [@dyn 348] (gas: 1)\n 17940: t0 = 698, jump @1113\n      : @649 [@dyn 349] (gas: 1)\n 17946: jump @651 if a0 != 0\n      : @650 (gas: 1)\n 17949: jump @848\n      : @651 (gas: 15)\n 17952: i32 a0 = a3 + 0x44\n 17955: a1 = u64 [0x20120]\n 17960: a2 = u64 [0x20128]\n 17965: a4 = s1 + 0x7ff\n 17969: a4 = a4 + 0xd9\n 17973: a3 = a4 + 0x200\n 17977: u64 [a3 + 0x40] = a1\n 17980: u64 [a3 + 0x38] = a2\n 17983: a1 = 0x7965740000000000\n 17993: u64 [a3 + 0x30] = a1\n 17996: a1 = s1 + 0x7ff\n 18000: a1 = a1 + 0x301\n 18004: u64 [a4 + 552] = 0\n 18008: ra = 0x408\n 18012: jump @9\n      : @652 (gas: 12)\n 18015: u64 [a3 + 544] = 0\n 18019: a0 = u64 [s1 + 0x70]\n 18022: a2 = a3 + 0x200\n 18026: u64 [a2 + 0x8] = a0\n 18029: a0 = u64 [s1 + 0x60]\n 18032: u64 [a2 + 0x10] = a0\n 18035: a1 = s1 + 0x7ff\n 18039: a1 = a1 + 0x2e1\n 18043: a0 = u64 [s1 + 0x68]\n 18046: u64 [a2 + 0x18] = a0\n 18049: a0 = 0\n 18051: ra = 700, jump @9\n      : @653 [@dyn 350] (gas: 18)\n 18057: a0 = sp + 0xffffffffffffffe0\n 18060: a1 = a0 & 0xffffffffffffffe0\n 18063: sp = a1\n 18065: u64 [a1 + 24] = 0\n 18068: u64 [a1 + 16] = 0\n 18071: u64 [a1 + 8] = 0\n 18074: u64 [s1 + 0x18] = a1\n 18077: u64 [a1 + 0] = 0x1\n 18080: a2 = s1 + 0x7ff\n 18084: a2 = a2 + 0xd9\n 18088: u64 [a2 + 512] = 0\n 18092: u64 [a2 + 504] = 0\n 18096: u64 [a2 + 488] = 0x1\n 18101: a0 = 0x20\n 18104: a1 = s1 + 0x7ff\n 18108: a1 = a1 + 0x2c1\n 18112: u64 [a2 + 496] = 0\n 18116: ra = 702, jump @9\n      : @654 [@dyn 351] (gas: 3)\n 18122: a1 = 0x40\n 18125: a0 = 0\n 18127: ra = 704, jump @20\n      : @655 [@dyn 352] (gas: 4)\n 18133: a1 = sp + 0xffffffffffffffe0\n 18136: a1 = a1 & 0xffffffffffffffe0\n 18139: u64 [s1 + 0x150] = a1\n 18143: t0 = 706, jump @1117\n      : @656 [@dyn 353] (gas: 5)\n 18149: ra = 0x2c4\n 18153: ecalli 9 // 'hash_keccak_256'\n 18155: a3 = u64 [s1 + 0x150]\n 18159: t0 = 0x2c6\n 18163: jump @1130\n      : @657 [@dyn 354] (gas: 2)\n 18166: a3 = u64 [s1 + 0x150]\n 18170: t0 = 710, jump @1130\n      : @658 [@dyn 355] (gas: 10)\n 18176: a4 = s1 + 0x20d8\n 18180: a5 = a4 + 0x700\n 18184: u64 [a5 + 0xc0] = a3\n 18188: u64 [a5 + 0xb8] = a2\n 18192: u64 [a5 + 0xb0] = a1\n 18196: u64 [a5 + 0xa8] = a0\n 18200: a0 = s1 + 0x7ff\n 18204: a0 = a0 + 0x2a1\n 18208: a1 = s1 + 0x2880\n 18212: ra = 712, jump @11\n      : @659 [@dyn 356] (gas: 17)\n 18218: a0 = s1 + 0x7ff\n 18222: a0 = a0 + 0xd9\n 18226: a2 = a0 + 0x100\n 18230: a1 = u64 [a2 + 0xc8]\n 18234: u64 [s1 + 0x148] = a1\n 18238: a1 = u64 [a2 + 0xd0]\n 18242: u64 [s1 + 0x138] = a1\n 18246: a1 = u64 [a2 + 0xd8]\n 18250: u64 [s1 + 0x150] = a1\n 18254: a1 = u64 [a2 + 0xe0]\n 18258: u64 [s1 + 0x140] = a1\n 18262: a0 = sp + 0xffffffffffffffe0\n 18265: a1 = a0 & 0xffffffffffffffe0\n 18268: sp = a1\n 18270: a2 = u64 [s1 + 0x90]\n 18274: a0 = a2 + 0x2\n 18277: t0 = 714, jump @1137\n      : @660 [@dyn 357] (gas: 8)\n 18283: u64 [a1 + 0x18] = a4\n 18286: u64 [a1 + 0x10] = a3\n 18289: u64 [a1 + 0x8] = a2\n 18292: u64 [a1] = a0\n 18294: a0 = s1 + 0x7ff\n 18298: a0 = a0 + 0x281\n 18302: u64 [s1 + 0x10] = a1\n 18305: ra = 716, jump @11\n      : @661 [@dyn 358] (gas: 35)\n 18311: a4 = s1 + 0x7ff\n 18315: a4 = a4 + 0xd9\n 18319: a1 = u64 [a4 + 0x1b0]\n 18323: u64 [s1 + 0x48] = a1\n 18326: a3 = u64 [a4 + 0x1c0]\n 18330: u64 [s1 + 0x78] = a3\n 18333: a0 = u64 [a4 + 0x1a8]\n 18337: u64 [s1 + 0x80] = a0\n 18341: a5 = u64 [a4 + 0x1b8]\n 18345: u64 [s1 + 0x40] = a5\n 18348: a2 = u64 [s1 + 0x138]\n 18352: t0 = a2 ^ a1\n 18355: a1 = a2 <u a1\n 18358: a2 = u64 [s1 + 0x148]\n 18362: a2 = a2 <u a0\n 18365: a2 = a1 if t0 != 0\n 18368: a1 = u64 [s1 + 0x140]\n 18372: a0 = a1 ^ a3\n 18375: t0 = a1 <u a3\n 18378: a1 = u64 [s1 + 0x150]\n 18382: a3 = a1 <u a5\n 18385: a3 = t0 if a0 != 0\n 18388: a1 = a1 ^ a5\n 18391: a0 = a0 | a1\n 18394: a2 = a3 if a0 != 0\n 18397: a0 = a2 ^ 0x1\n 18400: u64 [a4 + 416] = 0\n 18404: u64 [a4 + 408] = 0\n 18408: u64 [a4 + 0x188] = a0\n 18412: a0 = s1 + 0x7ff\n 18416: a0 = a0 + 0x261\n 18420: u64 [a4 + 400] = 0\n 18424: ra = 0x2ce\n 18428: t0 = 0x4be\n 18432: jump @1129\n      : @662 [@dyn 359] (gas: 18)\n 18435: a0 = s1 + 0x3000\n 18439: i32 a0 = a0 + 0xfffffffffffff8a0\n 18443: ecalli 10 // 'now'\n 18445: a3 = s1 + 0x20d8\n 18449: a4 = a3 + 0x700\n 18453: a0 = u64 [a4 + 0xe0]\n 18457: a1 = u64 [a4 + 0xd8]\n 18461: a2 = u64 [a4 + 0xd0]\n 18465: a3 = u64 [a4 + 0xc8]\n 18469: a4 = s1 + 0x28d8\n 18473: u64 [a4] = a0\n 18475: a0 = a4 + 0xffffffffffffff00\n 18479: u64 [a0 + 0xf8] = a1\n 18483: u64 [a0 + 0xf0] = a2\n 18487: u64 [a0 + 0xe8] = a3\n 18491: a1 = s1 + 0x28c0\n 18495: a0 = u64 [s1 + 0x158]\n 18499: ra = 720, jump @12\n      : @663 [@dyn 360] (gas: 23)\n 18505: t2 = 0x64\n 18508: a0 = u64 [s1 + 0x80]\n 18512: a1 = a0 mulhu t2\n 18515: a3 = u64 [s1 + 0x48]\n 18518: a2 = a3 * t2\n 18521: a1 = a1 + a2\n 18524: u64 [s1 + 0x58] = a1\n 18527: a1 = a1 <u a2\n 18530: a2 = a3 mulhu t2\n 18533: a1 = a1 + a2\n 18536: a5 = u64 [s1 + 0x40]\n 18539: a2 = a5 * t2\n 18542: ra = a1 + a2\n 18545: a1 = ra <u a1\n 18548: a4 = u64 [s1 + 0x78]\n 18551: a2 = a4 * t2\n 18554: t0 = a5 mulhu t2\n 18557: a2 = a2 + t0\n 18560: a4 = a4 | a3\n 18563: a5 = a5 | a0\n 18566: a4 = a4 | a5\n 18569: t1 = a2 + a1\n 18572: jump @666 if a4 == 0\n      : @664 (gas: 8)\n 18575: a1 = 0 if t1 != 0\n 18577: a2 = a2 <u t0\n 18580: a3 = u64 [s1 + 0x78]\n 18583: a3 = a3 mulhu t2\n 18586: a3 = a3 >u 0\n 18588: a2 = a2 | a3\n 18591: a1 = a1 | a2\n 18594: jump @666 if a1 == 0\n      : @665 (gas: 1)\n 18597: jump @925\n      : @666 (gas: 54)\n 18600: a1 = u64 [s1 + 0x80]\n 18604: a2 = a1 * 0x64\n 18607: u64 [s1 + 0x50] = a2\n 18610: a0 = a2 | ra\n 18613: t2 = u64 [s1 + 0x58]\n 18616: a1 = t2 | t1\n 18619: a0 = a0 | a1\n 18622: a0 = a0 <u 0x1\n 18625: u64 [s1 + 0x158] = a0\n 18629: a0 = clz ra\n 18631: a0 = a0 + 0x40\n 18634: a4 = clz t1\n 18636: a4 = a0 if t1 == 0\n 18639: a0 = clz a2\n 18641: a0 = a0 + 0x40\n 18644: a1 = clz t2\n 18646: a1 = a0 if t2 == 0\n 18649: a0 = a1 + 0x80\n 18653: a2 = ra | t1\n 18656: a4 = a0 if a2 == 0\n 18659: a3 = a0 <u a1\n 18662: a3 = 0 if a2 != 0\n 18664: a5 = a3 >u 0\n 18666: a0 = a4 <u 0xf3\n 18670: a2 = a0 ^ 0x1\n 18673: a5 = a2 if a3 == 0\n 18676: a0 = a5 <u 0x1\n 18679: t0 = a0 + 0xffffffffffffffff\n 18682: a0 = -a5\n 18684: a3 = -a3\n 18686: a2 = a3 - a2\n 18689: a1 = 0xf2 - a4\n 18693: u64 [s1 + 0x148] = a0\n 18697: a3 = a0 >u 0\n 18699: a0 = t0\n 18701: a4 = t0 >u 0\n 18703: a4 = a3 if t0 == 0\n 18706: a3 = a2 >u 0\n 18708: u64 [s1 + 0x150] = a1\n 18712: a1 = a1 <u 0x100\n 18716: a1 = a1 ^ 0x1\n 18719: a1 = a3 if a2 != 0\n 18722: a1 = a4 if a5 != 0\n 18725: a3 = u64 [s1 + 0x158]\n 18729: a1 = a1 | a3\n 18732: u64 [s1 + 0x30] = t1\n 18735: t1 = 0 if a1 != 0\n 18737: u64 [s1 + 0x38] = ra\n 18740: ra = 0 if a1 != 0\n 18742: a4 = t2\n 18744: a4 = 0 if a1 != 0\n 18746: t0 = u64 [s1 + 0x50]\n 18749: t0 = 0 if a1 != 0\n 18751: jump @668 if a1 == 0\n      : @667 (gas: 1)\n 18754: jump @779\n      : @668 (gas: 7)\n 18757: a1 = u64 [s1 + 0x150]\n 18761: a1 = a1 ^ 0xff\n 18765: a5 = u64 [s1 + 0x148]\n 18769: a1 = a1 | a5\n 18772: a3 = a2 | a0\n 18775: a1 = a1 | a3\n 18778: jump @670 if a1 != 0\n      : @669 (gas: 1)\n 18781: jump @779\n      : @670 (gas: 19)\n 18784: a4 = u64 [s1 + 0x150]\n 18788: a3 = a4 + 0x1\n 18791: u64 [s1 + 0x158] = a3\n 18795: a1 = a3 <u 0x1\n 18798: a1 = a1 + a2\n 18801: u64 [s1 + 0x138] = a1\n 18805: a1 = a1 | a3\n 18808: a1 = a1 <u 0x1\n 18811: a1 = a1 + a5\n 18814: u64 [s1 + 0x128] = a1\n 18818: a1 = a1 <u a5\n 18821: a0 = a0 + a1\n 18824: u64 [s1 + 0x130] = a0\n 18828: a1 = 0xff - a4\n 18832: u64 [s1 + 0x140] = a1\n 18836: a2 = 0x80 - a1\n 18840: a0 = u64 [s1 + 0x50]\n 18843: a1 = u64 [s1 + 0x58]\n 18846: ra = 722, jump @1157\n      : @671 [@dyn 361] (gas: 6)\n 18852: u64 [s1 + 0x148] = a0\n 18856: u64 [s1 + 0x118] = a1\n 18860: a0 = u64 [s1 + 0x38]\n 18863: a1 = u64 [s1 + 0x30]\n 18866: a2 = u64 [s1 + 0x140]\n 18870: ra = 724, jump @1162\n      : @672 [@dyn 362] (gas: 9)\n 18876: u64 [s1 + 0x120] = a0\n 18880: a0 = u64 [s1 + 0x118]\n 18884: a0 = a0 | a1\n 18887: u64 [s1 + 0x118] = a0\n 18891: a1 = u64 [s1 + 0x150]\n 18895: a2 = 0x7f - a1\n 18898: a0 = u64 [s1 + 0x50]\n 18901: a1 = u64 [s1 + 0x58]\n 18904: ra = 726, jump @1162\n      : @673 [@dyn 363] (gas: 18)\n 18910: a2 = u64 [s1 + 0x140]\n 18914: a3 = a2 <u 0x80\n 18918: u64 [s1 + 0x150] = a3\n 18922: a4 = u64 [s1 + 0x118]\n 18926: a1 = a4 if a3 != 0\n 18929: a4 = u64 [s1 + 0x30]\n 18932: a1 = a4 if a2 == 0\n 18935: u64 [s1 + 0x110] = a1\n 18939: a1 = u64 [s1 + 0x148]\n 18943: a4 = u64 [s1 + 0x120]\n 18947: a1 = a1 | a4\n 18950: a1 = a0 if a3 == 0\n 18953: a0 = u64 [s1 + 0x38]\n 18956: a1 = a0 if a2 == 0\n 18959: u64 [s1 + 0x148] = a1\n 18963: a0 = u64 [s1 + 0x50]\n 18966: a1 = u64 [s1 + 0x58]\n 18969: ra = 728, jump @1162\n      : @674 [@dyn 364] (gas: 14)\n 18975: a4 = u64 [s1 + 0x128]\n 18979: a5 = u64 [s1 + 0x130]\n 18983: a2 = u64 [s1 + 0x138]\n 18987: a5 = a5 | a2\n 18990: a3 = u64 [s1 + 0x158]\n 18994: a3 = a3 | a4\n 18997: a3 = a3 | a5\n 19000: a4 = s1 + 0x100\n 19004: a2 = u64 [a4 + 0x50]\n 19007: a1 = 0 if a2 == 0\n 19009: u64 [a4 + 0x40] = a1\n 19012: a0 = 0 if a2 == 0\n 19014: u64 [a4 + 0x50] = a0\n 19017: jump @676 if a3 == 0\n      : @675 (gas: 1)\n 19020: jump @772\n      : @676 (gas: 4)\n 19023: a5 = 0\n 19025: u64 [s1 + 248] = 0\n 19029: ra = u64 [s1 + 0x110]\n 19033: jump @778\n      : @677 (gas: 8)\n 19036: a0 = s1 + 0x28d8\n 19040: u64 [a0 + 1344] = 0\n 19044: u64 [a0 + 1336] = 0\n 19048: u64 [a0 + 1328] = 0\n 19052: u64 [a0 + 1320] = 0x3\n 19057: a0 = s1 + 0x1f00\n 19061: a1 = s1 + 0x2e00\n 19065: ra = 730, jump @11\n      : @678 [@dyn 365] (gas: 22)\n 19071: a1 = s1 + 0x18d8\n 19075: a5 = a1 + 0x600\n 19079: a0 = u64 [a5 + 0x28]\n 19082: a4 = u64 [a5 + 0x40]\n 19085: a2 = u64 [a5 + 0x30]\n 19088: a3 = u64 [a5 + 0x38]\n 19091: u64 [s1 + 0xc8] = a0\n 19095: a0 = a0 + 0x1\n 19098: a1 = a0 <u 0x1\n 19101: u64 [s1 + 0xc0] = a2\n 19105: a1 = a1 + a2\n 19108: a2 = a0 | a1\n 19111: a2 = a2 <u 0x1\n 19114: a2 = a2 + a3\n 19117: u64 [s1 + 0xb0] = a3\n 19121: a3 = a2 <u a3\n 19124: u64 [s1 + 0xb8] = a4\n 19128: a3 = a3 + a4\n 19131: a4 = a1 | a3\n 19134: a5 = a0 | a2\n 19137: a4 = a4 | a5\n 19140: jump @680 if a4 != 0\n      : @679 (gas: 1)\n 19143: jump @921\n      : @680 (gas: 13)\n 19146: a4 = s1 + 0x28d8\n 19150: u64 [a4 + 1376] = 0\n 19154: u64 [a4 + 1368] = 0\n 19158: u64 [a4 + 1360] = 0\n 19162: u64 [a4 + 1352] = 0x3\n 19167: a5 = a4 + 0x500\n 19171: u64 [a5 + 0x68] = a0\n 19174: u64 [a5 + 0x70] = a1\n 19177: u64 [a5 + 0x78] = a2\n 19180: u64 [a5 + 0x80] = a3\n 19184: a0 = s1 + 0x2e20\n 19188: a1 = s1 + 0x2e40\n 19192: ra = 732, jump @12\n      : @681 [@dyn 366] (gas: 3)\n 19198: a0 = s1 + 0x1ee0\n 19202: a1 = 0x40\n 19205: ra = 734, jump @7\n      : @682 [@dyn 367] (gas: 19)\n 19211: a0 = s1 + 0x18d8\n 19215: a1 = a0 + 0x600\n 19219: a5 = u64 [a1 + 0x20]\n 19222: a4 = u64 [a1 + 0x18]\n 19225: a3 = u64 [a1 + 0x10]\n 19228: a2 = u64 [a1 + 0x8]\n 19231: a0 = a5 >u 0\n 19233: a1 = a4 >u 0\n 19235: a1 = a0 if a5 != 0\n 19238: a0 = a3 >u 0\n 19240: u64 [s1 + 0x100] = a2\n 19244: a2 = a2 <u 0xffffffffffffff40\n 19248: a2 = a2 ^ 0x1\n 19251: u64 [s1 + 0xf0] = a3\n 19255: a2 = a0 if a3 != 0\n 19258: a0 = a4 | a5\n 19261: u64 [s1 + 0xd0] = a0\n 19265: a2 = a1 if a0 != 0\n 19268: jump @684 if a2 == 0\n      : @683 (gas: 1)\n 19271: jump @923\n      : @684 (gas: 21)\n 19274: a0 = u64 [s1 + 0x100]\n 19278: t0 = a0 + 0xc0\n 19282: a1 = t0 <u a0\n 19285: a2 = u64 [s1 + 0xf0]\n 19289: a0 = a2 + a1\n 19292: a3 = a0 <u a2\n 19295: a3 = a1 if a1 == 0\n 19298: a3 = a3 + a4\n 19301: a1 = a3 <u a4\n 19304: u64 [s1 + 0xe0] = a4\n 19308: a4 = a5 + a1\n 19311: a1 = s1 + 0x18d8\n 19315: u64 [s1 + 0xd8] = a5\n 19319: a5 = a1\n 19321: u64 [a1 + 0x5e8] = t0\n 19325: u64 [a1 + 0x5f0] = a0\n 19329: u64 [a1 + 0x5f8] = a3\n 19333: a0 = 0x40\n 19336: a1 = s1 + 0x1ec0\n 19340: u64 [a5 + 0x600] = a4\n 19344: ra = 736, jump @9\n      : @685 [@dyn 368] (gas: 4)\n 19350: a0 = u64 [s1 + 0xe8]\n 19354: ra = 0x2e2\n 19358: ecalli 5 // 'caller'\n 19360: fallthrough\n      : @686 [@dyn 369] (gas: 12)\n 19361: a0 = u64 [s1 + 0x100]\n 19365: a2 = u64 [s1 + 0xe0]\n 19369: a0 = a0 | a2\n 19372: a1 = u64 [s1 + 0xf0]\n 19376: a3 = u64 [s1 + 0xd8]\n 19380: a1 = a1 | a3\n 19383: a0 = a0 | a1\n 19386: a0 = a0 >> 0x20\n 19389: a1 = a1 | a2\n 19392: a1 = a1 << 0x20\n 19395: a0 = a0 | a1\n 19398: jump @688 if a0 == 0\n      : @687 (gas: 1)\n 19401: jump @848\n      : @688 (gas: 2)\n 19404: a2 = u64 [s1 + 0xf8]\n 19408: t0 = 740, jump @1112\n      : @689 [@dyn 370] (gas: 8)\n 19414: u64 [a2 + 1504] = 0\n 19418: a4 = a2 + 0x500\n 19422: u64 [a4 + 0xd8] = a1\n 19426: u64 [a4 + 0xd0] = a0\n 19430: a1 = s1 + 0x1ea0\n 19434: u64 [a4 + 0xc8] = a3\n 19438: a0 = u64 [s1 + 0x100]\n 19442: ra = 742, jump @9\n      : @690 [@dyn 371] (gas: 3)\n 19448: a2 = 0x100000000\n 19458: a0 = 0xffffffe0\n 19468: t0 = 744, jump @1134\n      : @691 [@dyn 372] (gas: 1)\n 19474: jump @693 if a0 != 0\n      : @692 (gas: 1)\n 19477: jump @848\n      : @693 (gas: 17)\n 19480: a0 = u64 [s1 + 0x100]\n 19484: i32 a3 = a0 + 0x20\n 19487: a0 = s1 + 0x18d8\n 19491: u64 [s1 + 0xe0] = a2\n 19495: a2 = a0\n 19497: u64 [a0 + 1472] = 0\n 19501: a0 = u64 [s1 + 0x158]\n 19505: a4 = a2 + 0x500\n 19509: u64 [a4 + 0xa8] = a0\n 19513: a0 = u64 [s1 + 0x150]\n 19517: u64 [a4 + 0xb0] = a0\n 19521: a1 = s1 + 0x1e80\n 19525: a0 = u64 [s1 + 0x148]\n 19529: u64 [a4 + 0xb8] = a0\n 19533: u64 [s1 + 0xd8] = a3\n 19537: a0 = a3\n 19539: ra = 746, jump @9\n      : @694 [@dyn 373] (gas: 3)\n 19545: a0 = u64 [s1 + 0xe0]\n 19549: a0 = a0 + 0xffffffffffffffc0\n 19552: t0 = 748, jump @1134\n      : @695 [@dyn 374] (gas: 1)\n 19558: jump @697 if a0 != 0\n      : @696 (gas: 1)\n 19561: jump @848\n      : @697 (gas: 16)\n 19564: a0 = u64 [s1 + 0x100]\n 19568: i32 a3 = a0 + 0x40\n 19571: a0 = u64 [s1 + 0x128]\n 19575: a2 = s1 + 0x18d8\n 19579: a4 = a2 + 0x500\n 19583: u64 [a4 + 0x88] = a0\n 19587: a0 = u64 [s1 + 0x130]\n 19591: u64 [a4 + 0x90] = a0\n 19595: a0 = u64 [s1 + 0x138]\n 19599: u64 [a4 + 0x98] = a0\n 19603: a1 = s1 + 0x1e60\n 19607: a0 = u64 [s1 + 0x140]\n 19611: u64 [a4 + 0xa0] = a0\n 19615: u64 [s1 + 0xe0] = a3\n 19619: a0 = a3\n 19621: ra = 750, jump @9\n      : @698 [@dyn 375] (gas: 3)\n 19627: a2 = 0x100000000\n 19637: a0 = 0xffffffa0\n 19647: t0 = 752, jump @1134\n      : @699 [@dyn 376] (gas: 1)\n 19653: jump @701 if a0 != 0\n      : @700 (gas: 1)\n 19656: jump @848\n      : @701 (gas: 18)\n 19659: a0 = u64 [s1 + 0x100]\n 19663: i32 a3 = a0 + 0x60\n 19666: a0 = u64 [s1 + 0x108]\n 19670: a1 = s1 + 0x18d8\n 19674: u64 [s1 + 0xa8] = a2\n 19678: a2 = a1\n 19680: a4 = a1 + 0x500\n 19684: u64 [a4 + 0x68] = a0\n 19687: a0 = u64 [s1 + 0x110]\n 19691: u64 [a4 + 0x70] = a0\n 19694: a0 = u64 [s1 + 0x118]\n 19698: u64 [a4 + 0x78] = a0\n 19701: a1 = s1 + 0x1e40\n 19705: a0 = u64 [s1 + 0x120]\n 19709: u64 [a2 + 0x580] = a0\n 19713: u64 [s1 + 0x98] = a3\n 19717: a0 = a3\n 19719: ra = 754, jump @9\n      : @702 [@dyn 377] (gas: 9)\n 19725: a2 = u64 [s1 + 0xd0]\n 19729: a0 = u64 [s1 + 0xa8]\n 19733: a0 = a0 + 0xffffffffffffff80\n 19736: a1 = u64 [s1 + 0x100]\n 19740: a0 = a1 <u a0\n 19743: a1 = u64 [s1 + 0xf0]\n 19747: a0 = 0 if a1 != 0\n 19749: a0 = 0 if a2 != 0\n 19751: jump @704 if a0 != 0\n      : @703 (gas: 1)\n 19754: jump @848\n      : @704 (gas: 11)\n 19757: a0 = u64 [s1 + 0x100]\n 19761: i32 a2 = a0 + 0x80\n 19765: a0 = s1 + 0x18d8\n 19769: u64 [a0 + 1376] = 0\n 19773: u64 [a0 + 1368] = 0\n 19777: u64 [a0 + 1360] = 0\n 19781: a1 = s1 + 0x1e20\n 19785: u64 [a0 + 1352] = 0\n 19789: u64 [s1 + 0x88] = a2\n 19793: a0 = a2\n 19795: ra = 756, jump @9\n      : @705 [@dyn 378] (gas: 8)\n 19801: a1 = 0xffffff60\n 19811: a0 = u64 [s1 + 0x100]\n 19815: a1 = a0 <u a1\n 19818: a0 = u64 [s1 + 0xf0]\n 19822: a1 = 0 if a0 != 0\n 19824: a0 = u64 [s1 + 0xd0]\n 19828: a1 = 0 if a0 != 0\n 19830: jump @707 if a1 != 0\n      : @706 (gas: 1)\n 19833: jump @848\n      : @707 (gas: 12)\n 19836: a0 = 0xffffffff\n 19846: u64 [s1 + 0x80] = a0\n 19850: a0 = u64 [s1 + 0x100]\n 19854: i32 a0 = a0 + 0xa0\n 19858: u64 [s1 + 0x78] = a0\n 19861: a3 = s1 + 0x18d8\n 19865: u64 [a3 + 1344] = 0\n 19869: u64 [a3 + 1336] = 0\n 19873: u64 [a3 + 1328] = 0\n 19877: a1 = s1 + 0x1e00\n 19881: u64 [a3 + 1320] = 0x1\n 19886: ra = 758, jump @9\n      : @708 [@dyn 379] (gas: 13)\n 19892: a0 = u64 [s1 + 0xb8]\n 19896: a2 = s1 + 0x18d8\n 19900: a3 = a2 + 0x500\n 19904: u64 [a3 + 0x20] = a0\n 19907: a0 = u64 [s1 + 0xb0]\n 19911: u64 [a3 + 0x18] = a0\n 19914: a0 = u64 [s1 + 0xc0]\n 19918: u64 [a3 + 0x10] = a0\n 19921: a1 = s1 + 0x1de0\n 19925: a0 = u64 [s1 + 0xc8]\n 19929: u64 [a3 + 0x8] = a0\n 19932: a0 = 0\n 19934: ra = 760, jump @9\n      : @709 [@dyn 380] (gas: 8)\n 19940: a2 = s1 + 0x18d8\n 19944: u64 [a2 + 1280] = 0\n 19948: u64 [a2 + 1272] = 0\n 19952: u64 [a2 + 1256] = 0x2\n 19957: a0 = 0x20\n 19960: a1 = s1 + 0x1dc0\n 19964: u64 [a2 + 1264] = 0\n 19968: ra = 762, jump @9\n      : @710 [@dyn 381] (gas: 7)\n 19974: a0 = sp + 0xffffffffffffffe0\n 19977: a0 = a0 & 0xffffffffffffffe0\n 19980: u64 [s1 + 0x90] = a0\n 19984: sp = a0\n 19986: a1 = 0x40\n 19989: a0 = 0\n 19991: ra = 764, jump @20\n      : @711 [@dyn 382] (gas: 4)\n 19997: a1 = sp + 0xffffffffffffffe0\n 20000: a1 = a1 & 0xffffffffffffffe0\n 20003: u64 [s1 + 0xf0] = a1\n 20007: t0 = 766, jump @1117\n      : @712 [@dyn 383] (gas: 22)\n 20013: ecalli 9 // 'hash_keccak_256'\n 20015: a3 = u64 [s1 + 0xf0]\n 20019: a0 = u64 [a3 + 0x18]\n 20022: a1 = u64 [a3 + 0x10]\n 20025: a2 = u64 [a3 + 0x8]\n 20028: a3 = u64 [a3]\n 20030: a4 = reverse a0\n 20032: u64 [s1 + 0xa8] = a4\n 20036: a1 = reverse a1\n 20038: u64 [s1 + 0xd0] = a1\n 20042: a5 = reverse a2\n 20044: u64 [s1 + 0xa0] = a5\n 20048: a0 = reverse a3\n 20050: u64 [s1 + 0xf0] = a0\n 20054: a2 = u64 [s1 + 0x90]\n 20058: u64 [a2 + 0x18] = a0\n 20061: u64 [a2 + 0x10] = a5\n 20064: u64 [a2 + 0x8] = a1\n 20067: u64 [a2] = a4\n 20069: a0 = s1 + 0x1da0\n 20073: a1 = u64 [s1 + 0x100]\n 20077: ra = 768, jump @7\n      : @713 [@dyn 384] (gas: 15)\n 20083: a2 = s1 + 0x18d8\n 20087: a3 = a2 + 0x400\n 20091: a0 = u64 [a3 + 0xc8]\n 20095: a1 = u64 [a3 + 0xd0]\n 20099: a2 = u64 [a3 + 0xd8]\n 20103: a0 = a0 & 0xffffffffffffffff\n 20106: u64 [s1 + 0x100] = a0\n 20110: a1 = a1 & 0xffffffffffffffff\n 20113: u64 [s1 + 0x70] = a1\n 20116: a0 = u64 [s1 + 0x80]\n 20120: a0 = a0 & a2\n 20123: u64 [s1 + 0x68] = a0\n 20126: a0 = s1 + 0x1d80\n 20130: a1 = u64 [s1 + 0x90]\n 20134: ra = 770, jump @11\n      : @714 [@dyn 385] (gas: 17)\n 20140: a1 = s1 + 0x18d8\n 20144: a0 = u32 [a1 + 0x4bc]\n 20148: a0 = a0 << 0x20\n 20151: a1 = u64 [a1 + 0x4c0]\n 20155: a2 = u64 [s1 + 0x68]\n 20158: a0 = a0 | a2\n 20161: a2 = s1 + 0x28d8\n 20165: a3 = u64 [s1 + 0x70]\n 20168: a4 = a2 + 0x500\n 20172: u64 [a4 + 0x90] = a3\n 20176: a3 = u64 [s1 + 0x100]\n 20180: u64 [a4 + 0x88] = a3\n 20184: u64 [a4 + 0xa0] = a1\n 20188: u64 [a4 + 0x98] = a0\n 20192: a1 = s1 + 0x2e60\n 20196: a0 = u64 [s1 + 0x90]\n 20200: ra = 772, jump @12\n      : @715 [@dyn 386] (gas: 23)\n 20206: a0 = sp + 0xffffffffffffffe0\n 20209: a5 = a0 & 0xffffffffffffffe0\n 20212: sp = a5\n 20214: a0 = u64 [s1 + 0xa8]\n 20218: a0 = a0 + 0x1\n 20221: a1 = a0 <u 0x1\n 20224: a2 = u64 [s1 + 0xd0]\n 20228: a1 = a1 + a2\n 20231: a2 = a0 | a1\n 20234: a2 = a2 <u 0x1\n 20237: a3 = u64 [s1 + 0xa0]\n 20241: a2 = a2 + a3\n 20244: a3 = a2 <u a3\n 20247: a4 = u64 [s1 + 0xf0]\n 20251: a3 = a3 + a4\n 20254: u64 [s1 + 0x100] = a5\n 20258: u64 [a5 + 0x18] = a3\n 20261: u64 [a5 + 0x10] = a2\n 20264: u64 [a5 + 0x8] = a1\n 20267: u64 [a5] = a0\n 20269: a0 = s1 + 0x1d60\n 20273: a1 = u64 [s1 + 0xd8]\n 20277: ra = 774, jump @7\n      : @716 [@dyn 387] (gas: 15)\n 20283: a2 = s1 + 0x18d8\n 20287: a3 = a2 + 0x400\n 20291: a0 = u64 [a3 + 0x88]\n 20295: a1 = u64 [a3 + 0x90]\n 20299: a2 = u64 [a3 + 0x98]\n 20303: a0 = a0 & 0xffffffffffffffff\n 20306: u64 [s1 + 0xd8] = a0\n 20310: a1 = a1 & 0xffffffffffffffff\n 20313: u64 [s1 + 0x90] = a1\n 20317: a0 = u64 [s1 + 0x80]\n 20321: a0 = a0 & a2\n 20324: u64 [s1 + 0x80] = a0\n 20328: a0 = s1 + 0x1d40\n 20332: a1 = u64 [s1 + 0x100]\n 20336: ra = 776, jump @11\n      : @717 [@dyn 388] (gas: 17)\n 20342: a1 = s1 + 0x18d8\n 20346: a0 = u32 [a1 + 0x47c]\n 20350: a0 = a0 << 0x20\n 20353: a1 = u64 [a1 + 0x480]\n 20357: a2 = u64 [s1 + 0x80]\n 20361: a0 = a0 | a2\n 20364: a2 = s1 + 0x28d8\n 20368: a3 = u64 [s1 + 0x90]\n 20372: a4 = a2 + 0x500\n 20376: u64 [a4 + 0xb0] = a3\n 20380: a3 = u64 [s1 + 0xd8]\n 20384: u64 [a4 + 0xa8] = a3\n 20388: u64 [a4 + 0xc0] = a1\n 20392: u64 [a4 + 0xb8] = a0\n 20396: a1 = s1 + 0x2e80\n 20400: a0 = u64 [s1 + 0x100]\n 20404: ra = 778, jump @12\n      : @718 [@dyn 389] (gas: 3)\n 20410: a0 = s1 + 0x1d20\n 20414: a1 = u64 [s1 + 0xe0]\n 20418: ra = 780, jump @7\n      : @719 [@dyn 390] (gas: 30)\n 20424: a0 = s1 + 0x18d8\n 20428: t0 = u64 [a0 + 0x448]\n 20432: t1 = u64 [a0 + 0x450]\n 20436: t2 = u64 [a0 + 0x458]\n 20440: a3 = u64 [a0 + 0x460]\n 20444: a0 = u64 [s1 + 0xa8]\n 20448: a4 = a0 + 0x2\n 20451: a5 = a4 <u a0\n 20454: a1 = u64 [s1 + 0xd0]\n 20458: a0 = a1 + a5\n 20461: a1 = a0 <u a1\n 20464: a1 = a5 if a5 == 0\n 20467: a2 = u64 [s1 + 0xa0]\n 20471: a1 = a1 + a2\n 20474: a5 = a1 <u a2\n 20477: a2 = u64 [s1 + 0xf0]\n 20481: a5 = a5 + a2\n 20484: a2 = s1 + 0x28d8\n 20488: u64 [a2 + 0x5e0] = a5\n 20492: a5 = a2 + 0x500\n 20496: u64 [a5 + 0xd8] = a1\n 20500: u64 [a5 + 0xd0] = a0\n 20504: u64 [a5 + 0xc8] = a4\n 20508: u64 [a2 + 0x600] = a3\n 20512: u64 [a2 + 0x5f8] = t2\n 20516: u64 [a2 + 0x5f0] = t1\n 20520: u64 [a2 + 0x5e8] = t0\n 20524: a0 = s1 + 0x2ea0\n 20528: a1 = s1 + 0x2ec0\n 20532: ra = 782, jump @12\n      : @720 [@dyn 391] (gas: 3)\n 20538: a0 = s1 + 0x1d00\n 20542: a1 = u64 [s1 + 0x98]\n 20546: ra = 784, jump @7\n      : @721 [@dyn 392] (gas: 30)\n 20552: a0 = s1 + 0x18d8\n 20556: t0 = u64 [a0 + 0x428]\n 20560: t1 = u64 [a0 + 0x430]\n 20564: t2 = u64 [a0 + 0x438]\n 20568: a3 = u64 [a0 + 0x440]\n 20572: a0 = u64 [s1 + 0xa8]\n 20576: a4 = a0 + 0x3\n 20579: a5 = a4 <u a0\n 20582: a1 = u64 [s1 + 0xd0]\n 20586: a0 = a1 + a5\n 20589: a1 = a0 <u a1\n 20592: a1 = a5 if a5 == 0\n 20595: a2 = u64 [s1 + 0xa0]\n 20599: a1 = a1 + a2\n 20602: a5 = a1 <u a2\n 20605: a2 = u64 [s1 + 0xf0]\n 20609: a5 = a5 + a2\n 20612: a2 = s1 + 0x28d8\n 20616: u64 [a2 + 0x620] = a5\n 20620: a5 = a2 + 0x600\n 20624: u64 [a5 + 0x18] = a1\n 20627: u64 [a5 + 0x10] = a0\n 20630: u64 [a5 + 0x8] = a4\n 20633: u64 [a5 + 0x40] = a3\n 20636: u64 [a2 + 0x638] = t2\n 20640: u64 [a2 + 0x630] = t1\n 20644: u64 [a2 + 0x628] = t0\n 20648: a0 = s1 + 0x2ee0\n 20652: a1 = s1 + 0x2f00\n 20656: ra = 786, jump @12\n      : @722 [@dyn 393] (gas: 3)\n 20662: a0 = s1 + 0x1ce0\n 20666: a1 = u64 [s1 + 0x88]\n 20670: ra = 788, jump @7\n      : @723 [@dyn 394] (gas: 30)\n 20676: a0 = s1 + 0x18d8\n 20680: t0 = u64 [a0 + 0x408]\n 20684: t1 = u64 [a0 + 0x410]\n 20688: t2 = u64 [a0 + 0x418]\n 20692: a3 = u64 [a0 + 0x420]\n 20696: a0 = u64 [s1 + 0xa8]\n 20700: a4 = a0 + 0x4\n 20703: a5 = a4 <u a0\n 20706: a1 = u64 [s1 + 0xd0]\n 20710: a0 = a1 + a5\n 20713: a1 = a0 <u a1\n 20716: a1 = a5 if a5 == 0\n 20719: a2 = u64 [s1 + 0xa0]\n 20723: a1 = a1 + a2\n 20726: a5 = a1 <u a2\n 20729: a2 = u64 [s1 + 0xf0]\n 20733: a5 = a5 + a2\n 20736: a2 = s1 + 0x28d8\n 20740: u64 [a2 + 0x660] = a5\n 20744: a5 = a2 + 0x600\n 20748: u64 [a5 + 0x58] = a1\n 20751: u64 [a5 + 0x50] = a0\n 20754: u64 [a5 + 0x48] = a4\n 20757: u64 [a5 + 0x80] = a3\n 20761: u64 [a2 + 0x678] = t2\n 20765: u64 [a2 + 0x670] = t1\n 20769: u64 [a2 + 0x668] = t0\n 20773: a0 = s1 + 0x2f20\n 20777: a1 = s1 + 0x2f40\n 20781: ra = 790, jump @12\n      : @724 [@dyn 395] (gas: 23)\n 20787: a0 = sp + 0xffffffffffffffe0\n 20790: a5 = a0 & 0xffffffffffffffe0\n 20793: sp = a5\n 20795: a1 = u64 [s1 + 0xa8]\n 20799: a0 = a1 + 0x5\n 20802: a1 = a0 <u a1\n 20805: a3 = u64 [s1 + 0xd0]\n 20809: a2 = a3 + a1\n 20812: a3 = a2 <u a3\n 20815: a3 = a1 if a1 == 0\n 20818: a1 = u64 [s1 + 0xa0]\n 20822: a3 = a3 + a1\n 20825: a1 = a3 <u a1\n 20828: a4 = u64 [s1 + 0xf0]\n 20832: a1 = a1 + a4\n 20835: u64 [s1 + 0x100] = a5\n 20839: u64 [a5 + 0x18] = a1\n 20842: u64 [a5 + 0x10] = a3\n 20845: u64 [a5 + 0x8] = a2\n 20848: u64 [a5] = a0\n 20850: a0 = s1 + 0x1cc0\n 20854: a1 = u64 [s1 + 0x78]\n 20857: ra = 792, jump @7\n      : @725 [@dyn 396] (gas: 14)\n 20863: a3 = s1 + 0x18d8\n 20867: a4 = a3 + 0x300\n 20871: a0 = u64 [a4 + 0xf8]\n 20875: a1 = u64 [a3 + 0x400]\n 20879: a2 = u64 [a4 + 0xf0]\n 20883: a3 = u64 [a4 + 0xe8]\n 20887: a1 = a1 | a2\n 20890: a0 = a0 | a3\n 20893: a0 = a0 | a1\n 20896: a0 = a0 >u 0\n 20898: u64 [s1 + 0xf0] = a0\n 20902: a0 = s1 + 0x1ca0\n 20906: a1 = u64 [s1 + 0x100]\n 20910: ra = 794, jump @11\n      : @726 [@dyn 397] (gas: 18)\n 20916: a3 = s1 + 0x18d8\n 20920: a4 = a3 + 0x300\n 20924: a0 = u64 [a4 + 0xc8]\n 20928: a1 = u64 [a4 + 0xd0]\n 20932: a2 = u64 [a4 + 0xe0]\n 20936: a3 = u64 [a4 + 0xd8]\n 20940: a0 = a0 & 0xffffffffffffff00\n 20944: a4 = u64 [s1 + 0xf0]\n 20948: a0 = a0 | a4\n 20951: a4 = s1 + 0x28d8\n 20955: a5 = a4 + 0x600\n 20959: u64 [a5 + 0xa0] = a2\n 20963: u64 [a5 + 0x98] = a3\n 20967: u64 [a5 + 0x90] = a1\n 20971: u64 [a5 + 0x88] = a0\n 20975: a1 = s1 + 0x2f60\n 20979: a0 = u64 [s1 + 0x100]\n 20983: ra = 796, jump @12\n      : @727 [@dyn 398] (gas: 6)\n 20989: a0 = u64 [s1 + 0xe8]\n 20993: ra = 0x31e\n 20997: ecalli 5 // 'caller'\n 20999: a2 = u64 [s1 + 0xf8]\n 21003: t0 = 0x320\n 21007: jump @1112\n      : @728 [@dyn 399] (gas: 2)\n 21010: a2 = u64 [s1 + 0xf8]\n 21014: t0 = 800, jump @1112\n      : @729 [@dyn 400] (gas: 8)\n 21020: u64 [a2 + 960] = 0\n 21024: a4 = a2 + 0x300\n 21028: u64 [a4 + 0xb8] = a1\n 21032: u64 [a4 + 0xb0] = a0\n 21036: a1 = s1 + 0x1c80\n 21040: u64 [a4 + 0xa8] = a3\n 21044: a0 = 0\n 21046: ra = 802, jump @9\n      : @730 [@dyn 401] (gas: 8)\n 21052: a2 = s1 + 0x18d8\n 21056: u64 [a2 + 928] = 0\n 21060: u64 [a2 + 920] = 0\n 21064: u64 [a2 + 904] = 0x4\n 21069: a0 = 0x20\n 21072: a1 = s1 + 0x1c60\n 21076: u64 [a2 + 912] = 0\n 21080: ra = 804, jump @9\n      : @731 [@dyn 402] (gas: 7)\n 21086: a0 = sp + 0xffffffffffffffe0\n 21089: a0 = a0 & 0xffffffffffffffe0\n 21092: u64 [s1 + 0x100] = a0\n 21096: sp = a0\n 21098: a1 = 0x40\n 21101: a0 = 0\n 21103: ra = 806, jump @20\n      : @732 [@dyn 403] (gas: 4)\n 21109: a1 = sp + 0xffffffffffffffe0\n 21112: a1 = a1 & 0xffffffffffffffe0\n 21115: u64 [s1 + 0xf0] = a1\n 21119: t0 = 808, jump @1117\n      : @733 [@dyn 404] (gas: 21)\n 21125: ecalli 9 // 'hash_keccak_256'\n 21127: a3 = u64 [s1 + 0xf0]\n 21131: a0 = u64 [a3 + 0x18]\n 21134: a1 = u64 [a3 + 0x10]\n 21137: a2 = u64 [a3 + 0x8]\n 21140: a3 = u64 [a3]\n 21142: a0 = reverse a0\n 21144: a4 = reverse a1\n 21146: a2 = reverse a2\n 21148: a3 = reverse a3\n 21150: u64 [s1 + 0xa8] = a3\n 21154: a1 = u64 [s1 + 0x100]\n 21158: u64 [a1 + 0x18] = a3\n 21161: u64 [s1 + 0xd0] = a2\n 21165: u64 [a1 + 0x10] = a2\n 21168: u64 [s1 + 0xe0] = a4\n 21172: u64 [a1 + 0x8] = a4\n 21175: u64 [s1 + 0xf0] = a0\n 21179: u64 [a1] = a0\n 21181: a0 = s1 + 0x1c40\n 21185: ra = 810, jump @11\n      : @734 [@dyn 405] (gas: 11)\n 21191: a3 = s1 + 0x18d8\n 21195: t0 = u64 [a3 + 0x380]\n 21199: a5 = u64 [a3 + 0x378]\n 21203: a4 = u64 [a3 + 0x370]\n 21207: a0 = t0 >u 0\n 21209: a1 = a5 >u 0\n 21211: a1 = a0 if t0 != 0\n 21214: a0 = a5 | t0\n 21217: a2 = a4 >u 0\n 21219: a2 = a1 if a0 != 0\n 21222: jump @736 if a2 == 0\n      : @735 (gas: 1)\n 21225: jump @927\n      : @736 (gas: 22)\n 21228: a0 = u64 [a3 + 0x368]\n 21232: u64 [s1 + 0xa0] = a0\n 21236: a0 = a0 + 0x1\n 21239: a1 = a0 <u 0x1\n 21242: a1 = a1 + a4\n 21245: a2 = a0 | a1\n 21248: a2 = a2 <u 0x1\n 21251: a2 = a2 + a5\n 21254: a3 = a2 <u a5\n 21257: a3 = a3 + t0\n 21260: u64 [s1 + 0x98] = a4\n 21264: a4 = s1 + 0x28d8\n 21268: u64 [a4 + 0x6a8] = a0\n 21272: a0 = a4 + 0x600\n 21276: u64 [a0 + 0xb0] = a1\n 21280: u64 [a0 + 0xb8] = a2\n 21284: u64 [a0 + 0xc0] = a3\n 21288: a1 = s1 + 0x2f80\n 21292: a0 = u64 [s1 + 0x100]\n 21296: u64 [s1 + 0x100] = a5\n 21300: u64 [s1 + 0x90] = t0\n 21304: ra = 812, jump @12\n      : @737 [@dyn 406] (gas: 32)\n 21310: a0 = sp + 0xffffffffffffffe0\n 21313: a0 = a0 & 0xffffffffffffffe0\n 21316: u64 [s1 + 0xd8] = a0\n 21320: sp = a0\n 21322: a0 = s1 + 0x18d8\n 21326: a1 = u64 [s1 + 0x90]\n 21330: u64 [a0 + 0x300] = a1\n 21334: a0 = s1 + 0x18d8\n 21338: a1 = u64 [s1 + 0x100]\n 21342: u64 [a0 + 0x2f8] = a1\n 21346: a0 = s1 + 0x18d8\n 21350: a1 = u64 [s1 + 0x98]\n 21354: u64 [a0 + 0x2f0] = a1\n 21358: a0 = s1 + 0x18d8\n 21362: a1 = u64 [s1 + 0xa0]\n 21366: u64 [a0 + 0x2e8] = a1\n 21370: a0 = s1 + 0x18d8\n 21374: a1 = u64 [s1 + 0xa8]\n 21378: u64 [a0 + 0x320] = a1\n 21382: a0 = s1 + 0x18d8\n 21386: a1 = u64 [s1 + 0xd0]\n 21390: u64 [a0 + 0x318] = a1\n 21394: a0 = s1 + 0x18d8\n 21398: a1 = u64 [s1 + 0xe0]\n 21402: u64 [a0 + 0x310] = a1\n 21406: a0 = s1 + 0x1c00\n 21410: a1 = s1 + 0x1be0\n 21414: a2 = s1 + 0x1bc0\n 21418: a3 = s1 + 0x18d8\n 21422: a4 = u64 [s1 + 0xf0]\n 21426: u64 [a3 + 0x308] = a4\n 21430: ra = 814, jump @954\n      : @738 [@dyn 407] (gas: 27)\n 21436: a0 = s1 + 0x18d8\n 21440: a0 = u64 [a0 + 0x360]\n 21444: u64 [s1 + 0xf0] = a0\n 21448: a0 = s1 + 0x18d8\n 21452: a0 = u64 [a0 + 0x358]\n 21456: u64 [s1 + 0xe0] = a0\n 21460: a0 = s1 + 0x18d8\n 21464: a0 = u64 [a0 + 0x350]\n 21468: u64 [s1 + 0xd0] = a0\n 21472: a0 = s1 + 0x18d8\n 21476: a0 = u64 [a0 + 0x348]\n 21480: u64 [s1 + 0x100] = a0\n 21484: a0 = s1 + 0x18d8\n 21488: a0 = u64 [a0 + 0x338]\n 21492: a1 = s1 + 0x18d8\n 21496: a4 = u64 [a1 + 0x340]\n 21500: a2 = s1 + 0x18d8\n 21504: a2 = u64 [a2 + 0x328]\n 21508: a3 = s1 + 0x18d8\n 21512: a3 = u64 [a3 + 0x330]\n 21516: a1 = u64 [s1 + 0xd8]\n 21520: u64 [a1 + 0x10] = a0\n 21523: u64 [a1 + 0x18] = a4\n 21526: u64 [a1] = a2\n 21528: u64 [a1 + 0x8] = a3\n 21531: a0 = s1 + 0x1ba0\n 21535: ra = 816, jump @11\n      : @739 [@dyn 408] (gas: 42)\n 21541: a0 = s1 + 0x18d8\n 21545: a0 = u64 [a0 + 0x2d8]\n 21549: u64 [s1 + 0x98] = a0\n 21553: a0 = s1 + 0x18d8\n 21557: a0 = u64 [a0 + 0x2e0]\n 21561: u64 [s1 + 0x90] = a0\n 21565: a0 = s1 + 0x18d8\n 21569: a0 = u64 [a0 + 0x2c8]\n 21573: u64 [s1 + 0x88] = a0\n 21577: a0 = s1 + 0x18d8\n 21581: a0 = u64 [a0 + 0x2d0]\n 21585: u64 [s1 + 0x80] = a0\n 21589: a5 = u64 [s1 + 0x100]\n 21593: a0 = a5 >> 0x3d\n 21596: a2 = u64 [s1 + 0xd0]\n 21600: a1 = a2 << 0x3\n 21603: a0 = a0 | a1\n 21606: a1 = a2 >> 0x3d\n 21609: a3 = u64 [s1 + 0xe0]\n 21613: a2 = a3 << 0x3\n 21616: a1 = a1 | a2\n 21619: a2 = a3 >> 0x3d\n 21622: a3 = u64 [s1 + 0xf0]\n 21626: a3 = a3 << 0x3\n 21629: a2 = a2 | a3\n 21632: a5 = a5 << 0x3\n 21635: u64 [s1 + 0xe0] = a5\n 21639: a3 = a0 >u 0\n 21641: a4 = a5 <u 0x100\n 21645: a4 = a4 ^ 0x1\n 21648: a4 = a3 if a0 != 0\n 21651: a0 = a2 >u 0\n 21653: a3 = a1 >u 0\n 21655: a3 = a0 if a2 != 0\n 21658: a1 = a1 | a2\n 21661: a4 = a3 if a1 != 0\n 21664: u64 [s1 + 0xa8] = a4\n 21668: i32 a2 = a5 + 0xffffffffffffff80\n 21671: u64 [s1 + 0x78] = a2\n 21674: a0 = u64 [s1 + 0xc8]\n 21678: a1 = u64 [s1 + 0xc0]\n 21682: ra = 818, jump @1162\n      : @740 [@dyn 409] (gas: 8)\n 21688: u64 [s1 + 0x70] = a0\n 21691: u64 [s1 + 0xf0] = a1\n 21695: a0 = u64 [s1 + 0x100]\n 21699: i32 a2 = a0 << 0x3\n 21702: u64 [s1 + 0xd0] = a2\n 21706: a0 = u64 [s1 + 0xb0]\n 21710: a1 = u64 [s1 + 0xb8]\n 21714: ra = 820, jump @1162\n      : @741 [@dyn 410] (gas: 8)\n 21720: u64 [s1 + 0x100] = a0\n 21724: u64 [s1 + 0x68] = a1\n 21727: a1 = u64 [s1 + 0xe0]\n 21731: i32 a2 = 0x80 - a1\n 21735: u64 [s1 + 0x60] = a2\n 21738: a0 = u64 [s1 + 0xc8]\n 21742: a1 = u64 [s1 + 0xc0]\n 21746: ra = 822, jump @1157\n      : @742 [@dyn 411] (gas: 21)\n 21752: a2 = u64 [s1 + 0x100]\n 21756: a2 = a2 | a0\n 21759: a0 = u64 [s1 + 0xe0]\n 21763: a4 = a0 <u 0x80\n 21767: u64 [s1 + 0xa0] = a4\n 21771: a3 = u64 [s1 + 0x70]\n 21774: a2 = a3 if a4 == 0\n 21777: a3 = u64 [s1 + 0xb0]\n 21781: a2 = a3 if a0 == 0\n 21784: u64 [s1 + 0x100] = a2\n 21788: a2 = u64 [s1 + 0x68]\n 21791: a1 = a1 | a2\n 21794: a2 = u64 [s1 + 0xf0]\n 21798: a1 = a2 if a4 == 0\n 21801: a2 = u64 [s1 + 0xb8]\n 21805: a1 = a2 if a0 == 0\n 21808: u64 [s1 + 0xf0] = a1\n 21812: a0 = u64 [s1 + 0xc8]\n 21816: a1 = u64 [s1 + 0xc0]\n 21820: a2 = u64 [s1 + 0xd0]\n 21824: ra = 824, jump @1162\n      : @743 [@dyn 412] (gas: 19)\n 21830: a2 = a1\n 21832: a1 = u64 [s1 + 0xa0]\n 21836: a0 = 0 if a1 == 0\n 21838: a2 = 0 if a1 == 0\n 21840: a3 = u64 [s1 + 0xa8]\n 21844: a1 = u64 [s1 + 0xf0]\n 21848: a1 = 0 if a3 != 0\n 21850: u64 [s1 + 0xf0] = a1\n 21854: a1 = u64 [s1 + 0x100]\n 21858: a1 = 0 if a3 != 0\n 21860: u64 [s1 + 0x100] = a1\n 21864: a2 = 0 if a3 != 0\n 21866: u64 [s1 + 0x70] = a2\n 21869: a0 = 0 if a3 != 0\n 21871: u64 [s1 + 0x68] = a0\n 21874: a0 = 0xffffffffffffffff\n 21877: a1 = 0xffffffffffffffff\n 21880: a2 = u64 [s1 + 0x60]\n 21883: ra = 826, jump @1157\n      : @744 [@dyn 413] (gas: 6)\n 21889: u64 [s1 + 0x50] = a0\n 21892: u64 [s1 + 0x60] = a1\n 21895: a0 = 0xffffffffffffffff\n 21898: a1 = 0xffffffffffffffff\n 21901: a2 = u64 [s1 + 0xd0]\n 21905: ra = 828, jump @1162\n      : @745 [@dyn 414] (gas: 9)\n 21911: u64 [s1 + 0xd0] = a0\n 21915: u64 [s1 + 0x58] = a1\n 21918: a1 = u64 [s1 + 0x50]\n 21921: a0 = a0 | a1\n 21924: u64 [s1 + 0x50] = a0\n 21927: a0 = 0xffffffffffffffff\n 21930: a1 = 0xffffffffffffffff\n 21933: a2 = u64 [s1 + 0x78]\n 21936: ra = 830, jump @1162\n      : @746 [@dyn 415] (gas: 47)\n 21942: a3 = u64 [s1 + 0xa0]\n 21946: a2 = u64 [s1 + 0x50]\n 21949: a0 = a2 if a3 != 0\n 21952: a4 = u64 [s1 + 0x58]\n 21955: a2 = u64 [s1 + 0x60]\n 21958: a2 = a2 | a4\n 21961: a2 = a1 if a3 == 0\n 21964: a1 = u64 [s1 + 0xe0]\n 21968: a0 = 0xffffffffffffffff if a1 == 0\n 21971: a2 = 0xffffffffffffffff if a1 == 0\n 21974: a5 = u64 [s1 + 0xd0]\n 21978: a5 = 0 if a3 == 0\n 21980: a4 = 0 if a3 == 0\n 21982: a1 = a2 ^ 0xffffffffffffffff\n 21985: a0 = a0 ^ 0xffffffffffffffff\n 21988: a2 = a4 ^ 0xffffffffffffffff\n 21991: a3 = a5 ^ 0xffffffffffffffff\n 21994: a4 = u64 [s1 + 0xa8]\n 21998: a0 = 0xffffffffffffffff if a4 != 0\n 22001: a1 = 0xffffffffffffffff if a4 != 0\n 22004: a3 = 0xffffffffffffffff if a4 != 0\n 22007: a2 = 0xffffffffffffffff if a4 != 0\n 22010: a4 = u64 [s1 + 0x80]\n 22014: a2 = a2 & a4\n 22017: a4 = u64 [s1 + 0x88]\n 22021: a3 = a3 & a4\n 22024: a4 = u64 [s1 + 0x90]\n 22028: a1 = a1 & a4\n 22031: a4 = u64 [s1 + 0x98]\n 22035: a0 = a0 & a4\n 22038: a4 = u64 [s1 + 0x100]\n 22042: a0 = a0 | a4\n 22045: a4 = u64 [s1 + 0xf0]\n 22049: a1 = a1 | a4\n 22052: a4 = u64 [s1 + 0x68]\n 22055: a3 = a3 | a4\n 22058: a4 = u64 [s1 + 0x70]\n 22061: a2 = a2 | a4\n 22064: a4 = s1 + 0x28d8\n 22068: a5 = a4 + 0x600\n 22072: u64 [a5 + 0xd0] = a2\n 22076: u64 [a5 + 0xc8] = a3\n 22080: u64 [a5 + 0xe0] = a1\n 22084: u64 [a5 + 0xd8] = a0\n 22088: a1 = s1 + 0x2fa0\n 22092: a0 = u64 [s1 + 0xd8]\n 22096: ra = 832, jump @12\n      : @747 [@dyn 416] (gas: 3)\n 22102: a0 = s1 + 0x1b80\n 22106: a1 = 0x40\n 22109: ra = 834, jump @7\n      : @748 [@dyn 417] (gas: 18)\n 22115: a2 = s1 + 0x18d8\n 22119: a5 = a2 + 0x200\n 22123: a3 = u64 [a5 + 0xc0]\n 22127: a4 = u64 [a5 + 0xb8]\n 22131: a0 = u64 [a5 + 0xb0]\n 22135: a1 = u64 [a5 + 0xa8]\n 22139: u64 [s1 + 0xf0] = a0\n 22143: u64 [s1 + 0xe0] = a3\n 22147: a0 = a0 | a3\n 22150: u64 [s1 + 0x100] = a1\n 22154: a1 = a1 | a4\n 22157: a1 = a1 | a0\n 22160: a1 = a1 >> 0x20\n 22163: u64 [s1 + 0xd8] = a4\n 22167: a0 = a0 | a4\n 22170: a0 = a0 << 0x20\n 22173: a0 = a0 | a1\n 22176: jump @848 if a0 != 0\n      : @749 (gas: 12)\n 22180: a0 = u64 [s1 + 0x128]\n 22184: a3 = a2 + 0x200\n 22188: u64 [a3 + 0x88] = a0\n 22192: a0 = u64 [s1 + 0x130]\n 22196: u64 [a3 + 0x90] = a0\n 22200: a0 = u64 [s1 + 0x138]\n 22204: u64 [a3 + 0x98] = a0\n 22208: a1 = s1 + 0x1b60\n 22212: a0 = u64 [s1 + 0x140]\n 22216: u64 [a3 + 0xa0] = a0\n 22220: a0 = u64 [s1 + 0x100]\n 22224: ra = 836, jump @9\n      : @750 [@dyn 418] (gas: 10)\n 22230: a0 = u64 [s1 + 0xe0]\n 22234: a1 = u64 [s1 + 0xd8]\n 22238: a0 = a0 | a1\n 22241: a1 = 0xffffffe0\n 22251: a2 = u64 [s1 + 0x100]\n 22255: a1 = a2 <u a1\n 22258: a2 = u64 [s1 + 0xf0]\n 22262: a1 = 0 if a2 != 0\n 22264: a1 = 0 if a0 != 0\n 22266: jump @848 if a1 == 0\n      : @751 (gas: 14)\n 22270: a0 = u64 [s1 + 0x100]\n 22274: i32 a0 = a0 + 0x20\n 22277: a3 = s1 + 0x18d8\n 22281: a1 = u64 [s1 + 0x108]\n 22285: a4 = a3 + 0x200\n 22289: u64 [a4 + 0x68] = a1\n 22292: a1 = u64 [s1 + 0x110]\n 22296: u64 [a4 + 0x70] = a1\n 22299: a1 = u64 [s1 + 0x118]\n 22303: u64 [a4 + 0x78] = a1\n 22306: a1 = s1 + 0x1b40\n 22310: a2 = u64 [s1 + 0x120]\n 22314: u64 [a4 + 0x80] = a2\n 22318: ra = 838, jump @9\n      : @752 [@dyn 419] (gas: 6)\n 22324: a0 = u64 [s1 + 0xe8]\n 22328: ra = 0x348\n 22332: ecalli 5 // 'caller'\n 22334: a2 = u64 [s1 + 0xf8]\n 22338: t0 = 0x34a\n 22342: jump @1125\n      : @753 [@dyn 420] (gas: 2)\n 22345: a2 = u64 [s1 + 0xf8]\n 22349: t0 = 842, jump @1125\n      : @754 [@dyn 421] (gas: 68)\n 22355: t0 = a1 | a0\n 22358: a3 = a3 >> 0x20\n 22361: a2 = reverse a2\n 22363: a1 = a2 << 0x20\n 22366: a1 = a1 | a3\n 22369: a2 = a2 >> 0x20\n 22372: a3 = u64 [s1 + 0x148]\n 22376: a0 = s1 + 0x18d8\n 22380: a4 = a0 + 0x100\n 22384: u64 [a4 + 0xf8] = a3\n 22388: u64 [a0 + 512] = 0\n 22392: a3 = u64 [s1 + 0x150]\n 22396: u64 [a4 + 0xf0] = a3\n 22400: a3 = u64 [s1 + 0x158]\n 22404: u64 [a4 + 0xe8] = a3\n 22408: a3 = u64 [0x20030]\n 22413: a4 = u64 [0x20038]\n 22418: u64 [a0 + 544] = 0\n 22422: a5 = u64 [s1 + 0xb8]\n 22426: u64 [a0 + 0x240] = a5\n 22430: u64 [a0 + 0x260] = a3\n 22434: u64 [a0 + 0x258] = a4\n 22438: a3 = u64 [0x20040]\n 22443: a4 = u64 [0x20048]\n 22448: a5 = u64 [s1 + 0xb0]\n 22452: u64 [a0 + 0x238] = a5\n 22456: a5 = u64 [s1 + 0xc0]\n 22460: u64 [a0 + 0x230] = a5\n 22464: a5 = a0 + 0x200\n 22468: u64 [a5 + 0x50] = a3\n 22471: u64 [a5 + 0x48] = a4\n 22474: u64 [a5 + 0x18] = a2\n 22477: u64 [a5 + 0x10] = a1\n 22480: u64 [a0 + 0x208] = t0\n 22484: t0 = a0\n 22486: a1 = 0x40\n 22489: a2 = s1 + 0x1b20\n 22493: a3 = s1 + 0x1b00\n 22497: a4 = s1 + 0x1ae0\n 22501: a5 = s1 + 0x1ac0\n 22505: a0 = u64 [s1 + 0xc8]\n 22509: u64 [t0 + 0x228] = a0\n 22513: a0 = u64 [s1 + 0x100]\n 22517: ra = 0x34c\n 22521: sp = sp + 0xfffffffffffffee0\n 22525: u64 [sp + 0x118] = ra\n 22529: u64 [sp + 0x110] = s0\n 22533: u64 [sp + 0x108] = s1\n 22537: s0 = sp + 0x120\n 22541: sp = sp & 0xffffffffffffffe0\n 22544: s1 = u64 [a5]\n 22546: u64 [sp + 0x60] = s1\n 22549: s1 = u64 [a5 + 0x8]\n 22552: u64 [sp + 0x68] = s1\n 22555: s1 = u64 [a5 + 0x10]\n 22558: u64 [sp + 0x70] = s1\n 22561: a5 = u64 [a5 + 0x18]\n 22564: u64 [sp + 0x78] = a5\n 22567: a5 = u64 [a4]\n 22569: u64 [sp + 0x38] = a5\n 22572: a5 = u64 [a4 + 0x8]\n 22575: u64 [sp + 0x40] = a5\n 22578: a5 = u64 [a4 + 0x10]\n 22581: u64 [sp + 0x48] = a5\n 22584: a4 = u64 [a4 + 0x18]\n 22587: u64 [sp + 0x50] = a4\n 22590: t0 = 0xe\n 22593: jump @1139\n      : @755 [@dyn 422] (gas: 3)\n 22596: a0 = s1 + 0x1aa0\n 22600: a1 = 0x40\n 22603: ra = 846, jump @7\n      : @756 [@dyn 423] (gas: 7)\n 22609: a3 = s1 + 0x18d8\n 22613: a5 = a3 + 0x100\n 22617: a0 = u64 [a5 + 0xe0]\n 22621: a1 = u64 [a5 + 0xd8]\n 22625: a2 = u64 [a5 + 0xd0]\n 22629: a4 = u64 [a5 + 0xc8]\n 22633: t0 = 848, jump @1122\n      : @757 [@dyn 424] (gas: 1)\n 22639: jump @848 if a0 != 0\n      : @758 (gas: 16)\n 22643: a3 = a4\n 22645: a0 = s1 + 0x18d8\n 22649: a1 = u64 [s1 + 0xc8]\n 22653: a4 = a0 + 0x100\n 22657: u64 [a4 + 0xa8] = a1\n 22661: a1 = u64 [s1 + 0xc0]\n 22665: u64 [a4 + 0xb0] = a1\n 22669: a1 = u64 [s1 + 0xb0]\n 22673: u64 [a4 + 0xb8] = a1\n 22677: a1 = s1 + 0x1a80\n 22681: a2 = u64 [s1 + 0xb8]\n 22685: u64 [a4 + 0xc0] = a2\n 22689: a0 = a3\n 22691: u64 [s1 + 0x158] = a3\n 22695: ra = 0x112\n 22699: jump @9\n      : @759 (gas: 3)\n 22702: a0 = s1 + 0x1320\n 22706: a1 = 0x40\n 22709: ra = 850, jump @7\n      : @760 [@dyn 425] (gas: 14)\n 22715: a0 = s1 + 0x10d8\n 22719: a2 = a0 + 0x200\n 22723: a1 = u64 [a2 + 0x60]\n 22726: u64 [s1 + 0x150] = a1\n 22730: a1 = u64 [a2 + 0x58]\n 22733: u64 [s1 + 0x148] = a1\n 22737: a1 = u64 [a2 + 0x50]\n 22740: u64 [s1 + 0x140] = a1\n 22744: a0 = u64 [a2 + 0x48]\n 22747: u64 [s1 + 0x158] = a0\n 22751: ra = 0x354\n 22755: ecalli 13 // 'return_data_size'\n 22757: t0 = 0x356\n 22761: jump @1123\n      : @761 [@dyn 426] (gas: 1)\n 22764: t0 = 854, jump @1123\n      : @762 [@dyn 427] (gas: 1)\n 22770: jump @848 if a1 != 0\n      : @763 (gas: 3)\n 22774: a2 = a0\n 22776: a0 = a0 >> 0x20\n 22779: jump @848 if a0 != 0\n      : @764 (gas: 1)\n 22783: t0 = 856, jump @1141\n      : @765 [@dyn 428] (gas: 1)\n 22789: ra = 858, jump @20\n      : @766 [@dyn 429] (gas: 11)\n 22795: a1 = s1 + 0x28d8\n 22799: a2 = u64 [s1 + 0x148]\n 22803: u32 [a1 + 0x448] = a2\n 22807: i32 a0 = a0 + 0\n 22809: a1 = s1 + 0x3000\n 22813: i32 a1 = a1 + 0xfffffffffffffd20\n 22817: a2 = 0\n 22819: ecalli 12 // 'return_data_copy'\n 22821: a0 = s1 + 0x28d8\n 22825: a0 = i32 [a0 + 0x448]\n 22829: fallthrough\n      : @767 (gas: 2)\n 22830: a1 = u64 [s1 + 0x150]\n 22834: jump @848 if a0 <u a1\n      : @768 (gas: 2)\n 22838: ecalli 13 // 'return_data_size'\n 22840: fallthrough\n      : @769 (gas: 3)\n 22841: a1 = a0\n 22843: a0 = a0 >> 0x20\n 22846: jump @848 if a0 != 0\n      : @770 (gas: 3)\n 22850: a0 = u64 [s1 + 0x158]\n 22854: u64 [s1 + 0x150] = a1\n 22858: ra = 860, jump @20\n      : @771 [@dyn 430] (gas: 5)\n 22864: i32 a1 = a0 + 0\n 22866: a2 = i32 [s1 + 0x150]\n 22870: a0 = 0x1\n 22873: ecalli 14 // 'seal_return'\n 22875: fallthrough\n      : @772 (gas: 6)\n 22876: u64 [s1 + 240] = 0x2710\n 22882: a0 = u64 [s1 + 0x158]\n 22886: a2 = a0 + 0xffffffffffffff80\n 22889: a0 = u64 [s1 + 0x38]\n 22892: a1 = u64 [s1 + 0x30]\n 22895: ra = 862, jump @1157\n      : @773 [@dyn 431] (gas: 6)\n 22901: u64 [s1 + 0x118] = a0\n 22905: u64 [s1 + 0x120] = a1\n 22909: a0 = u64 [s1 + 0x50]\n 22912: a1 = u64 [s1 + 0x58]\n 22915: a2 = u64 [s1 + 0x158]\n 22919: ra = 864, jump @1157\n      : @774 [@dyn 432] (gas: 7)\n 22925: u64 [s1 + 0x100] = a0\n 22929: u64 [s1 + 0x108] = a1\n 22933: a1 = u64 [s1 + 0x158]\n 22937: a2 = 0x80 - a1\n 22941: a0 = u64 [s1 + 0x38]\n 22944: a1 = u64 [s1 + 0x30]\n 22947: ra = 866, jump @1162\n      : @775 [@dyn 433] (gas: 20)\n 22953: a2 = u64 [s1 + 0x108]\n 22957: a1 = a1 | a2\n 22960: a2 = u64 [s1 + 0x158]\n 22964: a3 = a2 <u 0x80\n 22968: u64 [s1 + 0x108] = a3\n 22972: a4 = u64 [s1 + 0x120]\n 22976: a1 = a4 if a3 == 0\n 22979: a4 = u64 [s1 + 0x58]\n 22982: a1 = a4 if a2 == 0\n 22985: u64 [s1 + 0x120] = a1\n 22989: a1 = u64 [s1 + 0x100]\n 22993: a0 = a0 | a1\n 22996: a1 = u64 [s1 + 0x118]\n 23000: a0 = a1 if a3 == 0\n 23003: a1 = u64 [s1 + 0x50]\n 23006: a0 = a1 if a2 == 0\n 23009: u64 [s1 + 0x118] = a0\n 23013: a0 = u64 [s1 + 0x38]\n 23016: a1 = u64 [s1 + 0x30]\n 23019: ra = 868, jump @1157\n      : @776 [@dyn 434] (gas: 12)\n 23025: a5 = 0\n 23027: a2 = u64 [s1 + 0x108]\n 23031: a1 = 0 if a2 == 0\n 23033: a0 = 0 if a2 == 0\n 23035: a4 = u64 [s1 + 0xf0]\n 23039: a2 = a4 + 0xffffffffffffffff\n 23042: u64 [s1 + 0xe8] = a2\n 23046: a2 = a4 >u 0\n 23048: a2 = a2 + 0xffffffffffffffff\n 23051: u64 [s1 + 0xe0] = a2\n 23055: ra = u64 [s1 + 0x110]\n 23059: fallthrough\n      : @777 (gas: 92)\n 23060: u64 [s1 + 0x100] = a1\n 23064: u64 [s1 + 0x108] = a5\n 23068: u64 [s1 + 248] = 0\n 23072: a1 = u64 [s1 + 0x118]\n 23076: a2 = a1 >> 0x3f\n 23079: a5 = u64 [s1 + 0x120]\n 23083: a3 = a5 << 0x1\n 23086: t1 = a3 | a2\n 23089: a2 = a1 << 0x1\n 23092: a4 = ra >> 0x3f\n 23095: a4 = a4 | a2\n 23098: u64 [s1 + 0x110] = a4\n 23102: a3 = u64 [s1 + 0xe0]\n 23106: a1 = a3 ^ t1\n 23109: u64 [s1 + 0x118] = a1\n 23113: a1 = a3 <u t1\n 23116: a2 = u64 [s1 + 0xe8]\n 23120: t0 = a2 <u a4\n 23123: a2 = u64 [s1 + 0x118]\n 23127: t0 = a1 if a2 != 0\n 23130: a1 = u64 [s1 + 0x100]\n 23134: a1 = a1 << 0x1\n 23137: a4 = a0 >> 0x3f\n 23140: a1 = a1 | a4\n 23143: u64 [s1 + 0x100] = a1\n 23147: a4 = a5 >> 0x3f\n 23150: a0 = a0 << 0x1\n 23153: a4 = a4 | a0\n 23156: a0 = ra << 0x1\n 23159: a1 = u64 [s1 + 0x148]\n 23163: a5 = a1 >> 0x3f\n 23166: a0 = a0 | a5\n 23169: u64 [s1 + 0x120] = a0\n 23173: a5 = a1 << 0x1\n 23176: a0 = u64 [s1 + 0x140]\n 23180: a1 = a0 >> 0x3f\n 23183: a1 = a1 | a5\n 23186: a5 = a0 << 0x1\n 23189: a0 = u64 [s1 + 0x150]\n 23193: ra = a0 >> 0x3f\n 23196: a5 = a5 | ra\n 23199: a0 = a0 << 0x1\n 23202: a2 = u64 [s1 + 0x108]\n 23206: a0 = a0 | a2\n 23209: u64 [s1 + 0x150] = a0\n 23213: a0 = a5 | 0\n 23215: u64 [s1 + 0x140] = a0\n 23219: a0 = a1 | 0\n 23221: u64 [s1 + 0x148] = a0\n 23225: a0 = u64 [s1 + 0x120]\n 23229: ra = a0 | 0\n 23231: a0 = a3 - a4\n 23234: a0 = a0 <u t0\n 23237: a1 = a3 <u a4\n 23240: t2 = u64 [s1 + 0x100]\n 23244: a5 = a3 - t2\n 23247: a5 = a5 - a1\n 23250: a5 = a5 - a0\n 23253: t0 = a5 >>a 0x3f\n 23256: a0 = u64 [s1 + 0xf0]\n 23260: a0 = t0 & a0\n 23263: a2 = u64 [s1 + 0x110]\n 23267: a1 = a2 - a0\n 23270: u64 [s1 + 0x118] = a1\n 23274: a1 = a2 <u a0\n 23277: a0 = t1 - a1\n 23280: u64 [s1 + 0x120] = a0\n 23284: a1 = 0 if t1 != 0\n 23286: a0 = a4 - a1\n 23289: a1 = a4 <u a1\n 23292: a1 = t2 - a1\n 23295: a3 = u64 [s1 + 0x158]\n 23299: a5 = u64 [s1 + 0x138]\n 23303: a2 = a3 | a5\n 23306: a2 = a2 <u 0x1\n 23309: a4 = u64 [s1 + 0x128]\n 23313: t1 = a4 <u a2\n 23316: a4 = a4 - a2\n 23319: a2 = a3 <u 0x1\n 23322: a5 = a5 - a2\n 23325: a2 = u64 [s1 + 0x130]\n 23329: a2 = a2 - t1\n 23332: a3 = a3 + 0xffffffffffffffff\n 23335: u64 [s1 + 0x138] = a5\n 23339: u64 [s1 + 0x130] = a2\n 23343: a2 = a2 | a5\n 23346: u64 [s1 + 0x158] = a3\n 23350: a3 = a3 | a4\n 23353: a2 = a2 | a3\n 23356: a5 = t0 & 0x1\n 23359: u64 [s1 + 0x128] = a4\n 23363: jump @777 if a2 != 0\n      : @778 (gas: 19)\n 23367: a2 = u64 [s1 + 0x148]\n 23371: a0 = a2 >> 0x3f\n 23374: a1 = ra << 0x1\n 23377: a0 = a0 | a1\n 23380: a3 = u64 [s1 + 0x140]\n 23384: a1 = a3 >> 0x3f\n 23387: a2 = a2 << 0x1\n 23390: a1 = a1 | a2\n 23393: a4 = u64 [s1 + 0x150]\n 23397: a2 = a4 >> 0x3f\n 23400: a3 = a3 << 0x1\n 23403: a4 = a4 << 0x1\n 23406: t0 = a5 | a4\n 23409: a5 = u64 [s1 + 0xf8]\n 23413: a2 = a2 | a5\n 23416: a4 = a2 | a3\n 23419: ra = a5 | a1\n 23422: t1 = a5 | a0\n 23425: fallthrough\n      : @779 (gas: 29)\n 23426: a1 = s1 + 0x7ff\n 23430: a1 = a1 + 0xd9\n 23434: a0 = t0\n 23436: u64 [s1 + 0x20] = a0\n 23439: u64 [a1 + 0xe8] = a0\n 23443: a0 = u64 [s1 + 0x80]\n 23447: a2 = a1 + 0x100\n 23451: u64 [a2 + 0x8] = a0\n 23454: u64 [s1 + 0x28] = a4\n 23457: u64 [a1 + 0xf0] = a4\n 23461: a0 = u64 [s1 + 0x48]\n 23464: u64 [a2 + 0x10] = a0\n 23467: a0 = ra\n 23469: u64 [s1 + 0xe0] = a0\n 23473: u64 [a1 + 0xf8] = a0\n 23477: a0 = u64 [s1 + 0x40]\n 23480: u64 [a2 + 0x18] = a0\n 23483: u64 [s1 + 0xe8] = t1\n 23487: u64 [a1 + 0x100] = t1\n 23491: a4 = a1\n 23493: a0 = s1 + 0x7ff\n 23497: a0 = a0 + 0x201\n 23501: a1 = s1 + 0x7ff\n 23505: a1 = a1 + 0x1e1\n 23509: a2 = s1 + 0x7ff\n 23513: a2 = a2 + 0x1c1\n 23517: a3 = u64 [s1 + 0x78]\n 23520: u64 [a4 + 0x120] = a3\n 23524: ra = 870, jump @1080\n      : @780 [@dyn 435] (gas: 22)\n 23530: a2 = s1 + 0x7ff\n 23534: a2 = a2 + 0xd9\n 23538: a1 = a2 + 0x100\n 23542: a0 = u64 [a1 + 0x40]\n 23545: u64 [s1 + 0x138] = a0\n 23549: a0 = u64 [a1 + 0x38]\n 23552: u64 [s1 + 0x130] = a0\n 23556: a0 = u64 [a1 + 0x30]\n 23559: u64 [s1 + 0x128] = a0\n 23563: a0 = u64 [a1 + 0x28]\n 23566: u64 [s1 + 0x120] = a0\n 23570: u64 [a2 + 224] = 0\n 23574: a0 = u64 [s1 + 0x68]\n 23577: u64 [a2 + 0xd8] = a0\n 23581: a0 = u64 [s1 + 0x60]\n 23584: u64 [a2 + 0xd0] = a0\n 23588: a1 = s1 + 0x7ff\n 23592: a1 = a1 + 0x1a1\n 23596: a0 = u64 [s1 + 0x70]\n 23599: u64 [a2 + 0xc8] = a0\n 23603: a0 = 0\n 23605: ra = 872, jump @9\n      : @781 [@dyn 436] (gas: 11)\n 23611: a0 = s1 + 0x7ff\n 23615: a0 = a0 + 0xd9\n 23619: u64 [a0 + 192] = 0\n 23623: u64 [a0 + 184] = 0\n 23627: u64 [a0 + 176] = 0\n 23631: a3 = a0\n 23633: a0 = 0x20\n 23636: a1 = s1 + 0x7ff\n 23640: a1 = a1 + 0x181\n 23644: u64 [a3 + 168] = 0x1\n 23649: ra = 874, jump @9\n      : @782 [@dyn 437] (gas: 1)\n 23655: t0 = 876, jump @1142\n      : @783 [@dyn 438] (gas: 1)\n 23661: ra = 878, jump @20\n      : @784 [@dyn 439] (gas: 4)\n 23667: a1 = sp + 0xffffffffffffffe0\n 23670: a1 = a1 & 0xffffffffffffffe0\n 23673: u64 [s1 + 0x150] = a1\n 23677: t0 = 880, jump @1117\n      : @785 [@dyn 440] (gas: 5)\n 23683: ra = 0x372\n 23687: ecalli 9 // 'hash_keccak_256'\n 23689: a3 = u64 [s1 + 0x150]\n 23693: t0 = 0x374\n 23697: jump @1110\n      : @786 [@dyn 441] (gas: 2)\n 23700: a3 = u64 [s1 + 0x150]\n 23704: t0 = 884, jump @1110\n      : @787 [@dyn 442] (gas: 8)\n 23710: u64 [a4 + 0x20] = a3\n 23713: u64 [a4 + 0x18] = a2\n 23716: u64 [a4 + 0x10] = a1\n 23719: u64 [a4 + 0x8] = a0\n 23722: a0 = s1 + 0x7ff\n 23726: a0 = a0 + 0x161\n 23730: a1 = s1 + 0x28e0\n 23734: ra = 886, jump @11\n      : @788 [@dyn 443] (gas: 25)\n 23740: a4 = s1 + 0x7ff\n 23744: a4 = a4 + 0xd9\n 23748: a3 = u64 [a4 + 0x88]\n 23752: a0 = u64 [a4 + 0x90]\n 23756: a1 = u64 [a4 + 0x98]\n 23760: a2 = u64 [a4 + 0xa0]\n 23764: a5 = u64 [s1 + 0x78]\n 23767: u64 [a4 + 0x40] = a5\n 23770: a5 = u64 [s1 + 0x40]\n 23773: u64 [a4 + 0x38] = a5\n 23776: a5 = u64 [s1 + 0x48]\n 23779: u64 [a4 + 0x30] = a5\n 23782: a5 = u64 [s1 + 0x80]\n 23786: u64 [a4 + 0x28] = a5\n 23789: u64 [a4 + 0x60] = a2\n 23792: u64 [a4 + 0x58] = a1\n 23795: u64 [a4 + 0x50] = a0\n 23798: a0 = s1 + 0x7ff\n 23802: a0 = a0 + 0x141\n 23806: a1 = s1 + 0x7ff\n 23810: a1 = a1 + 0x121\n 23814: a2 = s1 + 0x7ff\n 23818: a2 = a2 + 0x101\n 23822: u64 [a4 + 0x48] = a3\n 23825: ra = 888, jump @1080\n      : @789 [@dyn 444] (gas: 22)\n 23831: a5 = s1 + 0x7ff\n 23835: a5 = a5 + 0xd9\n 23839: a0 = u64 [a5 + 0x78]\n 23842: a1 = u64 [a5 + 0x80]\n 23846: a2 = u64 [a5 + 0x68]\n 23849: a3 = u64 [a5 + 0x70]\n 23852: a4 = u64 [s1 + 0x158]\n 23856: u64 [a4 + 0x10] = a0\n 23859: u64 [a4 + 0x18] = a1\n 23862: u64 [a4] = a2\n 23864: u64 [a4 + 0x8] = a3\n 23867: u64 [a5 + 32] = 0\n 23870: a0 = u64 [s1 + 0x68]\n 23873: u64 [a5 + 0x18] = a0\n 23876: a0 = u64 [s1 + 0x60]\n 23879: u64 [a5 + 0x10] = a0\n 23882: a1 = s1 + 0x7ff\n 23886: a1 = a1 + 0xe1\n 23890: a0 = u64 [s1 + 0x70]\n 23893: u64 [a5 + 0x8] = a0\n 23896: a0 = 0\n 23898: ra = 890, jump @9\n      : @790 [@dyn 445] (gas: 12)\n 23904: a0 = s1 + 0x7ff\n 23908: a0 = a0 + 0xd9\n 23912: u64 [a0 + 0] = 0\n 23914: u64 [a0 + 4294967288] = 0\n 23917: a1 = s1 + 0x1000\n 23921: u64 [a1 + 4294965440] = 0x1\n 23926: a0 = 0x20\n 23929: a1 = s1 + 0x7ff\n 23933: a1 = a1 + 0xc1\n 23937: a2 = s1 + 0x1000\n 23941: u64 [a2 + 4294965448] = 0\n 23945: ra = 892, jump @9\n      : @791 [@dyn 446] (gas: 3)\n 23951: a1 = 0x40\n 23954: a0 = 0\n 23956: ra = 894, jump @20\n      : @792 [@dyn 447] (gas: 4)\n 23962: a1 = sp + 0xffffffffffffffe0\n 23965: a1 = a1 & 0xffffffffffffffe0\n 23968: u64 [s1 + 0x150] = a1\n 23972: t0 = 896, jump @1117\n      : @793 [@dyn 448] (gas: 5)\n 23978: ra = 0x382\n 23982: ecalli 9 // 'hash_keccak_256'\n 23984: a3 = u64 [s1 + 0x150]\n 23988: t0 = 0x384\n 23992: jump @1110\n      : @794 [@dyn 449] (gas: 2)\n 23995: a3 = u64 [s1 + 0x150]\n 23999: t0 = 900, jump @1110\n      : @795 [@dyn 450] (gas: 7)\n 24005: u64 [a4 + 0x40] = a3\n 24008: u64 [a4 + 0x38] = a2\n 24011: u64 [a4 + 0x30] = a1\n 24014: u64 [a4 + 0x28] = a0\n 24017: a0 = s1 + 0x2900\n 24021: a1 = u64 [s1 + 0x158]\n 24025: ra = 902, jump @12\n      : @796 [@dyn 451] (gas: 1)\n 24031: ra = 904, jump @0\n      : @797 [@dyn 452] (gas: 27)\n 24037: a1 = u64 [0x30230]\n 24042: u64 [s1 + 0x110] = a1\n 24046: a1 = u64 [0x30228]\n 24051: u64 [s1 + 0x108] = a1\n 24055: a0 = u64 [0x30220]\n 24060: u64 [s1 + 0x118] = a0\n 24064: a0 = u64 [s1 + 0x90]\n 24068: a0 = a0 + 0x1\n 24071: a1 = a0 <u 0x1\n 24074: a2 = u64 [s1 + 0x98]\n 24078: a1 = a1 + a2\n 24081: a2 = a0 | a1\n 24084: a2 = a2 <u 0x1\n 24087: a3 = u64 [s1 + 0xa8]\n 24091: a2 = a2 + a3\n 24094: a3 = a2 <u a3\n 24097: a4 = u64 [s1 + 0xa0]\n 24101: a3 = a3 + a4\n 24104: a4 = s1 + 0x28d8\n 24108: u64 [a4 + 0x60] = a3\n 24111: u64 [a4 + 0x58] = a2\n 24114: u64 [a4 + 0x50] = a1\n 24117: u64 [a4 + 0x48] = a0\n 24120: a0 = s1 + 0x7ff\n 24124: a0 = a0 + 0xa1\n 24128: a1 = s1 + 0x2920\n 24132: ra = 906, jump @11\n      : @798 [@dyn 453] (gas: 13)\n 24138: a0 = s1 + 0x1000\n 24142: a0 = u64 [a0 + 0xfffffffffffff8b0]\n 24146: u64 [s1 + 0x100] = a0\n 24150: a0 = s1 + 0x1000\n 24154: a0 = u64 [a0 + 0xfffffffffffff8a8]\n 24158: u64 [s1 + 0xf8] = a0\n 24162: a0 = s1 + 0x1000\n 24166: a0 = u64 [a0 + 0xfffffffffffff8a0]\n 24170: u64 [s1 + 0xf0] = a0\n 24174: a0 = s1 + 0x7ff\n 24178: a0 = a0 + 0x81\n 24182: a1 = 0x40\n 24185: ra = 908, jump @7\n      : @799 [@dyn 454] (gas: 10)\n 24191: a0 = s1 + 0x1000\n 24195: a5 = u64 [a0 + 0xfffffffffffff898]\n 24199: a0 = s1 + 0x1000\n 24203: a4 = u64 [a0 + 0xfffffffffffff890]\n 24207: a0 = s1 + 0x1000\n 24211: a3 = u64 [a0 + 0xfffffffffffff888]\n 24215: a0 = s1 + 0x1000\n 24219: a0 = u64 [a0 + 0xfffffffffffff880]\n 24223: a2 = a3 | a5\n 24226: t0 = 910, jump @1152\n      : @800 [@dyn 455] (gas: 1)\n 24232: jump @848 if a1 != 0\n      : @801 (gas: 23)\n 24236: a1 = 0xffffffff\n 24246: a2 = u64 [s1 + 0xf0]\n 24250: a2 = a2 & 0xffffffffffffffff\n 24253: u64 [s1 + 0xf0] = a2\n 24257: a2 = u64 [s1 + 0xf8]\n 24261: a2 = a2 & 0xffffffffffffffff\n 24264: u64 [s1 + 0xf8] = a2\n 24268: u64 [s1 + 0xa0] = a1\n 24272: a2 = u64 [s1 + 0x100]\n 24276: a1 = a1 & a2\n 24279: u64 [s1 + 0x100] = a1\n 24283: a1 = s1 + 0x1000\n 24287: u64 [a1 + 4294965360] = 0\n 24291: a1 = s1 + 0x1000\n 24295: u64 [a1 + 4294965352] = 0\n 24299: a1 = s1 + 0x1000\n 24303: u64 [a1 + 4294965344] = 0\n 24307: a2 = 0xa9059cbb00000000\n 24317: a1 = s1 + 0x7ff\n 24321: a1 = a1 + 0x61\n 24324: t0 = s1 + 0x1000\n 24328: u64 [t0 + 0xfffffffffffff878] = a2\n 24332: t0 = 912, jump @1131\n      : @802 [@dyn 456] (gas: 1)\n 24338: ra = 914, jump @9\n      : @803 [@dyn 457] (gas: 3)\n 24344: a1 = u64 [s1 + 0x158]\n 24348: a0 = a1 + 0x4\n 24351: t0 = 916, jump @1133\n      : @804 [@dyn 458] (gas: 41)\n 24357: a1 = u64 [s1 + 0x148]\n 24361: a3 = a3 + a1\n 24364: a4 = a3 <u a1\n 24367: a1 = u64 [s1 + 0x140]\n 24371: a4 = a4 + a1\n 24374: a1 = u64 [s1 + 0x138]\n 24378: a5 = s1 + 0x700\n 24382: u64 [a5 + 0xf8] = a1\n 24386: a1 = u64 [s1 + 0x130]\n 24390: u64 [a5 + 0xf0] = a1\n 24394: a1 = u64 [s1 + 0x128]\n 24398: u64 [a5 + 0xe8] = a1\n 24402: a1 = u64 [s1 + 0x120]\n 24406: u64 [a5 + 0xe0] = a1\n 24410: a1 = u64 [s1 + 0x100]\n 24414: a5 = s1 + 0x1000\n 24418: u64 [a5 + 0xfffffffffffff810] = a1\n 24422: a1 = u64 [s1 + 0xf8]\n 24426: a5 = s1 + 0x1000\n 24430: u64 [a5 + 0xfffffffffffff808] = a1\n 24434: a1 = s1 + 0x1000\n 24438: u64 [a1 + 4294965272] = 0\n 24442: a1 = u64 [s1 + 0xf0]\n 24446: a5 = s1 + 0x1000\n 24450: u64 [a5 + 0xfffffffffffff800] = a1\n 24454: a1 = s1 + 0x1000\n 24458: u64 [a1 + 0xfffffffffffff828] = a2\n 24462: a1 = s1 + 0x1000\n 24466: u64 [a1 + 0xfffffffffffff820] = a0\n 24470: a0 = s1 + 0x1000\n 24474: u64 [a0 + 0xfffffffffffff830] = a3\n 24478: a0 = s1 + 0x7ff\n 24482: a0 = a0 + 0x41\n 24485: a1 = s1 + 0x7ff\n 24489: a1 = a1 + 0x21\n 24492: a2 = s1 + 0x7ff\n 24496: a2 = a2 + 0x1\n 24499: a3 = s1 + 0x7e0\n 24503: a5 = s1 + 0x1000\n 24507: u64 [a5 + 0xfffffffffffff838] = a4\n 24511: ra = 918, jump @1087\n      : @805 [@dyn 459] (gas: 32)\n 24517: a0 = s1 + 0x1000\n 24521: a0 = u64 [a0 + 0xfffffffffffff848]\n 24525: a1 = s1 + 0x1000\n 24529: t0 = u64 [a1 + 0xfffffffffffff858]\n 24533: a1 = s1 + 0x1000\n 24537: t1 = u64 [a1 + 0xfffffffffffff840]\n 24541: a1 = s1 + 0x1000\n 24545: a3 = u64 [a1 + 0xfffffffffffff850]\n 24549: a1 = u64 [s1 + 0x150]\n 24553: a4 = a0 ^ a1\n 24556: a5 = a0 <u a1\n 24559: ra = u64 [s1 + 0x158]\n 24563: t2 = t1 <u ra\n 24566: a5 = t2 if a4 == 0\n 24569: a2 = u64 [s1 + 0x148]\n 24573: a4 = a3 - a2\n 24576: a3 = a3 <u a2\n 24579: a2 = u64 [s1 + 0x140]\n 24583: a2 = t0 - a2\n 24586: a2 = a2 - a3\n 24589: a3 = a4 <u a5\n 24592: a2 = a2 - a3\n 24595: u64 [s1 + 0xf8] = a2\n 24599: a4 = a4 - a5\n 24602: u64 [s1 + 0xf0] = a4\n 24606: a0 = a0 - a1\n 24609: a0 = a0 - t2\n 24612: u64 [s1 + 0xa8] = a0\n 24616: a0 = t1 - ra\n 24619: u64 [s1 + 0x100] = a0\n 24623: ecalli 11 // 'ref_time_left'\n 24625: fallthrough\n      : @806 (gas: 36)\n 24626: a5 = s1 + 0x100\n 24630: a0 = u64 [a5 + 0x8]\n 24633: a0 = reverse a0\n 24635: a1 = a0 << 0x20\n 24638: a2 = u64 [a5 + 0x10]\n 24641: a2 = reverse a2\n 24643: a2 = a2 >> 0x20\n 24646: t0 = a2 | a1\n 24649: a1 = u64 [a5 + 0x18]\n 24652: a1 = reverse a1\n 24654: a2 = a1 << 0x20\n 24657: a3 = 0x30200\n 24662: a0 = a0 >> 0x20\n 24665: t2 = a2 | a0\n 24668: ra = a1 >> 0x20\n 24671: u64 [0x30208] = t2\n 24676: u64 [0x30200] = t0\n 24681: u32 [0x30210] = ra\n 24686: a4 = s1 + 0x28d8\n 24690: u64 [a4 + 128] = 0\n 24694: u64 [a4 + 120] = 0\n 24697: u64 [a4 + 112] = 0\n 24700: a0 = u64 [a5]\n 24702: t1 = a0\n 24704: a5 = u64 [s1 + 0xf0]\n 24708: a0 = a0 | a5\n 24711: a1 = u64 [s1 + 0xf8]\n 24715: a2 = u64 [s1 + 0xa8]\n 24719: a1 = a1 | a2\n 24722: a0 = a0 | a1\n 24725: a0 = a0 >> 0x20\n 24728: a1 = a1 | a5\n 24731: a1 = a1 << 0x20\n 24734: a0 = a0 | a1\n 24737: u64 [a4 + 104] = 0\n 24740: jump @848 if a0 != 0\n      : @807 (gas: 7)\n 24744: u64 [s1 + 0xf0] = t2\n 24748: u64 [s1 + 0xf8] = ra\n 24752: u64 [s1 + 0x108] = t0\n 24756: a0 = u64 [s1 + 0x158]\n 24760: a1 = t1\n 24762: u64 [s1 + 0x118] = a3\n 24766: ra = 920, jump @20\n      : @808 [@dyn 460] (gas: 4)\n 24772: u64 [s1 + 0x110] = a0\n 24776: a1 = 0x20\n 24779: a0 = u64 [s1 + 0x158]\n 24783: ra = 922, jump @20\n      : @809 [@dyn 461] (gas: 35)\n 24789: a2 = s1 + 0x28d8\n 24793: u32 [a2 + 136] = 0x20\n 24798: u64 [a2 + 192] = 0xffffffffffffffff\n 24803: u64 [a2 + 184] = 0xffffffffffffffff\n 24808: u64 [a2 + 176] = 0xffffffffffffffff\n 24813: u64 [a2 + 168] = 0xffffffffffffffff\n 24818: a5 = s1 + 0x100\n 24822: a1 = u64 [a5 + 0x18]\n 24825: a1 = a1 << 0x20\n 24828: a1 = a1 >> 0x20\n 24831: a2 = 0x800000000\n 24841: t0 = a1 | a2\n 24844: a1 = s1 + 0x2940\n 24848: a1 = a1 << 0x20\n 24851: a1 = a1 >> 0x20\n 24854: a2 = s1 + 0x2980\n 24858: a2 = a2 << 0x20\n 24861: a3 = a2 | a1\n 24864: a1 = u64 [a5 + 0x10]\n 24867: a1 = a1 << 0x20\n 24870: a1 = a1 >> 0x20\n 24873: a4 = u64 [a5]\n 24875: a4 = a4 << 0x20\n 24878: a4 = a4 | a1\n 24881: a0 = a0 << 0x20\n 24884: a0 = a0 >> 0x20\n 24887: a1 = s1 + 0x2960\n 24891: a1 = a1 << 0x20\n 24894: a5 = a1 | a0\n 24897: a1 = 0xffffffffffffffff\n 24900: a2 = 0xffffffffffffffff\n 24903: u64 [s1 + 0x110] = t0\n 24907: a0 = t0\n 24909: ecalli 1 // 'call'\n 24911: fallthrough\n      : @810 (gas: 1)\n 24912: jump @838 if a0 != 0\n      : @811 (gas: 2)\n 24916: ecalli 13 // 'return_data_size'\n 24918: fallthrough\n      : @812 (gas: 2)\n 24919: a1 = 0x20\n 24922: jump @814 if a0 >=u a1\n      : @813 (gas: 3)\n 24925: ecalli 13 // 'return_data_size'\n 24927: a1 = a0\n 24929: fallthrough\n      : @814 (gas: 17)\n 24930: a2 = u64 [s1 + 0x158]\n 24934: a3 = u64 [s1 + 0x150]\n 24938: a4 = u64 [s1 + 0x148]\n 24942: a5 = u64 [s1 + 0x140]\n 24946: u64 [s1 + 0xa8] = a1\n 24950: u64 [s1 + 256] = 0\n 24954: u64 [s1 + 0x780] = a1\n 24958: u64 [s1 + 0x7a0] = a2\n 24962: u64 [s1 + 1928] = 0\n 24966: u64 [s1 + 0x7a8] = a3\n 24970: u64 [s1 + 1936] = 0\n 24974: u64 [s1 + 0x7b0] = a4\n 24978: u64 [s1 + 1944] = 0\n 24982: a0 = s1 + 0x7a0\n 24986: a1 = s1 + 0x780\n 24990: u64 [s1 + 0x7b8] = a5\n 24994: ra = 924, jump @987\n      : @815 [@dyn 462] (gas: 32)\n 25000: t0 = u64 [s1 + 0x158]\n 25004: a0 = u64 [s1 + 0xa8]\n 25008: ra = a0 + t0\n 25011: a1 = ra <u a0\n 25014: t1 = u64 [s1 + 0x150]\n 25018: a5 = u64 [s1 + 0x100]\n 25022: a2 = a5 + t1\n 25025: a2 = a2 + a1\n 25028: a3 = a2 ^ a5\n 25031: a4 = a2 <u a5\n 25034: a4 = a1 if a3 == 0\n 25037: a3 = u64 [s1 + 0x148]\n 25041: a1 = a5 + a3\n 25044: a4 = a4 + a1\n 25047: t2 = a4 <u a1\n 25050: a1 = a1 <u a5\n 25053: a0 = u64 [s1 + 0x140]\n 25057: a5 = a5 + a0\n 25060: a1 = a1 + a5\n 25063: t2 = t2 + a1\n 25066: u64 [s1 + 0x730] = a4\n 25070: u64 [s1 + 0x728] = a2\n 25074: u64 [s1 + 0x720] = ra\n 25078: u64 [s1 + 0x758] = a0\n 25082: u64 [s1 + 0x750] = a3\n 25086: u64 [s1 + 0x748] = t1\n 25090: u64 [s1 + 0x740] = t0\n 25094: a0 = s1 + 0x760\n 25098: a1 = s1 + 0x740\n 25102: a2 = s1 + 0x720\n 25106: u64 [s1 + 0x738] = t2\n 25110: ra = 926, jump @997\n      : @816 [@dyn 463] (gas: 9)\n 25116: a4 = s1 + 0x700\n 25120: a0 = u64 [a4 + 0x70]\n 25123: a1 = u64 [a4 + 0x78]\n 25126: a2 = u64 [a4 + 0x68]\n 25129: a3 = u64 [a4 + 0x60]\n 25132: a1 = a1 | a2\n 25135: a0 = a0 | a3\n 25138: a0 = a0 | a1\n 25141: jump @849 if a0 != 0\n      : @817 (gas: 3)\n 25145: a0 = s1 + 0x320\n 25149: a1 = 0x40\n 25152: ra = 928, jump @7\n      : @818 [@dyn 464] (gas: 6)\n 25158: a1 = s1 + 0x300\n 25162: a4 = u64 [a1 + 0x38]\n 25165: a5 = u64 [a1 + 0x30]\n 25168: a3 = u64 [a1 + 0x28]\n 25171: a0 = u64 [a1 + 0x20]\n 25174: t0 = 930, jump @1144\n      : @819 [@dyn 465] (gas: 1)\n 25180: jump @848 if a1 != 0\n      : @820 (gas: 7)\n 25184: u64 [s1 + 784] = 0\n 25188: u64 [s1 + 776] = 0\n 25192: u64 [s1 + 768] = 0\n 25196: a2 = 0x8c379a000000000\n 25206: a1 = s1 + 0x300\n 25210: u64 [s1 + 0x318] = a2\n 25214: t0 = 932, jump @1131\n      : @821 [@dyn 466] (gas: 1)\n 25220: ra = 934, jump @9\n      : @822 [@dyn 467] (gas: 12)\n 25226: a4 = s1 + 0x100\n 25230: a2 = u64 [a4 + 0x50]\n 25233: a1 = u64 [a4 + 0x58]\n 25236: a0 = u64 [a4 + 0x48]\n 25239: a3 = u64 [a4 + 0x40]\n 25242: a3 = a3 | a0\n 25245: a4 = 0x100000000\n 25255: a0 = 0xfffffffc\n 25265: a0 = a1 <u a0\n 25268: a0 = 0 if a2 != 0\n 25270: a0 = 0 if a3 != 0\n 25272: jump @848 if a0 == 0\n      : @823 (gas: 9)\n 25276: i32 a0 = a1 + 0x4\n 25279: u64 [s1 + 760] = 0\n 25283: u64 [s1 + 752] = 0\n 25287: u64 [s1 + 736] = 0x20\n 25292: a1 = s1 + 0x2e0\n 25296: u64 [s1 + 744] = 0\n 25300: u64 [s1 + 0x148] = a3\n 25304: u64 [s1 + 0x140] = a4\n 25308: ra = 936, jump @9\n      : @824 [@dyn 468] (gas: 5)\n 25314: a3 = s1 + 0x100\n 25318: a2 = u64 [a3 + 0x58]\n 25321: a0 = u64 [a3 + 0x40]\n 25324: a0 = a0 + 0xffffffffffffffdc\n 25327: t0 = 938, jump @1135\n      : @825 [@dyn 469] (gas: 1)\n 25333: jump @848 if a0 == 0\n      : @826 (gas: 7)\n 25337: i32 a0 = a2 + 0x24\n 25340: u64 [s1 + 728] = 0\n 25344: u64 [s1 + 720] = 0\n 25348: u64 [s1 + 704] = 0x1b\n 25353: a1 = s1 + 0x2c0\n 25357: u64 [s1 + 712] = 0\n 25361: ra = 940, jump @9\n      : @827 [@dyn 470] (gas: 1)\n 25367: t0 = 942, jump @1138\n      : @828 [@dyn 471] (gas: 1)\n 25373: jump @848 if a0 == 0\n      : @829 (gas: 14)\n 25377: a0 = u64 [s1 + 0x158]\n 25381: i32 a0 = a0 + 0x44\n 25384: a1 = u64 [0x20130]\n 25389: a2 = u64 [0x20160]\n 25394: a3 = u64 [0x20168]\n 25399: a4 = s1 + 0x200\n 25403: u64 [a4 + 0xb8] = a1\n 25407: u64 [a4 + 0xb0] = a2\n 25411: u64 [a4 + 0xa8] = a3\n 25415: a2 = 0x6c65640000000000\n 25425: a1 = s1 + 0x2a0\n 25429: u64 [a4 + 0xa0] = a2\n 25433: ra = 0x408\n 25437: jump @9\n      : @830 (gas: 3)\n 25440: a0 = s1 + 0x2240\n 25444: a1 = 0x40\n 25447: ra = 944, jump @7\n      : @831 [@dyn 472] (gas: 14)\n 25453: a0 = s1 + 0x20d8\n 25457: a2 = a0 + 0x100\n 25461: a1 = u64 [a2 + 0x80]\n 25465: u64 [s1 + 0x150] = a1\n 25469: a1 = u64 [a2 + 0x78]\n 25472: u64 [s1 + 0x148] = a1\n 25476: a1 = u64 [a2 + 0x70]\n 25479: u64 [s1 + 0x140] = a1\n 25483: a0 = u64 [a2 + 0x68]\n 25486: u64 [s1 + 0x158] = a0\n 25490: ra = 0x3b2\n 25494: ecalli 13 // 'return_data_size'\n 25496: t0 = 0x3b4\n 25500: jump @1123\n      : @832 [@dyn 473] (gas: 1)\n 25503: t0 = 948, jump @1123\n      : @833 [@dyn 474] (gas: 1)\n 25509: jump @848 if a1 != 0\n      : @834 (gas: 3)\n 25513: a2 = a0\n 25515: a0 = a0 >> 0x20\n 25518: jump @848 if a0 != 0\n      : @835 (gas: 1)\n 25522: t0 = 950, jump @1141\n      : @836 [@dyn 475] (gas: 1)\n 25528: ra = 952, jump @20\n      : @837 [@dyn 476] (gas: 11)\n 25534: a1 = s1 + 0x28d8\n 25538: a2 = u64 [s1 + 0x148]\n 25542: u32 [a1 + 0x7a8] = a2\n 25546: i32 a0 = a0 + 0\n 25548: a1 = s1 + 0x3000\n 25552: i32 a1 = a1 + 0x80\n 25556: a2 = 0\n 25558: ecalli 12 // 'return_data_copy'\n 25560: a0 = s1 + 0x28d8\n 25564: a0 = i32 [a0 + 0x7a8]\n 25568: jump @767\n      : @838 (gas: 3)\n 25571: a0 = s1 + 0x7c0\n 25575: a1 = 0x40\n 25578: ra = 954, jump @7\n      : @839 [@dyn 477] (gas: 13)\n 25584: a1 = s1 + 0x700\n 25588: a0 = u64 [a1 + 0xd8]\n 25592: u64 [s1 + 0x150] = a0\n 25596: a0 = u64 [a1 + 0xd0]\n 25600: u64 [s1 + 0x148] = a0\n 25604: a0 = u64 [a1 + 0xc8]\n 25608: u64 [s1 + 0x140] = a0\n 25612: a0 = u64 [a1 + 0xc0]\n 25616: u64 [s1 + 0x158] = a0\n 25620: ra = 0x3bc\n 25624: ecalli 13 // 'return_data_size'\n 25626: t0 = 0x3be\n 25630: jump @1123\n      : @840 [@dyn 478] (gas: 1)\n 25633: t0 = 958, jump @1123\n      : @841 [@dyn 479] (gas: 1)\n 25639: jump @848 if a1 != 0\n      : @842 (gas: 3)\n 25643: a2 = a0\n 25645: a0 = a0 >> 0x20\n 25648: jump @848 if a0 != 0\n      : @843 (gas: 1)\n 25652: t0 = 960, jump @1141\n      : @844 [@dyn 480] (gas: 1)\n 25658: ra = 962, jump @20\n      : @845 [@dyn 481] (gas: 11)\n 25664: a1 = s1 + 0x28d8\n 25668: a2 = u64 [s1 + 0x148]\n 25672: u32 [a1 + 0xc8] = a2\n 25676: i32 a0 = a0 + 0\n 25678: a1 = s1 + 0x3000\n 25682: i32 a1 = a1 + 0xfffffffffffff9a0\n 25686: a2 = 0\n 25688: ecalli 12 // 'return_data_copy'\n 25690: a0 = s1 + 0x28d8\n 25694: a0 = i32 [a0 + 0xc8]\n 25698: jump @767\n      : @846 (gas: 30)\n 25701: a0 = u64 [s1 + 0xf0]\n 25705: t2 = u64 [s1 + 0x150]\n 25709: t0 = t2 <u a0\n 25712: a5 = u64 [s1 + 0xe8]\n 25716: a1 = u64 [s1 + 0x148]\n 25720: a3 = a1 ^ a5\n 25723: a2 = a1 <u a5\n 25726: a2 = t0 if a3 == 0\n 25729: a3 = u64 [s1 + 0xd8]\n 25733: a4 = u64 [s1 + 0x140]\n 25737: ra = a4 - a3\n 25740: t1 = a4 <u a3\n 25743: a4 = u64 [s1 + 0xe0]\n 25747: a3 = u64 [s1 + 0x158]\n 25751: a4 = a3 - a4\n 25754: a4 = a4 - t1\n 25757: a3 = ra <u a2\n 25760: a3 = a4 - a3\n 25763: a4 = ra - a2\n 25766: a2 = a1 - a5\n 25769: a2 = a2 - t0\n 25772: a1 = t2 - a0\n 25775: a2 = a2 | a3\n 25778: a3 = a1 | a4\n 25781: a3 = a3 | a2\n 25784: a2 = a2 | a4\n 25787: a3 = a3 >> 0x20\n 25790: a2 = a2 << 0x20\n 25793: a2 = a2 | a3\n 25796: jump @848 if a2 != 0\n      : @847 (gas: 1)\n 25799: jump @368\n      : @848 (gas: 1)\n 25802: trap\n      : @849 (gas: 16)\n 25803: a2 = u64 [s1 + 0x58]\n 25806: a0 = a2 >> 0x4\n 25809: a3 = u64 [s1 + 0x38]\n 25812: a1 = a3 << 0x3c\n 25815: a0 = a0 | a1\n 25818: a1 = u64 [s1 + 0x50]\n 25821: a1 = a1 >> 0x4\n 25824: a2 = a2 << 0x3c\n 25827: a1 = a1 | a2\n 25830: a1 = a1 <u 0x271\n 25834: a1 = 0 if a0 != 0\n 25836: a0 = a3 >> 0x4\n 25839: a2 = u64 [s1 + 0x30]\n 25842: a0 = a0 | a2\n 25845: a1 = 0 if a0 != 0\n 25847: jump @875 if a1 == 0\n      : @850 (gas: 3)\n 25851: a0 = s1 + 0x4e0\n 25855: a1 = 0x40\n 25858: ra = 964, jump @7\n      : @851 [@dyn 482] (gas: 13)\n 25864: a0 = s1 + 0x400\n 25868: a4 = u64 [a0 + 0xf8]\n 25872: a5 = u64 [a0 + 0xf0]\n 25876: a3 = u64 [a0 + 0xe8]\n 25880: a2 = u64 [a0 + 0xe0]\n 25884: a0 = a3 | a4\n 25887: a1 = a2 | a5\n 25890: a1 = a1 | a0\n 25893: a1 = a1 >> 0x20\n 25896: a0 = a0 | a5\n 25899: a0 = a0 << 0x20\n 25902: a0 = a0 | a1\n 25905: jump @848 if a0 != 0\n      : @852 (gas: 15)\n 25908: a0 = u64 [s1 + 0x120]\n 25912: u64 [s1 + 0x4c0] = a0\n 25916: a0 = u64 [s1 + 0x128]\n 25920: u64 [s1 + 0x4c8] = a0\n 25924: a0 = u64 [s1 + 0x130]\n 25928: u64 [s1 + 0x4d0] = a0\n 25932: a1 = s1 + 0x4c0\n 25936: a0 = u64 [s1 + 0x138]\n 25940: u64 [s1 + 0x4d8] = a0\n 25944: a0 = a2\n 25946: u64 [s1 + 0x158] = a2\n 25950: u64 [s1 + 0x150] = a3\n 25954: u64 [s1 + 0x148] = a4\n 25958: u64 [s1 + 0x140] = a5\n 25962: ra = 966, jump @9\n      : @853 [@dyn 483] (gas: 11)\n 25968: a4 = s1 + 0x100\n 25972: a2 = u64 [a4 + 0x58]\n 25975: a0 = u64 [a4 + 0x48]\n 25978: a1 = u64 [a4 + 0x40]\n 25981: a0 = a0 | a1\n 25984: a1 = 0xffffffe0\n 25994: a1 = a2 <u a1\n 25997: a3 = u64 [a4 + 0x50]\n 26000: a1 = 0 if a3 != 0\n 26002: a1 = 0 if a0 != 0\n 26004: jump @848 if a1 == 0\n      : @854 (gas: 11)\n 26008: i32 a0 = a2 + 0x20\n 26011: a1 = u64 [s1 + 0x20]\n 26014: u64 [s1 + 0x4a0] = a1\n 26018: a1 = u64 [s1 + 0x28]\n 26021: u64 [s1 + 0x4a8] = a1\n 26025: a1 = u64 [s1 + 0xe0]\n 26029: u64 [s1 + 0x4b0] = a1\n 26033: a1 = s1 + 0x4a0\n 26037: a2 = u64 [s1 + 0xe8]\n 26041: u64 [s1 + 0x4b8] = a2\n 26045: ra = 968, jump @9\n      : @855 [@dyn 484] (gas: 6)\n 26051: a0 = i32 [s1 + 0x118]\n 26055: ra = 0x3ca\n 26059: ecalli 5 // 'caller'\n 26061: a2 = u64 [s1 + 0x118]\n 26065: t0 = 0x3cc\n 26069: jump @1125\n      : @856 [@dyn 485] (gas: 2)\n 26072: a2 = u64 [s1 + 0x118]\n 26076: t0 = 972, jump @1125\n      : @857 [@dyn 486] (gas: 48)\n 26082: t0 = a1 | a0\n 26085: a3 = a3 >> 0x20\n 26088: a2 = reverse a2\n 26090: a1 = a2 << 0x20\n 26093: a1 = a1 | a3\n 26096: a2 = a2 >> 0x20\n 26099: u64 [s1 + 1112] = 0\n 26103: a0 = u64 [s1 + 0xb0]\n 26107: u64 [s1 + 0x478] = a0\n 26111: a0 = u64 [s1 + 0xb8]\n 26115: u64 [s1 + 0x470] = a0\n 26119: a0 = u64 [s1 + 0xc0]\n 26123: u64 [s1 + 0x468] = a0\n 26127: a0 = u64 [s1 + 0xc8]\n 26131: u64 [s1 + 0x460] = a0\n 26135: a3 = u64 [0x20140]\n 26140: a4 = u64 [0x20148]\n 26145: a5 = u64 [0x20150]\n 26150: a0 = u64 [0x20158]\n 26155: u64 [s1 + 0x498] = a3\n 26159: u64 [s1 + 0x490] = a4\n 26163: u64 [s1 + 0x488] = a5\n 26167: u64 [s1 + 0x480] = a0\n 26171: u64 [s1 + 0x450] = a2\n 26175: u64 [s1 + 0x448] = a1\n 26179: a1 = 0x40\n 26182: a2 = s1 + 0x480\n 26186: a3 = s1 + 0x460\n 26190: a4 = s1 + 0x440\n 26194: u64 [s1 + 0x440] = t0\n 26198: a0 = u64 [s1 + 0x158]\n 26202: ra = 0x3ce\n 26206: sp = sp + 0xffffffffffffff20\n 26210: u64 [sp + 0xd8] = ra\n 26214: u64 [sp + 0xd0] = s0\n 26218: u64 [sp + 0xc8] = s1\n 26222: s0 = sp + 0xe0\n 26226: sp = sp & 0xffffffffffffffe0\n 26229: a5 = u64 [a4]\n 26231: u64 [sp + 0x40] = a5\n 26234: a5 = u64 [a4 + 0x8]\n 26237: u64 [sp + 0x48] = a5\n 26240: a5 = u64 [a4 + 0x10]\n 26243: u64 [sp + 0x50] = a5\n 26246: a4 = u64 [a4 + 0x18]\n 26249: u64 [sp + 0x58] = a4\n 26252: t0 = 0x8\n 26255: jump @1139\n      : @858 [@dyn 487] (gas: 3)\n 26258: a0 = s1 + 0x420\n 26262: a1 = u64 [s1 + 0xd0]\n 26266: ra = 976, jump @11\n      : @859 [@dyn 488] (gas: 15)\n 26272: a4 = s1 + 0x400\n 26276: a0 = u64 [a4 + 0x20]\n 26279: a1 = u64 [a4 + 0x28]\n 26282: a2 = u64 [a4 + 0x30]\n 26285: a0 = a0 & 0xffffffffffffffff\n 26288: a1 = a1 & 0xffffffffffffffff\n 26291: a3 = u64 [s1 + 0xa0]\n 26295: a2 = a2 & a3\n 26298: u64 [s1 + 1048] = 0\n 26302: u64 [a4 + 0x10] = a2\n 26305: u64 [a4 + 0x8] = a1\n 26308: a1 = s1 + 0x400\n 26312: u64 [a4] = a0\n 26314: a0 = 0\n 26316: ra = 978, jump @9\n      : @860 [@dyn 489] (gas: 7)\n 26322: u64 [s1 + 1016] = 0\n 26326: u64 [s1 + 1008] = 0\n 26330: u64 [s1 + 992] = 0x1\n 26335: a0 = 0x20\n 26338: a1 = s1 + 0x3e0\n 26342: u64 [s1 + 1000] = 0\n 26346: ra = 980, jump @9\n      : @861 [@dyn 490] (gas: 3)\n 26352: a1 = 0x40\n 26355: a0 = 0\n 26357: ra = 982, jump @20\n      : @862 [@dyn 491] (gas: 4)\n 26363: a1 = sp + 0xffffffffffffffe0\n 26366: a1 = a1 & 0xffffffffffffffe0\n 26369: u64 [s1 + 0x158] = a1\n 26373: t0 = 984, jump @1117\n      : @863 [@dyn 492] (gas: 5)\n 26379: ra = 0x3da\n 26383: ecalli 9 // 'hash_keccak_256'\n 26385: a3 = u64 [s1 + 0x158]\n 26389: t0 = 0x3dc\n 26393: jump @1110\n      : @864 [@dyn 493] (gas: 2)\n 26396: a3 = u64 [s1 + 0x158]\n 26400: t0 = 988, jump @1110\n      : @865 [@dyn 494] (gas: 8)\n 26406: a5 = a4 + 0x100\n 26410: u64 [a5 + 0x80] = a3\n 26414: u64 [a5 + 0x78] = a2\n 26417: u64 [a5 + 0x70] = a1\n 26420: u64 [a5 + 0x68] = a0\n 26423: a0 = s1 + 0x3c0\n 26427: a1 = s1 + 0x2a40\n 26431: ra = 990, jump @11\n      : @866 [@dyn 495] (gas: 11)\n 26437: a0 = u64 [s1 + 0x3c0]\n 26441: u64 [s1 + 0x158] = a0\n 26445: a0 = u64 [s1 + 0x3c8]\n 26449: u64 [s1 + 0x150] = a0\n 26453: a0 = u64 [s1 + 0x3d0]\n 26457: u64 [s1 + 0x148] = a0\n 26461: a0 = u64 [s1 + 0x3d8]\n 26465: u64 [s1 + 0x140] = a0\n 26469: a0 = s1 + 0x3a0\n 26473: a1 = u64 [s1 + 0x10]\n 26476: ra = 992, jump @11\n      : @867 [@dyn 496] (gas: 21)\n 26482: a1 = s1 + 0x300\n 26486: a0 = u64 [a1 + 0xb8]\n 26490: t0 = u64 [s1 + 0x3a0]\n 26494: a2 = u64 [a1 + 0xb0]\n 26498: a3 = u64 [a1 + 0xa8]\n 26502: a1 = u64 [s1 + 0x140]\n 26506: a4 = a1 ^ a0\n 26509: a1 = a1 <u a0\n 26512: a0 = u64 [s1 + 0x148]\n 26516: a5 = a0 <u a2\n 26519: a5 = a1 if a4 != 0\n 26522: a1 = u64 [s1 + 0x150]\n 26526: t1 = a1 ^ a3\n 26529: a3 = a1 <u a3\n 26532: a1 = u64 [s1 + 0x158]\n 26536: a1 = a1 <u t0\n 26539: a1 = a3 if t1 != 0\n 26542: a0 = a0 ^ a2\n 26545: a0 = a0 | a4\n 26548: a1 = a5 if a0 != 0\n 26551: jump @870 if a1 == 0\n      : @868 (gas: 3)\n 26554: a0 = s1 + 0x380\n 26558: a1 = u64 [s1 + 0x88]\n 26562: ra = 994, jump @11\n      : @869 [@dyn 497] (gas: 15)\n 26568: a4 = s1 + 0x300\n 26572: a0 = u64 [a4 + 0x80]\n 26576: a1 = u64 [a4 + 0x98]\n 26580: a2 = u64 [a4 + 0x90]\n 26584: a3 = u64 [a4 + 0x88]\n 26588: a0 = a0 & 0xffffffffffffff00\n 26592: a4 = s1 + 0x28d8\n 26596: a5 = a4 + 0x100\n 26600: u64 [a5 + 0xa0] = a1\n 26604: u64 [a5 + 0x98] = a2\n 26608: u64 [a5 + 0x90] = a3\n 26612: u64 [a5 + 0x88] = a0\n 26616: a1 = s1 + 0x2a60\n 26620: a0 = u64 [s1 + 0x88]\n 26624: ra = 996, jump @12\n      : @870 [@dyn 498] (gas: 3)\n 26630: a0 = u64 [s1 + 0xd8]\n 26634: a1 = u64 [s1 + 0x18]\n 26637: ra = 998, jump @12\n      : @871 [@dyn 499] (gas: 3)\n 26643: a0 = s1 + 0x360\n 26647: a1 = 0x40\n 26650: ra = 1000, jump @7\n      : @872 [@dyn 500] (gas: 6)\n 26656: a3 = s1 + 0x300\n 26660: a0 = u64 [a3 + 0x78]\n 26663: a1 = u64 [a3 + 0x70]\n 26666: a2 = u64 [a3 + 0x68]\n 26669: a4 = u64 [a3 + 0x60]\n 26672: t0 = 1002, jump @1122\n      : @873 [@dyn 501] (gas: 1)\n 26678: jump @848 if a0 != 0\n      : @874 (gas: 10)\n 26682: a3 = a4\n 26684: u64 [s1 + 856] = 0\n 26688: u64 [s1 + 848] = 0\n 26692: u64 [s1 + 840] = 0\n 26696: a1 = s1 + 0x340\n 26700: u64 [s1 + 832] = 0x1\n 26705: a0 = a3\n 26707: u64 [s1 + 0x158] = a3\n 26711: ra = 0x112\n 26715: jump @9\n      : @875 (gas: 3)\n 26718: a0 = s1 + 0x700\n 26722: a1 = 0x40\n 26725: ra = 1004, jump @7\n      : @876 [@dyn 502] (gas: 7)\n 26731: a1 = s1 + 0x700\n 26735: a5 = u64 [a1 + 0x18]\n 26738: a4 = u64 [a1 + 0x10]\n 26741: a3 = u64 [a1 + 0x8]\n 26744: a0 = u64 [a1]\n 26746: a2 = a3 | a5\n 26749: t0 = 1006, jump @1152\n      : @877 [@dyn 503] (gas: 1)\n 26755: jump @848 if a1 != 0\n      : @878 (gas: 7)\n 26759: u64 [s1 + 1776] = 0\n 26763: u64 [s1 + 1768] = 0\n 26767: u64 [s1 + 1760] = 0\n 26771: a2 = 0xa9059cbb00000000\n 26781: a1 = s1 + 0x6e0\n 26785: u64 [s1 + 0x6f8] = a2\n 26789: t0 = 1008, jump @1131\n      : @879 [@dyn 504] (gas: 1)\n 26795: ra = 1010, jump @9\n      : @880 [@dyn 505] (gas: 49)\n 26801: a0 = i32 [s1 + 0x118]\n 26805: ecalli 5 // 'caller'\n 26807: a2 = u64 [s1 + 0x118]\n 26811: a0 = u64 [a2 + 0x8]\n 26814: a1 = i32 [a2 + 0x10]\n 26817: a2 = u64 [a2]\n 26819: a0 = reverse a0\n 26821: a3 = a0 << 0x20\n 26824: a1 = reverse a1\n 26826: a1 = a1 >> 0x20\n 26829: t0 = a1 | a3\n 26832: a0 = a0 >> 0x20\n 26835: a1 = reverse a2\n 26837: a2 = a1 << 0x20\n 26840: t1 = a2 | a0\n 26843: a1 = a1 >> 0x20\n 26846: a0 = u64 [s1 + 0x158]\n 26850: a2 = a0 + 0x4\n 26853: a3 = a2 <u a0\n 26856: a0 = u64 [s1 + 0x150]\n 26860: a5 = a0 + a3\n 26863: a4 = a5 <u a0\n 26866: a4 = a3 if a3 == 0\n 26869: a0 = u64 [s1 + 0x148]\n 26873: a4 = a4 + a0\n 26876: a3 = a4 <u a0\n 26879: a0 = u64 [s1 + 0x140]\n 26883: a3 = a3 + a0\n 26886: a0 = u64 [s1 + 0xe8]\n 26890: u64 [s1 + 0x678] = a0\n 26894: a0 = u64 [s1 + 0xe0]\n 26898: u64 [s1 + 0x670] = a0\n 26902: a0 = u64 [s1 + 0x28]\n 26905: u64 [s1 + 0x668] = a0\n 26909: a0 = u64 [s1 + 0x20]\n 26912: u64 [s1 + 0x660] = a0\n 26916: u64 [s1 + 1688] = 0\n 26920: u64 [s1 + 0x6b8] = a3\n 26924: u64 [s1 + 0x6b0] = a4\n 26928: u64 [s1 + 0x6a8] = a5\n 26932: u64 [s1 + 0x6a0] = a2\n 26936: u64 [s1 + 0x690] = a1\n 26940: u64 [s1 + 0x688] = t1\n 26944: a0 = s1 + 0x6c0\n 26948: a1 = s1 + 0x6a0\n 26952: a2 = s1 + 0x680\n 26956: a3 = s1 + 0x660\n 26960: u64 [s1 + 0x680] = t0\n 26964: ra = 1012, jump @1087\n      : @881 [@dyn 506] (gas: 28)\n 26970: a0 = u64 [s1 + 0x6c8]\n 26974: t0 = u64 [s1 + 0x6d8]\n 26978: t1 = u64 [s1 + 0x6c0]\n 26982: a3 = u64 [s1 + 0x6d0]\n 26986: a1 = u64 [s1 + 0x150]\n 26990: a4 = a0 ^ a1\n 26993: a5 = a0 <u a1\n 26996: ra = u64 [s1 + 0x158]\n 27000: t2 = t1 <u ra\n 27003: a5 = t2 if a4 == 0\n 27006: a2 = u64 [s1 + 0x148]\n 27010: a4 = a3 - a2\n 27013: a3 = a3 <u a2\n 27016: a2 = u64 [s1 + 0x140]\n 27020: a2 = t0 - a2\n 27023: a2 = a2 - a3\n 27026: a3 = a4 <u a5\n 27029: a2 = a2 - a3\n 27032: u64 [s1 + 0xa8] = a2\n 27036: a4 = a4 - a5\n 27039: u64 [s1 + 0x98] = a4\n 27043: a0 = a0 - a1\n 27046: a0 = a0 - t2\n 27049: u64 [s1 + 0x90] = a0\n 27053: a0 = t1 - ra\n 27056: u64 [s1 + 0x100] = a0\n 27060: ecalli 11 // 'ref_time_left'\n 27062: fallthrough\n      : @882 (gas: 26)\n 27063: a0 = u64 [s1 + 0xf0]\n 27067: a2 = s1 + 0x100\n 27071: a1 = u64 [a2 + 0x18]\n 27074: u64 [a1 + 0x8] = a0\n 27077: a0 = u64 [a2 + 0x8]\n 27080: u64 [a1] = a0\n 27082: a0 = u64 [s1 + 0xf8]\n 27086: u32 [a1 + 0x10] = a0\n 27089: a3 = s1 + 0x28d8\n 27093: u64 [a3 + 256] = 0\n 27097: u64 [a3 + 248] = 0\n 27101: u64 [a3 + 240] = 0\n 27105: a0 = u64 [a2]\n 27107: a2 = a0\n 27109: a4 = u64 [s1 + 0x98]\n 27113: a0 = a0 | a4\n 27116: a1 = u64 [s1 + 0xa8]\n 27120: a5 = u64 [s1 + 0x90]\n 27124: a1 = a1 | a5\n 27127: a0 = a0 | a1\n 27130: a0 = a0 >> 0x20\n 27133: a1 = a1 | a4\n 27136: a1 = a1 << 0x20\n 27139: a0 = a0 | a1\n 27142: u64 [a3 + 232] = 0\n 27146: jump @848 if a0 != 0\n      : @883 (gas: 3)\n 27150: a0 = u64 [s1 + 0x158]\n 27154: a1 = a2\n 27156: ra = 1014, jump @20\n      : @884 [@dyn 507] (gas: 4)\n 27162: u64 [s1 + 0x108] = a0\n 27166: a1 = 0x20\n 27169: a0 = u64 [s1 + 0x158]\n 27173: ra = 1016, jump @20\n      : @885 [@dyn 508] (gas: 29)\n 27179: a2 = s1 + 0x28d8\n 27183: a3 = a2 + 0x100\n 27187: u32 [a3 + 8] = 0x20\n 27191: u64 [a3 + 64] = 0xffffffffffffffff\n 27195: u64 [a3 + 56] = 0xffffffffffffffff\n 27199: u64 [a3 + 48] = 0xffffffffffffffff\n 27203: u64 [a3 + 40] = 0xffffffffffffffff\n 27207: a1 = s1 + 0x29c0\n 27211: a1 = a1 << 0x20\n 27214: a1 = a1 >> 0x20\n 27217: a2 = s1 + 0x2a00\n 27221: a2 = a2 << 0x20\n 27224: a3 = a2 | a1\n 27227: a1 = u64 [s1 + 0x108]\n 27231: a1 = a1 << 0x20\n 27234: a1 = a1 >> 0x20\n 27237: a4 = u64 [s1 + 0x100]\n 27241: a4 = a4 << 0x20\n 27244: a4 = a4 | a1\n 27247: a0 = a0 << 0x20\n 27250: a0 = a0 >> 0x20\n 27253: a1 = s1 + 0x29e0\n 27257: a1 = a1 << 0x20\n 27260: a5 = a1 | a0\n 27263: a1 = 0xffffffffffffffff\n 27266: a2 = 0xffffffffffffffff\n 27269: a0 = u64 [s1 + 0x110]\n 27273: ecalli 1 // 'call'\n 27275: fallthrough\n      : @886 (gas: 1)\n 27276: jump @905 if a0 != 0\n      : @887 (gas: 2)\n 27280: ecalli 13 // 'return_data_size'\n 27282: fallthrough\n      : @888 (gas: 2)\n 27283: a1 = 0x20\n 27286: jump @890 if a0 >=u a1\n      : @889 (gas: 3)\n 27289: ecalli 13 // 'return_data_size'\n 27291: a1 = a0\n 27293: fallthrough\n      : @890 (gas: 18)\n 27294: u64 [s1 + 0x110] = a1\n 27298: a3 = s1 + 0x600\n 27302: u64 [a3] = a1\n 27304: a0 = u64 [s1 + 0x158]\n 27308: u64 [a3 + 0x20] = a0\n 27311: u64 [s1 + 264] = 0\n 27315: u64 [s1 + 1544] = 0\n 27319: a0 = u64 [s1 + 0x150]\n 27323: u64 [a3 + 0x28] = a0\n 27326: u64 [s1 + 1552] = 0\n 27330: a0 = u64 [s1 + 0x148]\n 27334: u64 [a3 + 0x30] = a0\n 27337: u64 [s1 + 1560] = 0\n 27341: a0 = s1 + 0x620\n 27345: a1 = s1 + 0x600\n 27349: a2 = u64 [s1 + 0x140]\n 27353: u64 [a3 + 0x38] = a2\n 27356: ra = 1018, jump @987\n      : @891 [@dyn 509] (gas: 32)\n 27362: t0 = u64 [s1 + 0x158]\n 27366: a0 = u64 [s1 + 0x110]\n 27370: ra = a0 + t0\n 27373: a1 = ra <u a0\n 27376: t1 = u64 [s1 + 0x150]\n 27380: a5 = u64 [s1 + 0x108]\n 27384: a2 = a5 + t1\n 27387: a2 = a2 + a1\n 27390: a3 = a2 ^ a5\n 27393: a4 = a2 <u a5\n 27396: a4 = a1 if a3 == 0\n 27399: a3 = u64 [s1 + 0x148]\n 27403: a1 = a5 + a3\n 27406: a4 = a4 + a1\n 27409: t2 = a4 <u a1\n 27412: a1 = a1 <u a5\n 27415: a0 = u64 [s1 + 0x140]\n 27419: a5 = a5 + a0\n 27422: a1 = a1 + a5\n 27425: t2 = t2 + a1\n 27428: u64 [s1 + 0x5b0] = a4\n 27432: u64 [s1 + 0x5a8] = a2\n 27436: u64 [s1 + 0x5a0] = ra\n 27440: u64 [s1 + 0x5d8] = a0\n 27444: u64 [s1 + 0x5d0] = a3\n 27448: u64 [s1 + 0x5c8] = t1\n 27452: u64 [s1 + 0x5c0] = t0\n 27456: a0 = s1 + 0x5e0\n 27460: a1 = s1 + 0x5c0\n 27464: a2 = s1 + 0x5a0\n 27468: u64 [s1 + 0x5b8] = t2\n 27472: ra = 1020, jump @997\n      : @892 [@dyn 510] (gas: 9)\n 27478: a4 = s1 + 0x500\n 27482: a0 = u64 [a4 + 0xf0]\n 27486: a1 = u64 [a4 + 0xf8]\n 27490: a2 = u64 [a4 + 0xe8]\n 27494: a3 = u64 [a4 + 0xe0]\n 27498: a1 = a1 | a2\n 27501: a0 = a0 | a3\n 27504: a0 = a0 | a1\n 27507: jump @850 if a0 != 0\n      : @893 (gas: 3)\n 27511: a0 = s1 + 0x580\n 27515: a1 = 0x40\n 27518: ra = 1022, jump @7\n      : @894 [@dyn 511] (gas: 18)\n 27524: a4 = s1 + 0x500\n 27528: a2 = u64 [a4 + 0x98]\n 27532: a3 = u64 [a4 + 0x90]\n 27536: a0 = u64 [a4 + 0x88]\n 27540: a1 = u64 [a4 + 0x80]\n 27544: a4 = s1 + 0x100\n 27548: u64 [a4 + 0x50] = a0\n 27551: u64 [a4 + 0x48] = a2\n 27554: a0 = a0 | a2\n 27557: u64 [a4 + 0x58] = a1\n 27560: a1 = a1 | a3\n 27563: a1 = a1 | a0\n 27566: a1 = a1 >> 0x20\n 27569: u64 [a4 + 0x40] = a3\n 27572: a0 = a0 | a3\n 27575: a0 = a0 << 0x20\n 27578: a0 = a0 | a1\n 27581: jump @848 if a0 != 0\n      : @895 (gas: 8)\n 27585: u64 [s1 + 1392] = 0\n 27589: u64 [s1 + 1384] = 0\n 27593: u64 [s1 + 1376] = 0\n 27597: a0 = 0x8c379a000000000\n 27607: a1 = s1 + 0x560\n 27611: u64 [s1 + 0x578] = a0\n 27615: a0 = u64 [s1 + 0x158]\n 27619: ra = 1024, jump @9\n      : @896 [@dyn 512] (gas: 14)\n 27625: a3 = s1 + 0x100\n 27629: a0 = u64 [a3 + 0x48]\n 27632: a2 = u64 [a3 + 0x40]\n 27635: a2 = a2 | a0\n 27638: a0 = 0x100000000\n 27648: u64 [a3 + 0x40] = a0\n 27651: a0 = 0xfffffffc\n 27661: a1 = u64 [a3 + 0x58]\n 27664: a0 = a1 <u a0\n 27667: a1 = u64 [a3 + 0x50]\n 27670: a0 = 0 if a1 != 0\n 27672: u64 [a3 + 0x48] = a2\n 27675: a0 = 0 if a2 != 0\n 27677: jump @848 if a0 == 0\n      : @897 (gas: 8)\n 27681: a0 = u64 [s1 + 0x158]\n 27685: i32 a0 = a0 + 0x4\n 27688: u64 [s1 + 1368] = 0\n 27692: u64 [s1 + 1360] = 0\n 27696: u64 [s1 + 1344] = 0x20\n 27701: a1 = s1 + 0x540\n 27705: u64 [s1 + 1352] = 0\n 27709: ra = 1026, jump @9\n      : @898 [@dyn 513] (gas: 10)\n 27715: a2 = s1 + 0x100\n 27719: a0 = u64 [a2 + 0x40]\n 27722: a0 = a0 + 0xffffffffffffffdc\n 27725: a1 = u64 [a2 + 0x58]\n 27728: a0 = a1 <u a0\n 27731: a1 = u64 [a2 + 0x50]\n 27734: a0 = 0 if a1 != 0\n 27736: a1 = u64 [a2 + 0x48]\n 27739: a0 = 0 if a1 != 0\n 27741: jump @848 if a0 == 0\n      : @899 (gas: 8)\n 27745: a0 = u64 [s1 + 0x158]\n 27749: i32 a0 = a0 + 0x24\n 27752: u64 [s1 + 1336] = 0\n 27756: u64 [s1 + 1328] = 0\n 27760: u64 [s1 + 1312] = 0x13\n 27765: a1 = s1 + 0x520\n 27769: u64 [s1 + 1320] = 0\n 27773: ra = 1028, jump @9\n      : @900 [@dyn 514] (gas: 1)\n 27779: t0 = 1030, jump @1138\n      : @901 [@dyn 515] (gas: 1)\n 27785: jump @848 if a0 == 0\n      : @902 (gas: 12)\n 27789: a0 = u64 [s1 + 0x158]\n 27793: i32 a0 = a0 + 0x44\n 27796: a1 = u64 [0x20130]\n 27801: a2 = u64 [0x20138]\n 27806: a3 = s1 + 0x500\n 27810: u64 [a3 + 0x18] = a1\n 27813: u64 [a3 + 0x10] = a2\n 27816: a1 = 0x6c65640000000000\n 27826: u64 [a3 + 0x8] = a1\n 27829: a1 = s1 + 0x500\n 27833: u64 [s1 + 1280] = 0\n 27837: ra = 1032, jump @9\n      : @903 [@dyn 516] (gas: 3)\n 27843: a1 = 0x64\n 27846: a0 = u64 [s1 + 0x158]\n 27850: ra = 1034, jump @20\n      : @904 [@dyn 517] (gas: 5)\n 27856: i32 a1 = a0 + 0\n 27858: a0 = 0x1\n 27861: a2 = 0x64\n 27864: ecalli 14 // 'seal_return'\n 27866: fallthrough\n      : @905 (gas: 3)\n 27867: a0 = s1 + 0x640\n 27871: a1 = 0x40\n 27874: ra = 1036, jump @7\n      : @906 [@dyn 518] (gas: 13)\n 27880: a1 = s1 + 0x600\n 27884: a0 = u64 [a1 + 0x58]\n 27887: u64 [s1 + 0x150] = a0\n 27891: a0 = u64 [a1 + 0x50]\n 27894: u64 [s1 + 0x148] = a0\n 27898: a0 = u64 [a1 + 0x48]\n 27901: u64 [s1 + 0x140] = a0\n 27905: a0 = u64 [a1 + 0x40]\n 27908: u64 [s1 + 0x158] = a0\n 27912: ra = 0x40e\n 27916: ecalli 13 // 'return_data_size'\n 27918: t0 = 0x410\n 27922: jump @1123\n      : @907 [@dyn 519] (gas: 1)\n 27925: t0 = 1040, jump @1123\n      : @908 [@dyn 520] (gas: 1)\n 27931: jump @848 if a1 != 0\n      : @909 (gas: 2)\n 27935: a1 = a0 >> 0x20\n 27938: jump @848 if a1 != 0\n      : @910 (gas: 6)\n 27942: a1 = a0\n 27944: u64 [s1 + 0x148] = a0\n 27948: i32 a0 = a0 + 0\n 27950: u64 [s1 + 0x150] = a0\n 27954: a0 = u64 [s1 + 0x158]\n 27958: ra = 1042, jump @20\n      : @911 [@dyn 521] (gas: 11)\n 27964: a1 = s1 + 0x28d8\n 27968: a2 = u64 [s1 + 0x148]\n 27972: u32 [a1 + 0x148] = a2\n 27976: i32 a0 = a0 + 0\n 27978: a1 = s1 + 0x3000\n 27982: i32 a1 = a1 + 0xfffffffffffffa20\n 27986: a2 = 0\n 27988: ecalli 12 // 'return_data_copy'\n 27990: a0 = s1 + 0x28d8\n 27994: a0 = i32 [a0 + 0x148]\n 27998: jump @767\n      : @912 (gas: 3)\n 28001: a0 = 0\n 28003: a1 = 0\n 28005: ra = 1044, jump @20\n      : @913 [@dyn 522] (gas: 3)\n 28011: i32 a1 = a0 + 0\n 28013: a0 = 0x1\n 28016: jump @915\n      : @914 (gas: 4)\n 28018: a1 = 0x20200\n 28023: i32 a1 = a1 + 0\n 28025: a0 = 0x1\n 28028: fallthrough\n      : @915 (gas: 5)\n 28029: a2 = 0\n 28031: ecalli 14 // 'seal_return'\n 28033: a0 = 0\n 28035: ra = 0x414\n 28039: jump @20\n      : @916 (gas: 3)\n 28042: a0 = 0\n 28044: ra = 0x414\n 28048: jump @20\n      : @917 (gas: 16)\n 28051: a3 = s1 + 0x7ff\n 28055: a3 = a3 + 0xd9\n 28059: a4 = a3 + 0x400\n 28063: a1 = u64 [a4 + 0xd0]\n 28067: a2 = u64 [a4 + 0xe0]\n 28071: a3 = u64 [a4 + 0xd8]\n 28075: a0 = a0 & 0xffffffffffffff00\n 28079: a4 = s1 + 0x28d8\n 28083: a5 = a4 + 0x100\n 28087: u64 [a5 + 0xf0] = a1\n 28091: u64 [a5 + 0xe8] = a0\n 28095: u64 [a5 + 0xf8] = a3\n 28099: u64 [a4 + 0x200] = a2\n 28103: a1 = s1 + 0x2ac0\n 28107: a0 = u64 [s1 + 0x158]\n 28111: ra = 1046, jump @12\n      : @918 [@dyn 523] (gas: 28)\n 28117: a3 = s1 + 0x100\n 28121: a0 = u64 [a3]\n 28123: a2 = s1 + 0x7ff\n 28127: a2 = a2 + 0xd9\n 28131: a4 = a2 + 0x400\n 28135: u64 [a4 + 0xa0] = a0\n 28139: a0 = u64 [a3 + 0x8]\n 28142: u64 [a4 + 0x98] = a0\n 28146: a0 = u64 [a3 + 0x10]\n 28149: u64 [a4 + 0x90] = a0\n 28153: a0 = u64 [0x200e8]\n 28158: a1 = u64 [a3 + 0x18]\n 28161: u64 [a4 + 0x88] = a1\n 28165: a1 = u64 [0x200f0]\n 28170: u64 [a4 + 0xc0] = a0\n 28174: a0 = u64 [0x200f8]\n 28179: u64 [a4 + 0xb8] = a1\n 28183: a1 = u64 [0x20100]\n 28188: u64 [a4 + 0xb0] = a0\n 28192: a0 = a2\n 28194: a2 = s1 + 0x7ff\n 28198: a2 = a2 + 0x581\n 28202: a3 = s1 + 0x7ff\n 28206: a3 = a3 + 0x561\n 28210: u64 [a0 + 0x4a8] = a1\n 28214: a0 = 0\n 28216: a1 = 0\n 28218: ra = 1048, jump @13\n      : @919 [@dyn 524] (gas: 3)\n 28224: a0 = 0\n 28226: a1 = 0\n 28228: ra = 1050, jump @20\n      : @920 [@dyn 525] (gas: 3)\n 28234: i32 a1 = a0 + 0\n 28236: a0 = 0\n 28238: jump @915\n      : @921 (gas: 10)\n 28241: a0 = s1 + 0x18d8\n 28245: u64 [a0 + 280] = 0\n 28249: u64 [a0 + 272] = 0\n 28253: u64 [a0 + 264] = 0\n 28257: a2 = a0\n 28259: a0 = 0x4e487b7100000000\n 28269: a1 = s1 + 0x19e0\n 28273: u64 [a2 + 0x120] = a0\n 28277: a0 = 0\n 28279: ra = 1052, jump @9\n      : @922 [@dyn 526] (gas: 10)\n 28285: a1 = s1 + 0x18d8\n 28289: u64 [a1 + 256] = 0\n 28293: u64 [a1 + 248] = 0\n 28297: u64 [a1 + 232] = 0x11\n 28302: a2 = a1\n 28304: a0 = 0x4\n 28307: a1 = s1 + 0x19c0\n 28311: u64 [a2 + 240] = 0\n 28315: ra = 0x424\n 28319: jump @9\n      : @923 (gas: 10)\n 28322: a0 = s1 + 0x18d8\n 28326: u64 [a0 + 344] = 0\n 28330: u64 [a0 + 336] = 0\n 28334: u64 [a0 + 328] = 0\n 28338: a2 = a0\n 28340: a0 = 0x4e487b7100000000\n 28350: a1 = s1 + 0x1a20\n 28354: u64 [a2 + 0x160] = a0\n 28358: a0 = 0\n 28360: ra = 1054, jump @9\n      : @924 [@dyn 527] (gas: 10)\n 28366: a1 = s1 + 0x18d8\n 28370: u64 [a1 + 320] = 0\n 28374: u64 [a1 + 312] = 0\n 28378: u64 [a1 + 296] = 0x41\n 28383: a2 = a1\n 28385: a0 = 0x4\n 28388: a1 = s1 + 0x1a00\n 28392: u64 [a2 + 304] = 0\n 28396: ra = 0x424\n 28400: jump @9\n      : @925 (gas: 12)\n 28403: a0 = s1 + 0x7ff\n 28407: a0 = a0 + 0xd9\n 28411: u64 [a0 + 376] = 0\n 28415: u64 [a0 + 368] = 0\n 28419: u64 [a0 + 360] = 0\n 28423: a2 = a0\n 28425: a0 = 0x4e487b7100000000\n 28435: a1 = s1 + 0x7ff\n 28439: a1 = a1 + 0x241\n 28443: u64 [a2 + 0x180] = a0\n 28447: a0 = 0\n 28449: ra = 1056, jump @9\n      : @926 [@dyn 528] (gas: 12)\n 28455: a1 = s1 + 0x7ff\n 28459: a1 = a1 + 0xd9\n 28463: u64 [a1 + 352] = 0\n 28467: u64 [a1 + 344] = 0\n 28471: u64 [a1 + 328] = 0x11\n 28476: a2 = a1\n 28478: a0 = 0x4\n 28481: a1 = s1 + 0x7ff\n 28485: a1 = a1 + 0x221\n 28489: u64 [a2 + 336] = 0\n 28493: ra = 0x424\n 28497: jump @9\n      : @927 (gas: 8)\n 28500: u64 [a3 + 408] = 0\n 28504: u64 [a3 + 400] = 0\n 28508: u64 [a3 + 392] = 0\n 28512: a0 = 0x4e487b7100000000\n 28522: a1 = s1 + 0x1a60\n 28526: u64 [a3 + 0x1a0] = a0\n 28530: a0 = 0\n 28532: ra = 1058, jump @9\n      : @928 [@dyn 529] (gas: 9)\n 28538: a1 = s1 + 0x18d8\n 28542: u64 [a1 + 384] = 0\n 28546: u64 [a1 + 376] = 0\n 28550: u64 [a1 + 360] = 0x41\n 28555: a2 = a1\n 28557: a0 = 0x4\n 28560: a1 = s1 + 0x1a40\n 28564: u64 [a2 + 368] = 0\n 28568: ra = 1060, jump @9\n      : @929 [@dyn 530] (gas: 3)\n 28574: a1 = 0x24\n 28577: a0 = 0\n 28579: ra = 1062, jump @20\n      : @930 [@dyn 531] (gas: 6)\n 28585: i32 a1 = a0 + 0\n 28587: a0 = 0x1\n 28590: a2 = 0x24\n 28593: ra = 0x428\n 28597: ecalli 14 // 'seal_return'\n 28599: fallthrough\n      : @931 [@dyn 532] (gas: 12)\n 28600: sp = sp + 0xffffffffffffffc0\n 28603: u64 [sp + 0x38] = ra\n 28606: u64 [sp + 0x30] = s0\n 28609: u64 [sp + 0x28] = s1\n 28612: s0 = sp + 0x40\n 28615: sp = sp & 0xffffffffffffffe0\n 28618: s1 = a0\n 28620: i32 a0 = sp + 0\n 28622: a1 = 0x4\n 28625: ra = 0x42a\n 28629: ecalli 3 // 'call_data_load'\n 28631: fallthrough\n      : @932 [@dyn 533] (gas: 4)\n 28632: a0 = u64 [sp + 0x10]\n 28635: a1 = u64 [sp + 0x18]\n 28638: a2 = 0x100000000\n 28648: t0 = 1068, jump @1155\n      : @933 [@dyn 534] (gas: 1)\n 28654: jump @935 if a3 == 0\n      : @934 (gas: 12)\n 28657: a2 = u64 [sp]\n 28659: a3 = u64 [sp + 0x8]\n 28662: u64 [s1] = a2\n 28664: u64 [s1 + 0x8] = a3\n 28667: u64 [s1 + 0x10] = a0\n 28670: u64 [s1 + 0x18] = a1\n 28673: sp = s0 + 0xffffffffffffffc0\n 28676: ra = u64 [sp + 0x38]\n 28679: s0 = u64 [sp + 0x30]\n 28682: s1 = u64 [sp + 0x28]\n 28685: sp = sp + 0x40\n 28688: ret\n      : @935 (gas: 7)\n 28690: a1 = 0x20200\n 28695: i32 a1 = a1 + 0\n 28697: a0 = 0x1\n 28700: a2 = 0\n 28702: ra = 0x42e\n 28706: ecalli 14 // 'seal_return'\n 28708: fallthrough\n      : @936 [@dyn 535] (gas: 23)\n 28709: sp = sp + 0xfffffffffffffe50\n 28713: u64 [sp + 0x1a8] = ra\n 28717: u64 [sp + 0x1a0] = s0\n 28721: u64 [sp + 0x198] = s1\n 28725: s0 = sp + 0x1b0\n 28729: sp = sp & 0xfffffffffffffff0\n 28732: t1 = u64 [a1 + 0x10]\n 28735: t2 = u64 [a1 + 0x18]\n 28738: t0 = u64 [a1 + 0x8]\n 28741: s1 = u64 [a1]\n 28743: u64 [sp + 0xc0] = t0\n 28747: u64 [sp + 0xb0] = t2\n 28751: a1 = t0 | t2\n 28754: u64 [sp + 0xc8] = s1\n 28758: s1 = s1 | t1\n 28761: s1 = s1 | a1\n 28764: s1 = s1 >> 0x20\n 28767: u64 [sp + 0xa8] = t1\n 28771: a1 = a1 | t1\n 28774: a1 = a1 << 0x20\n 28777: a1 = a1 | s1\n 28780: u64 [sp + 0x40] = a0\n 28783: jump @953 if a1 != 0\n      : @937 (gas: 53)\n 28787: a0 = u64 [s0 + 0x8]\n 28790: a1 = u64 [a0 + 0x18]\n 28793: u64 [sp + 0x18] = a1\n 28796: a1 = u64 [s0]\n 28798: s1 = u64 [a0 + 0x10]\n 28801: u64 [sp + 0x8] = s1\n 28804: s1 = u64 [a0 + 0x8]\n 28807: u64 [sp + 0x10] = s1\n 28810: a0 = u64 [a0]\n 28812: u64 [sp] = a0\n 28814: a0 = u64 [a1 + 0x18]\n 28817: u64 [sp + 0x38] = a0\n 28820: a0 = u64 [a1 + 0x10]\n 28823: u64 [sp + 0x30] = a0\n 28826: a0 = u64 [a1 + 0x8]\n 28829: u64 [sp + 0x28] = a0\n 28832: a0 = u64 [a1]\n 28834: u64 [sp + 0x20] = a0\n 28837: a0 = u64 [a5 + 0x18]\n 28840: u64 [sp + 0x60] = a0\n 28843: a0 = u64 [a5 + 0x10]\n 28846: u64 [sp + 0x58] = a0\n 28849: a0 = u64 [a5 + 0x8]\n 28852: u64 [sp + 0x50] = a0\n 28855: a0 = u64 [a5]\n 28857: u64 [sp + 0x48] = a0\n 28860: a0 = u64 [a4 + 0x18]\n 28863: u64 [sp + 0x80] = a0\n 28867: a0 = u64 [a4 + 0x10]\n 28870: u64 [sp + 0x78] = a0\n 28873: a0 = u64 [a4 + 0x8]\n 28876: u64 [sp + 0x70] = a0\n 28879: a0 = u64 [a4]\n 28881: u64 [sp + 0x68] = a0\n 28884: a0 = u64 [a3 + 0x10]\n 28887: u64 [sp + 0x90] = a0\n 28891: a0 = u64 [a3 + 0x8]\n 28894: u64 [sp + 0x98] = a0\n 28898: a0 = u64 [a3]\n 28900: u64 [sp + 0xa0] = a0\n 28904: a0 = u64 [a2 + 0x10]\n 28907: a1 = u64 [a2 + 0x8]\n 28910: a2 = u64 [a2]\n 28912: a0 = a0 << 0x20\n 28915: a0 = a0 >> 0x20\n 28918: u64 [sp + 392] = 0\n 28922: u64 [sp + 0x170] = a2\n 28926: u64 [sp + 0x178] = a1\n 28930: a1 = sp + 0x170\n 28934: u64 [sp + 0x180] = a0\n 28938: s1 = u64 [sp + 0xc8]\n 28942: a0 = s1\n 28944: ra = 1072, jump @9\n      : @938 [@dyn 536] (gas: 12)\n 28950: a0 = u64 [sp + 0xa8]\n 28954: a2 = u64 [sp + 0xb0]\n 28958: a2 = a2 | a0\n 28961: a0 = 0x100000000\n 28971: u64 [sp + 0x88] = a0\n 28975: a0 = 0xffffffe0\n 28985: a0 = s1 <u a0\n 28988: a1 = u64 [sp + 0xc0]\n 28992: a0 = 0 if a1 != 0\n 28994: u64 [sp + 0xb8] = a2\n 28998: a0 = 0 if a2 != 0\n 29000: jump @953 if a0 == 0\n      : @939 (gas: 15)\n 29004: a1 = 0xffffffff\n 29014: a2 = u64 [sp + 0x90]\n 29018: a2 = a2 & a1\n 29021: a1 = u64 [sp + 0x98]\n 29025: a1 = a1 & 0xffffffffffffffff\n 29028: a3 = u64 [sp + 0xa0]\n 29032: a3 = a3 & 0xffffffffffffffff\n 29035: s1 = u64 [sp + 0xc8]\n 29039: i32 a0 = s1 + 0x20\n 29042: u64 [sp + 360] = 0\n 29046: u64 [sp + 0x150] = a3\n 29050: u64 [sp + 0x158] = a1\n 29054: a1 = sp + 0x150\n 29058: u64 [sp + 0x160] = a2\n 29062: ra = 1074, jump @9\n      : @940 [@dyn 537] (gas: 3)\n 29068: a0 = u64 [sp + 0x88]\n 29072: a0 = a0 + 0xffffffffffffffc0\n 29075: t0 = 1076, jump @1136\n      : @941 [@dyn 538] (gas: 1)\n 29081: jump @953 if a0 == 0\n      : @942 (gas: 12)\n 29085: s1 = u64 [sp + 0xc8]\n 29089: i32 a0 = s1 + 0x40\n 29092: a1 = u64 [sp + 0x68]\n 29095: u64 [sp + 0x130] = a1\n 29099: a1 = u64 [sp + 0x70]\n 29102: u64 [sp + 0x138] = a1\n 29106: a1 = u64 [sp + 0x78]\n 29109: u64 [sp + 0x140] = a1\n 29113: a1 = sp + 0x130\n 29117: a2 = u64 [sp + 0x80]\n 29121: u64 [sp + 0x148] = a2\n 29125: ra = 1078, jump @9\n      : @943 [@dyn 539] (gas: 4)\n 29131: a0 = 0x100000000\n 29141: u64 [sp + 0xa0] = a0\n 29145: a0 = 0xffffffa0\n 29155: t0 = 1080, jump @1136\n      : @944 [@dyn 540] (gas: 1)\n 29161: jump @953 if a0 == 0\n      : @945 (gas: 12)\n 29165: s1 = u64 [sp + 0xc8]\n 29169: i32 a0 = s1 + 0x60\n 29172: a1 = u64 [sp + 0x48]\n 29175: u64 [sp + 0x110] = a1\n 29179: a1 = u64 [sp + 0x50]\n 29182: u64 [sp + 0x118] = a1\n 29186: a1 = u64 [sp + 0x58]\n 29189: u64 [sp + 0x120] = a1\n 29193: a1 = sp + 0x110\n 29197: a2 = u64 [sp + 0x60]\n 29200: u64 [sp + 0x128] = a2\n 29204: ra = 1082, jump @9\n      : @946 [@dyn 541] (gas: 3)\n 29210: a0 = u64 [sp + 0xa0]\n 29214: a0 = a0 + 0xffffffffffffff80\n 29217: t0 = 1084, jump @1136\n      : @947 [@dyn 542] (gas: 1)\n 29223: jump @953 if a0 == 0\n      : @948 (gas: 12)\n 29227: s1 = u64 [sp + 0xc8]\n 29231: i32 a0 = s1 + 0x80\n 29235: a1 = u64 [sp + 0x20]\n 29238: u64 [sp + 0xf0] = a1\n 29242: a1 = u64 [sp + 0x28]\n 29245: u64 [sp + 0xf8] = a1\n 29249: a1 = u64 [sp + 0x30]\n 29252: u64 [sp + 0x100] = a1\n 29256: a1 = sp + 0xf0\n 29260: a2 = u64 [sp + 0x38]\n 29263: u64 [sp + 0x108] = a2\n 29267: ra = 1086, jump @9\n      : @949 [@dyn 543] (gas: 2)\n 29273: a0 = 0xffffff60\n 29283: t0 = 1088, jump @1136\n      : @950 [@dyn 544] (gas: 1)\n 29289: jump @953 if a0 == 0\n      : @951 (gas: 30)\n 29293: a0 = u64 [sp + 0x8]\n 29296: a1 = u64 [sp]\n 29298: a0 = a0 | a1\n 29301: a1 = u64 [sp + 0x18]\n 29304: a2 = u64 [sp + 0x10]\n 29307: a1 = a1 | a2\n 29310: a0 = a0 | a1\n 29313: a1 = a0 >u 0\n 29315: a3 = u64 [sp + 0xc8]\n 29319: a0 = a3 + 0xc0\n 29323: u64 [sp + 0xb8] = a0\n 29327: a0 = a0 <u a3\n 29330: a2 = u64 [sp + 0xc0]\n 29334: a4 = a2 + a0\n 29337: u64 [sp + 0xa0] = a4\n 29341: a2 = a4 <u a2\n 29344: a2 = a0 if a0 == 0\n 29347: a0 = u64 [sp + 0xa8]\n 29351: s1 = a0 + a2\n 29354: a0 = s1 <u a0\n 29357: a2 = u64 [sp + 0xb0]\n 29361: a0 = a0 + a2\n 29364: u64 [sp + 0xc0] = a0\n 29368: i32 a0 = a3 + 0xa0\n 29372: u64 [sp + 232] = 0\n 29376: u64 [sp + 224] = 0\n 29380: u64 [sp + 0xd0] = a1\n 29384: a1 = sp + 0xd0\n 29388: u64 [sp + 216] = 0\n 29392: ra = 1090, jump @9\n      : @952 [@dyn 545] (gas: 14)\n 29398: a0 = u64 [sp + 0x40]\n 29401: a1 = u64 [sp + 0xc0]\n 29405: u64 [a0 + 0x18] = a1\n 29408: u64 [a0 + 0x10] = s1\n 29411: a1 = u64 [sp + 0xa0]\n 29415: u64 [a0 + 0x8] = a1\n 29418: a1 = u64 [sp + 0xb8]\n 29422: u64 [a0] = a1\n 29424: sp = s0 + 0xfffffffffffffe50\n 29428: ra = u64 [sp + 0x1a8]\n 29432: s0 = u64 [sp + 0x1a0]\n 29436: s1 = u64 [sp + 0x198]\n 29440: sp = sp + 0x1b0\n 29444: ret\n      : @953 (gas: 1)\n 29446: trap\n      : @954 (gas: 31)\n 29447: sp = sp + 0xfffffffffffffee0\n 29451: u64 [sp + 0x118] = ra\n 29455: u64 [sp + 0x110] = s0\n 29459: u64 [sp + 0x108] = s1\n 29463: s0 = sp + 0x120\n 29467: sp = sp & 0xffffffffffffffe0\n 29470: s1 = sp\n 29472: u64 [s1 + 0x38] = a0\n 29475: a0 = u64 [a2]\n 29477: u64 [s1 + 0x48] = a0\n 29480: a0 = u64 [a2 + 0x8]\n 29483: u64 [s1 + 0x40] = a0\n 29486: a0 = u64 [a2 + 0x10]\n 29489: u64 [s1 + 0x50] = a0\n 29492: a0 = u64 [a2 + 0x18]\n 29495: u64 [s1 + 0x58] = a0\n 29498: a0 = u64 [a1 + 0x18]\n 29501: a2 = u64 [a1 + 0x10]\n 29504: a3 = u64 [a1 + 0x8]\n 29507: a1 = u64 [a1]\n 29509: u64 [s1 + 0x30] = a0\n 29512: u64 [s1 + 0xf8] = a0\n 29516: u64 [s1 + 0x28] = a2\n 29519: u64 [s1 + 0xf0] = a2\n 29523: u64 [s1 + 0x20] = a3\n 29526: u64 [s1 + 0xe8] = a3\n 29530: u64 [s1 + 0x18] = a1\n 29533: u64 [s1 + 0xe0] = a1\n 29537: a0 = s1 + 0xc0\n 29541: a1 = s1 + 0xe0\n 29545: ra = 1092, jump @11\n      : @955 [@dyn 546] (gas: 20)\n 29551: a0 = u64 [s1 + 0xd8]\n 29555: t0 = u64 [s1 + 0xc0]\n 29559: a2 = u64 [s1 + 0xd0]\n 29563: a3 = u64 [s1 + 0xc8]\n 29567: a1 = u64 [s1 + 0x58]\n 29570: a4 = a0 ^ a1\n 29573: a1 = a1 <u a0\n 29576: a0 = u64 [s1 + 0x50]\n 29579: a5 = a0 <u a2\n 29582: a5 = a1 if a4 != 0\n 29585: a1 = u64 [s1 + 0x40]\n 29588: t1 = a3 ^ a1\n 29591: a3 = a1 <u a3\n 29594: a1 = u64 [s1 + 0x48]\n 29597: a1 = a1 <u t0\n 29600: a1 = a3 if t1 != 0\n 29603: a0 = a0 ^ a2\n 29606: a0 = a0 | a4\n 29609: a1 = a5 if a0 != 0\n 29612: jump @960 if a1 == 0\n      : @956 (gas: 11)\n 29616: a0 = u64 [s1 + 0x18]\n 29619: u64 [s1 + 0x60] = a0\n 29622: a0 = u64 [s1 + 0x20]\n 29625: u64 [s1 + 0x68] = a0\n 29628: a0 = u64 [s1 + 0x28]\n 29631: u64 [s1 + 0x70] = a0\n 29634: a1 = s1 + 0x60\n 29637: a0 = u64 [s1 + 0x30]\n 29640: u64 [s1 + 0x78] = a0\n 29643: a0 = 0\n 29645: ra = 1094, jump @9\n      : @957 [@dyn 547] (gas: 2)\n 29651: a1 = i32 [0x201f0]\n 29656: jump @959 if a1 >u 31\n      : @958 (gas: 2)\n 29660: u32 [0x201f0] = 0x20\n 29666: fallthrough\n      : @959 (gas: 52)\n 29667: a0 = sp + 0xffffffffffffffe0\n 29670: a2 = a0 & 0xffffffffffffffe0\n 29673: u64 [s1 + 0x30] = a2\n 29676: sp = a2\n 29678: a0 = 0x20200\n 29683: i32 a0 = a0 + 0\n 29685: i32 a2 = a2 + 0\n 29687: a1 = 0x20\n 29690: ecalli 9 // 'hash_keccak_256'\n 29692: a3 = u64 [s1 + 0x30]\n 29695: a0 = u64 [a3]\n 29697: a1 = u64 [a3 + 0x8]\n 29700: a2 = u64 [a3 + 0x18]\n 29703: a3 = u64 [a3 + 0x10]\n 29706: t0 = reverse a0\n 29708: a1 = reverse a1\n 29710: a2 = reverse a2\n 29712: a3 = reverse a3\n 29714: a4 = u64 [s1 + 0x40]\n 29717: a4 = a4 + a3\n 29720: t1 = u64 [s1 + 0x48]\n 29723: t1 = t1 + a2\n 29726: a2 = t1 <u a2\n 29729: a4 = a4 + a2\n 29732: a0 = a4 ^ a3\n 29735: a3 = a4 <u a3\n 29738: a3 = a2 if a0 == 0\n 29741: a0 = u64 [s1 + 0x50]\n 29744: a0 = a0 + a1\n 29747: a3 = a3 + a0\n 29750: a2 = a3 <u a0\n 29753: a5 = u64 [s1 + 0x58]\n 29756: t0 = t0 + a5\n 29759: a0 = a0 <u a1\n 29762: a0 = a0 + t0\n 29765: a0 = a0 + a2\n 29768: a1 = u64 [s1 + 0x38]\n 29771: a2 = 0\n 29773: u64 [a1 + 56] = 0\n 29776: u64 [a1 + 48] = 0\n 29779: u64 [a1 + 40] = 0\n 29782: u64 [a1 + 32] = 0\n 29785: u64 [a1] = t1\n 29787: u64 [a1 + 0x8] = a4\n 29790: u64 [a1 + 0x10] = a3\n 29793: u64 [a1 + 0x18] = a0\n 29796: sp = s0 + 0xfffffffffffffee0\n 29800: ra = u64 [sp + 0x118]\n 29804: s0 = u64 [sp + 0x110]\n 29808: s1 = u64 [sp + 0x108]\n 29812: sp = sp + 0x120\n 29816: ret\n      : @960 (gas: 8)\n 29818: u64 [s1 + 176] = 0\n 29822: u64 [s1 + 168] = 0\n 29826: u64 [s1 + 160] = 0\n 29830: a0 = 0x4e487b7100000000\n 29840: a1 = s1 + 0xa0\n 29844: u64 [s1 + 0xb8] = a0\n 29848: a0 = 0\n 29850: ra = 1096, jump @9\n      : @961 [@dyn 548] (gas: 7)\n 29856: u64 [s1 + 152] = 0\n 29860: u64 [s1 + 144] = 0\n 29864: u64 [s1 + 128] = 0x32\n 29869: a0 = 0x4\n 29872: a1 = s1 + 0x80\n 29876: u64 [s1 + 136] = 0\n 29880: ra = 1098, jump @9\n      : @962 [@dyn 549] (gas: 2)\n 29886: a1 = i32 [0x201f0]\n 29891: jump @964 if a1 >u 63\n      : @963 (gas: 2)\n 29895: u32 [0x201f0] = 0x40\n 29901: fallthrough\n      : @964 (gas: 8)\n 29902: a1 = 0x20200\n 29907: i32 a1 = a1 + 0\n 29909: a0 = 0x1\n 29912: a2 = 0x24\n 29915: ra = 0x44c\n 29919: ecalli 14 // 'seal_return'\n 29921: t0 = 0x44e\n 29925: jump @1129\n      : @965 [@dyn 550] (gas: 1)\n 29928: t0 = 1102, jump @1129\n      : @966 [@dyn 551] (gas: 1)\n 29934: jump @969 if a0 == 0\n      : @967 (gas: 1)\n 29937: t0 = 1104, jump @1156\n      : @968 [@dyn 552] (gas: 1)\n 29943: ret\n      : @969 (gas: 3)\n 29945: a0 = sp + 0xa0\n 29949: a1 = 0x40\n 29952: ra = 1106, jump @7\n      : @970 [@dyn 553] (gas: 1)\n 29958: t0 = 1108, jump @1120\n      : @971 [@dyn 554] (gas: 1)\n 29964: jump @983 if a0 != 0\n      : @972 (gas: 1)\n 29967: t0 = 1110, jump @1128\n      : @973 [@dyn 555] (gas: 1)\n 29973: ra = 1112, jump @9\n      : @974 [@dyn 556] (gas: 1)\n 29979: t0 = 1114, jump @1119\n      : @975 [@dyn 557] (gas: 1)\n 29985: jump @983 if a0 == 0\n      : @976 (gas: 1)\n 29988: t0 = 1116, jump @1132\n      : @977 [@dyn 558] (gas: 1)\n 29994: ra = 1118, jump @9\n      : @978 [@dyn 559] (gas: 1)\n 30000: t0 = 1120, jump @1127\n      : @979 [@dyn 560] (gas: 1)\n 30006: jump @983 if a0 == 0\n      : @980 (gas: 8)\n 30009: s1 = u64 [sp + 0x18]\n 30012: i32 a0 = s1 + 0x24\n 30015: u64 [sp + 88] = 0\n 30018: u64 [sp + 80] = 0\n 30021: u64 [sp + 64] = 0x1d\n 30025: a1 = sp + 0x40\n 30028: u64 [sp + 72] = 0\n 30031: ra = 1122, jump @9\n      : @981 [@dyn 561] (gas: 1)\n 30037: t0 = 1124, jump @1126\n      : @982 [@dyn 562] (gas: 1)\n 30043: jump @984 if a0 != 0\n      : @983 (gas: 1)\n 30046: trap\n      : @984 (gas: 12)\n 30047: s1 = u64 [sp + 0x18]\n 30050: i32 a0 = s1 + 0x44\n 30053: a1 = u64 [0x20190]\n 30058: a2 = u64 [0x20198]\n 30063: a3 = u64 [0x201a0]\n 30068: u64 [sp + 0x38] = a1\n 30071: u64 [sp + 0x30] = a2\n 30074: u64 [sp + 0x28] = a3\n 30077: a2 = 0x68616e2030000000\n 30087: a1 = sp + 0x20\n 30090: u64 [sp + 0x20] = a2\n 30093: ra = 1126, jump @9\n      : @985 [@dyn 563] (gas: 3)\n 30099: a1 = 0x64\n 30102: a0 = s1\n 30104: ra = 1128, jump @20\n      : @986 [@dyn 564] (gas: 6)\n 30110: i32 a1 = a0 + 0\n 30112: a0 = 0x1\n 30115: a2 = 0x64\n 30118: ra = 0x46a\n 30122: ecalli 14 // 'seal_return'\n 30124: fallthrough\n      : @987 [@dyn 565] (gas: 46)\n 30125: sp = sp + 0xffffffffffffff70\n 30129: u64 [sp + 0x88] = ra\n 30133: u64 [sp + 0x80] = s0\n 30137: u64 [sp + 0x78] = s1\n 30140: s0 = sp + 0x90\n 30144: sp = sp & 0xfffffffffffffff0\n 30147: t0 = a0\n 30149: a2 = u64 [a1]\n 30151: t2 = u64 [a0 + 0x8]\n 30154: a5 = u64 [a1 + 0x8]\n 30157: t1 = u64 [a0]\n 30159: a3 = a2 + 0x1f\n 30162: ra = a3 <u a2\n 30165: a2 = a5 + ra\n 30168: a3 = a3 & 0xffffffffffffffe0\n 30171: u64 [sp + 0x8] = t1\n 30174: t1 = t1 + a3\n 30177: a4 = t1 <u a3\n 30180: a3 = a2 + t2\n 30183: a3 = a3 + a4\n 30186: s1 = a3 ^ a2\n 30189: a0 = a3 <u a2\n 30192: a0 = a4 if s1 == 0\n 30195: a4 = u64 [t0 + 0x18]\n 30198: a5 = a2 <u a5\n 30201: s1 = u64 [a1 + 0x10]\n 30204: t0 = u64 [t0 + 0x10]\n 30207: a1 = u64 [a1 + 0x18]\n 30210: a5 = ra if ra == 0\n 30213: a5 = a5 + s1\n 30216: s1 = a5 <u s1\n 30219: a2 = a5 + t0\n 30222: a0 = a0 + a2\n 30225: a5 = a2 <u a5\n 30228: a2 = a0 <u a2\n 30231: a1 = a1 + a4\n 30234: a1 = a1 + s1\n 30237: a1 = a1 + a5\n 30240: a5 = a1 + a2\n 30243: a1 = a5 >u 0\n 30245: a2 = a0 >u 0\n 30247: a2 = a1 if a5 != 0\n 30250: a1 = a0 | a5\n 30253: s1 = a3 >u 0\n 30255: s1 = a2 if a1 != 0\n 30258: jump @991 if s1 != 0\n      : @988 (gas: 13)\n 30261: a1 = u64 [sp + 0x8]\n 30264: a1 = t1 <u a1\n 30267: a2 = a3 ^ t2\n 30270: s1 = a3 <u t2\n 30273: s1 = a1 if a2 == 0\n 30276: a1 = a0 <u t0\n 30279: a2 = a5 ^ a4\n 30282: a4 = a5 <u a4\n 30285: a4 = a1 if a2 == 0\n 30288: a1 = a0 ^ t0\n 30291: a1 = a1 | a2\n 30294: a4 = s1 if a1 == 0\n 30297: jump @991 if a4 != 0\n      : @989 (gas: 7)\n 30300: u64 [sp + 0x50] = t1\n 30303: u64 [sp + 0x58] = a3\n 30306: u64 [sp + 0x60] = a0\n 30309: a0 = 0x40\n 30312: a1 = sp + 0x50\n 30315: u64 [sp + 0x68] = a5\n 30318: ra = 1132, jump @9\n      : @990 [@dyn 566] (gas: 6)\n 30324: sp = s0 + 0xffffffffffffff70\n 30328: ra = u64 [sp + 0x88]\n 30332: s0 = u64 [sp + 0x80]\n 30336: s1 = u64 [sp + 0x78]\n 30339: sp = sp + 0x90\n 30343: ret\n      : @991 (gas: 1)\n 30345: t0 = 1134, jump @1150\n      : @992 [@dyn 567] (gas: 1)\n 30351: ra = 1136, jump @9\n      : @993 [@dyn 568] (gas: 7)\n 30357: u64 [sp + 40] = 0\n 30360: u64 [sp + 32] = 0\n 30363: u64 [sp + 16] = 0x41\n 30367: a0 = 0x4\n 30370: a1 = sp + 0x10\n 30373: u64 [sp + 24] = 0\n 30376: ra = 1138, jump @9\n      : @994 [@dyn 569] (gas: 2)\n 30382: a1 = i32 [0x201f0]\n 30387: jump @996 if a1 >u 63\n      : @995 (gas: 2)\n 30391: u32 [0x201f0] = 0x40\n 30397: fallthrough\n      : @996 (gas: 7)\n 30398: a1 = 0x20200\n 30403: i32 a1 = a1 + 0\n 30405: a0 = 0x1\n 30408: a2 = 0x24\n 30411: ra = 0x474\n 30415: ecalli 14 // 'seal_return'\n 30417: fallthrough\n      : @997 [@dyn 570] (gas: 53)\n 30418: sp = sp + 0xffffffffffffff90\n 30421: u64 [sp + 0x68] = ra\n 30424: u64 [sp + 0x60] = s0\n 30427: u64 [sp + 0x58] = s1\n 30430: s0 = sp + 0x70\n 30433: sp = sp & 0xfffffffffffffff0\n 30436: a3 = a1\n 30438: t2 = u64 [a1 + 0x10]\n 30441: a1 = u64 [a1 + 0x8]\n 30444: t0 = u64 [a2 + 0x8]\n 30447: s1 = u64 [a3]\n 30449: u64 [sp] = s1\n 30451: a4 = u64 [a2]\n 30453: u64 [sp + 0x8] = a4\n 30456: ra = u64 [a2 + 0x10]\n 30459: a5 = t0 ^ a1\n 30462: u64 [sp + 0x28] = a5\n 30465: a5 = t0 <u a1\n 30468: a4 = a4 <u s1\n 30471: t1 = u64 [sp + 0x28]\n 30474: a5 = a4 if t1 == 0\n 30477: s1 = a4\n 30479: a3 = u64 [a3 + 0x18]\n 30482: u64 [sp + 0x18] = a3\n 30485: a2 = u64 [a2 + 0x18]\n 30488: u64 [sp + 0x10] = a2\n 30491: a3 = ra - t2\n 30494: a2 = a3 - a5\n 30497: u64 [sp + 0x20] = a2\n 30500: a2 = a3 <u a5\n 30503: u64 [sp + 0x28] = t2\n 30506: a4 = ra <u t2\n 30509: t2 = u64 [sp + 0x18]\n 30512: a3 = u64 [sp + 0x10]\n 30515: a3 = a3 - t2\n 30518: a3 = a3 - a4\n 30521: a3 = a3 - a2\n 30524: a2 = t0 - a1\n 30527: a2 = a2 - s1\n 30530: t0 = u64 [sp]\n 30532: a4 = u64 [sp + 0x8]\n 30535: a4 = a4 - t0\n 30538: a5 = a2 >u 0\n 30540: a4 = a4 <u 0x20\n 30543: a4 = a4 ^ 0x1\n 30546: a4 = a5 if a2 != 0\n 30549: s1 = a3 >s 0\n 30551: a2 = u64 [sp + 0x20]\n 30554: a5 = a2 >u 0\n 30556: a5 = s1 if a3 != 0\n 30559: a2 = a2 | a3\n 30562: a4 = a5 if a2 != 0\n 30565: jump @1003 if a4 == 0\n      : @998 (gas: 10)\n 30568: s1 = a0\n 30570: a3 = u64 [sp + 0x28]\n 30573: a0 = t0 | a3\n 30576: a2 = a1 | t2\n 30579: a0 = a0 | a2\n 30582: a0 = a0 >> 0x20\n 30585: a2 = a2 | a3\n 30588: a2 = a2 << 0x20\n 30591: a0 = a0 | a2\n 30594: jump @1002 if a0 != 0\n      : @999 (gas: 3)\n 30597: a0 = sp + 0x30\n 30600: a1 = t0\n 30602: ra = 1142, jump @7\n      : @1000 [@dyn 571] (gas: 9)\n 30608: a0 = u64 [sp + 0x48]\n 30611: a1 = u64 [sp + 0x40]\n 30614: a2 = u64 [sp + 0x30]\n 30617: a3 = u64 [sp + 0x38]\n 30620: a4 = a1 | a0\n 30623: a5 = a2 <u 0x2\n 30626: a5 = 0 if a3 != 0\n 30628: a5 = 0 if a4 != 0\n 30630: jump @1004 if a5 == 0\n      : @1001 (gas: 10)\n 30633: u64 [s1] = a2\n 30635: u64 [s1 + 0x8] = a3\n 30638: u64 [s1 + 0x10] = a1\n 30641: u64 [s1 + 0x18] = a0\n 30644: sp = s0 + 0xffffffffffffff90\n 30647: ra = u64 [sp + 0x68]\n 30650: s0 = u64 [sp + 0x60]\n 30653: s1 = u64 [sp + 0x58]\n 30656: sp = sp + 0x70\n 30659: ret\n      : @1002 (gas: 1)\n 30661: trap\n      : @1003 (gas: 2)\n 30662: a1 = 0x20200\n 30667: jump @1005\n      : @1004 (gas: 2)\n 30669: a1 = 0x20200\n 30674: fallthrough\n      : @1005 (gas: 7)\n 30675: i32 a1 = a1 + 0\n 30677: a0 = 0x1\n 30680: a2 = 0\n 30682: ra = 0x478\n 30686: ecalli 14 // 'seal_return'\n 30688: t0 = 0x47a\n 30692: jump @1129\n      : @1006 [@dyn 572] (gas: 1)\n 30695: t0 = 1146, jump @1129\n      : @1007 [@dyn 573] (gas: 1)\n 30701: jump @1010 if a0 == 0\n      : @1008 (gas: 1)\n 30704: t0 = 1148, jump @1156\n      : @1009 [@dyn 574] (gas: 1)\n 30710: ret\n      : @1010 (gas: 3)\n 30712: a0 = sp + 0xa0\n 30716: a1 = 0x40\n 30719: ra = 1150, jump @7\n      : @1011 [@dyn 575] (gas: 1)\n 30725: t0 = 1152, jump @1120\n      : @1012 [@dyn 576] (gas: 1)\n 30731: jump @1024 if a0 != 0\n      : @1013 (gas: 1)\n 30734: t0 = 1154, jump @1128\n      : @1014 [@dyn 577] (gas: 1)\n 30740: ra = 1156, jump @9\n      : @1015 [@dyn 578] (gas: 1)\n 30746: t0 = 1158, jump @1119\n      : @1016 [@dyn 579] (gas: 1)\n 30752: jump @1024 if a0 == 0\n      : @1017 (gas: 1)\n 30755: t0 = 1160, jump @1132\n      : @1018 [@dyn 580] (gas: 1)\n 30761: ra = 1162, jump @9\n      : @1019 [@dyn 581] (gas: 1)\n 30767: t0 = 1164, jump @1127\n      : @1020 [@dyn 582] (gas: 1)\n 30773: jump @1024 if a0 == 0\n      : @1021 (gas: 8)\n 30776: s1 = u64 [sp + 0x18]\n 30779: i32 a0 = s1 + 0x24\n 30782: u64 [sp + 88] = 0\n 30785: u64 [sp + 80] = 0\n 30788: u64 [sp + 64] = 0xf\n 30792: a1 = sp + 0x40\n 30795: u64 [sp + 72] = 0\n 30798: ra = 1166, jump @9\n      : @1022 [@dyn 583] (gas: 1)\n 30804: t0 = 1168, jump @1126\n      : @1023 [@dyn 584] (gas: 1)\n 30810: jump @1025 if a0 != 0\n      : @1024 (gas: 1)\n 30813: trap\n      : @1025 (gas: 10)\n 30814: s1 = u64 [sp + 0x18]\n 30817: i32 a0 = s1 + 0x44\n 30820: a1 = u64 [0x201a8]\n 30825: a2 = u64 [0x201b0]\n 30830: u64 [sp + 0x38] = a1\n 30833: u64 [sp + 40] = 0\n 30836: u64 [sp + 0x30] = a2\n 30839: a1 = sp + 0x20\n 30842: u64 [sp + 32] = 0\n 30845: ra = 1170, jump @9\n      : @1026 [@dyn 585] (gas: 3)\n 30851: a1 = 0x64\n 30854: a0 = s1\n 30856: ra = 1172, jump @20\n      : @1027 [@dyn 586] (gas: 6)\n 30862: i32 a1 = a0 + 0\n 30864: a0 = 0x1\n 30867: a2 = 0x64\n 30870: ra = 0x496\n 30874: ecalli 14 // 'seal_return'\n 30876: fallthrough\n      : @1028 [@dyn 587] (gas: 45)\n 30877: sp = sp + 0xffffffffffffff90\n 30880: u64 [sp + 0x68] = ra\n 30883: u64 [sp + 0x60] = s0\n 30886: u64 [sp + 0x58] = s1\n 30889: s0 = sp + 0x70\n 30892: sp = sp & 0xfffffffffffffff0\n 30895: a3 = u64 [a1 + 0x18]\n 30898: u64 [sp + 0x8] = a3\n 30901: a4 = u64 [a2 + 0x18]\n 30904: t2 = u64 [a1]\n 30906: u64 [sp] = t2\n 30908: a3 = u64 [a1 + 0x8]\n 30911: s1 = u64 [a2 + 0x8]\n 30914: a5 = u64 [a2]\n 30916: t1 = u64 [a1 + 0x10]\n 30919: t0 = u64 [a2 + 0x10]\n 30922: a2 = s1 + a3\n 30925: t2 = t2 + a5\n 30928: a5 = t2 <u a5\n 30931: a2 = a2 + a5\n 30934: ra = a2 ^ s1\n 30937: s1 = a2 <u s1\n 30940: s1 = a5 if ra == 0\n 30943: a1 = t0 + t1\n 30946: a5 = u64 [sp + 0x8]\n 30949: a5 = a5 + a4\n 30952: a4 = a1 <u t0\n 30955: a4 = a4 + a5\n 30958: a5 = a1 + s1\n 30961: a1 = a5 <u a1\n 30964: ra = a4 + a1\n 30967: a4 = a2 ^ a3\n 30970: a3 = a2 <u a3\n 30973: a1 = u64 [sp]\n 30975: s1 = t2 <u a1\n 30978: s1 = a3 if a4 != 0\n 30981: t0 = a5 <u t1\n 30984: a1 = u64 [sp + 0x8]\n 30987: a4 = ra ^ a1\n 30990: a3 = ra <u a1\n 30993: a3 = t0 if a4 == 0\n 30996: a1 = a5 ^ t1\n 30999: a1 = a1 | a4\n 31002: s1 = a3 if a1 != 0\n 31005: jump @1030 if s1 != 0\n      : @1029 (gas: 10)\n 31008: u64 [a0] = t2\n 31010: u64 [a0 + 0x8] = a2\n 31013: u64 [a0 + 0x10] = a5\n 31016: u64 [a0 + 0x18] = ra\n 31019: sp = s0 + 0xffffffffffffff90\n 31022: ra = u64 [sp + 0x68]\n 31025: s0 = u64 [sp + 0x60]\n 31028: s1 = u64 [sp + 0x58]\n 31031: sp = sp + 0x70\n 31034: ret\n      : @1030 (gas: 1)\n 31036: t0 = 1176, jump @1150\n      : @1031 [@dyn 588] (gas: 1)\n 31042: ra = 1178, jump @9\n      : @1032 [@dyn 589] (gas: 7)\n 31048: u64 [sp + 40] = 0\n 31051: u64 [sp + 32] = 0\n 31054: u64 [sp + 16] = 0x11\n 31058: a0 = 0x4\n 31061: a1 = sp + 0x10\n 31064: u64 [sp + 24] = 0\n 31067: ra = 1180, jump @9\n      : @1033 [@dyn 590] (gas: 2)\n 31073: a1 = i32 [0x201f0]\n 31078: jump @1035 if a1 >u 63\n      : @1034 (gas: 2)\n 31082: u32 [0x201f0] = 0x40\n 31088: fallthrough\n      : @1035 (gas: 7)\n 31089: a1 = 0x20200\n 31094: i32 a1 = a1 + 0\n 31096: a0 = 0x1\n 31099: a2 = 0x24\n 31102: ra = 0x49e\n 31106: ecalli 14 // 'seal_return'\n 31108: fallthrough\n      : @1036 [@dyn 591] (gas: 13)\n 31109: sp = sp + 0xfffffffffffffea0\n 31113: u64 [sp + 0x158] = ra\n 31117: u64 [sp + 0x150] = s0\n 31121: u64 [sp + 0x148] = s1\n 31125: s0 = sp + 0x160\n 31129: sp = sp & 0xffffffffffffffe0\n 31132: u64 [sp + 248] = 0\n 31136: u64 [sp + 240] = 0\n 31140: u64 [sp + 232] = 0\n 31144: u64 [sp + 224] = 0\n 31148: a0 = sp + 0xc0\n 31152: a1 = sp + 0xe0\n 31156: ra = 1184, jump @11\n      : @1037 [@dyn 592] (gas: 9)\n 31162: a0 = u64 [sp + 0xd8]\n 31166: a1 = u64 [sp + 0xc8]\n 31170: a2 = u64 [sp + 0xc0]\n 31174: a3 = u64 [sp + 0xd0]\n 31178: a0 = a0 | a1\n 31181: a1 = a2 ^ 0x2\n 31184: a1 = a1 | a3\n 31187: a0 = a0 | a1\n 31190: jump @1040 if a0 == 0\n      : @1038 (gas: 11)\n 31193: u64 [sp + 280] = 0\n 31197: u64 [sp + 272] = 0\n 31201: u64 [sp + 264] = 0\n 31205: u64 [sp + 256] = 0\n 31209: u64 [sp + 312] = 0\n 31213: u64 [sp + 304] = 0\n 31217: u64 [sp + 296] = 0\n 31221: u64 [sp + 288] = 0x2\n 31226: a0 = sp + 0x100\n 31230: a1 = sp + 0x120\n 31234: ra = 1186, jump @12\n      : @1039 [@dyn 593] (gas: 6)\n 31240: sp = s0 + 0xfffffffffffffea0\n 31244: ra = u64 [sp + 0x158]\n 31248: s0 = u64 [sp + 0x150]\n 31252: s1 = u64 [sp + 0x148]\n 31256: sp = sp + 0x160\n 31260: ret\n      : @1040 (gas: 3)\n 31262: a0 = sp + 0xa0\n 31266: a1 = 0x40\n 31269: ra = 1188, jump @7\n      : @1041 [@dyn 594] (gas: 1)\n 31275: t0 = 1190, jump @1120\n      : @1042 [@dyn 595] (gas: 1)\n 31281: jump @1054 if a0 != 0\n      : @1043 (gas: 1)\n 31284: t0 = 1192, jump @1128\n      : @1044 [@dyn 596] (gas: 1)\n 31290: ra = 1194, jump @9\n      : @1045 [@dyn 597] (gas: 1)\n 31296: t0 = 1196, jump @1119\n      : @1046 [@dyn 598] (gas: 1)\n 31302: jump @1054 if a0 == 0\n      : @1047 (gas: 1)\n 31305: t0 = 1198, jump @1132\n      : @1048 [@dyn 599] (gas: 1)\n 31311: ra = 1200, jump @9\n      : @1049 [@dyn 600] (gas: 1)\n 31317: t0 = 1202, jump @1127\n      : @1050 [@dyn 601] (gas: 1)\n 31323: jump @1054 if a0 == 0\n      : @1051 (gas: 8)\n 31326: s1 = u64 [sp + 0x18]\n 31329: i32 a0 = s1 + 0x24\n 31332: u64 [sp + 88] = 0\n 31335: u64 [sp + 80] = 0\n 31338: u64 [sp + 64] = 0x1f\n 31342: a1 = sp + 0x40\n 31345: u64 [sp + 72] = 0\n 31348: ra = 1204, jump @9\n      : @1052 [@dyn 602] (gas: 1)\n 31354: t0 = 1206, jump @1126\n      : @1053 [@dyn 603] (gas: 1)\n 31360: jump @1055 if a0 != 0\n      : @1054 (gas: 1)\n 31363: trap\n      : @1055 (gas: 12)\n 31364: s1 = u64 [sp + 0x18]\n 31367: i32 a0 = s1 + 0x44\n 31370: a1 = u64 [0x201b8]\n 31375: u64 [sp + 0x38] = a1\n 31378: a1 = u64 [0x201c0]\n 31383: a2 = u64 [0x201c8]\n 31388: a3 = u64 [0x201d0]\n 31393: u64 [sp + 0x30] = a1\n 31396: u64 [sp + 0x28] = a2\n 31399: a1 = sp + 0x20\n 31402: u64 [sp + 0x20] = a3\n 31405: ra = 1208, jump @9\n      : @1056 [@dyn 604] (gas: 3)\n 31411: a1 = 0x64\n 31414: a0 = s1\n 31416: ra = 1210, jump @20\n      : @1057 [@dyn 605] (gas: 7)\n 31422: i32 a1 = a0 + 0\n 31424: a0 = 0x1\n 31427: a2 = 0x64\n 31430: ra = 0x4bc\n 31434: ecalli 14 // 'seal_return'\n 31436: t0 = 0x4be\n 31440: jump @1129\n      : @1058 [@dyn 606] (gas: 1)\n 31443: t0 = 1214, jump @1129\n      : @1059 [@dyn 607] (gas: 1)\n 31449: jump @1062 if a0 == 0\n      : @1060 (gas: 1)\n 31452: t0 = 1216, jump @1156\n      : @1061 [@dyn 608] (gas: 1)\n 31458: ret\n      : @1062 (gas: 3)\n 31460: a0 = sp + 0xa0\n 31464: a1 = 0x40\n 31467: ra = 1218, jump @7\n      : @1063 [@dyn 609] (gas: 1)\n 31473: t0 = 1220, jump @1120\n      : @1064 [@dyn 610] (gas: 1)\n 31479: jump @1076 if a0 != 0\n      : @1065 (gas: 1)\n 31482: t0 = 1222, jump @1128\n      : @1066 [@dyn 611] (gas: 1)\n 31488: ra = 1224, jump @9\n      : @1067 [@dyn 612] (gas: 1)\n 31494: t0 = 1226, jump @1119\n      : @1068 [@dyn 613] (gas: 1)\n 31500: jump @1076 if a0 == 0\n      : @1069 (gas: 1)\n 31503: t0 = 1228, jump @1132\n      : @1070 [@dyn 614] (gas: 1)\n 31509: ra = 1230, jump @9\n      : @1071 [@dyn 615] (gas: 1)\n 31515: t0 = 1232, jump @1127\n      : @1072 [@dyn 616] (gas: 1)\n 31521: jump @1076 if a0 == 0\n      : @1073 (gas: 8)\n 31524: s1 = u64 [sp + 0x18]\n 31527: i32 a0 = s1 + 0x24\n 31530: u64 [sp + 88] = 0\n 31533: u64 [sp + 80] = 0\n 31536: u64 [sp + 64] = 0x14\n 31540: a1 = sp + 0x40\n 31543: u64 [sp + 72] = 0\n 31546: ra = 1234, jump @9\n      : @1074 [@dyn 617] (gas: 1)\n 31552: t0 = 1236, jump @1126\n      : @1075 [@dyn 618] (gas: 1)\n 31558: jump @1077 if a0 != 0\n      : @1076 (gas: 1)\n 31561: trap\n      : @1077 (gas: 11)\n 31562: s1 = u64 [sp + 0x18]\n 31565: i32 a0 = s1 + 0x44\n 31568: a1 = u64 [0x201d8]\n 31573: a2 = u64 [0x201e0]\n 31578: u64 [sp + 0x38] = a1\n 31581: u64 [sp + 0x30] = a2\n 31584: a1 = 0x616e636500000000\n 31594: u64 [sp + 0x28] = a1\n 31597: a1 = sp + 0x20\n 31600: u64 [sp + 32] = 0\n 31603: ra = 1238, jump @9\n      : @1078 [@dyn 619] (gas: 3)\n 31609: a1 = 0x64\n 31612: a0 = s1\n 31614: ra = 1240, jump @20\n      : @1079 [@dyn 620] (gas: 6)\n 31620: i32 a1 = a0 + 0\n 31622: a0 = 0x1\n 31625: a2 = 0x64\n 31628: ra = 0x4da\n 31632: ecalli 14 // 'seal_return'\n 31634: fallthrough\n      : @1080 [@dyn 621] (gas: 30)\n 31635: sp = sp + 0xffffffffffffff80\n 31638: u64 [sp + 0x78] = ra\n 31641: u64 [sp + 0x70] = s0\n 31644: u64 [sp + 0x68] = s1\n 31647: s0 = sp + 0x80\n 31651: sp = sp & 0xfffffffffffffff0\n 31654: a4 = u64 [a2]\n 31656: a3 = u64 [a1]\n 31658: s1 = u64 [a2 + 0x8]\n 31661: t1 = u64 [a1 + 0x8]\n 31664: t2 = u64 [a2 + 0x10]\n 31667: a5 = u64 [a1 + 0x10]\n 31670: a2 = u64 [a2 + 0x18]\n 31673: a1 = u64 [a1 + 0x18]\n 31676: t0 = t1 ^ s1\n 31679: u64 [sp + 0x8] = s1\n 31682: s1 = t1 <u s1\n 31685: u64 [sp + 0x18] = a4\n 31688: u64 [sp + 0x10] = a3\n 31691: a3 = a3 <u a4\n 31694: u64 [sp] = a3\n 31696: s1 = a3 if t0 == 0\n 31699: a3 = a1 ^ a2\n 31702: ra = a1 <u a2\n 31705: t0 = a5 <u t2\n 31708: ra = t0 if a3 == 0\n 31711: a4 = a5 ^ t2\n 31714: a3 = a3 | a4\n 31717: ra = s1 if a3 == 0\n 31720: jump @1082 if ra != 0\n      : @1081 (gas: 23)\n 31723: a3 = a5 - t2\n 31726: a1 = a1 - a2\n 31729: a1 = a1 - t0\n 31732: a2 = a3 <u s1\n 31735: a1 = a1 - a2\n 31738: a3 = a3 - s1\n 31741: a2 = u64 [sp + 0x8]\n 31744: a2 = t1 - a2\n 31747: a4 = u64 [sp]\n 31749: a2 = a2 - a4\n 31752: a4 = u64 [sp + 0x18]\n 31755: a5 = u64 [sp + 0x10]\n 31758: a4 = a5 - a4\n 31761: u64 [a0] = a4\n 31763: u64 [a0 + 0x8] = a2\n 31766: u64 [a0 + 0x10] = a3\n 31769: u64 [a0 + 0x18] = a1\n 31772: sp = s0 + 0xffffffffffffff80\n 31775: ra = u64 [sp + 0x78]\n 31778: s0 = u64 [sp + 0x70]\n 31781: s1 = u64 [sp + 0x68]\n 31784: sp = sp + 0x80\n 31788: ret\n      : @1082 (gas: 8)\n 31790: u64 [sp + 80] = 0\n 31793: u64 [sp + 72] = 0\n 31796: u64 [sp + 64] = 0\n 31799: a0 = 0x4e487b7100000000\n 31809: a1 = sp + 0x40\n 31812: u64 [sp + 0x58] = a0\n 31815: a0 = 0\n 31817: ra = 1244, jump @9\n      : @1083 [@dyn 622] (gas: 7)\n 31823: u64 [sp + 56] = 0\n 31826: u64 [sp + 48] = 0\n 31829: u64 [sp + 32] = 0x11\n 31833: a0 = 0x4\n 31836: a1 = sp + 0x20\n 31839: u64 [sp + 40] = 0\n 31842: ra = 1246, jump @9\n      : @1084 [@dyn 623] (gas: 2)\n 31848: a1 = i32 [0x201f0]\n 31853: jump @1086 if a1 >u 63\n      : @1085 (gas: 2)\n 31857: u32 [0x201f0] = 0x40\n 31863: fallthrough\n      : @1086 (gas: 7)\n 31864: a1 = 0x20200\n 31869: i32 a1 = a1 + 0\n 31871: a0 = 0x1\n 31874: a2 = 0x24\n 31877: ra = 0x4e0\n 31881: ecalli 14 // 'seal_return'\n 31883: fallthrough\n      : @1087 [@dyn 624] (gas: 22)\n 31884: sp = sp + 0xffffffffffffff50\n 31888: u64 [sp + 0xa8] = ra\n 31892: u64 [sp + 0xa0] = s0\n 31896: u64 [sp + 0x98] = s1\n 31900: s0 = sp + 0xb0\n 31904: sp = sp & 0xfffffffffffffff0\n 31907: a5 = u64 [a1 + 0x10]\n 31910: a4 = u64 [a1 + 0x18]\n 31913: s1 = u64 [a1 + 0x8]\n 31916: t0 = u64 [a1]\n 31918: u64 [sp + 0x40] = a4\n 31921: u64 [sp + 0x38] = s1\n 31924: a1 = s1 | a4\n 31927: a4 = t0 | a5\n 31930: a4 = a4 | a1\n 31933: a4 = a4 >> 0x20\n 31936: u64 [sp + 0x48] = a5\n 31939: a1 = a1 | a5\n 31942: a1 = a1 << 0x20\n 31945: a1 = a1 | a4\n 31948: u64 [sp + 0x30] = a0\n 31951: jump @1092 if a1 != 0\n      : @1088 (gas: 21)\n 31955: s1 = t0\n 31957: a0 = u64 [a3 + 0x18]\n 31960: u64 [sp + 0x28] = a0\n 31963: a0 = u64 [a3 + 0x10]\n 31966: u64 [sp + 0x20] = a0\n 31969: a0 = u64 [a3 + 0x8]\n 31972: u64 [sp + 0x18] = a0\n 31975: a0 = u64 [a3]\n 31977: u64 [sp + 0x10] = a0\n 31980: a0 = u64 [a2 + 0x10]\n 31983: a1 = u64 [a2 + 0x8]\n 31986: a2 = u64 [a2]\n 31988: a0 = a0 << 0x20\n 31991: a0 = a0 >> 0x20\n 31994: u64 [sp + 136] = 0\n 31998: u64 [sp + 0x70] = a2\n 32001: u64 [sp + 0x78] = a1\n 32004: a1 = sp + 0x70\n 32007: u64 [sp + 0x80] = a0\n 32011: a0 = t0\n 32013: ra = 1250, jump @9\n      : @1089 [@dyn 625] (gas: 9)\n 32019: a2 = u64 [sp + 0x48]\n 32022: a3 = u64 [sp + 0x40]\n 32025: a0 = a2 | a3\n 32028: a1 = 0xffffffe0\n 32038: a1 = s1 <u a1\n 32041: a4 = u64 [sp + 0x38]\n 32044: a1 = 0 if a4 != 0\n 32046: a1 = 0 if a0 != 0\n 32048: jump @1092 if a1 == 0\n      : @1090 (gas: 23)\n 32051: a0 = s1 + 0x40\n 32054: u64 [sp + 0x8] = a0\n 32057: a0 = a0 <u s1\n 32060: a1 = a4 + a0\n 32063: u64 [sp] = a1\n 32065: a1 = a1 <u a4\n 32068: a1 = a0 if a0 == 0\n 32071: a1 = a1 + a2\n 32074: u64 [sp + 0x38] = a1\n 32077: a0 = a1 <u a2\n 32080: a0 = a0 + a3\n 32083: u64 [sp + 0x48] = a0\n 32086: i32 a0 = s1 + 0x20\n 32089: a1 = u64 [sp + 0x10]\n 32092: u64 [sp + 0x50] = a1\n 32095: a1 = u64 [sp + 0x18]\n 32098: u64 [sp + 0x58] = a1\n 32101: a1 = u64 [sp + 0x20]\n 32104: u64 [sp + 0x60] = a1\n 32107: a1 = sp + 0x50\n 32110: a2 = u64 [sp + 0x28]\n 32113: u64 [sp + 0x68] = a2\n 32116: ra = 1252, jump @9\n      : @1091 [@dyn 626] (gas: 15)\n 32122: a0 = u64 [sp + 0x30]\n 32125: a1 = u64 [sp + 0x38]\n 32128: u64 [a0 + 0x10] = a1\n 32131: a1 = u64 [sp]\n 32133: u64 [a0 + 0x8] = a1\n 32136: a1 = u64 [sp + 0x8]\n 32139: u64 [a0] = a1\n 32141: a1 = u64 [sp + 0x48]\n 32144: u64 [a0 + 0x18] = a1\n 32147: sp = s0 + 0xffffffffffffff50\n 32151: ra = u64 [sp + 0xa8]\n 32155: s0 = u64 [sp + 0xa0]\n 32159: s1 = u64 [sp + 0x98]\n 32163: sp = sp + 0xb0\n 32167: ret\n      : @1092 (gas: 1)\n 32169: trap\n      : @1093 [@dyn 627] (gas: 7)\n 32170: u64 [s1 + 312] = 0\n 32174: u64 [s1 + 304] = 0\n 32178: u64 [s1 + 288] = 0x2\n 32183: a0 = 0x20\n 32186: a1 = s1 + 0x120\n 32190: u64 [s1 + 296] = 0\n 32194: ra = 1256, jump @9\n      : @1094 [@dyn 628] (gas: 2)\n 32200: a1 = i32 [0x201f0]\n 32205: jump @1096 if a1 >u 63\n      : @1095 (gas: 2)\n 32209: u32 [0x201f0] = 0x40\n 32215: fallthrough\n      : @1096 (gas: 42)\n 32216: a0 = sp + 0xffffffffffffffe0\n 32219: a2 = a0 & 0xffffffffffffffe0\n 32222: u64 [s1 + 0x30] = a2\n 32225: sp = a2\n 32227: a0 = 0x20200\n 32232: i32 a0 = a0 + 0\n 32234: i32 a2 = a2 + 0\n 32236: a1 = 0x40\n 32239: ecalli 9 // 'hash_keccak_256'\n 32241: a2 = u64 [s1 + 0x30]\n 32244: a0 = u64 [a2 + 0x18]\n 32247: a1 = u64 [a2 + 0x10]\n 32250: a4 = u64 [a2 + 0x8]\n 32253: a3 = u64 [a2]\n 32255: a0 = reverse a0\n 32257: a2 = reverse a1\n 32259: a4 = reverse a4\n 32261: a5 = reverse a3\n 32263: u64 [s1 + 0x178] = a5\n 32267: u64 [s1 + 0x170] = a4\n 32271: u64 [s1 + 0x168] = a2\n 32275: u64 [s1 + 0x160] = a0\n 32279: t0 = a0 + 0x5\n 32282: u64 [s1 + 0x18] = a0\n 32285: a1 = t0 <u a0\n 32288: a0 = a2 + a1\n 32291: u64 [s1 + 0x20] = a2\n 32294: a3 = a0 <u a2\n 32297: a3 = a1 if a1 == 0\n 32300: a3 = a3 + a4\n 32303: u64 [s1 + 0x30] = a4\n 32306: a1 = a3 <u a4\n 32309: u64 [s1 + 0x28] = a5\n 32312: a1 = a1 + a5\n 32315: u64 [s1 + 0x180] = t0\n 32319: a2 = s1 + 0x100\n 32323: u64 [a2 + 0x88] = a0\n 32327: u64 [a2 + 0x90] = a3\n 32331: u64 [a2 + 0x98] = a1\n 32335: a0 = s1 + 0x100\n 32339: a1 = s1 + 0x180\n 32343: ra = 1258, jump @11\n      : @1097 [@dyn 629] (gas: 2)\n 32349: a0 = u8 [s1 + 0x100]\n 32353: jump @1105 if a0 == 0\n      : @1098 (gas: 3)\n 32357: a0 = s1 + 0xe0\n 32361: a1 = s1 + 0x160\n 32365: ra = 1260, jump @11\n      : @1099 [@dyn 630] (gas: 6)\n 32371: a0 = u32 [s1 + 0xf0]\n 32375: a1 = u64 [s1 + 0xe0]\n 32379: a2 = u64 [s1 + 0xe8]\n 32383: a0 = a0 | a1\n 32386: a0 = a0 | a2\n 32389: jump @1105 if a0 == 0\n      : @1100 (gas: 20)\n 32393: a1 = u64 [s1 + 0x18]\n 32396: a0 = a1 + 0x4\n 32399: a1 = a0 <u a1\n 32402: a3 = u64 [s1 + 0x20]\n 32405: a2 = a3 + a1\n 32408: a3 = a2 <u a3\n 32411: a3 = a1 if a1 == 0\n 32414: a1 = u64 [s1 + 0x30]\n 32417: a3 = a3 + a1\n 32420: a1 = a3 <u a1\n 32423: a4 = u64 [s1 + 0x28]\n 32426: a1 = a1 + a4\n 32429: a4 = s1 + 0x100\n 32433: u64 [a4 + 0xa0] = a0\n 32437: u64 [a4 + 0xa8] = a2\n 32441: u64 [a4 + 0xb0] = a3\n 32445: u64 [a4 + 0xb8] = a1\n 32449: a0 = s1 + 0xc0\n 32453: a1 = s1 + 0x1a0\n 32457: ra = 1262, jump @11\n      : @1101 [@dyn 631] (gas: 8)\n 32463: t0 = u64 [s1 + 0xd8]\n 32467: a4 = u64 [s1 + 0xd0]\n 32471: a3 = u64 [s1 + 0xc8]\n 32475: a2 = u64 [s1 + 0xc0]\n 32479: a0 = a3 | t0\n 32482: a1 = a2 | a4\n 32485: a0 = a0 | a1\n 32488: jump @1107 if a0 == 0\n      : @1102 (gas: 23)\n 32492: a1 = u64 [s1 + 0x18]\n 32495: a0 = a1 + 0x3\n 32498: a1 = a0 <u a1\n 32501: u64 [s1 + 0x18] = a2\n 32504: a2 = u64 [s1 + 0x20]\n 32507: a5 = a2 + a1\n 32510: u64 [s1 + 0x10] = a3\n 32513: a3 = a5 <u a2\n 32516: a3 = a1 if a1 == 0\n 32519: a1 = u64 [s1 + 0x30]\n 32522: a3 = a3 + a1\n 32525: a1 = a3 <u a1\n 32528: a2 = u64 [s1 + 0x28]\n 32531: a1 = a1 + a2\n 32534: u64 [s1 + 0x1c0] = a0\n 32538: u64 [s1 + 0x1c8] = a5\n 32542: u64 [s1 + 0x1d0] = a3\n 32546: u64 [s1 + 0x1d8] = a1\n 32550: a0 = s1 + 0xa0\n 32554: a1 = s1 + 0x1c0\n 32558: u64 [s1 + 0x30] = a4\n 32561: u64 [s1 + 0x28] = t0\n 32564: ra = 1264, jump @11\n      : @1103 [@dyn 632] (gas: 20)\n 32570: a0 = u64 [s1 + 0xa0]\n 32574: a1 = u64 [s1 + 0xa8]\n 32578: a2 = u64 [s1 + 0xb0]\n 32582: a3 = u64 [s1 + 0xb8]\n 32586: u64 [s1 + 0x58] = a3\n 32589: u64 [s1 + 0x50] = a2\n 32592: u64 [s1 + 0x48] = a1\n 32595: u64 [s1 + 0x40] = a0\n 32598: a0 = u64 [s1 + 0x28]\n 32601: u64 [s1 + 0x78] = a0\n 32604: a0 = u64 [s1 + 0x30]\n 32607: u64 [s1 + 0x70] = a0\n 32610: a0 = u64 [s1 + 0x10]\n 32613: u64 [s1 + 0x68] = a0\n 32616: a0 = s1 + 0x80\n 32620: a1 = s1 + 0x60\n 32623: a2 = s1 + 0x40\n 32626: a3 = u64 [s1 + 0x18]\n 32629: u64 [s1 + 0x60] = a3\n 32632: ra = 1266, jump @1028\n      : @1104 [@dyn 633] (gas: 32)\n 32638: a0 = u64 [s1 + 0x80]\n 32642: u64 [s1 + 0x30] = a0\n 32645: a0 = u64 [s1 + 0x88]\n 32649: u64 [s1 + 0x28] = a0\n 32652: a0 = u64 [s1 + 0x90]\n 32656: u64 [s1 + 0x20] = a0\n 32659: a0 = u64 [s1 + 0x98]\n 32663: u64 [s1 + 0x18] = a0\n 32666: i32 a0 = s1 + 0x1e0\n 32670: ecalli 10 // 'now'\n 32672: a0 = 0\n 32674: a1 = u64 [s1 + 0x1f8]\n 32678: t0 = u64 [s1 + 0x1e0]\n 32682: t2 = u64 [s1 + 0x1f0]\n 32686: a4 = u64 [s1 + 0x1e8]\n 32690: a2 = u64 [s1 + 0x18]\n 32693: a5 = a1 ^ a2\n 32696: a1 = a1 <u a2\n 32699: a3 = u64 [s1 + 0x20]\n 32702: a2 = t2 <u a3\n 32705: a2 = a1 if a5 != 0\n 32708: a1 = u64 [s1 + 0x28]\n 32711: t1 = a4 ^ a1\n 32714: a4 = a4 <u a1\n 32717: a1 = u64 [s1 + 0x30]\n 32720: a1 = t0 <u a1\n 32723: a1 = a4 if t1 != 0\n 32726: a3 = t2 ^ a3\n 32729: a3 = a3 | a5\n 32732: a1 = a2 if a3 != 0\n 32735: a1 = a1 ^ 0x1\n 32738: jump @1106\n      : @1105 (gas: 2)\n 32740: a1 = 0\n 32742: fallthrough\n      : @1106 (gas: 12)\n 32743: a2 = u64 [s1 + 0x38]\n 32746: u64 [a2] = a1\n 32748: u64 [a2 + 0x8] = a0\n 32751: u64 [a2 + 0x10] = a0\n 32754: u64 [a2 + 0x18] = a0\n 32757: sp = s0 + 0xfffffffffffffde0\n 32761: a0 = sp + 0x200\n 32765: ra = u64 [a0 + 0x18]\n 32768: s0 = u64 [a0 + 0x10]\n 32771: s1 = u64 [a0 + 0x8]\n 32774: sp = sp + 0x220\n 32778: ret\n      : @1107 (gas: 2)\n 32780: a1 = 0x1\n 32783: jump @1106\n      : @1108 [export #0: 'call'] (gas: 2)\n 32785: a0 = 0\n 32787: ra = 1268, jump @26\n      : @1109 [@dyn 634] [export #1: 'deploy'] (gas: 2)\n 32793: a0 = 0x1\n 32796: ra = 1270, jump @26\n      : @1110 [@dyn 635] (gas: 10)\n 32802: a0 = u64 [a3 + 0x18]\n 32805: a1 = u64 [a3 + 0x10]\n 32808: a2 = u64 [a3 + 0x8]\n 32811: a3 = u64 [a3]\n 32813: a0 = reverse a0\n 32815: a1 = reverse a1\n 32817: a2 = reverse a2\n 32819: a3 = reverse a3\n 32821: a4 = s1 + 0x28d8\n 32825: jump [t0]\n      : @1111 (gas: 7)\n 32827: a4 = 0x100000000\n 32837: a0 = 0xfffffffc\n 32847: a0 = a1 <u a0\n 32850: a2 = u64 [a5 + 0x50]\n 32853: a0 = 0 if a2 != 0\n 32855: a0 = 0 if a3 != 0\n 32857: jump [t0]\n      : @1112 (gas: 15)\n 32859: a0 = u64 [a2 + 0x8]\n 32862: a1 = i32 [a2 + 0x10]\n 32865: a2 = u64 [a2]\n 32867: a0 = reverse a0\n 32869: a3 = a0 << 0x20\n 32872: a1 = reverse a1\n 32874: a1 = a1 >> 0x20\n 32877: a3 = a3 | a1\n 32880: a0 = a0 >> 0x20\n 32883: a1 = reverse a2\n 32885: a2 = a1 << 0x20\n 32888: a0 = a0 | a2\n 32891: a1 = a1 >> 0x20\n 32894: a2 = s1 + 0x18d8\n 32898: jump [t0]\n      : @1113 (gas: 9)\n 32900: a2 = s1 + 0x100\n 32904: a3 = u64 [a2 + 0x58]\n 32907: a0 = 0xffffffbc\n 32917: a0 = a3 <u a0\n 32920: a1 = u64 [a2 + 0x50]\n 32923: a0 = 0 if a1 != 0\n 32925: a1 = u64 [a2 + 0x48]\n 32928: a0 = 0 if a1 != 0\n 32930: jump [t0]\n      : @1114 (gas: 16)\n 32932: a2 = u64 [s1 + 0x158]\n 32936: a0 = u64 [a2 + 0x8]\n 32939: a1 = i32 [a2 + 0x10]\n 32942: a2 = u64 [a2]\n 32944: a0 = reverse a0\n 32946: a3 = a0 << 0x20\n 32949: a1 = reverse a1\n 32951: a1 = a1 >> 0x20\n 32954: a3 = a3 | a1\n 32957: a0 = a0 >> 0x20\n 32960: a1 = reverse a2\n 32962: a2 = a1 << 0x20\n 32965: a0 = a0 | a2\n 32968: a1 = a1 >> 0x20\n 32971: a2 = s1 + 0x10d8\n 32975: jump [t0]\n      : @1115 (gas: 13)\n 32977: a1 = a0 <u a1\n 32980: a3 = u64 [s1 + 0x150]\n 32984: a2 = a3 + a1\n 32987: a3 = a2 <u a3\n 32990: a3 = a1 if a1 == 0\n 32993: a1 = u64 [s1 + 0x140]\n 32997: a3 = a3 + a1\n 33000: a1 = a3 <u a1\n 33003: a4 = u64 [s1 + 0x158]\n 33007: a1 = a1 + a4\n 33010: a4 = s1 + 0x30d8\n 33014: a5 = a4 + 0x100\n 33018: jump [t0]\n      : @1116 (gas: 10)\n 33020: a4 = s1 + 0x100\n 33024: a3 = u64 [a4 + 0x48]\n 33027: a2 = u64 [a4 + 0x50]\n 33030: a1 = u64 [a4 + 0x58]\n 33033: a0 = u64 [a4 + 0x40]\n 33036: a0 = a0 + 0xffffffffffffffdc\n 33039: a0 = a1 <u a0\n 33042: a0 = 0 if a2 != 0\n 33044: a0 = 0 if a3 != 0\n 33046: jump [t0]\n      : @1117 (gas: 5)\n 33048: sp = a1\n 33050: i32 a0 = a0 + 0\n 33052: i32 a2 = a1 + 0\n 33054: a1 = 0x40\n 33057: jump [t0]\n      : @1118 (gas: 12)\n 33059: a1 = a0 <u a1\n 33062: a3 = u64 [s1 + 0x150]\n 33066: a2 = a3 + a1\n 33069: a3 = a2 <u a3\n 33072: a3 = a1 if a1 == 0\n 33075: a1 = u64 [s1 + 0x140]\n 33079: a3 = a3 + a1\n 33082: a1 = a3 <u a1\n 33085: a4 = u64 [s1 + 0x158]\n 33089: a1 = a1 + a4\n 33092: a4 = s1 + 0x28d8\n 33096: jump [t0]\n      : @1119 (gas: 11)\n 33098: a2 = u64 [sp + 0x8]\n 33101: a2 = a2 | s1\n 33104: s1 = 0x100000000\n 33114: a0 = 0xfffffffc\n 33124: a1 = u64 [sp + 0x18]\n 33127: a0 = a1 <u a0\n 33130: a1 = u64 [sp + 0x10]\n 33133: a0 = 0 if a1 != 0\n 33135: u64 [sp + 0x8] = a2\n 33138: a0 = 0 if a2 != 0\n 33140: jump [t0]\n      : @1120 (gas: 15)\n 33142: a2 = u64 [sp + 0xb8]\n 33146: s1 = u64 [sp + 0xb0]\n 33150: a0 = u64 [sp + 0xa8]\n 33154: a1 = u64 [sp + 0xa0]\n 33158: u64 [sp + 0x10] = a0\n 33161: u64 [sp + 0x8] = a2\n 33164: a0 = a0 | a2\n 33167: u64 [sp + 0x18] = a1\n 33170: a1 = a1 | s1\n 33173: a1 = a1 | a0\n 33176: a1 = a1 >> 0x20\n 33179: a0 = a0 | s1\n 33182: a0 = a0 << 0x20\n 33185: a0 = a0 | a1\n 33188: jump [t0]\n      : @1121 (gas: 11)\n 33190: a0 = u64 [a3 + 0x18]\n 33193: a1 = u64 [a3 + 0x10]\n 33196: a2 = u64 [a3 + 0x8]\n 33199: a3 = u64 [a3]\n 33201: a0 = reverse a0\n 33203: a1 = reverse a1\n 33205: a2 = reverse a2\n 33207: a3 = reverse a3\n 33209: a4 = s1 + 0x28d8\n 33213: a5 = a4 + 0x300\n 33217: jump [t0]\n      : @1122 (gas: 8)\n 33219: a0 = a0 | a2\n 33222: a2 = a4 | a1\n 33225: a2 = a2 | a0\n 33228: a2 = a2 >> 0x20\n 33231: a0 = a0 | a1\n 33234: a0 = a0 << 0x20\n 33237: a0 = a0 | a2\n 33240: jump [t0]\n      : @1123 (gas: 13)\n 33242: a4 = s1 + 0x100\n 33246: a1 = u64 [a4 + 0x50]\n 33249: a2 = u64 [a4 + 0x40]\n 33252: a1 = a1 | a2\n 33255: a3 = u64 [a4 + 0x48]\n 33258: a2 = u64 [a4 + 0x58]\n 33261: a2 = a2 | a3\n 33264: a2 = a2 | a1\n 33267: a2 = a2 >> 0x20\n 33270: a1 = a1 | a3\n 33273: a1 = a1 << 0x20\n 33276: a1 = a1 | a2\n 33279: jump [t0]\n      : @1124 (gas: 20)\n 33281: a3 = u64 [s1 + 0x158]\n 33285: a0 = u64 [a3 + 0x18]\n 33288: a1 = u64 [a3 + 0x10]\n 33291: a2 = u64 [a3 + 0x8]\n 33294: a3 = u64 [a3]\n 33296: a4 = reverse a0\n 33298: u64 [s1 + 0x148] = a4\n 33302: a1 = reverse a1\n 33304: u64 [s1 + 0x150] = a1\n 33308: a5 = reverse a2\n 33310: u64 [s1 + 0x140] = a5\n 33314: a0 = reverse a3\n 33316: u64 [s1 + 0x158] = a0\n 33320: a2 = u64 [s1 + 0x138]\n 33324: u64 [a2 + 0x18] = a0\n 33327: u64 [a2 + 0x10] = a5\n 33330: u64 [a2 + 0x8] = a1\n 33333: u64 [a2] = a4\n 33335: a1 = a2\n 33337: jump [t0]\n      : @1125 (gas: 8)\n 33339: a0 = u64 [a2 + 0x8]\n 33342: a1 = i32 [a2 + 0x10]\n 33345: a2 = u64 [a2]\n 33347: a3 = reverse a0\n 33349: a0 = a3 << 0x20\n 33352: a1 = reverse a1\n 33354: a1 = a1 >> 0x20\n 33357: jump [t0]\n      : @1126 (gas: 7)\n 33359: a0 = 0xffffffbc\n 33369: a0 = s1 <u a0\n 33372: a1 = u64 [sp + 0x10]\n 33375: a0 = 0 if a1 != 0\n 33377: a1 = u64 [sp + 0x8]\n 33380: a0 = 0 if a1 != 0\n 33382: jump [t0]\n      : @1127 (gas: 8)\n 33384: a0 = s1 + 0xffffffffffffffdc\n 33387: a1 = u64 [sp + 0x18]\n 33390: a0 = a1 <u a0\n 33393: a1 = u64 [sp + 0x10]\n 33396: a0 = 0 if a1 != 0\n 33398: a1 = u64 [sp + 0x8]\n 33401: a0 = 0 if a1 != 0\n 33403: jump [t0]\n      : @1128 (gas: 8)\n 33405: u64 [sp + 144] = 0\n 33409: u64 [sp + 136] = 0\n 33413: u64 [sp + 128] = 0\n 33417: a0 = 0x8c379a000000000\n 33427: a1 = sp + 0x80\n 33431: u64 [sp + 0x98] = a0\n 33435: a0 = u64 [sp + 0x18]\n 33438: jump [t0]\n      : @1129 (gas: 14)\n 33440: sp = sp + 0xffffffffffffff20\n 33444: u64 [sp + 0xd8] = ra\n 33448: u64 [sp + 0xd0] = s0\n 33452: u64 [sp + 0xc8] = s1\n 33456: s0 = sp + 0xe0\n 33460: sp = sp & 0xfffffffffffffff0\n 33463: a1 = u64 [a0 + 0x10]\n 33466: a2 = u64 [a0 + 0x18]\n 33469: a3 = u64 [a0 + 0x8]\n 33472: a0 = u64 [a0]\n 33474: a2 = a2 | a3\n 33477: a0 = a0 | a1\n 33480: a0 = a0 | a2\n 33483: jump [t0]\n      : @1130 (gas: 9)\n 33485: a0 = u64 [a3 + 0x18]\n 33488: a1 = u64 [a3 + 0x10]\n 33491: a2 = u64 [a3 + 0x8]\n 33494: a3 = u64 [a3]\n 33496: a0 = reverse a0\n 33498: a1 = reverse a1\n 33500: a2 = reverse a2\n 33502: a3 = reverse a3\n 33504: jump [t0]\n      : @1131 (gas: 5)\n 33506: u64 [s1 + 0x158] = a0\n 33510: u64 [s1 + 0x150] = a3\n 33514: u64 [s1 + 0x148] = a4\n 33518: u64 [s1 + 0x140] = a5\n 33522: jump [t0]\n      : @1132 (gas: 8)\n 33524: a0 = u64 [sp + 0x18]\n 33527: i32 a0 = a0 + 0x4\n 33530: u64 [sp + 120] = 0\n 33533: u64 [sp + 112] = 0\n 33536: u64 [sp + 96] = 0x20\n 33540: a1 = sp + 0x60\n 33543: u64 [sp + 104] = 0\n 33546: jump [t0]\n      : @1133 (gas: 6)\n 33548: a1 = a0 <u a1\n 33551: a3 = u64 [s1 + 0x150]\n 33555: a2 = a3 + a1\n 33558: a3 = a2 <u a3\n 33561: a3 = a1 if a1 == 0\n 33564: jump [t0]\n      : @1134 (gas: 7)\n 33566: a1 = u64 [s1 + 0x100]\n 33570: a0 = a1 <u a0\n 33573: a1 = u64 [s1 + 0xf0]\n 33577: a0 = 0 if a1 != 0\n 33579: a1 = u64 [s1 + 0xd0]\n 33583: a0 = 0 if a1 != 0\n 33585: jump [t0]\n      : @1135 (gas: 6)\n 33587: a0 = a2 <u a0\n 33590: a1 = u64 [a3 + 0x50]\n 33593: a0 = 0 if a1 != 0\n 33595: a1 = u64 [a3 + 0x48]\n 33598: a0 = 0 if a1 != 0\n 33600: jump [t0]\n      : @1136 (gas: 6)\n 33602: a0 = s1 <u a0\n 33605: a1 = u64 [sp + 0xc0]\n 33609: a0 = 0 if a1 != 0\n 33611: a1 = u64 [sp + 0xb8]\n 33615: a0 = 0 if a1 != 0\n 33617: jump [t0]\n      : @1137 (gas: 11)\n 33619: a4 = a0 <u a2\n 33622: a3 = u64 [s1 + 0x98]\n 33626: a2 = a3 + a4\n 33629: a3 = a2 <u a3\n 33632: a3 = a4 if a4 == 0\n 33635: a4 = u64 [s1 + 0xa8]\n 33639: a3 = a3 + a4\n 33642: a4 = a3 <u a4\n 33645: a5 = u64 [s1 + 0xa0]\n 33649: a4 = a4 + a5\n 33652: jump [t0]\n      : @1138 (gas: 9)\n 33654: a0 = 0xffffffbc\n 33664: a2 = s1 + 0x100\n 33668: a1 = u64 [a2 + 0x58]\n 33671: a0 = a1 <u a0\n 33674: a1 = u64 [a2 + 0x50]\n 33677: a0 = 0 if a1 != 0\n 33679: a1 = u64 [a2 + 0x48]\n 33682: a0 = 0 if a1 != 0\n 33684: jump [t0]\n      : @1139 (gas: 16)\n 33686: a4 = u64 [a3]\n 33688: u64 [sp + 0x18] = a4\n 33691: a4 = u64 [a3 + 0x8]\n 33694: u64 [sp + 0x20] = a4\n 33697: a4 = u64 [a3 + 0x10]\n 33700: u64 [sp + 0x28] = a4\n 33703: a3 = u64 [a3 + 0x18]\n 33706: u64 [sp + 0x30] = a3\n 33709: s1 = u64 [a2]\n 33711: a3 = u64 [a2 + 0x8]\n 33714: u64 [sp] = a3\n 33716: a3 = u64 [a2 + 0x10]\n 33719: u64 [sp + 0x8] = a3\n 33722: a2 = u64 [a2 + 0x18]\n 33725: u64 [sp + 0x10] = a2\n 33728: jump [t0]\n      : @1140 (gas: 10)\n 33730: a2 = s1 + 0x100\n 33734: a4 = u64 [a2 + 0x48]\n 33737: a3 = u64 [a2 + 0x50]\n 33740: a1 = u64 [a2 + 0x58]\n 33743: a0 = u64 [a2 + 0x40]\n 33746: a0 = a0 + 0xffffffffffffffdc\n 33749: a0 = a1 <u a0\n 33752: a0 = 0 if a3 != 0\n 33754: a0 = 0 if a4 != 0\n 33756: jump [t0]\n      : @1141 (gas: 6)\n 33758: i32 a0 = a2 + 0\n 33760: u64 [s1 + 0x150] = a0\n 33764: a0 = u64 [s1 + 0x158]\n 33768: a1 = a2\n 33770: u64 [s1 + 0x148] = a2\n 33774: jump [t0]\n      : @1142 (gas: 7)\n 33776: a0 = sp + 0xffffffffffffffe0\n 33779: a0 = a0 & 0xffffffffffffffe0\n 33782: u64 [s1 + 0x158] = a0\n 33786: sp = a0\n 33788: a1 = 0x40\n 33791: a0 = 0\n 33793: jump [t0]\n      : @1143 (gas: 7)\n 33795: a0 = sp + 0xffffffffffffffe0\n 33798: a0 = a0 & 0xffffffffffffffe0\n 33801: u64 [s1 + 0x138] = a0\n 33805: sp = a0\n 33807: a1 = 0x40\n 33810: a0 = 0\n 33812: jump [t0]\n      : @1144 (gas: 8)\n 33814: a2 = a3 | a4\n 33817: a1 = a0 | a5\n 33820: a1 = a1 | a2\n 33823: a1 = a1 >> 0x20\n 33826: a2 = a2 | a5\n 33829: a2 = a2 << 0x20\n 33832: a1 = a1 | a2\n 33835: jump [t0]\n      : @1145 (gas: 13)\n 33837: a4 = u64 [s1 + 0xb0]\n 33841: a2 = u64 [s1 + 0xa8]\n 33845: sp = sp + 0x10\n 33848: a0 = u64 [s1 + 0x158]\n 33852: a0 = a0 | a4\n 33855: a3 = u64 [s1 + 0xb8]\n 33859: a1 = a2 | a3\n 33862: a1 = a1 | a0\n 33865: a1 = a1 >> 0x20\n 33868: a0 = a0 | a3\n 33871: a0 = a0 << 0x20\n 33874: a0 = a0 | a1\n 33877: jump [t0]\n      : @1146 (gas: 10)\n 33879: a3 = a0 << 0x20\n 33882: a1 = reverse a1\n 33884: a1 = a1 >> 0x20\n 33887: a3 = a3 | a1\n 33890: a0 = a0 >> 0x20\n 33893: a1 = reverse a2\n 33895: a2 = a1 << 0x20\n 33898: a2 = a2 | a0\n 33901: a1 = a1 >> 0x20\n 33904: jump [t0]\n      : @1147 (gas: 4)\n 33906: a0 = 0x28d8\n 33910: a3 = s1 + a0\n 33913: a4 = a3 + 0x200\n 33917: jump [t0]\n      : @1148 (gas: 4)\n 33919: a0 = u64 [s1 + 0x158]\n 33923: a0 = i32 [a0]\n 33925: a1 = 0x23\n 33928: jump [t0]\n      : @1149 (gas: 10)\n 33930: a3 = s1 + a0\n 33933: a4 = a3 + 0x100\n 33937: a0 = u64 [a4 + 0xb8]\n 33941: a1 = u64 [a4 + 0xc0]\n 33945: a2 = u64 [a4 + 0xb0]\n 33949: a3 = u64 [a4 + 0xa8]\n 33953: a1 = a1 | a2\n 33956: a0 = a0 | a3\n 33959: a0 = a0 | a1\n 33962: jump [t0]\n      : @1150 (gas: 8)\n 33964: u64 [sp + 64] = 0\n 33967: u64 [sp + 56] = 0\n 33970: u64 [sp + 48] = 0\n 33973: a0 = 0x4e487b7100000000\n 33983: a1 = sp + 0x30\n 33986: u64 [sp + 0x48] = a0\n 33989: a0 = 0\n 33991: jump [t0]\n      : @1151 (gas: 8)\n 33993: u64 [s1 + 0x128] = a0\n 33997: a0 = u64 [s1 + 0x148]\n 34001: a0 = a0 + 0x1\n 34004: a1 = a0 <u 0x1\n 34007: a2 = u64 [s1 + 0x150]\n 34011: a1 = a1 + a2\n 34014: a2 = 0x3000\n 34018: jump [t0]\n      : @1152 (gas: 7)\n 34020: a1 = a0 | a4\n 34023: a1 = a1 | a2\n 34026: a1 = a1 >> 0x20\n 34029: a2 = a2 | a4\n 34032: a2 = a2 << 0x20\n 34035: a1 = a1 | a2\n 34038: jump [t0]\n      : @1153 (gas: 7)\n 34040: u64 [s1 + 0x150] = a1\n 34044: a1 = u64 [s1 + 0x140]\n 34048: a3 = a3 + a1\n 34051: a1 = a3 <u a1\n 34054: a4 = u64 [s1 + 0x158]\n 34058: a1 = a1 + a4\n 34061: jump [t0]\n      : @1154 (gas: 8)\n 34063: a4 = a3 + 0x600\n 34067: a0 = u64 [a4 + 0xc8]\n 34071: a1 = u64 [a4 + 0xd0]\n 34075: a2 = u32 [a3 + 0x6d8]\n 34079: u64 [a3 + 1728] = 0\n 34083: u64 [a4 + 0xb8] = a2\n 34087: u64 [a4 + 0xb0] = a1\n 34091: jump [t0]\n      : @1155 (gas: 7)\n 34093: a2 = a2 ^ a0\n 34096: a2 = a2 | a1\n 34099: a3 = a0 >> 0x20\n 34102: a3 = a3 <u 0x1\n 34105: a3 = 0 if a1 != 0\n 34107: a3 = 0 if a2 == 0\n 34109: jump [t0]\n      : @1156 (gas: 6)\n 34111: sp = s0 + 0xffffffffffffff20\n 34115: ra = u64 [sp + 0xd8]\n 34119: s0 = u64 [sp + 0xd0]\n 34123: s1 = u64 [sp + 0xc8]\n 34127: sp = sp + 0xe0\n 34131: jump [t0]\n      : @1157 (gas: 2)\n 34133: a3 = a2 & 0x40\n 34136: jump @1161 if a3 != 0\n      : @1158 (gas: 1)\n 34139: jump @1160 if a2 == 0\n      : @1159 (gas: 6)\n 34142: i32 a3 = 0x40 - a2\n 34145: a3 = a1 << a3\n 34148: a1 = a1 >> a2\n 34151: a0 = a0 >> a2\n 34154: a0 = a0 | a3\n 34157: ret\n      : @1160 (gas: 1)\n 34159: ret\n      : @1161 (gas: 4)\n 34161: a0 = a2 + 0xffffffffffffffc0\n 34164: a0 = a1 >> a0\n 34167: a1 = 0\n 34169: ret\n      : @1162 (gas: 2)\n 34171: a3 = a2 & 0x40\n 34174: jump @1166 if a3 != 0\n      : @1163 (gas: 1)\n 34177: jump @1165 if a2 == 0\n      : @1164 (gas: 6)\n 34180: i32 a3 = 0x40 - a2\n 34183: a3 = a0 >> a3\n 34186: a0 = a0 << a2\n 34189: a1 = a1 << a2\n 34192: a1 = a1 | a3\n 34195: ret\n      : @1165 (gas: 1)\n 34197: ret\n      : @1166 (gas: 4)\n 34199: a1 = a2 + 0xffffffffffffffc0\n 34202: a1 = a0 << a1\n 34205: a0 = 0\n 34207: ret\n",
        "bytecode": {
          "linkReferences": {},
          "object": "50564d00009a9e000000000000010700c14002c000800381ec2064696c61766e496464612054445355f40443b2a766a42db9815a1e2efa877e5c0519ec4fe51c83c442ba392fca77e28823f140dbaca711fb5fdb7cce8206db53f60c9b9a93014dd88a232f7cafc1f76369666675736e496c616220746e6569726f662065636e6170207473726966200000746e656d7961636e65757165724662207473756d2079657461657267206530206e61687420722064696c61766e4972657669656365727373657264646120e6d8186647f5847091063f7d0def110bff283e79b8ad5546d505d5764c8d017f7362757320746f4e6e6f697470697263000072656e776f205fa8165da7ce2bbd57dee04734d85c00e61974fe26f91b34a74dab913e6653d57069726373627553726c61206e6f6974616e69207964616520746e656d7961502065756420746f6e726566736e61725469616620656566206d2957015dbb19cd8f30c2b5af82734faf762b689d971374351c8bd78b7c181d65636572206f74206961662072657669656f64206e6f6974786520746f6e2073746f6e206e6f697400657669746361206d20746e756f6d4167206562207473757420726574616572726566736e6172540064656c696166206e6172746e6565523a647261754779636172746e65657220006c6c616320746e6369666675736e496c616220746e6569200000000481261200000000070000000b0000001900000027000000350000003b000000480000005a0000006500000074000000770000008400000094000000a4000000af000000c1000000cc0000006164647265737363616c6c63616c6c5f646174615f636f707963616c6c5f646174615f6c6f616463616c6c5f646174615f73697a6563616c6c65726465706f7369745f6576656e746765745f696d6d757461626c655f646174616765745f73746f72616765686173685f6b656363616b5f3235366e6f777265665f74696d655f6c65667472657475726e5f646174615f636f707972657475726e5f646174615f73697a657365616c5f72657475726e7365745f696d6d757461626c655f646174617365745f73746f7261676576616c75655f7472616e73666572726564051302c011800463616c6cc01980066465706c6f7906c0529b827b02c0a1856a00b201b50316041e04950497049f049e05e10563066e068906a306e8061707330776078c07d20703084b0855087d088908ea08ff082f0939097509270a4f0a8c0ac90ae30ae80a070b2a0b340b430b520b5b0b780be00bef0bf40b100c310c470c560c650c6e0c8b0ce40c1a0d1f0d3b0d5c0d660d750d840d8d0daa0db70d1b0e300e3a0ed00e340fd20fe30fb7104b119a11a711c211f8110d1217127512ed129c13c61326145d14671473140715101541155f15b615df15261648164e16541664167116771681169f16db1604171e1753176d179f17b917da17e4170f1828183319391985198b19ac19c019ce19e2190c1a171a271a381a421a641a9e1abc1a201b261b5f1b1c1c251c561c741cae1cbb1c221da71d0b1e211e511e571e7f1e851ee91ef31eff1e661f901f961f9c1fac1ff41fb720de204a21602198219e21ce21d4214a225022722290229622c622e822ee22f42204231123172321233f237f23a823ca23f8231a244724652484248d24b624ce24dc25e2257726a326cc26092745276f27862796270b282a2844286e2874288a28b628bc28e028f7287829ee29102a272a372a482a522a7d2a1c2b6d2b762ba72bc22b2c2c4d2c6b2cbb2cf92c292d522d8d2dcb2dd82d3c2e522ea22ec72ed12e042f292f822f882ff92f0a30e5305f319231df31003206320c321c322d3237325932a232d632e032003322332d333d337a338733a533dc33f133fb3359347c34ac34d934e934f334033525352b353135413552355c358835bb35d4351a3685369c366637d337f5381f3982399839ca39d039f839fe394f3abb3ad13a093b0f3b3f3b453b963bc13bdb3b053c0b3c213c4d3c533c773c8e3c563d633de93df73d613e263f903f55405f407f40a140ac40bc40cd40d740f5404b41ae41c441f64135429842ab42d342e142f1420f432c43b243704421459045a645de45e44514461a468946ca46d546e546f64600472a476b47874703484948a449bc49de491f4a7f4afe4a0b4b964ba14bd64bf84b124c594c664cab4cc54c0d4d594db44de44d064e1d4e2d4e734eac4eee4e3b4f764fba4fc84f3a504850b650c45033517f51b451fd5112521c523c525e5275528552c7523e53bc532554b854d854f854465581559755b65556566356d656345749575357445851586f58bb58ec58f25805590b59505975598d59a959f159ea5b3b5c675c6d5c735c835c945c9e5cbc5c175d605d8f5d9a5daa5dbb5dc55ddf5de55d4a5e7f5ea85e125f185f255fc55fc460d560a8611c6246625c6284628a62e262f56217631d636d639f63a563b863be63f063216427643a64406408657065c365d865e2659266a066d266f066fb660b671c67266745677267c86706681368206836686b688368ab68b1685a691a6a2b6ae26a566b846be96b436c836c896cc36cd06ce86c156d1b6d3c6d6b6dd56d406e4a6e7d6ece6e276f7a6f9e6fa96fb86fd86fee6f257016718c719971cb71e9711a72277259726972d6726f73d373a074be74e874ee74f77406750c7515751b7521752a753075367555755b7593759e75ad7574768f769576ae76d2769077e777ed77f67705780b7814781a78207829782f78357854785a7883788e789d784279487961798579ba79087a2b7a317a3a7a407a467a4f7a557a5b7a7a7a807ab37abe7ad37ad97ae27af17af77a007b067b0c7b157b1b7b217b407b467b797b847b937b4f7c687c8c7c137d7a7daa7dc87d5d7e737ecf7e3a7f7e7f198022809511e87b10107b15087b163306e801023905e8010251051c3307200203837783680a07013907e801022003e80102ac571082101082150882169511183200003908e801025108e208330720020383770a0f28d5089511f07b10087b15648964753308206497501002ea047c78017c797c7a027c7b03978808d4980897aa1097bb18d4ba0ad4a8087c79057c7a047c7b067c7c07979908d4a90997bb1097cc18d4cb0bd4b909979920d489027c79097c7a087c7b0a7c7c0b979908d4a90997bb1097cc18d4cb0bd4b9097c7a0d7c7b0c7c7c0e7c780f97aa08d4ba0a97cc10978818d4c808d4a808978820d498037c78117c7a107c7b127c7c13978808d4a80897bb1097cc18d4cb0bd4b8087c7a157c7b147c7c167c791797aa08d4ba0a97cc10979918d4c909d4a909979920d4890a7c78197c79187c7b1a7c7c1b978808d4980897bb1097cc18d4cb0bd4b8087c791d7c7b1c7c7c1e7c771f979908d4b90997cc10977718d4c707d49707977720d487076f776fa86f396f2a7b5a187b59107b58087b57821008821595111032009511d87b10207b15187b161082897b19088289087b19828510828618330820501004a2036f686f59821a6faa821b086fbb787b18787a10787908787898bc38787c1f98bc30787c1e98bc28787c1d98bc20787c1c98bc18787c1b98bc10787c1a98bb08787b1998ab38787b1798ab30787b1698ab28787b1598ab20787b1498ab18787b1398ab10787b1298aa08787a11989a38787a0f989a30787a0e989a28787a0d989a20787a0c989a18787a0b989a10787a0a98990878790998893878790798893078790698892878790598892078790498891878790398891078790298880878780182102082151882161095112832009511a07b10587b15507b16489515608411e06476828718828910828a0882886f776f996faa6f887b18187b1a107b19087b17491138491130491128491120481140208318831a20831b403309ff33070a08821738821830821928821a206f776f886f996faa7b6a187b69107b68087b679551a082105882155082164895116032009511a07b10587b15509515608411e08272827a08827b108277188283828908828c108288186f746fbb6faa6f276f826fcc6f996f387b17187b1a107b1b087b147b18387b19307b1c287b12208318831a203309ff330b2033070a109551a08210588215509511603200951160ff7b1098007b1590007b1688009515a0008411e082ab7b1b3882ab087b1b3082ab107b1b2882aa187b1a20829a7b1a18829a087b1a10829a107b1a088299187b1964865010069f0182186f888219086f99821a106faa821b186fbb7b1b587b1a507b19487b18408218206f888219286f99821a306faa821b386fbb7b1b787b1a707b19687b18608379836a8317403308020a06955160ff8210980082159000821688009511a00032007b183850100a36016f687b187882186f887b18708218086f887b18688218106f887b18608218186f887b1898008218206f887b1890008218286f887b1888008218306f887b1880008218406f887b18b8008218486f887b18b0008218506f887b18a8008218586f887b18a0008379811a388317603308030a0650120cb0800032007b1858501010b5006f687b18980082186f887b1890008218086f887b1888008218106f887b1880008218186f887b18b8008218206f887b18b0008218286f887b18a8008218306f887b18a0008218386f887b18d8008218406f887b18d0008218486f887b18c8008218506f887b18c0008218606f887b18f8008218686f887b18f0008218706f887b18e8008218786f887b18e0008379811a58831780003308040a069551e0fe8210180182151001821608019511200132008b7910520931c8780883881f8488e05638000001253309f00102390af00102ae8a093d08f001020133080002028377c887073200009511f07b10087b158475010a04013d07ec010251050750101247330014951110fe7b10e8017b15e0017b16d8019515f001951110cf8411e064169569d820492900074929f8064929e80680003307409568c0274929f00633003a28b0fb9511e0fd951700027b70187b75107b7608951520028411e049217801492170014921680149216001831760010a1101821770018218780182196801821a6001d49808d4a707d48707520789023906ec010297672098772095771f8477e09578a000d878077b1840017b17480194777b175001330740951840014921580150101630fb3307a0006468501018e6fe8377646833090a020154161f4b02951720013308a00050101ad0f98217300182183801330b011409000000000100000050121c8f7e510a2f02821828017b1818821620019777209877207b1710492198014921900149218801492180014921b8014921b0014921a8017b1ba001951780019518a00150101e1efc4921d8014921d0014921c8014921c001034921f8014921f0014921e8014921e001019517c0019518e001501020effb821818821910d48607d4970752073d019517a00033084050102226f9821bb8008216b000821aa8008217a000d4ba09d46708d49808988820d46909979920d4980852085901492190004921880049218000330224140900000000a079c30801951880007b1998007b17187b1a107b1b0850102607fa821818821a08d46a0a140600000000010000001407fcffffff00000000d87807821910949794a75107fe00838704491178491170491160209518604911687b1a08501028c1f9821a088219108218189567dcd87807949794a75107cc0083872449115849115049114014951840491148649650102a90f98219181407bcffffff00000000d8790794678218089487510797008397443a0800000264963a090800027b18387b1930140800000000737365727b182895182049112050102c48f9330864646750102efffc83783307013309640a0e01492118017b1600017b18080133078000951800017b19100150103016f99517e000330840501032d0f78217f8008218f0008219e8008216e000d49707d48609d47909989920d48707977720d49707510733003308000202838833070133090a0e28213308000202838833070133090a0e28113308000202838833070133090a0e01646733085010346afc8377330833090a029517c000330880005010365af78217d8008219d000821ac800821bc0003e073802033e093002033e0a2802033e0b200203281cf76467330850103825fc8378330733090a0e28aa3307ec01027b6758013907ec0102551704072827649517e08477e064714917184917104917087b67d8004907956700208377e007330833003c0a03019569d820819724075247a805248a0a28411351476cd48aa9b609956ad8305247255fb5b60a286d235247dc6e5dc90a28871f52475f9358da0a2808125147d31d31dce60b5147a7c4f1e1d80851477fe816e8730a5247f80c2a160a28b41c5247835023210a28e214524775d995230a2813115247644c22260a286e0f524760bf5b2d0a28291851474d7d1a2e0a287d2a9567d8284927600349275803492750034927480395670030837720fc33003e0a1101956ad82895ab000382b75882b86082b95082ba48d49808d4a707d48707510706281a63501240357aac7806280f6395670030837740fc3308040a039568d82895890003829780007b6750018297787b6748018297707b6740018297687b673801501042fe6e8267500182684001d487078268380182694801d49808d487078e779568d8104928c0044928b8047b87a804956780154928b00433004433024e0428da7733070002037b67580183777b6730013300460a0533024828c475501248c1754929a004959b00047bb898007bb79000956860157bba8800330750104a8cf69567d810492780044927780449277004647a33072095684015492a68040150104c69f6330840330750104e20fa9518e08488e07b682801501250da753300520a09826a2801330254285776826a280150125450767bcaa0007bc998007bc890007bc78800956720159568602c5010560df7956bd81095bc000482c75082c84882c95882ca6064b2826c4001d3c70bd8c707826c3801d8c808dbb708826b5001d3ba07d8ba0a826c4801d8c90bdb7a0bd3c909d49707db7b0885870149224004492238047b27280495670015492230043300583302be0428c3768267300133005a0a0533025c28b87450125cb57449292004959b00047bb8187bb7109568e0147bba08330750105e83f5956ad810492a0004492af803492af0033307209568c014492ae8030150106062f59517e08477e07b672801647133084033075010620df99518e08488e07b682001501264c7743300660a09826a2001330268284475826a20015012683d757bcac0007bc9b8007bc8b0007bc7a8009567a0149568802c50106afaf5956bd81082bac80382b7d00382b8d80382b9e003826c50017bbc8003826c48017bbc7803826c40017bbc7003826c38017bbc680395bc00037bc9a0007bc898007bc790009567801495686014956940147bca880050106cb46e956ad81095ab000382b7b80082b8c00082b9a80082bab000826b28017bb7107bb8187bb97bba088267300133006e0a05330270288d735012708a7349296003959b00037bb8587bb750956820147bba48330750107258f49569d81049294003492938034929280301330720956800144929300350107437f43308403307501076eef79518e08488e07b682001501278a87333007a0a09826a200133027c282574826a200150127c1e747bcae0007bc9d8007bc8d0007bc7c8009567a02c8268280150107e5cf59567e01333084050208000a3f29569d8108292200395980003828c18828b10828708d42b0ad4c708d4a808988820d4ca0a97aa20d4a80851080628e6564929f8024929f0024929e802140a00000000bb9c05a99568c0137b9a00037b6728017b6b20017b6c18017b6210015020820079f382673001330084000a058269580133028600280e7482695801502286000774d4780298aa206f99979820d4a80398992082672801957a04d87a0b82672001c8b70cd87c07dabb0782681801c88707d8870b82681001c88b0b9568d8107b8bc002958b00027bb7b8007bbcb000826750017bb78000826748017bb778826740017bb770826738017bb7687bbaa8007bb998007b8390027b828802648b9567a0139568801395696013956a4013492ba00250208800c26d9568d8108287d0028282e0028283c802828ad80282682001d3870bd8870c82602801d80304dab40c82691801c99a0bd89a0a82691001c99209c9a909d8cb0ac9a9097b690001c9cb0b7b6bf800c98707c947077b67f000c903077b67080150208a00d2f03a082002037b68e8003a083002037b68e0003a072802037b67d0000a0b018267d0006f779778208269e0006f99989920d498089877208269e8006f99979a20d4a707989920956b000182ba587aa9107ba7087ba89569d828492900044929f8034929f00382b7086472826cf800d4c70782b8826bf000d4b808d48707987720d4c808978820d487074929e80351070628075582672801642850208c0083f57b6700013308208267280150208e0072f59569d828959a0004481a0820491a40ff491a38ff491a30ff491a28ff956c000182c85897882098882014090000000008000000d498029568c02c9788209888209569002d979920d4890a82c897882098882082cb0897bb20d48b0b9777209877209568e02c978820d4780c3308ff3309ff64270a01015107062852480a0d01330820ae87080a0d6478019569d81082622801826b2001826c1801826a10017b680001492608017b9808027b922802492910027b9b3002492918027b9c380249292002956700139568e0127b9a400250209000fc648262280182680001c82807d8870882632001826c0801c83c09c88909d3c90ad8c90bdaa80b82601801c80c08c88b0bd88b04d8c808826a1001c8ac0cc8c808c884049568d8107b8bb8019568d8107b89b0019568d8107b87a8019567d8107b7ae0019567d8107b70d8019567d8107b73d0019567d8107b72c8019567c0129568a01295698012956bd8107bb4c001502092008d659567d8108278e8019567d8108277f0019569d8108299f801956ad81082aa0002956bd8107bbaa001956ad8107ba998019569d8107b979001956760129569d8107b9888013300940033027a042809719567401233084050209600b3ee956ad81095ac000182c7800082c87882c97082cb685022980007705107062805538267380195a900017b9748826740017b9750826748017b975895682012826750017b976064b77b6b500150209a009cef8267300133009c000a058269580133029e002831708269580150229e002a70d4780298aa206f99979820d4a8089899203a0ab000029567d8107b7a40013a0ab800023a0bc000023a0cc800027b7a3801957a00017bab30492720017bac287ba9187ba81033082095690012956ae0117b720801826750015020a000fbf09568d82849288004492878044928700449286804013307402d28e121492aa001492a9801492a9001492a880195670030837760020a1101956ad83095ab000182b7980082b8a00082b9900082ba8800d49808d4a707d4870751070628915a8267580181775617030728845a956720273308405020a2006ded956ad82095ac000682cb6082c85882c95082c748d49b0bd48709d4b909989920d4b808978820d4980851080628b151492a4006492a3806492a2806102795680027492a30067b675801330012012854ee9567d828492700074927f8064927f0064927e806956700308377c00a1101956ad82895ab000682b7f80082a8000782b9f00082bae800d49808d4a707d4870751070628e2598267580181775617030728d5599567e01f3308405020a400beec9567d818957900078298207b6858018298187b6850018298107b6840018297087b6748015020a60040ec956b000182b75882b840d4870782b848648a82b950d49808d47808988820d49707977720d4870751070628da503a092002033a082802033807300203956bd818492b000795bc00067bc7f8007bc8f0009568c01f7bc9e80064a75020a8006eed3308208267480133001401281ef1492ac001492ab801492ab001492aa80195670030837780023300aa000a113307d8303302ac002830703307d8305022ac00297051070628f7585022ae001270ac780628eb58956700308377a0023308040a03956ad83095ab000182b9c80082b7d00082b8d80082bae000956bd82095bc00067bcac0007bc8b8007bc7b0009567a027956880277bc9a8003300b0009511e0fd951900027b90187b95107b9608951520028411e064168289828a08828b108288187b67387b6858017b6b50017b6a4801956840017b69400133073300e604288aec3302b2009568d82001958900068297e000956800017b87588297d8007b87508297d0007b87488297c8007b8740956760273308405020b40019eb956ad82095ac000682c7a00082c8980082c9900082cb88005022b6006a6c51070628684f9569000182974095ac00067bc7688297487bc7708297507bc778956840278297587bc7800064b77b6b58013300120128faeb492ac000492ab800492ab000492aa80095670030837780013300b8000a1101956ad83082a7b80082a8c00082a9b00082aaa800d49808d4a707d48707510706288b575022ba00a66eac7806287f57956700308377a0013308040a03956ad83082a7c80082a8d00082a9d80082aae000956bd82095bc00067bca207bc9187bc8109568e0267bc70833075020bc006eeb9569d820492900064929f8054929e805023307209568c0264929f0055020be004ceb5022c000bb6d5020c20001ef9518e08488e07b6858015022c400ba6a3300c6000a093302c80028936b5022c800906b9567a0265020ca0005ec9568d8208287c8057b6738018287d0057b6730018087d8055022cc00306e8399d800c869097b98f000d478087b97e80088870182684001c887077b97f800d8870782685801c887077b970001956780269568c0315020ce00abeb9568d8208287a8057b6720018287b0057b6718018087b8057b671001826848019587025022d000d3697bc8207bca187bc9107bc708956760269568e0315020d20068eb9567d82095790005829888007b680801829890007b680001829898007b68f8008298a0007b68f000826848019587035022d40084697bc8407bca387bc9307bc72895674026956800325020d60019eb9567d820957900058298687b68e8008298707b68e0008298787b68d800829880007b68d000826848019587045022d80038697bc8607bca587bc9507bc74895672026956820325020da00cdea956cd82082c748057b67c80082c750057b67c000826848019587055022dc00386b82c858055022de001a6d82cb60057b6b4801956bd83095bc00017bc880007bca787bc9707bc76895670026956840325020e00077ea9567d8207c7728057b6740019567e0253308405020e20032e89568d82095870005827a207b6a58018279187b69b800827b107b6bb000828308057b63a8009511f09567e0247b1708956700257b17648782684001957c00047bc808826848017bc840826850017bc8388268c0007bc8308268c8007bc8288268d0007bc8608268d8007bc8588268e0007bc8508268e8007bc8488268f0007bc880008268f8007bc878826800017bc870826808017bc8684927200449271804492710044927a004826810017bc89800826818017bc89000826820017bc888004927c004826828017bc8b800826830017bc8b000826838017bc8a8007bcae0007bc9d8007bcbd00064729567c0259568a02595698025956a6025956b4025956c20257b23c8045020e400f8565022e600fa6a510706288e4b64a29568d8208287f004828a00057b6a50018283e804828af80428b20c9567d8284927400249273802492730024927280295670030837700fb3300e8000a113302ea0028f06a5022ea00ed6a82b73882b84082b93082ba28d49808d4a707d4870751070628be535022ec00d96aac780628b2539567ff079577a1075020ee00fe55956aff0795aad9005022f000476b9568ff07958881077bb7a80033075020f200b2e79569ff079599d9004929a0064929980649298806013307209568ff0795886107492990065020f40088e733084033075020f6003eeb9518e08488e07b6858015022f800f7663300fa000a09826a58013302fc0028ed65826a58015022fc00e66595bc00027bca607bc9587bc8507bc7489567ff07957741079568202b5020fe0022e89567ff079577d9009579000682988000956700017b78588298787b78508298707b78488298687b78409567ff079577210733084050200001bce5956aff0795aad90095ac000682c76082c85882c95082cb48502202010d67510706280b4a9569000182974095ac00067bc7288297487bc7308297507bc7389568ff07958801078297587bc74064b77b6b580133001201289ae69567d82849272002492718024927100249270802956700308377e0fa330004010a113302060128556950220601526982b71882b82082b91082ba08d49808d4a707d48707510706282352826758018177561703072816529567ff079577e10633084050200801fbe4956aff0795aad90095ac000682cb2082c81882c91082c708d49b0bd48709d4b909989920d4b808978820d49808510806283b49492a0006492af805492ae805649568ff079588c106492af0057b6758013300120128dbe5492a8000491a78491a70491a6895670030837740010a1101956ad83082a77882a8800082a97064ab82aa68d49808d4a707d4870751070628745182675801817856180307286751492ba000492b9800492b9000492b8800039567c0249568603150200a016ae633020c019568d8200182870004956900017b9758958a000382a7f8007b975082a7f0007b974882a7e8007b97409567a02433084050200e0104e4956ad82095ac000382c7e00082c8d80082c9d00082cbc8005022100155655107062853489569000182974095ac00037bc7a8008297487bc7b0008297507bc7b800956880248297587bc7c00064b77b6b580150201201e6e433082082675801502014019ae8837833092033070a0e019567d8284927c0044927b8044927b0044927a80495670030837780fd0a1101956ad82895ab000482b7b80082b8c00082b9b00082baa800d49808d4a707d4870751070628595082675801817756176307284c509567a01f502016019c529567d8188278d0067b6850018278c8067b6858018077d8067b674801956700308377a0fd3308240a039567d828957900048298e0007b6840018298d8007b6838018298d0007b6830018297c8007b672801956700308377c0fd3308440a030195690001829758829848d48707829850d4870751070628f81a9567401833084050201801b3e29569d8108292800795980007828c78828b70828768d42b0ad4c708d4a808988820d4ca0a97aa20d4a80851080628f646492958074929500749294807140a00000000a079c308956820187b9a60077b6758017b6b50017b6240017b6c480150201a0189e3956c000182c85882c74882ca40d47a0a50221c01206252070628a6468387049569d8104929400749293807492928072095680018492930077b6a48017b6b400150201e0143e350222001ab62520706287046838724956ad810492a2007492a1807492a0807189568e017492a10075020220115e350222401056252070628424683a7443a089800023a09a000023a0aa80002956bd8107bb800077bb9f8067bbaf0069568c017492be8063300080428d5e29567d8284927c0014927b8014927b0014927a80195670030837780fa330026010a113307d8283302280128a4653307d828502228019d65510706286b4e50222a018665ac7806285f4e956700308377a0fa3308040a039567d828957c000182cbe00082cad80082c8d00082c9c8009567ff079577d9007b6b0001957c00057bcbe0007b6a08017bcad8007b6810017bc8d0009568ff079588a1067b6918017bc9c800330750202c012ee29569ff079599d9004929c0054929b8054929a805023307209568ff07958881064929b00550202e0104e250223001606450203201b9e59518e08488e07b6850015022340172610a09826a500182a71882a81082a90882aa6f7c6f8b6f976fa87b683001826958017b98187b6738017b97107b6b28017b9b087b6c20017b9c64989567ff07957761065020360192e29567ff079577d900827890057b685801827888057b685001807798057b67480133070002037b67400183770a0501956c000182c94082970882988199106f77987a206f88978b20d4ba0a9777206f99989920d4970798882082c948d3980882c950d39707d4870782c858d3a808d4870751070628d7199517e08478e0648182692001959705d8970b826a2801c8ba09d8a90adabb0a826b3801c8ba0ad8ba0c826b3001c8cb0b7b89087b877b8a107b8b189567ff079577a1057b68580150203801cfe19567ff079577d9008277c8048478ff0051080628c94c9567ff079577410533084050203a017cdf9569ff079599d9008292800495980004828c78828b70828768d42b0ad4c708d4a808988820d4ca0a97aa20d4a80851080628bb43492958044929500449294804140a00000000a079c3089568ff07958821057b9a60047b6758017b6b50017b6240017b6c480150203c014ae0956c000182c85882c74882ca40d47a0a50223e01e15e5207062867438387049569ff079599d900492940044929380449292804209568ff0795880105492930047b6a48017b6b400150204001fcdf502242012a625207062829438387249569ff079599d9004929200449291804492908041d9568ff079588e1044929100450204401c6df50224601b65e52070628f34283a7443a080801023a091001023a0a180102956bff0795bbd9007bb8000495bc00037bc9f8007bcaf000140900000065766974639568ff079588c1047bc9e800330008042870df9567d8284927800249277802492770024927680295670030837740fb330048010a1133024a01282b6250224a01286282b77882b8800082b97082ba68d49808d4a707d4870751070628f84a50224c011362ac780628ec4a95670030837760fb33080433004e010a033302500128e56150225001e26182b7880082b8900082b9980082baa000956bd8107bba00017bb9f8007bb8f0009568c0117bb7e800330750205201cede9569d8104929e0004929d8004929c800023307209568a0114929d00050205401acde502256011b615020580161e29518e08488e07b68580150225a011a5e33005c010a0933025e0128f35e50225e01f05e956780115020600165df9568d8108287a8007b6738018287b0007b6730018087b8005022620190618399d8f8c86909959a00027ba8b000d478087ba7a80088870182684001c887077ba7b800d8870782685801c887077ba7c000956760119568802b5020640107df9568d810828788007b672001828790007b671801808798007b6710018268480195870250226601815d95bc00027bc8e0007bcad8007bc9d0007bc7c800956740119568a02b50206801bcde9567d8108278687b6808018278707b6800018278787b68f800827880007b68f0008268480195870350226a01315d7bb8000395b800027b8af8007b89f0007b87e800956720119568c02b50206c016cde9567d8108278487b68e8008278507b68e0008278587b68d8008278607b68d0008268480195870450226e01e25c95bc00037bc8207bca187bc9107bc708956700119568e02b5020700121de956cd81082c7287b67c80082c7307b67c00082684801958705502272018e5e82c83850227401716082cb407b6b4801956bd82895bc00037bc8407bca387bc9307bc7289567e0109568002c50207601d0dd9567d8107c77087b6740019567c010330840502078018cdb9567d81082797b6958018278f87b68b800827af07b6ab0008273e87b63a8009511f09567ff079577c1077b17089567ff079577e1077b179562ff079522d900826740017b27e80682674801952b00077bb720826750017bb7188267c0007bb7108267c8007bb7088267d0007bb7408267d8007bb7388267e0007bb7308267e8007bb7288267f0007bb7608267f8007bb758826700017bb750826708017bb748492200074922f8064922f00649228007826710017bb778826718017bb770826720017bb7684922a007826728017bb79800826730017bb79000826738017bb788007bb9c0007bb8b8007bbab0009567a0109568801095696010956a4010956b2010956c00107b23a80750207a014f4a50227c01515e51070628e53e64a29568ff079588d900958c000782c7d00082cae0007b6a50018283c80782cad80001d3b704d8b70cd89300da400cc92a08c9c804d8c8087b684801d82a0a826c580182685001c9c80cc9ac0c82684801c98c0cc9b707c90707c99308d4c707d4480ad47a0ad4470798aa20977720d4a707510706286d3e64977b68580133007e0128e5de7b68580150207e01dede83788169580133070a0e2844f64929400749293807492930074929280795670030837700f8330080010a1101956ad82095ab000782b73882b84082b93082ba28d49808d4a707d48707510706289e4650228201b95dac780628924695670030837720f83308040a039567d820957900078298607b68b0008298587b68b8008298507b68c0008297487b67c8005020840182529567ff079577d9008268b000957a00037ba8e0008268b8007ba8d8008268c0007ba8d0009568ff079588a1048269c8007ba9c8003307502086014fda9569ff079599d9004929c0034929b8034929a803023307209568ff07958881044929b0035020880125da9517e08477e07b67d0006471330840330750208a01cfdd9518e08488e07b68580150228c0188590a09826a580182a71882a81082a90882a26f7b6f8a6f9c6f298267d0007b79187b7c107b7a087b7b9517e08478e0648195b2057b6b9000d8b20bc8ba077b6a9800d8a70adabb0ac8ca0a7b6ca800d8ca0b7b69a000c89b0b7b8a107b87087b827b8b189567ff07957761047b68880050208e017bda9567ff079577d9007c778803510706286a139567e0013308405020900130d895680001828bf800828cf000828ae8008287e00050229201d85b51080628833c4926d0014926c8014926c001140900000000a079c3089568c0017b69d801502294017a5a5020960120d9956c000182c85882c74882ca40d47a0a50229801b757520706283d3c8387044926b8014926b0014926a001209568a0014926a8017b6a48017b6b400150209a01ded850229c014658520706280b3c83872449269801492690014926800117956880014926880150209e01b4d8956a000182a9581407bcffffff000000005022a001425a52070628d03b8397443a080801023a098001023a0a880102956b00017bb8787bb9707bba689568600149266001330008042866d8491a40491a38491a30491a2895670030837700010a1101956ad83082a73882a84082a93082aa28d49808d4a707d487075107062803448267580181775617430728f643956760245020a20146469568d820828788037b673801828790037b673001808798037b67280195670030837720013308240a039567d8308278607b6850018278587b6858018278507b6848018277487b6740019567d8204927800382682801957a00037ba878826830017ba87095684024826938017ba96833075020a401a6d79569d8204929600349295803492948030433072095682024492950035020a60184d79517e08477e07b671801647133084033075020a8012edb9518e08488e07b6838015022aa01e7563300ac010a09826a38013302ae01288858826a38015022ae0181587b6a2001826b18017bba187b6928017bb9107b6830017bb8087b6738017bb764b8956700245020b00109d8826050018264480182634001956ad82095ab000382b73082b82882b93864a282ba40d3740bd87407d88308dbb708d3a007d8a00c826a5801d89a0bdb7c0bd3a909d49707db7b0852080628c3429517e08477e07b67180164717b20c002952b00027bbab8007b24b0027b23a802826720017bb7e000826728017bb7d800826730017bb7d0009567c0239568a02395698023826a38017bbac8005020b201f147956ad82095a900038297207b6720018297187b6730018297107b6728018297087b67380195ab000282b7f800829882b9e80082baf000826b18017bb7107bb8187bb97bba0864b8956760235020b40119d73302b6019568d82001958900028297a000956800017b8758829798007b8750829790007b8740829788007b8748956740233308405020b801b3d4956ad82095ac000282c7800082c87882c97082cb685022ba0107565107062805398267380198793d826c280197c803d49803826a300198a83d82692001979903d4980898c93d97aa03d4a909977a037b6a28018e9c7b6b30018e8bda8c0b8e3288ac000185cc01db320cd49808db8b0c7b6c200183a98082675001826858015020bc012f597b6718017b681001826738018a79037b69380182674801826840015020be010e597b6708017b680001826828018d89800082675001826858015020c001165982690001d4890982682801888b80007b6b0001826a1001daba09826a4001da8a097b69400182690801d4970782691801dab90782694801da89077b6748018267500182685801826938015020c201a058826900019398939782692001826b4801949b826a4001949a949794989569d820959c00027bc8607bc7587bca50956820237bcb48826730015020c4019bd43308208267300133001401284bd89567d82849272007492718074927100749270807956700308377e03300c6010a1101956ad82895ab000782b71882b82082b91082ba08d49808d4a707d487075107062818405022c8013357ac7806280c409567003083773308040a039567d828957900078298407b6858018298387b6850018298307b6848018297287b6740015020ca01fe4b956a000182a75882a848d4870782a85082a940d49808d487078e779568d82049284002492838027b87280295670023492830023300cc0133024e0428d8549567e0223308405020ce0182d29569d8208292200295980002828c18828b10828708d42b0ad4c708d4a808988820d4ca0a97aa20d4a80851080628c5364929f8014929f0014929e801140a00000000dd72b8239568c0227b9a00027b6738017b6b30017b6c20017b6218015020d00158d333070002037b67280183777b6710013300d2010a0501956c000182cb3882c72082c818d48709140a00000000010000001407fcffffff00000000d87b0782c830948794975207062847367b6908018269280182970881981082996f777b6a00015022d401bb5583b704956bd820492be00195bc00017bc8d8007bc9d0009568a0227bcac8005020d601cdd2826710013300d8010a01956a000182a90882ab3882a79577dcd87b0782a8309487949752070628dd358269280182970881981082996f775022da01595583b724956bd820492bc00195bc00017bc8b8007bc9b000956880227bcaa8005020dc016bd295690001829a381407bcffffff00000000d87a078298309487829808948752070628803583a74482684001956bd82095ba00017ba88800826848017ba89000826850017ba8980095686022826958017ba9a0005020de0112d25020e0017ed03a082002037b6808013a083002037b6800013a072802037b67f8000a0b8267f8006f77977820826900016f99989920d49808987720826908016f99979a20d4a707989920826a28017aa9107ba7087ba89567d82849276007492758074927500749274807330864826738015020e2015cd57b670801330820826738015020e4014bd59569d828959a0007481a6820492aa000ff492a9800ff492a9000ff492a8800ff8268280197882098882014090000000008000000d498029568203097882098882095696030979920d4890a8268080197882098882014090000000064000000d4980b97772098772095684030978820d4780c3308ff3309ff64270a010151070628d6320a0d01330820ae87080a0d6478019569d82082623801826b3001826c2001826a18017b680001492608017b9828017b924801492930017b9b5001492938017b9c58014929400195672022956800227b9a60015020e601ce448262380182670001c82700d8700882633001826c0801c83c09c88909d3c90ad8c90bdaa80b826a2001c8ac08c88b0bd88b04d8c80882671801c87c0cc8c808c884049568d8207b8bd8007b89d0007b80c8007b8700017b8af8007b83f0007b82e800648a9567e0219568c0219569a0217ba4e0005020e8017945956bd82095bc000182c80882c71082c91882ca207bbac0007bb9b8007bb7b000956780217bb8a8003300ea0133027a04281151826710010a058269280182970881981082996f77977a206f88988820d48a0a9877206f98978920d497079888209569d8204929a0007b9898007b979000956860217b9a880033075020ec01b5cf9567d82049278000491778491770647a33072095684021491a68015020ee0194cf5022f00103525020f20149d39518e08488e07b6830015022f401024f3300f6010a09826a30013302f80128f84d826a30015022f801f14d95bc00077bcae0007bc9d8007bc8d0007bc7c800956720219568a0305020fa012dd0956bd82082ba4882b75082b85882b960826c58017bbc826c50017bbcf8826c48017bbcf0826c40017bbce87bb9207bb8187bb710956700219568e0209569c0207bba085020fc010146956ad82082a73882a84082a92882aa30826b38017bb7107bb8187bb97bba08826710013300fe010a05826928013302000228884d8269280150220002814d4929e007959b00077bb8d8007bb7d0009568a0207bbac80033075020020294ce956ad818492ac007492ab807492ab00733072095688020492aa807015020040272ce33084033075020060228d29518e08488e07b68300150220802e14d0a09826a300182a71882a81082a90882aa6f776f886f996faa956bd8307bba95ba00ff7ba9f8007ba8f0007ba7e8009567c0308268380150200a028dcf9567602033084050200c02d3cc956ad81895ac000782c7a00082c8980082c9900082cb880050220e02244e5107062822318267400195a900077b9768826748017b9770826750017b977895684020826758017b97800064b77b6b580150201002b8cd82671001330012020a058269280133021402284d4e8269280150221402464ed4780298aa206f99979820d4a8089899203a0a1000029567d8187b7a60073a0a1800023a0b2000023a0c2800027b7a5807957a00077bab50492740077bac487ba9387ba83033082095692020956a00207b722807826758015020160217cf9568d830491820491818491810491808013307e03001c876088267d800502018028bce28c439514788a56c2e0a28ec389567d8284927a00449279804492790044927880495670030837760fd33001a020a1101956ad82895ab000482b7980082b8a00082b9900082ba8800d49808d4a707d4870751070628913850221c02ac4fac78062885389567a01750201e02d53a956ad810502220022250956880177bb7a80033075020220291cc9569d8104929a0064929980649298806043307209568601749299006502024026fcc50222602cb4e5020280224d09518e08488e07b68500150222a02dd4b33002c020a09826a500133022e02287e4d826a500150222e02774d7b6a3801826b58017bba187b6940017bb9107b6848017bb8087b6750017bb79567401733084050203002d2ca9567d81095790006829880007b6898008298787b6890008298707b6888008297687b67a000956720178268580150203202cbcc82648800826b9000826898008267a000d4840950223402164f51080628f32e9568d8108282600682835806958a000682a95082ac487b6cd0007bac287b69d8007ba9307b63e0007b8338066489956800177b62e8007b924006502036027acb8268a0009587207b67b000d8870782698800c879087b68b800d89808da770882679000c878087b68a800d8780782689800c887077b67c000826738019568d810958900067b9720826740017b9718826748017b971064899568e016826750017b9708063307502038020fcb9517e08477e07b67c8006471330820330750203a02b9ce9518e08488e07b6858016481837783893308200a098268c80033023303330049263801826a580182a71882ab1082a90882ac6f746fbb6f9a6fc964977b89187b6a18017b8a1064bc7b8b087b6420017b848269b000956a00017ba9588269b8007ba9488269a8007ba9408269c0007ba95001956b00017bb7287bbc308267d000d872078269d800d3930ad89309daa7098267e000d87004826ae80082bc38d3ac0bd8ac0adab40ad37007d4b707da790a510a7e057b6000017b6308017b6210019567c01550203c0220cb95680001828c58828b40d4bc07828a50828948d4a908d48707987720d4b808978820d48707510706283c2d9567d8107b6b4001647b827200058278f8048277f0047b6a500182bae8047bbac8047bb7d0047bb8d8049568a0157bb2e00464c77b6c58017b69480150203e02c1c9826858019587207b67f800d8870982684801c898077b67f000d8870ada990a82674001c8a700d8700a82675001c8a7077b675001826420019544017b642001884a0182673001c8a707d4740a88aa0182681801c88a0ad88a0b82692801c8b90982621001952201882b0182630801c8b303d4320b88bb01826c0001c8cb0bd8cb0c82683801c8c8087b683801647c8268c8007b87087b847b8a1064977b89187b6a18018269f8007b6958018269f0007b6948017b60400164b02882fe9567d828827800057b682001957900048298f8007b6818018298f0007b6810018297e8007b6708018267380182682801d487078268400182693001d49808d487078e779568d8184928c0064928b8067b87a8069567801f4928b0063300400233024e0428ae49956a000182a71882a808d4870782a82082a910d49808d48707520727079567e018330840502042023bc79569d818829220829c18829b10829a08d42b07d4ca08d47808988820d4c707977720d4870751070628832b9567d8104927f8074927f0074927e807140700000000a079c3089568c0187b9764a77b6a58017b6b50017b6248017b6c40015020440212c8956c000182c85882c74882ca40d47a0a50224602a946520706282f2b8387049569d8104929e0074929d8074929d007330c209568a0187b9cc8077b6a48017b6b400150204802cac750224a02f84952070628f72a8387249569d8104929c0074929b8074929a80720956880184929b00750204c029cc750224e028c4652070628c92a83a7443a08780002956bd81095bc00077bc8a0003a088000023a098800023a0a9000027bc898007bc99000956860187bca8800330008042853c79567ff0795774106330840502050020bc69569ff079599d9008292800595980005828c78828b70828768d42b0ad4c708d4a808988820d4ca0a97aa20d4a808510806284a2a492958054929500549294805140a00000000a079c3089568ff07958821067b9a60057b6758017b6b50017b6240017b6c480150205202d9c6956c000182c85882c74882ca40d47a0a50225402704552070628f6298387049569ff079599d900492940054929380549292805209568ff0795880106492930057b6a48017b6b4001502056028bc650225802f34552070628b829838724956aff0795aad900492a2005492a1805492a0805169568ff079588e105492a100550205a0255c650225c02454552070628822983a7443a08d000023a09d800023a0ae00002956bff0795bbd9007bb800057bb9f8047bbaf0049568ff079588c105492be80433000804280dc69567ff07957741048268d00050205e02f0c69567ff079577d9008079780382786803827a7003d49807d4a70752074107956780023308405020600299c495680002828b9800828c9000828a88008287800050226202414851080628ec28492670024926680249266002140900000000a079c308956860027b69780250226402e3465020660289c5956c000182c85882c74882ca40d47a0a50226802204452070628a6288387044926580249265002492640022095684002492648027b6a48017b6b400150206a0247c550226c02af445207062874288387244926380249263002492620021b956820024926280250206e021dc5956a000182a9581407bcffffff0000000050227002ab465207062839288397443a080801023a097001023a0a780102956b00027bb8187bb9107bba0814090000000000747369956800027bb93300080428c7c48267a00082685801d8780482688800826c4801d38c0ad88c09daa40982629000826a4001c92a03d82a0a82609800826b5001c90b0bc9ab0bd8930ac9ab0b7b6b5001c99303c98c09c94909826b5801c97b0b956ad81095ac00057bc7e8007bcbc8007bc8f0007ba2f8057bc9d0007ba000067ba3d8059567c0169568a016826950017bc9e000502072025d389567801633084050207402f7c29569d8108292c00595980005828cb800828bb0008287a800d42b0ad4c708d4a808988820d4ca0a97aa20d4a8085108062837279578207b685001d87803c83b087b685801d8b808da3308c8c8087b684001d8c808c828087b6848014929a00549299805492990059568601649298805207b67f0007b6be8007b62e0007b6cd80050207602abc3956740168268a0005020780263c2956c000182c75082ca40d4a70982c85882cb48d4b808d48909989920d4a808978820d4980851080628ab26956cd81082cb800582c8780582c9700582ca68057b6af8007bca48057b69000195ca00057ba9507b6808017ba858956820167b6b10017bab6050207a0233c33300330b330233048268f000958740956a00017ba750d887078269e800c879087ba848d89808da77088267d800c878087ba840d878078268e000c887077ba7588268b0008263a800018267f800d8700782690001d39b0a7b6b3801d89b09daa709826c0801d8c207826a1001d3a40bd8a40adab70ad3c207d4b707da790a520a06288325d438078269c000826ab800d4a909d49707987720d43909979920d4970751070628c5257b6220017b6428017b6030017b63a800956700167b68b00050207c0234c195680001828c50828940d49c07828a5882634801d4a308d48707987720d49808978820d48707510706287b25956bd8107b69400182b2400595b900058298388297307b6a5801829a287b9a087b97107b98189568e0157bb2200564c77b6c50017b63480150207e0204c2826850019587207b671801d8870982674801c89703d8730ada990a82674001c8a702d8720a82675801c8a7077b6758018267b000957a20d87a0b8267b800c8b70cd87c07dabb078268a800c87809d8890b8267c000c8b7077b67c00082603001950001880b0182643801c8b404d4400b88bb0182672001c87b0bd87b0882672801c88707826818017b6850017b6348017b62400164a87b6cb800649364b2644b64742878fe33070002037b67f80083777b67e800330080020a058269f800330282022809408269f8005022820202404929a006959b00067bb898007bb790009568601f7bba880033075020840215c19569d818492980064929780649296806013307209568401f4929700650208602f3c0330840330750208802a9c49518e08488e07b68000150228a02624033008c020a09826a000133028e0228583f826a000150228e02513f95bc00057bca207bc9187bc8107bc7089567201f9568e02d5020900291c1956ad81895ab000682b75082b84882b95882ba60826c3001d3c70bd8c707826c2801d8c808dbb708826b4001d3ba07d8ba0a826c3801d8c90bdb7a0bd3c909d49707db7b08510822099567a019330840502092020fbf9569d8188292e000829cd800829bd0008297c800d42b0ad4c708d4a808988820d4ca0a97aa20d4a8085108062853234929b8004929b0004929a800140a00000000a079c308956880197b9ac0007b6758017b6b50017b6240017b6c480150209402e6bf956c000182c85882c74882ca40d47a0a502296027d3e5207062803238387049569d818330c4929a00049299800492988002095686019492990007b6a48017b6b4001502098029ebf956a000182a85882a7409577dcd8780782a950949782a948949752070628b7228387249569d81849298000491978491968269568401949197050209a025fbf95670001827a48827b50827858140900000000010000001407bcffffff00000000d8780794b794a7520706286a228387443a085000027b694001956cd8187bc8603a085800023a096000023a0a6800027bc8587bc950956820197bca4850209c02fcbe956a000182a95882a74095779c50229e028e40520706281c228397643a08700002956ad818491a38491a307ba84095680019491a285020a002c1be33088400826758015020a20274c28378330701330984003300a4020a0e017b6a607b69687b68709517e08478e06481826990009597045022a6024a407b89087b877b8a107b8b189567ff07957721047b6858015020a8025abf956aff0795aad90082a2600395a70003827c58827b50827948d42b07d4c908d487075107110382689000958703d88708826a98007b695001c88a09d8a90ada880a8268a800c88a0ad88a087b6b4801826ba000c8b808956bd8207bb7680795b700077b79707b7a787b7880009567ff0795770104956840287b6c40017b6238015020aa02d4be9567ff079577d900827728039568ff079588d900828830039569ff079599d90082993803956aff0795aad90082aa4003956bff0795bbd9007bbae002956aff0795aad9007ba9d8029569ff079599d9007b98d0029568ff079588d9007b87c8029567ff079577d900826838017b7800039567ff079577d900826840017b78f8029567ff079577d900826848017b78f0029567ff079577e1039568ff079588c1039569ff079599a103956aff0795aad900826b50017babe8025020ac0233349567ff079577d900827708037b6750019567ff079577d900827710037b6748019567ff079577d900827718037b6740019567ff079577d900827720037b67380195670030837760f80a0a01956ad82095a800078287a00082a2880782899800828a900082683801d3870bd8870882674001d8790cdbb80c82684801d38a03d88a0a82685001d88208db3a08956aff0795aad900d39707d4b707db7c08510853019567ff07957781033308405020ae0239bb9569ff079599d9008292c00295980002828cb800828bb0008287a800d42b0ad4c708d4a808988820d4ca0a97aa20d4a80851080628751f492998024929900249298802140a00000000a079c3089568ff07958861037b9aa0027b6758017b6b50017b6240017b6c48015020b00204bc956c000182c85882c74882ca40d47a0a5022b2029b3a52070628211f8387049569ff079599d900492980024929780249296802209568ff0795884103492970027b6a48017b6b40015020b402b6bb5022b6021e3b52070628e31e838724956aff0795aad900492a6002492a5802492a4802139568ff0795882103492a50025020b80280bb5022ba02703a52070628ad1e83a7443a082001023a09280102956bff0795bbd90095ba00027ba8407ba938140800000000007465797ba8309568ff0795880103492b2802330008042832bb492a200282677095a900027b97088267607b97109568ff079588e1028267687b971833075020bc020bbb9517e08478e064814918184918104918087b68184908019569ff079599d900492900024929f8014929e801013307209568ff079588c1024929f0015020be02caba33084033075020c00280be9518e08488e07b6850015022c202393a3300c4020a09826a50013302c60228da3b826a50015022c602d33b956bd82095bc00077bcac0007bc9b8007bc8b0007bc7a8009567ff079577a102956880285020c8025cbb9567ff079577d900957900018298c8007b6848018298d0007b6838018298d8007b6850018298e0007b6840019517e08478e06481826990009597025022ca02ee3b7b8b187b8a107b89087b879567ff07957781027b68105020cc02ffba956bff0795bbd90082b8b0017b684882bac0017b6a7882b7a8017b67800082bcb8017b6c4082693801d38902d8890882694801d87909db280982684001d3a807d8a80282685001d8c80adb720ad3c808d48707db7a09859701492ba001492b98017bb788019567ff0795776102492b90013300ce023302be0428a03a956700308377a0f80a0a956ad82095ab000782b7e00082b8d80082b9d00082bac800956bd8287bb795b700ff7b78f8007b79f0007b7ae8009568c028826758015020d002beba33046482678000d64708826a48ca4a09c898087b6858d89808d64a09c89808826c40ca4c09c89800d88008826b78ca4b09d64c02c82909d4ab0bd47c0cd4cb0bc88903510b1c9438d82909826a78d64a0a8eaad4a909d49808510806284e26826880009689647b6950d40907826458d43408d487078877017b6758016807957740683bda370b68979577406848da470895878000d43009da970bd8870a949a8eac88b7f300857901daa90c88c7019572ff9ac79aaac99a099ab8f2007b6748018e7a64278e2bda2a0b8e9a7b68500188880001858801db9a08dbcb08826a5801d4a8087b633094837b60389480644b948b8262509482510806284012826850018588ff00826c4801d4c808d4790ad4a808520806282512826b500195ba017b6a580188a801c898087b683801d4a808888801c8c8087b682801d8c808c887077b6730019ab8ff007b6840019a8980008267508268585020d202b73b7b6748017b681801826738826830826940015020d402c53b7b67200182671801d487077b671801826850019a897f8267508268585020d602a33b82694001889a80007b6a5001826b1801dbab08826b30da9b087b68100182684801826b2001d4b808daa708826738da97087b6848018267508268585020d802623b826b2801826c300182693801d49c0c826a5801d4ba0ad4ca0a956b000182b95093987bb84093977bb750510a0628100f330c4926f8008260100128ee109567d82849274005492738054927300549272805039567001f9568002e5020da0207b89568d818958c000682c72882cb4082c93082ca387b67c8009577018878017b69c000c89808d48709889901c8a9097b6ab000d8a90a7b6bb800c8ba0ad4a80bd4970cd4cb0b520b06288a23956bd828492b6005492b5805492b5005492b48050395bc00057bc7687bc8707bc9787bca80009567202e9568402e5020dc0209b89567e01e3308405020de024fb59567d81895780006828c20828b18828a108289088ec78eb8dbc7088ea77b690001889940ff8599017b6af000dba709d4cb077b67d000db7809510906285b23826700019572c000d872088269f000c88907d8970ada880ac8ba0ad8ba087b6be000c88c0b9568d8187b6cd800648c7b82e8057b87f0057b8af8053307409568c01e7bcb00065020e002feb58267e8003300e2020a0501826700018269e000d497078268f000826ad800d4a808d48707987720d49808978820d487075107062801198269f8005022e4028b344929e005959b00057bb8d8007bb7d0009568a01e7bbac800826700015020e6029cb5140900000000010000001407e0ffffff000000005022e802123752070628b51882670001837a209567d8187b69e00064794927c00582675801959b00057bb7a800826750017bb7b0009568801e826748017bb7b8007b6ad80064a75020ea023bb58267e0009577c05022ec02be3652070628611882670001837a40826728019569d818959b00057bb78800826730017bb79000826738017bb798009568601e826740017bb7a0007b6ae00064a75020ee02e9b4140900000000010000001407a0ffffff000000005022f0025f3652070628021882670001837a60826708019568d8187b69a8006489958b00057bb768826710017bb770826718017bb7789568401e826720017b9780057b6a980064a75020f20287b48269d0008267a80095778082680001d878078268f0009487949752070628a01782670001837980009567d8184927600549275805492750059568201e492748057b69880064975020f4023bb4140860ffffff0000000082670001d887088267f00094788267d00094785208062851171407ffffffff000000007b678000826700018377a0007b6778956ad818492a4005492a3805492a30059568001e492a2805015020f602e0b38267b8009569d818959a00057ba7208267b0007ba7188267c0007ba7109568e01d8267c8007ba70833075020f802b0b39569d818492900054929f8044929e804023307209568c01d4929f0045020fa028eb39517e08477e07b679000647133084033075020fc0238b79518e08488e07b68f0005022fe02f1320a09826af00082a71882a81082a90882aa6f7b7b6ba8006f887b68d0006f9c7b6ca0006fa77b67f000826990007b97187b9c107b98087b9b9567a01d8268000150200003e7b19569d818959a000482a7c80082a8d00082a9d8008477ff7b6700018488ff7b687082678000d297077b67689567801d8268900050200203dab39568d8188087bc049777208288c004826968d497079569d828826a70959b00057bba9000826a00017bba88007bb8a0007bb798009568602e826790005020040319b49517e0847ce064c18267a8009577018878018269d000c89808d48709889901826aa000c8a909d8a90a826bf000c8ba0a7b6c00017bca187bc9107bc8087bc79567601d8268d800502006031fb19569d818959a000482a7880082a8900082a998008477ff7b67d8008488ff7b68900082678000d297077b6780009567401d826800015020080310b39568d81880877c049777208288800482698000d497079569d828826a9000959b00057bbab000826ad8007bbaa8007bb8c0007bb7b8009568802e8267000150200a034db39567201d8268e00050200c0392b09567d818827248048273500482745804827a60048267a800957b02d87b0c8268d000c8c807d88708dacc088269a000c89808d8980c8269f000c89c0c9569d8287b9ce005959c00057bc8d8007bc7d0007bcbc8007b9a00067b94f8057b93f0057b92e8059567a02e9568c02e50200e03cdb29567001d826898005020100312b09567d818827228048273300482743804827a40048267a800957b03d87b0c8268d000c8c807d88708dacc088269a000c89808d8980c8269f000c89c0c9569d8287b9c2006959c00067bc8187bc7107bcb087bca407b9438067b9330067b9228069567e02e9568002f5020120351b29567e01c826888005020140396af9567d818827208048273100482741804827a20048267a800957b04d87b0c8268d000c8c807d88708dacc088269a000c89808d8980c8269f000c89c0c9569d8287b9c6006959c00067bc8587bc7507bcb487bca80007b9478067b9370067b9268069567202f9568402f50201603d4b19517e0847ce064c18268a800958705d88708826ad000c88a09d8a90ada880a8268a000c88a0ad88a08826bf000c8b8087b6c00017bc8187bca107bc9087bc79567c01c82687850201803dbae956ad81895ab000382b7f80082a8000482b9f00082bae800d49808d4a707d487078e777b67f0009567a01c8268000150201a03d2b0956ad81895ab000382b7c80082b8d00082b9e00082bad800847700ff826bf000d4b707956bd82895bc00067bc9a0007bca98007bc890007bc788009568602f8267000150201c030ab18267e80033001e030a058269f80033022003284c2e8269f80050222003452e4929c003959b00037bb8b8007bb7b0009568801c7bbaa80033075020220358af9569d8184929a0034929980349298803043307209568601c492990035020240336af9517e08477e07b6700016471330840330750202603e0b29518e08488e07b68f00050222803992e0a09826af00082a71882a81082a90882aa6f776f8b6f996faa7b6aa800826800017b8a187b69d0007b89107b6be0007b8b087b67f0007b879567401c50202a03bfaf956ad81882a2800382ac780382ab70038e278ec8db2708d42c078eb9db7809510906286b1c82a768037b67a000957701887801c8b808d48709889901c8c909d8c90ac82a0a7b6b9800956bd8287bb7a80695b700067b78b0007b79b8007b7ac0009568802f826700017b6c00017b62900050202c03c9af9517e08477e07b67d80064719567d818826890007b7800039567d818826800017b78f8029567d818826898007b78f0029567d8188268a0007b78e8029567d8188268a8007b7820039567d8188268d0007b7818039567d8188268e0007b7810039567001c9568e01b9569c01b956ad818826bf0007bab080350202e03511f9567d818827760037b67f0009567d818827758037b67e0009567d818827750037b67d0009567d818827748037b6700019567d818827738039568d818828b40039569d81882992803956ad81882aa30038268d8007b87107b8b187b897b8a089567a01b5020300361ae9567d8188277d8027b6798009567d8188277e0027b6790009567d8188277c8027b6788009567d8188277d0027b678000826c000198c73d8269d000979803d4870798983d826ae00097a903d4980898a93d826af00097aa03d4a90997cc037b6ce0008e7a88cb000185bb01db7a0b8e978e8adb970ad49808db8a0b7b6ba80083c9807b69788267c8008268c00050203203c9307b67707b68f000826700018a79037b69d0008267b0008268b80050203403a9307b6700017b68688268e0008d8980007b69608267c8008268c00050203603633082690001d479098267e000887b80007b6ba000826a70daba09826ab000da7a097b690001826968d498088269f000dab9088269b800da79087b68f0008267c8008268c0008269d000502038033b3064898268a00093879389826aa8008268f00094a87b68f0008268000194a87b68000194a97b697094a77b67683307ff3308ff82696050203a03da2f7b67507b68603307ff3308ff8269d00050203c03ea2f7b67d0007b6858826850d487077b67503307ff3308ff82697850203e03cb2f826aa000826950dba907826b58826960d4b909daa8098268e0009387ff9389ff826cd00093ac93ab8598ff8577ff85b9ff85caff826ba80094b7ff94b8ff94baff94b9ff826b8000d2b909826b8800d2ba0a826b9000d2b808826b9800d2b707826b0001d4b707826bf000d4b808826b68d4ba0a826b70d4b909956bd82895bc00067bc9d0007bcac8007bc8e0007bc7d8009568a02f8267d80050204003b1ac9567801b33084050204203f7a99569d818959c000282cac00082cbb80082c7b00082c8a8007b67f0007b6ae000d4a7077b680001d4b808d478089888207b6bd800d4b707977720d4870752072a0e82672801959a00027ba78800826730017ba79000826738017ba798009568601b826740017ba7a0008267000150204403beaa8267e0008268d800d487071408e0ffffff0000000082690001d889088269f000949894785108d00d82670001837720956ad8188268080195ab00027bb868826810017bb870826818017bb8789568401b826920017bb980005020460360aa8267e800330048030a058269f80033024a0328f52a8269f80050224a03ee2ad4780298aa206f99979820d4a808989920826a48019567d818957b00017bbaf80049270002826a50017bbaf000826a58017bbae8003a0a3000023a0b38000249272002826cb8007b7c40027b7a60027b7b58023a0a4000023a0b480002826cb0007b7c3802826cc0007b7c3002957c00027bca507bcb487bc9187bc8107b72080264723308409569201b956a001b956be01a956cc01a8267c8007b2728028267000133004c039511e0fe7b1018017b1510017b160801951520018411e082c67b166082c6087b166882c6107b167082cc187b1c7882bc7b1c3882bc087b1c4082bc107b1c4882bb187b1b5033020e28552b9567a01a33084050204e0309a8956ad81895ac000182c7e00082c8d80082c9d00082cbc800502250035a2952075b0c64ba9567d8188268c800957b00017bb8a8008268c0007bb8b0008268b0007bb8b8009568801a8269b8007bb9c00064a77b6a58013300120128e3a895672013330840502052039fa79567d810957900028298607b6850018298587b6848018298507b6840018297487b675801330054030a0d3302560328f12850225603ee285208d80b64799877205207cf0b50225803df2a50205a034aac9568d828826948017a894804837795680030838820fd33090a0c9567d828817748040182685001ac87980b0a0d01647898772052078c0b826758017b68500150205c0305ac8378816950013307010a0e014926f00010278267580195798082673882683050205e03e62b7b6718017b6820018267508268588269580150206003ce2b7b6700017b680801826858019a89800082673882683050206203d82b82690801d4980882695801889a80007b6a0801826b2001daab08826b58da9b087b68200182680001d4870782681801daa807826850da98077b671801826738826830502064036a2b330c8269080193989397826bf00095b9ff7b69e8008eb99599ff7b69e00082601001017b6800017b6c08014926f8008268180198893f826c200197ca01d49a03978901980b3fd49b0b7b6b1001826ae000d33a087b681801d83a088269e800d8b90282691801db980282680001978801987b3fd4b8087b68000198cb3f977701d47b0b97070182684801988c3fd4c7077b672001978c018267400198783fd4c808977c018267500198703fd40c0c97770182690801d497077b67500186c77b67400186877b674801826720018670c9ba07d82707d8ba0882640001c94a0cc98c0cc97c0c99c23f8267f000d2720782691001c979087b681801d87908c983077b6720019438c98b07d88b08c98408826a5801826c3801d4ca09889901826b2801d89b03c99b0b88a901c99c0c82693001c9390995aaff7b6c38017b693001d4c9097b6a5801d4ba0ad4a909842c017b6b28015209d1fe8269480198973f970801d48707826a400198a83f979901d49808826b500198b93f97aa0197bb01d4bc02826cf800d4c909d4a90bd48c00d47c03019568ff079588d90064277b67207b87e80082678000958900017b97087b6b287b8bf0008267487b971064077b67e0007b87f8008267407b97187b63e8007b830001648b9567ff07957701029568ff079588e1019569ff079599c101826a787bba200150206603af1f9569ff079599d900959800018287407b6738018287387b6730018287307b6728018287287b6720014929e0008267687b97d8008267607b97d0009568ff079588a1018267707b97c80033075020680359a59567ff079577d9004927c0004927b8004927b000647a3307209568ff0795888101492aa8000150206a032da550226c03892750206e03e2a89518e08488e07b685001502270039b24330072030a09826a500133027403289123826a5001502274038a237bba207bb9187bb8107bb7089567ff07957761019568e02850207603caa5956bff0795bbd90082ba880082b7900082b8980082b9a000826c787bbc40826c407bbc38826c487bbc30826c80007bbc287bb9607bb8587bb7509567ff07957741019568ff07958821019569ff07959901017bba4850207803821e956cff0795ccd90082c77882c8800082c96882ca70826b58017bb7107bb8187bb97bba08491c208267687bc7188267607bc7109568ff079588e1008267707bc708330750207a0334a49567ff079577d90049074917f8956800104928c0f8013307209568ff079588c100956900104929c8f850207c0305a4330840330750207e03bba79518e08488e07b685001502280037423330082030a09826a500133028403286a22826a50015022840363227bba407bb9387bb8307bb72895670029826858015020860328a55020880321a23a083002037b6810013a082802037b6808013a072002037b6718018267900095770188780182699800c89808d48709889901826aa800c8a909d8a90a826ba000c8ba0a956bd8287bba607bb9587bb8507bb7489567ff079577a1009568202950208a033ca4956700108277b0f87b670001956700108277a8f87b67f800956700108277a0f87b67f0009567ff079577810033084050208c03dba195670010827c98f895670010827b90f895670010827a88f895670010827780f8d4ca0950228e034226520822061408ffffffff000000008269f0008499ff7b69f0008269f8008499ff7b69f8007b68a00082690001d298087b68000195680010492870f895680010492868f895680010492860f8140900000000bb9c05a99568ff07958861956200107b2978f850229003d623502092037ca28268580195870450229403ed2382684801c88a0ad88a0b82684001c88b0b82683801956c00077bc8f800826830017bc8f000826828017bc8e800826820017bc8e00082680001956c00107bc810f88268f800956c00107bc808f895680010492818f88268f000956c00107bc800f8956800107b8928f8956800107b8720f8956700107b7a30f89567ff079577419568ff079588219569ff07959901956ae007956c00107bcb38f850209603cd1c95670010827748f895680010828258f895680010828340f895680010828a50f882685001d3870bd8870c82605801d80304dab40c82694801c99a0bd89a0a82694001c99209c9a909d8cb0ac9a9097b69f800c9cb0b7b6bf000c98707c947077b67a800c903077b6700010a0b01956c000182c7086f7797782082c9106f99989920d4890282c8186f88978920330a000203987720d479049880203e040802033e020002033d00100203956bd828492b8000491b78491b7082c76473826cf000d4c7078268f8008269a800d49808d48707987720d4c808978820d48707491b68520726047b64f0007b60f8007b6208018267580164387b6a18015020980391a47b6710013308208267580150209a0380a49569d82848298800204929c000ff4929b800ff4929b000ff4929a800ff956c000182c81897882098882014090000000008000000d498029568402997882098882095698029979920d4890a82c81097882098882082cb97bb20d48b0b97772098772095686029978820d4780c3308ff3309ff7b62100164270a0101520793020a0d01330820ae87080a0d64780182695801826a5001826b4801826c40017b68a800492600017b6880077b69a007492688077b6aa807492690077b6bb007492698079567a007956880077b6cb80750209c030b14826258018267a800c82700d8700882635001826c0001c83c09c88909d3c90ad8c90bdaa80b826a4801c8ac08c88b0bd88b04d8c80882674001c87c0cc8c808c884047b6b30077b6928077b6020077b6758077b6a50077b6348077b6240079567600795684007956920077b64380750209e03bc14956b000782b77082b87882b96882ba60d49808d4a707d4870752079602956720033308405020a003149e95680003828b38828c30828a288287205022a203c02152086e02492610034926080349260003140900000000a079c308956800037b6918035022a40364205020a6030a9f956b000182b95082b85882b74882ba40d47a0a140b00000000010000001407fcffffff00000000d87807949794a7510712028387044926f8024926f0024926e002209568e0024926e8027b6a48017b6b40015020a803b29e956a000182a95882a7409577dc5022aa0344205107d5018397244926d8024926d0024926c0021b9568c0024926c8025020ac037d9e5022ae035f205107ad01826758018377443a083001023a096001023a0a680102956b00027bb8b8007bb9b0007bbaa8001409000000000064656c9568a0027bb9a0003300080428319e956740223308405020b003ed9c9567d82095790001829880007b6850018298787b6848018298707b6840018297687b6758013300b2030a0d3302b403283e1e5022b4033b1e52082501647998772052071c015022b6032c205020b80397a19568d828826948017a89a8078377956800308388800033090a0c9567d8288177a807284ef59567c0073308405020ba036a9c956800078287d8007b6750018287d0007b6748018287c8007b6740018287c0007b6758013300bc030a0d3302be0328bc1d5022be03b91d5208a300647998772052079a005022c003aa1f5020c20315a19568d828826948017a89c8008377956800308388a0f933090a0c9567d8288177c80028ccf48267f00082645001d87402826ce80082684801d3c80ad8c809daa209826ad800826b4001c9ab00d8ab03826be000826a5801c9ba0bc93b0bd8900ac9ab0ac9900bc9c809c92909c97408d4a909d4b80ad49a0ad4b90998aa20979920d4a90952090628a6c100826958989704826a3897a83cd4870782685098880497993cd4980888887102947898a704826930d497079478510867039567e0043308405020c403529b95670004827bf800827cf000827ae8008279e000d4ba07d4c908d47808988820d4c707977720d48707520799826720017b67c004826728017b67c804826730017b67d0049568c004826738017b67d80464977b6958017b6a50017b6b48017b6c40015020c603249c956b000182b95882b74882b840d487071408e0ffffff00000000d8890882ba5094a89478510836ff8397208268207b68a0048268287b68a8048268e0007b68b0049568a0048269e8007b69b8045020c803d19b816718013300ca030a05826918013302cc0328661c826918015022cc035f1cd4780298aa206f99979820d4a808989920492658048267b0007b6778048267b8007b6770048267c0007b6768048267c8007b6760043a0a4001023a0b4801023a0c5001023a075801027b6a98047b6b90047b6c88047b6780047b6950047b68480433084095698004956a6004956b40047b624004826758013300ce03951120ff7b10d8007b15d0007b16c8009515e0008411e082bc7b1c4082bc087b1c4882bc107b1c5082bb187b1b5833020828071d956720048268d0005020d003e69b956b000482b72082b82882b9308477ff8488ff826aa000d2a909492618047bb9107bb808956800047bb733075020d203c29a4926f8034926f0034926e003013307209568e0034926e8035020d403a49a33084033075020d6035a9e9518e08488e07b6858015022d803131a3300da030a09826a58013302dc03280919826a58015022dc03021995bc00017bca80007bc9787bc8707bc7689567c0039568402a5020de03419b8267c0037b6758018267c8037b6750018267d0037b6748018267d8037b6740019567a0038268105020e003149b956800038287b8008262a0038289b000828aa80082684001d3780bd8780882674801d8970cdbb80c82685001d3a803d8a80a82685801d82808db3a08d39707d4b707db7c0851084f95678003826888005020e203be9a956b000382b7800082b8980082b9900082ba8800847700ff956bd82895bc00017bc8a0007bc998007bca90007bc788009568602a826788005020e403019b8267d8008268185020e603f49a956760033308405020e8033a98956a000382a77882a87082a96882ab605022ea039319520794fc64ba49265803492650034926480395684003492640030164a77b6a580133001201283399956700073308405020ec03ef9795680007828c18828b10828a088287d4ca095022ee03671c520847fc4926f0064926e8064926e006140900000000bb9c05a99568e0067b69f8065022f0033d1a5020f203e398816718010a058269180182970881981082996f77977a206f88988820d4a8029877206f98978920d4790398882082675801957904d8790a82675001c8a70cd87c0bdaaa0b82674801c87b0bd87b0a82674001c87a0a8267e8007b6778068267e0007b6770068267287b6768068267207b676006492698067b6ab8067b6bb0067b6ca8067b69a0067b6890067b6388069567c0069568a00695698006956a60067b6280065020f40338138267c8068262d8068263c006826ad00682685001d3870bd8870c82605801d80304dab40c82694801c99a0bd89a0a82694001c99209c9a909d8cb0ac9a9097b69a800c9cb0b7b6b9800c98707c947077b679000c903077b6700010a0b018267f000956900018298187b87088297087b878267f8007a8710956ad828492a0001492af800492af00082976479826b9800d4b7078268a800826c9000d4c808d48707987720d4b808978820d48707492ae8005207c0fa8267580164985020f6033b9b7b670801330820826758015020f8032a9b9569d828959a0001481a0820491a40ff491a38ff491a30ff491a28ff9568c0299788209888209569002a979920d4890a82680801978820988820826b000197bb20d48b0b9777209877209568e029978820d4780c3308ff3309ff826710010a010152074f020a0d01330820ae87080a0d6478017b681001956a00067ba8826758017ba7204926080149260806826750017ba72849261006826748017ba730492618069567200695680006826940017ba9385020fa03d10a8262580182671001c82700d8700882635001826c0801c83c09c88909d3c90ad8c90bdaa80b826a4801c8ac08c88b0bd88b04d8c80882674001c87c0cc8c808c884047b6bb0057b69a8057b60a0057b67d8057b6ad0057b63c8057b62c0059567e0059568c0059569a0057b64b8055020fc03820b956b000582b7f00082b8f80082b9e80082bae000d49808d4a707d48707520788f9956780053308405020fe03d694956b000582b9980082ba900082b7880082b88000956b00017bb7507bb948d497077bb858d4a808d478089888207bba40d4a707977720d4870752070df9492670054926680549266005140700000000a079c308956860057b6778058267580150200004ab95956a000182a74882a940d47909140700000000010000007ba7401407fcffffff0000000082a858d8780782a85094877ba94894975107adf882675801837704492658054926500549264005209568400549264805502002045195956900018297409577dc829858d878078298509487829848948751076df88267580183772449263805492630054926200513956820054926280550200404119550220604f316510741f8826758018377443a083001023a09380102956a00057ba8187ba9101408000000000064656c7ba808956800054926000550200804d1943308648267580150200a04859883783307013309640a0e019567400633084050200c047293956800068287587b6750018287507b6748018287487b6740018287407b67580133000e040a0d3302100428c81450221004c5145208aff79878205208a8f764787b67480183777b675001826758015020120419989568d828826948017a894801837795680030838820fa33090a0c9567d8288177480128d0eb3307330850201404ea978378330701280d330800020283883307010133090a0e33073300140428c89733073300140428bf97956aff0795aad90095ab000482b8d00082b9e00082bad800847700ff956bd82895bc00017bc8f0007bc7e8007bcaf8007bb900029568c02a82675801502016043295956a000182a79569ff079599d900959b00047bb7a00082a7087bb7980082a7107bb790003a07e8000282a8187bb888003a08f000027bb7c0003a07f800027bb8b8003a080001027bb7b00064979569ff0795998105956aff0795aa61057b78a804330733085020180430953307330850201a040b9783783307282fff9567d8184927180149271001492708016479140700000000717b484e9568e0197b972001330750201c0417939568d818492800014928f8004928e8001164893307049568c0194929f0003300240428ef929567d8184927580149275001492748016479140700000000717b484e9568201a7b976001330750201e04c6929568d8184928400149283801492828014164893307049568001a4929300133002404289e929567ff079577d9004927780149277001492768016479140700000000717b484e9568ff07958841027b9780013307502020046d929568ff079588d9004928600149285801492848011164893307049568ff07958821024929500133002404283d92492a9801492a9001492a8801140700000000717b484e9568601a7ba7a0013307502022041a929568d8184928800149287801492868014164893307049568401a4929700150202404f691330824330750202604ac958378330701330924330028040a0e019511c07b10387b15307b16289515408411e06476831733080433002a040a03018217108218181409000000000100000050222c044515510a248219821a087b697b6a087b67107b68189551c0821038821530821628951140320033080002028388330701330933002e040a0e01951150fe7b10a8017b15a0017b1698019515b0018411f082831082841882820882867b12c0007b14b000d442087b16c800d43606d486069866207b13a800d43808978820d468087b1740520897028257088278187b181882588276107b16088276087b161082777b178287187b17388287107b17308287087b172882877b172082c7187b176082c7107b175882c7087b175082c77b174882b7187b17800082b7107b177882b7087b177082b77b176882a7107b17900082a7087b17980082a77b17a0008297108298088299977720987720492188017b1970017b187801951870017b1780018216c8006467502030047e908217a8008219b000d47909140700000000010000007b1788001407e0ffffff00000000d876078218c00094877b19b80094975107be011408ffffffff0000000082199000d28909821898008488ff821aa00084aaff8216c800836720492168017b1a50017b185801951850017b196001502032040890821788009577c050223404af1151076d018216c8008367408218687b1830018218707b1838018218787b18400195183001821980007b19480150203604c98f140700000000010000007b17a0001407a0ffffff00000000502238045f1151071d018216c8008367608218487b1810018218507b1818018218587b182001951810018219607b19280150203a047a8f8217a00095778050223c0421115107df008216c800836780008218207b18f0008218287b18f8008218307b1800019518f0008219387b19080150203e043b8f140760ffffff0000000050224004df1051079d008217088218d48707821818821910d49808d487078e78821ac80095a7c0007b17b800d8a7078219c000c8790b7b1ba000d89b09da77098217a800c89706d876078219b000c897077b17c00083a7a0004921e8004921e0007b18d0009518d0004921d80050204204be8e8217408218c0007b78187b76108218a0007b78088218b8007b78955150fe8210a8018215a001821698019511b0013200009511e0fe7b1018017b1510017b160801951520018411e064167b673882977b67488297087b67408297107b67508297187b6758828718828910828a0882887b67307b67f8007b69287b69f0007b6a207b6ae8007b68187b68e0009567c0009568e00050204404178f8267d8008262c0008269d000826ac800826858d3870bd87808826750d8970cdbb80c826840d38a03d8a80a826848d82808db3a08d39707d4b707db7c085108ce008267187b67608267207b67688267287b67709568608267307b6778330750204604c18d3908f0010256181f0b2003f0010220019517e08479e07b693064913307000202837783993308200a09826a3082a782a80882a91882aa106f726f886f996faa826b40c8ab0b826348c89303d89309c89b0bd3ab07d8ab0ada790a826750c88707c87a0ad87a09826c58c8c202d88707c82707c8970782683833094918384918304918284918207b837b8b087b8a107b87189551e0fe8210180182151001821608019511200132004926b0004926a8004926a000140700000000717b484e9568a0007b67b800330750204804f48c49269800492690004926800032330704956880004926880050204a04d68c3908f0010256183f0b2003f0010240013308000202838833070133092433004c040a0e33024e0428bb0d50224e04b80d51070b502250044e1032009517a00033084050205204548b50225404700c520752502256046e0d50205804798c50225a042f0c51073d50225c04d00d50205e04648c50226004380d5107288216188367244911584911504911401d951840491148502062043f8c50226404fa0c520704008216188367443a089001023a099801023a0aa001027b18387b19307b1a28140900000030206e61689518207b192050206604018c330864646750206804b78f837833070133096433006a040a0e01951170ff7b1088007b1580007b1678951590008411f064728289827408828c088273959a1fd89a00c80c0984aae07b1308c8a303d8a30bc8490ac8ba0ad39a06d89a07da6b07822b18d8c90c828610822210828818da000cc86c0cd86c06c82c09c89707d8c90cd89709c8b808c86808c8c808c8980c8ec88e79dbc809d4c7088ea6db8906520657821808d88308d34a09d84a06da9806d82708d3bc09d8bc0bda980bd32708d49808da860b520b307b13507b1a587b17603307409518507b1c6850206c04208b955170ff821088008215800082167895119000320050226e04230e50207004ff8a4911284911204911104133070495181049111850207204e68a3908f0010256183f0b2003f00102400133080002028388330701330924330074040a0e019511907b10687b15607b16589515708411f0648a82841082880882920882a67b16829b7b1b08829010d3820c7b1c28d8820cd86b0b821328da3b0c64b682aa187b1a188299187b1910c9400ac9ca097b1920d8ca097b1428d8400b821418821a10c94a0ac9ba0ac99a0ac98209c969098212821b08c92b0b8e9c88bb2085bb01db9c0b8fa68219208e9cdba60cd4a909db9c0b510b616476821a28d4a207d44809d49707987720d4a909979920d49707520743951730642850207604ca88821748821840821930821a38d4780b889c0294ac94bc510c277b697b6a087b68107b67189551908210688215608216589511703200003308000202280833080002020183883307013309330078040a0e33027a0428bc0a50227a04b90a51070b50227c044f0d32009517a00033084050207e045588502280047109520752502282046f0a502084047a8950228604300951073d50228804d10a50208a04658950228c04390a5107288216188367244911584911504911400f95184049114850208e04408950229004fb09520704008216188367443a08a801023a09b001027b18384911287b1930951820491120502092041189330864646750209404c78c8378330701330964330096040a0e019511907b10687b15607b16589515708411f0828a187b1a08829b1882847b14828a08829608829c828310829210c8a609c8c404d8c40cc8c909d36900d86906da0c06c83208821c08c8bc0cd8280bc8cb0bc8680cd88c08c88b00d3a90bd8a90a8218d88406dbba06d83c02821808d3800bd8800adab20ad33c08d4b808db8a0652061f7b747b79087b7c107b7018955190821068821560821658951170320050229804700b50209a044c884911284911204911101133070495181049111850209c0433883908f0010256183f0b2003f0010240013308000202838833070133092433009e040a0e019511a0fe7b1058017b1550017b164801951560018411e04921f8004921f0004921e8004921e0009517c0009518e0005020a004cc888217d8008218c8008219c000821ad000d48707859802d4a808d4870751074849211801492110014921080149210001492138014921300149212801492120010295170001951820015020a204ff889551a0fe8210580182155001821648019511600132009517a0003308405020a4042f865022a6044b075207525022a80449085020aa0454875022ac040a0751073d5022ae04ab085020b0043f875022b20413085107288216188367244911584911504911401f9518404911485020b4041a875022b604d507520704008216188367443a08b801027b18383a08c001023a09c801023a0ad001027b18307b19289518207b1a205020b804e18633086464675020ba04978a83783307013309643300bc040a0e3302be0428d0075022be04cd0751070b5022c004630a32009517a0003308405020c20469855022c40485065207525022c60483075020c8048e865022ca04440651073d5022cc04e5075020ce0479865022d0044d07510728821618836724491158491150491140149518404911485020d20454865022d4040f07520704008216188367443a08d801023a09e001027b18387b193014080000000065636e617b18289518204911205020d6041b8633086464675020d804d18983783307013309643300da040a0e019511807b10787b15707b1668951580008411f0829b828a829608828308829410828c10829918828818d363027b1608d863067b1b187b1a10d8ba0a7b1ada2a06d3980ad89800d84c02daa200d34c0bd4ba0adaa600520046c94c0ac99808c92808d86a09c99808c96a0a821908c99309821bc9b909821b18821c10c9bc0b7b7b7b79087b7a107b7818955180821078821570821668951180003200491150491148491140140700000000717b484e9518407b175833075020dc044585491138491130491120113307049518204911285020de042c853908f0010256183f0b2003f001024001330800020283883307013309243300e0040a0e01951150ff7b10a8007b15a0007b1698009515b0008411f0828c10828b1882860882827b1b407b1638d4b608d4c20bd48b0b98bb207b1c48d4c808978820d4b8087b17305208da00642682a7187b172882a7107b172082a7087b171882a77b17108297108298088299977720987720492188007b19707b18789518707b17800064275020e2048184821948821a40d4a9071408e0ffffff00000000d88608821b3894b894785108799567407b1708d86707c87b087b18d8b808da7708c898087b1838d89807c8a7077b17488367208218107b18508218187b18588218207b18609518508219287b19685020e4041a848217308218387b781082187b78088218087b788218487b7818955150ff8210a8008215a000821698009511b0003200004926380149263001492620010233072095682001492628015020e804cc833908f0010256183f0b2003f0010240019517e08479e07b693064913307000202837783993308400a09826930829718829810829b08829a6f776f896fbb6fac7b6c78017b6b70017b6968017b6760019572057b6718d87208c889077b6920d8970ada880ac8ba0a7b6b30d8ba087b6c28c8c8087b628001956900017b9788007b9a90007b98980095670001956880015020ea0429847c670001510783019567e000956860015020ec0413848067f0008268e0008269e800d48707d4970751075f01826818958704d88708826a20c88a09d8a90ada880a826830c88a0ad88a08826b28c8b808956b00017bb7a0007bb9a8007bbab0007bb8b8009567c0009568a0015020ee04b7838262d800826bd000826ac8008269c000d42a07d4b908d4870751072401826818958703d887087b6918826920c8890c7b6a10d89c0ada880a826830c88a0ad88a08826928c898087b67c0017b6cc8017b6ad0017b68d8019567a0009568c0017b6b307b62285020f0044c838267a0008268a8008269b000826ab8007b6a587b69507b68487b67408267287b67788267307b67708267107b676895678000956860956940826a187b6a605020f20425f9826780007b6730826788007b6728826790007b6720826798007b67188367e0010a0a33078268f8018262e0018264f001826be801826918d3980cd89808826a20d8a409dbc809826828d38b03d88b0b826830d88208db3b08d3a40ad4ca0adba90885880128053308018269387b987b97087b97107b97189551e0fd9517000282701882751082760895112002320033080128d833075020f40471853307015020f604688582a71882a81082a90882aa6f776f886f996faa956bd8283202140b00000000010000001407fcffffff00000000d8780782c950949794a7320282970881981082996f77977a206f88988820d48a0a9877206f98978920d497079888209569d818320295690001829a581407bcffffff00000000d87a078298509487829848948732028269580182970881981082996f77977a206f88988820d48a0a9877206f98978920d497079888209569d8103202d88708826a5001c88a09d8a90ada880a82684001c88a0ad88a08826b5801c8b808956bd83095bc00013202956b000182ba4882b95082b85882b7409577dcd87807949794a732026481837783893308403202d88708826a5001c88a09d8a90ada880a82684001c88a0ad88a08826b5801c8b808956bd8283202821908d46909140600000000010000001407fcffffff00000000821818d8780782181094877b1908949732028219b8008216b0008217a8008218a0007b17107b1908d497077b1818d46808d47808988820d46707977720d48707320282a71882a81082a90882aa6f776f886f996faa956bd82895bc00033202d49707d48b09d47909989920d48707977720d497073202956b000182b85082b940d4980882ba4882b958d4a909d48909989920d4a808978820d498083202826a580182a71882a81082a90882aa6f7b7b6b48016f887b6850016f9c7b6c40016fa77b675801826938017b97187b9c107b98087b9b6498320282970881981082996f7a97a7206f8898882032021407bcffffff00000000d876078218109487821808948732029567dc821818d87807821810948782180894873202492190004921880049218000140700000000a079c308951880007b1798008217183202951120ff7b10d8007b15d0007b16c8009515e0008411f0827810827918827a088277d4a909d48707d49707320282a71882a81082a90882aa6f776f886f996faa32027b6758017b6a50017b6b48017b6c40013202821718837704491178491170491160209518604911683202d88708826a5001c88a09d8a90ada880a320282680001d878078268f00094878268d00094873202d8790782a850948782a84894873202d876078218c00094878218b80094873202d8970b826a9800c8ba09d8a90adabb0a826ba800c8ba0ad8ba0b826ca000c8cb0b32021407bcffffff0000000095690001829858d8780782985094878298489487320282ab7b1b1882ab087b1b2082ab107b1b2882aa187b1a308296829a087b1a829a107b1a088299187b1910320295690001829b48829a508298588297409577dcd8780794a794b7320283977b6750018267580164987b69480132029517e08477e07b6758016471330840330732029517e08477e07b673801647133084033073202d4ba09d4c708d49808988820d4c909979920d498083202826bb0008269a80095111082675801d4b707826ab800d4a908d47808988820d4a707977720d487073202977a206f88988820d48a0a9877206f98978920d4790998882032023307d828c8760a95ab000232028267580181773308233202c8760a95ab000182b7b80082b8c00082b9b00082baa800d49808d4a707d487073202491140491138491130140700000000717b484e9518307b1748330732027b6728018267480195770188780182695001c89808330900303202d4b708d49808988820d4b909979920d4980832027b68500182684001c88a0ad88a08826b5801c8b808320295ab000682b7c80082b8d00080a9d806492ac0067bb9b8007bb8b0003202d37909d48909987a2088aa01948a939a3202955120ff8210d8008215d0008216c8009511e0003202849a40520a195109148d9a40cfa80ad09808d09707d4a707320032009597c0d0780733083200849a40520a195109148d9a40d0a70acf9707cf9808d4a808320032009598c0cf870833073200490a21a11a4292d210a1925429a42449922449922449922449922449922449922449922449922449922449922449aa9294529294942454a5242549922449922449922449922449922449922449922449499294a4aa24254994a492a42a494992922425294955559292a42495244544444a9224254952a1524a4992524a49524911115142a9a4a4a4489122458a14295294a4a084a222458a142952a4489122458a142952a428912222a224491042c2509a94864422222252440489482292442222a211114922244924a248448842d51011221240884824898888888808111122224484248948888848922411110960449290248000928a24912424492a92445248002945422109204948a1a4111111211222229224498652855285522b544584888810424885aa428448529228a234229080082490400202020209249040020924222222d2882449928424224544241289109188a488888844421429091111118588881221a49044489144888888081149522491441249924444442291921091440a1111891092288524428a24424444448888888888888888888888101111114989948488245288889088904212214512212222224482884892244992880820222222882822112425892492441289888888482412115144440411111149249144924422894410224488468992444922491111295224491249144422888888884812402289a424491249529326352222222222222222828824224912491249222222222222222222228888888888888888888844828848122411894422520411452482a424212284109148928888202222442222221a1111912489229120224992244912114444242222228d888848924491481091482412412449499224092144444444412212111111452482244822524444444444444444248954924444449188119148241209222222822412499248149188888868444424498224224544444492484144844404419044104582082222228248241289442222888888884890241141444444444424489288202291484444822489082222221244101111492282888804118944222291a88844229148241289444422918888888888888888888822222222089222222212111111512448922449904404114144144444844444908224822822114492444410111149922422414424499044224912911491888888882241922449a24844828848922449924484888848248968245292245124224244103122118944224144444490442212894814412228352222221a1111912489221144444444448a8888888888482349924482884892244992880820222222882409924444888808822411112282204908212222221211111151442248822422454444444444444444444144444844044190445024a92a22914854441011111111a246524a494a92244992244512492289a4242282888824224144449224499244440011111111449204492222424444044192888810114190248410111111404444222222228a0489244912241189224144444444444144844404419044104582082222228248442291482422828888888804111111114422918888041111111144229148448248928820128948902011912411412422411489442211892822222291482412894422914824222212894444444444444444441024454444444c92249188249224499224452482a2121111118d489224499044a48844229108222222222222a2202222242282244a41124191a4aa485252228924914852222288882412444444904444001141104912248908111141902422440491008224218448121149928846922449a24804111111119122914824222212894841448444044994822482282211442412898a20222292942449224992245144444444444444441091482412114544528a20624424128944828848122491482291244914a548924844101189882022222288444424129148242222888a28aa88249108129188888844239224491224518a482412892092244911111111890411912449922411114044444410a288469204104052494452112422222282882329492591549088888808220124a52411111111111104214284284a94244a1249111191082211444408214412402289249200924492d4a4498d8888888888888888202289489244924492888888882222828824898888884491544a52928888888288a4440441904410452482888888082249a248249224221244924452228a48041111110511118910a42089a04852551411111144828888882089482412114510514422484a122242081189248988082249c4449040222222221a111191240992082288288888908820089208a28844109148248a04111189442222888848904444249148441111442291482291484444229122a2208952904495a28a4852558994282291486424914812892449121111412449922449228a88888888282288442291441289482492441289249244128922a54444449488888888888844244544444424922449448248922449924444041015111144920449222212111104492222440441921011218488884844828888244992248988002222222288240992444484888808822411112122822049082122222222121141444424110922222248222280882088240992448488882048121122824800419210422409208a442422494412912491241211111111111141248888884892244922892491444444888808228248922449924444444444221109aa229144924492482246229144224992241149922411111141244924499244442491241145049148248924129144924822114924892412115154254411452482888888828808890852904410452482489288202249228924924892442488888824499244440011111141244990248a0811114124494a4922129120920410402a498848082189049124481222492488084a449324458294444410119124494412912492884444121111114444444444444444444444444444444444444444444444041111111111111111118d88888824924822894812110922222222499224111140444444049124419288881011114190242222444410240921229200121191482489480a9292241111211111a42089208a4804111111111144444444444452244852448288482422124924914492241111111189282222228a888808124992244992244992929424912449a29452224945925422aa1491249252a52422922491482249241111491091441091882441444492884892488288482491529222121111228288248924922412499244448448121141248848924a118924924424922491882222114144231291244912414444440401041024918822222222220a224112898888888888280820802089444491482422a2202291a824222222220a0288445112404424222242101189442252101121114112a52089a0485251144524292288888844124944109148221111111141522491249248242922888888442212114144221211111111114404111111492489241211111111111144041111114924892412114912111141441011119144924822119124222222488a249244128924458288888824454410111111918888888820a2884410111151101121114112a52089a0485255442291288288884a4a1291244912111111111141124544444444444444444444444444101111111111111111111149892022222222222212492249248922a92491440489484404918844049188482291442211114151114514a5240992248248922441244912495492449244229148249224111111114124888888884824892411111111111141440288444524221289444410514422484a121111111121444444081111912451222222222222222549929224491209222222822822222222228a4824884824128928124489208888222a62444b4404451a4492202289202222092211114922124922098a8a448918119148924424128944924892482291249244a228a2249124914824519288249224928844928848124922492249469488482229228928222222114444229148442211912888888812118220482288221241924444101111912449244944444482884412494992442405112542222282142411441189204922822044881091449248229124111144444444444482888888880411402422119188888808201211049120924844444444444444444444444444241289882022222222924822892489441289464a4a524292104244529188244912111145108920420821449200124924494a924892a8d1a4464444444444444404114944922492249244444444444410499224224124491011114044104492248000529188101111449220121122822022218488880022229120222291484491204a04414414511189041111111111458228110411514445242211492292882449922449924c92244994a48804111191244912111111114544049124012415492422222288282211242589888888881042888888484444444444a424499244049124894412154484440429482288221241449288202222222212444444249144124992440411111111111111412488049124411411118a4824882425888808202208a2482a2529492491249248444422111111111111114444441249249124914822d188244522222a12912449441444228888888848228924922492241a4d6a44918848442222124424114992489248121111111111414444248948101111912449922422228088082249000920492922112122882449292211212208221242240124224804258d049148241251248844514410114554442a2885b28a148988888888888888208a884824422244881045444405155422220a20a2202242898844441440444144841211898888028888828888502222121101441444442811410a4aa2499254a24900414a499224855234222292a488449248924852925492242549929248929248144949444444414402880012451140241289444444100922924824222208200208229248242211448288482412910802082225498a884422892412111111412289441111d18888482949922429914824228288882449922449124992242908114c52a89492542549922449922429494a12111145440011051121114188602889224182224190200812044192249220c8248490248024484149342212a9a424499224499224499224a9a42449922449922449101189822089244188602889264952922a4992a42449922449929494a4942425499224054992544a922469282c459120419120481004098220491249106412429224484149344992249594244992244992a4244992242549921404492409420443493422221211111144442449222222224404111151240812044182204892441204998484109224484149140912140982044190200892249104412621240124095250124d9248254992244949922449922429494a922451920092822492042182a1241a1111495292244992284992929444922848124052499292244992244912242929898888468444042182490a9592a4aa8888244992248988888820222288882492244992242222228288882491244992244944444412444424499224912441241289444544244992244992d494242249940a1224a92a0a2080a44a2a252949140920291549a5242589124922894414499254554a2489241225010490a45444449224495292aa224a92244592244992224945511491a44a2aa500925249522a2202884811119124252949554544942491944852248a4a4a258a4a248924520091a4544992a4942445922455114549944aa25492242922914892a494a42445a22825222292942480a42292489424491149a48888882849aa8888284992a4924a9224a9a40000",
          "opcodes": ""
        },
        "methodIdentifiers": {
          "BASIS_POINTS()": "e1f1c4a7",
          "EXECUTION_FEE_BPS()": "2395d975",
          "cancelSubscription(uint256)": "21235083",
          "createSubscription(address,uint256,uint256)": "8a2405a8",
          "deposit(uint256)": "b6b55f25",
          "executePayment(uint256)": "162a0cf8",
          "getSubscription(uint256)": "dc311dd3",
          "getUserSubscriptions(address)": "2e6ca588",
          "isPaymentDue(uint256)": "e816e87f",
          "nextSubscriptionId()": "da58935f",
          "subscriptions(uint256)": "2d5bbf60",
          "usdtToken()": "a98ad46c",
          "userBalances(address)": "26224c64",
          "userSubscriptions(address,uint256)": "c95d6edc",
          "withdraw(uint256)": "2e1a7d4d"
        }
      },
      "hash": "fdfaf67dd5594a5593e88e00725268ccc93d340bc4ad3857b064ac02b4bdb75b",
      "factoryDependencies": {}
    }
  }
}